:0200000470008A
:10000000000001200929007059290070FD2C0070A2
:10001000112D0070172D00701D2D007000000000C4
:1000200000000000000000000000000005BC00709F
:10003000592900700000000031BD0070F92B0070DC
:1000400059290070000000005929007059290070DA
:1000500059290070592900700000000000000000BC
:1000600059290070592900705929007000000000BA
:10007000000000005929007000000000000000008E
:1000800059290070592900705929007059290070A8
:100090005929007059290070592900705929007098
:1000A0005929007059290070592900705929007088
:1000B0005929007059290070592900705929007078
:1000C0005929007059290070592900705929007068
:1000D0005929007059290070592900705929007058
:1000E0005929007059290070592900705929007048
:1000F0005929007059290070592900705929007038
:100100005929007059290070592900705929007027
:100110005929007059290070592900705929007017
:100120005929007059290070592900705929007007
:1001300059290070592900705929007059290070F7
:1001400059290070592900705929007059290070E7
:1001500059290070592900705929007059290070D7
:1001600059290070592900705929007059290070C7
:1001700059290070592900705929007059290070B7
:1001800059290070592900705929007059290070A7
:100190005929007059290070592900705929007097
:1001A0005929007059290070592900705929007087
:1001B0002D2F00705929007059290070592900709D
:1001C000000000000000000059290070592900704B
:1001D0005929007059290070592900705929007057
:1001E0005929007059290070592900705929007047
:1001F000592900705929007000000000000000001B
:100200005929007059290070592900705929007026
:100210005929007059290070592900705929007016
:100220005929007059290070592900705929007006
:1002300059290070592900705929007059290070F6
:1002400059290070592900705929007059290070E6
:1002500059290070592900705929007059290070D6
:1002600059290070592900705929007059290070C6
:1002700059290070592900705929007059290070B6
:1002800059290070592900705929007059290070A6
:10029000592900700000000000000000000000006C
:1002A0005929007059290070592900705929007086
:1002B00053B94AB9002908BF00281CBF4FF0FF31CD
:1002C0004FF0FF3000F00CB8ADF1080C6DE904CE32
:1002D00014F0BEFEDDF804E0DDE9022304B070474F
:1002E000704700BF00000000000000000000000098
:1002F00001F0FF01102A2BDB10F0070F08D010F8D7
:10030000013B013A8B422DD010F0070F42B3F6D1DA
:10031000F0B441EA012141EA014122F007047FF0F3
:1003200000070023F0E80256083C85EA010586EA4A
:10033000010685FA47F5A3FA87F586FA47F6A5FA86
:1003400087F68EB9EED1F0BC01F0FF0102F0070292
:1003500032B110F8013B013A83EA010313B1F8D13D
:100360000020704701387047002D06BF354603381E
:10037000073815F0010F07D1013015F4807F02BF57
:10038000013015F4C03F0130F0BC0138704700BFA8
:100390000348044B834202D0034B03B11847704714
:1003A0009000002490000024000000000548064B47
:1003B0001B1AD90F01EBA301491002D0034B03B163
:1003C00018477047900000249000002400000000AF
:1003D00010B5064C237843B9FFF7DAFF044B13B18D
:1003E0000448AFF300800123237010BD9000002467
:1003F00000000000D468017008B5054B1BB1054929
:100400000548AFF30080BDE80840FFF7CFBF00BF4D
:100410000000000094000024D468017080B483B010
:1004200000AF7860044A7B68136000BF0C37BD469C
:100430005DF8047B704700BFAC00002480B584B039
:1004400000AFF860B9607A60094B1B68002B09D0D7
:10045000074B1B681B6808331B68054A10687A68DD
:10046000B96898477B6818461037BD4680BD00BF05
:10047000AC00002490B482B000AF04460846114698
:100480001A462346FB710346BB710B467B7113462C
:100490003B71FA79BB791B021A437B791B041A431F
:1004A0003B791B06134318460837BD4690BC70477E
:1004B00080B483B000AF7860044A7B681A607B68C0
:1004C00018460C37BD465DF8047B7047C873017051
:1004D00080B582B000AF78607868FFF7E9FF04214B
:1004E000786814F0A2FD7B6818460837BD4680BDC9
:1004F00080B582B000AF7860054A7B681A607B687F
:100500001846FFF7D5FF7B6818460837BD4680BD03
:100510002C74017080B582B000AF78607868FFF706
:10052000E7FF0C21786814F080FD7B6818460837D7
:10053000BD4680BD80B483B000AF7860044A7B685C
:100540001A607B6818460C37BD465DF8047B70471F
:10055000A473017080B582B000AF78607868FFF74F
:10056000E9FF0421786814F060FD7B6818460837BD
:10057000BD4680BD80B582B000AF7860054A7B681B
:100580001A607B681846FFF7D5FF7B681846083766
:10059000BD4680BD4875017080B582B000AF7860FF
:1005A0007868FFF7E7FF0C21786814F03EFD7B6860
:1005B00018460837BD4680BD80B582B000AF786070
:1005C000054A7B681A607B681846FFF771FF7B68F5
:1005D00018460837BD4680BDDC73017080B582B017
:1005E00000AF78607868FFF7E7FF6021786814F063
:1005F0001CFD7B6818460837BD4680BD80B582B0BB
:1006000000AF7860054A7B681A607B681846FFF780
:100610004FFF7B6818460837BD4680BDF0730170F8
:1006200080B582B000AF78607868FFF7E7FF1421EB
:10063000786814F0FAFC7B6818460837BD4680BD20
:1006400080B582B000AF7860054A7B681A607B682D
:100650001846FFF72DFF7B6818460837BD4680BD5A
:100660000474017080B582B000AF78607868FFF7DD
:10067000E7FF2421786814F0D8FC7B681846083717
:10068000BD4680BD80B582B000AF7860054A7B680A
:100690001A607B681846FFF70BFF7B68184608371F
:1006A000BD4680BD1874017080B582B000AF78601F
:1006B0007868FFF7E7FF1821786814F0B6FC7B68CC
:1006C00018460837BD4680BD80B584B002AF01F042
:1006D00023FE01F0B1FE03461846FFF79FFEA54832
:1006E00015F050F8A44B1B68BFF35B8F03F00103B8
:1006F000002B0CBF01230023DBB2002B12D09E483D
:1007000014F095FC0346002B14BF01230023DBB239
:10071000002B07D001F09AFE0346984A13609648D2
:1007200014F091FC964B1B68BFF35B8F03F0010341
:10073000002B0CBF01230023DBB2002B1AD0904802
:1007400014F075FC0346002B14BF01230023DBB219
:10075000002B0FD0894B1B684FF4FA721946894859
:1007600001F0F0FC884A8949864814F059FC844815
:1007700014F069FC864B1B68BFF35B8F03F0010329
:10078000002B0CBF01230023DBB2002B1BD08048C1
:1007900014F04DFC0346002B14BF01230023DBB2F1
:1007A000002B10D0032300934FF48073794A7549CE
:1007B000794803F013FB744A7849774814F030FC09
:1007C000734814F040FC764B1B68BFF35B8F03F05B
:1007D0000103002B0CBF01230023DBB2002B16D03A
:1007E0006F4814F024FC0346002B14BF01230023A0
:1007F000DBB2002B0BD000216A4803F04DF9624AAE
:100800006949684814F00CFC654814F01CFC674BFF
:100810001B68BFF35B8F03F00103002B0CBF0123A8
:100820000023DBB2002B17D0604814F000FC034615
:10083000002B14BF01230023DBB2002B0CD0594A3C
:100840005B495C4802F0ACFC4F4A5B49594814F0E4
:10085000E7FB564814F0F7FB0123FB80574B0222BD
:100860001A706F230122A821C020FFF703FE034660
:10087000524A53600023FF22FF21FF20FFF7FAFDB9
:1008800003464E4A936001230122A821C020FFF7AE
:10089000F1FD0346494AD360484B42F210721A6197
:1008A000464B474A5A61474B1B68BFF35B8F03F0C7
:1008B0000103002B0CBF01230023DBB2002B17D058
:1008C000404814F0B4FB0346002B14BF012300235F
:1008D000DBB2002B0CD0394A36493B4800F026FAEF
:1008E000294A3A49384814F09BFB364814F0ABFBD0
:1008F000374B1B68BFF35B8F03F00103002B0CBF6A
:1009000001230023DBB2002B1BD0314814F08FFBF6
:100910000346002B14BF01230023DBB2002B10D0B1
:10092000042300934FF480632A4A27492A4803F09E
:1009300055FA154A1949284814F072FB244814F056
:1009400082FB264B1B68BFF35B8F03F00103002B78
:100950000CBF01230023DBB2002B4FD01F4814F043
:1009600066FB0346002B14BF01230023DBB2002BE0
:1009700036E000BFFC680170B4000024B000002421
:10098000C4000024B800002400000024F10400701A
:10099000E000002414690170C8000024253E0070A6
:1009A000F0000024E400002475050070C801002454
:1009B00090730170F4000024FD31007004000024E5
:1009C000EC6801702C020024CC010024B9050070F1
:1009D00048020024206901703002002460020024D3
:1009E0000CD001227349744800F0A6FC734A744984
:1009F000714814F015FB734814F025FB724B1B680B
:100A0000BFF35B8F03F00103002B0CBF0123002316
:100A1000DBB2002B1BD06C4814F009FB0346002B03
:100A200014BF01230023DBB2002B10D0022300935C
:100A30004FF48063654A6049654803F0CFF95F4A27
:100A40006449634814F0ECFA5F4814F0FCFA624B16
:100A50001B68BFF35B8F03F00103002B0CBF012366
:100A60000023DBB2002B17D05B4814F0E0FA0346FA
:100A7000002B14BF01230023DBB2002B0CD001227A
:100A80004C49564800F070FE4C4A5549534814F002
:100A9000C7FA514814F0D7FA524B1B68BFF35B8F6B
:100AA00003F00103002B0CBF01230023DBB2002B5A
:100AB0001BD04C4814F0BBFA0346002B14BF012393
:100AC0000023DBB2002B10D0042300934FF400630B
:100AD000454A4249454803F081F9384A3D4943486F
:100AE00014F09EFA3F4814F0AEFA414B1B68BFF376
:100AF0005B8F03F00103002B0CBF01230023DBB24B
:100B0000002B1AD03A4814F092FA0346002B14BF77
:100B100001230023DBB2002B0FD0012300932F4BC6
:100B2000254A2449334801F051F8244A32493148D2
:100B300014F076FA2E4814F086FA304B1B68BFF397
:100B40005B8F03F00103002B0CBF01230023DBB2FA
:100B5000002B1BD0294814F06AFA0346002B14BF5F
:100B600001230023DBB2002B10D0032300934FF4AA
:100B70000063234A1F49234803F030F90F4A1549FF
:100B8000204814F04DFA1D4814F05DFA1E4803F099
:100B900075F91E4803F072F90D4803F06FF9134818
:100BA00003F06CF9174803F069F909F09DF800BFEC
:100BB000FDE700BFCC0100244C020024000000240B
:100BC000FD050070600200247C0200242C69017085
:100BD00064020024253E0070A40200248002002448
:100BE00041060070C00200243C690170A802002484
:100BF000DC020024C402002485060070F8020024F0
:100C00004C690170E0020024C80000243002002476
:100C100080B483B000AF78607B68243318460C370B
:100C2000BD465DF8047B704780B483B000AF786048
:100C30007B68083318460C37BD465DF8047B704767
:100C400080B584B000AF78607B68FB60F86800F026
:100C500065F900BF1037BD4680BD80B584B000AFD8
:100C600078607B68FB60F868FFF7D2FF03461846A0
:100C70000FF090FDF868FFF7D7FF03461B78002BB5
:100C800014BF01230023DBB2002B06D0F868FFF766
:100C9000BFFF0346184610F057FE00BF1037BD4691
:100CA00080BD80B584B000AF78607B68FB60F86879
:100CB000FFF7AEFF034618460FF050FDF868FFF748
:100CC000B3FF03461B78002B0CBF01230023DBB2CC
:100CD000002B03D0F86800F021F906E0F868FFF770
:100CE00097FF0346184610F0DDFC00BF1037BD46E5
:100CF00080BD80B584B000AF78607B68FB60F86829
:100D000000F0AEF800BF1037BD4680BD80B483B0A0
:100D100000AF7860044A7B681A607B6818460C371D
:100D2000BD465DF8047B7047C8730170B0B584B0F0
:100D300000AFF860B9607A60FB681846FFF7E6FF1D
:100D4000104AFB681A60FB68BA685A60FB687A68E8
:100D500003F1080415460FCD0FC495E8030084E89D
:100D60000300FB68002283F82020FB68BA689A65BC
:100D70007B685A69FB68DA65FB6818461037BD4620
:100D8000B0BD00BFDC73017080B582B000AF786089
:100D90002C4814F0F7FC7B685B681B6808331B6801
:100DA0007A68526810469847034683F00103DBB225
:100DB000002B06D0244814F0E5FC002008F02EFD9E
:100DC0003CE07B685B681B6824331B687A68526868
:100DD00010469847034619461C4814F063FC1C480B
:100DE00014F060FC02E01B4814F05CFC7B685B685C
:100DF0001B680C331B687A6852684FF47A7110468E
:100E00009847034683F00103DBB2002BEBD1124875
:100E100014F0B8FC7968114813F0ACF902E00A202C
:100E200008F0C2FD7B6893F82030DBB283F0010349
:100E3000DBB2002BF3D1786800F0CEF80837BD465E
:100E400080BD00BF5869017074690170AC690170A0
:100E5000D4690170F8690170006A0170F30C0070C8
:100E6000B0B58AB004AF78607B681B7A002B09D1DB
:100E70007B68DB687B617B681B693B617B685B69C6
:100E8000FB6005E000237B6100233B610023FB60E6
:100E90007B6803F158027B681A647B6803F12400C5
:100EA0007B68583307F10C0407F1100207F11401B5
:100EB000174D0295174D0195009323460FF0ACFB9B
:100EC0007B68243318460FF031FC7B6824331846C6
:100ED0000FF044FC7B68243318460FF02DFC7B6830
:100EE0001B7A002B03D1786800F018F807E00A4855
:100EF00014F048FC7B682433184610F0D3FB7B6861
:100F0000012283F8202000BF1837BD46B0BD00BFC6
:100F100091400170E5430170206A017080B588B08E
:100F200002AF78607B68DB687B617B681B693B6133
:100F30007B685B69FB607B6803F1240007F10C03AD
:100F400007F1100207F114010FF03AFB7B68DB6830
:100F5000D9B27B68DB681B0ADAB27B68DB681B0CE2
:100F6000D8B27B68DB681B0E00930346034814F07D
:100F700099FB00BF1837BD4680BD00BF446A0170B1
:100F800080B584B000AF786039600023FB6019E061
:100F90007B682433184613F06FFA7B6824331846B5
:100FA00010F010FB0346002B14BF01230023DBB21B
:100FB000002B01D001230AE00A2008F0F5FCFB68B1
:100FC0000A33FB60FA683B689A42E1D30023184673
:100FD0001037BD4680BD000080B586B000AF786098
:100FE0007B681B7A022B2ED17B689B691946594876
:100FF00014F058FB7B689B6919467868FFF7C0FFBF
:10100000034683F00103DBB2002B12D0524814F0E8
:10101000B9FB7968514813F049F838613B69002BF6
:1010200003D039694E4814F03DFB642008F0BCFC45
:1010300009E07B682833184611F058FA0346194630
:10104000484814F02FFB0023FB750123BB757B6818
:101050002433184613F010FA7B681B7A012B1ED13B
:10106000FB7D83F00103DBB2002B18D07B682433B7
:10107000184610F0A7FA0346002B14BF01230023E3
:10108000DBB2002B0BD07B682833184611F02EFA08
:1010900003461946334814F005FB0123FB757B68B2
:1010A0005B681B6810331B687A6852681046984763
:1010B0000346FB73BB7D002B10D0FB7B83F0010349
:1010C000DBB2002B0AD0284814F05CFB7968274873
:1010D00012F0ECFF0023FB750023BB75BB7D83F092
:1010E0000103DBB2002B30D0FB7B002B2DD020483E
:1010F00014F048FB79681F4812F0D8FF7B681B7A10
:10110000022B20D17B689B6919467868FFF738FF6E
:10111000034683F00103DBB2002B0AD00E4814F023
:1011200031FB79680D4812F0C1FF642008F03CFCE7
:1011300009E07B682833184611F0D8F903461946B0
:10114000084814F0AFFA0123BB750A2008F02CFC04
:101150007DE700BF706A0170A86A0170410C0070E1
:10116000E86A0170286B01704C6B01705B0C0070B9
:101170006C6B0170A30C007080B483B000AF78601A
:101180007B6893F82030DBB2002B06D07B682833D5
:101190001B68002B01D0012300E0002318460C3708
:1011A000BD465DF8047B704780B483B000AF7860C3
:1011B0007B6828331B6818460C37BD465DF8047BF6
:1011C000704780B483B000AF78607B684A331846BC
:1011D0000C37BD465DF8047B704780B489B000AF22
:1011E000F860B9601346FB80FB683B61FB88FB83BA
:1011F0000023BB6128E03A69BB6913441B781BB22A
:101200001B021AB2B7F91E3053401BB2FB830023F6
:101210007B6113E0B7F91E30002B09DAB7F91E30F5
:101220005B001AB241F2210353401BB2FB8302E080
:10123000FB8B5B00FB837B6901337B617B69072B45
:10124000E8DDBB690133BB61BA69BB689A42D2D39E
:10125000FB8B18462437BD465DF8047B704780B58C
:1012600084B000AFF8607B600B467B8113463B8106
:10127000FB68002242F045021A70002242F0500240
:101280005A70FB6801229A70FB683A7FDA70FB683B
:101290007A899A80FB683A89DA80FB687A689A6072
:1012A000FB683A8B9A8197F82030002B11D07B6A2B
:1012B000002B0ED03B8B002B0BD03B8B4FF6FF72DD
:1012C0001946786AFFF789FF03461A46FB68DA81F8
:1012D00005E0FB6800229A730022DA7300BF00BFAA
:1012E0001037BD4680BD80B483B000AF78603960F0
:1012F0003B680F2B01D8052318E07B681B889BB245
:1013000045F24502934201D001230FE07B689B78B0
:10131000012B01D0022309E07B689B899BB210332B
:101320003A689A4201D2052300E0002318460C37A0
:10133000BD465DF8047B704780B584B000AFF860AF
:10134000B9601346FB80FB681846FFF7DFFC0A4ACA
:10135000FB681A60FB68BA685A60FB68FA881A81F1
:10136000FB680022DA60FB6801221A74FB681846E9
:101370001037BD4680BD00BFF073017080B588B0E6
:1013800000AF78603E4814F0FDF902E0642008F0F8
:101390000BFB7B685B681846FFF7EEFE034683F0A5
:1013A0000103DBB2002BF1D14CF25031354814F07F
:1013B00079F900220021202011F086FAB861BB697A
:1013C000002B06D1304814F0DDF9002008F026FA91
:1013D00052E04CF250322D49B86911F00BFB7861A4
:1013E0007B69002B0AD07969294814F05BF9B86948
:1013F00011F0CEFA002008F011FA3DE0BB69FA22A4
:101400001A6208F0AFFDF8617B685B681846FFF769
:10141000B3FE034683F00103DBB2002B03D0C820E8
:1014200008F0C2FAF0E708F09DFD38613A69FB69FF
:10143000D31AB3F57A7F05D3B969786800F02AF832
:101440003B69FB610023FB6007F10C031946B86997
:1014500011F0D0FC78617B69002BD5D1FB68002BA3
:10146000D2D0FB681A46B969786800F087F8FB6843
:10147000184612F01DFDC7E72037BD4680BD00BFEE
:10148000906B0170C86B0170046C017020A1017039
:10149000406C017080B592B004AF7860396007F19C
:1014A0000C037B6307F10C0310333B6308F05AFD18
:1014B00002463B6B1A603B6B00221A7100225A7184
:1014C000002242F001029A710022DA717B681A7CD4
:1014D0003B6B1A727B681B7C022B01D1012200E05E
:1014E00000223B6B5A723B6B002262F01B029A7225
:1014F000002242F00C02DA723B6B002262F005021D
:101500001A7300225A733B6B00229A730022DA731B
:101510007B6819897B68DB685A1C7B68DA607B68AA
:10152000DB68002203920022029200220192102224
:1015300000920122786BFFF792FE12F0ADFCF86288
:10154000FB6A002B15D007F10C0320221946F86A1C
:1015500012F0C0FC4FF0FF33BB6007F108024CF201
:101560005033F96A386811F08FFAF86A12F0A0FC6B
:1015700000E000BF3837BD4680BD000080B5A0B098
:1015800004AFF860B9607A600023FB640023A7F819
:101590004A3007F14A0207F14C031946786812F005
:1015A000BBFCB7F84A300F2B40F2D280FB6CFB66D5
:1015B000B7F84A301946F86EFFF795FE0346002B40
:1015C00014BF01230023DBB2002B40F0C380FB6E6D
:1015D000DB889BB2022B40F0C280FB6E9B899BB2E2
:1015E000072B40F2B980FB6C1033BB66BB6E9B8847
:1015F0009BB2002B07D0BB6E9B889AB2FB681B89FD
:101600009A4240F0AB8007F110037B6607F11003AC
:1016100010333B66BB6E1A683B6E1A60FB681A8912
:101620003B6E9A80FB681B7C1A463B6EDA80FB6837
:101630005B681846FFF7B8FD02463B6E9A60FB6890
:101640005B681846FFF7BDFDF865FB6D002B07D002
:101650003B6E0C330622F96D184614F05EFA06E074
:101660003B6E0C3306220021184614F0D1F93B6E74
:1016700000221A7500225A75002242F001029A7562
:101680000022DA7508F06EFC02463B6E9A613B6EF2
:1016900000221A7700225A7700229A770022DA77FE
:1016A0003B6E002283F82020002283F821200022B4
:1016B00083F82220002283F823203B6E002283F847
:1016C0002420002283F82520002283F826200022EF
:1016D00083F82720FB681989FB68DB685A1CFB68C4
:1016E000DA60FB68DB680022039200220292022289
:1016F0000192282200920322786EFFF7B0FD12F0CB
:10170000CBFBB865BB6D002B29D007F11003382245
:101710001946B86D12F0DEFB7B6808337B657B6889
:101720009B89A7F85230B7F852307A6DB96DB86816
:1017300011F0AAF9B86D12F0BBFB786D10F0D6FE6F
:101740000146B7F852301A46064813F0ABFF06E0E0
:1017500000BF04E000BF02E000BF00E000BF703740
:10176000BD4680BD746C017080B584B000AFF86078
:10177000B9601346FB80FB681846FFF7C7FA144AA6
:10178000FB681A60FB68BA685A60FB68FA881A81BD
:10179000FB6800229A72FB684CF251321A82FB6895
:1017A00042F210725A82FB6832229A82FB6800224F
:1017B0009A61FB680022DA61FB6800221A62FB680A
:1017C0000022DA60FB6818461037BD4680BD00BFB6
:1017D0000474017080B586B002AFF860B96011463C
:1017E0001A460B46FB801346BB80FB68BA6812683A
:1017F000DA60FB68FA881A82FB68BA885A823B8BE7
:10180000002B04D03B8B642B01D83A8B00E03222B2
:10181000FB689A82FB6801229A72FB680C331846B7
:1018200010F064FE0146FB681B8A1A46FB685B8A5F
:101830001846FB689B8A00930346034813F032FF67
:1018400000BF1037BD4680BDA46C017080B582B06A
:1018500000AF78607B689B7ADBB2002B0AD07B6894
:1018600000229A727B68D9697B681B6A1A46034812
:1018700013F018FF00BF0837BD4680BDEC6C017047
:101880002DE9B04F86B000AF7860514813F07AFF71
:1018900002E0642008F088F87B685B681846FFF770
:1018A0006BFC034683F00103DBB2002BF1D1494806
:1018B00013F068FF00237B610FE00022002120204D
:1018C00011F002F878617B69002B06D1424813F0D1
:1018D00059FF4FF4FA7008F067F87B69002BECD0E1
:1018E00008F040FB0346FB607B689B7ADBB283F029
:1018F0000103DBB2002B0AD17B685B681846FFF757
:101900003BFC034683F00103DBB2002B01D0012333
:1019100000E00023002B07D0322008F045F808F043
:1019200021FB0346FB6052E07969786800F056F8C5
:101930007B689B8A1A464FF47A7302FB03F37A683A
:10194000528AB3FBF2F33B613B69002B01D10123C7
:101950003B613B6900229846914642464B464FF018
:1019600000004FF00001590141EAD26150010246E6
:101970000B46B2EB080463EB09054FF000024FF091
:101980000003AB0043EA9473A20014461D4614EB17
:10199000080A45EB090B4FF000024FF000034FEA35
:1019A000CB0343EA5A734FEACA0292469B4650461B
:1019B00059464FF47A724FF00003FEF779FC024665
:1019C0000B4607F10C031146184607F09BFF8BE707
:1019D000386D0170706D0170A46D01702DE9B04F0C
:1019E00090B004AF7860396008237B8510233B8575
:1019F0007B689B8A642B28BF6423FB84FB8C1B01C0
:101A0000BB84BB8C10337B845B4BFB615B4BBB614A
:101A10005B4B7B6108F0A6FA03460022984691468C
:101A200042464B464FF000004FF00001590141EA99
:101A3000D261500102460B46B2EB080463EB090584
:101A40004FF000024FF00003AB0043EA9473A20092
:101A500014461D4614EB080A45EB090B4FF0000233
:101A60004FF000034FEACB0343EA5A734FEACA022E
:101A700092469B4652465B46B9690A604B607B685A
:101A80005A8ABB691A81BB69FA8C5A81BB690022E8
:101A900042F008021A7300225A73BB69002242F016
:101AA00001029A730022DA730023FB851EE00023F3
:101AB000BB850FE0334B1988FB8DDA00BB8D1344D7
:101AC0005B007A691344BA8D0A4492B21A80BB8DC6
:101AD0000133BB85BB8D072BECD92A4B1B88013307
:101AE0009AB2284B1A80FB8D0133FB85FA8DFB8C53
:101AF0009A42DCD37B6819897B689B695A1C7B6896
:101B00009A617B689A690023039300230293082358
:101B100001937B8C009313464FF40072F869FFF732
:101B20009EFB12F0B9F938613B69002B1FD07B8C0A
:101B30001033FB81FB891A460F49386912F0CAF944
:101B40007B6803F10C027B681B8A3969386810F0E6
:101B50009BFF386912F0ACF97B68DB695A1C7B6823
:101B6000DA617B681A6AFB8C1A447B681A6200BFD0
:101B70003037BD46BDE8B08FFC0200240C030024C2
:101B80001C0300245C09002480B483B000AF78609B
:101B90000B46FB707B68FA781A7400BF0C37BD46A1
:101BA0005DF8047B704780B483B000AF78607B68D9
:101BB0001B7C18460C37BD465DF8047B704780B42B
:101BC00000AF00BFBD465DF8047B704780B584B0B0
:101BD00000AFF860B9607A603B60FB681846FFF7B9
:101BE00095F80B4AFB681A60FB68BA685A60FB6894
:101BF0007A689A60FB683A68DA60FB683A8B1A8206
:101C0000FB6800225A61FB6818461037BD4680BD4C
:101C10001874017080B588B000AF7860444813F044
:101C2000B1FD02E0642007F0BFFE7B685B681846E8
:101C3000FFF7A2FA034683F00103DBB2002BF1D1D8
:101C40004CF252313B4813F02DFD002200211020B0
:101C500010F03AFEF861FB69002B06D1364813F00C
:101C600091FD002007F0DAFD5EE04CF2523233497C
:101C7000F86910F0BFFEB861BB69002B0AD0B969E2
:101C80002F4813F00FFDF86910F082FE002007F0D6
:101C9000C5FD49E0FF21F86910F0CAFEB861BB69D3
:101CA000002B0AD0B969274813F0FCFCF86910F042
:101CB0006FFE002007F0B2FD36E000237B6107F1E4
:101CC00014031946F86910F079FFB861BB69002B5D
:101CD00026D17B69002B23D0786907F10E0207F12A
:101CE0001001002310F062FE07F11003184610F0F7
:101CF000FDFB0346FA891946134813F0D3FC7B69B0
:101D00001946786800F024F87B69184610F044FF03
:101D10007B69184610F03CFE0C4813F033FD02E0DE
:101D2000642007F041FEC8E72037BD4680BD00BFF4
:101D3000E46D0170186E0170506E017020A1017089
:101D4000846E0170B86E0170F06E0170246F0170C6
:101D500080B58CB002AF7860396007F1160207F1E8
:101D600018010023386810F021FE00233B6107F1C1
:101D700010031946386811F03DF878627B6A002B31
:101D80003CD13B69002B39D00023FB6000237B81D1
:101D90003B6907F10A0207F10C01184612F0BCF882
:101DA0007B890F2B25D9FB683B627B891946386AF2
:101DB000FFF799FA0346002B0CBF01230023DBB287
:101DC000002B0CD0FB681033FB6107F11803009364
:101DD000FB693A6A3968786800F014F809E03B6AF0
:101DE000DB889AB20023009301233968786800F0F9
:101DF0004BF93B69184612F05BF8B6E700BF28378D
:101E0000BD4680BD80B59CB004AFF860B9607A6013
:101E10003B607B689A79DB791B021343A7F85A3041
:101E2000B7F85A30B3F5F87F00F00681B7F85A30AA
:101E3000B3F5F87F00F21081B7F85A3040F2111272
:101E4000934200F0E380B7F85A30B3F5897F80F011
:101E50000381B7F85A30B3F5807F06D0B7F85A300F
:101E6000B3F5887F00F09180F6E007F110033B6541
:101E700007F110031033FB64FB6C00221A70002280
:101E80005A7000229A700022DA70FB681A8AFB6C82
:101E90009A80FB689B681846FFF785FE03461A4642
:101EA000FB6CDA80FB685B681846FFF77DF9024639
:101EB000FB6C9A60FB685B681846FFF782F9B864B0
:101EC000BB6C002B07D0FB6C0C330622B96C184698
:101ED00013F023FE06E0FB6C0C33062200211846AB
:101EE00013F096FDFB6C00221A7500225A75002231
:101EF00042F001029A750022DA7508F033F80246C2
:101F0000FB6C9A61FB6C00221A7700225A77002240
:101F10009A770022DA77FB6C002283F820200022D7
:101F200083F82120002283F82220002283F8232036
:101F3000FB6C002283F82420002283F82520002255
:101F400083F82620002283F82720FB68198AFB6883
:101F50005B695A1CFB685A61FB685B69002203924B
:101F600000220292022201922822009240F20112E3
:101F7000386DFFF774F907F1100100230093012376
:101F80003822B86810F0FCFD78E042F21073A7F830
:101F90005E303223A7F85C307B689B899BB2072BAD
:101FA00015D93B687B657B6D5B889BB2002B06D0A7
:101FB0007B6D9A78DB781B021343A7F85E307B6D4C
:101FC0005B68002B03D07B6D5B68A7F85C30FB6817
:101FD000D868B7F85E20B7F85C30009313464CF22F
:101FE0005132B96EFFF7F6FBFB689B680221184679
:101FF000FFF7CAFD7B68DB889AB2B7F85E300093C2
:102000000023B968F86800F03FF837E0FB68DB6848
:102010001846FFF71BFCFB689B6801211846FFF779
:10202000B3FD7B68DB889AB2002300930023B96874
:10203000F86800F029F821E07B68DB889AB2002379
:1020400000930023B968F86800F01EF8C82007F074
:10205000ABFCFFF7B4FD11E07B68DB889BB219464F
:10206000084813F01FFB7B68DB889AB200230093BB
:102070000423B968F86800F007F800BF00BF6037B4
:10208000BD4680BD506F017080B594B004AFF8605C
:10209000B96011461A460B46FB801346BB8007F118
:1020A0001403BB6307F1140310337B637B6BFA8863
:1020B0001A807B6BBA885A807B6BBA6C5A607B6BD8
:1020C00000221A7200225A7200229A720022DA72D8
:1020D000BB88002B02D14FF4FF7301E040F2FF13E5
:1020E0007B86022387F83F30BB88002B05D097F80A
:1020F0003F3043F0040387F83F30FB68198AFB68E0
:102100005B695A1CFB685A61FB6858697A8E002328
:1021100003930023029397F83F3001930C2300931D
:102120000346B86BFFF79BF807F1140100230093F7
:1021300001231C22B86810F023FD00BF4037BD46C4
:1021400080BD000080B584B000AFF860B9607A60EF
:10215000FB681846FEF7DAFD064AFB681A60FB6862
:10216000BA685A60FB687A689A60FB68184610374C
:10217000BD4680BD2C74017080B584B000AF78601E
:102180000023FB737B685B681B6810331B687A68ED
:10219000526810469847FB7B83F00103FB73FB7B7F
:1021A000002B04D04FF47A7001F0C6FEEAE74FF43A
:1021B0007A6001F0C1FEE5E780B400AF00BFBD4624
:1021C0005DF8047B704780B586B000AF3B1D0022F0
:1021D0001A605A609A60DA6002F008F90023FB7511
:1021E00006E0FB7D184602F01FF9FB7D0133FB750D
:1021F000FB7D0F2BF5D901233B7100237B7100235D
:10220000BB601F233B7387237B730023BB730023B7
:10221000FB7301233B7400237B740023BB740023F6
:10222000FB743B1D184602F015F901237B714FF03A
:10223000E043BB601A233B7300237B730123BB7312
:102240000323FB7300233B7400237B740123BB74C3
:102250000123FB743B1D184602F0FCF802237B713E
:102260004FF04053BB600E233B7300237B7300236E
:10227000BB730323FB7301233B7400237B74002394
:10228000BB740023FB743B1D184602F0E3F80420E6
:1022900002F08AF800BF1837BD4680BD80B588B00F
:1022A00000AF1B4BD3F84831194A43F48023C2F8DE
:1022B0004831174BD3F84831BB60BB68144BD3F897
:1022C0004031134A43F00803C2F84031104BD3F8B1
:1022D00040317B607B6807F10C0300221A605A6072
:1022E0009A60DA601A614FF44073FB6002233B612D
:1022F00000237B610023BB610723FB6107F10C0313
:102300001946044803F0A6FE00BF2037BD4680BD35
:1023100000440258000C025880B584B000AFFFF7AB
:1023200052FF434B5B6903F40033002B14BF0123BE
:102330000023DBB2002B1BD1BFF34F8F00BFBFF3D5
:102340006F8F00BF3A4B0022C3F85022BFF34F8F6C
:1023500000BFBFF36F8F00BF354B5B69344A43F456
:1023600000335361BFF34F8F00BFBFF36F8F00E0A7
:1023700000BF2F4B5B6903F48033002B14BF012394
:102380000023DBB2002B42D1294B0022C3F884206A
:10239000BFF34F8F00BF264BD3F88030FB60FB6844
:1023A0005B0BC3F30E03BB60FB68DB08C3F30903DD
:1023B0007B60BB685A0143F6E07313407A6892076A
:1023C0001B491343C1F860327B685A1E7A60002BA8
:1023D00014BF01230023DBB2002BEAD1BB685A1ED5
:1023E000BA60002B14BF01230023DBB2002BDBD12A
:1023F000BFF34F8F00BF0E4B5B690D4A43F4803330
:102400005361BFF34F8F00BFBFF36F8F00E000BF7A
:1024100001F0D9FDFFF7D0FE00F0B6FAFFF73EFF5E
:10242000044800F03DFD00BF1037BD4680BD00BF31
:1024300000ED00E06009002480B400AF024B1846B4
:10244000BD465DF8047B70476009002480B586B006
:1024500000AF134BD3F84031114A43F00803C2F8E0
:1024600040310F4BD3F840313B603B683B1D0022AD
:102470001A605A609A60DA601A614FF480637B6078
:102480000123BB600023FB6000233B613B1D194619
:10249000044803F0DFFD044B18461837BD4680BDE5
:1024A00000440258000C0258F809002480B483B09C
:1024B00000AF7860044A7B681A607B6818460C3766
:1024C000BD465DF8047B70474074017080B582B0F2
:1024D00000AF78607868FFF7E9FF0421786812F0B0
:1024E000A4FD7B6818460837BD4680BD80B582B024
:1024F00000AF7860054A7B681A607B681846FFF772
:10250000D5FF7B6818460837BD4680BD98740170BA
:1025100080B582B000AF78607868FFF7E7FF982158
:10252000786812F082FD7B6818460837BD4680BD8A
:1025300080B483B000AF7860044A7B681A607B681F
:1025400018460C37BD465DF8047B7047587401701F
:1025500080B582B000AF78607868FFF7E9FF0421AA
:10256000786812F062FD7B6818460837BD4680BD6A
:1025700080B582B000AF7860054A7B681A607B68DE
:102580001846FFF7D5FF7B6818460837BD4680BD63
:102590007874017080B582B000AF78607868FFF71A
:1025A000E7FF0C21786812F040FD7B681846083779
:1025B000BD4680BD80B500AF4FF4E1320A490B48FB
:1025C00000F032FC0A4A0B49084812F029FD4FF48A
:1025D00080620949094800F0B5FB054A08490748E7
:1025E00012F01EFD00BF80BD0048004060090024BD
:1025F00000000024ED240070000C0258F8090024AB
:102600007125007080B500AFFFF7D4FF80BD80B4A6
:1026100000AF00BFBD465DF8047B704780B5DAB0FF
:1026200000AF07F5B473A3F5B273186007F5B47380
:10263000A3F5B2731B681B688A4A934240F00C8171
:1026400007F5AA7300221A605A609A60DA601A616C
:1026500007F5B473A3F5B073184690231A4600210A
:1026600013F0D6F907F198039C220021184613F0C5
:10267000CFF90023C7F898300223C7F80C310023A4
:10268000C7F810310423C7F814311923C7F81831DB
:102690000223C7F81C310223C7F820310223C7F8F0
:1026A00024310823C7F828310223C7F82C3100232E
:1026B000C7F8303107F19803184603F039FF07F5E2
:1026C000B473A3F5B0714FF4C0724FF00003C1E9C9
:1026D000002307F5B473A3F5B07300225A6207F51F
:1026E000B473A3F5B0734FF480229A6207F1080324
:1026F000184604F0C7FE5C4BD3F838315A4A43F40D
:102700000043C2F83831584BD3F83831C7F850314C
:10271000D7F85031544BD3F83831534A43F480330F
:10272000C2F83831504BD3F83831C7F84C31D7F8AC
:102730004C314D4BD3F838314B4A43F40033C2F897
:102740003831494BD3F83831C7F84831D7F84831D8
:10275000454BD3F84031444A43F00103C2F84031BD
:10276000414BD3F84031C7F84431D7F844313E4BA0
:10277000D3F840313C4A43F00203C2F840313A4BAF
:10278000D3F84031C7F84031D7F84031364BD3F851
:102790004031354A43F00803C2F84031324BD3F898
:1027A0004031C7F83C31D7F83C312F4BD3F840319A
:1027B0002D4A43F04003C2F840312B4BD3F840314F
:1027C000C7F83831D7F83831274BD3F85431264A77
:1027D00043F00203C2F85431234BD3F85431C7F805
:1027E0003431D7F834311023C7F854310223C7F8F5
:1027F00058310023C7F85C310223C7F860310B233E
:10280000C7F8643107F5AA731946184803F022FC8B
:102810004023C7F8543107F5AA731946144803F04A
:1028200019FC43F67003C7F8543107F5AA7319462B
:10283000104803F00FFC8423C7F8543107F5AA733E
:1028400019460D4803F006FC002205215C2001F02A
:1028500068FD5C2001F07FFD00BF07F5B477BD4641
:1028600080BD00BF0080024000440258000C0258A6
:1028700000040258001802580000025880B582B0C7
:1028800000AF78607B681B68194A93422BD1194BC3
:10289000D3F83831174A23F40043C2F83831154BC6
:1028A000D3F83831134A23F48033C2F83831114B4E
:1028B000D3F838310F4A23F40033C2F838311021ED
:1028C0000D4803F027FD40210C4803F023FD43F69B
:1028D00070010B4803F01EFD84210A4803F01AFD25
:1028E0005C2001F046FD00BF0837BD4680BD00BF3B
:1028F0000080024000440258000C025800040258B4
:1029000000180258000002580D48854600F026F8CD
:102910000C480D490D4A002302E0D458C45004333A
:10292000C4188C42F9D30A4A0A4C002301E0136010
:102930000432A242FBD313F0C9F8FDF7C5FEFEE74F
:1029400000000120000000249000002430A201704B
:10295000900000245C3E0324FEE7000080B400AF3A
:10296000074B084A9A60064BD3F88830044A43F470
:102970007003C2F8883000BFBD465DF8047B704725
:1029800000ED00E00000007080B489B000AF924B11
:102990001B6903F03803182B00F2FB8001A252F8E8
:1029A00023F000BF092A0070932B0070932B007056
:1029B000932B0070932B0070932B0070932B00705F
:1029C000932B00701D2A0070932B0070932B0070C6
:1029D000932B0070932B0070932B0070932B00703F
:1029E000932B0070232A0070932B0070932B0070A0
:1029F000932B0070932B0070932B0070932B00701F
:102A0000932B0070292A0070734B1B68DB0803F0BE
:102A10000303724A22FA03F3FB61C4E0704BFB61CB
:102A2000C1E0704BFB61BEE06B4B9B6A03F003039C
:102A30003B61694B9B6A1B0903F03F03FB60664BDC
:102A4000DB6A03F00103002B0BD0634B5B6BDB08ED
:102A5000C3F30C0307EE903AF8EE677AC7ED067AF7
:102A600002E04FF00003BB61FB68002B00F08E809A
:102A70003B69012B24D03B69022B43D1FB6807EE55
:102A8000903AF8EE677ADFED586A86EEA77A524BF5
:102A90001B6BC3F3080307EE903AF8EE676A97EDF5
:102AA000066ADFED525AC6EE257A76EEA77AF7EE81
:102AB000006A77EEA67A67EE277AC7ED057A4FE0CF
:102AC000FB6807EE903AF8EE677ADFED496A86EE2A
:102AD000A77A414B1B6BC3F3080307EE903AF8EE5D
:102AE000676A97ED066ADFED415AC6EE257A76EE03
:102AF000A77AF7EE006A77EEA67A67EE277AC7ED37
:102B0000057A2DE0344B1B68DB0803F00303334ADE
:102B100022FA03F3BB60BB6807EE903AF8EE676AEF
:102B2000FB6807EE903AF8EE677A86EEA77A2A4BB2
:102B30001B6BC3F3080307EE903AF8EE676A97ED54
:102B4000066ADFED2A5AC6EE257A76EEA77AF7EE08
:102B5000006A77EEA67A67EE277AC7ED057A00BF9E
:102B60001D4B1B6B5B0A03F07F0301337B607B68AB
:102B700007EE903AB8EE677AD7ED056AC6EE877A27
:102B8000FCEEE77A17EE903AFB610CE00023FB6164
:102B900009E0114B1B68DB0803F003030F4A22FA1C
:102BA00003F3FB6100BF0C4B9B6903F00F033B6019
:102BB0003B68072B07D93B68073BFA6922FA03F306
:102BC0000C4A136002E00B4AFB69136000BF243714
:102BD000BD465DF8047B7047004402580090D00366
:102BE00000093D0000366E01001BB74B0000004697
:102BF0000024744A1C00002480B500AF01F038FAAC
:102C000007F044FD0346012B14BF01230023DBB270
:102C1000002B01D009F0C0F800BF80BD80B58AB09C
:102C200000AF78607B681B687B627B685B683B6297
:102C30007B689B68FB617B68DB68BB617B681B69A9
:102C40007B617B685B693B617B689B69FB607B6840
:102C5000DB69BB601C4812F095FD1C4812F092FD28
:102C6000F9681B4812F01EFD39691A4812F01AFD66
:102C70003A6A796A184812F015FDBA69F969174875
:102C800012F010FDBA687969154812F00BFD154B6A
:102C90009B6A1946144812F005FD124BDB6A19466F
:102CA000124812F0FFFC0F4B5B6B1946104812F0F4
:102CB000F9FC0C4B9B6B19460E4812F0F3FC0E48C6
:102CC00012F060FD00BFFDE7846F0170B06F01700E
:102CD000CC6F0170DC6F0170EC6F01700C700170D3
:102CE0002C70017000ED00E04C7001706470017098
:102CF0007C70017094700170AC7001701EF0040F54
:102D00000CBFEFF30880EFF30980FFF787BF00BF28
:102D1000FFF7F4FF00BFFFF7F1FF00BFFFF7EEFF83
:102D200000BF000080B483B000AF7860044A7B68C5
:102D30001A607B6818460C37BD465DF8047B704707
:102D40005874017080B584B000AFF860B960134664
:102D5000FB80FB681846FFF7E5FF074AFB681A602F
:102D6000FB68BA685A60FB68FA881A81FB681846E3
:102D70001037BD4680BD00BF7874017080B582B049
:102D800000AF78607B6858687B681B890122194610
:102D900003F09CFB00BF0837BD4680BD80B582B004
:102DA00000AF78607B6858687B681B8900221946F1
:102DB00003F08CFB00BF0837BD4680BD80B582B0F4
:102DC00000AF78607B685A687B681B89194610469B
:102DD00003F094FB00BF0837BD4680BD80B582B0CC
:102DE00000AF78607B685A687B681B89194610467B
:102DF00003F054FB0346012B0CBF01230023DBB27D
:102E000018460837BD4680BD80B483B000AF7860F7
:102E1000044A7B681A607B6818460C37BD465DF82B
:102E2000047B70474074017080B584B000AFF860D7
:102E3000B9607A60FB681846FFF7E6FF174AFB683F
:102E40001A60FB68043394220021184612F0E0FD5A
:102E5000FB68BA685A60FB687A689A60FB6800226F
:102E6000DA60FB6800221A61FB6800225A61FB6885
:102E70000C229A61FB680022DA61FB6800221A6268
:102E8000FB6800225A62FB6800229A62FB680022FB
:102E9000DA62FB6818461037BD4680BD9874017031
:102EA00080B582B000AF78607B680433184605F0C7
:102EB000DBFB0346002B0CBF01230023DBB21846CB
:102EC0000837BD4680BD80B584B000AFF860B960FA
:102ED0007A60FB68181D7B689AB24FF0FF33B968BF
:102EE00005F01CFC0346002B0CBF01230023DBB2C2
:102EF00018461037BD4680BD80B584B000AFF8607D
:102F0000B9607A60FB68181D7B689AB24FF0FF3396
:102F1000B96805F09CFC0346002B0CBF012300237D
:102F2000DBB218461037BD4680BD000080B500AF4B
:102F30000C4B1B68002B12D00A4B1B68184601F083
:102F40002BFE084B1B681B68064A1268126803F5C3
:102F50008053D3F8603102F58052C2F8603100BF6F
:102F600080BD00BF040A002480B483B000AF786045
:102F700000BF0C37BD465DF8047B704780B483B05A
:102F800000AF786000BF0C37BD465DF8047B70472A
:102F900080B483B000AF786000BF0C37BD465DF8E9
:102FA000047B704780B483B000AF78600B4B1B6824
:102FB00040F2DC5202FB03F3094A1A447B681A60B0
:102FC000064B1B68013303F00303044A136000BF80
:102FD0000C37BD465DF8047B704700BF080A00242B
:102FE0006000003080B58CB000AFF860B9607A60E6
:102FF0007B807B887A68FA61BB61BB69002B1DDD31
:10300000FB6903F01F02BB6913447B61FB693B61F1
:10301000BFF34F8F00BF284A3B69C2F85C323B695F
:1030200020333B617B69203B7B617B69002BF2DCB9
:10303000BFF34F8F00BFBFF36F8F00BF00BF7B8810
:103040004FF4C1721946002009F0B4F9B862BB6AA6
:10305000002B05D07B881A467968B86A09F0CEFB48
:10306000FB687B62BB683B62BB6A002B20D07B6A3B
:103070001B68002B03D17B6ABA6A1A6003E03B6AC3
:103080001B68BA6A1A603B6ABA6A1A607B6A1B6874
:10309000FB6209E0FB6A1A897B8813449AB2FB6AD7
:1030A0001A81FB6A1B68FB62FB6A002BF2D100E00D
:1030B00000BF3037BD4680BD00ED00E080B483B076
:1030C00000AF7860044A7B681A607B6818460C374A
:1030D000BD465DF8047B7047FC74017080B483B01A
:1030E00000AF7860044A7B681A607B6818460C372A
:1030F000BD465DF8047B7047FC74017080B582B0FA
:1031000000AF78607868FFF7E9FF0421786811F074
:103110008CFF7B6818460837BD4680BD80B483B0FD
:1031200000AF7860044A7B681A607B6818460C37E9
:10313000BD465DF8047B7047E474017080B582B0D1
:1031400000AF78607868FFF7E9FF0421786811F034
:103150006CFF7B6818460837BD4680BD80B582B0DD
:1031600000AF7860054A7B681A607B681846FFF7F5
:10317000D5FF7B6818460837BD4680BD30750170A5
:1031800080B582B000AF78607868FFF7E7FF08216C
:10319000786811F04AFF7B6818460837BD4680BD45
:1031A00080B584B000AFF860B9607A60FB681846FB
:1031B000FFF784FF104AFB681A60FB68BA680433A3
:1031C00007CA83E80700FB687A681A61FB6803F1A5
:1031D000C402FB6814331946104600F0F3FBFB6889
:1031E0000022C3F8CC20FB680022C3F8D020FB6883
:1031F00018461037BD4680BDB074017080B582B0EE
:1032000000AF78600A4A7B681A607B6814331846FE
:1032100001F062FA7B68C4331846FFF79FFF7B68B2
:103220001846FFF75BFF7B6818460837BD4680BD30
:10323000B074017080B582B000AF78607868FFF735
:10324000DDFFD421786811F0F0FE7B68184608375E
:10325000BD4680BD80B58AB000AF7860714BD3F8B1
:103260003C31704A43F00053C2F83C316D4BD3F807
:103270003C31FB60FB686C4B0022C3F88420BFF339
:103280004F8F00BF684BD3F88030BB61BB695B0BCD
:10329000C3F30E037B61BB69DB08C3F309033B6126
:1032A0007B695A0143F6E07313403A6992075E491D
:1032B0001343C1F874323B695A1E3A61002B14BFA4
:1032C00001230023DBB2002BEAD17B695A1E7A610D
:1032D000002B14BF01230023DBB2002BDBD1BFF393
:1032E0004F8F00BFBFF36F8F00BF00BFBFF34F8F83
:1032F00000BFBFF36F8F00BF7B681433B022002183
:10330000184612F085FB7B68484A5A617B681A1D93
:103310007B689A617B68DB68DAB27B681A777B68C6
:10332000434A1A627B68434A5A627B6840F2DC5225
:103330009A627B681433404A13603B4B0022C3F807
:103340008420BFF34F8F00BF374BD3F880307B62B0
:103350007B6A5B0BC3F30E033B627B6ADB08C3F340
:103360000903FB613B6A5A0143F6E0731340FA69B3
:1033700092072D491343C1F87432FB695A1EFA6152
:10338000002B14BF01230023DBB2002BEAD13B6AE0
:103390005A1E3A62002B14BF01230023DBB2002B1C
:1033A000DBD1BFF34F8F00BFBFF36F8F00BF00BFF4
:1033B0007B681433184601F093F80346002B14BFC2
:1033C00001230023DBB2002B04D01C4812F0DAF9F1
:1033D000002322E05C2000F0CCFF7B681B691B68A7
:1033E00008331B687A6810697A68C43211469847B6
:1033F0007B681B691B680C331B687A68126910466E
:103400009847034683F00103DBB2002B04D00C483D
:1034100012F0B8F9002300E0012318462837BD4612
:1034200080BD00BF0044025800ED00E00080024073
:10343000E017003000000030040A00240871017019
:103440002871017080B5A6B000AF7860396000F0D7
:1034500023FEC7F8900089E07B681B691B68103366
:103460001B687A681269104698470346002B7AD089
:103470007B681B691B6818331B687A68106907F141
:10348000800207F184019847D7F88430012B02D1DC
:103490004FF4804300E00023C7F88C30D7F8803029
:1034A000012B02D14FF4005300E00023C7F888300D
:1034B0007B68143307F108021146184601F028FD15
:1034C0000346002B0CBF01230023DBB2002B0DD0E1
:1034D000D7F88C30FB61D7F888303B627B681433B7
:1034E00007F108021146184601F0E6FE0023C7F86E
:1034F000943012E00023FB667B6803F11400D7F8D8
:10350000942007F16C03002101F059FC0346002BC5
:10351000D7F894300133C7F89430D7F894301F2B84
:10352000E8DD7B681433184601F0EAF87B68143351
:1035300007F170021146184601F074FF0346002B94
:103540000CBF01230023DBB2002B0AD0012387F834
:1035500070307B68143307F170021146184601F091
:1035600015FF012312E00A2000F0A2FD00F094FDF7
:103570000246D7F89030D31A3A689A428CBF01239A
:103580000023DBB2002B7FF467AF00231846983787
:10359000BD4680BD80B582B000AF78607B681B6996
:1035A0001B6810331B687A681269104698470346F7
:1035B00018460837BD4680BD80B582B000AF786040
:1035C0007B681B691B6814331B687A681269104694
:1035D0009847034618460837BD4680BD80B485B07D
:1035E00000AFF860B9607A60FB68BA68C3F8CC20B5
:1035F000FB687A68C3F8D02000BF1437BD465DF879
:10360000047B704780B5A0B000AFF860B960134686
:10361000FB80FB8840F2DC52934202D8BB68002B4F
:1036200001D10023A3E0544B1B6840F2DC5202FBA3
:1036300003F3524A1344FB674F4B1B68013303F0FB
:1036400003034D4A1360FB881A46B968F86F12F0FD
:1036500064FAFB6F23F01F03BB67FA6FBB6FD21ACC
:10366000FB8813441F3323F01F037B67BA6F7B6F04
:103670003A66FB65FB6D002B1DDD3B6E03F01F0200
:10368000FB6D1344BB653B6E7B65BFF34F8F00BF83
:103690003B4A7B6DC2F868327B6D20337B65BB6D26
:1036A000203BBB65BB6D002BF2DCBFF34F8F00BF2F
:1036B000BFF36F8F00BF00BFFB6FBB64FB88FB6471
:1036C00000233B6507F1100338220021184612F051
:1036D0009FF920233B6100233B62FB887B6107F15C
:1036E0004803BB61274B3B676023FB66FB6E002BE7
:1036F0001DDD3B6F03F01F02FB6E1344BB663B6F87
:103700007B66BFF34F8F00BF1D4A7B6EC2F86832E5
:103710007B6E20337B66BB6E203BBB66BB6E002B93
:10372000F2DCBFF34F8F00BFBFF36F8F00BF00BF4E
:10373000FB68143307F110016422184601F042F8C7
:103740000346002B14BF01230023DBB2002B0DD056
:10375000FB68D3F89C10FB68D3F8A020FB68D3F873
:103760009830094811F09EFF002300E0012318461D
:103770008037BD4680BD00BF0C0A002440180030D1
:1037800000ED00E0E01700304471017080B58CB0AE
:1037900000AF78600023FB603B4BFB626023BB62A1
:1037A000BB6A002B1DDDFB6A03F01F02BB6A1344DA
:1037B0007B62FB6A3B62BFF34F8F00BF334A3B6AB9
:1037C000C2F85C323B6A20333B627B6A203B7B62FF
:1037D0007B6A002BF2DCBFF34F8F00BFBFF36F8F0C
:1037E00000BF00BF3BE0FB68002B12D07B68D3F822
:1037F000CC30002B09D07B68D3F8CC307A68D2F873
:10380000D020F9681046984703E0FB68184608F096
:1038100085FD1D4BFB616023BB61BB69002B1DDD7A
:10382000FB6903F01F02BB6913447B61FB693B61C9
:10383000BFF34F8F00BF154A3B69C2F85C323B694A
:1038400020333B617B69203B7B617B69002BF2DC91
:10385000BFF34F8F00BFBFF36F8F00BF00BF7B6808
:10386000143307F10C021146184601F042F80346E2
:10387000002B0CBF01230023DBB2002BB3D100BF10
:1038800000BF3037BD4680BD0000003000ED00E0D5
:1038900080B485B000AF786039600023FB600BE036
:1038A000FB683A6813447968FA680A44043212786B
:1038B0001A70FB680133FB60FB68052BF0DD00BF6D
:1038C00000BF1437BD465DF8047B704780B582B0F9
:1038D00000AF7860264811F055FF264BDB6819468B
:1038E000254811F0DFFE254A2249254811F0DAFE6D
:1038F0007B685B691B681946224811F0D3FE7B6820
:103900005B6903F58053D3F8603119461E4811F006
:10391000C9FE7B685B69D3F8003719461B4811F074
:10392000C1FE7B685B69D3F894371946184811F0DB
:10393000B9FE7B685B69D3F898371946154811F0D2
:10394000B1FE7B685B69D3F8C4371946124811F0A1
:10395000A9FE7B685B69D3F8F83719460F4811F068
:10396000A1FE0F4811F00EFF00BF0837BD4680BD15
:103970008471017000000030A4710170600000309B
:10398000C4710170EC710170047201701C720170DD
:10399000347201705472017074720170947201700B
:1039A000B472017080B483B000AF7860044A7B6861
:1039B0001A607B6818460C37BD465DF8047B70477B
:1039C000E474017080B582B000AF786039607B68C4
:1039D0001846FFF7E7FF054A7B681A607B683A687C
:1039E0005A607B6818460837BD4680BD3075017047
:1039F00080B586B000AFF8607B600B46FB72134663
:103A0000BB7200237B61FB685868F97ABA7A07F1C8
:103A1000140301F0D4F90346002B14BF0123002343
:103A2000DBB2002B01D0002304E07B699AB27B68F3
:103A30001A80012318461837BD4680BD80B582B074
:103A400000AF7860084611461A460346FB700B46E5
:103A5000BB7013463B807B685868F978BA783B881E
:103A600001F002FA0346002B0CBF01230023DBB256
:103A700018460837BD4680BD80B483B000AF78607B
:103A8000044A7B681A607B6818460C37BD465DF8AF
:103A9000047B7047A473017080B582B000AF78607A
:103AA0000B46FB707B681846FFF7E6FF064A7B680B
:103AB0001A607B6800225A607B68FA781A727B6809
:103AC00018460837BD4680BD4875017080B483B084
:103AD00000AF786039607B683A685A6000BF0C3785
:103AE000BD465DF8047B704790B585B000AF786047
:103AF0007B685B68002B01D1002369E000237B8198
:103B00007B685B681B6808331C687B6858687B6847
:103B1000197A07F10A030022A047034683F0010344
:103B2000DBB2002B04D02C4811F02CFE00234FE018
:103B30007A892A4B13439BB27B817B685B681B6845
:103B40000C331C687B6858687B68197A7B89002273
:103B5000A04700F0A1FAF8600A2000F0A9FA7B68FB
:103B60005B681B6808331C687B6858687B68197A37
:103B700007F10A030022A047034683F00103DBB2EA
:103B8000002B04D0164811F0FDFD002320E07B89B6
:103B90001BB2002B09DA00F07FFA0246FB68D31A49
:103BA000B3F5FA7F01D2012300E00023002BD3D12B
:103BB0007B891BB2002B04DA0A4811F0E3FD0023D5
:103BC00006E07B681B7A1946074811F06BFD01235C
:103BD00018461437BD4690BDD47201700080FFFFB7
:103BE000FC720170247301704873017090B585B048
:103BF00000AF78607B685B68002B01D1002324E074
:103C00000023FB817B685B681B6808331C687B684A
:103C100058687B68197A07F10E030122A047034612
:103C200083F00103DBB2002B01D000230DE0FB8900
:103C300003F00403002B06D0FB8903F02003002BC4
:103C400001D0012300E0002300BF18461437BD4611
:103C500090BD90B585B000AF78607B685B68002B45
:103C600002D14FF0FF3333E00023FB810023BB81FF
:103C70007B685B681B6808331C687B6858687B68D6
:103C8000197A07F10E030222A047034683F00103CD
:103C9000DBB2002B02D04FF0FF3319E07B685B688A
:103CA0001B6808331C687B6858687B68197A07F1C1
:103CB0000C030322A047034683F00103DBB2002B71
:103CC00002D04FF0FF3303E0FB891B04BA89134392
:103CD00018461437BD4690BD90B587B000AFF86068
:103CE000B9607A60FB685B68002B01D1002341E07A
:103CF0000023BB82FB685B681B6808331C68FB6899
:103D00005868FB68197A07F114031F22A04703467D
:103D100083F00103DBB2002B01D000232AE0BB8A31
:103D200003F01C03FB82FB8A182B06D0182B19DC2E
:103D3000082B09D0142B0ED014E0BB6801221A60A6
:103D40007B6801221A6014E0BB6801221A607B685C
:103D500000221A600DE0BB6800221A607B68012215
:103D60001A6006E0BB6800221A607B6800221A60B5
:103D700000BF012318461C37BD4690BD80B483B0F8
:103D800000AF7860044A7B681A607B6818460C377D
:103D9000BD465DF8047B70478875017080B483B0C0
:103DA00000AF7860044A7B681A607B6818460C375D
:103DB000BD465DF8047B70478875017080B582B0A0
:103DC00000AF78607868FFF7E9FF0421786811F0A8
:103DD0002CF97B6818460837BD4680BD80B584B095
:103DE00000AFF860B9607A607B80FB681846FFF727
:103DF000C5FF0B4AFB681A60FB68BA685A60FB682B
:103E000000229A60FB687A68DA60FB687A881A8216
:103E1000FB68BA695A61FB6818461037BD4680BD19
:103E20006C75017080B582B000AF78600A4A7B681B
:103E30001A607B689B68002B04D07B689B681846DF
:103E400005F0ECFC7B681846FFF7A8FF7B68184676
:103E50000837BD4680BD00BF6C75017080B582B06B
:103E600000AF78607868FFF7DDFF1821786811F0FF
:103E7000DCF87B6818460837BD4680BD80B586B043
:103E800002AF78607B689B68002B01D0002315E0AF
:103E90007B68D9687B68188A7B685B697A680832B6
:103EA000019200937B680246064805F094FBF86097
:103EB000FB68012B0CBF01230023DBB2184610372F
:103EC000BD4680BD0D3F007080B582B000AF786008
:103ED0007B689B68002B04D07B689B68184605F0C4
:103EE00087FD00BF0837BD4680BD80B582B000AFFA
:103EF00078607B689B68002B04D07B689B681846C1
:103F000005F022FE00BF0837BD4680BD80B584B0F5
:103F100000AF78607B68FB60FB685B681B680833F8
:103F20001B68FA68526810469847002005F076FC36
:103F300000BF1037BD4680BD2DE9B04F82B000AF45
:103F40007860796800200C460546204629464FF0E7
:103F5000000A4FF0000B4FEA411B4BEAD06B4FEACF
:103F6000401A50465946021B61EB05034FF0000012
:103F70004FF00001990041EA9271900002460B4611
:103F800012EB040843EB05094FF000024FF0000369
:103F90004FEAC90343EA58734FEAC802904699466C
:103FA000404649464FF47A724FF00003FCF780F91F
:103FB00002460B461346184605F0F6FC00BF0837CC
:103FC000BD46BDE8B08F80B582B000AF0023FB7165
:103FD000032000F09BF90F2000F00EF80346002BA1
:103FE00002D00123FB7101E0FEF711FBFB791846BB
:103FF0000837BD4680BD000080B584B000AF786052
:104000000023FB73174B1B78002B23D0164B1A6829
:10401000144B1B7819464FF47A73B3FBF1F3B2FBE0
:10402000F3F3184600F0B3F90346002B0FD17B6879
:104030000F2B09D8002279684FF0FF3000F071F99A
:104040000A4A7B68136007E00123FB7304E0012345
:10405000FB7301E00123FB73FB7B18461037BD4661
:1040600080BD00BF240000241C0000242000002488
:1040700080B400AF064B1B781A46064B1B681344EE
:10408000044A136000BFBD465DF8047B704700BF63
:1040900024000024100A002480B400AF034B1B68E6
:1040A0001846BD465DF8047B704700BF100A002427
:1040B00080B584B000AF7860FFF7EEFFB8607B6832
:1040C000FB60FB68B3F1FF3F05D00A4B1B781A4633
:1040D000FB681344FB6000BFFFF7DEFF0246BB68CE
:1040E000D31AFA689A42F7D800BF00BF1037BD460E
:1040F00080BD00BF2400002480B483B000AF78608E
:10410000074BD3F8003123F4600205497B68134361
:10411000C1F8003100BF0C37BD465DF8047B704725
:104120000004005880B485B000AF78607B6803F06D
:104130000703FB600B4BDB68BB60BA684FF6FF03FD
:104140001340BB60FB681A02BB681A43064B13435B
:10415000BB60044ABB68D36000BF1437BD465DF83E
:10416000047B704700ED00E00000FA0580B400AF6A
:10417000044BDB681B0A03F007031846BD465DF8D5
:10418000047B704700ED00E080B483B000AF0346CD
:10419000FB80B7F90630002B0BDBFB8803F01F0216
:1041A0000749B7F906305B09012000FA02F241F82D
:1041B000232000BF0C37BD465DF8047B704700BF6D
:1041C00000E100E080B483B000AF0346FB80B7F9A4
:1041D0000630002B12DBFB8803F01F020A49B7F9F7
:1041E00006305B09012000FA02F2203341F8232057
:1041F000BFF34F8F00BFBFF36F8F00BF00BF0C37FF
:10420000BD465DF8047B704700E100E080B483B0F8
:1042100000AF03463960FB80B7F90630002B0ADB9C
:104220003B68DAB20C49B7F906301201D2B20B443E
:1042300083F800230AE03B68DAB20849FB8803F000
:104240000F03043B1201D2B20B441A7600BF0C37A5
:10425000BD465DF8047B704700E100E000ED00E042
:1042600080B489B000AFF860B9607A60FB6803F091
:104270000703FB61FB69C3F10703042B28BF042379
:10428000BB61FB690433062B02D9FB69033B00E0E9
:1042900000237B614FF0FF32BB6902FA03F3DA437C
:1042A000BB681A407B699A404FF0FF317B6901FA85
:1042B00003F3D9437B680B40134318462437BD46AC
:1042C0005DF8047B7047000080B582B000AF786075
:1042D0007B68013BB3F1807F01D301230FE00A4AE1
:1042E0007B68013B53600F214FF0FF30FFF78EFFDB
:1042F000054B00229A60044B07221A6000231846DF
:104300000837BD4680BD00BF10E000E080B582B038
:1043100000AF78607868FFF705FF00BF0837BD463B
:1043200080BD80B586B000AF0346B9607A60FB817E
:10433000FFF71CFF78617A68B9687869FFF790FF2A
:104340000246B7F90E3011461846FFF75FFF00BF6F
:104350001837BD4680BD80B582B000AF0346FB80F4
:10436000B7F906301846FFF70FFF00BF0837BD4604
:1043700080BD80B582B000AF0346FB80B7F9063040
:104380001846FFF71FFF00BF0837BD4680BD80B548
:1043900082B000AF78607868FFF796FF0346184652
:1043A0000837BD4680BD000080B483B000AF7860A0
:1043B000BFF35F8F00BF0B4A7B6843F0010353607C
:1043C000094B5B6A084A43F480335362BFF34F8F53
:1043D00000BFBFF36F8F00BF00BF0C37BD465DF855
:1043E000047B704790ED00E000ED00E080B400AF8A
:1043F000BFF35F8F00BF0A4B5B6A094A23F4803327
:104400005362084B00225A60BFF34F8F00BFBFF3C7
:104410006F8F00BF00BFBD465DF8047B704700BFD3
:1044200000ED00E090ED00E080B483B000AF786074
:10443000074A7B689360064B1B69054A23F001031A
:10444000136100BF0C37BD465DF8047B704700BFA9
:1044500090ED00E080B483B000AF78607B685A785C
:104460001E4B9A601D4B1B691C4A23F0010313610C
:104470001A4B1B69194A23F001031361174A7B6821
:104480005B68D3607B681B7B1A077B68DB7A1B0643
:104490001A437B689B7ADB041A437B685B7B9B0433
:1044A0001A437B689B7B5B041A437B68DB7B1B04A2
:1044B0001A437B685B7A1B021A437B681B7A5B009A
:1044C00013437A6812781146044A0B43136100BF04
:1044D0000C37BD465DF8047B704700BF90ED00E0EF
:1044E00080B584B000AF78607B68002B01D10123D8
:1044F000E2E07B68D3F88430002B06D17B68202271
:10450000C3F884207868FEF789F86D4BD3F85431EE
:104510006B4A43F00203C2F85431694BD3F854316B
:10452000BB60BB687B681B7A002B03D10020FFF7C0
:10453000E3FD03E04FF40000FFF7DEFD614BD3F82D
:1045400000317B681B6803F580531B687A6812682A
:1045500043F0010302F580521360FFF79DFDF86000
:1045600011E0FFF799FD0246FB68D31AB3F5FA7F15
:1045700009D97B680422C3F888207B68E022C3F84D
:104580008420012398E07B681B6803F580531B6837
:1045900003F00103002BE4D1786800F0A7FE02F0DD
:1045A00067FC0346484AA2FB03239A0C7B681B68FE
:1045B000013AC3F8DC20786801F06CF97B681B686D
:1045C00003F58053D3F8003123F4E0137A681268BE
:1045D00043F4002302F58052C2F800317B685B6926
:1045E00003F00303002B09D07B680122C3F8882065
:1045F0007B68E022C3F8842001235DE07B681B68B0
:1046000003F58053D3F80821304B13407A68526980
:1046100051007A6812680B4302F58052C2F80831E3
:10462000786801F0D4F9786801F01AFA7B685B6861
:1046300005331B781A027B685B6804331B781946C4
:104640007B681B680A43C3F800237B685B680333FD
:104650001B781A067B685B6802331B781B041A43BD
:104660007B685B6801331B781B021A437B685B68BD
:104670001B7819467B681B680A43C3F804237B68D0
:104680001B68D3F80C177B681A68114B0B43C2F8F0
:104690000C377B681B68D3F810177B681A680D4BC2
:1046A0000B43C2F810377B680022C3F888207B6870
:1046B0001022C3F88420002318461037BD4680BD61
:1046C000004402580004005883DE1B430180FFFFB2
:1046D0006000020C00C0200C80B582B000AF786092
:1046E0007B682022C3F884207868FEF7C7F87B68CF
:1046F0000022C3F88420002318460837BD4680BD39
:1047000080B582B000AF78607B68D3F88430102B1E
:1047100053D17B682022C3F884207B680422DA66A8
:10472000786800F0BBF97B681B681A687B681B68B7
:1047300042F002021A607B681B681A687B681B687B
:1047400042F001021A607B681B68D3F8002D7B6879
:104750001B6842F00102C3F8002D7B681B6803F55B
:104760008053D3F804317A68126843F0010302F5EC
:104770008052C2F804317B681B6803F58053D3F87C
:1047800008317A68126843F0010302F58052C2F8DA
:1047900008317B681B6803F58053D3F860317A6871
:1047A000126843F4817302F58052C2F860317B686D
:1047B0004022C3F88420002300E001231846083774
:1047C000BD4680BD80B586B000AFF860B9607A6044
:1047D000BB68002B09D1FB68D3F8883043F0010295
:1047E000FB68C3F8882001237FE0FB68D3F884309E
:1047F000402B79D10022B968F86801F08FF903469F
:10480000002B09D0FB68D3F8883043F00202FB6824
:10481000C3F88820012368E0BFF34F8F00BFFB6817
:104820009A6AFB68063253F822307B61FB689B6A08
:104830005A1CFB689A62FB689B6A032B04D9FB68CD
:104840009B6A1A1FFB689A62FB68996AFB681A6880
:10485000FB68063153F8213002F58052C2F820314E
:10486000FFF71AFC386139E0FB681B6803F58053D9
:10487000D3F8603103F48053002B12D0FB68D3F8D7
:10488000883043F00802FB68C3F88820FB681B6887
:1048900003F58053D3F86021FB68C3F88C20012313
:1048A00023E07B68B3F1FF3F18D0FFF7F5FB02462A
:1048B0003B69D31A7A689A4202D37B68002B0DD1E8
:1048C000FB68D3F8883043F00402FB68C3F8882003
:1048D0007B694FF04052DA60012306E07B69DB68B8
:1048E000002BC1DB002300E0012318461837BD462A
:1048F00080BD80B58AB000AF786039600023BB61AD
:104900000023FB753B68002B09D17B68D3F8883006
:1049100043F001027B68C3F888200123BAE07B687A
:10492000D3F88430402B01D00123B3E07B68DB6DEA
:104930007B627B687A6A123253F82230FB617B68B3
:10494000DB6EC3F104033B617BE0FB69DB6803F0D2
:104950000053002B03D17B68DB6F002B5FD0FB691A
:10496000DB6803F00053002B05D07B6800221A6639
:104970007B6800225A66FB69DB68C3F30E027B6822
:104980005B6ED31AFB60FB69DB6803F08053002B7E
:104990002AD0FB69DA687B681A670123FB75FB691B
:1049A0005B6803F48043002B1ED07B6A3B623B6A4A
:1049B00001333B623B6A032B02D93B6A043B3B62F7
:1049C0007B683A6A123253F82230BB60BB68DB68FE
:1049D00003F08043002B07D0BB685A687B689A6756
:1049E000BB681A687B685A677B6803F17C007B6848
:1049F00003F18001FB691B691A46FB689BB2FEF755
:104A0000F1FA7B681B6E5A1C7B681A667B685A6ECB
:104A1000FB681A447B685A66FB6900221A617B6A4C
:104A200001337B627B6A032B02D97B6A043B7B6286
:104A30007B687A6A123253F82230FB61BB6901331A
:104A4000BB61FB69DB68002B07DBBA693B699A42F3
:104A500003D2FB7D002B3FF478AF7B68DA6EBB6935
:104A60001A447B68DA667B68DB6E002B02D07868BC
:104A700000F014F87B687A6ADA65FB7D012B08D1B7
:104A80007B68DA6F3B681A607B680022DA67002374
:104A900000E0012318462837BD4680BD80B588B0A8
:104AA00000AF78600023BB600123FB747B689B6EC2
:104AB000FB617B68FA69123253F822307B617B68B4
:104AC000DB6EBB613DE07B691B69002B13D107F1F5
:104AD00008031846FEF766FABB68002B02D10023D4
:104AE000FB740CE0BB681A467B691A61BB681A4606
:104AF0007B691A6003E07B691A697B691A60FB7C39
:104B0000002B1ED07B689B6D002B04D07B694FF07F
:104B10004142DA6003E07B694FF00142DA60FB69F1
:104B20000133FB61FB69032B02D9FB69043BFB6189
:104B30007B68FA69123253F822307B61BB69013B12
:104B4000BB61BB69002B02D0FB7C002BBBD17B6817
:104B5000DB6EBA699A421BD0FB69033303F003038F
:104B6000FB60BFF35F8F00BF7B681969FA6813466B
:104B70005B001344DB00CA187B681B6803F5805395
:104B8000C3F828217B68FA699A667B68BA69DA6695
:104B900000BF2037BD4680BD80B586B000AF7860CD
:104BA0007B681B68D3F8B0307B617B681B6803F5BA
:104BB0008053D3F860313B617B681B6803F58053F9
:104BC000D3F83431FB604FF0B043D3F89830BB607A
:104BD0003B6903F04003002B10D0FB6803F0400357
:104BE000002B0BD07B681B6803F580531A4648F2F4
:104BF0004003C2F860317868FEF7C0F93B6903F002
:104C00000103002B10D0FB6803F00103002B0BD035
:104C10007B681B6803F580531A4648F20103C2F80B
:104C200060317868FEF7A0F93B6903F48043002BFC
:104C300047D0FB6803F48043002B42D07B68D3F855
:104C4000883043F008027B68C3F888203B6903F48E
:104C50008053002B1ED07B681B6803F58053D3F86C
:104C6000602141F2021313407A68C2F88C307B68ED
:104C70001B6803F58053D3F834317A68126823F443
:104C8000404302F58052C2F834317B68E022C3F819
:104C9000842013E07B681B6803F58053D3F86031F0
:104CA00003F4CD427B68C3F88C207B681B6803F556
:104CB00080531A464FF4CD43C2F860317868FEF74E
:104CC00067F97B6903F48043002B04D17B6903F40B
:104CD0000053002B19D07B68D3F8883043F01002C2
:104CE0007B68C3F888207B681B68D3F8B8207B6892
:104CF000C3F890207B68E022C3F884207868FEF730
:104D000047F97B680022C3F890207B6903F0100309
:104D1000002B0FD07B681B68D3F8C03003F0600213
:104D20007B68C3F89420786800F02BF87B68002239
:104D3000C3F894207B6903F02003002B0FD07B681D
:104D40001B68D3F8D03003F00F027B68C3F89820BB
:104D5000786800F020F87B680022C3F89820BB68D0
:104D600003F48043002B08D04FF0B0434FF480424F
:104D7000C3F89820786800F018F800BF1837BD46CF
:104D800080BD80B483B000AF786000BF0C37BD46F3
:104D90005DF8047B704780B483B000AF786000BFDB
:104DA0000C37BD465DF8047B704780B483B000AF1C
:104DB000786000BF0C37BD465DF8047B704780B556
:104DC00086B000AFF860B9607A603B60FB681B6832
:104DD000D3F8003203F00103002B01D001233EE0A1
:104DE000FB681B68D3F800327B617B6923F0787223
:104DF000BB685B0513437B617B6923F4F8127B6816
:104E00001B0413437B617B6943F00C037B617B696B
:104E100043F001037B61FB681B687A69C3F80022D9
:104E2000FFF73AF9386109E0FFF736F902463B69C6
:104E3000D31AB3F57A7F01D9012310E0FB681B6810
:104E4000D3F8003203F00103002BEDD1FB681B689F
:104E5000D3F804329BB21A463B681A600023184606
:104E60001837BD4680BD000080B586B000AFF86041
:104E7000B9607A603B60FB681B68D3F8003203F0CE
:104E80000103002B01D001233CE0FB681B68D3F831
:104E900000327B617B6923F07872BB685B0513434A
:104EA0007B617B6923F4F8127B681B0413437B61ED
:104EB0007B6923F00C0343F004037B617B6943F0BF
:104EC00001037B613B689AB2104BC3F804220F4A7E
:104ED0007B69C2F80032FFF7DFF8386109E0FFF7BD
:104EE000DBF802463B69D31AB3F57A7F01D9012377
:104EF00008E0FB681B68D3F8003203F00103002BC5
:104F0000EDD1002318461837BD4680BD0080024011
:104F100080B483B000AF786039603B68002B01D16A
:104F20000123C3E17B681B681B6803F00C023B682C
:104F3000DA627B681B681B6803F01003002B14BF48
:104F400001230023DBB21A463B6883F828207B68E4
:104F50001B681B6803F060023B685A627B681B6831
:104F60001B6803F48073002B0CBF01230023DBB20A
:104F70001A463B6883F820207B681B681B6803F493
:104F80000073002B14BF01230023DBB21A463B68D9
:104F9000DA777B681B681B6803F48063002B0CBF07
:104FA00001230023DBB21A463B689A777B681B68B3
:104FB0001B6803F40063002B14BF01230023DBB242
:104FC0001A463B685A777B681B681B6803F480535A
:104FD000002B14BF01230023DBB21A463B681A776B
:104FE0007B681B681B6803F400523B689A617B680E
:104FF0001B681B6803F480423B685A617B681B682E
:105000001B6803F48033002B14BF01230023DBB2A1
:105010001A463B689A747B681B681B6803F400336C
:10502000002B0CBF01230023DBB21A463B685A74E5
:105030007B681B681B6803F40023002B0CBF012353
:105040000023DBB21A463B681A747B681B681B6836
:1050500003F48013002B14BF01230023DBB21A4694
:105060003B68DA737B681B681B6803F40013002B32
:1050700014BF01230023DBB21A463B689A737B6896
:105080001B681B6803F48003002B14BF012300235B
:10509000DBB21A463B685A737B681B681B6803F4D3
:1050A0000003002B14BF01230023DBB21A463B6828
:1050B0001A737B681B681B6803F0E0623B689A60A8
:1050C0007B681B681B6803F00063002B14BF01237F
:1050D0000023DBB21A463B681A717B681B681B68A9
:1050E00003F0E0423B681A607B681B685B68C3F3AF
:1050F0000D023B685A637B681B685B6803F480336E
:10510000002B0CBF01230023DBB21A463B6883F857
:1051100032207B681B685B6803F40033002B14BFEC
:1051200001230023DBB21A463B6883F831207B68F9
:105130001B685B6803F48023002B14BF012300234A
:10514000DBB21A463B6883F830207B681B685B68DB
:1051500003F08073002B14BF01230023DBB21A4637
:105160003B6883F838207B681B685B685B0E03F044
:105170001F023B68DA637B681B68DB6803F480739B
:10518000002B14BF01230023DBB21A463B6883F8CF
:1051900040207B681B68DB6803F00F023B685A64A1
:1051A0007B681B681B6F03F00203002B14BF0123F5
:1051B0000023DBB21A463B6883F854207B681B68E7
:1051C0001B6F03F08003002B0CBF01230023DBB215
:1051D0001A463B6883F84C207B681B681B6F03F002
:1051E00070023B681A657B681B681B6F1B0C9AB2C8
:1051F0003B689A647B681B68D3F8903003F0010326
:10520000002B14BF01230023DBB21A463B6883F84E
:1052100056207B681B68D3F8903003F00203002B04
:1052200014BF01230023DBB21A463B6883F85520E4
:105230007B681B68D3F8003D03F072023B689A65F7
:105240007B681B68D3F8303D03F023023B68DA65C6
:105250007B681B68D3F8303D03F00803002B14BFB4
:1052600001230023DBB21A463B6883F862207B6887
:105270001B68D3F8303D03F01003002B14BF01234B
:105280000023DBB21A463B6883F861207B681B6809
:10529000D3F8303D03F04003002B0CBF0123002363
:1052A000DBB21A463B6883F86020002318460C37AF
:1052B000BD465DF8047B704780B582B000AF786072
:1052C00039603B68002B01D101230BE07B68D3F8E8
:1052D0008430102B05D13968786800F039F9002343
:1052E00000E0012318460837BD4680BD80B584B074
:1052F00000AF78607B681B68D3F80032FB60FB6806
:1053000023F47063FB6001F0B3FDB860BB681A4A18
:10531000934204D8FB6843F40073FB6022E0BB684F
:10532000164A934204D2FB6843F44073FB6019E0D1
:10533000BB68134A934215D9BB68124A934204D8FA
:10534000FB6843F48073FB600CE0BB680E4A934239
:1053500004D8FB6843F48063FB6003E0FB6843F41C
:10536000A063FB607B681B68FA68C3F8002200BF7B
:105370001037BD4680BD00BFBF0E160200879303E5
:10538000FFE0F5057FD1F0087FB2E60E80B485B06E
:1053900000AF786039603B68002B01D1012339E010
:1053A0003B681B781A463B68DB785B001A433B6816
:1053B0001B799B001A433B681B7ADB001A433B684E
:1053C0005B791B0113433A68527A012A01D12022EA
:1053D00000E000221A433B68DB791B021A433B685A
:1053E0009B795B021A433B689B789B021A433B689C
:1053F0005B78DB071A433B68DB681343FB607B6821
:105400001B689A68064B13407A681268F9680B4368
:105410009360002318461437BD465DF8047B70473F
:1054200000F8FF7F80B483B000AF786039603B68DC
:10543000002B01D1012384E07B681B689B6803F08B
:105440000103002B14BF01230023DBB21A463B6883
:105450001A707B681B689B6803F00203002B14BF63
:1054600001230023DBB21A463B68DA707B681B68B5
:105470009B6803F00403002B14BF01230023DBB25D
:105480001A463B681A717B681B689B6803F0080327
:10549000002B14BF01230023DBB21A463B681A72AB
:1054A0007B681B689B6803F01003002B14BF01236B
:1054B0000023DBB21A463B685A717B681B689B6805
:1054C00003F02003002B14BF01230023DBB21A4694
:1054D0003B685A727B681B689B6803F0C0023B689C
:1054E000DA607B681B689B6803F48073002B14BF31
:1054F00001230023DBB21A463B68DA717B681B6824
:105500009B6803F40073002B14BF01230023DBB25C
:105510001A463B689A717B681B689B6803F480633A
:10552000002B14BF01230023DBB21A463B689A709C
:105530007B681B689B68DB0FDBB21A463B685A70BE
:10554000002318460C37BD465DF8047B7047000009
:1055500080B485B000AF786039603B689A683B687A
:105560001B681A433B681B79DB061A433B681B7BAD
:10557000DB051A433B685B7B9B051A433B689B7BBF
:105580005B051A433B68DB7B1B0513433A68127CBF
:10559000002A02D14FF4002200E0002213433A68AF
:1055A000527C002A02D14FF4003200E000221A435C
:1055B0003B689B7C1B041A433B685B691A433B684E
:1055C0009B691A433B681B7F1B031A433B685B7F45
:1055D000DB0213433A68927F002A02D14FF48062C3
:1055E00000E000221A433B68DB7F5B0213433A680A
:1055F00092F82020002A02D14FF4807200E00022AD
:105600001A433B685B6A1A433B6893F828301B01D6
:105610001A433B68DB6A1343FB607B681B681A68AC
:10562000564B13407A681268F9680B4313603B6865
:10563000DB6B5A063B6893F838301B061A433B680D
:1056400093F830309B041A433B6893F831305B0485
:1056500013433A6892F83220002A02D14FF4803284
:1056600000E000221A433B685B6B1343FB607B68DE
:105670001B685A68424B13407A681268F9680B43FA
:1056800053603B6893F840301A023B685B6C1343ED
:10569000FB607B681B68DA683A4B13407A681268D3
:1056A000F9680B43D3603B6893F854305A003B6869
:1056B0001B6D13433A6892F84C20002A01D18022D6
:1056C00000E000221A433B689B6C1B041343FB6001
:1056D0007B681B681A6F4FF60D7313407A68126867
:1056E000F9680B4313673B6893F856301A463B68DA
:1056F00093F855305B001343FB607B681B68D3F85D
:10570000903023F003017B681B68FA680A43C3F8F2
:1057100090207B681B68D3F8003D23F072013B6842
:105720009A6D7B681B680A43C3F8002D3B68DB6DEC
:105730003A6892F86020002A01D1402200E000225D
:105740001A433B6893F861301B011A433B6893F896
:105750006230DB001343FB607B681B68D3F8303D8D
:1057600023F07B017B681B68FA680A43C3F8302D7D
:1057700000BF1437BD465DF8047B7047838004008A
:105780000080F8C0F0FEFFFF80B485B000AF786005
:1057900039607B681B6803F580531A68384B1340E7
:1057A0003A6811687A6812680B4302F580521360F8
:1057B0003B681B791A033B689B681A433B681B7B59
:1057C000DB031343FB607B681B6803F580535A6857
:1057D0002C4B13407A681268F9680B4302F580522B
:1057E00053603B685B7B1A043B681B6A1343FB6096
:1057F0007B681B6803F58053D3F80021224B1340CC
:105800007A681268F9680B4302F58052C2F80031D9
:105810003B681A693B681B7D1B011A433B685B7F31
:105820001B031343FB607B681B6803F58053D3F8AD
:105830000421164B13407A681268F9680B4302F58D
:105840008052C2F804313B681B7FDA073B689B69D2
:105850001343FB607B681B6803F58053D3F8082172
:105860000B4B13407A681268F9680B4302F58052BB
:10587000C2F8083100BF1437BD465DF8047B70479D
:10588000FD87FFFFFE2FFFFF00C0FEFFEFEFC0FF11
:10589000FFFFC07F80B5A4B000AF7860012387F818
:1058A0003B3000233B65002387F84930002387F80D
:1058B0004B30012387F83030012387F85E30012315
:1058C00087F83A30002387F85430012387F88C306A
:1058D0004FF400537B64002387F864300023BB66D9
:1058E000002387F88D30002387F88E304FF4C36390
:1058F0003B66002387F8383000237B63012387F859
:105900003D30002387F83E30002387F848300023DD
:10591000FB6700237B670023BB65002387F86C309F
:10592000002387F88230012387F84A302023C7F804
:105930008830012387F84C30002387F85D304FF022
:105940004053FB624FF480433B64002387F83930B7
:105950000223C7F88430002387F88030002387F8BB
:105960008130002387F85C30012387F83C30002326
:105970003B67012387F8783007F12C0319467868D4
:10598000FFF7E6FD01233B7301233B610023BB606E
:10599000002387F8243000237B7500233B754FF4E8
:1059A00000133B6200233B774FF40013BB610023DD
:1059B00087F825304FF40673BB6207F108031946D8
:1059C0007868FFF7E1FE00BF9037BD4680BD80B428
:1059D00085B000AF78600023FB601DE07B68D9686C
:1059E000FA6813465B001344DB000B44BB60BB68E2
:1059F00000221A60BB6800225A60BB6800229A60CD
:105A0000BB680022DA60B9687B68FA68063243F83E
:105A10002210FB680133FB60FB68032BDED97B6837
:105A200000229A627B681B6803F580531A460323A1
:105A3000C2F82C317B68DA687B681B6803F58053F9
:105A4000C3F814217B68DA687B681B6803F5805310
:105A5000C3F8202100BF1437BD465DF8047B7047B2
:105A600080B485B000AF78600023FB6023E07B68E2
:105A70001969FA6813465B001344DB000B44BB60F2
:105A8000BB6800221A60BB6800225A60BB68002213
:105A90009A60BB680022DA60BB6800221A61BB68AA
:105AA00000225A61B9687B68FA68123243F8221002
:105AB000FB680133FB60FB68032BD8D97B680022AD
:105AC000DA657B6800221A667B6800229A667B682A
:105AD0000022DA667B6800229A657B681B6803F502
