:0200000470008A
:100000000000012071390070C1390070653D007039
:10001000793D00707F3D0070853D0070000000005C
:1000200000000000000000000000000061D100702E
:10003000C1390070000000008DD20070613C00707A
:10004000C139007000000000C1390070C139007072
:10005000C1390070C13900700000000000000000CC
:10006000C1390070C1390070C13900700000000052
:1000700000000000C1390070000000000000000016
:10008000C1390070C1390070C1390070C1390070C8
:10009000C1390070C1390070C1390070C1390070B8
:1000A000C1390070C1390070C1390070C1390070A8
:1000B000C1390070C1390070C1390070C139007098
:1000C000C1390070C1390070C1390070C139007088
:1000D000C1390070C1390070C1390070C139007078
:1000E000C1390070C1390070C1390070C139007068
:1000F000C1390070C1390070C1390070C139007058
:10010000C1390070C1390070C1390070C139007047
:10011000C1390070C1390070C1390070C139007037
:10012000C1390070C1390070C1390070C139007027
:10013000C1390070C1390070C1390070C139007017
:10014000C1390070C1390070C1390070C139007007
:10015000C1390070C1390070C1390070C1390070F7
:10016000C1390070C1390070C1390070C1390070E7
:10017000C1390070C1390070C1390070C1390070D7
:10018000C1390070C1390070C1390070C1390070C7
:10019000C1390070C1390070C1390070C1390070B7
:1001A000C1390070C1390070C1390070C1390070A7
:1001B000E1410070C1390070C1390070C13900706F
:1001C0000000000000000000C1390070C13900705B
:1001D000C1390070C1390070C1390070C139007077
:1001E000C1390070C1390070C1390070C139007067
:1001F000C1390070C139007000000000000000002B
:10020000C1390070C1390070C1390070C139007046
:10021000C1390070C1390070C1390070C139007036
:10022000C1390070C1390070C1390070C139007026
:10023000C1390070C1390070C1390070C139007016
:10024000C1390070C1390070C1390070C139007006
:10025000C1390070C1390070C1390070C1390070F6
:10026000C1390070C1390070C1390070C1390070E6
:10027000C1390070C1390070C1390070C1390070D6
:10028000C1390070C1390070C1390070C1390070C6
:10029000C1390070000000000000000000000000F4
:1002A000C1390070C1390070C1390070C1390070A6
:1002B00053B94AB9002908BF00281CBF4FF0FF31CD
:1002C0004FF0FF3000F00CB8ADF1080C6DE904CE32
:1002D00016F06CF9DDF804E0DDE9022304B07047A4
:1002E000704700BF00000000000000000000000098
:1002F00001F0FF01102A2BDB10F0070F08D010F8D7
:10030000013B013A8B422DD010F0070F42B3F6D1DA
:10031000F0B441EA012141EA014122F007047FF0F3
:1003200000070023F0E80256083C85EA010586EA4A
:10033000010685FA47F5A3FA87F586FA47F6A5FA86
:1003400087F68EB9EED1F0BC01F0FF0102F0070292
:1003500032B110F8013B013A83EA010313B1F8D13D
:100360000020704701387047002D06BF354603381E
:10037000073815F0010F07D1013015F4807F02BF57
:10038000013015F4C03F0130F0BC0138704700BFA8
:100390000348044B834202D0034B03B11847704714
:1003A0009000002490000024000000000548064B47
:1003B0001B1AD90F01EBA301491002D0034B03B163
:1003C00018477047900000249000002400000000AF
:1003D00010B5064C237843B9FFF7DAFF044B13B18D
:1003E0000448AFF300800123237010BD9000002467
:1003F00000000000C07F017008B5054B1BB1054926
:100400000548AFF30080BDE80840FFF7CFBF00BF4D
:100410000000000094000024C07F017080B582B00D
:1004200000AF7860074A7B681360074B1B689868C9
:1004300000230222002116F05BFC00BF0837BD46F6
:1004400080BD00BFAC0000244000002480B584B013
:1004500000AFF860B9607A60094B1B68002B09D0C7
:10046000074B1B681B6808331B68054A10687A68CD
:10047000B96898477B6818461037BD4680BD00BFF5
:10048000AC00002490B482B000AF04460846114688
:100490001A462346FB710346BB710B467B7113461C
:1004A0003B71FA79BB791B021A437B791B041A430F
:1004B0003B791B06134318460837BD4690BC70476E
:1004C00080B483B000AF7860044A7B681A607B68B0
:1004D00018460C37BD465DF8047B7047A88C017048
:1004E00080B483B000AF7860044A7B681A607B6890
:1004F00018460C37BD465DF8047B7047A88C017028
:1005000080B582B000AF78607868FFF7E9FF04211A
:10051000786816F038F87B6818460837BD4680BD05
:1005200080B582B000AF78600B467B8013463B807D
:100530007B681846FFF7C4FF094A7B681A607B682E
:100540007A889A807B683A88DA807B6800229A6091
:100550007B6801221A737B6818460837BD4680BD48
:10056000688C017080B483B000AF7860034B18468C
:100570000C37BD465DF8047B704700BF434E5452B4
:1005800080B483B000AF7860034B18460C37BD468B
:100590005DF8047B704700BFD87F017080B483B0E2
:1005A00000AF78607B689B8818460C37BD465DF8C5
:1005B000047B704780B483B000AF78600B467B80CB
:1005C0007B88002B05D07B687A889A807B68012223
:1005D000DA8000BF0C37BD465DF8047B704780B4FD
:1005E00083B000AF78607B68DB8818460C37BD4667
:1005F0005DF8047B704780B483B000AF78600B4631
:100600007B807B88002B04D07B88642B01D87A8880
:1006100000E001227B68DA8000BF0C37BD465DF840
:10062000047B704780B483B000AF78600123184624
:100630000C37BD465DF8047B704780B483B000AFD3
:100640007860042318460C37BD465DF8047B70477C
:1006500080B483B000AF7860042318460C37BD46E1
:100660005DF8047B704780B483B000AF78607B682E
:100670001B7B18460C37BD465DF8047B704780B481
:1006800083B000AF78600B46FB707B68FA781A7312
:1006900000BF0C37BD465DF8047B704780B487B05F
:1006A00000AFF860B9607A607B68002B02D0BB684D
:1006B000002B01D1002316E0BB683B6100237B6166
:1006C0000CE0FB689B68591CFA6891607A6992009B
:1006D00039690A4413607B6901337B617A697B68FD
:1006E0009A42EED37B6818461C37BD465DF8047B02
:1006F0007047000080B584B000AFF860B960114663
:100700001A460B46FB801346BB80FB681846FFF772
:10071000D7FE0E4AFB681A60FB68BA685A60FB682D
:10072000FA881A81FB68BA885A81FB6801221A7319
:10073000FB685B681B6808331B68FA6852681046E0
:100740009847FB6818461037BD4680BD288C01705D
:1007500080B483B000AF7860034B18460C37BD46B9
:100760005DF8047B704700BF54454D5080B483B0A2
:1007700000AF7860034B18460C37BD465DF8047B2C
:10078000704700BFE07F017080B483B000AF786035
:100790007B681B8918460C37BD465DF8047B7047A3
:1007A00080B483B000AF78600B467B807B88002BE1
:1007B00005D07B687A881A817B6801225A8100BF44
:1007C0000C37BD465DF8047B704780B483B000AF42
:1007D00078607B685B8918460C37BD465DF8047B02
:1007E000704780B483B000AF78600B467B807B8815
:1007F000002B04D07B88642B01D87A8800E001228A
:100800007B685A8100BF0C37BD465DF8047B70479A
:1008100080B483B000AF7860012318460C37BD4622
:100820005DF8047B704780B483B000AF786002232A
:1008300018460C37BD465DF8047B704780B483B022
:1008400000AF7860042318460C37BD465DF8047B82
:10085000704780B483B000AF78607B681B7B18461C
:100860000C37BD465DF8047B704780B483B000AFA1
:1008700078600B46FB707B68FA781A7300BF0C3700
:10088000BD465DF8047B704780B588B000AFF86066
:10089000B9607A607B68002B02D0BB68002B01D165
:1008A000002327E0BB68BB6100237B61FB685B68BA
:1008B0001B680C331B68FA68526807F11401104674
:1008C0009847034683F00103DBB2002B01D00B4BAA
:1008D0007B610023FB6108E0FB699B00BA6913445C
:1008E0007A691A60FB690133FB61FA697B689A4295
:1008F000F2D37B6818462037BD4680BD19FCFFFF48
:1009000080B483B000AF7860044A7B681A607B686B
:1009100018460C37BD465DF8047B70470C8D01709E
:1009200080B582B000AF78607868FFF7E9FF0421F6
:10093000786815F028FE7B6818460837BD4680BDEC
:1009400080B582B000AF7860054A7B681A607B682A
:100950001846FFF7D5FF7B6818460837BD4680BDAF
:10096000708D017080B582B000AF78607868FFF755
:10097000E7FF0C21786815F006FE7B6818460837FB
:10098000BD4680BD80B483B000AF7860044A7B6808
:100990001A607B6818460C37BD465DF8047B7047CB
:1009A000E88C017080B582B000AF78607868FFF79E
:1009B000E9FF0421786815F0E6FD7B6818460837E2
:1009C000BD4680BD80B582B000AF7860054A7B68C7
:1009D0001A607B681846FFF7D5FF7B681846083712
:1009E000BD4680BDC48E017080B582B000AF786016
:1009F0007868FFF7E7FF0C21786815F0C4FD7B6885
:100A000018460837BD4680BD80B582B000AF78601B
:100A1000054A7B681A607B681846FFF771FF7B68A0
:100A200018460837BD4680BD208D017080B582B064
:100A300000AF78607868FFF7E7FF6021786815F00D
:100A4000A2FD7B6818460837BD4680BD80B582B0E0
:100A500000AF7860054A7B681A607B681846FFF72C
:100A60003FFD7B6818460837BD4680BD688C017025
:100A700080B582B000AF78607868FFF7E7FF10219B
:100A8000786815F080FD7B6818460837BD4680BD44
:100A900080B582B000AF7860054A7B681A607B68D9
:100AA0001846FFF71DFD7B6818460837BD4680BD18
:100AB000288C017080B582B000AF78607868FFF74D
:100AC000E7FF1021786815F05EFD7B68184608374F
:100AD000BD4680BD80B582B000AF7860054A7B68B6
:100AE0001A607B681846FFF70BFF7B6818460837CB
:100AF000BD4680BD348D017080B582B000AF786096
:100B00007868FFF7E7FF1821786815F03CFD7B68EF
:100B100018460837BD4680BD80B582B000AF78600A
:100B2000054A7B681A607B681846FFF7E9FE7B6818
:100B300018460837BD4680BD488D017080B582B02B
:100B400000AF78607868FFF7E7FF6821786815F0F4
:100B50001AFD7B6818460837BD4680BD80B582B057
:100B600000AF7860054A7B681A607B681846FFF71B
:100B7000C7FE7B6818460837BD4680BD5C8D017096
:100B800080B582B000AF78607868FFF7E7FF182182
:100B9000786815F0F8FC7B6818460837BD4680BDBC
:100BA00080B584B002AF02F0D5FB02F063FC0346CF
:100BB0001846FFF733FCA54816F092F8A44B1B68C3
:100BC000BFF35B8F03F00103002B0CBF0123002355
:100BD000DBB2002B12D09E4815F0D7FC0346002B49
:100BE00014BF01230023DBB2002B07D002F04CFC22
:100BF0000346984A1360964815F0D3FC964B1B6841
:100C0000BFF35B8F03F00103002B0CBF0123002314
:100C1000DBB2002B1AD0904815F0B7FC0346002B2E
:100C200014BF01230023DBB2002B0FD0894B1B68BC
:100C30004FF4FA721946894802F0A2FA884A8949A3
:100C4000864815F09BFC844815F0ABFC864B1B686E
:100C5000BFF35B8F03F00103002B0CBF01230023C4
:100C6000DBB2002B1BD0804815F08FFC0346002B15
:100C700014BF01230023DBB2002B10D00323009309
:100C80004FF48073794A7549794804F001FA744A3F
:100C90007849774815F072FC734815F082FC764B62
:100CA0001B68BFF35B8F03F00103002B0CBF012314
:100CB0000023DBB2002B16D06F4815F066FC03460C
:100CC000002B14BF01230023DBB2002B0BD000212B
:100CD0006A4804F03BF8624A6949684815F04EFCDE
:100CE000654815F05EFC674B1B68BFF35B8F03F034
:100CF0000103002B0CBF01230023DBB2002B17D014
:100D0000604815F042FC0346002B14BF012300236A
:100D1000DBB2002B0CD0594A5B495C4803F09AFBCC
:100D20004F4A5B49594815F029FC564815F039FCE3
:100D30000123FB80574B02221A706F230122A82146
:100D4000C020FFF79FFB0346524A53600023FF2257
:100D5000FF21FF20FFF796FB03464E4A93600123D5
:100D60000122A821C020FFF78DFB0346494AD3602A
:100D7000484B42F210721A61464B474A5A61474B40
:100D80001B68BFF35B8F03F00103002B0CBF012333
:100D90000023DBB2002B17D0404815F0F6FB0346CA
:100DA000002B14BF01230023DBB2002B0CD0394AE7
:100DB00036493B4800F0B2FA294A3A49384815F01A
:100DC000DDFB364815F0EDFB374B1B68BFF35B8F3F
:100DD00003F00103002B0CBF01230023DBB2002B27
:100DE0001BD0314815F0D1FB0346002B14BF012363
:100DF0000023DBB2002B10D0042300934FF4806358
:100E00002A4A27492A4804F043F9154A194928482B
:100E100015F0B4FB244815F0C4FB264B1B68BFF348
:100E20005B8F03F00103002B0CBF01230023DBB217
:100E3000002B4FD01F4815F0A8FB0346002B14BF12
:100E400001230023DBB2002B36E000BFFC7F0170E2
:100E5000B4000024B0000024C4000024B800002422
:100E60000000002441090070E0000024148001709B
:100E7000C8000024D9500070F0000024E4000024D1
:100E8000C5090070C8010024148C0170F40000240E
:100E9000B144007004000024EC7F01702C02002497
:100EA000CC010024090A007048020024208001704F
:100EB000300200245C0200240CD001220A21A24846
:100EC000FFF72EFBA14AA2499F4815F057FBA14806
:100ED00015F067FBA04B1B68BFF35B8F03F00103AA
:100EE000002B0CBF01230023DBB2002B12D09A4849
:100EF00015F04BFB0346002B14BF01230023DBB28C
:100F0000002B07D002F0F0FA0346944A136092488F
:100F100015F047FB924B1B68BFF35B8F03F0010397
:100F2000002B0CBF01230023DBB2002B19D08C480F
:100F300015F02BFB0346002B14BF01230023DBB26B
:100F4000002B0ED0854B1968012301228548FFF73D
:100F5000D1FB7E4A8449834815F010FB804815F088
:100F600020FB824B1B68BFF35B8F03F00103002B58
:100F70000CBF01230023DBB2002B19D07B4815F0F6
:100F800004FB0346002B14BF01230023DBB2002B1C
:100F90000ED0724B1B6801227549764800F0C4FCE4
:100FA0006A4A7549734815F0E9FA704815F0F9FA7C
:100FB000724B1B68BFF35B8F03F00103002B0CBF68
:100FC00001230023DBB2002B1BD06C4815F0DDFAA7
:100FD0000346002B14BF01230023DBB2002B10D0EB
:100FE000022300934FF48063654A6249654804F028
:100FF0004FF8564A6449634815F0C0FA5F4815F047
:10100000D0FA624B1B68BFF35B8F03F00103002B28
:101010000CBF01230023DBB2002B18D05B4815F076
:10102000B4FA0346002B14BF01230023DBB2002BCC
:101030000DD0454B01224E49554800F003FF434A6D
:101040005449534815F09AFA504815F0AAFA454900
:101050004F4800F00FFF504B1B68BFF35B8F03F04E
:101060000103002B0CBF01230023DBB2002B1BD09C
:10107000494815F08AFA0346002B14BF01230023C8
:10108000DBB2002B10D0042300934FF40063434ADB
:101090003F49434803F0FCFF2C4A3B49404815F0C8
:1010A0006DFA3D4815F07DFA3E4B1B68BFF35B8F30
:1010B00003F00103002B0CBF01230023DBB2002B44
:1010C0001AD0384815F061FA0346002B14BF0123EB
:1010D0000023DBB2002B0FD0012300932C4B254AB9
:1010E0002349314801F060FB184A30492E4815F079
:1010F00045FA2C4815F055FA2D4B1B68BFF35B8F52
:1011000003F00103002B0CBF01230023DBB2002BF3
:1011100057D0274815F039FA0346002B14BF012396
:101120000023DBB2002B4CD0032300934FF4006369
:10113000204A1D49204803F0ABFF044A12491E48CB
:1011400015F01CFA3AE000BF4C0200240000002415
:101150004D0A00705C020024640200246002002436
:101160007802002468020024910A0070940200248E
:10117000CC0100247C020024D50A0070B0020024B7
:101180002C80017098020024D95000701C030024A8
:10119000B4020024190B0070380300243C80017055
:1011A00020030024540300243C0300245D0B007042
:1011B000700300244C800170580300240A4815F085
:1011C000F0F90A4803F0B4FF094803F0B1FF0948F9
:1011D00003F0AEFF084803F0ABFF084803F0A8FF98
:1011E0000AF030F800BFFDE770030024C8000024B7
:1011F0003002002498020024200300245803002415
:1012000080B483B000AF78607B68243318460C3715
:10121000BD465DF8047B704780B483B000AF786052
:101220007B68083318460C37BD465DF8047B704771
:1012300080B584B000AF78607B68FB60F86800F030
:1012400065F900BF1037BD4680BD80B584B000AFE2
:1012500078607B68FB60F868FFF7D2FF03461846AA
:1012600010F046FDF868FFF7D7FF03461B78002B08
:1012700014BF01230023DBB2002B06D0F868FFF770
:10128000BFFF0346184611F00DFE00BF1037BD46E4
:1012900080BD80B584B000AF78607B68FB60F86883
:1012A000FFF7AEFF0346184610F006FDF868FFF79B
:1012B000B3FF03461B78002B0CBF01230023DBB2D6
:1012C000002B03D0F86800F021F906E0F868FFF77A
:1012D00097FF0346184611F093FC00BF1037BD4638
:1012E00080BD80B584B000AF78607B68FB60F86833
:1012F00000F0AEF800BF1037BD4680BD80B483B0AB
:1013000000AF7860044A7B681A607B6818460C3727
:10131000BD465DF8047B70470C8D0170B0B584B09C
:1013200000AFF860B9607A60FB681846FFF7E6FF27
:10133000104AFB681A60FB68BA685A60FB687A68F2
:1013400003F1080415460FCD0FC495E8030084E8A7
:101350000300FB68002283F82020FB68BA689A65C6
:101360007B685A69FB68DA65FB6818461037BD462A
:10137000B0BD00BF208D017080B582B000AF786035
:101380002C4815F0ADFC7B685B681B6808331B6854
:101390007A68526810469847034683F00103DBB22F
:1013A000002B06D0244815F09BFC002009F036FDE8
:1013B0003CE07B685B681B6824331B687A68526872
:1013C00010469847034619461C4815F019FC1C485E
:1013D00015F086FC02E01B4815F082FC7B685B6818
:1013E0001B680C331B687A6852684FF47A71104698
:1013F0009847034683F00103DBB2002BEBD1124880
:1014000015F06EFC7968114814F062F902E00A20C8
:1014100009F078FD7B6893F82030DBB283F001039C
:10142000DBB2002BF3D1786800F0CEF80837BD4668
:1014300080BD00BF5880017074800170AC80017065
:10144000D4800170048101702C810170E31200705E
:10145000B0B58AB004AF78607B681B7A002B09D1E5
:101460007B68DB687B617B681B693B617B685B69D0
:10147000FB6005E000237B6100233B610023FB60F0
:101480007B6803F158027B681A647B6803F12400CF
:101490007B68583307F10C0407F1100207F11401BF
:1014A000174D0295174D01950093234610F062FBEE
:1014B0007B682433184610F0E7FB7B68243318461A
:1014C00010F0FAFB7B682433184610F0E3FB7B68CE
:1014D0001B7A002B03D1786800F018F807E00A485F
:1014E00015F0FEFB7B682433184611F089FB7B68FE
:1014F000012283F8202000BF1837BD46B0BD00BFD1
:10150000ED550170415901704881017080B588B076
:1015100002AF78607B68DB687B617B681B693B613D
:101520007B685B69FB607B6803F1240007F10C03B7
:1015300007F1100207F1140110F0F0FA7B68DB6884
:10154000D9B27B68DB681B0ADAB27B68DB681B0CEC
:10155000D8B27B68DB681B0E00930346034815F086
:101560004FFB00BF1837BD4680BD00BF6C810170C6
:1015700080B584B000AF786039600023FB6019E06B
:101580007B682433184614F025FA7B682433184608
:1015900011F0C6FA0346002B14BF01230023DBB26F
:1015A000002B01D001230AE00A2009F0ABFCFB6804
:1015B0000A33FB60FA683B689A42E1D3002318467D
:1015C0001037BD4680BD000080B586B000AF7860A2
:1015D0007B681B7A022B2ED17B689B691946594880
:1015E00015F00EFB7B689B6919467868FFF7C0FF12
:1015F000034683F00103DBB2002B12D0524815F0F2
:101600006FFB7968514813F0FFFF38613B69002B8D
:1016100003D039694E4815F0F3FA642009F072FCE2
:1016200009E07B682833184612F00EFA0346194683
:10163000484815F0E5FA0023FB750123BB757B686C
:101640002433184614F0C6F97B681B7A012B1ED18F
:10165000FB7D83F00103DBB2002B18D07B682433C1
:10166000184611F05DFA0346002B14BF0123002336
:10167000DBB2002B0BD07B682833184612F0E4F95C
:1016800003461946334815F0BBFA0123FB757B6806
:101690005B681B6810331B687A685268104698476D
:1016A0000346FB73BB7D002B10D0FB7B83F0010353
:1016B000DBB2002B0AD0284815F012FB79682748C6
:1016C00013F0A2FF0023FB750023BB75BB7D83F0E5
:1016D0000103DBB2002B30D0FB7B002B2DD0204848
:1016E00015F0FEFA79681F4813F08EFF7B681B7AAD
:1016F000022B20D17B689B6919467868FFF738FF79
:10170000034683F00103DBB2002B0AD00E4815F02C
:10171000E7FA79680D4813F077FF642009F0F2FBCF
:1017200009E07B682833184612F08EF90346194603
:10173000084815F065FA0123BB750A2009F0E2FBA1
:101740007DE700BF98810170D08101703112007077
:101750001082017050820170748201704B1200700F
:10176000948201709312007080B483B000AF7860EF
:101770007B6893F82030DBB2002B06D07B682833DF
:101780001B68002B01D0012300E0002318460C3712
:10179000BD465DF8047B704780B483B000AF7860CD
:1017A0007B6828331B6818460C37BD465DF8047B00
:1017B000704780B483B000AF78607B684A331846C6
:1017C0000C37BD465DF8047B704780B489B000AF2C
:1017D000F860B9601346FB80FB683B61FB88FB83C4
:1017E0000023BB6128E03A69BB6913441B781BB234
:1017F0001B021AB2B7F91E3053401BB2FB83002301
:101800007B6113E0B7F91E30002B09DAB7F91E30FF
:101810005B001AB241F2210353401BB2FB8302E08A
:10182000FB8B5B00FB837B6901337B617B69072B4F
:10183000E8DDBB690133BB61BA69BB689A42D2D3A8
:10184000FB8B18462437BD465DF8047B704780B596
:1018500084B000AFF8607B600B467B8113463B8110
:10186000FB68002242F045021A70002242F050024A
:101870005A70FB6801229A70FB683A7FDA70FB6845
:101880007A899A80FB683A89DA80FB687A689A607C
:10189000FB683A8B9A8197F82030002B11D07B6A35
:1018A000002B0ED03B8B002B0BD03B8B4FF6FF72E7
:1018B0001946786AFFF789FF03461A46FB68DA8102
:1018C00005E0FB6800229A730022DA7300BF00BFB4
:1018D0001037BD4680BD80B483B000AF78603960FA
:1018E0003B680F2B01D8052318E07B681B889BB24F
:1018F00045F24502934201D001230FE07B689B78BB
:10190000012B01D0022309E07B689B899BB2103335
:101910003A689A4201D2052300E0002318460C37AA
:10192000BD465DF8047B704780B584B000AFF860B9
:10193000B9603B601346FB80FB681846FFF7DEFC8E
:10194000114AFB681A60FB68BA685A60FB68FA883B
:101950001A81FB683A68DA60FB6800221A61FB684A
:1019600002221A75FB68DB68002B08D0FB68DB6875
:101970001B6808331B68FA68D26810469847FB68F2
:1019800018461037BD4680BD348D017080B588B0D3
:1019900000AF78603E4815F0A3F902E0642009F03A
:1019A000B1FA7B685B681846FFF7DEFE034683F0FA
:1019B0000103DBB2002BF1D14CF25031354815F068
:1019C0001FF900220021202012F02CFAB861BB6917
:1019D000002B06D1304815F083F9002009F01EFADB
:1019E00052E04CF250322D49B86912F0B1FA7861E8
:1019F0007B69002B0AD07969294815F001F9B8698B
:101A000012F074FA002009F009FA3DE0BB69FA22ED
:101A10001A6209F055FDF8617B685B681846FFF7AC
:101A2000A3FE034683F00103DBB2002B03D0C820E2
:101A300009F068FAF0E709F043FD38613A69FB699B
:101A4000D31AB3F57A7F05D3B969786800F02AF81C
:101A50003B69FB610023FB6007F10C031946B86981
:101A600012F076FC78617B69002BD5D1FB68002BE6
:101A7000D2D0FB681A46B969786800F0A1F8FB6813
:101A8000184613F0C3FCC7E72037BD4680BD00BF32
:101A9000B8820170F08201702C8301709CBA0170D1
:101AA0006883017080B594B004AF7860396007F145
:101AB0001003BB6307F1100310337B6309F000FDD3
:101AC00002467B6B1A607B6B00221A7100225A71EE
:101AD000002242F001029A710022DA717B681A7DBD
:101AE0007B6B1A727B681B7D022B01D1012200E007
:101AF00000227B6B5A727B6B002262F01B029A728F
:101B0000002242F00C02DA72FA23FB877B68DB6862
:101B1000002B17D00023BB607B68DB681B680C338D
:101B20001B687A68D26807F1080110469847034697
:101B3000002B07D0BB689BB21A46920013445B008F
:101B40009BB2FB877B6BFA8F9A817B6B00229A7327
:101B50000022DA737B6819897B681B695A1C7B68D1
:101B60001A617B681B690022039200220292002204
:101B70000192102200920122B86BFFF768FE13F069
:101B800039FC38633B6B002B15D007F11003202282
:101B90001946386B13F04CFC4FF0FF33FB6007F134
:101BA0000C024CF25033396B386812F01BFA386B68
:101BB00013F02CFC00E000BF4037BD4680BD0000A4
:101BC00080B5A0B004AFF860B9607A600023FB6410
:101BD0000023A7F84A3007F14A0207F14C031946DF
:101BE000786813F047FCB7F84A300F2B40F2D280E8
:101BF000FB6CFB66B7F84A301946F86EFFF76BFED0
:101C00000346002B14BF01230023DBB2002B40F05E
:101C1000C380FB6EDB889BB2022B40F0C280FB6E60
:101C20009B899BB2072B40F2B980FB6C1033BB66DB
:101C3000BB6E9B889BB2002B07D0BB6E9B889AB271
:101C4000FB681B899A4240F0AB8007F110037B666A
:101C500007F1100310333B66BB6E1A683B6E1A60C7
:101C6000FB681A893B6E9A80FB681B7D1A463B6EA7
:101C7000DA80FB685B681846FFF78EFD02463B6E14
:101C80009A60FB685B681846FFF793FDF865FB6D8B
:101C9000002B07D03B6E0C330622F96D184615F069
:101CA000B2FA06E03B6E0C3306220021184615F00E
:101CB00011FA3B6E00221A7500225A75002242F07A
:101CC00001029A750022DA7509F0FAFB02463B6EB2
:101CD0009A613B6E00221A7700225A7700229A7787
:101CE0000022DA773B6E002283F82020002283F85E
:101CF0002120002283F82220002283F823203B6E3B
:101D0000002283F82420002283F82520002283F873
:101D10002620002283F82720FB681989FB681B69AD
:101D20005A1CFB681A61FB681B690022039200229F
:101D3000029202220192282200920322786EFFF77B
:101D400086FD13F057FBB865BB6D002B29D007F15A
:101D5000100338221946B86D13F06AFB7B6808330C
:101D60007B657B689B89A7F85230B7F852307A6D53
:101D7000B96DB86812F036F9B86D13F047FB786D9D
:101D800011F062FE0146B7F852301A46064814F0C8
:101D900037FF06E000BF04E000BF02E000BF00E044
:101DA00000BF7037BD4680BD9C83017080B586B092
:101DB00000AFF860B9601346FB80FB681846FFF778
:101DC0009DFA1F4AFB681A60FB68BA685A60FB6894
:101DD000FA881A81FB680022DA64FB68012283F822
:101DE0005020FB684CF25132A3F85820FB680022C7
:101DF000DA65FB6800221A66FB6800225A66FB68F7
:101E00004FF0FF325A6500237B6110E0FA687B696E
:101E10000133DB00134400225A60FA687B69013306
:101E2000DB00134400229A607B6901337B617B698C
:101E3000072BEBD9FB6818461837BD4680BD00BF9D
:101E4000488D017080B584B000AFF860B9603B6028
:101E50001346FB80FB881A46B968F868FFF7A6FFAF
:101E60003968F86800F006F8FB6818461037BD4678
:101E700080BD0000B0B588B002AF786039607B6883
:101E8000DB6C072B05D90821474814F0B9FE002365
:101E900086E000237B612DE07A687B690133DB00FB
:101EA00013445B683A689A421AD07A687B690133B6
:101EB000DB0013445B681B6808331A6879687B6928
:101EC0000133DB000B445B681846904704463B68CF
:101ED0001B6808331B683868984703469C4201D149
:101EE000012300E00023002B01D0002358E07B6990
:101EF00001337B617B68DB6C7A699A42CCD37B6867
:101F0000DB6C7A680133DB0013443A685A607B6803
:101F1000DC6C09F0D5FA01467A68631CDB001344D7
:101F200099607B68DB6C5A1C7B68DA6407F10803F4
:101F300000221A601A713B681B6808331B683868F6
:101F4000984738613B69DBB23B723B691B0ADBB2E5
:101F50007B723B691B0CDBB2BB723B691B0EDBB2B5
:101F6000FB723B681B680C331B6838689847044653
:101F70003B681B6810331B683868984703461D464A
:101F80003B681B6818331B6838689847034607F19D
:101F9000080200932B462146044814F031FE012329
:101FA00018461837BD46B0BDCC830170108401704F
:101FB00080B584B000AF786039600023FB602BE00F
:101FC0007A68FB680133DB0013445B68002B16D092
:101FD0007A68FB680133DB0013445B681B680833D5
:101FE0001A687968FB680133DB000B445B681846AC
:101FF000904702463B68934201D1012300E0002351
:10200000002B06D07A68FB680133DB0013445B6861
:1020100008E0FB680133FB607B68DB6CFA689A427E
:10202000CED3002318461037BD4680BD2DE9F041C0
:1020300088B002AFF860B9603B601346FB80FB6874
:10204000BA6812685A65FB68FA88A3F858203B689A
:10205000002B51D03968F868FFF7AAFF38613B6957
:10206000002B00F0A8803B691B6830331B680121FE
:10207000386998473B8E002B07D03B691B681433A7
:102080001B683A8E114638699847BB8E002B0AD0E0
:102090003B8E642B07D93B691B681C331B68BA8EC7
:1020A0001146386998473B691B680C331B683869CF
:1020B00098470446FB685433184611F0C5FC0546A2
:1020C000FB68B3F8583098463B691B6810331B68AF
:1020D0003869984703461E463B691B6818331B68DE
:1020E0003869984703460193009643462A4621469D
:1020F000354814F085FD5EE000237B6149E0FA6815
:102100007B690133DB0013445B68002B3ED0FA6827
:102110007B690133DB0013445B681B6830331A684A
:10212000F9687B690133DB000B445B6801211846C9
:1021300090473B8E002B11D0FA687B690133DB009E
:1021400013445B681B6814331A68F9687B690133B0
:10215000DB000B445B68398E18469047BB8E002B22
:1021600014D03B8E642B11D9FA687B690133DB00F4
:1021700013445B681B681C331A68F9687B69013378
:10218000DB000B445B68B98E184690477B690133CE
:102190007B61FB68DB6C7A699A42B0D3FB6854338D
:1021A000184611F051FC0146FB68B3F858301A4646
:1021B000064814F025FDFB68012283F8502000BF7B
:1021C0001837BD46BDE8F08164840170B4840170A5
:1021D00080B584B000AF786039603B68002B1AD0BE
:1021E00039687868FFF7E4FEB860BB68002B43D01D
:1021F000BB681B6830331B680021B8689847BB6810
:102200001B680C331B68B8689847034619461C487E
:1022100014F0F6FC30E00023FB601CE07A68FB68F9
:102220000133DB0013445B68002B11D07A68FB6834
:102230000133DB0013445B681B6830331A6879682C
:10224000FB680133DB000B445B68002118469047B4
:10225000FB680133FB607B68DB6CFA689A42DDD374
:102260007B68002283F850207B68196E7B685B6E68
:102270001A46044814F0C4FC00BF1037BD4680BDA8
:10228000EC8401701C8501702DE9B04F8CB000AF5B
:102290007860964814F024FD02E0642008F032FED5
:1022A0007B685B681846FFF75FFA034683F001031B
:1022B000DBB2002BF1D17B68B3F8583019468C485B
:1022C00014F09EFC0023FB620FE00022002120207E
:1022D00011F0A8FDF862FB6A002B06D1854814F0C6
:1022E000FFFC4FF4FA7008F00DFEFB6A002BECD0F7
:1022F00009F0E6F838610023BB6209E07A68BB6A3E
:102300000133DB0013443A699A60BB6A0133BB6254
:102310007B68DB6CBA6A9A42F0D37B6893F85030E2
:10232000DBB283F00103DBB2002B0ED17B685B686C
:102330001846FFF719FA034683F00103DBB2002BBE
:1023400003D17B68DB6C002B01D1012300E000236B
:10235000002B18D0322008F0D5FD09F0B1F8386113
:1023600000237B6209E07A687B6A0133DB00134457
:102370003A699A607B6A01337B627B68DB6C7A6ABC
:102380009A42F0D3B0E009F09BF8386100233B6239
:10239000A1E03B6A0133DB007A6813440433FB603D
:1023A000FB681B68002B0ED0FB681B681B682C3376
:1023B0001B68FA68126810469847034683F00103C9
:1023C000DBB2002B01D0012300E00023002B7ED1E3
:1023D000FB681B681B6810331B68FA68126810469C
:1023E00098470346FB83FB681B681B6818331B6810
:1023F000FA681268104698470346BB83FB8B002B94
:1024000001D10123FB83BB8B002B01D10123BB83B3
:10241000BB8B4FF47A7203FB02F2FB8BB2FBF3F33C
:10242000BB61BB69002B01D10123BB61BB690022E9
:102430009846914642464B464FF000004FF000014F
:10244000590141EAD261500102460B46B2EB080441
:1024500063EB09054FF000024FF00003AB0043EAC5
:102460009473A20014461D4614EB080A45EB090BB1
:102470004FF000024FF000034FEACB0343EA5A73D8
:102480004FEACA0292469B46504659464FF47A722A
:102490004FF00003FDF70CFF02460B4613467B612D
:1024A0007B69002B01D101237B61FB685B683A6982
:1024B000D31A7A699A420BD8FB681B681A46F96AE4
:1024C000786800F019F8FB683A695A6000E000BFCC
:1024D0003B6A01333B627B68DB6C3A6A9A42FFF4E9
:1024E00058AF012008F00EFD17E700BF68850170A6
:1024F000A0850170F08501702DE9B04F96B004AF52
:10250000F860B9607A604FF4B8633B647B681B681D
:1025100010331B68786898470346FB877B681B6805
:1025200020331B68786898470346BB877B681B6825
:1025300024331B687868984703467B877B681B6851
:1025400028331B687868984778637B6B002B00F012
:10255000C9807B681B6818331B68786898470346F6
:102560007B867B8E642B04D87B8E002B01D07B8EE8
:1025700000E00123A7F8463040F29C527B6BB2FB8F
:10258000F3F3FB62B7F84630FA6A9A4202D2FB6A6A
:10259000A7F84630574BBB62574B7B62574B3B62A9
:1025A0007B681B6834331B68B7F84620396A786843
:1025B0009847F861FB69002B00F09680FB699AB29E
:1025C0007B6B9BB212FB03F37B837B8B14333B83CC
:1025D00008F076FF034600229846914642464B4655
:1025E0004FF000004FF00001590141EAD261500163
:1025F00002460B46B2EB080463EB09054FF00002FC
:102600004FF00003AB0043EA9473A20014461D464A
:1026100014EB080A45EB090B4FF000024FF00003E2
:102620004FEACB0343EA5A734FEACA0292469B46EB
:1026300052465B46796A0A604B607B681B680833C8
:102640001B687868984702467B6A9A607B6AFA8FB3
:102650009A81FB699AB27B6ADA817B6ABA8F1A82A5
:102660007B6A7A8F5A82FB681989FB68DB6D5A1C7A
:10267000FB68DA65FB68DA6D00230393002302939D
:10268000082301933B8B009313464FF40072B86A02
:10269000FFF7DDF812F0AEFE78617B69002B24D0E5
:1026A0003B8B10337B827B8A1A461249786912F081
:1026B000BFFEFB6803F15402FB68B3F85830796938
:1026C000B86811F08FFC786912F0A0FEFB681B6EF1
:1026D0005A1CFB681A66FB685A6EFB691A44FB6851
:1026E0005A6602E000BF00E000BF4837BD46BDE8C3
:1026F000B08F00BF740300248403002498030024D7
:1027000080B483B000AF78600B46FB707B68FA78CA
:102710001A7500BF0C37BD465DF8047B704780B466
:1027200083B000AF78607B681B7D18460C37BD46D0
:102730005DF8047B704780B483B000AF78607B683D
:1027400093F85030DBB218460C37BD465DF8047B79
:10275000704780B483B000AF78607B68DB6C18464C
:102760000C37BD465DF8047B704780B483B000AF82
:10277000786039607B68DB6C3A689A4206D27A6886
:102780003B680133DB0013445B6800E0002318461C
:102790000C37BD465DF8047B704780B400AF00BFC6
:1027A000BD465DF8047B704780B584B000AFF8602B
:1027B000B9607A603B60FB681846FEF79FFD0B4AE4
:1027C000FB681A60FB68BA685A60FB687A689A60AE
:1027D000FB683A68DA60FB683A8B1A82FB68002271
:1027E0005A61FB6818461037BD4680BD5C8D01708C
:1027F00080B588B000AF7860444814F071FA02E008
:10280000642008F07FFB7B685B681846FEF7ACFF2E
:10281000034683F00103DBB2002BF1D14CF25231BD
:102820003B4814F0EDF900220021102011F0FAFAD3
:10283000F861FB69002B06D1364814F051FA0020EC
:1028400008F0ECFA5EE04CF252323349F86911F0CC
:102850007FFBB861BB69002B0AD0B9692F4814F01F
:10286000CFF9F86911F042FB002008F0D7FA49E0EF
:10287000FF21F86911F08AFBB861BB69002B0AD00F
:10288000B969274814F0BCF9F86911F02FFB002052
:1028900008F0C4FA36E000237B6107F114031946FF
:1028A000F86911F039FCB861BB69002B26D17B694E
:1028B000002B23D0786907F10E0207F110010023E5
:1028C00011F022FB07F11003184611F0BDF8034682
:1028D000FA891946134814F093F97B691946786808
:1028E00000F024F87B69184611F004FC7B69184657
:1028F00011F0FCFA0C4814F0F3F902E0642008F03F
:1029000001FBC8E72037BD4680BD00BF308601709F
:10291000648601709C8601709CBA0170D08601703B
:10292000048701703C8701707087017080B58CB09E
:1029300002AF7860396007F1160207F11801002331
:10294000386811F0E1FA00233B6107F110031946E2
:10295000386811F0FDFC78627B6A002B3CD13B6942
:10296000002B39D00023FB6000237B813B6907F1FA
:102970000A0207F10C01184612F07CFD7B890F2B2F
:1029800025D9FB683B627B891946386AFEF7A3FFAD
:102990000346002B0CBF01230023DBB2002B0CD01D
:1029A000FB681033FB6107F118030093FB693A6A77
:1029B0003968786800F014F809E03B6ADB889AB25D
:1029C0000023009301233968786800F07BFB3B69A2
:1029D000184612F01BFDB6E700BF2837BD4680BD84
:1029E00090B5E1B004AF07F5B874A4F5B2742060F7
:1029F00007F5B870A0F5B470016007F5B871A1F5DE
:102A0000B6710A6007F5B872A2F5B872136007F5DF
:102A1000B873A3F5B6731B689A79DB791B0213436D
:102A2000A7F85E31B7F85E31B3F5F87F00F00383A5
:102A3000B7F85E31B3F5F87F00F21983B7F85E316D
:102A4000B3F5907F00F0D381B7F85E31B3F5907F96
:102A500000F20D83B7F85E3140F21112934200F09C
:102A60006981B7F85E31B3F5897F80F00083B7F8EC
:102A70005E31B3F5807F06D0B7F85E31B3F5887F5D
:102A800000F0C680F3E207F11403C7F8343107F110
:102A900014031033C7F83031D7F8303100221A70E0
:102AA00000225A7000229A700022DA7007F5B8737B
:102AB000A3F5B2731B681A8AD7F830319A8007F5EC
:102AC000B873A3F5B2731B689B681846FFF727FE1F
:102AD00003461A46D7F83031DA8007F5B873A3F504
:102AE000B2731B685B681846FEF756FE0246D7F8BD
:102AF00030319A6007F5B873A3F5B2731B685B6851
:102B00001846FEF756FEC7F82C01D7F82C31002BDB
:102B100009D0D7F830310C330622D7F82C111846DB
:102B200014F071FB07E0D7F830310C330622002196
:102B3000184614F0CFFAD7F8303100221A75002267
:102B40005A75002242F001029A750022DA7508F0E7
:102B5000B7FC0246D7F830319A61D7F830310022FD
:102B60001A7700225A7700229A770022DA77D7F86C
:102B70003031002283F82020002283F82120002217
:102B800083F82220002283F82320D7F83031002256
:102B900083F82420002283F82520002283F82620B1
:102BA000002283F8272007F5B873A3F5B2731B68DA
:102BB000198A07F5B873A3F5B2731B685B695A1CD1
:102BC00007F5B873A3F5B2731B685A6107F5B873BC
:102BD000A3F5B2731B685B69002203920022029284
:102BE000022201922822009240F20112D7F8340109
:102BF000FEF72DFE07F1140107F5B873A3F5B470C5
:102C00000023009301233822006811F067FA50E294
:102C10000023C7F86C310023A7F86A310023A7F816
:102C2000683107F5B873A3F5B6731B689B899BB22F
:102C3000072B45D907F5B873A3F5B8731B68C7F818
:102C40003831D7F838315B68642B04D9D7F838317C
:102C50005B68C7F86C31D7F838311B889BB2002B02
:102C600005D0D7F838311B889BB2C7F86C31D7F83C
:102C700038315B889BB2002B0FD0D7F838315B8896
:102C80009BB242F21072934207D0D7F838319A784B
:102C9000DB781B021343A7F86A31D7F86C31002B9D
:102CA0000ED0D7F838315B68002B09D0D7F838310F
:102CB0005B68642B04D8D7F838315B68A7F86831B3
:102CC0004FF0FF33C7F8283107F5B873A3F5B27397
:102CD0001B68D86807F59471B7F868310193B7F8A5
:102CE0006A310093D7F86C314CF25132FFF79EF9FC
:102CF00007F5B873A3F5B2731B689B6802211846E9
:102D0000FFF7FEFC07F5B873A3F5B6731B68DB8805
:102D10009AB2B7F86A3107F5B871A1F5B47107F541
:102D2000B870A0F5B270009300230968006800F045
:102D3000C9F9BEE10023C7F8643107F5B873A3F5FC
:102D4000B6731B689B899BB2072B15D907F5B8731F
:102D5000A3F5B8731B68C7F83C31D7F83C315B6802
:102D6000642B03D9D7F83C315B6803E0D7F83C31DA
:102D70001B889BB2C7F8643107F5B873A3F5B2732B
:102D80001B68DB68D7F864111846FFF721FA07F5CE
:102D9000B873A3F5B2731B68DB681846FFF7CBFC6A
:102DA000034683F00103DBB2002B09D007F5B873AB
:102DB000A3F5B2731B689B6801211846FFF7A0FCBE
:102DC00007F5B873A3F5B6731B68DB889AB207F5ED
:102DD000B873A3F5B47107F5B873A3F5B270002307
:102DE000009300230968006800F06CF961E107F5C1
:102DF000B873A3F5B2731B68DB681846FFF7A9FC2C
:102E0000C7F85801D7F858319BB25B019BB2043325
:102E1000A7F8563107F11403C7F8503107F114032E
:102E20001033C7F84C3107F114031433C7F8483195
:102E3000D7F858319AB2D7F84C311A80D7F84C31BC
:102E400000229A700022DA700023C7F86031A9E0EE
:102E500007F5B873A3F5B2731B68DB68D7F8601188
:102E60001846FFF782FCC7F84001D7F84031002B25
:102E700000F09380D7F840311B6808331B68D7F8FF
:102E800060215201D7F848118C18D7F840019847B3
:102E900003462360D7F860315B01D7F8482113441B
:102EA000043310220021184614F014F9D7F86031C9
:102EB0005B01D7F8482113441C1DD7F840311B682B
:102EC0000C331B68D7F84001984703460F22194678
:102ED000204614F007F9D7F840311B6810331B68FF
:102EE000D7F860215201D7F848118C18D7F8400163
:102EF00098470346A382D7F840311B6818331B68F4
:102F0000D7F860215201D7F848118C18D7F8400142
:102F100098470346E382D7F840311B6820331B688B
:102F2000D7F860215201D7F848118C18D7F8400122
:102F3000984703462383D7F840311B6824331B6826
:102F4000D7F860215201D7F848118C18D7F8400102
:102F5000984703466383D7F840311B682C331B68BE
:102F6000D7F8400198470346002B01D0012100E02B
:102F70000021D7F860315B01D7F8482113440A4695
:102F80001A77D7F860315B01D7F8482113441D3315
:102F900003220021184614F09DF8D7F86031013360
:102FA000C7F86031D7F86021D7F858319A42FFF45A
:102FB0004FAF07F5B873A3F5B2731B68198A07F50D
:102FC000B873A3F5B2731B685B695A1C07F5B87335
:102FD000A3F5B2731B685A6107F5B873A3F5B27312
:102FE0001B685A6900230393002302930223019371
:102FF000B7F856310093134640F22112D7F850012A
:10300000FEF725FCB7F856311033A7F84631B7F86C
:10301000462107F1140107F5B873A3F5B470002336
:1030200000930123006811F059F8D7F8581123488C
:1030300013F0E6FD3DE007F5B873A3F5B6731B6822
:10304000DB889AB207F5B873A3F5B47107F5B873C6
:10305000A3F5B2700023009300230968006800F014
:1030600031F8C82007F04EFFFFF797FB21E007F586
:10307000B873A3F5B6731B68DB889BB2194610487A
:1030800013F0BEFD07F5B873A3F5B6731B68DB88B4
:103090009AB207F5B873A3F5B47107F5B873A3F541
:1030A000B2700023009304230968006800F00AF856
:1030B00000BF00BF07F5BA77BD4690BD9C87017081
:1030C000D487017080B594B004AFF860B960114640
:1030D0001A460B46FB801346BB8007F11403BB6303
:1030E00007F1140310337B637B6BFA881A807B6BC8
:1030F000BA885A807B6BBA6C5A607B6B00221A725A
:1031000000225A7200229A720022DA72BB88002BC7
:1031100002D14FF4FF7301E040F2FF137B860223DC
:1031200087F83F30BB88002B05D097F83F3043F03D
:10313000040387F83F30FB68198AFB685B695A1CF7
:10314000FB685A61FB6858697A8E00230393002359
:10315000029397F83F3001930C2300930346B86B1A
:10316000FEF775FB07F114010023009301231C22D5
:10317000B86810F0B3FF00BF4037BD4680BD000007
:1031800080B584B000AFF860B9607A60FB6818461B
:10319000FEF7B4F8064AFB681A60FB68BA685A6022
:1031A000FB687A689A60FB6818461037BD4680BD98
:1031B000708D017080B584B000AF78600023FB7320
:1031C0007B685B681B6810331B687A68526810461E
:1031D0009847FB7B83F00103FB73FB7B002B04D040
:1031E0004FF47A7002F002F8EAE74FF47A6001F0E7
:1031F000FDFFE5E780B400AF00BFBD465DF8047B8E
:10320000704780B586B000AF3B1D00221A605A603F
:103210009A60DA6002F044FA0023FB7506E0FB7D59
:10322000184602F05BFAFB7D0133FB75FB7D0F2B2B
:10323000F5D901233B7100237B710023BB601F2361
:103240003B7387237B730023BB730023FB73012332
:103250003B7400237B740023BB740023FB743B1D71
:10326000184602F051FA01237B714FF0E043BB6036
:103270001A233B7300237B730123BB730323FB736C
:1032800000233B7400237B740123BB740123FB7474
:103290003B1D184602F038FA02237B714FF0405371
:1032A000BB600E233B7300237B730023BB7303239C
:1032B000FB7301233B7400237B740023BB74002346
:1032C000FB743B1D184602F01FFA042002F0C6F9F9
:1032D00000BF1837BD4680BD80B588B000AF1B4B1E
:1032E000D3F84831194A43F48023C2F84831174BC8
:1032F000D3F84831BB60BB68144BD3F84031134A54
:1033000043F00803C2F84031104BD3F840317B60E2
:103310007B6807F10C0300221A605A609A60DA6039
:103320001A614FF44073FB6002233B6100237B6111
:103330000023BB610723FB6107F10C031946044816
:1033400004F088F900BF2037BD4680BD0044025814
:10335000000C025880B584B000AFFFF752FF434B1A
:103360005B6903F40033002B14BF01230023DBB29D
:10337000002B1BD1BFF34F8F00BFBFF36F8F00BF78
:103380003A4B0022C3F85022BFF34F8F00BFBFF368
:103390006F8F00BF354B5B69344A43F40033536190
:1033A000BFF34F8F00BFBFF36F8F00E000BF2F4B05
:1033B0005B6903F48033002B14BF01230023DBB2CD
:1033C000002B42D1294B0022C3F88420BFF34F8F3A
:1033D00000BF264BD3F88030FB60FB685B0BC3F368
:1033E0000E03BB60FB68DB08C3F309037B60BB68AB
:1033F0005A0143F6E07313407A6892071B4913435E
:10340000C1F860327B685A1E7A60002B14BF01231A
:103410000023DBB2002BEAD1BB685A1EBA60002B36
:1034200014BF01230023DBB2002BDBD1BFF34F8F8E
:1034300000BF0E4B5B690D4A43F480335361BFF309
:103440004F8F00BFBFF36F8F00E000BF01F015FF8B
:10345000FFF7D0FE00F0CCFAFFF73EFF044800F083
:1034600053FD00BF1037BD4680BD00BF00ED00E03A
:103470003409002480B400AF024B1846BD465DF805
:10348000047B70473409002480B586B000AF134B2D
:10349000D3F84031114A43F00803C2F840310F4BD2
:1034A000D3F840313B603B683B1D00221A605A60F4
:1034B0009A60DA601A614FF480637B600123BB601D
:1034C0000023FB6000233B613B1D1946044804F0C8
:1034D000C1F8044B18461837BD4680BD0044025859
:1034E000000C0258CC09002480B400AF024B1846EF
:1034F000BD465DF8047B7047D809002480B483B0D2
:1035000000AF7860044A7B681A607B6818460C3705
:10351000BD465DF8047B7047848D017080B582B034
:1035200000AF78607868FFF7E9FF0421786813F04E
:103530002AF87B6818460837BD4680BD80B582B042
:1035400000AF7860054A7B681A607B681846FFF711
:10355000D5FF7B6818460837BD4680BDDC8D0170FD
:1035600080B582B000AF78607868FFF7E7FF9821F8
:10357000786813F008F87B6818460837BD4680BDA8
:1035800080B483B000AF7860044A7B681A607B68BF
:1035900018460C37BD465DF8047B70479C8D017062
:1035A00080B582B000AF78607868FFF7E9FF04214A
:1035B000786812F0E8FF7B6818460837BD4680BD82
:1035C00080B582B000AF7860054A7B681A607B687E
:1035D0001846FFF7D5FF7B6818460837BD4680BD03
:1035E000BC8D017080B582B000AF78607868FFF75D
:1035F000E7FF0C21786812F0C6FF7B681846083791
:10360000BD4680BD80B500AF4FF4E1320E490F4892
:1036100000F03EFC0E4A0F490C4812F0AFFF4FF489
:1036200080620D490D4800F0C1FB094A0C490B4866
:1036300012F0A4FF0B4800F0DDFC054A0A490948D6
:1036400012F09CFF00BF80BD0048004034090024F8
:10365000000000243D350070000C0258CC09002405
:10366000C1350070D80900243140007080B500AF2A
:10367000FFF7C8FF80BD80B400AF00BFBD465DF856
:10368000047B704780B5DAB000AF07F5B473A3F5DB
:10369000B273186007F5B473A3F5B2731B681B68A7
:1036A0008A4A934240F00C8107F5AA7300221A60FF
:1036B0005A609A60DA601A6107F5B473A3F5B073C3
:1036C000184690231A46002113F004FD07F19803D1
:1036D0009C220021184613F0FDFC0023C7F8983007
:1036E0000223C7F80C310023C7F810310423C7F8B0
:1036F00014311923C7F818310223C7F81C310223EB
:10370000C7F820310223C7F824310823C7F828312D
:103710000223C7F82C310023C7F8303107F1980392
:10372000184604F005FA07F5B473A3F5B0714FF429
:10373000C0724FF00003C1E9002307F5B473A3F58D
:10374000B07300225A6207F5B473A3F5B0734FF457
:1037500080229A6207F10803184605F093F95C4B42
:10376000D3F838315A4A43F40043C2F83831584B41
:10377000D3F83831C7F85031D7F85031544BD3F81B
:103780003831534A43F48033C2F83831504BD3F8C0
:103790003831C7F84C31D7F84C314D4BD3F838316C
:1037A0004B4A43F40033C2F83831494BD3F838312F
:1037B000C7F84831D7F84831454BD3F84031444A2F
:1037C00043F00103C2F84031414BD3F84031C7F810
:1037D0004431D7F844313E4BD3F840313C4A43F0B2
:1037E0000203C2F840313A4BD3F84031C7F84031B8
:1037F000D7F84031364BD3F84031354A43F008030F
:10380000C2F84031324BD3F84031C7F83C31D7F8D9
:103810003C312F4BD3F840312D4A43F04003C2F8DE
:1038200040312B4BD3F84031C7F83831D7F8383115
:10383000274BD3F85431264A43F00203C2F85431DF
:10384000234BD3F85431C7F83431D7F8343110232F
:10385000C7F854310223C7F858310023C7F85C3148
:103860000223C7F860310B23C7F8643107F5AA7348
:103870001946184803F0EEFE4023C7F8543107F507
:10388000AA731946144803F0E5FE43F67003C7F81F
:10389000543107F5AA731946104803F0DBFE842360
:1038A000C7F8543107F5AA7319460D4803F0D2FE44
:1038B000002205215C2001F08EFE5C2001F0A5FEB7
:1038C00000BF07F5B477BD4680BD00BF0080024051
:1038D00000440258000C0258000402580018025814
:1038E0000000025880B582B000AF78607B681B682A
:1038F000194A93422BD1194BD3F83831174A23F484
:103900000043C2F83831154BD3F83831134A23F449
:103910008033C2F83831114BD3F838310F4A23F4D1
:103920000033C2F8383110210D4803F0F3FF402175
:103930000C4803F0EFFF43F670010B4803F0EAFF79
:1039400084210A4803F0E6FF5C2001F06CFE00BF12
:103950000837BD4680BD00BF0080024000440258C9
:10396000000C0258000402580018025800000258C7
:103970000D48854600F026F80C480D490D4A0023F5
:1039800002E0D458C4500433C4188C42F9D30A4A14
:103990000A4C002301E013600432A242FBD313F06F
:1039A0000BFCFDF7FDF8FEE70000012000000024FD
:1039B00090000024ACBB0170900000245C3E032406
:1039C000FEE7000080B400AF074B084A9A60064B40
:1039D000D3F88830044A43F47003C2F8883000BF3B
:1039E000BD465DF8047B704700ED00E0000000700C
:1039F00080B489B000AF924B1B6903F03803182BD9
:103A000000F2FB8001A252F823F000BF713A00706F
:103A1000FB3B0070FB3B0070FB3B0070FB3B00700E
:103A2000FB3B0070FB3B0070FB3B0070853A007075
:103A3000FB3B0070FB3B0070FB3B0070FB3B0070EE
:103A4000FB3B0070FB3B0070FB3B00708B3A00704F
:103A5000FB3B0070FB3B0070FB3B0070FB3B0070CE
:103A6000FB3B0070FB3B0070FB3B0070913A007029
:103A7000734B1B68DB0803F00303724A22FA03F35B
:103A8000FB61C4E0704BFB61C1E0704BFB61BEE0C9
:103A90006B4B9B6A03F003033B61694B9B6A1B09F9
:103AA00003F03F03FB60664BDB6A03F00103002B6E
:103AB0000BD0634B5B6BDB08C3F30C0307EE903A50
:103AC000F8EE677AC7ED067A02E04FF00003BB61BB
:103AD000FB68002B00F08E803B69012B24D03B69F2
:103AE000022B43D1FB6807EE903AF8EE677ADFEDE0
:103AF000586A86EEA77A524B1B6BC3F3080307EE96
:103B0000903AF8EE676A97ED066ADFED525AC6EE14
:103B1000257A76EEA77AF7EE006A77EEA67A67EE58
:103B2000277AC7ED057A4FE0FB6807EE903AF8EE8A
:103B3000677ADFED496A86EEA77A414B1B6BC3F3C8
:103B4000080307EE903AF8EE676A97ED066ADFED34
:103B5000415AC6EE257A76EEA77AF7EE006A77EE3E
:103B6000A67A67EE277AC7ED057A2DE0344B1B68FD
:103B7000DB0803F00303334A22FA03F3BB60BB689C
:103B800007EE903AF8EE676AFB6807EE903AF8EEB7
:103B9000677A86EEA77A2A4B1B6BC3F3080307EEFE
:103BA000903AF8EE676A97ED066ADFED2A5AC6EE9C
:103BB000257A76EEA77AF7EE006A77EEA67A67EEB8
:103BC000277AC7ED057A00BF1D4B1B6B5B0A03F01C
:103BD0007F0301337B607B6807EE903AB8EE677A2B
:103BE000D7ED056AC6EE877AFCEEE77A17EE903AD3
:103BF000FB610CE00023FB6109E0114B1B68DB0853
:103C000003F003030F4A22FA03F3FB6100BF0C4BDE
:103C10009B6903F00F033B603B68072B07D93B68A8
:103C2000073BFA6922FA03F30C4A136002E00B4ADD
:103C3000FB69136000BF2437BD465DF8047B704705
:103C4000004402580090D00300093D0000366E0188
:103C5000001BB74B000000460024744A1C000024DF
:103C600080B500AF01F05EFB07F0BEFF0346012BFD
:103C700014BF01230023DBB2002B01D009F03AFB73
:103C800000BF80BD80B58AB000AF78607B681B68DC
:103C90007B627B685B683B627B689B68FB617B68DF
:103CA000DB68BB617B681B697B617B685B693B612F
:103CB0007B689B69FB607B68DB69BB601C4813F019
:103CC0000FF81C4813F00CF8F9681B4812F098FF25
:103CD00039691A4812F094FF3A6A796A184812F062
:103CE0008FFFBA69F969174812F08AFFBA687969D3
:103CF000154812F085FF154B9B6A1946144812F0BF
:103D00007FFF124BDB6A1946124812F079FF0F4B06
:103D10005B6B1946104812F073FF0C4B9B6B1946F6
:103D20000E4812F06DFF0E4812F0DAFF00BFFDE7FB
:103D300008880170348801705088017060880170B3
:103D40007088017090880170B088017000ED00E00B
:103D5000D0880170E88801700089017018890170AD
:103D6000308901701EF0040F0CBFEFF30880EFF3F1
:103D70000980FFF787BF00BFFFF7F4FF00BFFFF721
:103D8000F1FF00BFFFF7EEFF00BF000080B483B07B
:103D900000AF7860044A7B681A607B6818460C376D
:103DA000BD465DF8047B70479C8D017080B584B082
:103DB00000AFF860B9601346FB80FB681846FFF758
:103DC000E5FF074AFB681A60FB68BA685A60FB683F
:103DD000FA881A81FB6818461037BD4680BD00BFBF
:103DE000BC8D017080B582B000AF78607B68586888
:103DF0007B681B890122194603F068FE00BF083763
:103E0000BD4680BD80B582B000AF78607B685868E1
:103E10007B681B890022194603F058FE00BF083753
:103E2000BD4680BD80B582B000AF78607B685A68BF
:103E30007B681B891946104603F060FE00BF0837F7
:103E4000BD4680BD80B582B000AF78607B685A689F
:103E50007B681B891946104603F020FE0346012BA0
:103E60000CBF01230023DBB218460837BD4680BDD6
:103E700080B483B000AF7860044A7B681A607B68C6
:103E800018460C37BD465DF8047B7047848D017081
:103E900080B584B000AFF860B9607A60FB681846FE
:103EA000FFF7E6FF174AFB681A60FB6804339422A9
:103EB0000021184613F00EF9FB68BA685A60FB68D7
:103EC0007A689A60FB680022DA60FB6800221A6157
:103ED000FB6800225A61FB680C229A61FB68002291
:103EE000DA61FB6800221A62FB6800225A62FB68F2
:103EF00000229A62FB680022DA62FB6818461037DB
:103F0000BD4680BDDC8D017080B582B000AF7860A9
:103F10007B680433184605F0A7FE0346002B0CBF50
:103F200001230023DBB218460837BD4680BD80B5AB
:103F300084B000AFF860B9607A60FB68181D7B68D8
:103F40009AB24FF0FF33B96805F0E8FE0346002B44
:103F50000CBF01230023DBB218461037BD4680BDDD
:103F600080B584B000AFF860B9607A60FB68181D56
:103F70007B689AB24FF0FF33B96805F068FF0346DB
:103F8000002B0CBF01230023DBB218461037BD46BF
:103F900080BD000080B483B000AF7860044A7B68C5
:103FA0001A607B6818460C37BD465DF8047B704785
:103FB000108E017080B483B000AF7860044A7B68D3
:103FC0001A607B6818460C37BD465DF8047B704765
:103FD000108E017080B582B000AF78607868FFF70E
:103FE000E9FF0421786812F0CEFA7B68184608379A
:103FF000BD4680BD80B582B000AF78607B68184652
:10400000FFF7C8FF094A7B681A607B6804332422E3
:104010000021184613F05EF87B68002283F8282000
:104020007B6818460837BD4680BD00BFF48D01701F
:1040300080B582B000AF7860074A7B681A60786804
:1040400000F0B7F87B681846FFF7B4FF7B681846A6
:104050000837BD4680BD00BFF48D017080B582B0C9
:1040600000AF78607868FFF7E3FF2C21786812F0E2
:104070008AFA7B6818460837BD4680BD80B586B091
:1040800000AF78607B6893F82830002B01D00123C3
:1040900063E0344BD3F85431324A43F08063C2F8C2
:1040A0005431304BD3F85431FB60FB687B680433E8
:1040B00024220021184613F00DF87B682A4A5A6022
:1040C0007B6800229A607B680022DA607B680022AD
:1040D0001A617B684FF470225A6104F0F1F938617B
:1040E0003B69224A934205D93B69214AA2FB03233B
:1040F0009B0C00E001237B617B697F2B01D97F232F
:104100007B617B687A699A617B680022DA617B68EF
:1041100000221A627B680433184601F03BFB034619
:10412000002B14BF01230023DBB2002B01D000239E
:1041300013E07B680433184601F0D0FB0346002BE4
:1041400014BF01230023DBB2002B01D0002304E0C5
:104150007B68012283F82820012318461837BD46C2
:1041600080BD00BF004402580068005840420F0064
:1041700083DE1B4380B582B000AF786039607B6816
:1041800093F8283083F00103DBB2002B01D0002329
:104190000BE07B6804333968184601F023FC0346C2
:1041A000002B0CBF01230023DBB218460837BD46A5
:1041B00080BD80B582B000AF78607B6893F828300E
:1041C000002B08D07B680433184601F0D4FB7B68D1
:1041D000002283F8282000BF0837BD4680BD0000BC
:1041E00080B500AF0C4B1B68002B12D00A4B1B682C
:1041F000184601F0D1FF084B1B681B68064A12687D
:10420000126803F58053D3F8603102F58052C2F88A
:10421000603100BF80BD00BF040A002480B483B0B9
:1042200000AF786000BF0C37BD465DF8047B704777
:1042300080B483B000AF786000BF0C37BD465DF836
:10424000047B704780B483B000AF786000BF0C3748
:10425000BD465DF8047B704780B483B000AF7860E2
:104260000B4B1B6840F2DC5202FB03F3094A1A4471
:104270007B681A60064B1B68013303F00303044A92
:10428000136000BF0C37BD465DF8047B704700BF6C
:10429000080A00246000003080B58CB000AFF860E0
:1042A000B9607A607B807B887A68FA61BB61BB69A0
:1042B000002B1DDDFB6903F01F02BB6913447B610A
:1042C000FB693B61BFF34F8F00BF284A3B69C2F8CF
:1042D0005C323B6920333B617B69203B7B617B69BE
:1042E000002BF2DCBFF34F8F00BFBFF36F8F00BF17
:1042F00000BF7B884FF4C1721946002009F008FB0B
:10430000B862BB6A002B05D07B881A467968B86A08
:1043100009F022FDFB687B62BB683B62BB6A002B35
:1043200020D07B6A1B68002B03D17B6ABA6A1A60B3
:1043300003E03B6A1B68BA6A1A603B6ABA6A1A6091
:104340007B6A1B68FB6209E0FB6A1A897B8813445D
:104350009AB2FB6A1A81FB6A1B68FB62FB6A002B3C
:10436000F2D100E000BF3037BD4680BD00ED00E077
:1043700080B483B000AF7860044A7B681A607B68C1
:1043800018460C37BD465DF8047B7047788E017087
:1043900080B483B000AF7860044A7B681A607B68A1
:1043A00018460C37BD465DF8047B7047788E017067
:1043B00080B582B000AF78607868FFF7E9FF04212C
:1043C000786812F0E0F87B6818460837BD4680BD73
:1043D00080B483B000AF7860044A7B681A607B6861
:1043E00018460C37BD465DF8047B7047608E01703F
:1043F00080B582B000AF78607868FFF7E9FF0421EC
:10440000786812F0C0F87B6818460837BD4680BD52
:1044100080B582B000AF7860054A7B681A607B681F
:104420001846FFF7D5FF7B6818460837BD4680BDA4
:10443000AC8E017080B582B000AF78607868FFF70D
:10444000E7FF0821786812F09EF87B681846083765
:10445000BD4680BD80B584B000AFF860B9607A60B9
:10446000FB681846FFF784FF104AFB681A60FB6878
:10447000BA68043307CA83E80700FB687A681A61E0
:10448000FB6803F1C402FB6814331946104600F0C0
:10449000F3FBFB680022C3F8CC20FB680022C3F8C2
:1044A000D020FB6818461037BD4680BD2C8E0170A9
:1044B00080B582B000AF78600A4A7B681A607B687A
:1044C0001433184601F008FC7B68C4331846FFF724
:1044D0009FFF7B681846FFF75BFF7B68184608372D
:1044E000BD4680BD2C8E017080B582B000AF786073
:1044F0007868FFF7DDFFD421786812F044F87B6814
:1045000018460837BD4680BD80B58AB000AF7860D8
:10451000714BD3F83C31704A43F00053C2F83C3140
:104520006D4BD3F83C31FB60FB686C4B0022C3F849
:104530008420BFF34F8F00BF684BD3F88030BB613E
:10454000BB695B0BC3F30E037B61BB69DB08C3F381
:1045500009033B617B695A0143F6E07313403A69F2
:1045600092075E491343C1F874323B695A1E3A619F
:10457000002B14BF01230023DBB2002BEAD17B699F
:104580005A1E7A61002B14BF01230023DBB2002BDB
:10459000DBD1BFF34F8F00BFBFF36F8F00BF00BFF2
:1045A000BFF34F8F00BFBFF36F8F00BF7B68143323
:1045B000B0220021184612F08DFD7B68484A5A61EE
:1045C0007B681A1D7B689A617B68DB68DAB27B685E
:1045D0001A777B68434A1A627B68434A5A627B684F
:1045E00040F2DC529A627B681433404A13603B4BC2
:1045F0000022C3F88420BFF34F8F00BF374BD3F89E
:1046000080307B627B6A5B0BC3F30E033B627B6A89
:10461000DB08C3F30903FB613B6A5A0143F6E0730D
:104620001340FA6992072D491343C1F87432FB69AC
:104630005A1EFA61002B14BF01230023DBB2002BAA
:10464000EAD13B6A5A1E3A62002B14BF01230023B1
:10465000DBB2002BDBD1BFF34F8F00BFBFF36F8FF7
:1046600000BF00BF7B681433184601F039FA0346D7
:10467000002B14BF01230023DBB2002B04D01C4805
:1046800012F02EFB002322E05C2000F0CCFF7B68C0
:104690001B691B6808331B687A6810697A68C43222
:1046A000114698477B681B691B680C331B687A6846
:1046B000126910469847034683F00103DBB2002BD2
:1046C00004D00C4812F00CFB002300E00123184634
:1046D0002837BD4680BD00BF0044025800ED00E011
:1046E00000800240E017003000000030040A00247F
:1046F0008C890170AC89017080B5A6B000AF78607C
:10470000396000F023FEC7F8900089E07B681B69E0
:104710001B6810331B687A68126910469847034675
:10472000002B7AD07B681B691B6818331B687A687A
:10473000106907F1800207F184019847D7F88430A7
:10474000012B02D14FF4804300E00023C7F88C30E6
:10475000D7F88030012B02D14FF4005300E0002342
:10476000C7F888307B68143307F1080211461846F1
:1047700001F0CEFE0346002B0CBF01230023DBB269
:10478000002B0DD0D7F88C30FB61D7F888303B6216
:104790007B68143307F108021146184602F08CF8C2
:1047A0000023C7F8943012E00023FB667B6803F116
:1047B0001400D7F8942007F16C03002101F0FFFDED
:1047C0000346002BD7F894300133C7F89430D7F85C
:1047D00094301F2BE8DD7B681433184601F090FA03
:1047E0007B68143307F170021146184602F01AF97B
:1047F0000346002B0CBF01230023DBB2002B0AD0A1
:10480000012387F870307B68143307F1700211467A
:10481000184602F0BBF8012312E00A2000F0A2FDC6
:1048200000F094FD0246D7F89030D31A3A689A42C5
:104830008CBF01230023DBB2002B7FF467AF002382
:1048400018469837BD4680BD80B582B000AF78600D
:104850007B681B691B6810331B687A6812691046F5
:104860009847034618460837BD4680BD80B582B0DC
:1048700000AF78607B681B691B6814331B687A681B
:10488000126910469847034618460837BD4680BD52
:1048900080B485B000AFF860B9607A60FB68BA6830
:1048A000C3F8CC20FB687A68C3F8D02000BF143767
:1048B000BD465DF8047B704780B5A0B000AFF860DE
:1048C000B9601346FB80FB8840F2DC52934202D869
:1048D000BB68002B01D10023A3E0544B1B6840F2BE
:1048E000DC5202FB03F3524A1344FB674F4B1B6835
:1048F000013303F003034D4A1360FB881A46B9687D
:10490000F86F12F080FCFB6F23F01F03BB67FA6F98
:10491000BB6FD21AFB8813441F3323F01F037B673E
:10492000BA6F7B6F3A66FB65FB6D002B1DDD3B6E3E
:1049300003F01F02FB6D1344BB653B6E7B65BFF349
:104940004F8F00BF3B4A7B6DC2F868327B6D2033CE
:104950007B65BB6D203BBB65BB6D002BF2DCBFF301
:104960004F8F00BFBFF36F8F00BF00BFFB6FBB64F3
:10497000FB88FB6400233B6507F11003382200210C
:10498000184612F0A7FB20233B6100233B62FB8803
:104990007B6107F14803BB61274B3B676023FB66E4
:1049A000FB6E002B1DDD3B6F03F01F02FB6E1344FB
:1049B000BB663B6F7B66BFF34F8F00BF1D4A7B6EAC
:1049C000C2F868327B6E20337B66BB6E203BBB66D1
:1049D000BB6E002BF2DCBFF34F8F00BFBFF36F8FB6
:1049E00000BF00BFFB68143307F1100164221846B2
:1049F00001F0E8F90346002B14BF01230023DBB2CA
:104A0000002B0DD0FB68D3F89C10FB68D3F8A020D6
:104A1000FB68D3F89830094812F0F2F8002300E060
:104A2000012318468037BD4680BD00BF0C0A002414
:104A30004018003000ED00E0E0170030C889017038
:104A400080B58CB000AF78600023FB603B4BFB620D
:104A50006023BB62BB6A002B1DDDFB6A03F01F02F3
:104A6000BB6A13447B62FB6A3B62BFF34F8F00BF9C
:104A7000334A3B6AC2F85C323B6A20333B627B6A52
:104A8000203B7B627B6A002BF2DCBFF34F8F00BFC1
:104A9000BFF36F8F00BF00BF3BE0FB68002B12D05D
:104AA0007B68D3F8CC30002B09D07B68D3F8CC30AE
:104AB0007A68D2F8D020F9681046984703E0FB687E
:104AC000184608F0D9FE1D4BFB616023BB61BB6932
:104AD000002B1DDDFB6903F01F02BB6913447B61E2
:104AE000FB693B61BFF34F8F00BF154A3B69C2F8BA
:104AF0005C323B6920333B617B69203B7B617B6996
:104B0000002BF2DCBFF34F8F00BFBFF36F8F00BFEE
:104B100000BF7B68143307F10C021146184601F000
:104B2000E8F90346002B0CBF01230023DBB2002B66
:104B3000B3D100BF00BF3037BD4680BD000000309C
:104B400000ED00E080B485B000AF786039600023EC
:104B5000FB600BE0FB683A6813447968FA680A4422
:104B6000043212781A70FB680133FB60FB68052B76
:104B7000F0DD00BF00BF1437BD465DF8047B704711
:104B800080B582B000AF7860264812F0A9F8264BB5
:104B9000DB681946254812F033F8254A2249254892
:104BA00012F02EF87B685B691B681946224812F0E8
:104BB00027F87B685B6903F58053D3F860311946A9
:104BC0001E4812F01DF87B685B69D3F80037194660
:104BD0001B4812F015F87B685B69D3F894371946C7
:104BE000184812F00DF87B685B69D3F898371946BE
:104BF000154812F005F87B685B69D3F8C43719468D
:104C0000124811F0FDFF7B685B69D3F8F83719464D
:104C10000F4811F0F5FF0F4812F062F800BF083797
:104C2000BD4680BD088A017000000030288A0170EE
:104C300060000030488A0170708A0170888A0170B3
:104C4000A08A0170B88A0170D88A0170F88A017050
:104C5000188B0170388B017080B483B000AF78601E
:104C6000044A7B681A607B6818460C37BD465DF8BD
:104C7000047B7047608E017080B582B000AF7860B1
:104C800039607B681846FFF7E7FF054A7B681A60C2
:104C90007B683A685A607B6818460837BD4680BD15
:104CA000AC8E017080B586B000AFF8607B600B46BB
:104CB000FB721346BB7200237B61FB685868F97A6C
:104CC000BA7A07F1140301F07AFB0346002B14BFF4
:104CD00001230023DBB2002B01D0002304E07B6919
:104CE0009AB27B681A80012318461837BD4680BDEA
:104CF00080B582B000AF7860084611461A46034678
:104D0000FB700B46BB7013463B807B685868F97894
:104D1000BA783B8801F0A8FB0346002B0CBF0123A7
:104D20000023DBB218460837BD4680BD80B483B08F
:104D300000AF7860044A7B681A607B6818460C37BD
:104D4000BD465DF8047B7047E88C017080B582B089
:104D500000AF78600B46FB707B681846FFF7E6FFF4
:104D6000064A7B681A607B6800225A607B68FA7882
:104D70001A727B6818460837BD4680BDC48E017024
:104D800080B483B000AF786039607B683A685A605D
:104D900000BF0C37BD465DF8047B704790B585B009
:104DA00000AF78607B685B68002B01D1002369E06D
:104DB00000237B817B685B681B6808331C687B6809
:104DC00058687B68197A07F10A030022A047034656
:104DD00083F00103DBB2002B04D02C4811F080FFDC
:104DE00000234FE07A892A4B13439BB27B817B6877
:104DF0005B681B680C331C687B6858687B68197A91
:104E00007B890022A04700F0A1FAF8600A2000F098
:104E1000A9FA7B685B681B6808331C687B68586864
:104E20007B68197A07F10A030022A047034683F042
:104E30000103DBB2002B04D0164811F051FF002310
:104E400020E07B891BB2002B09DA00F07FFA0246D2
:104E5000FB68D31AB3F5FA7F01D2012300E00023E7
:104E6000002BD3D17B891BB2002B04DA0A4811F046
:104E700037FF002306E07B681B7A1946074811F0CC
:104E8000BFFE012318461437BD4690BD588B0170F4
:104E90000080FFFF808B0170A88B0170CC8B0170AC
:104EA00090B585B000AF78607B685B68002B01D15E
:104EB000002324E00023FB817B685B681B680833C8
:104EC0001C687B6858687B68197A07F10E03012219
:104ED000A047034683F00103DBB2002B01D000237F
:104EE0000DE0FB8903F00403002B06D0FB8903F0DF
:104EF0002003002B01D0012300E0002300BF18464F
:104F00001437BD4690BD90B585B000AF78607B6822
:104F10005B68002B02D14FF0FF3333E00023FB81AD
:104F20000023BB817B685B681B6808331C687B6857
:104F300058687B68197A07F10E030222A0470346DE
:104F400083F00103DBB2002B02D04FF0FF3319E0F6
:104F50007B685B681B6808331C687B6858687B68E3
:104F6000197A07F10C030322A047034683F00103DB
:104F7000DBB2002B02D04FF0FF3303E0FB891B04B0
:104F8000BA89134318461437BD4690BD90B587B013
:104F900000AFF860B9607A60FB685B68002B01D1F4
:104FA000002341E00023BB82FB685B681B68083379
:104FB0001C68FB685868FB68197A07F114031F2204
:104FC000A047034683F00103DBB2002B01D000238E
:104FD0002AE0BB8A03F01C03FB82FB8A182B06D055
:104FE000182B19DC082B09D0142B0ED014E0BB6849
:104FF00001221A607B6801221A6014E0BB6801225A
:105000001A607B6800221A600DE0BB6800221A60FB
:105010007B6801221A6006E0BB6800221A607B6888
:1050200000221A6000BF012318461C37BD4690BD00
:1050300080B483B000AF7860044A7B681A607B68F4
:1050400018460C37BD465DF8047B7047048F01702D
:1050500080B483B000AF7860044A7B681A607B68D4
:1050600018460C37BD465DF8047B7047048F01700D
:1050700080B582B000AF78607868FFF7E9FF04215F
:10508000786811F080FA7B6818460837BD4680BD05
:1050900080B584B000AFF860B9607A607B80FB684F
:1050A0001846FFF7C5FF0B4AFB681A60FB68BA6831
:1050B0005A60FB6800229A60FB687A68DA60FB68D5
:1050C0007A881A82FB68BA695A61FB6818461037F9
:1050D000BD4680BDE88E017080B582B000AF7860BB
:1050E0000A4A7B681A607B689B68002B04D07B6847
:1050F0009B68184605F092FE7B681846FFF7A8FFEC
:105100007B6818460837BD4680BD00BFE88E017039
:1051100080B582B000AF78607868FFF7DDFF1821B6
:10512000786811F030FA7B6818460837BD4680BDB4
:1051300080B586B002AF78607B689B68002B01D099
:10514000002315E07B68D9687B68188A7B685B69F7
:105150007A680832019200937B680246064805F09F
:105160003AFDF860FB68012B0CBF01230023DBB282
:1051700018461037BD4680BDC151007080B582B061
:1051800000AF78607B689B68002B04D07B689B68CD
:10519000184605F0DBFE00BF0837BD4680BD80B570
:1051A00082B000AF78607B689B68002B04D07B687E
:1051B0009B68184605F076FF00BF0837BD4680BDE6
:1051C00080B584B000AF78607B68FB60FB685B688B
:1051D0001B6808331B68FA6852681046984700201D
:1051E00005F01CFE00BF1037BD4680BD2DE9B04F55
:1051F00082B000AF7860796800200C4605462046F2
:1052000029464FF0000A4FF0000B4FEA411B4BEAD2
:10521000D06B4FEA401A50465946021B61EB05031A
:105220004FF000004FF00001990041EA92719000A8
:1052300002460B4612EB040843EB05094FF000024F
:105240004FF000034FEAC90343EA58734FEAC8021C
:1052500090469946404649464FF47A724FF0000313
:10526000FBF726F802460B461346184605F04AFEA1
:1052700000BF0837BD46BDE8B08F80B582B000AF33
:105280000023FB71032000F09BF90F2000F00EF8C3
:105290000346002B02D00123FB7101E0FEF7EBF97E
:1052A000FB7918460837BD4680BD000080B584B044
:1052B00000AF78600023FB73174B1B78002B23D0C3
:1052C000164B1A68144B1B7819464FF47A73B3FBCC
:1052D000F1F3B2FBF3F3184600F0B3F90346002BE9
:1052E0000FD17B680F2B09D8002279684FF0FF306F
:1052F00000F071F90A4A7B68136007E00123FB7331
:1053000004E00123FB7301E00123FB73FB7B1846E0
:105310001037BD4680BD00BF240000241C000024BF
:105320002000002480B400AF064B1B781A46064BC1
:105330001B681344044A136000BFBD465DF8047B3C
:10534000704700BF24000024100A002480B400AF7E
:10535000034B1B681846BD465DF8047B704700BFD1
:10536000100A002480B584B000AF7860FFF7EEFF2C
:10537000B8607B68FB60FB68B3F1FF3F05D00A4B68
:105380001B781A46FB681344FB6000BFFFF7DEFF83
:105390000246BB68D31AFA689A42F7D800BF00BF2A
:1053A0001037BD4680BD00BF2400002480B483B008
:1053B00000AF7860074BD3F8003123F46002054951
:1053C0007B681343C1F8003100BF0C37BD465DF860
:1053D000047B70470004005880B485B000AF78604B
:1053E0007B6803F00703FB600B4BDB68BB60BA68AC
:1053F0004FF6FF031340BB60FB681A02BB681A43F9
:10540000064B1343BB60044ABB68D36000BF14372C
:10541000BD465DF8047B704700ED00E00000FA0532
:1054200080B400AF044BDB681B0A03F00703184687
:10543000BD465DF8047B704700ED00E080B483B0AA
:1054400000AF0346FB80B7F90630002B0BDBFB886F
:1054500003F01F020749B7F906305B09012000FA83
:1054600002F241F8232000BF0C37BD465DF8047BF3
:10547000704700BF00E100E080B483B000AF034696
:10548000FB80B7F90630002B12DBFB8803F01F020C
:105490000A49B7F906305B09012000FA02F220330D
:1054A00041F82320BFF34F8F00BFBFF36F8F00BFC2
:1054B00000BF0C37BD465DF8047B704700E100E09B
:1054C00080B483B000AF03463960FB80B7F9063083
:1054D000002B0ADB3B68DAB20C49B7F9063012013F
:1054E000D2B20B4483F800230AE03B68DAB20849E1
:1054F000FB8803F00F03043B1201D2B20B441A766F
:1055000000BF0C37BD465DF8047B704700E100E04A
:1055100000ED00E080B489B000AFF860B9607A6057
:10552000FB6803F00703FB61FB69C3F10703042B6E
:1055300028BF0423BB61FB690433062B02D9FB6936
:10554000033B00E000237B614FF0FF32BB6902FAAE
:1055500003F3DA43BB681A407B699A404FF0FF318E
:105560007B6901FA03F3D9437B680B401343184668
:105570002437BD465DF8047B7047000080B582B0DB
:1055800000AF78607B68013BB3F1807F01D30123DA
:105590000FE00A4A7B68013B53600F214FF0FF3058
:1055A000FFF78EFF054B00229A60044B07221A601A
:1055B000002318460837BD4680BD00BF10E000E05C
:1055C00080B582B000AF78607868FFF705FF00BF54
:1055D0000837BD4680BD80B586B000AF0346B960D0
:1055E0007A60FB81FFF71CFF78617A68B968786997
:1055F000FFF790FF0246B7F90E3011461846FFF745
:105600005FFF00BF1837BD4680BD80B582B000AFD8
:105610000346FB80B7F906301846FFF70FFF00BFBF
:105620000837BD4680BD80B582B000AF0346FB8021
:10563000B7F906301846FFF71FFF00BF0837BD4611
:1056400080BD80B582B000AF78607868FFF796FFC4
:10565000034618460837BD4680BD000080B483B0BD
:1056600000AF7860BFF35F8F00BF0B4A7B6843F0E9
:1056700001035360094B5B6A084A43F48033536269
:10568000BFF34F8F00BFBFF36F8F00BF00BF0C375A
:10569000BD465DF8047B704790ED00E000ED00E052
:1056A00080B400AFBFF35F8F00BF0A4B5B6A094A4B
:1056B00023F480335362084B00225A60BFF34F8FAC
:1056C00000BFBFF36F8F00BF00BFBD465DF8047B16
:1056D000704700BF00ED00E090ED00E080B483B0C3
:1056E00000AF7860074A7B689360064B1B69054AE8
:1056F00023F00103136100BF0C37BD465DF8047B46
:10570000704700BF90ED00E080B483B000AF7860D8
:105710007B685A781E4B9A601D4B1B691C4A23F00C
:10572000010313611A4B1B69194A23F0010313612A
:10573000174A7B685B68D3607B681B7B1A077B68B2
:10574000DB7A1B061A437B689B7ADB041A437B686F
:105750005B7B9B041A437B689B7B5B041A437B68DF
:10576000DB7B1B041A437B685B7A1B021A437B6852
:105770001B7A5B0013437A6812781146044A0B4384
:10578000136100BF0C37BD465DF8047B704700BF56
:1057900090ED00E080B582B000AF78607B68002BB0
:1057A00001D1012389E07B6893F82130DBB2002B23
:1057B00002D1786800F088F87B68022283F8212003
:1057C0007B681B681B69002B01D1012375E07B6896
:1057D0001B689B68002B01D101236EE07B685B682E
:1057E000002B08D17B681B681A687B681B6822F451
:1057F00000121A600EE07B689B68B3F5801F01D031
:1058000001235AE07B681B681A687B681B6842F4B6
:1058100000121A607B689B68B3F5801F08D17B6813
:105820001B681A687B681B6842F480121A6007E0E4
:105830007B681B681A687B681B6822F480121A60F8
:105840007B681B681B6823F0FE417B685B691A0656
:105850007B681B680A431A607B681B681B6823F41B
:1058600070217B681A697B681B680A431A607B6831
:105870001B681B6823F470617B68DA687B681B68AF
:105880000A431A607B681B685B6999B27B689B69F5
:105890001A047B681B680A435A617B681B685A6953
:1058A000084B13407A68D1697A6812680B435361D8
:1058B0007B68012283F82120002318460837BD4663
:1058C00080BD00BF0000FFFF80B483B000AF7860F0
:1058D00000BF0C37BD465DF8047B704780B584B0CF
:1058E00000AF78607B68002B01D101233FE07B682B
:1058F00093F82130DBB2012B38D17B68022283F888
:1059000021207B681B681A687B681B6842F00102D3
:105910001A60FFF71BFDF86008E0FFF717FD02466D
:10592000FB68D31A012B01D9032320E07B681B6895
:105930001B6A03F40043B3F5004FEED17B681B688C
:105940001B6803F47063002B0AD17B681B681A681C
:105950007B681B6842F010021A600520FFF702FD09
:105960007B68012283F82120002300E002231846EF
:105970001037BD4680BD80B483B000AF78607B68CF
:10598000002B01D1012327E07B6893F82130DBB2A3
:10599000012B20D17B68022283F821207B681B68C1
:1059A0001B6803F47063002B07D17B681B681A68BF
:1059B0007B681B6822F010021A607B681B681A68FB
:1059C0007B681B6822F001021A607B68012283F861
:1059D0002120002300E0022318460C37BD465DF865
:1059E000047B704780B588B000AF786039607B6811
:1059F00093F82130DBB2012B6CD17B68022283F853
:105A000021207B681B68DB699BB27B617B681B691B
:105A1000002B02D07B69002B05D17B68012283F823
:105A20002120012357E07B689B68B3F5801F08D1D4
:105A30007B69DA037B681B691B0CB2FBF3F3FB6128
:105A40000BE002F03DFD02467B681B691B0C03FB6B
:105A500002F27B69B2FBF3F3FB617B681B689B6816
:105A60001B0CBB61BB69002B02D11E23BB610BE089
:105A7000BB69012B02D18223BB6105E07B68012257
:105A800083F82120012326E07B681B689B689BB27A
:105A9000642202FB03F33B617B681B681B699BB2BA
:105AA000FB60FB68002B05D17B68012283F8212075
:105AB000012310E0FA693B69D21AFB6892FBF3F20A
:105AC000BB691A443B681A607B68012283F8212075
:105AD000002300E0022318462037BD4680BD0000A9
