:0200000470008A
:100000000000012071160070C1160070651A0070A2
:10001000791A00707F1A0070851A007000000000C5
:1000200000000000000000000000000065A8007053
:10003000C11600700000000091A9007061190070E5
:10004000C116007000000000C1160070C1160070DB
:10005000C1160070C1160070000000000000000012
:10006000C1160070C1160070C116007000000000BB
:1000700000000000C1160070000000000000000039
:10008000C1160070C1160070C1160070C116007054
:10009000C1160070C1160070C1160070C116007044
:1000A000C1160070C1160070C1160070C116007034
:1000B000C1160070C1160070C1160070C116007024
:1000C000C1160070C1160070C1160070C116007014
:1000D000C1160070C1160070C1160070C116007004
:1000E000C1160070C1160070C1160070C1160070F4
:1000F000C1160070C1160070C1160070C1160070E4
:10010000C1160070C1160070C1160070C1160070D3
:10011000C1160070C1160070C1160070C1160070C3
:10012000C1160070C1160070C1160070C1160070B3
:10013000C1160070C1160070C1160070C1160070A3
:10014000C1160070C1160070C1160070C116007093
:10015000C1160070C1160070C1160070C116007083
:10016000C1160070C1160070C1160070C116007073
:10017000C1160070C1160070C1160070C116007063
:10018000C1160070C1160070C1160070C116007053
:10019000C1160070C1160070C1160070C116007043
:1001A000C1160070C1160070C1160070C116007033
:1001B000951C0070C1160070C1160070C116007049
:1001C0000000000000000000C1160070C1160070A1
:1001D000C1160070C1160070C1160070C116007003
:1001E000C1160070C1160070C1160070C1160070F3
:1001F000C1160070C1160070000000000000000071
:10020000C1160070C1160070C1160070C1160070D2
:10021000C1160070C1160070C1160070C1160070C2
:10022000C1160070C1160070C1160070C1160070B2
:10023000C1160070C1160070C1160070C1160070A2
:10024000C1160070C1160070C1160070C116007092
:10025000C1160070C1160070C1160070C116007082
:10026000C1160070C1160070C1160070C116007072
:10027000C1160070C1160070C1160070C116007062
:10028000C1160070C1160070C1160070C116007052
:10029000C116007000000000000000000000000017
:1002A000C1160070C1160070C1160070C116007032
:1002B00053B94AB9002908BF00281CBF4FF0FF31CD
:1002C0004FF0FF3000F00CB8ADF1080C6DE904CE32
:1002D00011F006FCDDF804E0DDE9022304B070470C
:1002E000704700BF00000000000000000000000098
:1002F00001F0FF01102A2BDB10F0070F08D010F8D7
:10030000013B013A8B422DD010F0070F42B3F6D1DA
:10031000F0B441EA012141EA014122F007047FF0F3
:1003200000070023F0E80256083C85EA010586EA4A
:10033000010685FA47F5A3FA87F586FA47F6A5FA86
:1003400087F68EB9EED1F0BC01F0FF0102F0070292
:1003500032B110F8013B013A83EA010313B1F8D13D
:100360000020704701387047002D06BF354603381E
:10037000073815F0010F07D1013015F4807F02BF57
:10038000013015F4C03F0130F0BC0138704700BFA8
:100390000348044B834202D0034B03B11847704714
:1003A0009000002490000024000000000548064B47
:1003B0001B1AD90F01EBA301491002D0034B03B163
:1003C00018477047900000249000002400000000AF
:1003D00010B5064C237843B9FFF7DAFF044B13B18D
:1003E0000448AFF300800123237010BD9000002467
:1003F000000000006433017008B5054B1BB10549CE
:100400000548AFF30080BDE80840FFF7CFBF00BF4D
:1004100000000000940000246433017080B483B0B5
:1004200000AF7860044A7B68136000BF0C37BD469C
:100430005DF8047B704700BFAC00002480B584B039
:1004400000AFF860B9607A60094B1B68002B09D0D7
:10045000074B1B681B6808331B68054A10687A68DD
:10046000B96898477B6818461037BD4680BD00BF05
:10047000AC00002490B482B000AF04460846114698
:100480001A462346FB710346BB710B467B7113462C
:100490003B71FA79BB791B021A437B791B041A431F
:1004A0003B791B06134318460837BD4690BC70477E
:1004B00080B483B000AF7860044A7B681A607B68C0
:1004C00018460C37BD465DF8047B7047BC3C017094
:1004D00080B582B000AF78607868FFF7E9FF04214B
:1004E000786811F0EAFA7B6818460837BD4680BD87
:1004F00080B582B000AF7860054A7B681A607B687F
:100500001846FFF7D5FF7B6818460837BD4680BD03
:10051000E43C017080B582B000AF78607868FFF786
:10052000E7FF0C21786811F0C8FA7B681846083795
:10053000BD4680BD80B483B000AF7860044A7B685C
:100540001A607B6818460C37BD465DF8047B70471F
:10055000983C017080B582B000AF78607868FFF792
:10056000E9FF0421786811F0A8FA7B68184608377B
:10057000BD4680BD80B582B000AF7860054A7B681B
:100580001A607B681846FFF7D5FF7B681846083766
:10059000BD4680BD003E017080B582B000AF78607E
:1005A0007868FFF7E7FF0C21786811F086FA7B681E
:1005B00018460837BD4680BD80B582B000AF786070
:1005C000054A7B681A607B681846FFF771FF7B68F5
:1005D00018460837BD4680BDD03C017080B582B05A
:1005E00000AF78607868FFF7E7FF6021786811F066
:1005F00064FA7B6818460837BD4680BD80B582B076
:1006000002AF00F03DFD00F0CBFD03461846FFF7BA
:1006100005FF9D4811F0FEFD9C4B1B68BFF35B8FEF
:1006200003F00103002B0CBF01230023DBB2002BDE
:1006300012D0964811F043FA0346002B14BF012351
:100640000023DBB2002B07D000F0B4FD0346904A34
:1006500013608E4811F03FFA8E4B1B68BFF35B8F1F
:1006600003F00103002B0CBF01230023DBB2002B9E
:100670001AD0884811F023FA0346002B14BF012337
:100680000023DBB2002B0FD0814B1B684FF4FA72B2
:100690001946814800F00AFC804A81497E4811F0E1
:1006A00007FA7C4811F017FA7E4B1B68BFF35B8F8B
:1006B00003F00103002B0CBF01230023DBB2002B4E
:1006C0001BD0784811F0FBF90346002B14BF01231F
:1006D0000023DBB2002B10D0032300934FF4807370
:1006E000714A6D49714802F055FA6C4A70496F4879
:1006F00011F0DEF96B4811F0EEF96E4B1B68BFF399
:100700005B8F03F00103002B0CBF01230023DBB23E
:10071000002B16D0674811F0D2F90346002B14BF06
:1007200001230023DBB2002B0BD00021624802F032
:100730008FF85A4A6149604811F0BAF95D4811F0E2
:10074000CAF95F4B1B68BFF35B8F03F00103002BFB
:100750000CBF01230023DBB2002B17D0584811F047
:10076000AEF90346002B14BF01230023DBB2002B9C
:100770000CD0514A5349544801F0C6FB474A5349EB
:10078000514811F095F94E4811F0A5F9504B02224D
:100790001A706F230122A821C020FFF76BFE0346C9
:1007A0004B4A53600023FF22FF21FF20FFF762FE28
:1007B0000346474A936001230122A821C020FFF786
:1007C00059FE0346424AD360414B42F210721A610D
:1007D0003F4B404A5A61404B1B68BFF35B8F03F0AD
:1007E0000103002B0CBF01230023DBB2002B17D029
:1007F000394811F064F90346002B14BF012300238C
:10080000DBB2002B0CD0324A2F49344800F014F9E7
:10081000224A3349314811F04BF92F4811F05BF966
:10082000304B1B68BFF35B8F03F00103002B0CBF41
:1008300001230023DBB2002B1BD02A4811F03FF923
:100840000346002B14BF01230023DBB2002B10D082
:10085000042300934FF48063234A2049234802F085
:1008600099F90E4A1249214811F022F91D4811F058
:1008700032F90E4802F0DEF91C4802F0DBF908F00C
:10088000BDF800BFFDE700BF8C330170B400002449
:10089000B0000024C4000024B8000024000000249C
:1008A000F1040070E0000024A4330170C8000024AB
:1008B000DD2B0070F0000024E400002475050070BA
:1008C000C8010024843C0170F4000024651F0070FE
:1008D000040000247C3301702C020024CC0100248D
:1008E000B905007048020024B033017030020024C2
:1008F00080B483B000AF78607B68243318460C372F
:10090000BD465DF8047B704780B483B000AF78606B
:100910007B68083318460C37BD465DF8047B70478A
:1009200080B584B000AF7860054811F073FC7B6837
:10093000FB60F86800F08CF900BF1037BD4680BD41
:10094000BC33017080B584B000AF7860114811F0FD
:1009500061FC7B68FB60F868FFF7CAFF0346184636
:100960000EF088F8F868FFF7CFFF03461B78002BDE
:1009700014BF01230023DBB2002B06D0F868FFF779
:10098000B7FF034618460FF04FF900BF1037BD46BA
:1009900080BD00BF0034017080B584B000AF7860C6
:1009A000134811F037FC7B68FB60F868FFF7A0FF85
:1009B000034618460EF042F8F868FFF7A5FF034615
:1009C0001B78002B0CBF01230023DBB2002B03D0CC
:1009D000F86800F03DF906E0F868FFF789FF034684
:1009E00018460EF0CFFF00BF1037BD4680BD00BFD8
:1009F0004034017080B584B000AF7860054811F0D4
:100A000009FC7B68FB60F86800F0BAF800BF10379B
:100A1000BD4680BD7C34017080B483B000AF786087
:100A2000044A7B681A607B6818460C37BD465DF83F
:100A3000047B7047BC3C0170B0B584B000AFF86077
:100A4000B9607A60FB681846FFF7E6FF104AFB685A
:100A50001A60FB68BA685A60FB687A6803F1080498
:100A600015460FCD0FC495E8030084E80300FB682A
:100A7000002283F82020FB68BA689A657B685A696F
:100A8000FB68DA65FB6818461037BD46B0BD00BF8D
:100A9000D03C017080B582B000AF78602F4811F073
:100AA000B9FB7B685B681B6808331B687A6852680F
:100AB00010469847034683F00103DBB2002B06D0B3
:100AC000274811F0A7FB002007F084FD42E07B6877
:100AD0005B681B6824331B687A6852681046984725
:100AE000034619461F4811F025FB1F4811F022FB51
:100AF00002E01E4811F01EFB7B685B681B680C332C
:100B00001B687A6852684FF47A711046984703461A
:100B100083F00103DBB2002BEBD1154811F07AFB17
:100B2000144811F077FB7968134810F0EDF802E0F3
:100B30000A2007F0C3FD7B6893F82030DBB283F016
:100B40000103DBB2002BF3D10C4811F063FB786892
:100B500000F0DCF80837BD4680BD00BFC43401702A
:100B6000E034017018350170403501706435017052
:100B70006C3501708C350170F5090070BC35017061
:100B8000B0B58AB004AF78602C4811F043FB7B68A5
:100B90001B7A002B09D17B68DB687B617B681B6952
:100BA0003B617B685B69FB6005E000237B610023A0
:100BB0003B610023FB607B6803F158027B681A6489
:100BC0007B6803F124007B68583307F10C0407F1BC
:100BD000100207F114011A4D02951A4D0195009368
:100BE00023460DF089FE7B68243318460DF00EFF76
:100BF0007B68243318460DF021FF7B6824331846A8
:100C00000DF00AFF7B681B7A002B03D1786800F097
:100C10001FF807E00C4811F0FDFA7B6824331846F2
:100C20000EF0B0FE7B68012283F82020074811F007
:100C3000F1FA00BF1837BD46B0BD00BFF4350170F2
:100C4000450C0170010F017030360170543601708F
:100C500080B588B002AF78607B68DB687B617B68B9
:100C60001B693B617B685B69FB607B6803F1240067
:100C700007F10C0307F1100207F114010DF010FE4B
:100C80007B68DB68D9B27B68DB681B0ADAB27B68F9
:100C9000DB681B0CD8B27B68DB681B0E0093034635
:100CA000034811F047FA00BF1837BD4680BD00BFAA
:100CB0008C36017080B584B000AF78603960002355
:100CC000FB6019E07B682433184610F063F97B68F9
:100CD000243318460EF0E6FD0346002B14BF012313
:100CE0000023DBB2002B01D001230AE00A2007F029
:100CF000E5FCFB680A33FB60FA683B689A42E1D383
:100D0000002318461037BD4680BD000080B586B070
:100D100000AF78607B681B7A022B2ED17B689B69C1
:100D20001946594811F006FA7B689B69194678689C
:100D3000FFF7C0FF034683F00103DBB2002B12D0A4
:100D4000524811F067FA796851480FF089FF38610D
:100D50003B69002B03D039694E4811F0EBF9642050
:100D600007F0ACFC09E07B68283318460FF02EFD35
:100D700003461946484811F0DDF90023FB750123AD
:100D8000BB757B682433184610F004F97B681B7A26
:100D9000012B1ED1FB7D83F00103DBB2002B18D0A9
:100DA0007B68243318460EF07DFD0346002B14BFEC
:100DB00001230023DBB2002B0BD07B6828331846BD
:100DC0000FF004FD03461946334811F0B3F901232F
:100DD000FB757B685B681B6810331B687A68526818
:100DE000104698470346FB73BB7D002B10D0FB7B5E
:100DF00083F00103DBB2002B0AD0284811F00AFA75
:100E0000796827480FF02CFF0023FB750023BB7582
:100E1000BB7D83F00103DBB2002B30D0FB7B002BCA
:100E20002DD0204811F0F6F979681F480FF018FF0F
:100E30007B681B7A022B20D17B689B6919467868F6
:100E4000FFF738FF034683F00103DBB2002B0AD023
:100E50000E4811F0DFF979680D480FF001FF6420AA
:100E600007F02CFC09E07B68283318460FF0AEFC35
:100E700003461946084811F05DF90123BB750A20A5
:100E800007F01CFC7DE700BFB8360170F03601703A
:100E9000210900703037017070370170943701708C
:100EA00045090070B43701709909007080B584B0AD
:100EB00000AFF860B9607A60FB681846FFF7ACFDD8
:100EC000064AFB681A60FB68BA685A60FB687A6871
:100ED0009A60FB6818461037BD4680BDE43C01703F
:100EE00080B584B000AF78600023FB737B685B68DB
:100EF0001B6810331B687A68526810469847FB7B62
:100F000083F00103FB73FB7B002B04D04FF47A705A
:100F100001F0EEFEEAE74FF47A6001F0E9FEE5E762
:100F200080B400AF00BFBD465DF8047B704780B55C
:100F300086B000AF3B1D00221A605A609A60DA60EA
:100F400002F030F90023FB7506E0FB7D184602F045
:100F500047F9FB7D0133FB75FB7D0F2BF5D9012391
:100F60003B7100237B710023BB601F233B738723EE
:100F70007B730023BB730023FB7301233B740023AB
:100F80007B740023BB740023FB743B1D184602F0E6
:100F90003DF901237B714FF0E043BB601A233B73A3
:100FA00000237B730123BB730323FB7300233B7478
:100FB00000237B740123BB740123FB743B1D184683
:100FC00002F024F902237B714FF04053BB600E23E3
:100FD0003B7300237B730023BB730323FB73012349
:100FE0003B7400237B740023BB740023FB743B1D04
:100FF000184602F00BF9042002F0B2F800BF1837CF
:10100000BD4680BD80B588B000AF1B4BD3F84831DA
:10101000194A43F48023C2F84831174BD3F84831BA
:10102000BB60BB68144BD3F84031134A43F008034C
:10103000C2F84031104BD3F840317B607B6807F138
:101040000C0300221A605A609A60DA601A614FF449
:101050004073FB6002233B6100237B610023BB6183
:101060000723FB6107F10C031946044803F0CEFE89
:1010700000BF2037BD4680BD00440258000C025816
:1010800080B584B000AFFFF752FF434B5B6903F4B8
:101090000033002B14BF01230023DBB2002B1BD134
:1010A000BFF34F8F00BFBFF36F8F00BF3A4B0022DB
:1010B000C3F85022BFF34F8F00BFBFF36F8F00BF45
:1010C000354B5B69344A43F400335361BFF34F8FB0
:1010D00000BFBFF36F8F00E000BF2F4B5B6903F4CD
:1010E0008033002B14BF01230023DBB2002B42D13D
:1010F000294B0022C3F88420BFF34F8F00BF264B3B
:10110000D3F88030FB60FB685B0BC3F30E03BB605E
:10111000FB68DB08C3F309037B60BB685A0143F635
:10112000E07313407A6892071B491343C1F8603299
:101130007B685A1E7A60002B14BF01230023DBB2A8
:10114000002BEAD1BB685A1EBA60002B14BF0123E2
:101150000023DBB2002BDBD1BFF34F8F00BF0E4B60
:101160005B690D4A43F480335361BFF34F8F00BF77
:10117000BFF36F8F00E000BF01F001FEFFF7D0FE6C
:1011800000F0B6FAFFF73EFF044800F03DFD00BF57
:101190001037BD4680BD00BF00ED00E04C020024CA
:1011A00080B400AF024B1846BD465DF8047B704723
:1011B0004C02002480B586B000AF134BD3F8403109
:1011C000114A43F00803C2F840310F4BD3F84031C5
:1011D0003B603B683B1D00221A605A609A60DA60EF
:1011E0001A614FF480637B600123BB600023FB60C6
:1011F00000233B613B1D1946044803F007FE044BE6
:1012000018461837BD4680BD00440258000C0258ED
:10121000E402002480B483B000AF7860044A7B68A5
:101220001A607B6818460C37BD465DF8047B704732
:10123000F83C017080B582B000AF78607868FFF745
:10124000E9FF0421786810F038FC7B6818460837FD
:10125000BD4680BD80B582B000AF7860054A7B682E
:101260001A607B681846FFF7D5FF7B681846083779
:10127000BD4680BD503D017080B582B000AF786042
:101280007868FFF7E7FF9821786810F016FC7B6814
:1012900018460837BD4680BD80B483B000AF786083
:1012A000044A7B681A607B6818460C37BD465DF8B7
:1012B000047B7047103D017080B582B000AF78604C
:1012C0007868FFF7E9FF0421786810F0F6FB7B6887
:1012D00018460837BD4680BD80B582B000AF786043
:1012E000054A7B681A607B681846FFF7D5FF7B6864
:1012F00018460837BD4680BD303D017080B582B0CC
:1013000000AF78607868FFF7E7FF0C21786810F08D
:10131000D4FB7B6818460837BD4680BD80B500AF5A
:101320004FF4E1320A490B4800F032FC0A4A0B49FB
:10133000084810F0BDFB4FF480620949094800F0ED
:10134000B5FB054A0849074810F0B2FB00BF80BD55
:10135000004800404C020024000000245512007098
:10136000000C0258E4020024D912007080B500AFCE
:10137000FFF7D4FF80BD80B400AF00BFBD465DF86D
:10138000047B704780B5DAB000AF07F5B473A3F5FE
:10139000B273186007F5B473A3F5B2731B681B68CA
:1013A0008A4A934240F00C8107F5AA7300221A6022
:1013B0005A609A60DA601A6107F5B473A3F5B073E6
:1013C000184690231A46002111F06AF807F1980395
:1013D0009C220021184611F063F80023C7F89830CA
:1013E0000223C7F80C310023C7F810310423C7F8D3
:1013F00014311923C7F818310223C7F81C3102230E
:10140000C7F820310223C7F824310823C7F8283150
:101410000223C7F82C310023C7F8303107F19803B5
:10142000184603F061FF07F5B473A3F5B0714FF4EC
:10143000C0724FF00003C1E9002307F5B473A3F5B0
:10144000B07300225A6207F5B473A3F5B0734FF47A
:1014500080229A6207F10803184604F0EFFE5C4B05
:10146000D3F838315A4A43F40043C2F83831584B64
:10147000D3F83831C7F85031D7F85031544BD3F83E
:101480003831534A43F48033C2F83831504BD3F8E3
:101490003831C7F84C31D7F84C314D4BD3F838318F
:1014A0004B4A43F40033C2F83831494BD3F8383152
:1014B000C7F84831D7F84831454BD3F84031444A52
:1014C00043F00103C2F84031414BD3F84031C7F833
:1014D0004431D7F844313E4BD3F840313C4A43F0D5
:1014E0000203C2F840313A4BD3F84031C7F84031DB
:1014F000D7F84031364BD3F84031354A43F0080332
:10150000C2F84031324BD3F84031C7F83C31D7F8FC
:101510003C312F4BD3F840312D4A43F04003C2F801
:1015200040312B4BD3F84031C7F83831D7F8383138
:10153000274BD3F85431264A43F00203C2F8543102
:10154000234BD3F85431C7F83431D7F83431102352
:10155000C7F854310223C7F858310023C7F85C316B
:101560000223C7F860310B23C7F8643107F5AA736B
:101570001946184803F04AFC4023C7F8543107F5D0
:10158000AA731946144803F041FC43F67003C7F8E8
:10159000543107F5AA731946104803F037FC842329
:1015A000C7F8543107F5AA7319460D4803F02EFC0D
:1015B000002205215C2001F090FD5C2001F0A7FDD8
:1015C00000BF07F5B477BD4680BD00BF0080024074
:1015D00000440258000C0258000402580018025837
:1015E0000000025880B582B000AF78607B681B684D
:1015F000194A93422BD1194BD3F83831174A23F4A7
:101600000043C2F83831154BD3F83831134A23F46C
:101610008033C2F83831114BD3F838310F4A23F4F4
:101620000033C2F8383110210D4803F04FFD40213E
:101630000C4803F04BFD43F670010B4803F046FDE8
:1016400084210A4803F042FD5C2001F06EFD00BFDA
:101650000837BD4680BD00BF0080024000440258EC
:10166000000C0258000402580018025800000258EA
:101670000D48854600F026F80C480D490D4A002318
:1016800002E0D458C4500433C4188C42F9D30A4A37
:101690000A4C002301E013600432A242FBD310F095
:1016A0005DFFFEF7ABFFFEE7000001200000002415
:1016B00090000024205F017090000024E43C01248D
:1016C000FEE7000080B400AF074B084A9A60064B63
:1016D000D3F88830044A43F47003C2F8883000BF5E
:1016E000BD465DF8047B704700ED00E0000000702F
:1016F00080B489B000AF924B1B6903F03803182BFC
:1017000000F2FB8001A252F823F000BF71170070B5
:10171000FB180070FB180070FB180070FB180070BD
:10172000FB180070FB180070FB1800708517007024
:10173000FB180070FB180070FB180070FB1800709D
:10174000FB180070FB180070FB1800708B170070FE
:10175000FB180070FB180070FB180070FB1800707D
:10176000FB180070FB180070FB18007091170070D8
:10177000734B1B68DB0803F00303724A22FA03F37E
:10178000FB61C4E0704BFB61C1E0704BFB61BEE0EC
:101790006B4B9B6A03F003033B61694B9B6A1B091C
:1017A00003F03F03FB60664BDB6A03F00103002B91
:1017B0000BD0634B5B6BDB08C3F30C0307EE903A73
:1017C000F8EE677AC7ED067A02E04FF00003BB61DE
:1017D000FB68002B00F08E803B69012B24D03B6915
:1017E000022B43D1FB6807EE903AF8EE677ADFED03
:1017F000586A86EEA77A524B1B6BC3F3080307EEB9
:10180000903AF8EE676A97ED066ADFED525AC6EE37
:10181000257A76EEA77AF7EE006A77EEA67A67EE7B
:10182000277AC7ED057A4FE0FB6807EE903AF8EEAD
:10183000677ADFED496A86EEA77A414B1B6BC3F3EB
:10184000080307EE903AF8EE676A97ED066ADFED57
:10185000415AC6EE257A76EEA77AF7EE006A77EE61
:10186000A67A67EE277AC7ED057A2DE0344B1B6820
:10187000DB0803F00303334A22FA03F3BB60BB68BF
:1018800007EE903AF8EE676AFB6807EE903AF8EEDA
:10189000677A86EEA77A2A4B1B6BC3F3080307EE21
:1018A000903AF8EE676A97ED066ADFED2A5AC6EEBF
:1018B000257A76EEA77AF7EE006A77EEA67A67EEDB
:1018C000277AC7ED057A00BF1D4B1B6B5B0A03F03F
:1018D0007F0301337B607B6807EE903AB8EE677A4E
:1018E000D7ED056AC6EE877AFCEEE77A17EE903AF6
:1018F000FB610CE00023FB6109E0114B1B68DB0876
:1019000003F003030F4A22FA03F3FB6100BF0C4B01
:101910009B6903F00F033B603B68072B07D93B68CB
:10192000073BFA6922FA03F30C4A136002E00B4A00
:10193000FB69136000BF2437BD465DF8047B704728
:10194000004402580090D00300093D0000366E01AB
:10195000001BB74B000000460024744A1C00002402
:1019600080B500AF01F060FA07F01AFD0346012BC5
:1019700014BF01230023DBB2002B01D009F03CF897
:1019800000BF80BD80B58AB000AF78607B681B68FF
:101990007B627B685B683B627B689B68FB617B6802
:1019A000DB68BB617B681B697B617B685B693B6152
:1019B0007B689B69FB607B68DB69BB601C4810F03F
:1019C00029FC1C4810F026FCF9681B4810F0B2FBFB
:1019D00039691A4810F0AEFB3A6A796A184810F073
:1019E000A9FBBA69F969174810F0A4FBBA687969CC
:1019F000154810F09FFB154B9B6A1946144810F0D0
:101A000099FB124BDB6A1946124810F093FB0F4BFF
:101A10005B6B1946104810F08DFB0C4B9B6B194605
:101A20000E4810F087FB0E4810F0F4FB00BFFDE7F6
:101A3000D8370170043801702038017030380170D7
:101A400040380170603801708038017000ED00E0AE
:101A5000A0380170B8380170D0380170E8380170D2
:101A6000003901701EF0040F0CBFEFF30880EFF394
:101A70000980FFF787BF00BFFFF7F4FF00BFFFF744
:101A8000F1FF00BFFFF7EEFF00BF000080B483B09E
:101A900000AF7860044A7B681A607B6818460C3790
:101AA000BD465DF8047B7047103D017080B584B081
:101AB00000AFF860B9601346FB80FB681846FFF77B
:101AC000E5FF074AFB681A60FB68BA685A60FB6862
:101AD000FA881A81FB6818461037BD4680BD00BFE2
:101AE000303D017080B582B000AF78607B68586887
:101AF0007B681B890122194603F0C4FB00BF08372D
:101B0000BD4680BD80B582B000AF78607B68586804
:101B10007B681B890022194603F0B4FB00BF08371D
:101B2000BD4680BD80B582B000AF78607B685A68E2
:101B30007B681B891946104603F0BCFB00BF0837C1
:101B4000BD4680BD80B582B000AF78607B685A68C2
:101B50007B681B891946104603F07CFB0346012B6A
:101B60000CBF01230023DBB218460837BD4680BDF9
:101B700080B483B000AF7860044A7B681A607B68E9
:101B800018460C37BD465DF8047B7047F83C017081
:101B900080B584B000AFF860B9607A60FB68184621
:101BA000FFF7E6FF174AFB681A60FB6804339422CC
:101BB0000021184610F074FCFB68BA685A60FB6894
:101BC0007A689A60FB680022DA60FB6800221A617A
:101BD000FB6800225A61FB680C229A61FB680022B4
:101BE000DA61FB6800221A62FB6800225A62FB6815
:101BF00000229A62FB680022DA62FB6818461037FE
:101C0000BD4680BD503D017080B582B000AF7860A8
:101C10007B680433184605F003FC0346002B0CBF19
:101C200001230023DBB218460837BD4680BD80B5CE
:101C300084B000AFF860B9607A60FB68181D7B68FB
:101C40009AB24FF0FF33B96805F044FC0346002B0D
:101C50000CBF01230023DBB218461037BD4680BD00
:101C600080B584B000AFF860B9607A60FB68181D79
:101C70007B689AB24FF0FF33B96805F0C4FC0346A5
:101C8000002B0CBF01230023DBB218461037BD46E2
:101C900080BD000080B500AF0C4B1B68002B12D03C
:101CA0000A4B1B68184601F053FE084B1B681B6863
:101CB000064A1268126803F58053D3F8603102F5C2
:101CC0008052C2F8603100BF80BD00BFF002002426
:101CD00080B483B000AF786000BF0C37BD465DF8BC
:101CE000047B704780B483B000AF786000BF0C37CE
:101CF000BD465DF8047B704780B483B000AF786068
:101D000000BF0C37BD465DF8047B704780B483B0DC
:101D100000AF78600B4B1B6840F2DC5202FB03F310
:101D2000094A1A447B681A60064B1B68013303F0AA
:101D30000303044A136000BF0C37BD465DF8047B03
:101D4000704700BFF40200246000003080B58CB002
:101D500000AFF860B9607A607B807B887A68FA614E
:101D6000BB61BB69002B1DDDFB6903F01F02BB6972
:101D700013447B61FB693B61BFF34F8F00BF284A6F
:101D80003B69C2F85C323B6920333B617B69203B95
:101D90007B617B69002BF2DCBFF34F8F00BFBFF389
:101DA0006F8F00BF00BF7B884FF4C17219460020BF
:101DB00009F030F9B862BB6A002B05D07B881A465F
:101DC0007968B86A09F04AFBFB687B62BB683B62D2
:101DD000BB6A002B20D07B6A1B68002B03D17B6A77
:101DE000BA6A1A6003E03B6A1B68BA6A1A603B6A07
:101DF000BA6A1A607B6A1B68FB6209E0FB6A1A898F
:101E00007B8813449AB2FB6A1A81FB6A1B68FB62E7
:101E1000FB6A002BF2D100E000BF3037BD4680BD29
:101E200000ED00E080B483B000AF7860044A7B68C6
:101E30001A607B6818460C37BD465DF8047B704716
:101E4000B43D017080B483B000AF7860044A7B6811
:101E50001A607B6818460C37BD465DF8047B7047F6
:101E6000B43D017080B582B000AF78607868FFF74C
:101E7000E9FF042178680FF020FE7B6818460837D8
:101E8000BD4680BD80B483B000AF7860044A7B68F3
:101E90001A607B6818460C37BD465DF8047B7047B6
:101EA0009C3D017080B582B000AF78607868FFF724
:101EB000E9FF042178680FF000FE7B6818460837B8
:101EC000BD4680BD80B582B000AF7860054A7B68B2
:101ED0001A607B681846FFF7D5FF7B6818460837FD
:101EE000BD4680BDE83D017080B582B000AF78602E
:101EF0007868FFF7E7FF082178680FF0DEFD7B6860
:101F000018460837BD4680BD80B584B000AFF86084
:101F1000B9607A60FB681846FFF784FF104AFB68D7
:101F20001A60FB68BA68043307CA83E80700FB68D5
:101F30007A681A61FB6803F1C402FB68143319461E
:101F4000104600F01BFCFB680022C3F8CC20FB68A5
:101F50000022C3F8D020FB6818461037BD4680BD6C
:101F6000683D017080B582B000AF78600A4A7B6836
:101F70001A607B681433184601F08AFA7B68C43310
:101F80001846FFF79FFF7B681846FFF75BFF7B68EB
:101F900018460837BD4680BD683D017080B582B0E7
:101FA00000AF78607868FFF7DDFFD42178680FF024
:101FB00084FD7B6818460837BD4680BD80B58AB071
:101FC00000AF7860714BD3F83C31704A43F0005356
:101FD000C2F83C316D4BD3F83C31FB60FB686C4B75
:101FE0000022C3F88420BFF34F8F00BF684BD3F8A3
:101FF0008030BB61BB695B0BC3F30E037B61BB69C4
:10200000DB08C3F309033B617B695A0143F6E073C4
:1020100013403A6992075E491343C1F874323B6931
:102020005A1E3A61002B14BF01230023DBB2002BA0
:10203000EAD17B695A1E7A61002B14BF0123002369
:10204000DBB2002BDBD1BFF34F8F00BFBFF36F8F2D
:1020500000BF00BFBFF34F8F00BFBFF36F8F00BF44
:102060007B681433B0220021184610F019FA7B68FF
:10207000484A5A617B681A1D7B689A617B68DB68F5
:10208000DAB27B681A777B68434A1A627B68434AF4
:102090005A627B6840F2DC529A627B681433404A91
:1020A00013603B4B0022C3F88420BFF34F8F00BF67
:1020B000374BD3F880307B627B6A5B0BC3F30E0334
:1020C0003B627B6ADB08C3F30903FB613B6A5A018D
:1020D00043F6E0731340FA6992072D491343C1F8A0
:1020E0007432FB695A1EFA61002B14BF01230023CE
:1020F000DBB2002BEAD13B6A5A1E3A62002B14BFB6
:1021000001230023DBB2002BDBD1BFF34F8F00BFD5
:10211000BFF36F8F00BF00BF7B681433184601F018
:10212000BBF80346002B14BF01230023DBB2002BB6
:1021300004D01C4810F06EF8002322E05C2000F070
:10214000F4FF7B681B691B6808331B687A68106999
:102150007A68C432114698477B681B691B680C3348
:102160001B687A68126910469847034683F001039A
:10217000DBB2002B04D00C4810F04CF8002300E038
:10218000012318462837BD4680BD00BF00440258D1
:1021900000ED00E000800240E01700300000003059
:1021A000F00200245C3901707C39017080B5A6B062
:1021B00000AF7860396000F04BFEC7F890009DE0FA
:1021C0007B681B691B6810331B687A6812691046AC
:1021D00098470346002B00F08E807B681B691B68C4
:1021E00018331B687A68106907F1800207F18401CF
:1021F0009847D7F88430012B02D14FF4804300E098
:102200000023C7F88C30D7F88030012B02D14FF46F
:10221000005300E00023C7F888307B68143307F1CF
:1022200008021146184601F04FFD0346002B0CBF73
:1022300001230023DBB2002B0DD0D7F88C30FB61DB
:10224000D7F888303B627B68143307F108021146E7
:10225000184601F00DFF33480FF0DCFF0023C7F8EC
:1022600094301FE00023FB667B6803F11400D7F86D
:10227000942007F16C03002101F07DFC0346002B44
:102280000CBF01230023DBB2002B06D0FB6E1A46E5
:10229000D7F8941024480FF04DFFD7F8943001334D
:1022A000C7F89430D7F894301F2BDBDD1F480FF0B0
:1022B000B1FF7B681433184601F0FEF87B681433D5
:1022C00007F170021146184601F088FF0346002B03
:1022D0000CBF01230023DBB2002B0AD0012387F8B7
:1022E00070307B68143307F170021146184601F014
:1022F00029FF012312E00A2000F0B6FD00F0A8FD3E
:102300000246D7F89030D31A3A689A428CBF01231C
:102310000023DBB2002B7FF453AF0023184698371D
:10232000BD4680BD98390170BC390170DC3901703F
:1023300080B582B000AF78607B681B691B68103382
:102340001B687A6812691046984703461846083792
:10235000BD4680BD80B582B000AF78607B681B69E8
:102360001B6814331B687A68126910469847034645
:1023700018460837BD4680BD80B485B000AFF86010
:10238000B9607A60FB68BA68C3F8CC20FB687A68E9
:10239000C3F8D02000BF1437BD465DF8047B7047FA
:1023A00080B5A0B000AFF860B9601346FB80FB8831
:1023B00040F2DC52934202D8BB68002B01D10023CB
:1023C000A8E0564B1B6840F2DC5202FB03F3544A70
:1023D0001344FB67514B1B68013303F003034F4A5F
:1023E0001360FB881A46B968F86F10F0DEF8FB6FCF
:1023F00023F01F03BB67FA6FBB6FD21AFB8813442D
:102400001F3323F01F037B67BA6F7B6F3A66FB6550
:10241000FB6D002B1DDD3B6E03F01F02FB6D1344B3
:10242000BB653B6E7B65BFF34F8F00BF3D4A7B6D45
:10243000C2F868327B6D20337B65BB6D203BBB658A
:10244000BB6D002BF2DCBFF34F8F00BFBFF36F8F6C
:1024500000BF00BFFB6FBB64FB88FB6400233B65D0
:1024600007F1100338220021184610F019F8202334
:102470003B6100233B62FB887B6107F14803BB6142
:10248000294B3B676023FB66FB6E002B1DDD3B6F1A
:1024900003F01F02FB6E1344BB663B6F7B66BFF30A
:1024A0004F8F00BF1F4A7B6EC2F868327B6E2033AD
:1024B0007B66BB6E203BBB66BB6E002BF2DCBFF3C2
:1024C0004F8F00BFBFF36F8F00BF00BFFB8819465F
:1024D00016480FF02FFEFB68143307F11001642239
:1024E000184601F04BF80346002B14BF01230023CC
:1024F000DBB2002B0DD0FB68D3F89C10FB68D3F83F
:10250000A020FB68D3F8983009480FF013FE002391
:1025100000E0012318468037BD4680BDF802002444
:102520004018003000ED00E0E0170030003A017084
:102530001C3A017080B58CB000AF78600023FB605E
:102540003E4BFB626023BB62BB6A002B1DDDFB6A56
:1025500003F01F02BB6A13447B62FB6A3B62BFF35A
:102560004F8F00BF364A3B6AC2F85C323B6A203369
:102570003B627B6A203B7B627B6A002BF2DCBFF311
:102580004F8F00BFBFF36F8F00BF00BF41E0FB68FC
:10259000002B18D0FB681B8919462A480FF0CAFD8A
:1025A0007B68D3F8CC30002B09D07B68D3F8CC30D3
:1025B0007A68D2F8D020F9681046984703E0FB68A3
:1025C000184608F0DBFC1D4BFB616023BB61BB6957
:1025D000002B1DDDFB6903F01F02BB6913447B6107
:1025E000FB693B61BFF34F8F00BF154A3B69C2F8DF
:1025F0005C323B6920333B617B69203B7B617B69BB
:10260000002BF2DCBFF34F8F00BFBFF36F8F00BF13
:1026100000BF7B68143307F10C021146184601F025
:1026200044F80346002B0CBF01230023DBB2002B30
:10263000ADD100BF00BF3037BD4680BD00000030C7
:1026400000ED00E05C3A017080B485B000AF7860C6
:1026500039600023FB600BE0FB683A68134479683B
:10266000FA680A44043212781A70FB680133FB607E
:10267000FB68052BF0DD00BF00BF1437BD465DF8D9
:10268000047B704780B582B000AF786026480FF0B9
:10269000C1FD264BDB68194625480FF04BFD254A46
:1026A000224925480FF046FD7B685B691B68194687
:1026B00022480FF03FFD7B685B6903F58053D3F838
:1026C000603119461E480FF035FD7B685B69D3F811
:1026D000003719461B480FF02DFD7B685B69D3F866
:1026E0009437194618480FF025FD7B685B69D3F8CD
:1026F0009837194615480FF01DFD7B685B69D3F8C4
:10270000C437194612480FF015FD7B685B69D3F892
:10271000F83719460F480FF00DFD0F480FF07AFDFE
:1027200000BF0837BD4680BD783A01700000003018
:10273000983A017060000030B83A0170E03A0170D8
:10274000F83A0170103B0170283B0170483B017062
:10275000683B0170883B0170A83B017080B483B076
:1027600000AF7860044A7B681A607B6818460C37B3
:10277000BD465DF8047B70479C3D017080B582B01A
:1027800000AF786039607B681846FFF7E7FF054ABD
:102790007B681A607B683A685A607B68184608371D
:1027A000BD4680BDE83D017080B586B000AFF860E1
:1027B0007B600B46FB721346BB7200237B61FB6898
:1027C0005868F97ABA7A07F1140301F0D4F903468C
:1027D000002B14BF01230023DBB2002B01D0002308
:1027E00004E07B699AB27B681A8001231846183787
:1027F000BD4680BD80B582B000AF78600846114606
:102800001A460346FB700B46BB7013463B807B6841
:102810005868F978BA783B8801F002FA0346002B31
:102820000CBF01230023DBB218460837BD4680BD2C
:1028300080B483B000AF7860044A7B681A607B681C
:1028400018460C37BD465DF8047B7047983C017014
:1028500080B582B000AF78600B46FB707B6818468D
:10286000FFF7E6FF064A7B681A607B6800225A6021
:102870007B68FA781A727B6818460837BD4680BDB7
:10288000003E017080B483B000AF786039607B682F
:102890003A685A6000BF0C37BD465DF8047B70474C
:1028A00090B585B000AF78607B685B68002B01D184
:1028B000002369E000237B817B685B681B68083329
:1028C0001C687B6858687B68197A07F10A03002244
:1028D000A047034683F00103DBB2002B04D02C4851
:1028E0000FF098FC00234FE07A892A4B13439BB2E8
:1028F0007B817B685B681B680C331C687B6858684D
:102900007B68197A7B890022A04700F0A1FAF86061
:102910000A2000F0A9FA7B685B681B6808331C6812
:102920007B6858687B68197A07F10A030022A04780
:10293000034683F00103DBB2002B04D016480FF0EE
:1029400069FC002320E07B891BB2002B09DA00F030
:102950007FFA0246FB68D31AB3F5FA7F01D201234E
:1029600000E00023002BD3D17B891BB2002B04DABB
:102970000A480FF04FFC002306E07B681B7A1946DB
:1029800007480FF0D7FB012318461437BD4690BD0A
:10299000C83B01700080FFFFF03B0170183C0170E4
:1029A0003C3C017090B585B000AF78607B685B6897
:1029B000002B01D1002324E00023FB817B685B68AE
:1029C0001B6808331C687B6858687B68197A07F1B4
:1029D0000E030122A047034683F00103DBB2002B64
:1029E00001D000230DE0FB8903F00403002B06D087
:1029F000FB8903F02003002B01D0012300E000231A
:102A000000BF18461437BD4690BD90B585B000AFE5
:102A100078607B685B68002B02D14FF0FF3333E0B6
:102A20000023FB810023BB817B685B681B68083344
:102A30001C687B6858687B68197A07F10E030222CC
:102A4000A047034683F00103DBB2002B02D04FF016
:102A5000FF3319E07B685B681B6808331C687B6880
:102A600058687B68197A07F10C030322A0470346D4
:102A700083F00103DBB2002B02D04FF0FF3303E001
:102A8000FB891B04BA89134318461437BD4690BD11
:102A900090B587B000AFF860B9607A60FB685B689A
:102AA000002B01D1002341E00023BB82FB685B685F
:102AB0001B6808331C68FB685868FB68197A07F1C3
:102AC00014031F22A047034683F00103DBB2002B4F
:102AD00001D000232AE0BB8A03F01C03FB82FB8A9F
:102AE000182B06D0182B19DC082B09D0142B0ED06C
:102AF00014E0BB6801221A607B6801221A6014E0AE
:102B0000BB6801221A607B6800221A600DE0BB6876
:102B100000221A607B6801221A6006E0BB6800226E
:102B20001A607B6800221A6000BF012318461C3718
:102B3000BD4690BD80B483B000AF7860044A7B6826
:102B40001A607B6818460C37BD465DF8047B7047F9
:102B5000403E017080B483B000AF7860044A7B6867
:102B60001A607B6818460C37BD465DF8047B7047D9
:102B7000403E017080B582B000AF78607868FFF7A2
:102B8000E9FF042178680EF098FF7B681846083743
:102B9000BD4680BD80B584B000AFF860B9607A6092
:102BA0007B80FB681846FFF7C5FF0B4AFB681A607D
:102BB000FB68BA685A60FB6800229A60FB687A6812
:102BC000DA60FB687A881A82FB68BA695A61FB6826
:102BD00018461037BD4680BD243E017080B582B0D6
:102BE00000AF78600A4A7B681A607B689B68002B9C
:102BF00004D07B689B68184605F0ECFC7B6818469F
:102C0000FFF7A8FF7B6818460837BD4680BD00BFA8
:102C1000243E017080B582B000AF78607868FFF71D
:102C2000DDFF182178680EF048FF7B6818460837EA
:102C3000BD4680BD80B586B002AF78607B689B687A
:102C4000002B01D0002315E07B68D9687B68188AC7
:102C50007B685B697A680832019200937B68024660
:102C6000064805F094FBF860FB68012B0CBF0123BC
:102C70000023DBB218461037BD4680BDC52C00705E
:102C800080B582B000AF78607B689B68002B04D071
:102C90007B689B68184605F035FD00BF0837BD46C8
:102CA00080BD80B582B000AF78607B689B68002BE8
:102CB00004D07B689B68184605F0D0FD00BF08373C
:102CC000BD4680BD80B584B000AF78607B68FB6096
:102CD000FB685B681B6808331B68FA68526810461B
:102CE0009847002005F076FC00BF1037BD4680BD38
:102CF0002DE9B04F82B000AF7860796800200C46B3
:102D00000546204629464FF0000A4FF0000B4FEAD7
:102D1000411B4BEAD06B4FEA401A50465946021B02
:102D200061EB05034FF000004FF00001990041EA0C
:102D30009271900002460B4612EB040843EB050922
:102D40004FF000024FF000034FEAC90343EA587303
:102D50004FEAC80290469946404649464FF47A7277
:102D60004FF00003FDF7A4FA02460B46134618463F
:102D700005F0A4FC00BF0837BD46BDE8B08F80B5A4
:102D800082B000AF0023FB71032000F09BF90F20FD
:102D900000F00EF80346002B02D00123FB7101E086
:102DA000FEF7E9FAFB7918460837BD4680BD0000FA
:102DB00080B584B000AF78600023FB73174B1B789D
:102DC000002B23D0164B1A68144B1B7819464FF46E
:102DD0007A73B3FBF1F3B2FBF3F3184600F0B3F9E7
:102DE0000346002B0FD17B680F2B09D8002279688E
:102DF0004FF0FF3000F071F90A4A7B68136007E07A
:102E00000123FB7304E00123FB7301E00123FB7347
:102E1000FB7B18461037BD4680BD00BF2400002450
:102E20001C0000242000002480B400AF064B1B7857
:102E30001A46064B1B681344044A136000BFBD4684
:102E40005DF8047B704700BF24000024FC020024CE
:102E500080B400AF034B1B681846BD465DF8047B89
:102E6000704700BFFC02002480B584B000AF7860DA
:102E7000FFF7EEFFB8607B68FB60FB68B3F1FF3FD4
:102E800005D00A4B1B781A46FB681344FB6000BF51
:102E9000FFF7DEFF0246BB68D31AFA689A42F7D8FA
:102EA00000BF00BF1037BD4680BD00BF2400002416
:102EB00080B483B000AF7860074BD3F8003123F4BF
:102EC000600205497B681343C1F8003100BF0C372D
:102ED000BD465DF8047B70470004005880B485B09F
:102EE00000AF78607B6803F00703FB600B4BDB6887
:102EF000BB60BA684FF6FF031340BB60FB681A0261
:102F0000BB681A43064B1343BB60044ABB68D360DB
:102F100000BF1437BD465DF8047B704700ED00E04C
:102F20000000FA0580B400AF044BDB681B0A03F015
:102F300007031846BD465DF8047B704700ED00E0CE
:102F400080B483B000AF0346FB80B7F90630002B96
:102F50000BDBFB8803F01F020749B7F906305B095A
:102F6000012000FA02F241F8232000BF0C37BD46D1
:102F70005DF8047B704700BF00E100E080B483B0DF
:102F800000AF0346FB80B7F90630002B12DBFB884D
:102F900003F01F020A49B7F906305B09012000FA65
:102FA00002F2203341F82320BFF34F8F00BFBFF35D
:102FB0006F8F00BF00BF0C37BD465DF8047B7047C4
:102FC00000E100E080B483B000AF03463960FB80CD
:102FD000B7F90630002B0ADB3B68DAB20C49B7F9C7
:102FE00006301201D2B20B4483F800230AE03B689A
:102FF000DAB20849FB8803F00F03043B1201D2B296
:103000000B441A7600BF0C37BD465DF8047B704751
:1030100000E100E000ED00E080B489B000AFF860AE
:10302000B9607A60FB6803F00703FB61FB69C3F1D9
:103030000703042B28BF0423BB61FB690433062B61
:1030400002D9FB69033B00E000237B614FF0FF32B4
:10305000BB6902FA03F3DA43BB681A407B699A4002
:103060004FF0FF317B6901FA03F3D9437B680B40D2
:10307000134318462437BD465DF8047B70470000B3
:1030800080B582B000AF78607B68013BB3F1807F90
:1030900001D301230FE00A4A7B68013B53600F21F3
:1030A0004FF0FF30FFF78EFF054B00229A60044B74
:1030B00007221A60002318460837BD4680BD00BFAE
:1030C00010E000E080B582B000AF78607868FFF76C
:1030D00005FF00BF0837BD4680BD80B586B000AF94
:1030E0000346B9607A60FB81FFF71CFF78617A685C
:1030F000B9687869FFF790FF0246B7F90E301146BC
:103100001846FFF75FFF00BF1837BD4680BD80B58A
:1031100082B000AF0346FB80B7F906301846FFF7D0
:103120000FFF00BF0837BD4680BD80B582B000AF3D
:103130000346FB80B7F906301846FFF71FFF00BFB4
:103140000837BD4680BD80B582B000AF7860786832
:10315000FFF796FF034618460837BD4680BD0000BE
:1031600080B483B000AF7860BFF35F8F00BF0B4ABD
:103170007B6843F001035360094B5B6A084A43F4E0
:1031800080335362BFF34F8F00BFBFF36F8F00BF19
:1031900000BF0C37BD465DF8047B704790ED00E042
:1031A00000ED00E080B400AFBFF35F8F00BF0A4BBB
:1031B0005B6A094A23F480335362084B00225A6049
:1031C000BFF34F8F00BFBFF36F8F00BF00BFBD467F
:1031D0005DF8047B704700BF00ED00E090ED00E07B
:1031E00080B483B000AF7860074A7B689360064B79
:1031F0001B69054A23F00103136100BF0C37BD466C
:103200005DF8047B704700BF90ED00E080B483B0B0
:1032100000AF78607B685A781E4B9A601D4B1B6923
:103220001C4A23F0010313611A4B1B69194A23F04E
:1032300001031361174A7B685B68D3607B681B7B63
:103240001A077B68DB7A1B061A437B689B7ADB04D0
:103250001A437B685B7B9B041A437B689B7B5B0404
:103260001A437B68DB7B1B041A437B685B7A1B0277
:103270001A437B681B7A5B0013437A681278114605
:10328000044A0B43136100BF0C37BD465DF8047B55
:10329000704700BF90ED00E080B584B000AF78606B
:1032A0007B68002B01D10123E2E07B68D3F88430F6
:1032B000002B06D17B682022C3F884207868FEF7B3
:1032C00061F86D4BD3F854316B4A43F00203C2F8F6
:1032D0005431694BD3F85431BB60BB687B681B7AAF
:1032E000002B03D10020FFF7E3FD03E04FF40000C3
:1032F000FFF7DEFD614BD3F800317B681B6803F5F7
:1033000080531B687A68126843F0010302F580520B
:103310001360FFF79DFDF86011E0FFF799FD02468D
:10332000FB68D31AB3F5FA7F09D97B680422C3F886
:1033300088207B68E022C3F88420012398E07B6822
:103340001B6803F580531B6803F00103002BE4D1D5
:10335000786800F0A7FE02F067FC0346484AA2FB2B
:1033600003239A0C7B681B68013AC3F8DC20786859
:1033700001F06CF97B681B6803F58053D3F80031CA
:1033800023F4E0137A68126843F4002302F58052B4
:10339000C2F800317B685B6903F00303002B09D09E
:1033A0007B680122C3F888207B68E022C3F8842070
:1033B00001235DE07B681B6803F58053D3F8082187
:1033C000304B13407A68526951007A6812680B4397
:1033D00002F58052C2F80831786801F0D4F97868B3
:1033E00001F01AFA7B685B6805331B781A027B6868
:1033F0005B6804331B7819467B681B680A43C3F873
:1034000000237B685B6803331B781A067B685B6864
:1034100002331B781B041A437B685B6801331B78FB
:103420001B021A437B685B681B7819467B681B6824
:103430000A43C3F804237B681B68D3F80C177B6826
:103440001A68114B0B43C2F80C377B681B68D3F822
:1034500010177B681A680D4B0B43C2F810377B6856
:103460000022C3F888207B681022C3F88420002340
:1034700018461037BD4680BD00440258000400586D
:1034800083DE1B430180FFFF6000020C00C0200CA4
:1034900080B582B000AF78607B682022C3F88420BA
:1034A0007868FEF79FF87B680022C3F88420002329
:1034B00018460837BD4680BD80B582B000AF786041
:1034C0007B68D3F88430102B53D17B682022C3F85B
:1034D00084207B680422DA66786800F0BBF97B6898
:1034E0001B681A687B681B6842F002021A607B68DE
:1034F0001B681A687B681B6842F001021A607B68CF
:103500001B68D3F8002D7B681B6842F00102C3F8EA
:10351000002D7B681B6803F58053D3F804317A686B
:10352000126843F0010302F58052C2F804317B684F
:103530001B6803F58053D3F808317A68126843F0AA
:10354000010302F58052C2F808317B681B6803F55D
:103550008053D3F860317A68126843F4817302F5BE
:103560008052C2F860317B684022C3F88420002377
:1035700000E0012318460837BD4680BD80B586B0FF
:1035800000AFF860B9607A60BB68002B09D1FB68B6
:10359000D3F8883043F00102FB68C3F88820012388
:1035A0007FE0FB68D3F88430402B79D10022B968E2
:1035B000F86801F08FF90346002B09D0FB68D3F8B7
:1035C000883043F00202FB68C3F88820012368E0DA
:1035D000BFF34F8F00BFFB689A6AFB68063253F84F
:1035E00022307B61FB689B6A5A1CFB689A62FB680D
:1035F0009B6A032B04D9FB689B6A1A1FFB689A62BB
:10360000FB68996AFB681A68FB68063153F8213039
:1036100002F58052C2F82031FFF71AFC386139E018
:10362000FB681B6803F58053D3F8603103F48053C3
:10363000002B12D0FB68D3F8883043F00802FB68F7
:10364000C3F88820FB681B6803F58053D3F860211A
:10365000FB68C3F88C20012323E07B68B3F1FF3FB4
:1036600018D0FFF7F5FB02463B69D31A7A689A42F5
:1036700002D37B68002B0DD1FB68D3F8883043F070
:103680000402FB68C3F888207B694FF04052DA607F
:10369000012306E07B69DB68002BC1DB002300E02F
:1036A000012318461837BD4680BD80B58AB000AFEB
:1036B000786039600023BB610023FB753B68002BF9
:1036C00009D17B68D3F8883043F001027B68C3F8E6
:1036D00088200123BAE07B68D3F88430402B01D0E6
:1036E0000123B3E07B68DB6D7B627B687A6A123210
:1036F00053F82230FB617B68DB6EC3F104033B614E
:103700007BE0FB69DB6803F00053002B03D17B688F
:10371000DB6F002B5FD0FB69DB6803F00053002BED
:1037200005D07B6800221A667B6800225A66FB6916
:10373000DB68C3F30E027B685B6ED31AFB60FB6928
:10374000DB6803F08053002B2AD0FB69DA687B68C2
:103750001A670123FB75FB695B6803F48043002B48
:103760001ED07B6A3B623B6A01333B623B6A032BA0
:1037700002D93B6A043B3B627B683A6A123253F8D7
:103780002230BB60BB68DB6803F08043002B07D0AE
:10379000BB685A687B689A67BB681A687B685A6717
:1037A0007B6803F17C007B6803F18001FB691B6986
:1037B0001A46FB689BB2FEF7C9FA7B681B6E5A1C5F
:1037C0007B681A667B685A6EFB681A447B685A6687
:1037D000FB6900221A617B6A01337B627B6A032BDF
:1037E00002D97B6A043B7B627B687A6A123253F8A7
:1037F0002230FB61BB690133BB61FB69DB68002BD5
:1038000007DBBA693B699A4203D2FB7D002B3FF488
:1038100078AF7B68DA6EBB691A447B68DA667B68CE
:10382000DB6E002B02D0786800F014F87B687A6AAF
:10383000DA65FB7D012B08D17B68DA6F3B681A6083
:103840007B680022DA67002300E00123184628374E
:10385000BD4680BD80B588B000AF78600023BB60F6
:103860000123FB747B689B6EFB617B68FA691232F3
:1038700053F822307B617B68DB6EBB613DE07B6986
:103880001B69002B13D107F108031846FEF73EFA17
:10389000BB68002B02D10023FB740CE0BB681A4606
:1038A0007B691A61BB681A467B691A6003E07B6911
:1038B0001A697B691A60FB7C002B1ED07B689B6DAC
:1038C000002B04D07B694FF04142DA6003E07B6952
:1038D0004FF00142DA60FB690133FB61FB69032BA6
:1038E00002D9FB69043BFB617B68FA69123253F829
:1038F00022307B61BB69013BBB61BB69002B02D0FD
:10390000FB7C002BBBD17B68DB6EBA699A421BD073
:10391000FB69033303F00303FB60BFF35F8F00BF5A
:103920007B681969FA6813465B001344DB00CA1808
:103930007B681B6803F58053C3F828217B68FA690C
:103940009A667B68BA69DA6600BF2037BD4680BDDB
:1039500080B586B000AF78607B681B68D3F8B03064
:103960007B617B681B6803F58053D3F860313B6152
:103970007B681B6803F58053D3F83431FB604FF04C
:10398000B043D3F89830BB603B6903F04003002B91
:1039900010D0FB6803F04003002B0BD07B681B6842
:1039A00003F580531A4648F24003C2F86031786844
:1039B000FEF798F93B6903F00103002B10D0FB6878
:1039C00003F00103002B0BD07B681B6803F58053C9
:1039D0001A4648F20103C2F860317868FEF778F9B8
:1039E0003B6903F48043002B47D0FB6803F480431A
:1039F000002B42D07B68D3F8883043F008027B6804
:103A0000C3F888203B6903F48053002B1ED07B68E9
:103A10001B6803F58053D3F8602141F20213134071
:103A20007A68C2F88C307B681B6803F58053D3F842
:103A300034317A68126823F4404302F58052C2F8A8
:103A400034317B68E022C3F8842013E07B681B6874
:103A500003F58053D3F8603103F4CD427B68C3F89B
:103A60008C207B681B6803F580531A464FF4CD43C6
:103A7000C2F860317868FEF73FF97B6903F4804350
:103A8000002B04D17B6903F40053002B19D07B6811
:103A9000D3F8883043F010027B68C3F888207B6835
:103AA0001B68D3F8B8207B68C3F890207B68E022BD
:103AB000C3F884207868FEF71FF97B680022C3F8FA
:103AC00090207B6903F01003002B0FD07B681B68EC
:103AD000D3F8C03003F060027B68C3F894207868A4
:103AE00000F02BF87B680022C3F894207B6903F078
:103AF0002003002B0FD07B681B68D3F8D03003F075
:103B00000F027B68C3F89820786800F020F87B6883
:103B10000022C3F89820BB6803F48043002B08D030
:103B20004FF0B0434FF48042C3F89820786800F01B
:103B300018F800BF1837BD4680BD80B483B000AF11
:103B4000786000BF0C37BD465DF8047B704780B4D9
:103B500083B000AF786000BF0C37BD465DF8047BD2
:103B6000704780B483B000AF786000BF0C37BD46AB
:103B70005DF8047B704780B586B000AFF860B9602F
:103B80007A603B60FB681B68D3F8003203F00103E6
:103B9000002B01D001233EE0FB681B68D3F8003204
:103BA0007B617B6923F07872BB685B0513437B61A3
:103BB0007B6923F4F8127B681B0413437B617B69E8
:103BC00043F00C037B617B6943F001037B61FB687D
:103BD0001B687A69C3F80022FFF73AF9386109E0F7
:103BE000FFF736F902463B69D31AB3F57A7F01D95C
:103BF000012310E0FB681B68D3F8003203F00103D7
:103C0000002BEDD1FB681B68D3F804329BB21A4637
:103C10003B681A60002318461837BD4680BD000077
:103C200080B586B000AFF860B9607A603B60FB6831
:103C30001B68D3F8003203F00103002B01D00123ED
:103C40003CE0FB681B68D3F800327B617B6923F0A2
:103C50007872BB685B0513437B617B6923F4F812C0
:103C60007B681B0413437B617B6923F00C0343F0E7
:103C700004037B617B6943F001037B613B689AB27B
:103C8000104BC3F804220F4A7B69C2F80032FFF7D9
:103C9000DFF8386109E0FFF7DBF802463B69D31A29
:103CA000B3F57A7F01D9012308E0FB681B68D3F8DC
:103CB000003203F00103002BEDD100231846183722
:103CC000BD4680BD0080024080B483B000AF786004
:103CD00039603B68002B01D10123C3E17B681B687D
:103CE0001B6803F00C023B68DA627B681B681B6888
:103CF00003F01003002B14BF01230023DBB21A468C
:103D00003B6883F828207B681B681B6803F060020F
:103D10003B685A627B681B681B6803F48073002B46
:103D20000CBF01230023DBB21A463B6883F8202036
:103D30007B681B681B6803F40073002B14BF01230E
:103D40000023DBB21A463B68DA777B681B681B6886
:103D500003F48063002B0CBF01230023DBB21A465F
:103D60003B689A777B681B681B6803F40063002B31
:103D700014BF01230023DBB21A463B685A777B68E5
:103D80001B681B6803F48053002B14BF012300231E
:103D9000DBB21A463B681A777B681B681B6803F422
:103DA00000523B689A617B681B681B6803F4804281
:103DB0003B685A617B681B681B6803F48033002BE7
:103DC00014BF01230023DBB21A463B689A747B6858
:103DD0001B681B6803F40033002B0CBF0123002376
:103DE000DBB21A463B685A747B681B681B6803F495
:103DF0000023002B0CBF01230023DBB21A463B68D3
:103E00001A747B681B681B6803F48013002B14BFB3
:103E100001230023DBB21A463B68DA737B681B6818
:103E20001B6803F40013002B14BF01230023DBB233
:103E30001A463B689A737B681B681B6803F480030F
:103E4000002B14BF01230023DBB21A463B685A73D0
:103E50007B681B681B6803F40003002B14BF01235D
:103E60000023DBB21A463B681A737B681B681B6829
:103E700003F0E0623B689A607B681B681B6803F094
:103E80000063002B14BF01230023DBB21A463B68FA
:103E90001A717B681B681B6803F0E0423B681A607C
:103EA0007B681B685B68C3F30D023B685A637B68E1
:103EB0001B685B6803F48033002B0CBF01230023D5
:103EC000DBB21A463B6883F832207B681B685B686C
:103ED00003F40033002B14BF01230023DBB21A4686
:103EE0003B6883F831207B681B685B6803F48023A0
:103EF000002B14BF01230023DBB21A463B6883F872
:103F000030207B681B685B6803F08073002B14BF54
:103F100001230023DBB21A463B6883F838207B6814
:103F20001B685B685B0E03F01F023B68DA637B680B
:103F30001B68DB6803F48073002B14BF012300238C
:103F4000DBB21A463B6883F840207B681B68DB685D
:103F500003F00F023B685A647B681B681B6F03F019
:103F60000203002B14BF01230023DBB21A463B6877
:103F700083F854207B681B681B6F03F08003002BC1
:103F80000CBF01230023DBB21A463B6883F84C20A8
:103F90007B681B681B6F03F070023B681A657B68C7
:103FA0001B681B6F1B0C9AB23B689A647B681B688A
:103FB000D3F8903003F00103002B14BF012300233A
:103FC000DBB21A463B6883F856207B681B68D3F83F
:103FD000903003F00203002B14BF01230023DBB257
:103FE0001A463B6883F855207B681B68D3F8003D70
:103FF00003F072023B689A657B681B68D3F8303D1A
:1040000003F023023B68DA657B681B68D3F8303D18
:1040100003F00803002B14BF01230023DBB21A4670
:104020003B6883F862207B681B68D3F8303D03F05F
:104030001003002B14BF01230023DBB21A463B6898
:1040400083F861207B681B68D3F8303D03F04003A0
:10405000002B0CBF01230023DBB21A463B6883F818
:104060006020002318460C37BD465DF8047B70477E
:1040700080B582B000AF786039603B68002B01D119
:1040800001230BE07B68D3F88430102B05D139680D
:10409000786800F039F9002300E00123184608375A
:1040A000BD4680BD80B584B000AF78607B681B687A
:1040B000D3F80032FB60FB6823F47063FB6001F00F
:1040C000B3FDB860BB681A4A934204D8FB6843F456
:1040D0000073FB6022E0BB68164A934204D2FB687F
:1040E00043F44073FB6019E0BB68134A934215D94F
:1040F000BB68124A934204D8FB6843F48073FB60A8
:104100000CE0BB680E4A934204D8FB6843F480631A
:10411000FB6003E0FB6843F4A063FB607B681B6803
:10412000FA68C3F8002200BF1037BD4680BD00BF4B
:10413000BF0E160200879303FFE0F5057FD1F0085C
:104140007FB2E60E80B485B000AF786039603B681E
:10415000002B01D1012339E03B681B781A463B68EC
:10416000DB785B001A433B681B799B001A433B6872
:104170001B7ADB001A433B685B791B0113433A68E7
:10418000527A012A01D1202200E000221A433B6822
:10419000DB791B021A433B689B795B021A433B683D
:1041A0009B789B021A433B685B78DB071A433B68AA
:1041B000DB681343FB607B681B689A68064B1340FF
:1041C0007A681268F9680B43936000231846143725
:1041D000BD465DF8047B704700F8FF7F80B483B074
:1041E00000AF786039603B68002B01D1012384E087
:1041F0007B681B689B6803F00103002B14BF01233D
:104200000023DBB21A463B681A707B681B689B6808
:1042100003F00203002B14BF01230023DBB21A4674
:104220003B68DA707B681B689B6803F00403002B13
:1042300014BF01230023DBB21A463B681A717B6866
:104240001B689B6803F00803002B14BF01230023A5
:10425000DBB21A463B681A727B681B689B6803F0E6
:104260001003002B14BF01230023DBB21A463B6866
:104270005A717B681B689B6803F02003002B14BFF6
:1042800001230023DBB21A463B685A727B681B6825
:104290009B6803F0C0023B68DA607B681B689B6820
:1042A00003F48073002B14BF01230023DBB21A46F2
:1042B0003B68DA717B681B689B6803F40073002B12
:1042C00014BF01230023DBB21A463B689A717B6856
:1042D0001B689B6803F48063002B14BF0123002339
:1042E000DBB21A463B689A707B681B689B68DB0FE1
:1042F000DBB21A463B685A70002318460C37BD469D
:104300005DF8047B7047000080B485B000AF786032
:1043100039603B689A683B681B681A433B681B79A5
:10432000DB061A433B681B7BDB051A433B685B7B60
:104330009B051A433B689B7B5B051A433B68DB7B11
:104340001B0513433A68127C002A02D14FF4002265
:1043500000E0002213433A68527C002A02D14FF455
:10436000003200E000221A433B689B7C1B041A4386
:104370003B685B691A433B689B691A433B681B7F38
:104380001B031A433B685B7FDB0213433A68927F4F
:10439000002A02D14FF4806200E000221A433B68F9
:1043A000DB7F5B0213433A6892F82020002A02D197
:1043B0004FF4807200E000221A433B685B6A1A43A4
:1043C0003B6893F828301B011A433B68DB6A1343B0
:1043D000FB607B681B681A68564B13407A6812684A
:1043E000F9680B4313603B68DB6B5A063B6893F834
:1043F00038301B061A433B6893F830309B041A434D
:104400003B6893F831305B0413433A6892F83220EA
:10441000002A02D14FF4803200E000221A433B68A8
:104420005B6B1343FB607B681B685A68424B13400D
:104430007A681268F9680B4353603B6893F8403020
:104440001A023B685B6C1343FB607B681B68DA688D
:104450003A4B13407A681268F9680B43D3603B68A3
:1044600093F854305A003B681B6D13433A6892F836
:104470004C20002A01D1802200E000221A433B6830
:104480009B6C1B041343FB607B681B681A6F4FF621
:104490000D7313407A681268F9680B4313673B6821
:1044A00093F856301A463B6893F855305B00134337
:1044B000FB607B681B68D3F8903023F003017B68B6
:1044C0001B68FA680A43C3F890207B681B68D3F81E
:1044D000003D23F072013B689A6D7B681B680A43BC
:1044E000C3F8002D3B68DB6D3A6892F86020002A23
:1044F00001D1402200E000221A433B6893F861306A
:104500001B011A433B6893F86230DB001343FB60E6
:104510007B681B68D3F8303D23F07B017B681B6808
:10452000FA680A43C3F8302D00BF1437BD465DF862
:10453000047B7047838004000080F8C0F0FEFFFF1A
:1045400080B485B000AF786039607B681B6803F584
:1045500080531A68384B13403A6811687A681268B9
:104560000B4302F5805213603B681B791A033B68CA
:104570009B681A433B681B7BDB031343FB607B6830
:104580001B6803F580535A682C4B13407A681268F5
:10459000F9680B4302F5805253603B685B7B1A0459
:1045A0003B681B6A1343FB607B681B6803F5805301
:1045B000D3F80021224B13407A681268F9680B4344
:1045C00002F58052C2F800313B681A693B681B7DD6
:1045D0001B011A433B685B7F1B031343FB607B6833
:1045E0001B6803F58053D3F80421164B13407A68F7
:1045F0001268F9680B4302F58052C2F804313B6837
:104600001B7FDA073B689B691343FB607B681B6871
:1046100003F58053D3F808210B4B13407A681268D6
:10462000F9680B4302F58052C2F8083100BF143715
:10463000BD465DF8047B7047FD87FFFFFE2FFFFF3F
:1046400000C0FEFFEFEFC0FFFFFFC07F80B5A4B04A
:1046500000AF7860012387F83B3000233B650023DF
:1046600087F84930002387F84B30012387F8303032
:10467000012387F85E30012387F83A30002387F85A
:104680005430012387F88C304FF400537B640023AF
:1046900087F864300023BB66002387F88D30002341
:1046A00087F88E304FF4C3633B66002387F83830B9
:1046B00000237B63012387F83D30002387F83E30D9
:1046C000002387F848300023FB6700237B67002323
:1046D000BB65002387F86C30002387F88230012304
:1046E00087F84A302023C7F88830012387F84C30F8
:1046F000002387F85D304FF04053FB624FF4804356
:104700003B64002387F839300223C7F88430002344
:1047100087F88030002387F88130002387F85C30E9
:10472000012387F83C3000233B67012387F878306A
:1047300007F12C0319467868FFF7E6FD01233B7368
:1047400001233B610023BB60002387F82430002352
:104750007B7500233B754FF400133B6200233B77CE
:104760004FF40013BB61002387F825304FF4067324
:10477000BB6207F1080319467868FFF7E1FE00BF46
:104780009037BD4680BD80B485B000AF786000230F
:10479000FB601DE07B68D968FA6813465B00134430
:1047A000DB000B44BB60BB6800221A60BB680022C0
:1047B0005A60BB6800229A60BB680022DA60B96860
:1047C0007B68FA68063243F82210FB680133FB600D
:1047D000FB68032BDED97B6800229A627B681B682A
:1047E00003F580531A460323C2F82C317B68DA683C
:1047F0007B681B6803F58053C3F814217B68DA6873
:104800007B681B6803F58053C3F8202100BF143771
:10481000BD465DF8047B704780B485B000AF78601A
:104820000023FB6023E07B681969FA6813465B008C
:104830001344DB000B44BB60BB6800221A60BB68FA
:1048400000225A60BB6800229A60BB680022DA60CE
:10485000BB6800221A61BB6800225A61B9687B6894
:10486000FA68123243F82210FB680133FB60FB68E0
:10487000032BD8D97B680022DA657B6800221A6690
:104880007B6800229A667B680022DA667B680022D9
:104890009A657B681B6803F580531A460323C2F8A8
:1048A00030317B681A697B681B6803F58053C3F855
:1048B0001C217B681B6903F148027B681B6803F5B8
:1048C0008053C3F8282100BF1437BD465DF8047B30
:1048D0007047000080B491B000AFF860B9607A60B2
:1048E000FB6818337B627B6A1B69FB637B6A1B690D
:1048F0003B6200237B637B6AFA6B53F822303B6395
:10490000BB689B68FB620023BB623B6BDB6803F008
:104910000043B3F1004F07D07A6AFB6B04339B006E
:1049200013445B68002B01D0022366E2BB681B685E
:1049300003F00403002B44D03B6BDA68754B134043
:10494000BA68526A1A433B6BDA603B6BDB6843F42C
:1049500080323B6BDA60FB681B681A6EFB681B6871
:1049600042F480121A66BB681B6803F00803002B30
:1049700027D03B6B9B689AB2BB68DB6A1B041A4367
:104980003B6B9A603B6BDB6843F400323B6BDA6055
:104990003B6BDB6823F44022BB681B6B1A433B6B09
:1049A000DA60FB681B685A6EFB681B6842F4801271
:1049B0005A66FB681B681A6DFB681B6842F08062D0
:1049C0001A65BB681B6803F01003002B0ED03B6B0D
:1049D0009A68514B1340BA6892691A433B6B9A60CC
:1049E0003B6BDB6843F080623B6BDA60BB681B6843
:1049F00003F00403002B05D1BB681B6803F0100310
:104A0000002B36D03B6BDB6843F080423B6BDA60B7
:104A1000BFF35F8F00BF3B6BDB6843F000423B6B33
:104A2000DA60FB6B0133FB63FB6B032B02D9FB6B7F
:104A3000043BFB637B6AFA6B53F822303B637B6B6E
:104A400001337B633B6BDB6803F00043B3F1004F42
:104A50000FD17B6A3A6A53F822303B63BFF35F8F12
:104A600000BF3B6BDB6823F000423B6BDA60022344
:104A7000C3E17B6B01337B63FB6A1B681A463B6BAC
:104A80001A603B6B9A68244B1340FA6A52681A43C7
:104A90003B6B9A60FB6A9B68002B12D0FB6A9B6899
:104AA000FB62FB6A1B681A463B6B5A603B6B9A6859
:104AB0001A4B1340FA6A526812041A433B6B9A600D
:104AC00008E03B6B00225A603B6B9A68134B134023
:104AD0003A6B9360BB681B6803F01003002B21D076
:104AE0003B6BDB6823F4F002BB681B6ADB041A43F0
:104AF0003B6BDA603B6BDA68094B1340BA68D269EA
:104B00001A433B6BDA603B6BDB6843F480223B6B00
:104B1000DA602EE00000FFFF00C0FFFFFFFF00C0D3
:104B20000000FCFF3B6BDA687B4B1340BA685268AD
:104B30001A433B6BDA60BB681B6803F00103002B70
:104B400008D03B6BDB6823F44032BB685B691A43D7
:104B50003B6BDA60BB681B6803F02003002B08D0B6
:104B60003B6BDB6823F04062BB681B691A433B6BFD
:104B7000DA60BB681B6803F00403002B08D03B6BB2
:104B80009B6823F44042BB689B6A1A433B6B9A6064
:104B90003B6BDB6843F000523B6BDA603B6BDB68DE
:104BA00023F080423B6BDA60BFF35F8F00BF3B6B4B
:104BB000DB6843F000423B6BDA60BB681B6803F0C4
:104BC0000203002B00F0DA803B6BDB6823F060729D
:104BD000BB68DB681A433B6BDA60CFE03B6BDB689A
:104BE00023F080523B6BDA60FB6B0133FB63FB6BA2
:104BF000032B02D9FB6B043BFB637B6AFA6B53F814
:104C000022303B633B6BDB6823F000523B6BDA6086
:104C10003B6BDB6803F00043B3F1004F07D07A6AC7
:104C2000FB6B04339B0013445B68002B29D03B6A69
:104C3000FB637B6AFA6B53F822303B630023BB6350
:104C400019E0BFF35F8F00BF3B6BDB6823F00042CE
:104C50003B6BDA60FB6B0133FB63FB6B032B02D90D
:104C6000FB6B043BFB637B6AFA6B53F822303B63BC
:104C7000BB6B0133BB63BA6B7B6B9A42E1D30223FC
:104C8000BBE07B6B01337B63FB6A9B68FB62FB6A67
:104C90001B681A463B6B1A603B6B9A681F4B1340AC
:104CA000FA6A52681A433B6B9A60FB6A9B68002B56
:104CB00012D0FB6A9B68FB62FB6A1B681A463B6B5F
:104CC0005A603B6B9A68164B1340FA6A526812049A
:104CD0001A433B6B9A6008E03B6B00225A603B6BC7
:104CE0009A680F4B13403A6B9360BB681B6803F0E4
:104CF0001003002B18D03B6BDA680A4B1340BA68DC
:104D0000D2691A433B6BDA603B6BDB6843F4802269
:104D10003B6BDA6020E000BF0080FFFF00C0FFFFB8
:104D2000FFFF00C00000FCFF3B6BDA68364B13400E
:104D3000BA6852681A433B6BDA60BB681B6803F0C1
:104D40000103002B08D03B6BDB6823F44032BB68C7
:104D50005B691A433B6BDA60BB6A0133BB62BFF32A
:104D60005F8F00BF3B6BDB6843F000423B6BDA6058
:104D70003B6BDB6823F080423B6BDA60FB6A9B682D
:104D8000002B7FF42BAF7B68002B06D03B6B9B681E
:104D900043F000423B6B9A6005E03B6B9B6823F05D
:104DA00000423B6B9A603B6BDB6843F080523B6B8D
:104DB000DA607B6A5A6A796AFB6B04339B000B44A6
:104DC0005A607B6AFA6B1A61EFF31083BB61BB69AF
:104DD000FB6101237B617B6983F3108800BF7B6AE1
:104DE0009A6ABB6A13445A1C7B6A9A62FB693B61EC
:104DF0003B6983F3108800BF002318464437BD4643
:104E00005DF8047B704700BF0080FFFF80B487B06F
:104E100000AF7860396000237B6143E13B681A682A
:104E200001217B6901FA03F31340FB60FB68002B4F
:104E300000F035813B685B6803F00303012B05D06C
:104E40003B685B6803F00303022B30D17B689B68EF
:104E50003B617B695B00032202FA03F3DB433A699F
:104E600013403B613B68DA687B695B0002FA03F33D
:104E70003A6913433B617B683A699A607B685B6877
:104E80003B6101227B6902FA03F3DB433A69134079
:104E90003B613B685B681B0903F001027B6902FA16
:104EA00003F33A6913433B617B683A695A603B6894
:104EB0005B6803F00303032B09D13B685B6803F0D5
:104EC0000303032B1BD13B689B68012B17D07B6826
:104ED000DB683B617B695B00032202FA03F3DB437F
:104EE0003A6913403B613B689A687B695B0002FA50
:104EF00003F33A6913433B617B683A69DA603B68C4
:104F00005B6803F00303022B23D17B69DA087B681B
:104F1000083253F822303B617B6903F007039B00A2
:104F20000F2202FA03F3DB433A6913403B613B680B
:104F30001A697B6903F007039B0002FA03F33A69DD
:104F400013433B617B69DA087B680832396943F8AF
:104F500022107B681B683B617B695B00032202FABD
:104F600003F3DB433A6913403B613B685B6803F042
:104F700003027B695B0002FA03F33A6913433B6166
:104F80007B683A691A603B685B6803F44033002B26
:104F900000F085804B4A7B699B084C3352F82330E4
:104FA0003B617B6903F003039B000F2202FA03F3CA
:104FB000DB433A6913403B617B689A0A424B1340DA
:104FC0007A6902F00302920093403A6913433B610D
:104FD0003C497B699B084C333A6941F823204FF0E8
:104FE000B0431B683B61FB68DB433A6913403B619C
:104FF0003B685B6803F48013002B03D03A69FB68BD
:1050000013433B614FF0B0423B6913604FF0B04334
:105010005B683B61FB68DB433A6913403B613B687B
:105020005B6803F40013002B03D03A69FB68134359
:105030003B614FF0B0423B6953604FF0B043D3F84F
:1050400084303B61FB68DB433A6913403B613B685A
:105050005B6803F40033002B03D03A69FB68134309
:105060003B614FF0B0423B69C2F884304FF0B0432F
:10507000D3F880303B61FB68DB433A6913403B6106
:105080003B685B6803F48033002B03D03A69FB680C
:1050900013433B614FF0B0423B69C2F880307B69FB
:1050A00001337B613B681A687B6922FA03F3002BAA
:1050B0007FF4B4AE00BF00BF1C37BD465DF8047B73
:1050C000704700BF000400587FFF290080B487B0FC
:1050D00000AF7860396000237B61A8E001227B6922
:1050E00002FA03F33A6813403B613B69002B00F07E
:1050F0009B80564A7B699B084C3352F82330FB60F7
:105100007B6903F003039B000F2202FA03F3FA68A2
:105110001340FB607B689A0A4D4B13407A6902F09A
:10512000030292009340FA689A423ED14FF0B04396
:10513000D3F880203B69DB434FF0B0411340C1F806
:1051400080304FF0B043D3F884203B69DB434FF00D
:10515000B0411340C1F884304FF0B0435A683B6906
:10516000DB434FF0B04113404B604FF0B0431A683F
:105170003B69DB434FF0B04113400B607B6903F0A8
:1051800003039B000F2202FA03F3FB602F4A7B69A3
:105190009B084C3352F82310FB68DA432B487B6999
:1051A0009B080A404C3340F823207B681A687B69CF
:1051B0005B00032101FA03F31A437B681A607B69E1
:1051C000DA087B68083253F822107B6903F0070382
:1051D0009B000F2202FA03F3DB437A69D2081940DD
:1051E0007B68083243F822107B689A687B695B0011
:1051F000032101FA03F3DB431A407B689A607B6862
:105200005A6801217B6901FA03F3DB431A407B688A
:105210005A607B68DA687B695B00032101FA03F35B
:10522000DB431A407B68DA607B6901337B613A6853
:105230007B6922FA03F3002B7FF450AF00BF00BF5D
:105240001C37BD465DF8047B704700BF0004005862
:105250007FFF290080B485B000AF78600B467B806B
:105260007B681A697B881340002B02D00123FB73F3
:1052700001E00023FB73FB7B18461437BD465DF845
:10528000047B704780B483B000AF78600B467B80AE
:1052900013467B707B78002B03D07A887B689A61F9
:1052A00002E07A887B689A6200BF0C37BD465DF8E1
:1052B000047B704780B485B000AF78600B467B807C
:1052C0007B685B69FB607A88FB6813401A04FB68A3
:1052D000D9437B880B401A437B689A6100BF14371F
:1052E000BD465DF8047B704780B588B000AF78603C
:1052F0007B68002B01D1012328E3974B1B6903F046
:105300003803FB61944B9B6A03F00303BB61924B30
:105310001B6803F028537B617B681B6803F0010363
:10532000002B00F09C80FB69102B05D07B69002BC3
:1053300009D0BB69022B06D17B685B68002B40F06B
:105340008E80012302E37B685B68B3F5803F06D162
:10535000814B1B68804A43F48033136058E07B68BC
:105360005B68002B12D17C4B1B687B4A23F4803393
:105370001360794B1B68784A23F400231360764B43
:105380001B68754A23F48023136041E07B685B68E7
:10539000B3F5A02F12D1704B1B686F4A43F48023E2
:1053A00013606D4B1B686C4A23F4002313606A4B37
:1053B0001B68694A43F48033136029E07B685B68AB
:1053C000B3F5502F12D1644B1B68634A43F480231A
:1053D0001360614B1B68604A43F4002313605E4B0B
:1053E0001B685D4A43F48033136011E05A4B1B681D
:1053F000594A23F480331360574B1B68564A23F4F1
:1054000080231360544B1B68534A23F4002313601A
:10541000FDF71EFD38617B685B68002B19D008E042
:10542000FDF716FD02463B69D31A642B01D903230D
:105430008CE2494B1B6803F40033002BF0D00EE0E4
:10544000FDF706FD02463B69D31A642B01D90323FD
:105450007CE2414B1B6803F40033002BF0D17B68E6
:105460001B6803F00203002B00F09E80FB69002BF9
:1054700005D07B69002B47D0BB69002B44D17B68EA
:10548000DB68002B01D1012360E2334B1B6803F082
:105490001803FB60BB69002B09D17B69002B06D088
:1054A0007B681B69FA689A4201D001234EE22A4BBD
:1054B0001B6823F019027B681B691343264A43F0DB
:1054C00001031360FB69002B09D1234B1B68DB0828
:1054D00003F00303214A22FA03F3214A1360214B0C
:1054E0001B681846FDF764FC0346002B01D001231E
:1054F0002CE2194B5B6823F0FE427B685B691B065C
:10550000154913434B604FE07B68DB68002B32D0BA
:10551000114B1B6823F019027B68D9687B681B69F3
:105520000B430D4913430B600B4B5B6823F0FE42AA
:105530007B685B691B06084913434B60FDF788FCD9
:10554000386111E0FDF784FC02463B69D31A012B58
:105550000AD90323FAE100BF004402580090D003A7
:105560001C00002420000024954B1B6803F004035A
:10557000002BE7D018E0924B1B68914A23F00103FF
:105580001360FDF765FC386108E0FDF761FC024639
:105590003B69D31A012B01D90323D7E1884B1B6840
:1055A00003F00403002BF0D17B681B6803F01003A9
:1055B000002B45D0FB69082B05D07B69002B08D058
:1055C000BB69012B05D17B681B6A002B38D10123F5
:1055D000BCE17B681B6A002B19D0794B1B68784AA9
:1055E00043F080031360FDF733FC386108E0FDF7FA
:1055F0002FFC02463B69D31A012B01D90323A5E1F5
:105600006F4B1B6803F48073002BF0D018E06C4BD9
:105610001B686B4A23F080031360FDF719FC3861A7
:1056200008E0FDF715FC02463B69D31A012B01D9AE
:1056300003238BE1624B1B6803F48073002BF0D1D2
:105640007B681B6803F00803002B36D07B689B69DE
:10565000002B19D05A4B5B6F594A43F00103536733
:10566000FDF7F6FB386108E0FDF7F2FB02463B6907
:10567000D31A012B01D9032368E1514B5B6F03F06F
:105680000203002BF0D018E04D4B5B6F4C4A23F027
:1056900001035367FDF7DCFB386108E0FDF7D8FB39
:1056A00002463B69D31A012B01D903234EE1444B37
:1056B0005B6F03F00203002BF0D17B681B6803F0E3
:1056C0002003002B36D07B68DB69002B19D03C4BC4
:1056D0001B683B4A43F480531360FDF7B9FB386104
:1056E00008E0FDF7B5FB02463B69D31A012B01D94F
:1056F00003232BE1324B1B6803F40053002BF0D043
:1057000018E02F4B1B682E4A23F480531360FDF7DB
:105710009FFB386108E0FDF79BFB02463B69D31A0B
:10572000012B01D9032311E1254B1B6803F400531E
:10573000002BF0D17B681B6803F00403002B00F002
:105740009B80204B1B681F4A43F4807313607B6867
:105750009B68012B06D11A4B1B6F194A43F00103BA
:1057600013675AE07B689B68002B12D1144B1B6FA8
:10577000134A23F001031367114B1B6F104A23F0E8
:10578000800313670E4B1B6F0D4A23F0040313674E
:1057900043E07B689B68052B16D1094B1B6F084AB9
:1057A00043F004031367064B1B6F054A23F0800385
:1057B0001367034B1B6F024A43F0010313672CE08E
:1057C00000440258004802587B689B68852B12D120
:1057D000604B1B6F5F4A43F0040313675D4B1B6F05
:1057E0005C4A43F0800313675A4B1B6F594A43F0DE
:1057F0000103136711E0574B1B6F564A23F0010357
:105800001367544B1B6F534A23F004031367514B28
:105810001B6F504A23F0800313677B689B68002B43
:1058200015D0FDF715FB38610AE0FDF711FB0246C4
:105830003B69D31A41F28832934201D9032385E0B0
:10584000444B1B6F03F00203002BEED014E0FDF776
:10585000FFFA38610AE0FDF7FBFA02463B69D31A0A
:1058600041F28832934201D903236FE0394B1B6F19
:1058700003F00203002BEED17B685B6A002B42D061
:10588000FB69182B31D17B685B6A012B01D10123A5
:105890005CE0304B5B6BDB08C3F30C03FB607B68A5
:1058A0009B6CFA689A422ED02A4BDB6A294A23F075
:1058B0000103D362FDF7CCFA386100BFFDF7C8FAE7
:1058C00002463B699342F9D0224B5A6B224B13405C
:1058D0007A68926CD2001F4913434B631D4BDB6AFD
:1058E0001C4A43F00103D3620DE07B6801225A6435
:1058F0007B6824331946002000F03EFA0346002B53
:1059000001D0012322E07B68DB6C002B0AD07B688E
:105910004C331946012000F02FFA0346002B01D02A
:10592000012313E07B685B6F002B0ED07B680122A4
:10593000C3F894207B6874331946022000F01CFAE7
:105940000346002B01D0012300E000231846203736
:10595000BD4680BD004402580700FFFF80B48BB0F5
:1059600000AFAA4B1B6903F03803182B00F23681F5
:1059700001A252F823F000BFDD590070DD5B00701A
:10598000DD5B0070DD5B0070DD5B0070DD5B007077
:10599000DD5B0070DD5B0070035A0070DD5B007042
:1059A000DD5B0070DD5B0070DD5B0070DD5B007057
:1059B000DD5B0070DD5B0070095A0070DD5B00701C
:1059C000DD5B0070DD5B0070DD5B0070DD5B007037
:1059D000DD5B0070DD5B00700F5A00708B4B1B6845
:1059E00003F02003002B09D0884B1B68DB0803F071
:1059F0000303874A22FA03F33B62F2E000233B628F
:105A0000EFE0844B3B62ECE0834B3B62E9E07F4B91
:105A10009B6A03F00303FB617C4B9B6A1B0903F049
:105A20003F03BB61794BDB6A03F001037B61774B7A
:105A30005B6BDB08C3F30C037A6902FB03F307EE2D
:105A4000903AF8EE677AC7ED047ABB69002B00F054
:105A5000C280FB69022B64D0FB69022B00F28380B9
:105A6000FB69002B03D0FB69012B38D07BE0674B2F
:105A70001B6803F02003002B2DD0644B1B68DB0850
:105A800003F00303624A22FA03F3FB60FB6807EEAC
:105A9000903AF8EE676ABB6907EE903AF8EE677ADB
:105AA00086EEA77A594B1B6BC3F3080307EE903AB7
:105AB000F8EE676A97ED046ADFED585AC6EE257A6C
:105AC00076EEA77AF7EE006A77EEA67A67EE277A87
:105AD000C7ED097A69E04FF000037B6265E0BB69BE
