:0200000470008A
:1000000000000120A9360070F93600709D3A00709A
:10001000B13A0070B73A0070BD3A007000000000BD
:1000200000000000000000000000000035C9007062
:10003000F93600700000000061CA00709939007044
:10004000F936007000000000F9360070F9360070D3
:10005000F9360070F9360070000000000000000062
:10006000F9360070F9360070F936007000000000B3
:1000700000000000F93600700000000000000000E1
:10008000F9360070F9360070F9360070F9360070F4
:10009000F9360070F9360070F9360070F9360070E4
:1000A000F9360070F9360070F9360070F9360070D4
:1000B000F9360070F9360070F9360070F9360070C4
:1000C000F9360070F9360070F9360070F9360070B4
:1000D000F9360070F9360070F9360070F9360070A4
:1000E000F9360070F9360070F9360070F936007094
:1000F000F9360070F9360070F9360070F936007084
:10010000F9360070F9360070F9360070F936007073
:10011000F9360070F9360070F9360070F936007063
:10012000F9360070F9360070F9360070F936007053
:10013000F9360070F9360070F9360070F936007043
:10014000F9360070F9360070F9360070F936007033
:10015000F9360070F9360070F9360070F936007023
:10016000F9360070F9360070F9360070F936007013
:10017000F9360070F9360070F9360070F936007003
:10018000F9360070F9360070F9360070F9360070F3
:10019000F9360070F9360070F9360070F9360070E3
:1001A000F9360070F9360070F9360070F9360070D3
:1001B000CD3C0070F9360070F9360070F9360070E9
:1001C0000000000000000000F9360070F9360070F1
:1001D000F9360070F9360070F9360070F9360070A3
:1001E000F9360070F9360070F9360070F936007093
:1001F000F9360070F93600700000000000000000C1
:10020000F9360070F9360070F9360070F936007072
:10021000F9360070F9360070F9360070F936007062
:10022000F9360070F9360070F9360070F936007052
:10023000F9360070F9360070F9360070F936007042
:10024000F9360070F9360070F9360070F936007032
:10025000F9360070F9360070F9360070F936007022
:10026000F9360070F9360070F9360070F936007012
:10027000F9360070F9360070F9360070F936007002
:10028000F9360070F9360070F9360070F9360070F2
:10029000F9360070000000000000000000000000BF
:1002A000F9360070F9360070F9360070F9360070D2
:1002B00053B94AB9002908BF00281CBF4FF0FF31CD
:1002C0004FF0FF3000F00CB8ADF1080C6DE904CE32
:1002D00015F056FDDDF804E0DDE9022304B07047B7
:1002E000704700BF00000000000000000000000098
:1002F00001F0FF01102A2BDB10F0070F08D010F8D7
:10030000013B013A8B422DD010F0070F42B3F6D1DA
:10031000F0B441EA012141EA014122F007047FF0F3
:1003200000070023F0E80256083C85EA010586EA4A
:10033000010685FA47F5A3FA87F586FA47F6A5FA86
:1003400087F68EB9EED1F0BC01F0FF0102F0070292
:1003500032B110F8013B013A83EA010313B1F8D13D
:100360000020704701387047002D06BF354603381E
:10037000073815F0010F07D1013015F4807F02BF57
:10038000013015F4C03F0130F0BC0138704700BFA8
:100390000348044B834202D0034B03B11847704714
:1003A0009000002490000024000000000548064B47
:1003B0001B1AD90F01EBA301491002D0034B03B163
:1003C00018477047900000249000002400000000AF
:1003D00010B5064C237843B9FFF7DAFF044B13B18D
:1003E0000448AFF300800123237010BD9000002467
:1003F000000000009477017008B5054B1BB105495A
:100400000548AFF30080BDE80840FFF7CFBF00BF4D
:1004100000000000940000249477017080B582B041
:1004200000AF7860074A7B681360074B1B689868C9
:1004300000230222002116F045F800BF0837BD4610
:1004400080BD00BFAC0000244000002480B584B013
:1004500000AFF860B9607A60094B1B68002B09D0C7
:10046000074B1B681B6808331B68054A10687A68CD
:10047000B96898477B6818461037BD4680BD00BFF5
:10048000AC00002490B482B000AF04460846114688
:100490001A462346FB710346BB710B467B7113461C
:1004A0003B71FA79BB791B021A437B791B041A430F
:1004B0003B791B06134318460837BD4690BC70476E
:1004C00080B483B000AF7860044A7B681A607B68B0
:1004D00018460C37BD465DF8047B704744870170B1
:1004E00080B483B000AF7860044A7B681A607B6890
:1004F00018460C37BD465DF8047B70474487017091
:1005000080B582B000AF78607868FFF7E9FF04211A
:10051000786815F022FC7B6818460837BD4680BD18
:1005200080B582B000AF78600B467B8013463B807D
:100530007B681846FFF7C4FF094A7B681A607B682E
:100540007A889A807B683A88DA807B6800229A6091
:100550007B6801221A737B6818460837BD4680BD48
:100560000487017080B483B000AF7860034B1846F5
:100570000C37BD465DF8047B704700BF434E5452B4
:1005800080B483B000AF7860034B18460C37BD468B
:100590005DF8047B704700BFAC77017080B483B016
:1005A00000AF78607B689B8818460C37BD465DF8C5
:1005B000047B704780B483B000AF78600B467B80CB
:1005C0007B88002B05D07B687A889A807B68012223
:1005D000DA8000BF0C37BD465DF8047B704780B4FD
:1005E00083B000AF78607B68DB8818460C37BD4667
:1005F0005DF8047B704780B483B000AF78600B4631
:100600007B807B88002B04D07B88642B01D87A8880
:1006100000E001227B68DA8000BF0C37BD465DF840
:10062000047B704780B483B000AF78600123184624
:100630000C37BD465DF8047B704780B483B000AFD3
:100640007860042318460C37BD465DF8047B70477C
:1006500080B483B000AF7860042318460C37BD46E1
:100660005DF8047B704780B483B000AF78607B682E
:100670001B7B18460C37BD465DF8047B704780B481
:1006800083B000AF78600B46FB707B68FA781A7312
:1006900000BF0C37BD465DF8047B704780B487B05F
:1006A00000AFF860B9607A607B68002B02D0BB684D
:1006B000002B01D1002316E0BB683B6100237B6166
:1006C0000CE0FB689B68591CFA6891607A6992009B
:1006D00039690A4413607B6901337B617A697B68FD
:1006E0009A42EED37B6818461C37BD465DF8047B02
:1006F0007047000080B483B000AF7860044A7B6824
:100700001A607B6818460C37BD465DF8047B70475D
:10071000A887017080B582B000AF78607868FFF775
:10072000E9FF0421786815F018FB7B681846083744
:10073000BD4680BD80B582B000AF7860054A7B6859
:100740001A607B681846FFF7D5FF7B6818460837A4
:10075000BD4680BD0C88017080B582B000AF786066
:100760007868FFF7E7FF0C21786815F0F6FA7B68E8
:1007700018460837BD4680BD80B483B000AF7860AE
:10078000044A7B681A607B6818460C37BD465DF8E2
:10079000047B70478487017080B582B000AF7860B9
:1007A0007868FFF7E9FF0421786815F0D6FA7B68CE
:1007B00018460837BD4680BD80B582B000AF78606E
:1007C000054A7B681A607B681846FFF7D5FF7B688F
:1007D00018460837BD4680BD2889017080B582B0B3
:1007E00000AF78607868FFF7E7FF0C21786815F0B4
:1007F000B4FA7B6818460837BD4680BD80B582B024
:1008000000AF7860054A7B681A607B681846FFF77E
:1008100071FF7B6818460837BD4680BDBC870170F4
:1008200080B582B000AF78607868FFF7E7FF60219D
:10083000786815F092FA7B6818460837BD4680BD87
:1008400080B582B000AF7860054A7B681A607B682B
:100850001846FFF745FE7B6818460837BD4680BD41
:100860000487017080B582B000AF78607868FFF7C8
:10087000E7FF1021786815F070FA7B681846083792
:10088000BD4680BD80B582B000AF7860054A7B6808
:100890001A607B681846FFF72DFF7B6818460837FB
:1008A000BD4680BDD087017080B582B000AF786052
:1008B0007868FFF7E7FF1421786815F04EFA7B6837
:1008C00018460837BD4680BD80B582B000AF78605D
:1008D000054A7B681A607B681846FFF70BFF7B6848
:1008E00018460837BD4680BDE487017080B582B0E8
:1008F00000AF78607868FFF7E7FF6821786815F047
:100900002CFA7B6818460837BD4680BD80B582B09A
:1009100000AF7860054A7B681A607B681846FFF76D
:10092000E9FE7B6818460837BD4680BDF887017030
:1009300080B582B000AF78607868FFF7E7FF1821D4
:10094000786815F00AFA7B6818460837BD4680BDFE
:1009500080B584B002AF02F0AFFB02F03DFC03466D
:100960001846FFF75BFDA54815F0A4FDA44B1B68D6
:10097000BFF35B8F03F00103002B0CBF01230023A7
:10098000DBB2002B12D09E4815F0E9F90346002B8C
:1009900014BF01230023DBB2002B07D002F026FC9A
:1009A0000346984A1360964815F0E5F9964B1B6884
:1009B000BFF35B8F03F00103002B0CBF0123002367
:1009C000DBB2002B1AD0904815F0C9F90346002B72
:1009D00014BF01230023DBB2002B0FD0894B1B680F
:1009E0004FF4FA721946894802F07CFA884A89491C
:1009F000864815F0ADF9844815F0BDF9864B1B68A3
:100A0000BFF35B8F03F00103002B0CBF0123002316
:100A1000DBB2002B1BD0804815F0A1F90346002B58
:100A200014BF01230023DBB2002B10D0032300935B
:100A30004FF48073794A7549794804F0B9F8744ADB
:100A40007849774815F084F9734815F094F9764B96
:100A50001B68BFF35B8F03F00103002B0CBF012366
:100A60000023DBB2002B16D06F4815F078F903464F
:100A7000002B14BF01230023DBB2002B0BD000217D
:100A80006A4803F0F3FE624A6949684815F060F964
:100A9000654815F070F9674B1B68BFF35B8F03F077
:100AA0000103002B0CBF01230023DBB2002B17D066
:100AB000604815F054F90346002B14BF01230023AE
:100AC000DBB2002B0CD0594A5B495C4803F038FA82
:100AD0004F4A5B49594815F03BF9564815F04BF918
:100AE0000123FB80574B02221A706F230122A82199
:100AF000C020FFF7C7FC0346524A53600023FF2281
:100B0000FF21FF20FFF7BEFC03464E4A93600123FE
:100B10000122A821C020FFF7B5FC0346494AD36053
:100B2000484B42F210721A61464B474A5A61474B92
:100B30001B68BFF35B8F03F00103002B0CBF012385
:100B40000023DBB2002B17D0404815F008F903460C
:100B5000002B14BF01230023DBB2002B0CD0394A39
:100B600036493B4800F068FA294A3A49384815F0B6
:100B7000EFF8364815F0FFF8374B1B68BFF35B8F73
:100B800003F00103002B0CBF01230023DBB2002B79
:100B90001BD0314815F0E3F80346002B14BF0123A6
:100BA0000023DBB2002B10D0042300934FF48063AA
:100BB0002A4A27492A4803F0FBFF154A19492848C1
:100BC00015F0C6F8244815F0D6F8264B1B68BFF37D
:100BD0005B8F03F00103002B0CBF01230023DBB26A
:100BE000002B4FD01F4815F0BAF80346002B14BF56
:100BF00001230023DBB2002B36E000BFC477017075
:100C0000B4000024B0000024C4000024B800002474
:100C10000000002435070070E0000024DC7701703C
:100C2000C8000024F94B0070F0000024E400002408
:100C3000B9070070C8010024F0860170F400002498
:100C40009D3F007004000024B47701702C02002442
:100C5000CC010024FD07007048020024E8770170F1
:100C6000300200245C0200240CD001220A218648B4
:100C7000FFF756FC854A8649834815F069F8854890
:100C800015F079F8844B1B68BFF35B8F03F0010309
:100C9000002B0CBF01230023DBB2002B17D07E48B2
:100CA00015F05DF80346002B14BF01230023DBB2CF
:100CB000002B0CD001227949794800F0D7FC734A07
:100CC0007849774815F044F8734815F054F8764B96
:100CD0001B68BFF35B8F03F00103002B0CBF0123E4
:100CE0000023DBB2002B1BD06F4815F038F8034609
:100CF000002B14BF01230023DBB2002B10D00223F2
:100D000000934FF48063694A6549694803F050FFD6
:100D10005E4A6849664815F01BF8634815F02BF8E1
:100D2000654B1B68BFF35B8F03F00103002B0CBF07
:100D300001230023DBB2002B18D05F4815F00FF819
:100D40000346002B14BF01230023DBB2002B0DD080
:100D50004D4B01225149594800F004FF4B4A584974
:100D6000564814F0F5FF544815F005F8554B1B682C
:100D7000BFF35B8F03F00103002B0CBF01230023A3
:100D8000DBB2002B1BD04F4814F0E9FF0346002BC9
:100D900014BF01230023DBB2002B10D004230093E7
:100DA0004FF40063484A4549484803F001FF374A79
:100DB0004049464814F0CCFF424814F0DCFF444B55
:100DC0001B68BFF35B8F03F00103002B0CBF0123F3
:100DD0000023DBB2002B1AD03D4814F0C0FF0346BD
:100DE000002B14BF01230023DBB2002B0FD0012303
:100DF0000093324B2A4A2949364801F087FB234A9F
:100E00003549344814F0A4FF314814F0B4FF334B93
:100E10001B68BFF35B8F03F00103002B0CBF0123A2
:100E20000023DBB2002B1BD02C4814F098FF0346A4
:100E3000002B14BF01230023DBB2002B10D00323AF
:100E400000934FF40063264A2249264803F0B0FE7F
:100E50000E4A1849234814F07BFF204814F08BFFFA
:100E6000214803F0F5FE214803F0F2FE104803F09C
:100E7000EFFE164803F0ECFE1A4803F0E9FE09F015
:100E8000CBFD00BFFDE700BF4C02002400000024A2
:100E9000410800705C02002474020024CC0100248C
:100EA000600200248508007090020024F47701702D
:100EB00078020024F94B0070FC0200249402002404
:100EC000C90800701803002404780170000300248E
:100ED000340300241C0300240D0900705003002477
:100EE0001478017038030024C80000243002002464
:100EF00080B483B000AF78607B68243318460C3729
:100F0000BD465DF8047B704780B483B000AF786065
:100F10007B68083318460C37BD465DF8047B704784
:100F200080B584B000AF7860054815F0C3FA7B68DF
:100F3000FB60F86800F08CF900BF1037BD4680BD3B
:100F40002078017080B584B000AF7860114815F04A
:100F5000B1FA7B68FB60F868FFF7CAFF03461846E2
:100F600010F0B0FAF868FFF7CFFF03461B78002BAC
:100F700014BF01230023DBB2002B06D0F868FFF773
:100F8000B7FF0346184611F077FB00BF1037BD4688
:100F900080BD00BF6478017080B584B000AF786018
:100FA000134815F087FA7B68FB60F868FFF7A0FF2D
:100FB0000346184610F06AFAF868FFF7A5FF0346E3
:100FC0001B78002B0CBF01230023DBB2002B03D0C6
:100FD000F86800F03DF906E0F868FFF789FF03467E
:100FE000184611F0F7F900BF1037BD4680BD00BFAD
:100FF000A478017080B584B000AF7860054815F022
:1010000059FA7B68FB60F86800F0BAF800BF103747
:10101000BD4680BDE078017080B483B000AF7860D9
:10102000044A7B681A607B6818460C37BD465DF839
:10103000047B7047A8870170B0B584B000AFF8603A
:10104000B9607A60FB681846FFF7E6FF104AFB6854
:101050001A60FB68BA685A60FB687A6803F1080492
:1010600015460FCD0FC495E8030084E80300FB6824
:10107000002283F82020FB68BA689A657B685A6969
:10108000FB68DA65FB6818461037BD46B0BD00BF87
:10109000BC87017080B582B000AF78602F4815F032
:1010A00009FA7B685B681B6808331B687A685268BA
:1010B00010469847034683F00103DBB2002B06D0AD
:1010C000274815F0F7F9002009F092FA42E07B6812
:1010D0005B681B6824331B687A685268104698471F
:1010E000034619461F4815F075F91F4815F0E2F937
:1010F00002E01E4815F0DEF97B685B681B680C3364
:101100001B687A6852684FF47A7110469847034614
:1011100083F00103DBB2002BEBD1154815F0CAF9BF
:10112000144815F0C7F97968134813F0BBFE02E0C4
:101130000A2009F0D1FA7B6893F82030DBB283F003
:101140000103DBB2002BF3D10C4815F0B3F978683A
:1011500000F0DCF80837BD4680BD00BF287901707B
:10116000447901707C790170A4790170D47901709F
:10117000FC790170187A0170F50F0070487A0170DF
:10118000B0B58AB004AF78602C4815F093F97B684D
:101190001B7A002B09D17B68DB687B617B681B694C
:1011A0003B617B685B69FB6005E000237B6100239A
:1011B0003B610023FB607B6803F158027B681A6483
:1011C0007B6803F124007B68583307F10C0407F1B6
:1011D000100207F114011A4D02951A4D0195009362
:1011E000234610F0B1F87B682433184610F036F926
:1011F0007B682433184610F049F97B68243318467D
:1012000010F032F97B681B7A002B03D1786800F06C
:101210001FF807E00C4815F04DF97B682433184699
:1012200011F0D8F87B68012283F82020074815F0D8
:1012300041F900BF1837BD46B0BD00BF807A0170CC
:10124000C14D017015510170BC7A0170E07A0170D6
:1012500080B588B002AF78607B68DB687B617B68B3
:101260001B693B617B685B69FB607B6803F1240061
:1012700007F10C0307F1100207F1140110F038F820
:101280007B68DB68D9B27B68DB681B0ADAB27B68F3
:10129000DB681B0CD8B27B68DB681B0E009303462F
:1012A000034815F097F800BF1837BD4680BD00BF52
:1012B000187B017080B584B000AF7860396000237E
:1012C000FB6019E07B682433184613F06DFF7B68E0
:1012D0002433184611F00EF80346002B14BF0123E7
:1012E0000023DBB2002B01D001230AE00A2009F021
:1012F000F3F9FB680A33FB60FA683B689A42E1D372
:10130000002318461037BD4680BD000080B586B06A
:1013100000AF78607B681B7A022B2ED17B689B69BB
:101320001946594815F056F87B689B691946786844
:10133000FFF7C0FF034683F00103DBB2002B12D09E
:10134000524815F0B7F87968514813F047FD3861F5
:101350003B69002B03D039694E4815F03BF86420F7
:1013600009F0BAF909E07B682833184611F056FFF6
:1013700003461946484815F02DF80023FB75012354
:10138000BB757B682433184613F00EFF7B681B7A0D
:10139000012B1ED1FB7D83F00103DBB2002B18D0A3
:1013A0007B682433184610F0A5FF0346002B14BFBA
:1013B00001230023DBB2002B0BD07B6828331846B7
:1013C00011F02CFF03461946334815F003F80123AA
:1013D000FB757B685B681B6810331B687A68526812
:1013E000104698470346FB73BB7D002B10D0FB7B58
:1013F00083F00103DBB2002B0AD0284815F05AF81D
:101400007968274813F0EAFC0023FB750023BB75BD
:10141000BB7D83F00103DBB2002B30D0FB7B002BC4
:101420002DD0204815F046F879681F4813F0D6FCF7
:101430007B681B7A022B20D17B689B6919467868F0
:10144000FFF738FF034683F00103DBB2002B0AD01D
:101450000E4815F02FF879680D4813F0BFFC642092
:1014600009F03AF909E07B682833184611F0D6FEF6
:1014700003461946084814F0ADFF0123BB750A2046
:1014800009F02AF97DE700BF447B01707C7B017085
:10149000210F0070BC7B0170FC7B0170207C01700F
:1014A000450F0070407C0170990F007080B483B0CC
:1014B00000AF78607B6893F82030DBB2002B06D059
:1014C0007B6828331B68002B01D0012300E0002338
:1014D00018460C37BD465DF8047B704780B483B076
:1014E00000AF78607B6828331B6818460C37BD4610
:1014F0005DF8047B704780B483B000AF78607B6890
:101500004A3318460C37BD465DF8047B704780B4FB
:1015100089B000AFF860B9601346FB80FB683B619F
:10152000FB88FB830023BB6128E03A69BB69134455
:101530001B781BB21B021AB2B7F91E3053401BB204
:10154000FB8300237B6113E0B7F91E30002B09DA1F
:10155000B7F91E305B001AB241F2210353401BB2AF
:10156000FB8302E0FB8B5B00FB837B6901337B61C8
:101570007B69072BE8DDBB690133BB61BA69BB68D6
:101580009A42D2D3FB8B18462437BD465DF8047BC4
:10159000704780B584B000AFF8607B600B467B81FC
:1015A00013463B81FB68002242F045021A7000227C
:1015B00042F050025A70FB6801229A70FB683A7F31
:1015C000DA70FB687A899A80FB683A89DA80FB686E
:1015D0007A689A60FB683A8B9A8197F82030002BE2
:1015E00011D07B6A002B0ED03B8B002B0BD03B8B9A
:1015F0004FF6FF721946786AFFF789FF03461A46CD
:10160000FB68DA8105E0FB6800229A730022DA7336
:1016100000BF00BF1037BD4680BD80B483B000AFAF
:10162000786039603B680F2B01D8052318E07B6890
:101630001B889BB245F24502934201D001230FE083
:101640007B689B78012B01D0022309E07B689B8992
:101650009BB210333A689A4201D2052300E000237E
:1016600018460C37BD465DF8047B704780B584B0E2
:1016700000AFF860B9601346FB80FB681846FFF7BF
:10168000CBFC0A4AFB681A60FB68BA685A60FB68C0
:10169000FA881A81FB680022DA60FB6802221A7459
:1016A000FB6818461037BD4680BD00BFD08701706B
:1016B00080B588B000AF7860444814F0FBFE02E0CB
:1016C000642009F009F87B685B681846FFF7EEFEB6
:1016D000034683F00103DBB2002BF1D14CF2503111
:1016E0003B4814F077FE00220021202011F084FFF7
:1016F000B861BB69002B06D1364814F0DBFE002030
:1017000008F076FF5EE04CF250323349B86912F0CF
:1017100009F878617B69002B0AD079692F4814F0A9
:1017200059FEB86911F0CCFF002008F061FF49E0D4
:10173000BB69FA221A6209F0ADFAF8617B685B684E
:101740001846FFF7B3FE034683F00103DBB2002B1C
:1017500003D0C82008F0C0FFF0E709F09BFA386119
:101760003A69FB69D31AB3F57A7F05D3B96978680A
:1017700000F038F83B69FB610023FB6007F10C03C4
:101780001946B86912F0CEF978617B69002B0DD14A
:10179000FB68002B0AD0FB681A46B969786800F02C
:1017A0009FF8FB68184613F01BFA0AE07B6913F1F7
:1017B000030FC3D07B69002BC0D07969084814F0AF
:1017C00009FEBBE72037BD4680BD00BF647C0170C9
:1017D0009C7C0170D87C017000B50170147D017093
:1017E000487D017080B592B004AF7860396007F130
:1017F0000C037B6307F10C0310333B6309F04AFAD7
:1018000002463B6B1A603B6B00221A7100225A7130
:10181000002242F001029A710022DA717B681A7C80
:101820003B6B1A727B681B7C022B01D1012200E00A
:1018300000223B6B5A723B6B002262F01B029A72D1
:10184000002242F00C02DA723B6B002262F00502C9
:101850001A7300225A733B6B00229A730022DA73C8
:101860007B6819897B68DB685A1C7B68DA607B6857
:10187000DB680022039200220292002201921022D1
:1018800000920122786BFFF784FE13F09DF9F86255
:10189000FB6A002B1DD007F10C0320221946F86AC1
:1018A00013F0B0F94FF0FF33BB6007F108024CF2C0
:1018B0005033F96A386811F07FFFF86A13F090F935
:1018C0007B68D9687B681B7C1A46044814F082FD4B
:1018D00000E000BF3837BD4680BD00BF747D017099
:1018E00080B5A0B004AFF860B9607A600023FB64F3
:1018F0000023A7F84A3007F14A0207F14C031946C2
:10190000786813F0A1F9B7F84A300F2B40F2D28073
:10191000FB6CFB66B7F84A301946F86EFFF77DFEA0
:101920000346002B14BF01230023DBB2002B40F041
:10193000C380FB6EDB889BB2022B40F0C280FB6E43
:101940009B899BB2072B40F2B980FB6C1033BB66BE
:10195000BB6E9B889BB2002B07D0BB6E9B889AB254
:10196000FB681B899A4240F0AB8007F110037B664D
:1019700007F1100310333B66BB6E1A683B6E1A60AA
:10198000FB681A893B6E9A80FB681B7C1A463B6E8B
:10199000DA80FB685B681846FFF7A0FD02463B6EE5
:1019A0009A60FB685B681846FFF7A5FDF865FB6D5C
:1019B000002B07D03B6E0C330622F96D184615F04C
:1019C0000CF806E03B6E0C3306220021184614F09A
:1019D0006BFF3B6E00221A7500225A75002242F0FE
:1019E00001029A750022DA7509F054F902463B6E3D
:1019F0009A613B6E00221A7700225A7700229A776A
:101A00000022DA773B6E002283F82020002283F840
:101A10002120002283F82220002283F823203B6E1D
:101A2000002283F82420002283F82520002283F856
:101A30002620002283F82720FB681989FB68DB68D1
:101A40005A1CFB68DA60FB68DB6800220392002204
:101A5000029202220192282200920322786EFFF75E
:101A600098FD13F0B1F8B865BB6D002B29D007F1D4
:101A7000100338221946B86D13F0C4F87B68083398
:101A80007B657B689B89A7F85230B7F852307A6D36
:101A9000B96DB86811F090FEB86D13F0A1F8786DCB
:101AA00011F0BCFB0146B7F852301A46064814F054
:101AB00091FC06E000BF04E000BF02E000BF00E0D0
:101AC00000BF7037BD4680BDB07D017080B586B067
:101AD00000AFF860B9601346FB80FB681846FFF75B
:101AE0009BFA1F4AFB681A60FB68BA685A60FB6879
:101AF000FA881A81FB680022DA64FB68012283F805
:101B00005020FB684CF25132A3F85820FB680022A9
:101B1000DA65FB6800221A66FB6800225A66FB68D9
:101B20004FF0FF325A6500237B6110E0FA687B6951
:101B30000133DB00134400225A60FA687B690133E9
:101B4000DB00134400229A607B6901337B617B696F
:101B5000072BEBD9FB6818461837BD4680BD00BF80
:101B6000E487017080B584B000AFF860B9603B6075
:101B70001346FB80FB881A46B968F868FFF7A6FF92
:101B80003968F86800F006F8FB6818461037BD465B
:101B900080BD0000B0B588B002AF786039607B6866
:101BA000DB6C072B05D90821474814F013FC0023F0
:101BB00086E000237B612DE07A687B690133DB00DE
:101BC00013445B683A689A421AD07A687B69013399
:101BD000DB0013445B681B6808331A6879687B690B
:101BE0000133DB000B445B681846904704463B68B2
:101BF0001B6808331B683868984703469C4201D12C
:101C0000012300E00023002B01D0002358E07B6972
:101C100001337B617B68DB6C7A699A42CCD37B6849
:101C2000DB6C7A680133DB0013443A685A607B68E6
:101C3000DC6C09F02FF801467A68631CDB00134462
:101C400099607B68DB6C5A1C7B68DA6407F10803D7
:101C500000221A601A713B681B6808331B683868D9
:101C6000984738613B69DBB23B723B691B0ADBB2C8
:101C70007B723B691B0CDBB2BB723B691B0EDBB298
:101C8000FB723B681B680C331B6838689847044636
:101C90003B681B6810331B683868984703461D462D
:101CA0003B681B6818331B6838689847034607F180
:101CB000080200932B462146044814F08BFB0123B5
:101CC00018461837BD46B0BDE07D0170247E017016
:101CD00080B584B000AF786039600023FB602BE0F2
:101CE0007A68FB680133DB0013445B68002B16D075
:101CF0007A68FB680133DB0013445B681B680833B8
:101D00001A687968FB680133DB000B445B6818468E
:101D1000904702463B68934201D1012300E0002333
:101D2000002B06D07A68FB680133DB0013445B6844
:101D300008E0FB680133FB607B68DB6CFA689A4261
:101D4000CED3002318461037BD4680BD2DE9F041A3
:101D500088B002AFF860B9603B601346FB80FB6857
:101D6000BA6812685A65FB68FA88A3F858203B687D
:101D7000002B51D03968F868FFF7AAFF38613B693A
:101D8000002B00F0A8803B691B6830331B680121E1
:101D9000386998473B8E002B07D03B691B6814338A
:101DA0001B683A8E114638699847BB8E002B0AD0C3
:101DB0003B8E642B07D93B691B681C331B68BA8EAA
:101DC0001146386998473B691B680C331B683869B2
:101DD00098470446FB685433184611F01FFA05462D
:101DE000FB68B3F8583098463B691B6810331B6892
:101DF0003869984703461E463B691B6818331B68C1
:101E00003869984703460193009643462A4621467F
:101E1000354814F0DFFA5EE000237B6149E0FA68A0
:101E20007B690133DB0013445B68002B3ED0FA680A
:101E30007B690133DB0013445B681B6830331A682D
:101E4000F9687B690133DB000B445B6801211846AC
:101E500090473B8E002B11D0FA687B690133DB0081
:101E600013445B681B6814331A68F9687B69013393
:101E7000DB000B445B68398E18469047BB8E002B05
:101E800014D03B8E642B11D9FA687B690133DB00D7
:101E900013445B681B681C331A68F9687B6901335B
:101EA000DB000B445B68B98E184690477B690133B1
:101EB0007B61FB68DB6C7A699A42B0D3FB68543370
:101EC000184611F0ABF90146FB68B3F858301A46D2
:101ED000064814F07FFAFB68012283F8502000BF07
:101EE0001837BD46BDE8F081787E0170C87E01706C
:101EF00080B584B000AF786039603B68002B1AD0A1
:101F000039687868FFF7E4FEB860BB68002B43D0FF
:101F1000BB681B6830331B680021B8689847BB68F2
:101F20001B680C331B68B8689847034619461C4861
:101F300014F050FA30E00023FB601CE07A68FB6884
:101F40000133DB0013445B68002B11D07A68FB6817
:101F50000133DB0013445B681B6830331A6879680F
:101F6000FB680133DB000B445B6800211846904797
:101F7000FB680133FB607B68DB6CFA689A42DDD357
:101F80007B68002283F850207B68196E7B685B6E4B
:101F90001A46044814F01EFA00BF1037BD4680BD33
:101FA000007F0170307F01702DE9B04F8CB000AF21
:101FB0007860964814F07EFA02E0642008F08CFB0A
:101FC0007B685B681846FFF771FA034683F00103EC
:101FD000DBB2002BF1D17B68B3F8583019468C483E
:101FE00014F0F8F90023FB620FE00022002120200A
:101FF00011F002FBF862FB6A002B06D1854814F051
:1020000059FA4FF4FA7008F067FBFB6A002BECD02A
:1020100008F040FE38610023BB6209E07A68BB6AC1
:102020000133DB0013443A699A60BB6A0133BB6237
:102030007B68DB6CBA6A9A42F0D37B6893F85030C5
:10204000DBB283F00103DBB2002B0ED17B685B684F
:102050001846FFF72BFA034683F00103DBB2002B8F
:1020600003D17B68DB6C002B01D1012300E000234E
:10207000002B18D0322008F02FFB08F00BFE38613F
:1020800000237B6209E07A687B6A0133DB0013443A
:102090003A699A607B6A01337B627B68DB6C7A6A9F
:1020A0009A42F0D3B0E008F0F5FD386100233B62BE
:1020B000A1E03B6A0133DB007A6813440433FB6020
:1020C000FB681B68002B0ED0FB681B681B682C3359
:1020D0001B68FA68126810469847034683F00103AC
:1020E000DBB2002B01D0012300E00023002B7ED1C6
:1020F000FB681B681B6810331B68FA68126810467F
:1021000098470346FB83FB681B681B6818331B68F2
:10211000FA681268104698470346BB83FB8B002B76
:1021200001D10123FB83BB8B002B01D10123BB8396
:10213000BB8B4FF47A7203FB02F2FB8BB2FBF3F31F
:10214000BB61BB69002B01D10123BB61BB690022CC
:102150009846914642464B464FF000004FF0000132
:10216000590141EAD261500102460B46B2EB080424
:1021700063EB09054FF000024FF00003AB0043EAA8
:102180009473A20014461D4614EB080A45EB090B94
:102190004FF000024FF000034FEACB0343EA5A73BB
:1021A0004FEACA0292469B46504659464FF47A720D
:1021B0004FF00003FEF77CF802460B4613467B61A6
:1021C0007B69002B01D101237B61FB685B683A6965
:1021D000D31A7A699A420BD8FB681B681A46F96AC7
:1021E000786800F019F8FB683A695A6000E000BFAF
:1021F0003B6A01333B627B68DB6C3A6A9A42FFF4CC
:1022000058AF012008F068FA17E700BF7C7F017023
:10221000B47F0170048001702DE9F04F97B004AFD6
:10222000F860B9607A604FF4B8633B647B681B6800
:1022300010331B68786898470346FB877B681B68E8
:1022400020331B68786898470346BB877B681B6808
:1022500024331B687868984703467B877B681B6834
:1022600028331B687868984778637B6B002B00F0F5
:10227000EA807B681B6818331B68786898470346B8
:102280007B867B8E642B04D87B8E002B01D07B8ECB
:1022900000E00123A7F8463040F29C527B6BB2FB72
:1022A000F3F3FB62B7F84630FA6A9A4202D2FB6A4D
:1022B000A7F84630674BBB62674B7B62674B3B625C
:1022C0007B681B6834331B68B7F84620396A786826
:1022D0009847F861FB69002B00F0B780FB699AB260
:1022E0007B6B9BB212FB03F37B837B8B14333B83AF
:1022F00008F0D0FC034600229846914642464B46E1
:102300004FF000004FF00001590141EAD261500145
:1023100002460B46B2EB080463EB09054FF00002DE
:102320004FF00003AB0043EA9473A20014461D462D
:1023300014EB080A45EB090B4FF000024FF00003C5
:102340004FEACB0343EA5A734FEACA0292469B46CE
:1023500052465B46796A0A604B607B681B680833AB
:102360001B687868984702467B6A9A607B6AFA8F96
:102370009A81FB699AB27B6ADA817B6ABA8F1A8288
:102380007B6A7A8F5A82FB681989FB68DB6D5A1C5D
:10239000FB68DA65FB68DA6D002303930023029380
:1023A000082301933B8B009313464FF40072B86AE5
:1023B000FFF7EFF812F008FC78617B69002B45D03D
:1023C0003B8B10337B827B8A1A462249786912F054
:1023D00019FCFB6803F15402FB68B3F858307969C3
:1023E000B86811F0E9F9786912F0FAFBFB681B6E26
:1023F0005A1CFB681A66FB685A6EFB691A44FB6834
:102400005A667B681B680C331B68786898470646D9
:10241000FB68DC6DFB681D6EFB685433184610F0DA
:10242000FDFE0146FB68B3F858301846FB8FFA6989
:1024300003920293019000912B46224631460848B0
:1024400013F0C8FF02E000BF00E000BF4C37BD46FC
:10245000BDE8F08F540300246403002478030024B3
:102460004480017080B483B000AF78600B46FB708D
:102470007B68FA781A7400BF0C37BD465DF8047BA0
:10248000704780B483B000AF78607B681B7C1846CF
:102490000C37BD465DF8047B704780B483B000AF55
:1024A00078607B6893F85030DBB218460C37BD4635
:1024B0005DF8047B704780B483B000AF78607B68C0
:1024C000DB6C18460C37BD465DF8047B704780B462
:1024D00083B000AF786039607B68DB6C3A689A4201
:1024E00006D27A683B680133DB0013445B6800E086
:1024F000002318460C37BD465DF8047B704780B456
:1025000000AF00BFBD465DF8047B704780B584B066
:1025100000AFF860B9607A603B60FB681846FEF770
:102520007BFD0B4AFB681A60FB68BA685A60FB685F
:102530007A689A60FB683A68DA60FB683A8B1A82BC
:10254000FB6800225A61FB6818461037BD4680BD03
:10255000F887017080B588B000AF7860444813F008
:10256000A9FF02E0642008F0B7F87B685B681846B2
:10257000FEF79CFF034683F00103DBB2002BF1D191
:102580004CF252313B4813F025FF0022002110206D
:1025900011F032F8F861FB69002B06D1364813F0D0
:1025A00089FF002008F024F85EE04CF252323349F3
:1025B000F86911F0B7F8B861BB69002B0AD0B969A6
:1025C0002F4813F007FFF86911F07AF8002008F09F
:1025D0000FF849E0FF21F86911F0C2F8B861BB6952
:1025E000002B0AD0B969274813F0F4FEF86911F0FE
:1025F00067F8002007F0FCFF36E000237B6107F15D
:1026000014031946F86911F071F9B861BB69002B20
:1026100026D17B69002B23D0786907F10E0207F1E0
:102620001001002311F05AF807F11003184610F0BA
:10263000F5FD0346FA891946134813F0CBFE7B6972
:102640001946786800F024F87B69184611F03CF9C7
:102650007B69184611F034F80C4813F02BFF02E0A8
:10266000642008F039F8C8E72037BD4680BD00BFB8
:10267000A4800170D88001701081017000B50170D4
:102680004481017078810170B0810170E481017032
:1026900080B58CB002AF7860396007F1160207F19F
:1026A00018010023386811F019F800233B6107F185
:1026B00010031946386811F035FA78627B6A002BEE
:1026C0003CD13B69002B39D00023FB6000237B8188
:1026D0003B6907F10A0207F10C01184612F0B4FA3F
:1026E0007B890F2B25D9FB683B627B891946386AA9
:1026F000FEF793FF0346002B0CBF01230023DBB240
:10270000002B0CD0FB681033FB6107F1180300931A
:10271000FB693A6A3968786800F014F809E03B6AA6
:10272000DB889AB20023009301233968786800F0AF
:102730007BFB3B69184612F053FAB6E700BF283717
:10274000BD4680BD90B5E1B004AF07F5B874A4F5FF
:10275000B274206007F5B870A0F5B470016007F599
:10276000B871A1F5B6710A6007F5B872A2F5B87232
:10277000136007F5B873A3F5B6731B689A79DB7914
:102780001B021343A7F85E31B7F85E31B3F5F87F4B
:1027900000F00383B7F85E31B3F5F87F00F21983D8
:1027A000B7F85E31B3F5907F00F0D381B7F85E31B2
:1027B000B3F5907F00F20D83B7F85E3140F211124D
:1027C000934200F06981B7F85E31B3F5897F80F0FC
:1027D0000083B7F85E31B3F5807F06D0B7F85E317D
:1027E000B3F5887F00F0C680F3E207F11403C7F861
:1027F000343107F114031033C7F83031D7F83031D2
:1028000000221A7000225A7000229A700022DA7098
:1028100007F5B873A3F5B2731B681A8AD7F830317D
:102820009A8007F5B873A3F5B2731B689B681846C6
:10283000FFF727FE03461A46D7F83031DA8007F54E
:10284000B873A3F5B2731B685B681846FEF746FEC3
:102850000246D7F830319A6007F5B873A3F5B27322
:102860001B685B681846FEF746FEC7F82C01D7F8D0
:102870002C31002B09D0D7F830310C330622D7F891
:102880002C11184614F0A9F807E0D7F830310C33B2
:1028900006220021184614F007F8D7F8303100223C
:1028A0001A7500225A75002242F001029A75002220
:1028B000DA7508F0EFF90246D7F830319A61D7F8A7
:1028C000303100221A7700225A7700229A770022AC
:1028D000DA77D7F83031002283F82020002283F8FD
:1028E0002120002283F82220002283F82320D7F819
:1028F0003031002283F82420002283F82520002292
:1029000083F82620002283F8272007F5B873A3F563
:10291000B2731B68198A07F5B873A3F5B2731B6805
:102920005B695A1C07F5B873A3F5B2731B685A614B
:1029300007F5B873A3F5B2731B685B6900220392B5
:1029400000220292022201922822009240F20112F9
:10295000D7F83401FEF71DFE07F1140107F5B8732F
:10296000A3F5B4700023009301233822006810F00F
:102970009FFF50E20023C7F86C310023A7F86A31AB
:102980000023A7F8683107F5B873A3F5B6731B6881
:102990009B899BB2072B45D907F5B873A3F5B8738C
:1029A0001B68C7F83831D7F838315B68642B04D915
:1029B000D7F838315B68C7F86C31D7F838311B88E5
:1029C0009BB2002B05D0D7F838311B889BB2C7F8D3
:1029D0006C31D7F838315B889BB2002B0FD0D7F819
:1029E00038315B889BB242F21072934207D0D7F81D
:1029F00038319A78DB781B021343A7F86A31D7F88D
:102A00006C31002B0ED0D7F838315B68002B09D021
:102A1000D7F838315B68642B04D8D7F838315B6855
:102A2000A7F868314FF0FF33C7F8283107F5B873BE
:102A3000A3F5B2731B68D86807F59471B7F86831CD
:102A40000193B7F86A310093D7F86C314CF25132E8
:102A5000FFF77CF907F5B873A3F5B2731B689B68A1
:102A600002211846FFF7FEFC07F5B873A3F5B6730D
:102A70001B68DB889AB2B7F86A3107F5B871A1F51F
:102A8000B47107F5B870A0F5B2700093002309681F
:102A9000006800F0C9F9BEE10023C7F8643107F50A
:102AA000B873A3F5B6731B689B899BB2072B15D926
:102AB00007F5B873A3F5B8731B68C7F83C31D7F8AE
:102AC0003C315B68642B03D9D7F83C315B6803E089
:102AD000D7F83C311B889BB2C7F8643107F5B8734F
:102AE000A3F5B2731B68DB68D7F864111846FFF7CB
:102AF000FFF907F5B873A3F5B2731B68DB681846D6
:102B0000FFF7CBFC034683F00103DBB2002B09D0B7
:102B100007F5B873A3F5B2731B689B6801211846CB
:102B2000FFF7A0FC07F5B873A3F5B6731B68DB8845
:102B30009AB207F5B873A3F5B47107F5B873A3F5A6
:102B4000B2700023009300230968006800F06CF95C
:102B500061E107F5B873A3F5B2731B68DB6818462B
:102B6000FFF7A9FCC7F85801D7F858319BB25B01B1
:102B70009BB20433A7F8563107F11403C7F850315C
:102B800007F114031033C7F84C3107F11403143361
:102B9000C7F84831D7F858319AB2D7F84C311A8073
:102BA000D7F84C3100229A700022DA700023C7F85F
:102BB0006031A9E007F5B873A3F5B2731B68DB6851
:102BC000D7F860111846FFF782FCC7F84001D7F824
:102BD0004031002B00F09380D7F840311B68083358
:102BE0001B68D7F860215201D7F848118C18D7F824
:102BF0004001984703462360D7F860315B01D7F85E
:102C000048211344043310220021184613F04CFECF
:102C1000D7F860315B01D7F8482113441C1DD7F861
:102C200040311B680C331B68D7F8400198470346B6
:102C30000F221946204613F03FFED7F840311B689B
:102C400010331B68D7F860215201D7F848118C184F
:102C5000D7F8400198470346A382D7F840311B6854
:102C600018331B68D7F860215201D7F848118C1827
:102C7000D7F8400198470346E382D7F840311B68F4
:102C800020331B68D7F860215201D7F848118C18FF
:102C9000D7F84001984703462383D7F840311B6893
:102CA00024331B68D7F860215201D7F848118C18DB
:102CB000D7F84001984703466383D7F840311B6833
:102CC0002C331B68D7F8400198470346002B01D0EE
:102CD000012100E00021D7F860315B01D7F84821DD
:102CE00013440A461A77D7F860315B01D7F84821B8
:102CF00013441D3303220021184613F0D5FDD7F8E5
:102D000060310133C7F86031D7F86021D7F8583106
:102D10009A42FFF44FAF07F5B873A3F5B2731B687F
:102D2000198A07F5B873A3F5B2731B685B695A1C5F
:102D300007F5B873A3F5B2731B685A6107F5B8734A
:102D4000A3F5B2731B685A6900230393002302930F
:102D500002230193B7F856310093134640F2211233
:102D6000D7F85001FEF715FCB7F856311033A7F825
:102D70004631B7F8462107F1140107F5B873A3F5FA
:102D8000B470002300930123006810F091FDD7F880
:102D90005811234813F01EFB3DE007F5B873A3F567
:102DA000B6731B68DB889AB207F5B873A3F5B471E4
:102DB00007F5B873A3F5B2700023009300230968E8
:102DC000006800F031F8C82007F086FCFFF797FB99
:102DD00021E007F5B873A3F5B6731B68DB889BB2D7
:102DE0001946104813F0F6FA07F5B873A3F5B67351
:102DF0001B68DB889AB207F5B873A3F5B47107F5C1
:102E0000B873A3F5B2700023009304230968006827
:102E100000F00AF800BF00BF07F5BA77BD4690BDC5
:102E2000108201704882017080B594B004AFF860E0
:102E3000B96011461A460B46FB801346BB8007F16A
:102E40001403BB6307F1140310337B637B6BFA88B5
:102E50001A807B6BBA885A807B6BBA6C5A607B6B2A
:102E600000221A7200225A7200229A720022DA722A
:102E7000BB88002B02D14FF4FF7301E040F2FF1337
:102E80007B86022387F83F30BB88002B05D097F85C
:102E90003F3043F0040387F83F30FB68198AFB6832
:102EA0005B695A1CFB685A61FB6858697A8E00237B
:102EB00003930023029397F83F3001930C23009370
:102EC0000346B86BFEF765FB07F11401002300937E
:102ED00001231C22B86810F0EBFC00BF4037BD4650
:102EE00080BD000080B584B000AFF860B9607A6042
:102EF000FB681846FEF790F8064AFB681A60FB6804
:102F0000BA685A60FB687A689A60FB68184610379E
:102F1000BD4680BD0C88017080B584B000AF78607C
:102F20000023FB737B685B681B6810331B687A683F
:102F3000526810469847FB7B83F00103FB73FB7BD1
:102F4000002B04D04FF47A7001F0E0FEEAE74FF472
:102F50007A6001F0DBFEE5E780B400AF00BFBD465C
:102F60005DF8047B704780B586B000AF3B1D002242
:102F70001A605A609A60DA6002F022F90023FB7549
:102F800006E0FB7D184602F039F9FB7D0133FB7545
:102F9000FB7D0F2BF5D901233B7100237B710023AF
:102FA000BB601F233B7387237B730023BB7300230A
:102FB000FB7301233B7400237B740023BB74002349
:102FC000FB743B1D184602F02FF901237B714FF073
:102FD000E043BB601A233B7300237B730123BB7365
:102FE0000323FB7300233B7400237B740123BB7416
:102FF0000123FB743B1D184602F016F902237B7176
:103000004FF04053BB600E233B7300237B730023C0
:10301000BB730323FB7301233B7400237B740023E6
:10302000BB740023FB743B1D184602F0FDF804201E
:1030300002F0A4F800BF1837BD4680BD80B588B047
:1030400000AF1B4BD3F84831194A43F48023C2F830
:103050004831174BD3F84831BB60BB68144BD3F8E9
:103060004031134A43F00803C2F84031104BD3F803
:1030700040317B607B6807F10C0300221A605A60C4
:103080009A60DA601A614FF44073FB6002233B617F
:1030900000237B610023BB610723FB6107F10C0365
:1030A0001946044803F0C0FE00BF2037BD4680BD6E
:1030B00000440258000C025880B584B000AFFFF7FE
:1030C00052FF434B5B6903F40033002B14BF012311
:1030D0000023DBB2002B1BD1BFF34F8F00BFBFF328
:1030E0006F8F00BF3A4B0022C3F85022BFF34F8FBF
:1030F00000BFBFF36F8F00BF354B5B69344A43F4A9
:1031000000335361BFF34F8F00BFBFF36F8F00E0F9
:1031100000BF2F4B5B6903F48033002B14BF0123E6
:103120000023DBB2002B42D1294B0022C3F88420BC
:10313000BFF34F8F00BF264BD3F88030FB60FB6896
:103140005B0BC3F30E03BB60FB68DB08C3F309032F
:103150007B60BB685A0143F6E07313407A689207BC
:103160001B491343C1F860327B685A1E7A60002BFA
:1031700014BF01230023DBB2002BEAD1BB685A1E27
:10318000BA60002B14BF01230023DBB2002BDBD17C
:10319000BFF34F8F00BF0E4B5B690D4A43F4803382
:1031A0005361BFF34F8F00BFBFF36F8F00E000BFCD
:1031B00001F0F3FDFFF7D0FE00F0B6FAFFF73EFF97
:1031C000044800F03DFD00BF1037BD4680BD00BF84
:1031D00000ED00E01409002480B400AF024B184653
:1031E000BD465DF8047B70471409002480B586B0A5
:1031F00000AF134BD3F84031114A43F00803C2F833
:1032000040310F4BD3F840313B603B683B1D0022FF
:103210001A605A609A60DA601A614FF480637B60CA
:103220000123BB600023FB6000233B613B1D19466B
:10323000044803F0F9FD044B18461837BD4680BD1D
:1032400000440258000C0258AC09002480B483B03A
:1032500000AF7860044A7B681A607B6818460C37B8
:10326000BD465DF8047B70472088017080B582B050
:1032700000AF78607868FFF7E9FF0421786812F002
:103280006CFD7B6818460837BD4680BD80B582B0AE
:1032900000AF7860054A7B681A607B681846FFF7C4
:1032A000D5FF7B6818460837BD4680BD7888017019
:1032B00080B582B000AF78607868FFF7E7FF9821AB
:1032C000786812F04AFD7B6818460837BD4680BD15
:1032D00080B483B000AF7860044A7B681A607B6872
:1032E00018460C37BD465DF8047B7047388801707E
:1032F00080B582B000AF78607868FFF7E9FF0421FD
:10330000786812F02AFD7B6818460837BD4680BDF4
:1033100080B582B000AF7860054A7B681A607B6830
:103320001846FFF7D5FF7B6818460837BD4680BDB5
:103330005888017080B582B000AF78607868FFF778
:10334000E7FF0C21786812F008FD7B681846083703
:10335000BD4680BD80B500AF4FF4E1320A490B484D
:1033600000F032FC0A4A0B49084812F0F1FC4FF415
:1033700080620949094800F0B5FB054A0849074839
:1033800012F0E6FC00BF80BD004800401409002494
:10339000000000248D320070000C0258AC0900249B
:1033A0001133007080B500AFFFF7D4FF80BD80B44B
:1033B00000AF00BFBD465DF8047B704780B5DAB052
:1033C00000AF07F5B473A3F5B273186007F5B473D3
:1033D000A3F5B2731B681B688A4A934240F00C81C4
:1033E00007F5AA7300221A605A609A60DA601A61BF
:1033F00007F5B473A3F5B073184690231A4600215D
:1034000013F052FA07F198039C220021184613F09A
:103410004BFA0023C7F898300223C7F80C31002379
:10342000C7F810310423C7F814311923C7F818312D
:103430000223C7F81C310223C7F820310223C7F842
:1034400024310823C7F828310223C7F82C31002380
:10345000C7F8303107F19803184603F053FF07F51A
:10346000B473A3F5B0714FF4C0724FF00003C1E91B
:10347000002307F5B473A3F5B07300225A6207F571
:10348000B473A3F5B0734FF480229A6207F1080376
:10349000184604F0E1FE5C4BD3F838315A4A43F445
:1034A0000043C2F83831584BD3F83831C7F850319F
:1034B000D7F85031544BD3F83831534A43F4803362
:1034C000C2F83831504BD3F83831C7F84C31D7F8FF
:1034D0004C314D4BD3F838314B4A43F40033C2F8EA
:1034E0003831494BD3F83831C7F84831D7F848312B
:1034F000454BD3F84031444A43F00103C2F8403110
:10350000414BD3F84031C7F84431D7F844313E4BF2
:10351000D3F840313C4A43F00203C2F840313A4B01
:10352000D3F84031C7F84031D7F84031364BD3F8A3
:103530004031354A43F00803C2F84031324BD3F8EA
:103540004031C7F83C31D7F83C312F4BD3F84031EC
:103550002D4A43F04003C2F840312B4BD3F84031A1
:10356000C7F83831D7F83831274BD3F85431264AC9
:1035700043F00203C2F85431234BD3F85431C7F857
:103580003431D7F834311023C7F854310223C7F847
:1035900058310023C7F85C310223C7F860310B2390
:1035A000C7F8643107F5AA731946184803F03CFCC4
:1035B0004023C7F8543107F5AA731946144803F09D
:1035C00033FC43F67003C7F8543107F5AA73194664
:1035D000104803F029FC8423C7F8543107F5AA7377
:1035E00019460D4803F020FC002205215C2001F063
:1035F00082FD5C2001F099FD00BF07F5B477BD4660
:1036000080BD00BF0080024000440258000C0258F8
:1036100000040258001802580000025880B582B019
:1036200000AF78607B681B68194A93422BD1194B15
:10363000D3F83831174A23F40043C2F83831154B18
:10364000D3F83831134A23F48033C2F83831114BA0
:10365000D3F838310F4A23F40033C2F8383110213F
:103660000D4803F041FD40210C4803F03DFD43F6B9
:1036700070010B4803F038FD84210A4803F034FD43
:103680005C2001F060FD00BF0837BD4680BD00BF73
:103690000080024000440258000C02580004025806
:1036A00000180258000002580D48854600F026F820
:1036B0000C480D490D4A002302E0D458C45004338D
:1036C000C4188C42F9D30A4A0A4C002301E0136063
:1036D0000432A242FBD313F059F9FDF739F9FEE7A2
:1036E00000000120000000249000002410B60170AA
:1036F00090000024103E0324FEE7000080B400AFD9
:10370000074B084A9A60064BD3F88830044A43F4C2
:103710007003C2F8883000BFBD465DF8047B704777
:1037200000ED00E00000007080B489B000AF924B63
:103730001B6903F03803182B00F2FB8001A252F83A
:1037400023F000BFA937007033390070333900709F
:1037500033390070333900703339007033390070F9
:1037600033390070BD370070333900703339007061
:1037700033390070333900703339007033390070D9
:1037800033390070C337007033390070333900703B
:1037900033390070333900703339007033390070B9
:1037A00033390070C9370070734B1B68DB0803F0B6
:1037B0000303724A22FA03F3FB61C4E0704BFB611E
:1037C000C1E0704BFB61BEE06B4B9B6A03F00303EF
:1037D0003B61694B9B6A1B0903F03F03FB60664B2F
:1037E000DB6A03F00103002B0BD0634B5B6BDB0840
:1037F000C3F30C0307EE903AF8EE677AC7ED067A4A
:1038000002E04FF00003BB61FB68002B00F08E80EC
:103810003B69012B24D03B69022B43D1FB6807EEA7
:10382000903AF8EE677ADFED586A86EEA77A524B47
:103830001B6BC3F3080307EE903AF8EE676A97ED47
:10384000066ADFED525AC6EE257A76EEA77AF7EED3
:10385000006A77EEA67A67EE277AC7ED057A4FE021
:10386000FB6807EE903AF8EE677ADFED496A86EE7C
:10387000A77A414B1B6BC3F3080307EE903AF8EEAF
:10388000676A97ED066ADFED415AC6EE257A76EE55
:10389000A77AF7EE006A77EEA67A67EE277AC7ED89
:1038A000057A2DE0344B1B68DB0803F00303334A31
:1038B00022FA03F3BB60BB6807EE903AF8EE676A42
:1038C000FB6807EE903AF8EE677A86EEA77A2A4B05
:1038D0001B6BC3F3080307EE903AF8EE676A97EDA7
:1038E000066ADFED2A5AC6EE257A76EEA77AF7EE5B
:1038F000006A77EEA67A67EE277AC7ED057A00BFF1
:103900001D4B1B6B5B0A03F07F0301337B607B68FD
:1039100007EE903AB8EE677AD7ED056AC6EE877A79
:10392000FCEEE77A17EE903AFB610CE00023FB61B6
:1039300009E0114B1B68DB0803F003030F4A22FA6E
:1039400003F3FB6100BF0C4B9B6903F00F033B606B
:103950003B68072B07D93B68073BFA6922FA03F358
:103960000C4A136002E00B4AFB69136000BF243766
:10397000BD465DF8047B7047004402580090D003B8
:1039800000093D0000366E01001BB74B00000046E9
:103990000024744A1C00002480B500AF01F052FAE4
:1039A00007F00CFD0346012B14BF01230023DBB2FB
:1039B000002B01D009F088F800BF80BD80B58AB027
:1039C00000AF78607B681B687B627B685B683B62EA
:1039D0007B689B68FB617B68DB68BB617B681B69FC
:1039E0007B617B685B693B617B689B69FB607B6893
:1039F000DB69BB601C4812F05DFD1C4812F05AFDEB
:103A0000F9681B4812F0E6FC39691A4812F0E2FC2A
:103A10003A6A796A184812F0DDFCBA69F969174800
:103A200012F0D8FCBA687969154812F0D3FC154B2E
:103A30009B6A1946144812F0CDFC124BDB6A1946FA
:103A4000124812F0C7FC0F4B5B6B1946104812F07E
:103A5000C1FC0C4B9B6B19460E4812F0BBFC0E4888
:103A600012F028FD00BFFDE77C820170A882017082
:103A7000C4820170D4820170E482017004830170F9
:103A80002483017000ED00E0448301705C830170C9
:103A9000748301708C830170A48301701EF0040F85
:103AA0000CBFEFF30880EFF30980FFF787BF00BF7B
:103AB000FFF7F4FF00BFFFF7F1FF00BFFFF7EEFFD6
:103AC00000BF000080B483B000AF7860044A7B6818
:103AD0001A607B6818460C37BD465DF8047B70475A
:103AE0003888017080B584B000AFF860B9601346C3
:103AF000FB80FB681846FFF7E5FF074AFB681A6082
:103B0000FB68BA685A60FB68FA881A81FB68184635
:103B10001037BD4680BD00BF5888017080B582B0A7
:103B200000AF78607B6858687B681B890122194662
:103B300003F0B6FB00BF0837BD4680BD80B582B03C
:103B400000AF78607B6858687B681B890022194643
:103B500003F0A6FB00BF0837BD4680BD80B582B02C
:103B600000AF78607B685A687B681B8919461046ED
:103B700003F0AEFB00BF0837BD4680BD80B582B004
:103B800000AF78607B685A687B681B8919461046CD
:103B900003F06EFB0346012B0CBF01230023DBB2B5
:103BA00018460837BD4680BD80B483B000AF78604A
:103BB000044A7B681A607B6818460C37BD465DF87E
:103BC000047B70472088017080B584B000AFF86036
:103BD000B9607A60FB681846FFF7E6FF174AFB6892
:103BE0001A60FB68043394220021184612F05CFE30
:103BF000FB68BA685A60FB687A689A60FB680022C2
:103C0000DA60FB6800221A61FB6800225A61FB68D7
:103C10000C229A61FB680022DA61FB6800221A62BA
:103C2000FB6800225A62FB6800229A62FB6800224D
:103C3000DA62FB6818461037BD4680BD788801708F
:103C400080B582B000AF78607B680433184605F019
:103C5000F5FB0346002B0CBF01230023DBB2184603
:103C60000837BD4680BD80B584B000AFF860B9604C
:103C70007A60FB68181D7B689AB24FF0FF33B96811
:103C800005F036FC0346002B0CBF01230023DBB2FA
:103C900018461037BD4680BD80B584B000AFF860CF
:103CA000B9607A60FB68181D7B689AB24FF0FF33E9
:103CB000B96805F0B6FC0346002B0CBF01230023B6
:103CC000DBB218461037BD4680BD000080B500AF9E
:103CD0000C4B1B68002B12D00A4B1B68184601F0D6
:103CE00045FE084B1B681B68064A1268126803F5FC
:103CF0008053D3F8603102F58052C2F8603100BFC2
:103D000080BD00BFB809002480B483B000AF7860E4
:103D100000BF0C37BD465DF8047B704780B483B0AC
:103D200000AF786000BF0C37BD465DF8047B70477C
:103D300080B483B000AF786000BF0C37BD465DF83B
:103D4000047B704780B483B000AF78600B4B1B6876
:103D500040F2DC5202FB03F3094A1A447B681A6002
:103D6000064B1B68013303F00303044A136000BFD2
:103D70000C37BD465DF8047B704700BFBC090024CA
:103D80006000003080B58CB000AFF860B9607A6038
:103D90007B807B887A68FA61BB61BB69002B1DDD83
:103DA000FB6903F01F02BB6913447B61FB693B6144
:103DB000BFF34F8F00BF284A3B69C2F85C323B69B2
:103DC00020333B617B69203B7B617B69002BF2DC0C
:103DD000BFF34F8F00BFBFF36F8F00BF00BF7B8863
:103DE0004FF4C1721946002009F07CF9B862BB6A31
:103DF000002B05D07B881A467968B86A09F096FBD3
:103E0000FB687B62BB683B62BB6A002B20D07B6A8D
:103E10001B68002B03D17B6ABA6A1A6003E03B6A15
:103E20001B68BA6A1A603B6ABA6A1A607B6A1B68C6
:103E3000FB6209E0FB6A1A897B8813449AB2FB6A29
:103E40001A81FB6A1B68FB62FB6A002BF2D100E05F
:103E500000BF3037BD4680BD00ED00E080B483B0C8
:103E600000AF7860044A7B681A607B6818460C379C
:103E7000BD465DF8047B7047DC88017080B483B078
:103E800000AF7860044A7B681A607B6818460C377C
:103E9000BD465DF8047B7047DC88017080B582B058
:103EA00000AF78607868FFF7E9FF0421786811F0C7
:103EB00054FF7B6818460837BD4680BD80B483B088
:103EC00000AF7860044A7B681A607B6818460C373C
:103ED000BD465DF8047B7047C488017080B582B030
:103EE00000AF78607868FFF7E9FF0421786811F087
:103EF00034FF7B6818460837BD4680BD80B582B068
:103F000000AF7860054A7B681A607B681846FFF747
:103F1000D5FF7B6818460837BD4680BD1089017003
:103F200080B582B000AF78607868FFF7E7FF0821BE
:103F3000786811F012FF7B6818460837BD4680BDCF
:103F400080B584B000AFF860B9607A60FB6818464D
:103F5000FFF784FF104AFB681A60FB68BA680433F5
:103F600007CA83E80700FB687A681A61FB6803F1F7
:103F7000C402FB6814331946104600F00DFCFB68C0
:103F80000022C3F8CC20FB680022C3F8D020FB68D5
:103F900018461037BD4680BD9088017080B582B04C
:103FA00000AF78600A4A7B681A607B681433184651
:103FB00001F07CFA7B68C4331846FFF79FFF7B68EB
:103FC0001846FFF75BFF7B6818460837BD4680BD83
:103FD0009088017080B582B000AF78607868FFF794
:103FE000DDFFD421786811F0B8FE7B6818460837E9
:103FF000BD4680BD80B58AB000AF7860714BD3F804
:104000003C31704A43F00053C2F83C316D4BD3F859
:104010003C31FB60FB686C4B0022C3F88420BFF38B
:104020004F8F00BF684BD3F88030BB61BB695B0B1F
:10403000C3F30E037B61BB69DB08C3F309033B6178
:104040007B695A0143F6E07313403A6992075E496F
:104050001343C1F874323B695A1E3A61002B14BFF6
:1040600001230023DBB2002BEAD17B695A1E7A615F
:10407000002B14BF01230023DBB2002BDBD1BFF3E5
:104080004F8F00BFBFF36F8F00BF00BFBFF34F8FD5
:1040900000BFBFF36F8F00BF7B681433B0220021D5
:1040A000184612F001FC7B68484A5A617B681A1D69
:1040B0007B689A617B68DB68DAB27B681A777B6819
:1040C000434A1A627B68434A5A627B6840F2DC5278
:1040D0009A627B681433404A13603B4B0022C3F85A
:1040E0008420BFF34F8F00BF374BD3F880307B6203
:1040F0007B6A5B0BC3F30E033B627B6ADB08C3F393
:104100000903FB613B6A5A0143F6E0731340FA6905
:1041100092072D491343C1F87432FB695A1EFA61A4
:10412000002B14BF01230023DBB2002BEAD13B6A32
:104130005A1E3A62002B14BF01230023DBB2002B6E
:10414000DBD1BFF34F8F00BFBFF36F8F00BF00BF46
:104150007B681433184601F0ADF80346002B14BFFA
:1041600001230023DBB2002B04D01C4812F0A2F97B
:10417000002322E05C2000F0E6FF7B681B691B68DF
:1041800008331B687A6810697A68C4321146984708
:104190007B681B691B680C331B687A6812691046C0
:1041A0009847034683F00103DBB2002B04D00C4890
:1041B00012F080F9002300E0012318462837BD469D
:1041C00080BD00BF0044025800ED00E000800240C6
:1041D000E017003000000030B809002400840170AE
:1041E0002084017080B5A6B000AF7860396000F01F
:1041F0003DFEC7F890009DE07B681B691B6810338B
:104200001B687A681269104698470346002B00F035
:104210008E807B681B691B6818331B687A6810697D
:1042200007F1800207F184019847D7F88430012B09
:1042300002D14FF4804300E00023C7F88C30D7F858
:104240008030012B02D14FF4005300E00023C7F867
:1042500088307B68143307F108021146184601F0D4
:1042600041FD0346002B0CBF01230023DBB2002BD2
:104270000DD0D7F88C30FB61D7F888303B627B6873
:10428000143307F108021146184601F0FFFE3348C7
:1042900012F010F90023C7F894301FE00023FB66EA
:1042A0007B6803F11400D7F8942007F16C03002118
:1042B00001F06FFC0346002B0CBF01230023DBB28F
:1042C000002B06D0FB6E1A46D7F89410244812F043
:1042D00081F8D7F894300133C7F89430D7F8943088
:1042E0001F2BDBDD1F4812F0E5F87B6814331846FE
:1042F00001F0F0F87B68143307F17002114618469C
:1043000001F07AFF0346002B0CBF01230023DBB230
:10431000002B0AD0012387F870307B68143307F133
:1043200070021146184601F01BFF012312E00A201B
:1043300000F0A8FD00F09AFD0246D7F89030D31A9D
:104340003A689A428CBF01230023DBB2002B7FF432
:1043500053AF002318469837BD4680BD3C8401709A
:10436000608401708084017080B582B000AF786095
:104370007B681B691B6810331B687A6812691046DA
:104380009847034618460837BD4680BD80B582B0C1
:1043900000AF78607B681B691B6814331B687A6800
:1043A000126910469847034618460837BD4680BD37
:1043B00080B485B000AFF860B9607A60FB68BA6815
:1043C000C3F8CC20FB687A68C3F8D02000BF14374C
:1043D000BD465DF8047B704780B5A0B000AFF860C3
:1043E000B9601346FB80FB8840F2DC52934202D84E
:1043F000BB68002B01D10023A3E0544B1B6840F2A3
:10440000DC5202FB03F3524A1344FB674F4B1B6819
:10441000013303F003034D4A1360FB881A46B96861
:10442000F86F12F0DAFAFB6F23F01F03BB67FA6F25
:10443000BB6FD21AFB8813441F3323F01F037B6723
:10444000BA6F7B6F3A66FB65FB6D002B1DDD3B6E23
:1044500003F01F02FB6D1344BB653B6E7B65BFF32E
:104460004F8F00BF3B4A7B6DC2F868327B6D2033B3
:104470007B65BB6D203BBB65BB6D002BF2DCBFF3E6
:104480004F8F00BFBFF36F8F00BF00BFFB6FBB64D8
:10449000FB88FB6400233B6507F1100338220021F1
:1044A000184612F001FA20233B6100233B62FB888F
:1044B0007B6107F14803BB61274B3B676023FB66C9
:1044C000FB6E002B1DDD3B6F03F01F02FB6E1344E0
:1044D000BB663B6F7B66BFF34F8F00BF1D4A7B6E91
:1044E000C2F868327B6E20337B66BB6E203BBB66B6
:1044F000BB6E002BF2DCBFF34F8F00BFBFF36F8F9B
:1045000000BF00BFFB68143307F110016422184696
:1045100001F042F80346002B14BF01230023DBB255
:10452000002B0DD0FB68D3F89C10FB68D3F8A020BB
:10453000FB68D3F89830094811F04CFF002300E0E5
:10454000012318468037BD4680BD00BFC009002446
:104550004018003000ED00E0E0170030A484017046
:1045600080B58CB000AF78600023FB603B4BFB62F2
:104570006023BB62BB6A002B1DDDFB6A03F01F02D8
:10458000BB6A13447B62FB6A3B62BFF34F8F00BF81
:10459000334A3B6AC2F85C323B6A20333B627B6A37
:1045A000203B7B627B6A002BF2DCBFF34F8F00BFA6
:1045B000BFF36F8F00BF00BF3BE0FB68002B12D042
:1045C0007B68D3F8CC30002B09D07B68D3F8CC3093
:1045D0007A68D2F8D020F9681046984703E0FB6863
:1045E000184608F033FD1D4BFB616023BB61BB69BE
:1045F000002B1DDDFB6903F01F02BB6913447B61C7
:10460000FB693B61BFF34F8F00BF154A3B69C2F89E
:104610005C323B6920333B617B69203B7B617B697A
:10462000002BF2DCBFF34F8F00BFBFF36F8F00BFD3
:1046300000BF7B68143307F10C021146184601F0E5
:1046400042F80346002B0CBF01230023DBB2002BF2
:10465000B3D100BF00BF3037BD4680BD0000003081
:1046600000ED00E080B485B000AF786039600023D1
:10467000FB600BE0FB683A6813447968FA680A4407
:10468000043212781A70FB680133FB60FB68052B5B
:10469000F0DD00BF00BF1437BD465DF8047B7047F6
:1046A00080B582B000AF7860264811F003FF264B3A
:1046B000DB681946254811F08DFE254A2249254818
:1046C00011F088FE7B685B691B681946224811F06F
:1046D00081FE7B685B6903F58053D3F8603119462E
:1046E0001E4811F077FE7B685B69D3F800371946E6
:1046F0001B4811F06FFE7B685B69D3F8943719464D
:10470000184811F067FE7B685B69D3F89837194643
:10471000154811F05FFE7B685B69D3F8C437194612
:10472000124811F057FE7B685B69D3F8F8371946D9
:104730000F4811F04FFE0F4811F0BCFE00BF0837C4
:10474000BD4680BDE4840170000000300485017026
:1047500060000030248501704C8501706485017013
:104760007C85017094850170B4850170D4850170D9
:10477000F48501701486017080B483B000AF786056
:10478000044A7B681A607B6818460C37BD465DF8A2
:10479000047B7047C488017080B582B000AF786038
:1047A00039607B681846FFF7E7FF054A7B681A60A7
:1047B0007B683A685A607B6818460837BD4680BDFA
:1047C0001089017080B586B000AFF8607B600B4641
:1047D000FB721346BB7200237B61FB685868F97A51
:1047E000BA7A07F1140301F0D4F90346002B14BF81
:1047F00001230023DBB2002B01D0002304E07B69FE
:104800009AB27B681A80012318461837BD4680BDCE
:1048100080B582B000AF7860084611461A4603465C
:10482000FB700B46BB7013463B807B685868F97879
:10483000BA783B8801F002FA0346002B0CBF012333
:104840000023DBB218460837BD4680BD80B483B074
:1048500000AF7860044A7B681A607B6818460C37A2
:10486000BD465DF8047B70478487017080B582B0D7
:1048700000AF78600B46FB707B681846FFF7E6FFD9
:10488000064A7B681A607B6800225A607B68FA7867
:104890001A727B6818460837BD4680BD28890170AA
:1048A00080B483B000AF786039607B683A685A6042
:1048B00000BF0C37BD465DF8047B704790B585B0EE
:1048C00000AF78607B685B68002B01D1002369E052
:1048D00000237B817B685B681B6808331C687B68EE
:1048E00058687B68197A07F10A030022A04703463B
:1048F00083F00103DBB2002B04D02C4811F0DAFD69
:1049000000234FE07A892A4B13439BB27B817B685B
:104910005B681B680C331C687B6858687B68197A75
:104920007B890022A04700F0A1FAF8600A2000F07D
:10493000A9FA7B685B681B6808331C687B68586849
:104940007B68197A07F10A030022A047034683F027
:104950000103DBB2002B04D0164811F0ABFD00239D
:1049600020E07B891BB2002B09DA00F07FFA0246B7
:10497000FB68D31AB3F5FA7F01D2012300E00023CC
:10498000002BD3D17B891BB2002B04DA0A4811F02B
:1049900091FD002306E07B681B7A1946074811F059
:1049A00019FD012318461437BD4690BD34860170A9
:1049B0000080FFFF5C86017084860170A88601700C
:1049C00090B585B000AF78607B685B68002B01D143
:1049D000002324E00023FB817B685B681B680833AD
:1049E0001C687B6858687B68197A07F10E030122FE
:1049F000A047034683F00103DBB2002B01D0002364
:104A00000DE0FB8903F00403002B06D0FB8903F0C3
:104A10002003002B01D0012300E0002300BF184633
:104A20001437BD4690BD90B585B000AF78607B6807
:104A30005B68002B02D14FF0FF3333E00023FB8192
:104A40000023BB817B685B681B6808331C687B683C
:104A500058687B68197A07F10E030222A0470346C3
:104A600083F00103DBB2002B02D04FF0FF3319E0DB
:104A70007B685B681B6808331C687B6858687B68C8
:104A8000197A07F10C030322A047034683F00103C0
:104A9000DBB2002B02D04FF0FF3303E0FB891B0495
:104AA000BA89134318461437BD4690BD90B587B0F8
:104AB00000AFF860B9607A60FB685B68002B01D1D9
:104AC000002341E00023BB82FB685B681B6808335E
:104AD0001C68FB685868FB68197A07F114031F22E9
:104AE000A047034683F00103DBB2002B01D0002373
:104AF0002AE0BB8A03F01C03FB82FB8A182B06D03A
:104B0000182B19DC082B09D0142B0ED014E0BB682D
:104B100001221A607B6801221A6014E0BB6801223E
:104B20001A607B6800221A600DE0BB6800221A60E0
:104B30007B6801221A6006E0BB6800221A607B686D
:104B400000221A6000BF012318461C37BD4690BDE5
:104B500080B483B000AF7860044A7B681A607B68D9
:104B600018460C37BD465DF8047B704768890170B4
:104B700080B483B000AF7860044A7B681A607B68B9
:104B800018460C37BD465DF8047B70476889017094
:104B900080B582B000AF78607868FFF7E9FF042144
:104BA000786811F0DAF87B6818460837BD4680BD92
:104BB00080B584B000AFF860B9607A607B80FB6834
:104BC0001846FFF7C5FF0B4AFB681A60FB68BA6816
:104BD0005A60FB6800229A60FB687A68DA60FB68BA
:104BE0007A881A82FB68BA695A61FB6818461037DE
:104BF000BD4680BD4C89017080B582B000AF786041
:104C00000A4A7B681A607B689B68002B04D07B682B
:104C10009B68184605F0ECFC7B681846FFF7A8FF78
:104C20007B6818460837BD4680BD00BF4C890170BF
:104C300080B582B000AF78607868FFF7DDFF18219B
:104C4000786811F08AF87B6818460837BD4680BD41
:104C500080B586B002AF78607B689B68002B01D07E
:104C6000002315E07B68D9687B68188A7B685B69DC
:104C70007A680832019200937B680246064805F084
:104C800094FBF860FB68012B0CBF01230023DBB20F
:104C900018461037BD4680BDE14C007080B582B02B
:104CA00000AF78607B689B68002B04D07B689B68B2
:104CB000184605F035FD00BF0837BD4680BD80B5FC
:104CC00082B000AF78607B689B68002B04D07B6863
:104CD0009B68184605F0D0FD00BF0837BD4680BD73
:104CE00080B584B000AF78607B68FB60FB685B6870
:104CF0001B6808331B68FA68526810469847002002
:104D000005F076FC00BF1037BD4680BD2DE9B04FE1
:104D100082B000AF7860796800200C4605462046D6
:104D200029464FF0000A4FF0000B4FEA411B4BEAB7
:104D3000D06B4FEA401A50465946021B61EB0503FF
:104D40004FF000004FF00001990041EA927190008D
:104D500002460B4612EB040843EB05094FF0000234
:104D60004FF000034FEAC90343EA58734FEAC80201
:104D700090469946404649464FF47A724FF00003F8
:104D8000FBF796FA02460B461346184605F0A4FCBC
:104D900000BF0837BD46BDE8B08F80B582B000AF18
:104DA0000023FB71032000F09BF90F2000F00EF8A8
:104DB0000346002B02D00123FB7101E0FEF7F7FA56
:104DC000FB7918460837BD4680BD000080B584B029
:104DD00000AF78600023FB73174B1B78002B23D0A8
:104DE000164B1A68144B1B7819464FF47A73B3FBB1
:104DF000F1F3B2FBF3F3184600F0B3F90346002BCE
:104E00000FD17B680F2B09D8002279684FF0FF3053
:104E100000F071F90A4A7B68136007E00123FB7315
:104E200004E00123FB7301E00123FB73FB7B1846C5
:104E30001037BD4680BD00BF240000241C000024A4
:104E40002000002480B400AF064B1B781A46064BA6
:104E50001B681344044A136000BFBD465DF8047B21
:104E6000704700BF24000024C409002480B400AFB0
:104E7000034B1B681846BD465DF8047B704700BFB6
:104E8000C409002480B584B000AF7860FFF7EEFF5E
:104E9000B8607B68FB60FB68B3F1FF3F05D00A4B4D
:104EA0001B781A46FB681344FB6000BFFFF7DEFF68
:104EB0000246BB68D31AFA689A42F7D800BF00BF0F
:104EC0001037BD4680BD00BF2400002480B483B0ED
:104ED00000AF7860074BD3F8003123F46002054936
:104EE0007B681343C1F8003100BF0C37BD465DF845
:104EF000047B70470004005880B485B000AF786030
:104F00007B6803F00703FB600B4BDB68BB60BA6890
:104F10004FF6FF031340BB60FB681A02BB681A43DD
:104F2000064B1343BB60044ABB68D36000BF143711
:104F3000BD465DF8047B704700ED00E00000FA0517
:104F400080B400AF044BDB681B0A03F0070318466C
:104F5000BD465DF8047B704700ED00E080B483B08F
:104F600000AF0346FB80B7F90630002B0BDBFB8854
:104F700003F01F020749B7F906305B09012000FA68
:104F800002F241F8232000BF0C37BD465DF8047BD8
:104F9000704700BF00E100E080B483B000AF03467B
:104FA000FB80B7F90630002B12DBFB8803F01F02F1
:104FB0000A49B7F906305B09012000FA02F22033F2
:104FC00041F82320BFF34F8F00BFBFF36F8F00BFA7
:104FD00000BF0C37BD465DF8047B704700E100E080
:104FE00080B483B000AF03463960FB80B7F9063068
:104FF000002B0ADB3B68DAB20C49B7F90630120124
:10500000D2B20B4483F800230AE03B68DAB20849C5
:10501000FB8803F00F03043B1201D2B20B441A7653
:1050200000BF0C37BD465DF8047B704700E100E02F
:1050300000ED00E080B489B000AFF860B9607A603C
:10504000FB6803F00703FB61FB69C3F10703042B53
:1050500028BF0423BB61FB690433062B02D9FB691B
:10506000033B00E000237B614FF0FF32BB6902FA93
:1050700003F3DA43BB681A407B699A404FF0FF3173
:105080007B6901FA03F3D9437B680B40134318464D
:105090002437BD465DF8047B7047000080B582B0C0
:1050A00000AF78607B68013BB3F1807F01D30123BF
:1050B0000FE00A4A7B68013B53600F214FF0FF303D
:1050C000FFF78EFF054B00229A60044B07221A60FF
:1050D000002318460837BD4680BD00BF10E000E041
:1050E00080B582B000AF78607868FFF705FF00BF39
:1050F0000837BD4680BD80B586B000AF0346B960B5
:105100007A60FB81FFF71CFF78617A68B96878697B
:10511000FFF790FF0246B7F90E3011461846FFF729
:105120005FFF00BF1837BD4680BD80B582B000AFBD
:105130000346FB80B7F906301846FFF70FFF00BFA4
:105140000837BD4680BD80B582B000AF0346FB8006
:10515000B7F906301846FFF71FFF00BF0837BD46F6
:1051600080BD80B582B000AF78607868FFF796FFA9
:10517000034618460837BD4680BD000080B483B0A2
:1051800000AF7860BFF35F8F00BF0B4A7B6843F0CE
:1051900001035360094B5B6A084A43F4803353624E
:1051A000BFF34F8F00BFBFF36F8F00BF00BF0C373F
:1051B000BD465DF8047B704790ED00E000ED00E037
:1051C00080B400AFBFF35F8F00BF0A4B5B6A094A30
:1051D00023F480335362084B00225A60BFF34F8F91
:1051E00000BFBFF36F8F00BF00BFBD465DF8047BFB
:1051F000704700BF00ED00E090ED00E080B483B0A8
:1052000000AF7860074A7B689360064B1B69054ACC
:1052100023F00103136100BF0C37BD465DF8047B2A
:10522000704700BF90ED00E080B483B000AF7860BD
:105230007B685A781E4B9A601D4B1B691C4A23F0F1
:10524000010313611A4B1B69194A23F0010313610F
:10525000174A7B685B68D3607B681B7B1A077B6897
:10526000DB7A1B061A437B689B7ADB041A437B6854
:105270005B7B9B041A437B689B7B5B041A437B68C4
:10528000DB7B1B041A437B685B7A1B021A437B6837
:105290001B7A5B0013437A6812781146044A0B4369
:1052A000136100BF0C37BD465DF8047B704700BF3B
:1052B00090ED00E080B584B000AF78607B68002B93
:1052C00001D10123E2E07B68D3F88430002B06D1C2
:1052D0007B682022C3F884207868FEF76FF86D4B56
:1052E000D3F854316B4A43F00203C2F85431694B8E
:1052F000D3F85431BB60BB687B681B7A002B03D1A9
:105300000020FFF7E3FD03E04FF40000FFF7DEFDB0
:10531000614BD3F800317B681B6803F580531B6831
:105320007A68126843F0010302F580521360FFF7B8
:105330009DFDF86011E0FFF799FD0246FB68D31A66
:10534000B3F5FA7F09D97B680422C3F888207B680B
:10535000E022C3F88420012398E07B681B6803F5F2
:1053600080531B6803F00103002BE4D1786800F040
:10537000A7FE02F067FC0346484AA2FB03239A0CEF
:105380007B681B68013AC3F8DC20786801F06CF98F
:105390007B681B6803F58053D3F8003123F4E013D6
:1053A0007A68126843F4002302F58052C2F8003193
:1053B0007B685B6903F00303002B09D07B68012243
:1053C000C3F888207B68E022C3F8842001235DE0D5
:1053D0007B681B6803F58053D3F80821304B1340DA
:1053E0007A68526951007A6812680B4302F580525C
:1053F000C2F80831786801F0D4F9786801F01AFA37
:105400007B685B6805331B781A027B685B68043332
:105410001B7819467B681B680A43C3F800237B6826
:105420005B6803331B781A067B685B6802331B7862
:105430001B041A437B685B6801331B781B021A4309
:105440007B685B681B7819467B681B680A43C3F856
:1054500004237B681B68D3F80C177B681A68114B10
:105460000B43C2F80C377B681B68D3F810177B68B6
:105470001A680D4B0B43C2F810377B680022C3F843
:1054800088207B681022C3F8842000231846103738
:10549000BD4680BD004402580004005883DE1B4313
:1054A0000180FFFF6000020C00C0200C80B582B0BC
:1054B00000AF78607B682022C3F884207868FEF70C
:1054C000ADF87B680022C3F8842000231846083713
:1054D000BD4680BD80B582B000AF78607B68D3F8F0
:1054E0008430102B53D17B682022C3F884207B6842
:1054F0000422DA66786800F0BBF97B681B681A68DA
:105500007B681B6842F002021A607B681B681A689D
:105510007B681B6842F001021A607B681B68D3F845
:10552000002D7B681B6842F00102C3F8002D7B68E8
:105530001B6803F58053D3F804317A68126843F08E
:10554000010302F58052C2F804317B681B6803F541
:105550008053D3F808317A68126843F0010302F5EA
:105560008052C2F808317B681B6803F58053D3F87A
:1055700060317A68126843F4817302F58052C2F890
:1055800060317B684022C3F88420002300E00123BF
:1055900018460837BD4680BD80B586B000AFF860BC
:1055A000B9607A60BB68002B09D1FB68D3F88830FA
:1055B00043F00102FB68C3F8882001237FE0FB6809
:1055C000D3F88430402B79D10022B968F86801F013
:1055D0008FF90346002B09D0FB68D3F8883043F0DD
:1055E0000202FB68C3F88820012368E0BFF34F8FF5
:1055F00000BFFB689A6AFB68063253F822307B6171
:10560000FB689B6A5A1CFB689A62FB689B6A032BC7
:1056100004D9FB689B6A1A1FFB689A62FB68996A47
:10562000FB681A68FB68063153F8213002F5805296
:10563000C2F82031FFF71AFC386139E0FB681B68BB
:1056400003F58053D3F8603103F48053002B12D05C
:10565000FB68D3F8883043F00802FB68C3F8882061
:10566000FB681B6803F58053D3F86021FB68C3F81F
:105670008C20012323E07B68B3F1FF3F18D0FFF7B4
:10568000F5FB02463B69D31A7A689A4202D37B68DB
:10569000002B0DD1FB68D3F8883043F00402FB687F
:1056A000C3F888207B694FF04052DA60012306E09E
:1056B0007B69DB68002BC1DB002300E00123184677
:1056C0001837BD4680BD80B58AB000AF78603960BC
:1056D0000023BB610023FB753B68002B09D17B686D
:1056E000D3F8883043F001027B68C3F88820012397
:1056F000BAE07B68D3F88430402B01D00123B3E0BB
:105700007B68DB6D7B627B687A6A123253F82230E9
:10571000FB617B68DB6EC3F104033B617BE0FB69EB
:10572000DB6803F00053002B03D17B68DB6F002B99
:105730005FD0FB69DB6803F00053002B05D07B686A
:1057400000221A667B6800225A66FB69DB68C3F395
:105750000E027B685B6ED31AFB60FB69DB6803F0AB
:105760008053002B2AD0FB69DA687B681A67012313
:10577000FB75FB695B6803F48043002B1ED07B6ADA
:105780003B623B6A01333B623B6A032B02D93B6AB3
:10579000043B3B627B683A6A123253F82230BB60AA
:1057A000BB68DB6803F08043002B07D0BB685A68F6
:1057B0007B689A67BB681A687B685A677B6803F1E5
:1057C0007C007B6803F18001FB691B691A46FB685A
:1057D0009BB2FEF7D7FA7B681B6E5A1C7B681A6671
:1057E0007B685A6EFB681A447B685A66FB69002224
:1057F0001A617B6A01337B627B6A032B02D97B6A65
:10580000043B7B627B687A6A123253F82230FB6178
:10581000BB690133BB61FB69DB68002B07DBBA693D
:105820003B699A4203D2FB7D002B3FF478AF7B6843
:10583000DA6EBB691A447B68DA667B68DB6E002B24
:1058400002D0786800F014F87B687A6ADA65FB7D2C
:10585000012B08D17B68DA6F3B681A607B680022F5
:10586000DA67002300E0012318462837BD4680BDD3
:1058700080B588B000AF78600023BB600123FB7463
:105880007B689B6EFB617B68FA69123253F82230A9
:105890007B617B68DB6EBB613DE07B691B69002B34
:1058A00013D107F108031846FEF74CFABB68002B2A
:1058B00002D10023FB740CE0BB681A467B691A61B5
:1058C000BB681A467B691A6003E07B691A697B69C9
:1058D0001A60FB7C002B1ED07B689B6D002B04D0D4
:1058E0007B694FF04142DA6003E07B694FF001428F
:1058F000DA60FB690133FB61FB69032B02D9FB69A9
:10590000043BFB617B68FA69123253F822307B61F9
:10591000BB69013BBB61BB69002B02D0FB7C002B48
:10592000BBD17B68DB6EBA699A421BD0FB6903333B
:1059300003F00303FB60BFF35F8F00BF7B6819694F
:10594000FA6813465B001344DB00CA187B681B68C7
:1059500003F58053C3F828217B68FA699A667B684F
:10596000BA69DA6600BF2037BD4680BD80B586B013
:1059700000AF78607B681B68D3F8B0307B617B68D0
:105980001B6803F58053D3F860313B617B681B686B
:1059900003F58053D3F83431FB604FF0B043D3F8B4
:1059A0009830BB603B6903F04003002B10D0FB68CC
:1059B00003F04003002B0BD07B681B6803F580537A
:1059C0001A4648F24003C2F860317868FEF7A6F93B
:1059D0003B6903F00103002B10D0FB6803F00103C7
:1059E000002B0BD07B681B6803F580531A4648F2E6
:1059F0000103C2F860317868FEF786F93B6903F469
:105A00008043002B47D0FB6803F48043002B42D037
:105A10007B68D3F8883043F008027B68C3F888209D
:105A20003B6903F48053002B1ED07B681B6803F591
:105A30008053D3F8602141F2021313407A68C2F810
:105A40008C307B681B6803F58053D3F834317A6857
:105A5000126823F4404302F58052C2F834317B6867
:105A6000E022C3F8842013E07B681B6803F58053B1
:105A7000D3F8603103F4CD427B68C3F88C207B6897
:105A80001B6803F580531A464FF4CD43C2F86031CA
:105A90007868FEF74DF97B6903F48043002B04D14D
:105AA0007B6903F40053002B19D07B68D3F888304E
:105AB00043F010027B68C3F888207B681B68D3F82A
:105AC000B8207B68C3F890207B68E022C3F884206C
:105AD0007868FEF72DF97B680022C3F890207B6977
