:0200000470008A
:1000000000000120C947007019480070BD4B007006
:10001000D14B0070D74B0070DD4B0070000000002A
:100020000000000000000000000000003DE1007042
:10003000194800700000000069E20070B94A0070C1
:10004000194800700000000019480070194800703D
:1000500019480070194800700000000000000000FE
:10006000194800701948007019480070000000001D
:1000700000000000194800700000000000000000AF
:10008000194800701948007019480070194800702C
:10009000194800701948007019480070194800701C
:1000A000194800701948007019480070194800700C
:1000B00019480070194800701948007019480070FC
:1000C00019480070194800701948007019480070EC
:1000D00019480070194800701948007019480070DC
:1000E00019480070194800701948007019480070CC
:1000F00019480070194800701948007019480070BC
:1001000019480070194800701948007019480070AB
:10011000194800701948007019480070194800709B
:10012000194800701948007019480070194800708B
:10013000194800701948007019480070194800707B
:10014000194800701948007019480070194800706B
:10015000194800701948007019480070194800705B
:10016000194800701948007019480070194800704B
:10017000194800701948007019480070194800703B
:10018000194800701948007019480070194800702B
:10019000194800701948007019480070194800701B
:1001A000194800701948007019480070194800700B
:1001B000BD5100701948007019480070194800704E
:1001C000000000000000000019480070194800708D
:1001D00019480070194800701948007019480070DB
:1001E00019480070194800701948007019480070CB
:1001F000194800701948007000000000000000005D
:1002000019480070194800701948007019480070AA
:10021000194800701948007019480070194800709A
:10022000194800701948007019480070194800708A
:10023000194800701948007019480070194800707A
:10024000194800701948007019480070194800706A
:10025000194800701948007019480070194800705A
:10026000194800701948007019480070194800704A
:10027000194800701948007019480070194800703A
:10028000194800701948007019480070194800702A
:10029000194800700000000000000000000000008D
:1002A000194800701948007019480070194800700A
:1002B00053B94AB9002908BF00281CBF4FF0FF31CD
:1002C0004FF0FF3000F00CB8ADF1080C6DE904CE32
:1002D00017F05AF9DDF804E0DDE9022304B07047B5
:1002E000704700BF00000000000000000000000098
:1002F00001F0FF01102A2BDB10F0070F08D010F8D7
:10030000013B013A8B422DD010F0070F42B3F6D1DA
:10031000F0B441EA012141EA014122F007047FF0F3
:1003200000070023F0E80256083C85EA010586EA4A
:10033000010685FA47F5A3FA87F586FA47F6A5FA86
:1003400087F68EB9EED1F0BC01F0FF0102F0070292
:1003500032B110F8013B013A83EA010313B1F8D13D
:100360000020704701387047002D06BF354603381E
:10037000073815F0010F07D1013015F4807F02BF57
:10038000013015F4C03F0130F0BC0138704700BFA8
:100390000348044B834202D0034B03B11847704714
:1003A0002805002428050024000000000548064B0D
:1003B0001B1AD90F01EBA301491002D0034B03B163
:1003C0001847704728050024280500240000000075
:1003D00010B5064C237843B9FFF7DAFF044B13B18D
:1003E0000448AFF300800123237010BD40050024B2
:1003F000000000009C8F017008B5054B1BB105493A
:100400000548AFF30080BDE80840FFF7CFBF00BF4D
:1004100000000000440500249C8F017080B582B06C
:1004200000AF7860074A7B681360074B1B689868C9
:1004300000230222002117F049FC00BF0837BD4607
:1004400080BD00BF5C0500244000002480B584B05E
:1004500000AFF860B9607A60094B1B68002B09D0C7
:10046000074B1B681B6808331B68054A10687A68CD
:10047000B96898477B6818461037BD4680BD00BFF5
:100480005C05002480B483B000AF78607B68DB43F8
:1004900018460C37BD465DF8047B704780B489B0C0
:1004A00000AFF860B9607A60BB687B61FB68FB6194
:1004B0000023BB6111E07A69BB6913441B781A46BB
:1004C000FB695340DBB20A4A52F82320FB691B0A3E
:1004D0005340FB61BB690133BB61BA697B689A42D7
:1004E000E9D3FB6918462437BD465DF8047B7047A5
:1004F0007C9F017080B584B000AF786039603A6845
:1005000079684FF0FF30FFF7C9FFF860F868FFF730
:10051000B9FF034618461037BD4680BD90B482B07F
:1005200000AF0446084611461A462346FB710346AF
:10053000BB710B467B7113463B71FA79BB791B0289
:100540001A437B791B041A433B791B061343184655
:100550000837BD4690BC704780B483B000AF786068
:10056000044A7B681A607B6818460C37BD465DF804
:10057000047B70473CA4017080B483B000AF786006
:10058000044A7B681A607B6818460C37BD465DF8E4
:10059000047B70473CA4017080B582B000AF7860E6
:1005A0007868FFF7E9FF0421786816F0DAFF7B68C6
:1005B00018460837BD4680BD80B582B000AF786070
:1005C0000B467B8013463B807B681846FFF7C4FFD1
:1005D000094A7B681A607B687A889A807B683A88C7
:1005E000DA807B6800229A607B6801221A737B683C
:1005F00018460837BD4680BDFCA3017080B483B0A7
:1006000000AF7860034B18460C37BD465DF8047B9D
:10061000704700BF434E545280B483B000AF78603F
:10062000034B18460C37BD465DF8047B704700BF8E
:10063000B48F017080B483B000AF78607B689B8812
:1006400018460C37BD465DF8047B704780B483B014
:1006500000AF78600B467B807B88002B05D07B68E1
:100660007A889A807B680122DA8000BF0C37BD4609
:100670005DF8047B704780B483B000AF78607B681E
:10068000DB8818460C37BD465DF8047B704780B4A4
:1006900083B000AF78600B467B807B88002B04D052
:1006A0007B88642B01D87A8800E001227B68DA809D
:1006B00000BF0C37BD465DF8047B704780B483B043
:1006C00000AF7860012318460C37BD465DF8047B07
:1006D000704780B483B000AF7860042318460C37AD
:1006E000BD465DF8047B704780B483B000AF78608E
:1006F000042318460C37BD465DF8047B704780B470
:1007000083B000AF78607B681B7B18460C37BD4612
:100710005DF8047B704780B483B000AF78600B460F
:10072000FB707B68FA781A7300BF0C37BD465DF822
:10073000047B704780B487B000AFF860B9607A601E
:100740007B68002B02D0BB68002B01D1002316E090
:10075000BB683B6100237B610CE0FB689B68591C14
:10076000FA6891607A69920039690A4413607B697A
:1007700001337B617A697B689A42EED37B681846C5
:100780001C37BD465DF8047B7047000080B584B01F
:1007900000AFF860B96011461A460B46FB8013465D
:1007A000BB80FB681846FFF7D7FE0E4AFB681A604D
:1007B000FB68BA685A60FB68FA881A81FB68BA88D5
:1007C0005A81FB6801221A73FB685B681B68083357
:1007D0001B68FA68526810469847FB68184610373D
:1007E000BD4680BDBCA3017080B483B000AF78600B
:1007F000034B18460C37BD465DF8047B704700BFBD
:1008000054454D5080B483B000AF7860034B184618
:100810000C37BD465DF8047B704700BFBC8F01708C
:1008200080B483B000AF78607B681B8918460C37B2
:10083000BD465DF8047B704780B483B000AF78603C
:100840000B467B807B88002B05D07B687A881A81D9
:100850007B6801225A8100BF0C37BD465DF8047BDE
:10086000704780B483B000AF78607B685B891846BE
:100870000C37BD465DF8047B704780B483B000AF91
:1008800078600B467B807B88002B04D07B88642BB0
:1008900001D87A8800E001227B685A8100BF0C37BA
:1008A000BD465DF8047B704780B483B000AF7860CC
:1008B000012318460C37BD465DF8047B704780B4B1
:1008C00083B000AF7860022318460C37BD465DF850
:1008D000047B704780B483B000AF7860042318466F
:1008E0000C37BD465DF8047B704780B483B000AF21
:1008F00078607B681B7B18460C37BD465DF8047B2F
:10090000704780B483B000AF78600B46FB707B68A3
:10091000FA781A7300BF0C37BD465DF8047B704748
:1009200080B588B000AFF860B9607A607B68002B52
:1009300002D0BB68002B01D1002327E0BB68BB615C
:1009400000237B61FB685B681B680C331B68FA68DB
:10095000526807F1140110469847034683F00103DB
:10096000DBB2002B01D00B4B7B610023FB6108E065
:10097000FB699B00BA6913447A691A60FB69013309
:10098000FB61FA697B689A42F2D37B68184620378C
:10099000BD4680BD19FCFFFF80B483B000AF786016
:1009A000044A7B681A607B6818460C37BD465DF8C0
:1009B000047B7047A0A4017080B582B000AF78605E
:1009C0007868FFF7E9FF0421786816F0CAFD7B68B4
:1009D00018460837BD4680BD80B582B000AF78604C
:1009E000054A7B681A607B681846FFF7D5FF7B686D
:1009F00018460837BD4680BD04A5017080B582B099
:100A000000AF78607868FFF7E7FF0C21786816F090
:100A1000A8FD7B6818460837BD4680BD80B483B00A
:100A200000AF7860044A7B681A607B6818460C3710
:100A3000BD465DF8047B70477CA4017080B582B030
:100A400000AF78607868FFF7E9FF0421786816F056
:100A500088FD7B6818460837BD4680BD80B582B0EA
:100A600000AF7860054A7B681A607B681846FFF71C
:100A7000D5FF7B6818460837BD4680BD84A6017047
:100A800080B582B000AF78607868FFF7E7FF0C218F
:100A9000786816F066FD7B6818460837BD4680BD4D
:100AA00080B582B000AF7860054A7B681A607B68C9
:100AB0001846FFF771FF7B6818460837BD4680BDB2
:100AC000B4A4017080B582B000AF78607868FFF799
:100AD000E7FF6021786816F044FD7B681846083708
:100AE000BD4680BD80B582B000AF7860054A7B68A6
:100AF0001A607B681846FFF73FFD7B681846083789
:100B0000BD4680BDFCA3017080B582B000AF7860A7
:100B10007868FFF7E7FF1021786816F022FD7B6800
:100B200018460837BD4680BD80B582B000AF7860FA
:100B3000054A7B681A607B681846FFF71DFD7B68D5
:100B400018460837BD4680BDBCA3017080B582B091
:100B500000AF78607868FFF7E7FF1021786816F03B
:100B600000FD7B6818460837BD4680BD80B483B061
:100B700000AF7860044A7B681A607B6818460C37BF
:100B8000BD465DF8047B704790A3017080B582B0CC
:100B900000AF78607868FFF7E9FF0421786816F005
:100BA000E0FC7B6818460837BD4680BD80B582B042
:100BB00000AF7860054A7B681A607B681846FFF7CB
:100BC000D5FF7B6818460837BD4680BDC0A50170BB
:100BD00080B582B000AF78607868FFF7E7FF10213A
:100BE000786816F0BEFC7B6818460837BD4680BDA5
:100BF00080B582B000AF7860054A7B681A607B6878
:100C00001846FFF7C9FE7B6818460837BD4680BD09
:100C1000C8A4017080B582B000AF78607868FFF733
:100C2000E7FF1C21786816F09CFC7B6818460837A3
:100C3000BD4680BD80B582B000AF7860054A7B6854
:100C40001A607B681846FFF7A7FE7B6818460837CE
:100C5000BD4680BDDCA4017080B582B000AF786075
:100C60007868FFF7E7FF6821786816F07AFC7B6800
:100C700018460837BD4680BD80B582B000AF7860A9
:100C8000054A7B681A607B681846FFF785FE7B681B
:100C900018460837BD4680BDF0A4017080B582B00B
:100CA00000AF78607868FFF7E7FF1C21786816F0DE
:100CB00058FC7B6818460837BD4680BD80B584B0B7
:100CC00002AF03F057FA03F0E5FA03461846FFF7C0
:100CD000A5FBA54B7B60A54816F0F0FFA44B1B6855
:100CE000BFF35B8F03F00103002B0CBF0123002334
:100CF000DBB2002B12D09E4816F035FC0346002BC9
:100D000014BF01230023DBB2002B07D003F0CCFA81
:100D10000346984A1360964816F031FC964B1B68C0
:100D2000BFF35B8F03F00103002B0CBF01230023F3
:100D3000DBB2002B19D0904816F015FC0346002BAF
:100D400014BF01230023DBB2002B0ED0894B1B689C
:100D5000C8221946894803F023F9894A89498748F6
:100D600016F0FAFB844816F00AFC874B1B68BFF3A9
:100D70005B8F03F00103002B0CBF01230023DBB2C8
:100D8000002B1BD0804816F0EEFB0346002B14BF4F
:100D900001230023DBB2002B10D0032300934FF478
:100DA00080737A4A75497A4805F060F9744A79493E
:100DB000774816F0D1FB744816F0E1FB764B1B68C0
:100DC000BFF35B8F03F00103002B0CBF0123002353
:100DD000DBB2002B16D0704816F0C5FB0346002B83
:100DE00014BF01230023DBB2002B0BD000216B4882
:100DF00004F09AFF624A6A49684816F0ADFB6648FB
:100E000016F0BDFB674B1B68BFF35B8F03F001035C
:100E1000002B0CBF01230023DBB2002B17D061484D
:100E200016F0A1FB0346002B14BF01230023DBB205
:100E3000002B0CD0594A5C495C4804F0F9FA504A3E
:100E40005B495A4816F088FB564816F098FB012378
:100E50007B80584B02221A706F230122A821C020E8
:100E6000FFF75CFB0346534A53600023FF22FF2138
:100E7000FF20FFF753FB03464E4A936001230122F4
:100E8000A821C020FFF74AFB03464A4AD360494BDA
:100E900042F210721A61474B474A5A61474B1B682E
:100EA000BFF35B8F03F00103002B0CBF0123002372
:100EB000DBB2002B17D0414816F055FB0346002B40
:100EC00014BF01230023DBB2002B0CD0394A374971
:100ED0003B4800F017FB2A4A3A49394816F03CFBD8
:100EE000364816F04CFB384B1B68BFF35B8F03F0A2
:100EF0000103002B0CBF01230023DBB2002B1BD00E
:100F0000314816F030FB0346002B14BF01230023A9
:100F1000DBB2002B10D0042300934FF480632B4AE4
:100F200027492B4805F0A2F8154A1A49284816F017
:100F300013FB254816F023FB264B1B68BFF35B8F82
:100F400003F00103002B0CBF01230023DBB2002BB5
:100F500051D0204816F007FB0346002B14BF012395
:100F60000023DBB238E000BF00010100D88F017020
:100F7000640500246005002474050024680500242D
:100F800000000024D9090070900500240C90017025
:100F900078050024B5600070A005002494050024A5
:100FA0005D0A0070780600247CA30170A40500246B
:100FB0008D54007004000024C88F0170DC060024EA
:100FC0007C060024A10A0070F80600241890017025
:100FD000E00600240C070024002B0CD001220A217B
:100FE000A348FFF7E9FAA34AA349A14816F0B4FAC7
:100FF000A24816F0C4FAA24B1B68BFF35B8F03F044
:101000000103002B0CBF01230023DBB2002B12D005
:101010009B4816F0A8FA0346002B14BF01230023B7
:10102000DBB2002B07D003F06FF90346954A13603B
:10103000934816F0A4FA944B1B68BFF35B8F03F040
:101040000103002B0CBF01230023DBB2002B19D0BE
:101050008D4816F088FA0346002B14BF01230023A5
:10106000DBB2002B0ED0874B196801230122874881
:10107000FFF78CFB7F4A8649844816F06DFA824858
:1010800016F07DFA834B1B68BFF35B8F03F00103FF
:10109000002B0CBF01230023DBB2002B19D07D48AD
:1010A00016F061FA0346002B14BF01230023DBB2C4
:1010B000002B0ED04FF080624FF0E041764803F0F5
:1010C000EFFF6C4A7549744816F046FA714816F0FD
:1010D00056FA714804F002F8714B1B68BFF35B8F3E
:1010E00003F00103002B0CBF01230023DBB2002B14
:1010F00011D06B4816F037FA0346002B14BF0123BA
:101100000023DBB2002B06D06349664802F095FC51
:10111000634816F034FA644B1B68BFF35B8F03F02F
:101120000103002B0CBF01230023DBB2002B1BD0DB
:101130005D4816F018FA0346002B14BF0123002364
:10114000DBB2002B10D04F4B1B68584A0092012293
:101150005749584800F0DCFC464A5749554816F0B4
:10116000FBF9514816F00BFA544B1B68BFF35B8F29
:1011700003F00103002B0CBF01230023DBB2002B83
:101180001BD04E4816F0EFF90346002B14BF012385
:101190000023DBB2002B10D0022300934FF48063B6
:1011A000474A4449474804F061FF324A46494548A6
:1011B00016F0D2F9414816F0E2F9444B1B68BFF330
:1011C0005B8F03F00103002B0CBF01230023DBB274
:1011D000002B18D03D4816F0C6F90346002B14BF6B
:1011E00001230023DBB2002B0DD0214B012230491B
:1011F000374800F011FF1F4A3649354816F0ACF960
:10120000324816F0BCF92149314800F01DFF324B3D
:101210001B68BFF35B8F03F00103002B0CBF01239E
:101220000023DBB2002B1BD02B4816F09CF90346A1
:10123000002B14BF01230023DBB2002B10D00423AA
:1012400000934FF40063254A2149254804F00EFF1E
:10125000084A1D49224816F07FF91F4816F08FF9F9
:10126000204B1B68BFF35B8F03F00103002B3BE0B7
:10127000FC06002400000024E50A00700C0700248E
:10128000140700241007002428070024180700244E
:10129000290B00703C0700242C070024AD0B0070C4
:1012A0006087022440070024808702240001010097
:1012B0007C06002464870224F10B00709C870224C2
:1012C0002490017084870224B5600070088802248D
:1012D000A0870224350C0070248802243490017009
:1012E0000C880224448802240CBF01230023DBB2B3
:1012F000002B1CD02C4816F036F90346002B14BFE7
:1013000001230023DBB2002B11D0284B01930123D2
:101310000093274B274A2849284801F05FFB284AB9
:101320002849264816F018F91F4816F028F9264BC8
:101330001B68BFF35B8F03F00103002B0CBF01237D
:101340000023DBB2002B1BD01F4816F00CF903461C
:10135000002B14BF01230023DBB2002B10D003238A
:1013600000934FF40063194A1449194804F07EFEB3
:10137000134A1849164816F0EFF8134816F0FFF80C
:10138000154804F0C3FE154804F0C0FE144804F0EC
:10139000BDFE144804F0BAFE0D4804F0B7FE0AF092
:1013A0003FFF00BFFDE700BF448802244007002440
:1013B000A0870224648702247C0600242888022453
:1013C00000000024790C00706088022444900170B1
:1013D00048880224B560007078050024E0060024E7
:1013E000848702240C88022480B483B000AF786024
:1013F0007B68243318460C37BD465DF8047B704784
:1014000080B483B000AF78607B68083318460C372F
:10141000BD465DF8047B704780B584B000AF78604E
:101420007B68FB60F86800F065F900BF1037BD46C7
:1014300080BD80B584B000AF78607B68FB60F868E1
:10144000FFF7D2FF0346184611F040FCF868FFF79B
:10145000D7FF03461B78002B14BF01230023DBB208
:10146000002B06D0F868FFF7BFFF0346184612F0BE
:1014700007FD00BF1037BD4680BD80B584B000AF0A
:1014800078607B68FB60F868FFF7AEFF034618469C
:1014900011F000FCF868FFF7B3FF03461B78002B40
:1014A0000CBF01230023DBB2002B03D0F86800F04F
:1014B00021F906E0F868FFF797FF0346184612F097
:1014C0008DFB00BF1037BD4680BD80B584B000AF36
:1014D00078607B68FB60F86800F0AEF800BF1037FA
:1014E000BD4680BD80B483B000AF7860044A7B689D
:1014F0001A607B6818460C37BD465DF8047B704760
:10150000A0A40170B0B584B000AFF860B9607A6093
:10151000FB681846FFF7E6FF104AFB681A60FB6895
:10152000BA685A60FB687A6803F1080415460FCD63
:101530000FC495E8030084E80300FB68002283F8E9
:101540002020FB68BA689A657B685A69FB68DA658F
:10155000FB6818461037BD46B0BD00BFB4A401708B
:1015600080B582B000AF78602C4816F0A7FB7B688E
:101570005B681B6808331B687A6852681046984796
:10158000034683F00103DBB2002B06D0244816F09B
:1015900095FB00200AF030FC3CE07B685B681B6830
:1015A00024331B687A6852681046984703461946E8
:1015B0001C4816F013FB1C4816F080FB02E01B4889
:1015C00016F07CFB7B685B681B680C331B687A68D1
:1015D00052684FF47A7110469847034683F001032E
:1015E000DBB2002BEBD1124816F068FB796811488A
:1015F00015F05CF802E00A200AF072FC7B6893F8B0
:101600002030DBB283F00103DBB2002BF3D178682A
:1016100000F0CEF80837BD4680BD00BF5090017085
:101620006C900170A4900170CC900170FC900170DE
:1016300024910170CB140070B0B58AB004AF78600B
:101640007B681B7A002B09D17B68DB687B617B6838
:101650001B693B617B685B69FB6005E000237B6184
:1016600000233B610023FB607B6803F158027B6829
:101670001A647B6803F124007B68583307F10C047B
:1016800007F1100207F11401174D0295174D01954E
:101690000093234611F05CFA7B682433184611F05E
:1016A000E1FA7B682433184611F0F4FA7B6824339E
:1016B000184611F0DDFA7B681B7A002B03D178689D
:1016C00000F018F807E00A4816F0F8FA7B682433AF
:1016D000184612F083FA7B68012283F8202000BFAD
:1016E0001837BD46B0BD00BFC96501701D690170E6
:1016F0004091017080B588B002AF78607B68DB688C
:101700007B617B681B693B617B685B69FB607B6815
:1017100003F1240007F10C0307F1100207F1140193
:1017200011F0EAF97B68DB68D9B27B68DB681B0AD9
:10173000DAB27B68DB681B0CD8B27B68DB681B0EF7
:1017400000930346034816F049FA00BF1837BD4618
:1017500080BD00BF6491017080B584B000AF786037
:1017600039600023FB6019E07B682433184615F0CC
:101770001FF97B682433184612F0C0F90346002B8A
:1017800014BF01230023DBB2002B01D001230AE0A8
:101790000A200AF0A5FBFB680A33FB60FA683B6885
:1017A0009A42E1D3002318461037BD4680BD0000A1
:1017B00080B586B000AF78607B681B7A022B2ED193
:1017C0007B689B691946594816F008FA7B689B6943
:1017D00019467868FFF7C0FF034683F00103DBB2C8
:1017E000002B12D0524816F069FA7968514814F06B
:1017F000F9FE38613B69002B03D039694E4816F079
:10180000EDF964200AF06CFB09E07B682833184688
:1018100013F008F903461946484816F0DFF900238B
:10182000FB750123BB757B682433184615F0C0F89F
:101830007B681B7A012B1ED1FB7D83F00103DBB299
:10184000002B18D07B682433184612F057F9034652
:10185000002B14BF01230023DBB2002B0BD07B68CD
:101860002833184613F0DEF803461946334816F0BD
:10187000B5F90123FB757B685B681B6810331B6837
:101880007A685268104698470346FB73BB7D002B6D
:1018900010D0FB7B83F00103DBB2002B0AD0284879
:1018A00016F00CFA7968274814F09CFE0023FB75AB
:1018B0000023BB75BB7D83F00103DBB2002B30D06E
:1018C000FB7B002B2DD0204816F0F8F979681F48D3
:1018D00014F088FE7B681B7A022B20D17B689B6901
:1018E00019467868FFF738FF034683F00103DBB23F
:1018F000002B0AD00E4816F0E1F979680D4814F073
:1019000071FE64200AF0ECFA09E07B68283318467F
:1019100013F088F803461946084816F05FF90123CA
:10192000BB750A200AF0DCFA7DE700BF90910170D8
:10193000C8910170191400700892017048920170EA
:101940006C920170331400708C9201707B140070E3
:1019500080B483B000AF78607B6893F82030DBB24E
:10196000002B06D07B6828331B68002B01D0012395
:1019700000E0002318460C37BD465DF8047B704735
:1019800080B483B000AF78607B6828331B6818464A
:101990000C37BD465DF8047B704780B483B000AF60
:1019A00078607B684A3318460C37BD465DF8047B87
:1019B000704780B489B000AFF860B9601346FB800F
:1019C000FB683B61FB88FB830023BB6128E03A692D
:1019D000BB6913441B781BB21B021AB2B7F91E3045
:1019E00053401BB2FB8300237B6113E0B7F91E3029
:1019F000002B09DAB7F91E305B001AB241F221035D
:101A000053401BB2FB8302E0FB8B5B00FB837B69D3
:101A100001337B617B69072BE8DDBB690133BB6167
:101A2000BA69BB689A42D2D3FB8B18462437BD46AD
:101A30005DF8047B704780B584B000AFF8607B60D0
:101A40000B467B8113463B81FB68002242F0450236
:101A50001A70002242F050025A70FB6801229A70FC
:101A6000FB683A7FDA70FB687A899A80FB683A896A
:101A7000DA80FB687A689A60FB683A8B9A8197F8FB
:101A80002030002B11D07B6A002B0ED03B8B002B1B
:101A90000BD03B8B4FF6FF721946786AFFF789FF30
:101AA00003461A46FB68DA8105E0FB6800229A7358
:101AB0000022DA7300BF00BF1037BD4680BD80B47E
:101AC00083B000AF786039603B680F2B01D80523E5
:101AD00018E07B681B889BB245F24502934201D017
:101AE00001230FE07B689B78012B01D0022309E0E2
:101AF0007B689B899BB210333A689A4201D20523D6
:101B000000E0002318460C37BD465DF8047B7047A3
:101B100080B584B000AFF860B9603B601346FB80CD
:101B2000FB681846FFF7DEFC134AFB681A60FB6887
:101B3000BA685A60FB68FA881A81FB683A68DA600A
:101B4000FB68BA691A61FB6800225A61FB680122CE
:101B50001A76FB68DB68002B08D0FB68DB681B6823
:101B600008331B68FA68D26810469847FB68184625
:101B70001037BD4680BD00BFC8A4017080B588B0D5
:101B800000AF78603E4816F099F802E064200AF051
:101B9000A7F97B685B681846FFF7DAFE034683F017
:101BA0000103DBB2002BF1D14CF25031354816F075
:101BB00015F800220021202013F022F9B861BB693A
:101BC000002B06D1304816F079F800200AF014F9FD
:101BD00052E04CF250322D49B86913F0A7F9786100
:101BE0007B69002B0AD07969294815F0F7FFB8699D
:101BF00013F06AF900200AF0FFF83DE0BB69FA2211
:101C00001A620AF04BFCF8617B685B681846FFF7C4
:101C10009FFE034683F00103DBB2002B03D0C820F4
:101C20000AF05EF9F0E70AF039FC38613A69FB69BD
:101C3000D31AB3F57A7F05D3B969786800F02AF82A
:101C40003B69FB610023FB6007F10C031946B8698F
:101C500013F06CFB78617B69002BD5D1FB68002BFE
:101C6000D2D0FB681A46B969786800F099F8FB6829
:101C7000184614F0B9FBC7E72037BD4680BD00BF4A
:101C8000B0920170E8920170249301705CD20170EF
:101C90006093017080B594B004AF7860396007F14B
:101CA0001003BB6307F1100310337B630AF0F6FBEC
:101CB00002467B6B1A607B681A697B6B5A607B6893
:101CC0001A7E7B6B1A727B681B7E022B01D101226C
:101CD00000E000227B6B5A727B6B002262F01B02D9
:101CE0009A72002242F00C02DA72FA23FB877B68B8
:101CF000DB68002B17D00023BB607B68DB681B68A8
:101D00000C331B687A68D26807F1080110469847BF
:101D10000346002B07D0BB689BB21A4692001344BF
:101D20005B009BB2FB877B6BFA8F9A817B6B0022F7
:101D30009A730022DA737B6819897B685B695A1C85
:101D40007B685A617B685B690022039200220292E1
:101D500000220192102200920122B86BFFF76BFE65
:101D600014F036FB38633B6B002B15D007F11003E2
:101D700020221946386B14F049FB4FF0FF33FB600B
:101D800007F10C024CF25033396B386813F018F934
:101D9000386B14F029FB00E000BF4037BD4680BD22
:101DA00080B5A0B004AFF860B9607A600023FB642E
:101DB0000023A7F84A3007F14A0207F14C031946FD
:101DC000786814F045FBB7F84A300F2B40F2CB800F
:101DD000FB6CFB66B7F84A301946F86EFFF76FFEEA
:101DE0000346002B14BF01230023DBB2002B40F07D
:101DF000BC80FB6EDB889BB2022B40F0BB80FB6E8D
:101E00009B899BB2072B40F2B280FB6C1033BB6600
:101E1000BB6E9B889BB2002B07D0BB6E9B889AB28F
:101E2000FB681B899A4240F0A48007F110037B668F
:101E300007F1100310333B66BB6E1A683B6E1A60E5
:101E4000FB681A893B6E9A80FB681B7E1A463B6EC4
:101E5000DA80FB685B681846FFF792FD02463B6E2E
:101E60009A60FB685B681846FFF797FDF865FB6DA5
:101E7000002B07D03B6E0C330622F96D184616F086
:101E8000B0F906E03B6E0C3306220021184616F02E
:101E90000FF9FB681A693B6E5A610AF0FFFA0246B5
:101EA0003B6E9A613B6E00221A7700225A7700221D
:101EB0009A770022DA773B6E002283F820200022F6
:101EC00083F82120002283F82220002283F8232097
:101ED0003B6E002283F82420002283F82520002274
:101EE00083F82620002283F82720FB681989FB68E5
:101EF0005B695A1CFB685A61FB685B6900220392AC
:101F00000022029202220192282200920322786E7D
:101F1000FFF791FD14F05CFAB865BB6D002B29D07A
:101F200007F1100338221946B86D14F06FFA7B6878
:101F300008337B657B689B89A7F85230B7F852302D
:101F40007A6DB96DB86813F03BF8B86D14F04CFABF
:101F5000786D12F067FD0146B7F852301A4607480F
:101F600015F03CFE06E000BF04E000BF02E000BF49
:101F700000E000BF7037BD4680BD00BF9493017084
:101F800080B586B000AFF860B9601346FB80FB688F
:101F90001846FFF7A7FA1F4AFB681A60FB68BA6881
:101FA0005A60FB68FA881A81FB680022DA64FB68D1
:101FB000012283F85020FB684CF25132A3F85820DC
:101FC000FB680022DA65FB6800221A66FB680022C3
:101FD0005A66FB684FF0FF325A6500237B6110E0C0
:101FE000FA687B690133DB00134400225A60FA6807
:101FF0007B690133DB00134400229A607B69013363
:102000007B617B69072BEBD9FB6818461837BD4607
:1020100080BD00BFDCA4017080B584B000AFF86063
:10202000B9603B601346FB80FB881A46B968F868C4
:10203000FFF7A6FF3968F86800F006F8FB68184655
:102040001037BD4680BD0000B0B588B002AF7860E3
:1020500039607B68DB6C072B05D90821474815F0F0
:10206000BDFD002386E000237B612DE07A687B695B
:102070000133DB0013445B683A689A421AD07A68ED
:102080007B690133DB0013445B681B6808331A6803
:1020900079687B690133DB000B445B681846904725
:1020A00004463B681B6808331B683868984703463A
:1020B0009C4201D1012300E00023002B01D000232A
:1020C00058E07B6901337B617B68DB6C7A699A42FB
:1020D000CCD37B68DB6C7A680133DB0013443A684D
:1020E0005A607B68DC6C0AF0D9F901467A68631C97
:1020F000DB00134499607B68DB6C5A1C7B68DA64F4
:1021000007F1080300221A601A713B681B68083344
:102110001B683868984738613B69DBB23B723B69A2
:102120001B0ADBB27B723B691B0CDBB2BB723B69E7
:102130001B0EDBB2FB723B681B680C331B683868F4
:10214000984704463B681B6810331B6838689847FB
:1021500003461D463B681B6818331B683868984760
:10216000034607F1080200932B462146044815F068
:1021700035FD012318461837BD46B0BDC493017024
:102180000894017080B584B000AF78603960002396
:10219000FB602BE07A68FB680133DB0013445B686B
:1021A000002B16D07A68FB680133DB0013445B68B0
:1021B0001B6808331A687968FB680133DB000B443D
:1021C0005B681846904702463B68934201D1012361
:1021D00000E00023002B06D07A68FB680133DB00A7
:1021E00013445B6808E0FB680133FB607B68DB6CD1
:1021F000FA689A42CED3002318461037BD4680BDF8
:102200002DE9F04188B002AFF860B9603B60134639
:10221000FB80FB68BA6812685A65FB68FA88A3F805
:1022200058203B68002B51D03968F868FFF7AAFFA7
:1022300038613B69002B00F0A8803B691B68303394
:102240001B680121386998473B8E002B07D03B69FA
:102250001B6814331B683A8E114638699847BB8E49
:10226000002B0AD03B8E642B07D93B691B681C33BB
:102270001B68BA8E1146386998473B691B680C3356
:102280001B68386998470446FB685433184612F0B7
:10229000C9FB0546FB68B3F8583098463B691B6894
:1022A00010331B683869984703461E463B691B6814
:1022B00018331B68386998470346019300964346D4
:1022C0002A462146354815F089FC5EE000237B61F3
:1022D00049E0FA687B690133DB0013445B68002B3B
:1022E0003ED0FA687B690133DB0013445B681B68EE
:1022F00030331A68F9687B690133DB000B445B6893
:102300000121184690473B8E002B11D0FA687B695B
:102310000133DB0013445B681B6814331A68F968E7
:102320007B690133DB000B445B68398E18469047AC
:10233000BB8E002B14D03B8E642B11D9FA687B69BD
:102340000133DB0013445B681B681C331A68F968AF
:102350007B690133DB000B445B68B98E18469047FC
:102360007B6901337B61FB68DB6C7A699A42B0D38D
:10237000FB685433184612F055FB0146FB68B3F86E
:1023800058301A46064815F029FCFB68012283F8EC
:10239000502000BF1837BD46BDE8F0815C94017045
:1023A000AC94017080B584B000AF786039603B6850
:1023B000002B1AD039687868FFF7E4FEB860BB6874
:1023C000002B43D0BB681B6830331B680021B86802
:1023D0009847BB681B680C331B68B868984703466E
:1023E00019461C4815F0FAFB30E00023FB601CE0A6
:1023F0007A68FB680133DB0013445B68002B11D063
:102400007A68FB680133DB0013445B681B68303378
:102410001A687968FB680133DB000B445B680021B4
:1024200018469047FB680133FB607B68DB6CFA68F9
:102430009A42DDD37B68002283F850207B68196EB6
:102440007B685B6E1A46044815F0C8FB00BF103766
:10245000BD4680BDE4940170149501702DE9B04F24
:102460008CB000AF7860964815F028FC02E064203C
:1024700009F036FD7B685B681846FFF769FA03468A
:1024800083F00103DBB2002BF1D17B68B3F8583045
:1024900019468C4815F0A2FB0023FB620FE00022D6
:1024A0000021202012F0ACFCF862FB6A002B06D160
:1024B000854815F003FC4FF4FA7009F011FDFB6A32
:1024C000002BECD009F0EAFF38610023BB6209E081
:1024D0007A68BB6A0133DB0013443A699A60BB6ACD
:1024E0000133BB627B68DB6CBA6A9A42F0D37B68CB
:1024F00093F85030DBB283F00103DBB2002B0ED136
:102500007B685B681846FFF723FA034683F00103F4
:10251000DBB2002B03D17B68DB6C002B01D10123E4
:1025200000E00023002B18D0322009F0D9FC09F07C
:10253000B5FF386100237B6209E07A687B6A01336A
:10254000DB0013443A699A607B6A01337B627B68E3
:10255000DB6C7A6A9A42F0D3B0E009F09FFF3861F1
:1025600000233B62A1E03B6A0133DB007A6813443D
:102570000433FB60FB681B68002B0ED0FB681B68F4
:102580001B682C331B68FA6812681046984703468C
:1025900083F00103DBB2002B01D0012300E0002314
:1025A000002B7ED1FB681B681B6810331B68FA6820
:1025B0001268104698470346FB83FB681B681B683C
:1025C00018331B68FA681268104698470346BB83A5
:1025D000FB8B002B01D10123FB83BB8B002B01D193
:1025E0000123BB83BB8B4FF47A7203FB02F2FB8B9C
:1025F000B2FBF3F3BB61BB69002B01D10123BB61CB
:10260000BB6900229846914642464B464FF0000077
:102610004FF00001590141EAD261500102460B46D8
:10262000B2EB080463EB09054FF000024FF0000322
:10263000AB0043EA9473A20014461D4614EB080A4B
:1026400045EB090B4FF000024FF000034FEACB03BC
:1026500043EA5A734FEACA0292469B46504659468D
:102660004FF47A724FF00003FDF722FE02460B464C
:1026700013467B617B69002B01D101237B61FB68E1
:102680005B683A69D31A7A699A420BD8FB681B686F
:102690001A46F96A786800F019F8FB683A695A60D6
:1026A00000E000BF3B6A01333B627B68DB6C3A6A47
:1026B0009A42FFF458AF012009F012FC17E700BF5F
:1026C0006095017098950170E89501702DE9B04F03
:1026D00096B004AFF860B9607A604FF4B8633B64B9
:1026E0007B681B6810331B68786898470346FB8734
:1026F0007B681B6820331B68786898470346BB8754
:102700007B681B6824331B687868984703467B877F
:102710007B681B6828331B687868984778637B6BF5
:10272000002B00F0C9807B681B6818331B68786831
:10273000984703467B867B8E642B04D87B8E002BC8
:1027400001D07B8E00E00123A7F8463040F29C5276
:102750007B6BB2FBF3F3FB62B7F84630FA6A9A423E
:1027600002D2FB6AA7F84630574BBB62574B7B62DD
:10277000574B3B627B681B6834331B68B7F84620B5
:10278000396A78689847F861FB69002B00F09680F9
:10279000FB699AB27B6B9BB212FB03F37B837B8B4F
:1027A00014333B8309F07AFE034600229846914693
:1027B00042464B464FF000004FF00001590141EAFC
:1027C000D261500102460B46B2EB080463EB0905E7
:1027D0004FF000024FF00003AB0043EA9473A200F5
:1027E00014461D4614EB080A45EB090B4FF0000296
:1027F0004FF000034FEACB0343EA5A734FEACA0291
:1028000092469B4652465B46796A0A604B607B68FB
:102810001B6808331B687868984702467B6A9A6091
:102820007B6AFA8F9A81FB699AB27B6ADA817B6A4A
:10283000BA8F1A827B6A7A8F5A82FB681989FB6881
:10284000DB6D5A1CFB68DA65FB68DA6D00230393C5
:1028500000230293082301933B8B009313464FF40C
:102860000072B86AFFF7E7F813F0B2FD78617B6990
:10287000002B24D03B8B10337B827B8A1A46124973
:10288000786913F0C3FDFB6803F15402FB68B3F8E9
:1028900058307969B86812F093FB786913F0A4FD99
:1028A000FB681B6E5A1CFB681A66FB685A6EFB6954
:1028B0001A44FB685A6602E000BF00E000BF4837D8
:1028C000BD46BDE8B08F00BF64880224748802242E
:1028D0008888022480B483B000AF78600B46FB7018
:1028E0007B68FA781A7600BF0C37BD465DF8047B2A
:1028F000704780B483B000AF78607B681B7E184659
:102900000C37BD465DF8047B704780B483B000AFE0
:1029100078607B681B6918460C37BD465DF8047B00
:10292000704780B483B000AF78607B6893F8503014
:10293000DBB218460C37BD465DF8047B704780B4A7
:1029400083B000AF78607B68DB6C18460C37BD46FF
:102950005DF8047B704780B483B000AF7860396065
:102960007B68DB6C3A689A4206D27A683B6801332E
:10297000DB0013445B6800E0002318460C37BD46BB
:102980005DF8047B704780B483B000AF78607B68EB
:102990005B7F18460C37BD465DF8047B704700002E
:1029A00080B400AFBFF34F8F00BF064BDB6803F46A
:1029B000E0620449044B1343CB60BFF34F8F00BF69
:1029C00000BFFDE700ED00E00400FA0580B500AFB0
:1029D000BFF34F8F00BFFFF7E3FF000080B584B067
:1029E00000AFF860B9607A603B60FB681846FEF79C
:1029F00079FD0D4AFB681A60FB68BA685A60FB688B
:102A00007A689A60FB683A68DA60FB68FA691A616A
:102A1000FB683A8B9A82FB6800229A61FB68184631
:102A20001037BD4680BD00BFF0A4017080B588B0EE
:102A300000AF7860444815F041F902E0642009F0E5
:102A40004FFA7B685B681846FEF782FF034683F007
:102A50000103DBB2002BF1D14CF252313B4815F0AF
:102A6000BDF800220021102012F0CAF9F861FB69BC
:102A7000002B06D1364815F021F9002009F0BCF9E9
:102A80005EE04CF252323349F86912F04FFAB86105
:102A9000BB69002B0AD0B9692F4815F09FF8F86977
:102AA00012F012FA002009F0A7F949E0FF21F869B5
:102AB00012F05AFAB861BB69002B0AD0B9692748ED
:102AC00015F08CF8F86912F0FFF9002009F094F97C
:102AD00036E000237B6107F114031946F86912F010
:102AE00009FBB861BB69002B26D17B69002B23D081
:102AF000786907F10E0207F11001002312F0F2F9D4
:102B000007F11003184611F08DFF0346FA891946A4
:102B1000134815F063F87B691946786800F0B8F837
:102B20007B69184612F0D4FA7B69184612F0CCF98A
:102B30000C4815F0C3F802E0642009F0D1F9C8E7A9
:102B40002037BD4680BD00BF289601705C9601709D
:102B5000949601705CD20170C8960170FC96017069
:102B6000349701706897017080B483B000AF7860CB
:102B700039607B683A681A607B6800225A607B681B
:102B800000229A607B680022DA607B6818460C3766
:102B9000BD465DF8047B704780B582B000AF7860B9
:102BA0007B685B68002B04D07B685B68184613F079
:102BB0001BFC7B6818460837BD4680BD80B588B0D1
:102BC00000AFF860B9607A600023FB6156E0FB68F3
:102BD0005B68002B05D0FB689A68FB68DB689A424B
:102BE00027D3FB685B68002B07D0FB685B6818463F
:102BF00013F0FAFBFB6800225A60FB681A68FB6856
:102C000004331946104612F091FBB861BB69002BE2
:102C100003D1FB685B68002B01D1002333E0FB6824
:102C20005B681B681B891A46FB68DA60FB68002238
:102C30009A60FB68DA68FB689B68D31A7B617A68E4
:102C4000FB69D31A7A69934228BF13463B61FB683C
:102C50005B681868BA68FB69D1183B699AB2FB686F
:102C60009B689BB20CF030F8FB689A683B691A4489
:102C7000FB689A60FA693B691344FB61FA697B68F7
:102C80009A42A4D3012318462037BD4680BD0000D8
:102C900080B58EB002AF7860396007F12A0207F183
:102CA0002C010023386812F01DF907F11803396868
:102CB0001846FFF759FF07F1080107F11803102222
:102CC0001846FFF77BFF034683F00103DBB2002BBE
:102CD00036D13B8945F24502934208D0FA89002358
:102CE000009301233968786800F04AFE2BE0BB8A24
:102CF000B3F5006F08D9FA890023009305233968DA
:102D0000786800F03DFE1EE0BB8A002B0DD0BB8A28
:102D10001A4607F1180310491846FFF74FFF0346FC
:102D200083F00103DBB2002B0CD107F1080207F19D
:102D30002C030093084B3968786800F00FF8BAE765
:102D400000BF00E000BF07F118031846FFF724FF9B
:102D50003037BD4680BD00BF248E022490B5F9B047
:102D600004AF07F5E874A4F5E274206007F5E87095
:102D7000A0F5E470016007F5E871A1F5E6710A605D
:102D800007F5E872A2F5E872136007F5E873A3F59A
:102D9000E6731B689A79DB791B021343A7F8BC31F1
:102DA000B7F8BC31B3F59C7F00F28280B7F8BC3134
:102DB000B3F5807FC0F0B785B7F8BC31A3F5807359
:102DC000382B00F2B08501A252F823F0C12E00701A
:102DD00027390070273900702739007027390070B3
:102DE00027390070273900702739007027390070A3
:102DF0002739007027390070273900702739007093
:102E00002739007027390070273900704F30007063
:102E1000733100702739007027390070273900702E
:102E20002739007027390070273900702739007062
:102E30002739007027390070273900702739007052
:102E40002739007027390070273900702D32007043
:102E50002739007027390070273900702739007032
:102E60002739007027390070273900702739007022
:102E70002739007027390070273900702739007012
:102E800027390070273900702739007075340070B9
:102E900027390070BB35007027390070C7360070C5
:102EA00027390070CF370070273900709F380070C5
:102EB000B7F8BC31B3F5F87F00F0198500F033BDE9
:102EC00007F11403C7F8683107F114031033C7F88A
:102ED0006431D7F8643100221A7000225A7000223F
:102EE0009A700022DA7007F5E873A3F5E2731B68A5
:102EF0009A8AD7F864319A8007F5E873A3F5E273EC
:102F00001B689B681846FFF7F4FC03461A46D7F87F
:102F10006431DA8007F5E873A3F5E2731B685B6838
:102F20001846FEF72DFD0246D7F864319A6007F582
:102F3000E873A3F5E2731B685B681846FEF72DFD86
:102F4000C7F86001D7F86031002B09D0D7F8643199
:102F50000C330622D7F86011184615F042F907E045
:102F6000D7F864310C3306220021184615F0A0F87A
:102F700007F5E873A3F5E2731B689B681846FFF733
:102F8000C4FC0246D7F864315A6109F087FA024658
:102F9000D7F864319A61D7F8643100221A77002299
:102FA0005A7700229A770022DA77D7F86431002224
:102FB00083F82020002283F82120002283F8222099
:102FC000002283F82320D7F86431002283F82420DC
:102FD000002283F82520002283F82620002283F88F
:102FE000272007F5E873A3F5E2731B68998A07F5B4
:102FF000E873A3F5E2731B689B695A1C07F5E87335
:10300000A3F5E2731B689A6107F5E873A3F5E27311
:103010001B689B6900220392002202920222019205
:103020002822009240F20112D7F86801FEF703FD52
:1030300007F1140107F5E873A3F5E470002300938A
:1030400001233822006812F037F800F08FBC00230B
:10305000C7F8CC310023A7F8CA310023A7F8C8313C
:1030600007F5E873A3F5E6731B689B899BB2072BF2
:1030700045D907F5E873A3F5E8731B68C7F86C3109
:10308000D7F86C315B68642B04D9D7F86C315B6876
:10309000C7F8CC31D7F86C311B889BB2002B05D018
:1030A000D7F86C311B889BB2C7F8CC31D7F86C319C
:1030B0005B889BB2002B0FD0D7F86C315B889BB23A
:1030C00042F21072934207D0D7F86C319A78DB78CD
:1030D0001B021343A7F8CA31D7F8CC31002B0ED00E
:1030E000D7F86C315B68002B09D0D7F86C315B687E
:1030F000642B04D8D7F86C315B68A7F8C8314FF05F
:10310000FF33C7F85C3107F5E873A3F5E2731B687A
:10311000D86807F5AE71B7F8C8310193B7F8CA316E
:103120000093D7F8CC314CF25132FFF769F807F52C
:10313000E873A3F5E2731B689B6802211846FFF74A
:10314000C9FB07F5E873A3F5E6731B68DB889AB241
:10315000B7F8CA3107F5E871A1F5E47107F5E87031
:10316000A0F5E270009300230968006800F008FCF5
:10317000FCE30023C7F8C43107F5E873A3F5E67351
:103180001B689B899BB2072B15D907F5E873A3F53C
:10319000E8731B68C7F87031D7F870315B68642B2F
:1031A00003D9D7F870315B6803E0D7F870311B881A
:1031B0009BB2C7F8C43107F5E873A3F5E2731B6847
:1031C000DB68D7F8C4111846FFF7ECF807F5E87389
:1031D000A3F5E2731B68DB681846FFF7A2FB034602
:1031E00083F00103DBB2002B09D007F5E873A3F5E8
:1031F000E2731B689B6801211846FFF76BFB07F51C
:10320000E873A3F5E6731B68DB889AB207F5E873E9
:10321000A3F5E47107F5E873A3F5E27000230093CA
:1032200000230968006800F0ABFB9FE307F5E87333
:10323000A3F5E2731B68DB681846FFF780FBC7F84D
:103240008C01D7F88C319BB25B019BB20433A7F899
:103250008A3107F11403C7F8843107F114031033DE
:10326000C7F8803107F114031433C7F87C31D7F85D
:103270008C319AB2D7F880311A80D7F88031002289
:103280009A700022DA700023C7F8C031A9E007F570
:10329000E873A3F5E2731B68DB68D7F8C011184622
:1032A000FFF759FBC7F87401D7F87431002B00F011
:1032B0009380D7F874311B6808331B68D7F8C02196
:1032C0005201D7F87C118C18D7F87401984703463F
:1032D0002360D7F8C0315B01D7F87C211344043355
:1032E00010220021184614F0E3FED7F8C0315B012C
:1032F000D7F87C2113441C1DD7F874311B680C339C
:103300001B68D7F87401984703460F2219462046D8
:1033100014F0D6FED7F874311B6810331B68D7F849
:10332000C0215201D7F87C118C18D7F87401984746
:103330000346A382D7F874311B6818331B68D7F88B
:10334000C0215201D7F87C118C18D7F87401984726
:103350000346E382D7F874311B6820331B68D7F823
:10336000C0215201D7F87C118C18D7F87401984706
:1033700003462383D7F874311B6824331B68D7F8BE
:10338000C0215201D7F87C118C18D7F874019847E6
:1033900003466383D7F874311B682C331B68D7F856
:1033A000740198470346002B01D0012100E0002161
:1033B000D7F8C0315B01D7F87C2113440A461A774D
:1033C000D7F8C0315B01D7F87C2113441D330322A9
:1033D0000021184614F06CFED7F8C0310133C7F84D
:1033E000C031D7F8C021D7F88C319A42FFF44FAFE3
:1033F00007F5E873A3F5E2731B68998A07F5E8738C
:10340000A3F5E2731B689B695A1C07F5E873A3F5E3
:10341000E2731B689A6107F5E873A3F5E2731B6812
:103420009A69002303930023029302230193B7F8C0
:103430008A310093134640F22112D7F88401FEF737
:10344000FAFAB7F88A311033A7F87A31B7F87A2147
:1034500007F1140107F5E873A3F5E4700023009366
:103460000123006811F028FED7F88C11B54814F03C
:10347000B5FB7BE207F5E873A3F5E2731B681B69F4
:10348000002B16D107F5E873A3F5E6731B68DB88FC
:103490009AB207F5E873A3F5E47107F5E873A3F5AD
:1034A000E27000230093FF230968006800F068FAC7
:1034B0005CE207F5E873A3F5E6731B689B899BB292
:1034C0000F2B16D807F5E873A3F5E6731B68DB88A6
:1034D0009AB207F5E873A3F5E47107F5E873A3F56D
:1034E000E2700023009305230968006800F048FAA1
:1034F0003CE207F5E873A3F5E8731B68C7F89C3155
:1035000007F5A273C7F8983107F5A2731033C7F80F
:10351000943107F5E873A3F5E2731B681B69D7F8CC
:103520009421D7F89C11184600F0B2FA0346A7F888
:103530009231022387F8BF31B7F89231002B05D0C2
:1035400097F8BF3143F0040387F8BF3107F5E873FC
:10355000A3F5E2731B68998A07F5E873A3F5E27394
:103560001B689B695A1C07F5E873A3F5E2731B6897
:103570009A6107F5E873A3F5E2731B689A69002363
:1035800003930023029397F8BF310193082300931C
:10359000134640F23112D7F89801FEF74CFA07F5BE
:1035A000A27107F5E873A3F5E470002300930123EB
:1035B0001822006811F080FDD8E107F5E873A3F543
:1035C000E2731B681B69002B16D107F5E873A3F59E
:1035D000E6731B68DB889AB207F5E873A3F5E4711C
:1035E00007F5E873A3F5E27000230093FF23096851
:1035F000006800F0C5F9B9E107F5E873A3F5E673D3
:103600001B689B899BB2072B16D807F5E873A3F5B7
:10361000E6731B68DB889AB207F5E873A3F5E471DB
:1036200007F5E873A3F5E27000230093052309680A
:10363000006800F0A5F999E107F5E873A3F5E873D0
:103640001B68C7F8A83107F5E873A3F5E8731B6892
:103650000833C7F8A431D7F8A8311A795B791B026F
:103660001343A7F8A23107F5E873A3F5E2731B68CB
:103670001869B7F8A231D7F8A421D7F8A81100F03B
:1036800085FA0346A7F8A03107F5E873A3F5E673BA
:103690001B68DB889CB2D7F8A8311A68B7F8A2314A
:1036A0001344B7F8A02107F5E871A1F5E47107F517
:1036B000E870A0F5E270009313462246096800689E
:1036C00000F05EF952E107F5E873A3F5E2731B68B9
:1036D0001B69002B16D107F5E873A3F5E6731B6889
:1036E000DB889AB207F5E873A3F5E47107F5E87390
:1036F000A3F5E27000230093FF230968006800F03F
:103700003FF933E107F5E873A3F5E6731B689B897E
:103710009BB2072B18D807F5E873A3F5E6731B686F
:10372000DB889AB207F5E873A3F5E47107F5E8734F
:10373000A3F5E2700023009305230968006800F0F8
:103740001FF913E19497017007F5E873A3F5E87387
:103750001B68C7F8B03107F5E873A3F5E2731B687F
:103760001B69D7F8B011184600F07AFA0346A7F89B
:10377000AE3107F5E873A3F5E6731B68DB889AB2F0
:10378000B7F8AE3107F5E871A1F5E47107F5E87017
:10379000A0F5E270002400940968006800F0F0F8D9
:1037A00007F5E873A3F5E2731B681B691846FFF77A
:1037B000EAF80346002B00F0D8806F4814F07EFA38
:1037C0004FF4967008F08CFBFFF700F9CDE007F599
:1037D000E873A3F5E2731B681B69002B16D107F58C
:1037E000E873A3F5E6731B68DB889AB207F5E87304
:1037F000A3F5E47107F5E873A3F5E27000230093E5
:10380000FF230968006800F0BBF8AFE007F5947388
:10381000C7F8B83107F594731033C7F8B43107F51A
:10382000E873A3F5E2731B681B69D7F8B411184657
:1038300000F004FB07F5E873A3F5E2731B68998AAF
:1038400007F5E873A3F5E2731B689B695A1C07F53B
:10385000E873A3F5E2731B689A6107F5E873A3F5B3
:10386000E2731B689B6900220392002202920222EB
:1038700001920C22009240F23712D7F8B801FEF7FD
:10388000DAF807F5947107F5E873A3F5E4700023FF
:10389000009301231C22006811F00EFC66E007F57E
:1038A000E873A3F5E2731B681B69002B08D007F5CA
:1038B000E873A3F5E2731B681B69184600F0A4FACD
:1038C00007F5E873A3F5E6731B68DB889AB207F582
:1038D000E873A3F5E47107F5E873A3F5E27000233C
:1038E000009300230968006800F04AF83EE007F5FD
:1038F000E873A3F5E6731B68DB889AB207F5E873F3
:10390000A3F5E47107F5E873A3F5E27000230093D3
:1039100000230968006800F033F8C82008F0E0FAD6
:10392000FFF754F822E007F5E873A3F5E6731B6888
:10393000DB889BB21946114814F050F907F5E8737B
:10394000A3F5E6731B68DB889AB207F5E873A3F565
:10395000E47107F5E873A3F5E270002300930423F4
:103960000968006800F00CF800E000BF00BF07F530
:10397000EA77BD4690BD00BFCC97017008980170F2
:1039800080B594B004AFF860B96011461A460B4692
:10399000FB801346BB8007F11403BB6307F11403DC
:1039A00010337B637B6BFA881A807B6BBA885A80F2
:1039B0007B6BBA6C5A607B6B00221A7200225A72BF
:1039C00000229A720022DA72BB88002B02D14FF4D7
:1039D000FF7301E040F2FF137B86022387F83F303C
:1039E000BB88002B05D097F83F3043F0040387F8DD
:1039F0003F30FB68998AFB689B695A1CFB689A6197
:103A0000FB6898697A8E002303930023029397F84A
:103A10003F3001930C2300930346B86BFEF70BF87D
:103A200007F114010023009301231C22B86811F050
:103A300043FB00BF4037BD4680BD80B483B000AFBC
:103A4000786039607B683A681A607B6800229A80E7
:103A50007B680022DA807B6800229A607B68002203
:103A6000DA607B6800221A617B6800225A617B68F9
:103A70004FF0FF329A617B6800221A777B68002240
:103A80005A777B6818460C37BD465DF8047B704753
:103A900080B584B000AFF860B9607A60BB6819681F
:103AA000BB685A68BB689B68364814F097F8BB68D7
:103AB0001B68002B04D0BB681B68B3F5203F0AD9F4
:103AC000FB680922DA80FB68DB881A467B681A608B
:103AD000FB68DB8851E0BB681A68FB689A60BB68CA
:103AE0005A68FB68DA60BB689A68FB681A61FB6811
:103AF00000225A61FB684FF0FF329A61BB68DB8994
:103B00009BB203F00103002B14BF01230023DAB2A0
:103B1000FB681A77FB6800225A77FB680022DA807C
:103B2000FB6803F12000FB689B68FF3323F0FF0371
:103B30001A46FF2114F0BCFAFB6801229A807B68C8
:103B400000221A7000225A7000229A700022DA7045
:103B50007B6800221A71002242F004025A717B68CD
:103B6000002262F05F029A710022DA71FB68203352
:103B70001946054814F032F8002318461037BD46A0
:103B800080BD00BF3C9801708098017080B586B000
:103B900000AFF860B9607A607B80FB689B88012B7E
:103BA00001D0062353E0BB681A687B881A44FB687F
:103BB0009B689A420DD9BB6819687A88FB689B6834
:103BC000254814F00BF8FB680522DA80FB68DB88D7
:103BD0003DE0BB68DB889BB2002B1DD07B884FF695
:103BE000FF7219467868FDF7E4FE0346FB82BB6866
:103BF000DB889BB2FA8A9A420ED0BB681968FA8AAF
:103C0000BB68DB889BB2154813F0E8FFFB68032212
:103C1000DA80FB68DB881AE0BB681B682033FA682F
:103C200013447A887968184614F0DBFAFB689B69BC
:103C30007A8879681846FCF731FC0246FB689A617D
:103C4000BB681A687B881A44FB685A6100231846CF
:103C50001837BD4680BD00BFC09801700C99017037
:103C6000F0B58FB006AF786039607B689B88012B18
:103C700001D00623B3E05C4814F020F87B680222F0
:103C80009A807B6820337A6892687B613A613B69ED
:103C9000002B1DDD7B6903F01F023B691344FB60B1
:103CA0007B69BB60BFF34F8F00BF504ABB68C2F84F
:103CB0006832BB682033BB60FB68203BFB60FB685D
:103CC000002BF2DCBFF34F8F00BFBFF36F8F00BF3D
:103CD00000BF7B6803F120027B689B681946104691
:103CE000FCF708FCF8617B689B691846FCF7CAFB87
:103CF000B8617B6893F820301D467B6893F82130CB
:103D00001E467B6893F822309C467B6893F82330EC
:103D10001A467B6893F8243019467B6893F825305F
:103D200018467B6893F826301C467B6893F827304A
:103D3000049303940290019100926346324629460F
:103D40002B4813F04BFF7B68DA687B685B69009354
:103D50001346FA69B969274813F040FF7B68DB68AE
:103D6000FA699A420FD07B68DB681A46F9692248E3
:103D700013F034FF7B6804229A807B680322DA8088
:103D80007B68DB882BE0F9691C4813F027FF0121D1
:103D9000786800F06FF8034683F00103DBB2002B74
:103DA0000BD0174813F08AFF7B6804229A807B6847
:103DB000FF22DA807B68DB8811E07B6803229A802F
:103DC0007B681B7F002B03D13B681B79002B02D043
:103DD0007B6801225A770B4813F070FF00231846C6
:103DE0002437BD46F0BD00BF6099017000ED00E0D2
:103DF0009C990170E8990170409A0170949A017041
:103E0000C89A0170FC9A017080B582B000AF7860EA
:103E1000094813F053FF7B6800229A807B680022D8
:103E2000DA807B6800225A617B6800225A7700237F
:103E300018460837BD4680BD4C9B017080B483B0E6
:103E400000AF786039607B685A693B681A607B68AC
:103E50009A683B685A607B689A883B681A817B68DD
:103E6000DA883B685A8100BF0C37BD465DF8047B99
:103E700070470000B0B594B000AF7860396007F1CA
:103E80000C0320220021184614F012F9414BFB606C
:103E90003B683B617B689B687B617B68DB68BB61DF
:103EA0007B681B69FB617B6820333B624FF0E0431A
:103EB0007B6207F10C031C211846FCF71BFB034631
:103EC000BB62354BFB64FB6C1D4607F10C040FCC49
:103ED00028606960AA60EB600FCC28616961AA6103
:103EE000EB617B6820337A689268BB637A637B6B93
:103EF000002B1DDDBB6B03F01F027B6B13443B6388
:103F0000BB6BFB62BFF34F8F00BF244AFB6AC2F852
:103F10006832FB6A2033FB623B6B203B3B633B6BAD
:103F2000002BF2DCBFF34F8F00BFBFF36F8F00BFDA
:103F300000BF194BBB6420237B647B6C002B1DDD11
:103F4000BB6C03F01F027B6C13443B64BB6CFB63D4
:103F5000BFF34F8F00BF114AFB6BC2F86832FB6B97
:103F60002033FB633B6C203B3B643B6C002BF2DC5F
:103F7000BFF34F8F00BFBFF36F8F00BF00BFBFF312
:103F80004F8F00BFBFF36F8F00BF0123184650371C
:103F9000BD46B0BD3141544F0000072400ED00E0A4
:103FA00080B584B000AFF860B9607A60FB681846ED
:103FB000FDF798FA064AFB681A60FB68BA685A600F
:103FC000FB687A689A60FB6818461037BD4680BD6A
:103FD00004A5017080B584B000AF78600023FB7346
:103FE0007B685B681B6810331B687A6852681046F0
:103FF0009847FB7B83F00103FB73FB7B002B04D012
:104000004FF47A7002F0E0F8EAE74FF47A6002F0D9
:10401000DBF8E5E780B400AF00BFBD465DF8047B88
:10402000704780B586B000AF3B1D00221A605A6011
:104030009A60DA6002F022FB0023FB7506E0FB7D4C
:10404000184602F039FBFB7D0133FB75FB7D0F2B1E
:10405000F5D901233B7100237B710023BB601F2333
:104060003B7387237B730023BB730023FB73012304
:104070003B7400237B740023BB740023FB743B1D43
:10408000184602F02FFB01237B714FF0E043BB6029
:104090001A233B7300237B730123BB730323FB733E
:1040A00000233B7400237B740123BB740123FB7446
:1040B0003B1D184602F016FB02237B714FF0405364
:1040C000BB600E233B7300237B730023BB7303236E
:1040D000FB7301233B7400237B740023BB74002318
:1040E000FB743B1D184602F0FDFA042002F0A4FA0E
:1040F00000BF1837BD4680BD80B588B000AF1B4BF0
:10410000D3F84831194A43F48023C2F84831174B99
:10411000D3F84831BB60BB68144BD3F84031134A25
:1041200043F00803C2F84031104BD3F840317B60B4
:104130007B6807F10C0300221A605A609A60DA600B
:104140001A614FF44073FB6002233B6100237B61E3
:104150000023BB610723FB6107F10C0319460448E8
:1041600004F066FA00BF2037BD4680BD0044025807
:10417000000C025880B584B000AFFFF752FF434BEC
:104180005B6903F40033002B14BF01230023DBB26F
:10419000002B1BD1BFF34F8F00BFBFF36F8F00BF4A
:1041A0003A4B0022C3F85022BFF34F8F00BFBFF33A
:1041B0006F8F00BF354B5B69344A43F40033536162
:1041C000BFF34F8F00BFBFF36F8F00E000BF2F4BD7
:1041D0005B6903F48033002B14BF01230023DBB29F
:1041E000002B42D1294B0022C3F88420BFF34F8F0C
:1041F00000BF264BD3F88030FB60FB685B0BC3F33A
:104200000E03BB60FB68DB08C3F309037B60BB687C
:104210005A0143F6E07313407A6892071B4913432F
:10422000C1F860327B685A1E7A60002B14BF0123EC
:104230000023DBB2002BEAD1BB685A1EBA60002B08
:1042400014BF01230023DBB2002BDBD1BFF34F8F60
:1042500000BF0E4B5B690D4A43F480335361BFF3DB
:104260004F8F00BFBFF36F8F00E000BF01F0F3FF7F
:10427000FFF7D0FE00F0E8FAFFF73EFF044800F039
:104280006FFD00BF1037BD4680BD00BF00ED00E0F0
:104290002496022480B400AF024B1846BD465DF858
:1042A000047B70472496022480B586B000AF134B80
:1042B000D3F84031114A43F00203C2F840310F4BAA
:1042C000D3F840313B603B683B1D00221A605A60C6
:1042D0009A60DA601A6180237B600123BB6000234F
:1042E000FB6000233B613B1D1946054804F0A0F923
:1042F000044B18461837BD4680BD00BF0044025825
:1043000000040258C896022480B400AF024B18463D
:10431000BD465DF8047B7047E096022480B483B00C
:1043200000AF7860044A7B681A607B6818460C37D7
:10433000BD465DF8047B704718A5017080B582B05A
:1043400000AF78607868FFF7E9FF0421786813F020
:1043500008F97B6818460837BD4680BD80B582B035
:1043600000AF7860054A7B681A607B681846FFF7E3
:10437000D5FF7B6818460837BD4680BD70A5017023
:1043800080B582B000AF78607868FFF7E7FF9821CA
:10439000786813F0E6F87B6818460837BD4680BD9C
:1043A00080B483B000AF7860044A7B681A607B6891
:1043B00018460C37BD465DF8047B704730A5017088
:1043C00080B582B000AF78607868FFF7E9FF04211C
:1043D000786813F0C6F87B6818460837BD4680BD7C
:1043E00080B582B000AF7860054A7B681A607B6850
:1043F0001846FFF7D5FF7B6818460837BD4680BDD5
:1044000050A5017080B582B000AF78607868FFF782
:10441000E7FF0C21786813F0A4F87B68184608378A
:10442000BD4680BD80B500AF4FF4E13219491A484E
:1044300000F05AFC194A1A49174813F08DF84FF446
:1044400080621849184800F0DDFB144A17491648E5
:1044500013F082F880221649164800F0D3FB0F4A69
:104460001249144813F078F84FF400520D491248DD
:1044700000F0C8FB094A0D490F4813F06DF80F48CA
:1044800000F0E4FC054A0E490C4813F065F800BF43
:1044900080BD00BF00480040249602240000002494
:1044A0005D430070000C0258BC960224E14300708A
:1044B00000040258C8960224D4960224E0960224EE
:1044C000894E007080B500AFFFF7ACFF80BD80B4AF
:1044D00000AF00BFBD465DF8047B704780B5DAB021
:1044E00000AF07F5B473A3F5B273186007F5B473A2
:1044F000A3F5B2731B681B688A4A934240F00C8193
:1045000007F5AA7300221A605A609A60DA601A618D
:1045100007F5B473A3F5B073184690231A4600212B
:1045200013F0C6FD07F198039C220021184613F0F2
:10453000BFFD0023C7F898300223C7F80C310023D1
:10454000C7F810310423C7F814311923C7F81831FC
:104550000223C7F81C310223C7F820310223C7F811
:1045600024310823C7F828310223C7F82C3100234F
:10457000C7F8303107F19803184604F0C7FA07F579
:10458000B473A3F5B0714FF4C0724FF00003C1E9EA
:10459000002307F5B473A3F5B07300225A6207F540
:1045A000B473A3F5B0734FF480229A6207F1080345
:1045B000184605F055FA5C4BD3F838315A4A43F4A3
:1045C0000043C2F83831584BD3F83831C7F850316E
:1045D000D7F85031544BD3F83831534A43F4803331
:1045E000C2F83831504BD3F83831C7F84C31D7F8CE
:1045F0004C314D4BD3F838314B4A43F40033C2F8B9
:104600003831494BD3F83831C7F84831D7F84831F9
:10461000454BD3F84031444A43F00103C2F84031DE
:10462000414BD3F84031C7F84431D7F844313E4BC1
:10463000D3F840313C4A43F00203C2F840313A4BD0
:10464000D3F84031C7F84031D7F84031364BD3F872
:104650004031354A43F00803C2F84031324BD3F8B9
:104660004031C7F83C31D7F83C312F4BD3F84031BB
:104670002D4A43F04003C2F840312B4BD3F8403170
:10468000C7F83831D7F83831274BD3F85431264A98
:1046900043F00203C2F85431234BD3F85431C7F826
:1046A0003431D7F834311023C7F854310223C7F816
:1046B00058310023C7F85C310223C7F860310B235F
:1046C000C7F8643107F5AA731946184803F0B0FF1C
:1046D0004023C7F8543107F5AA731946144803F06C
:1046E000A7FF43F67003C7F8543107F5AA731946BC
:1046F000104803F09DFF8423C7F8543107F5AA73CF
:1047000019460D4803F094FF002205215C2001F0BA
:1047100050FF5C2001F067FF00BF07F5B477BD468E
:1047200080BD00BF0080024000440258000C0258C7
:1047300000040258001802580000025880B582B0E8
:1047400000AF78607B681B68194A93422BD1194BE4
:10475000D3F83831174A23F40043C2F83831154BE7
:10476000D3F83831134A23F48033C2F83831114B6F
:10477000D3F838310F4A23F40033C2F8383110210E
:104780000D4804F0B5F840210C4804F0B1F843F6A8
:1047900070010B4804F0ACF884210A4804F0A8F832
:1047A0005C2001F02EFF00BF0837BD4680BD00BF72
:1047B0000080024000440258000C025800040258D5
:1047C00000180258000002580D48854600F026F8EF
:1047D0000C480D490D4A002302E0D458C45004335C
:1047E000C4188C42F9D30A4A0A4C002301E0136032
:1047F0000432A242FBD313F0CDFCFCF75FFAFEE7D4
:104800000000012000000024280500246CD3017062
:104810004005002464CB0524FEE7000080B400AF0F
:10482000074B084A9A60064BD3F88830044A43F491
:104830007003C2F8883000BFBD465DF8047B704746
:1048400000ED00E00000007080B489B000AF924B32
:104850001B6903F03803182B00F2FB8001A252F809
:1048600023F000BFC9480070534A0070534A0070DB
:10487000534A0070534A0070534A0070534A007004
:10488000534A0070DD480070534A0070534A00706C
:10489000534A0070534A0070534A0070534A0070E4
:1048A000534A0070E3480070534A0070534A007046
:1048B000534A0070534A0070534A0070534A0070C4
:1048C000534A0070E9480070734B1B68DB0803F023
:1048D0000303724A22FA03F3FB61C4E0704BFB61ED
:1048E000C1E0704BFB61BEE06B4B9B6A03F00303BE
:1048F0003B61694B9B6A1B0903F03F03FB60664BFE
:10490000DB6A03F00103002B0BD0634B5B6BDB080E
:10491000C3F30C0307EE903AF8EE677AC7ED067A18
:1049200002E04FF00003BB61FB68002B00F08E80BB
:104930003B69012B24D03B69022B43D1FB6807EE76
:10494000903AF8EE677ADFED586A86EEA77A524B16
:104950001B6BC3F3080307EE903AF8EE676A97ED16
:10496000066ADFED525AC6EE257A76EEA77AF7EEA2
:10497000006A77EEA67A67EE277AC7ED057A4FE0F0
:10498000FB6807EE903AF8EE677ADFED496A86EE4B
:10499000A77A414B1B6BC3F3080307EE903AF8EE7E
:1049A000676A97ED066ADFED415AC6EE257A76EE24
:1049B000A77AF7EE006A77EEA67A67EE277AC7ED58
:1049C000057A2DE0344B1B68DB0803F00303334A00
:1049D00022FA03F3BB60BB6807EE903AF8EE676A11
:1049E000FB6807EE903AF8EE677A86EEA77A2A4BD4
:1049F0001B6BC3F3080307EE903AF8EE676A97ED76
:104A0000066ADFED2A5AC6EE257A76EEA77AF7EE29
:104A1000006A77EEA67A67EE277AC7ED057A00BFBF
:104A20001D4B1B6B5B0A03F07F0301337B607B68CC
:104A300007EE903AB8EE677AD7ED056AC6EE877A48
:104A4000FCEEE77A17EE903AFB610CE00023FB6185
:104A500009E0114B1B68DB0803F003030F4A22FA3D
:104A600003F3FB6100BF0C4B9B6903F00F033B603A
:104A70003B68072B07D93B68073BFA6922FA03F327
:104A80000C4A136002E00B4AFB69136000BF243735
:104A9000BD465DF8047B7047004402580090D00387
:104AA00000093D0000366E01001BB74B00000046B8
:104AB0000024744A1C00002480B500AF01F020FCE3
:104AC00008F080F80346012B14BF01230023DBB25A
:104AD000002B01D009F0FCFB00BF80BD80B58AB07F
:104AE00000AF78607B681B687B627B685B683B62B9
:104AF0007B689B68FB617B68DB68BB617B681B69CB
:104B00007B617B685B693B617B689B69FB607B6861
:104B1000DB69BB601C4813F0D1F81C4813F0CEF8D9
:104B2000F9681B4813F05AF839691A4813F056F817
:104B30003A6A796A184813F051F8BA69F96917485E
:104B400013F04CF8BA687969154813F047F8154B1B
:104B50009B6A1946144813F041F8124BDB6A194658
:104B6000124813F03BF80F4B5B6B1946104813F0DB
:104B700035F80C4B9B6B19460E4813F02FF80E4876
:104B800013F09CF800BFFDE7709B01709C9B0170C7
:104B9000B89B0170C89B0170D89B0170F89B017095
:104BA000189C017000ED00E0389C0170509C017071
:104BB000689C0170809C0170989C01701EF0040F2D
:104BC0000CBFEFF30880EFF30980FFF787BF00BF4A
:104BD000FFF7F4FF00BFFFF7F1FF00BFFFF7EEFFA5
:104BE00000BF000080B483B000AF7860044A7B68E7
:104BF0001A607B6818460C37BD465DF8047B704729
:104C000030A5017080B584B000AFF860B96013467C
:104C1000FB80FB681846FFF7E5FF074AFB681A6050
:104C2000FB68BA685A60FB68FA881A81FB68184604
:104C30001037BD4680BD00BF50A5017080B582B061
:104C400000AF78607B6858687B681B890122194631
:104C500003F02AFF00BF0837BD4680BD80B582B093
:104C600000AF78607B6858687B681B890022194612
:104C700003F01AFF00BF0837BD4680BD80B582B083
:104C800000AF78607B685A687B681B8919461046BC
:104C900003F022FF00BF0837BD4680BD80B582B05B
:104CA00000AF78607B685A687B681B89194610469C
:104CB00003F0E2FE0346012B0CBF01230023DBB20D
:104CC00018460837BD4680BD80B483B000AF786019
:104CD000044A7B681A607B6818460C37BD465DF84D
:104CE000047B704718A5017080B584B000AFF860F0
:104CF000B9607A60FB681846FFF7E6FF174AFB6861
:104D00001A60FB68043394220021184613F0D0F98E
:104D1000FB68BA685A60FB687A689A60FB68002290
:104D2000DA60FB6800221A61FB6800225A61FB68A6
:104D30000C229A61FB680022DA61FB6800221A6289
:104D4000FB6800225A62FB6800229A62FB6800221C
:104D5000DA62FB6818461037BD4680BD70A5017049
:104D600080B582B000AF78607B680433184605F0E8
:104D700069FF0346002B0CBF01230023DBB218465A
:104D80000837BD4680BD80B584B000AFF860B9601B
:104D90007A60FB68181D7B689AB24FF0FF33B968E0
:104DA00005F0AAFF0346002B0CBF01230023DBB252
:104DB00018461037BD4680BD80B584B000AFF8609E
:104DC000B9607A60FB68181D7B689AB24FF0FF33B8
:104DD000B96806F02AF80346002B0CBF0123002314
:104DE000DBB218461037BD4680BD000080B483B0EA
:104DF00000AF7860044A7B681A607B6818460C37FD
:104E0000BD465DF8047B7047A4A5017080B483B0F3
:104E100000AF7860044A7B681A607B6818460C37DC
:104E2000BD465DF8047B7047A4A5017080B582B0D3
:104E300000AF78607868FFF7E9FF0421786812F026
:104E400090FB7B6818460837BD4680BD80B582B0B0
:104E500000AF78607B681846FFF7C8FF094A7B6897
:104E60001A607B68043324220021184613F020F9CD
:104E70007B68002283F828207B6818460837BD46E7
:104E800080BD00BF88A5017080B582B000AF78609A
:104E9000074A7B681A60786800F0B7F87B681846A4
:104EA000FFF7B4FF7B6818460837BD4680BD00BFDA
:104EB00088A5017080B582B000AF78607868FFF790
:104EC000E3FF2C21786812F04CFB7B68184608370A
:104ED000BD4680BD80B586B000AF78607B6893F832
:104EE0002830002B01D0012363E0344BD3F8543138
:104EF000324A43F08063C2F85431304BD3F8543116
:104F0000FB60FB687B68043324220021184613F001
:104F1000CFF87B682A4A5A607B6800229A607B68D7
:104F20000022DA607B6800221A617B684FF47022ED
:104F30005A6104F0B3FA38613B69224A934205D9B9
:104F40003B69214AA2FB03239B0C00E001237B6108
:104F50007B697F2B01D97F237B617B687A699A61AA
:104F60007B680022DA617B6800221A627B68043366
:104F7000184601F0FDFB0346002B14BF012300235C
:104F8000DBB2002B01D0002313E07B68043318460A
:104F900001F092FC0346002B14BF01230023DBB277
:104FA000002B01D0002304E07B68012283F8282035
:104FB000012318461837BD4680BD00BF0044025883
:104FC0000068005840420F0083DE1B4380B582B06A
:104FD00000AF786039607B6893F8283083F0010374
:104FE000DBB2002B01D000230BE07B68043339686F
:104FF000184601F0E5FC0346002B0CBF01230023FB
:10500000DBB218460837BD4680BD80B582B000AF20
:1050100078607B6893F82830002B08D07B680433D5
:10502000184601F096FC7B68002283F8282000BF18
:105030000837BD4680BD80B483B000AF78604FF4C0
:10504000805318460C37BD465DF8047B704780B42A
:1050500083B000AF78604FF4807318460C37BD46BC
:105060005DF8047B704780B483B000AF78607B68E4
:105070009B6818460C37BD465DF8047B70470000FE
:1050800080B483B000AF7860044A7B681A607B68A4
:1050900018460C37BD465DF8047B704790A301703D
:1050A00080B584B000AFF860B9607A60FB681846DC
:1050B000FFF7E6FF084AFB681A60FB68BA685A60A7
:1050C000FB687A689A60FB6800221A73FB681846CE
:1050D0001037BD4680BD00BFC0A5017080B483B04D
:1050E00000AF78607B6801221A73012318460C37E1
:1050F000BD465DF8047B704780B588B000AFF860AE
:10510000B9607A603B60BA683B681A44FB689B6888
:105110009A4205D87B68002B02D03B68002B01D156
:10512000002345E0244B0022C3F88420BFF34F8FB7
:1051300000BF214BD3F88030BB61BB695B0BC3F36D
:105140000E037B61BB69DB08C3F309033B617B6929
:105150005A0143F6E07313403A6992071649134324
:10516000C1F860323B695A1E3A61002B14BF01231B
:105170000023DBB2002BEAD17B695A1E7A61002B37
:1051800014BF01230023DBB2002BDBD1BFF34F8F11
:1051900000BFBFF36F8F00BF00BFFB685A68BB68DA
:1051A0001344FB613A68F969786813F01AF801232F
:1051B00018462037BD4680BD00ED00E080B500AF49
:1051C0000C4B1B68002B12D00A4B1B68184601F0D1
:1051D000D1FF084B1B681B68064A1268126803F56A
:1051E0008053D3F8603102F58052C2F8603100BFBD
:1051F00080BD00BF0C97022480B483B000AF7860FC
:1052000000BF0C37BD465DF8047B704780B483B0A7
:1052100000AF786000BF0C37BD465DF8047B704777
:1052200080B483B000AF786000BF0C37BD465DF836
:10523000047B704780B483B000AF78600B4B1B6871
:1052400040F2DC5202FB03F3094A1A447B681A60FD
:10525000064B1B68013303F00303044A136000BFCD
:105260000C37BD465DF8047B704700BF10970224E1
:105270006000003080B58CB000AFF860B9607A6033
:105280007B807B887A68FA61BB61BB69002B1DDD7E
:10529000FB6903F01F02BB6913447B61FB693B613F
:1052A000BFF34F8F00BF284A3B69C2F85C323B69AD
:1052B00020333B617B69203B7B617B69002BF2DC07
:1052C000BFF34F8F00BFBFF36F8F00BF00BF7B885E
:1052D0004FF4C1721946002009F008FBB862BB6A9E
:1052E000002B05D07B881A467968B86A09F022FD40
:1052F000FB687B62BB683B62BB6A002B20D07B6A89
:105300001B68002B03D17B6ABA6A1A6003E03B6A10
:105310001B68BA6A1A603B6ABA6A1A607B6A1B68C1
:10532000FB6209E0FB6A1A897B8813449AB2FB6A24
:105330001A81FB6A1B68FB62FB6A002BF2D100E05A
:1053400000BF3037BD4680BD00ED00E080B483B0C3
:1053500000AF7860044A7B681A607B6818460C3797
:10536000BD465DF8047B704738A6017080B483B0F9
:1053700000AF7860044A7B681A607B6818460C3777
:10538000BD465DF8047B704738A6017080B582B0D9
:1053900000AF78607868FFF7E9FF0421786812F0C1
:1053A000E0F87B6818460837BD4680BD80B483B0FE
:1053B00000AF7860044A7B681A607B6818460C3737
:1053C000BD465DF8047B704720A6017080B582B0B1
:1053D00000AF78607868FFF7E9FF0421786812F081
:1053E000C0F87B6818460837BD4680BD80B582B0DE
:1053F00000AF7860054A7B681A607B681846FFF743
:10540000D5FF7B6818460837BD4680BD6CA6017085
:1054100080B582B000AF78607868FFF7E7FF0821B9
:10542000786812F09EF87B6818460837BD4680BD44
:1054300080B584B000AFF860B9607A60FB68184648
:10544000FFF784FF104AFB681A60FB68BA680433F0
:1054500007CA83E80700FB687A681A61FB6803F1F2
:10546000C402FB6814331946104600F0F3FBFB68D6
:105470000022C3F8CC20FB680022C3F8D020FB68D0
:1054800018461037BD4680BDECA5017080B582B0CE
:1054900000AF78600A4A7B681A607B68143318464C
:1054A00001F008FC7B68C4331846FFF79FFF7B6858
:1054B0001846FFF75BFF7B6818460837BD4680BD7E
:1054C000ECA5017080B582B000AF78607868FFF716
:1054D000DDFFD421786812F044F87B68184608375D
:1054E000BD4680BD80B58AB000AF7860714BD3F8FF
:1054F0003C31704A43F00053C2F83C316D4BD3F855
:105500003C31FB60FB686C4B0022C3F88420BFF386
:105510004F8F00BF684BD3F88030BB61BB695B0B1A
:10552000C3F30E037B61BB69DB08C3F309033B6173
:105530007B695A0143F6E07313403A6992075E496A
:105540001343C1F874323B695A1E3A61002B14BFF1
:1055500001230023DBB2002BEAD17B695A1E7A615A
:10556000002B14BF01230023DBB2002BDBD1BFF3E0
:105570004F8F00BFBFF36F8F00BF00BFBFF34F8FD0
:1055800000BFBFF36F8F00BF7B681433B0220021D0
:10559000184612F08DFD7B68484A5A617B681A1DD7
:1055A0007B689A617B68DB68DAB27B681A777B6814
:1055B000434A1A627B68434A5A627B6840F2DC5273
:1055C0009A627B681433404A13603B4B0022C3F855
:1055D0008420BFF34F8F00BF374BD3F880307B62FE
:1055E0007B6A5B0BC3F30E033B627B6ADB08C3F38E
:1055F0000903FB613B6A5A0143F6E0731340FA6901
:1056000092072D491343C1F87432FB695A1EFA619F
:10561000002B14BF01230023DBB2002BEAD13B6A2D
:105620005A1E3A62002B14BF01230023DBB2002B69
:10563000DBD1BFF34F8F00BFBFF36F8F00BF00BF41
:105640007B681433184601F039FA0346002B14BF67
:1056500001230023DBB2002B04D01C4812F02EFBE8
:10566000002322E05C2000F0CCFF7B681B691B68F4
:1056700008331B687A6810697A68C4321146984703
:105680007B681B691B680C331B687A6812691046BB
:105690009847034683F00103DBB2002B04D00C488B
:1056A00012F00CFB002300E0012318462837BD460A
:1056B00080BD00BF0044025800ED00E000800240C1
:1056C000E0170030000000300C970224F49C0170B9
:1056D000149D017080B5A6B000AF7860396000F00D
:1056E00023FEC7F8900089E07B681B691B681033B4
:1056F0001B687A681269104698470346002B7AD0D7
:105700007B681B691B6818331B687A68106907F18E
:10571000800207F184019847D7F88430012B02D129
:105720004FF4804300E00023C7F88C30D7F8803076
:10573000012B02D14FF4005300E00023C7F888305A
:105740007B68143307F108021146184601F0CEFEBB
:105750000346002B0CBF01230023DBB2002B0DD02E
:10576000D7F88C30FB61D7F888303B627B68143304
:1057700007F108021146184602F08CF80023C7F81A
:10578000943012E00023FB667B6803F11400D7F825
:10579000942007F16C03002101F0FFFD0346002B6C
:1057A000D7F894300133C7F89430D7F894301F2BD2
:1057B000E8DD7B681433184601F090FA7B681433F7
:1057C00007F170021146184602F01AF90346002B41
:1057D0000CBF01230023DBB2002B0AD0012387F882
:1057E00070307B68143307F170021146184602F0DE
:1057F000BBF8012312E00A2000F0A2FD00F094FDA6
:105800000246D7F89030D31A3A689A428CBF0123E7
:105810000023DBB2002B7FF467AF002318469837D4
:10582000BD4680BD80B582B000AF78607B681B69E3
:105830001B6810331B687A68126910469847034644
:1058400018460837BD4680BD80B582B000AF78608D
:105850007B681B691B6814331B687A6812691046E1
:105860009847034618460837BD4680BD80B485B0CA
:1058700000AFF860B9607A60FB68BA68C3F8CC2002
:10588000FB687A68C3F8D02000BF1437BD465DF8C6
:10589000047B704780B5A0B000AFF860B9601346D4
:1058A000FB80FB8840F2DC52934202D8BB68002B9D
:1058B00001D10023A3E0544B1B6840F2DC5202FBF1
:1058C00003F3524A1344FB674F4B1B68013303F049
:1058D00003034D4A1360FB881A46B968F86F12F04B
:1058E00080FCFB6F23F01F03BB67FA6FBB6FD21AFC
:1058F000FB8813441F3323F01F037B67BA6F7B6F52
:105900003A66FB65FB6D002B1DDD3B6E03F01F024D
:10591000FB6D1344BB653B6E7B65BFF34F8F00BFD0
:105920003B4A7B6DC2F868327B6D20337B65BB6D73
:10593000203BBB65BB6D002BF2DCBFF34F8F00BF7C
:10594000BFF36F8F00BF00BFFB6FBB64FB88FB64BE
:1059500000233B6507F1100338220021184612F09E
:10596000A7FB20233B6100233B62FB887B6107F19F
:105970004803BB61274B3B676023FB66FB6E002B34
:105980001DDD3B6F03F01F02FB6E1344BB663B6FD4
:105990007B66BFF34F8F00BF1D4A7B6EC2F8683233
:1059A0007B6E20337B66BB6E203BBB66BB6E002BE1
:1059B000F2DCBFF34F8F00BFBFF36F8F00BF00BF9C
:1059C000FB68143307F110016422184601F0E8F96E
:1059D0000346002B14BF01230023DBB2002B0DD0A4
:1059E000FB68D3F89C10FB68D3F8A020FB68D3F8C1
:1059F0009830094812F0F2F8002300E0012318461D
:105A00008037BD4680BD00BF149702244018003087
:105A100000ED00E0E0170030309D017080B58CB0E3
:105A200000AF78600023FB603B4BFB626023BB62EE
:105A3000BB6A002B1DDDFB6A03F01F02BB6A134427
:105A40007B62FB6A3B62BFF34F8F00BF334A3B6A06
:105A5000C2F85C323B6A20333B627B6A203B7B624C
:105A60007B6A002BF2DCBFF34F8F00BFBFF36F8F59
:105A700000BF00BF3BE0FB68002B12D07B68D3F86F
:105A8000CC30002B09D07B68D3F8CC307A68D2F8C0
:105A9000D020F9681046984703E0FB68184608F0E4
:105AA000D9FE1D4BFB616023BB61BB69002B1DDD73
:105AB000FB6903F01F02BB6913447B61FB693B6117
:105AC000BFF34F8F00BF154A3B69C2F85C323B6998
:105AD00020333B617B69203B7B617B69002BF2DCDF
