:0200000470008A
:1000000000000120D16E0070216F0070C572007079
:10001000D9720070DF720070E5720070000000009D
:100020000000000000000000000000000119017045
:10003000216F0070000000002D1A0170C171007066
:10004000216F007000000000216F0070216F0070B0
:10005000216F0070216F00700000000000000000A0
:10006000216F0070216F0070216F00700000000090
:1000700000000000216F0070000000000000000080
:10008000216F0070216F0070216F0070216F007070
:10009000216F0070216F0070216F0070216F007060
:1000A000216F0070216F0070216F0070216F007050
:1000B000216F0070216F0070216F0070216F007040
:1000C000216F0070216F0070216F0070216F007030
:1000D000216F0070216F0070216F0070216F007020
:1000E000216F0070216F0070216F0070216F007010
:1000F000216F0070216F0070216F0070216F007000
:10010000216F0070216F0070216F0070216F0070EF
:10011000216F0070216F0070216F0070216F0070DF
:10012000216F0070216F0070216F0070216F0070CF
:10013000216F0070216F0070216F0070216F0070BF
:10014000216F0070216F0070216F0070216F0070AF
:10015000216F0070216F0070216F0070216F00709F
:10016000216F0070216F0070216F0070216F00708F
:10017000216F0070216F0070216F0070216F00707F
:10018000216F0070216F0070216F0070216F00706F
:10019000216F0070216F0070216F0070216F00705F
:1001A000216F0070216F0070216F0070216F00704F
:1001B000A97E0070216F0070216F0070216F0070A8
:1001C0000000000000000000216F0070216F00702F
:1001D000216F0070216F0070216F0070216F00701F
:1001E000216F0070216F0070216F0070216F00700F
:1001F000216F0070216F00700000000000000000FF
:10020000216F0070216F0070216F0070216F0070EE
:10021000216F0070216F0070216F0070216F0070DE
:10022000216F0070216F0070216F0070216F0070CE
:10023000216F0070216F0070216F0070216F0070BE
:10024000216F0070216F0070216F0070216F0070AE
:10025000216F0070216F0070216F0070216F00709E
:10026000216F0070216F0070216F0070216F00708E
:10027000216F0070216F0070216F0070216F00707E
:10028000216F0070216F0070216F0070216F00706E
:10029000216F00700000000000000000000000005E
:1002A000216F0070216F0070216F0070216F00704E
:1004000057465045010001000000000100000001B6
:100410008F0100000000000000000000000000004C
:1004200000000000000000000000000000000000CC
:1004300000000000000000000000000000000000BC
:1004400053B94AB9002908BF00281CBF4FF0FF313B
:100450004FF0FF3000F00CB8ADF1080C6DE904CEA0
:100460001AF058FDDDF804E0DDE9022304B070471E
:10047000704700BF10F8012B11F8013B012A28BF7B
:100480009A42F7D0D01A7047034613F8012B002A7E
:10049000FBD1181A0138704700000000000000006E
:1004A00001F0FF01102A2BDB10F0070F08D010F825
:1004B000013B013A8B422DD010F0070F42B3F6D129
:1004C000F0B441EA012141EA014122F007047FF042
:1004D00000070023F0E80256083C85EA010586EA99
:1004E000010685FA47F5A3FA87F586FA47F6A5FAD5
:1004F00087F68EB9EED1F0BC01F0FF0102F00702E1
:1005000032B110F8013B013A83EA010313B1F8D18B
:100510000020704701387047002D06BF354603386C
:10052000073815F0010F07D1013015F4807F02BFA5
:10053000013015F4C03F0130F0BC0138704700BFF6
:100540000348044B834202D0034B03B11847704762
:100550002805002428050024000000000548064B5B
:100560001B1AD90F01EBA301491002D0034B03B1B1
:1005700018477047280500242805002400000000C3
:1005800010B5064C237843B9FFF7DAFF044B13B1DB
:100590000448AFF300800123237010BD4005002400
:1005A000000000002CCB017008B5054B1BB10549BC
:1005B0000548AFF30080BDE80840FFF7CFBF00BF9C
:1005C00000000000440500242CCB017080B582B0EF
:1005D00000AF7860074A7B681360074B1B68986818
:1005E0000023022200211BF07FF900BF0837BD461F
:1005F00080BD00BF5C0500244000002480B584B0AD
:1006000000AFF860B9607A60094B1B68002B09D015
:10061000074B1B681B6808331B68054A10687A681B
:10062000B96898477B6818461037BD4680BD00BF43
:100630005C05002480B483B000AF78607B68DB4346
:1006400018460C37BD465DF8047B704780B489B00E
:1006500000AFF860B9607A60BB687B61FB68FB61E2
:100660000023BB6111E07A69BB6913441B781A4609
:10067000FB695340DBB20A4A52F82320FB691B0A8C
:100680005340FB61BB690133BB61BA697B689A4225
:10069000E9D3FB6918462437BD465DF8047B7047F3
:1006A000E8E9017080B584B000AF786039603A68DD
:1006B00079684FF0FF30FFF7C9FFF860F868FFF77F
:1006C000B9FF034618461037BD4680BD90B482B0CE
:1006D00000AF0446084611461A462346FB710346FE
:1006E000BB710B467B7113463B71FA79BB791B02D8
:1006F0001A437B791B041A433B791B0613431846A4
:100700000837BD4690BC704780B483B000AF7860B6
:1007100039607B683A685A6100BF0C37BD465DF8A6
:10072000047B704780B483B000AF78600B467B8059
:100730007B687A881A8300BF0C37BD465DF8047B5E
:10074000704780B483B000AF786039607B683A68E6
:10075000DA6100BF0C37BD465DF8047B70470000CE
:1007600080B483B000AF7860044A7B681A607B680D
:1007700018460C37BD465DF8047B704728EF0170C2
:1007800080B483B000AF7860044A7B681A607B68ED
:1007900018460C37BD465DF8047B704728EF0170A2
:1007A00080B582B000AF78607868FFF7E9FF042178
:1007B00078681AF09CFB7B6818460837BD4680BDF8
:1007C00080B582B000AF78600B467B8013463B80DB
:1007D0007B681846FFF7C4FF094A7B681A607B688C
:1007E0007A889A807B683A88DA807B6800229A60EF
:1007F0007B6800221A737B6818460837BD4680BDA7
:10080000E8EE017080B483B000AF7860034B184607
:100810000C37BD465DF8047B704700BF434E545211
:1008200080B483B000AF7860034B18460C37BD46E8
:100830005DF8047B704700BF44CB017080B483B087
:1008400000AF78607B689B8818460C37BD465DF822
:10085000047B704780B483B000AF78600B467B8028
:100860007B88002B05D07B687A889A807B68012280
:10087000DA8000BF0C37BD465DF8047B704780B45A
:1008800083B000AF78607B68DB8818460C37BD46C4
:100890005DF8047B704780B483B000AF78600B468E
:1008A0007B807B88002B04D07B88642B01D87A88DE
:1008B00000E001227B68DA8000BF0C37BD465DF89E
:1008C000047B704780B483B000AF78600123184682
:1008D0000C37BD465DF8047B704780B483B000AF31
:1008E0007860042318460C37BD465DF8047B7047DA
:1008F00080B483B000AF7860042318460C37BD463F
:100900005DF8047B704780B483B000AF78607B688B
:100910001B7B18460C37BD465DF8047B704780B4DE
:1009200083B000AF78600B46FB707B68FA781A736F
:1009300000BF0C37BD465DF8047B704780B487B0BC
:1009400000AFF860B9607A607B68002B02D0BB68AA
:10095000002B01D1002316E0BB683B6100237B61C3
:100960000CE0FB689B68591CFA6891607A699200F8
:1009700039690A4413607B6901337B617A697B685A
:100980009A42EED37B6818461C37BD465DF8047B5F
:100990007047000080B584B000AFF860B9601146C0
:1009A0001A460B46FB801346BB80FB681846FFF7D0
:1009B000D7FE0E4AFB681A60FB68BA685A60FB688B
:1009C000FA881A81FB68BA885A81FB6800221A7378
:1009D000FB685B681B6808331B68FA68526810463E
:1009E0009847FB6818461037BD4680BDA8EE0170D9
:1009F00080B483B000AF7860034B18460C37BD4617
:100A00005DF8047B704700BF54454D5080B483B0FF
:100A100000AF7860034B18460C37BD465DF8047B89
:100A2000704700BF4CCB017080B483B000AF7860DA
:100A30007B681B8918460C37BD465DF8047B704700
:100A400080B483B000AF78600B467B807B88002B3E
:100A500005D07B687A881A817B6801225A8100BFA1
:100A60000C37BD465DF8047B704780B483B000AF9F
:100A700078607B685B8918460C37BD465DF8047B5F
:100A8000704780B483B000AF78600B467B807B8872
:100A9000002B04D07B88642B01D87A8800E00122E7
:100AA0007B685A8100BF0C37BD465DF8047B7047F8
:100AB00080B483B000AF7860012318460C37BD4680
:100AC0005DF8047B704780B483B000AF7860022388
:100AD00018460C37BD465DF8047B704780B483B080
:100AE00000AF7860042318460C37BD465DF8047BE0
:100AF000704780B483B000AF78607B681B7B18467A
:100B00000C37BD465DF8047B704780B483B000AFFE
:100B100078600B46FB707B68FA781A7300BF0C375D
:100B2000BD465DF8047B704780B588B000AFF860C3
:100B3000B9607A607B68002B02D0BB68002B01D1C2
:100B4000002327E0BB68BB6100237B61FB685B6817
:100B50001B680C331B68FA68526807F114011046D1
:100B60009847034683F00103DBB2002B01D00B4B07
:100B70007B610023FB6108E0FB699B00BA691344B9
:100B80007A691A60FB690133FB61FA697B689A42F2
:100B9000F2D37B6818462037BD4680BD19FCFFFFA5
:100BA00080B483B000AF78607B681B0EDBB2184660
:100BB0000C37BD465DF8047B704780B483B000AF4E
:100BC00078607B681B0CDBB218460C37BD465DF8BD
:100BD000047B704780B483B000AF78607B681B0AE9
:100BE000DBB218460C37BD465DF8047B704780B415
:100BF00083B000AF78607B68DBB218460C37BD4627
:100C00005DF8047B7047000080B58AB004AFF860DF
:100C1000B9607A60F868FFF7C3FF0346FB75F868B0
:100C2000FFF7CBFF0346BB75F868FFF7D3FF03461A
:100C30007B75F868FFF7DBFF03463B753B7D002BB8
:100C40000DD0F87DBB7D7A7D397D029101920093B4
:100C500003460A4A7968B8681AF0FAFE0AE0F97D94
:100C6000BB7D7A7D019200930B46054A7968B8688E
:100C70001AF0EEFE00BF1837BD4680BD58CB01709C
:100C800068CB017080B483B000AF786039607B6856
:100C90003A685A6000BF0C37BD465DF8047B704768
:100CA00080B483B000AF786039607B683A685A617D
:100CB00000BF0C37BD465DF8047B704780B483B03D
:100CC00000AF786039607B683A689A6100BF0C3782
:100CD000BD465DF8047B704780B483B000AF786098
:100CE0007B685B6E18460C37BD465DF8047B704729
:100CF00080B483B000AF78607B68D3F84630184684
:100D00000C37BD465DF8047B704780B483B000AFFC
:100D100078607B681B8918460C37BD465DF8047BFC
:100D20007047000080B483B000AF7860044A7B68ED
:100D30001A607B6818460C37BD465DF8047B704727
:100D40008CEF017080B582B000AF78607868FFF7F3
:100D5000E9FF042178681AF0CAF87B68184608375A
:100D6000BD4680BD80B582B000AF7860054A7B6823
:100D70001A607B681846FFF7D5FF7B68184608376E
:100D8000BD4680BD04F0017080B582B000AF7860D0
:100D90007868FFF7E7FF0C2178681AF0A8F87B68FD
:100DA00018460837BD4680BD80B483B000AF786078
:100DB000044A7B681A607B6818460C37BD465DF8AC
:100DC000047B704768EF017080B582B000AF786037
:100DD0007868FFF7E9FF042178681AF088F87B68E3
:100DE00018460837BD4680BD80B582B000AF786038
:100DF000054A7B681A607B681846FFF7D5FF7B6859
:100E000018460837BD4680BDDCF1017080B582B060
:100E100000AF78607868FFF7E7FF0C2178681AF078
:100E200066F87B6818460837BD4680BD80B582B03D
:100E300000AF7860054A7B681A607B681846FFF748
:100E400071FF7B6818460837BD4680BDB4EF01705E
:100E500080B582B000AF78607868FFF7E7FF602167
:100E600078681AF044F87B6818460837BD4680BD9C
:100E700080B582B000AF7860054A7B681A607B68F5
:100E80001846FFF77DFC7B6818460837BD4680BDD5
:100E9000E8EE017080B582B000AF78607868FFF747
:100EA000E7FF102178681AF022F87B6818460837A7
:100EB000BD4680BD80B582B000AF7860054A7B68D2
:100EC0001A607B681846FFF75BFC7B68184608379A
:100ED000BD4680BDA8EE017080B582B000AF7860DD
:100EE0007868FFF7E7FF102178681AF000F87B6850
:100EF00018460837BD4680BD80B582B000AF786027
:100F0000054A7B681A607B681846FFF739FC7B68E6
:100F100018460837BD4680BD3CEE017080B582B0F2
:100F200000AF78607868FFF7E7FF1021786819F064
:100F3000DEFF7B6818460837BD4680BD80B582B0AD
:100F400000AF7860054A7B681A607B681846FFF737
:100F500017FC7B6818460837BD4680BDFCED017064
:100F600080B582B000AF78607868FFF7E7FF1021A6
:100F7000786819F0BCFF7B6818460837BD4680BD0D
:100F800080B483B000AF7860044A7B681A607B68E5
:100F900018460C37BD465DF8047B70477CEE017047
:100FA00080B582B000AF78607868FFF7E9FF042170
:100FB000786819F09CFF7B6818460837BD4680BDED
:100FC00080B582B000AF7860054A7B681A607B68A4
:100FD0001846FFF7D5FF7B6818460837BD4680BD29
:100FE000C8F0017080B582B000AF78607868FFF714
:100FF000E7FF1021786819F07AFF7B6818460837F8
:10100000BD4680BD80B582B000AF7860054A7B6880
:101010001A607B681846FFF785FE7B68184608371C
:10102000BD4680BDC8EF017080B582B000AF78606A
:101030007868FFF7E7FF2821786819F058FF7B6888
:1010400018460837BD4680BD80B582B000AF7860D5
:10105000054A7B681A607B681846FFF763FE7B6869
:1010600018460837BD4680BDDCEF017080B582B000
:1010700000AF78607868FFF7E7FF6821786819F0BB
:1010800036FF7B6818460837BD4680BD80B582B004
:1010900000AF7860054A7B681A607B681846FFF7E6
:1010A00041FE7B6818460837BD4680BDF0EF0170F1
:1010B00080B582B000AF78607868FFF7E7FF242141
:1010C000786819F014FF7B6818460837BD4680BD64
:1010D00080B582B000AF7860054A7B681A607B6893
:1010E0001846FFF71FFE7B6818460837BD4680BDCF
:1010F000A0EF017080B582B000AF78607868FFF72C
:10110000E7FF9021786819F0F2FE7B6818460837EF
:10111000BD4680BD80B58EB006AF05F01DFB05F065
:10112000ABFB03461846FFF751FA3B1D1822194640
:101130004FF08070FFF768FD3B1D4FF4FA721946BF
:10114000A4481AF059FBA44B1B68BFF35B8F03F054
:101150000103002B0CBF01230023DBB2002B12D0B4
:101160009D4819F0C6FE0346002B14BF012300233F
:10117000DBB2002B07D005F089FB0346974A1360CA
:10118000954819F0C2FE964B1B68BFF35B8F03F0C6
:101190000103002B0CBF01230023DBB2002B1AD06C
:1011A0008F4819F0A6FE0346002B14BF012300232D
:1011B000DBB2002B0FD0894B1B684FF4FA72194633
:1011C000884805F0D3F9884A8849864819F08AFE8C
:1011D000834819F09AFE864B1B68BFF35B8F03F0C0
:1011E0000103002B0CBF01230023DBB2002B1BD01B
:1011F0007F4819F07EFE0346002B14BF0123002315
:10120000DBB2002B10D0012300934FF48073794A96
:101210007449794807F0C0FD734A7849764819F057
:1012200061FE734819F071FE754B1B68BFF35B8F4D
:1012300003F00103002B0CBF01230023DBB2002BC2
:1012400016D06F4819F055FE0346002B14BF01233A
:101250000023DBB2002B0BD000216A4807F0FAFB19
:10126000614A6949674819F03DFE654819F04DFE2D
:10127000664B1B68BFF35B8F03F00103002B0CBFB1
:1012800001230023DBB2002B17D0604819F031FE98
:101290000346002B14BF01230023DBB2002B0CD02C
:1012A000584A5B495B4806F03BFF4F4A5A49594848
:1012B00019F018FE554819F028FE0123FB83574BFF
:1012C00002221A706F230122A821C020FFF7FEF925
:1012D0000346524A53600023FF22FF21FF20FFF7FD
:1012E000F5F903464D4A936001230122A821C0204D
:1012F000FFF7ECF90346494AD360484B42F21072BB
:101300001A61464B464A5A61464B1B68BFF35B8FD6
:1013100003F00103002B0CBF01230023DBB2002BE1
:1013200017D0404819F0E5FD0346002B14BF0123F8
:101330000023DBB2002B0CD0384A36493A4802F081
:1013400073F8294A3949384819F0CCFD354819F065
:10135000DCFD374B1B68BFF35B8F03F00103002BF1
:101360000CBF01230023DBB2002B1BD0304819F047
:10137000C0FD0346002B14BF01230023DBB2002B6A
:1013800010D0042300934FF480632A4A26492A4848
:1013900007F002FD144A1949274819F0A3FD244813
:1013A00019F0B3FD254B1B68BFF35B8F03F00103FE
:1013B000002B0CBF01230023DBB2002B4ED01F48B3
:1013C00019F097FD0346002B14BF01230023DBB265
:1013D000002B35E084CB01706405002460050024F7
:1013E000740500246805002400000024650D0070C9
:1013F00090050024B8CB017078050024E18D0070C1
:10140000A005002494050024E90D0070780600244E
:10141000E8ED0170A40500247D8100700400002423
:1014200074CB0170DC0600247C0600242D0E0070B5
:10143000F8060024C4CB0170E00600240C07002449
:101440000CD001220A21A448FFF7BAF9A34AA44903
:10145000A14819F047FDA34819F057FDA24B1B689E
:10146000BFF35B8F03F00103002B0CBF01230023AC
:10147000DBB2002B12D09C4819F03BFD0346002B39
:1014800014BF01230023DBB2002B07D005F02EFA96
:101490000346964A1360944819F037FD944B1B6835
:1014A000BFF35B8F03F00103002B0CBF012300236C
:1014B000DBB2002B19D08E4819F01BFD0346002B20
:1014C00014BF01230023DBB2002B0ED0874B196819
:1014D000012301228748FFF75DFA804A8649854843
:1014E00019F000FD824819F010FD844B1B68BFF312
:1014F0005B8F03F00103002B0CBF01230023DBB241
:10150000002B19D07D4819F0F4FC0346002B14BFC2
:1015100001230023DBB2002B0ED02D234FF47A726F
:101520007749784800F02AFB6C4A7749754819F0EA
:10153000D9FC724819F0E9FC744B1B68BFF35B8F50
:1015400003F00103002B0CBF01230023DBB2002BAF
:1015500019D06E4819F0CDFC0346002B14BF0123AF
:101560000023DBB2002B0ED00B2341F288326849F6
:10157000684800F02BFB594A6749664819F0B2FCED
:10158000624819F0C2FC654B1B68BFF35B8F03F028
:101590000103002B0CBF01230023DBB2002B19D069
:1015A0005E4819F0A6FC0346002B14BF012300235C
:1015B000DBB2002B0ED00B234CF250325849594865
:1015C00000F004FB454A5449564819F08BFC534837
:1015D00019F09BFC544B1B68BFF35B8F03F00103B6
:1015E000002B0CBF01230023DBB2002B19D04E4887
:1015F00019F07FFC0346002B14BF01230023DBB24C
:10160000002B0ED04FF080624FF0E041474806F0CB
:1016100009F9324A4649454819F064FC424819F034
:1016200074FC424806F01CF9424B1B68BFF35B8F09
:1016300003F00103002B0CBF01230023DBB2002BBE
:1016400012D03C4819F055FC0346002B14BF01236F
:101650000023DBB2002B07D000223449364804F0C7
:101660002BFC344819F051FC344B1B68BFF35B8FE3
:1016700003F00103002B0CBF01230023DBB2002B7E
:101680001CD02E4819F035FC0346002B14BF012353
:101690000023DBB2002B11D0144B1B684FF080727B
:1016A000009201222649274802F0C2F90B4A264936
:1016B000244819F017FC214819F027FC234B1B681C
:1016C000BFF35B8F03F00103002B0CBF012300234A
:1016D000DBB2002B58D03BE0FC06002400000024C5
:1016E000710E00700C07002414070024100700245A
:1016F0002807002418070024B50E00703C070024BA
:10170000535452312C070024F90E00705007002466
:1017100053545236400700243D0F007064070024E4
:1017200052415730540700247807002468070024EA
:10173000C10F0070C087022480070024EC870224B8
:101740007C060024C4870224051000700888022447
:10175000A04819F0CEFB0346002B14BF0123002341
:10176000DBB2002B10D0022300934FF480639A4A1F
:101770009A499B4807F010FB9A4A9B49984819F0F0
:10178000B1FB944819F0C1FB984B1B68BFF35B8F0A
:1017900003F00103002B0CBF01230023DBB2002B5D
:1017A00018D0924819F0A5FB0346002B14BF012363
:1017B0000023DBB2002B0DD08D4B01228D498E48CA
:1017C00002F0D2FB874A8D498B4819F08BFB874882
:1017D00019F09BFB8A49884802F0DEFB894986485C
:1017E00002F0DAFB8849844802F0D6FB8749824838
:1017F00002F0D2FB864B1B68BFF35B8F03F0010343
:10180000002B0CBF01230023DBB2002B1BD0804830
:1018100019F06FFB0346002B14BF01230023DBB23A
:10182000002B10D0032300934FF40063794A7249D0
:10183000794807F0B1FA6B4A6B49774819F052FBC7
:10184000734819F062FB754B1B68BFF35B8F03F0A5
:101850000103002B0CBF01230023DBB2002B20D09F
:101860006E4819F046FB0346002B14BF01230023EA
:10187000DBB2002B15D00023039300230293684BA7
:101880000193012300935C4B544A5A49654803F085
:1018900093F8544A6449634819F024FB5F4819F0EF
:1018A00034FB624B1B68BFF35B8F03F00103002B1B
:1018B0000CBF01230023DBB2002B1BD05B4819F0C7
:1018C00018FB0346002B14BF01230023DBB2002BBF
:1018D00010D0052300934FF40063554A51495548F1
:1018E00007F05AFA3F4A4049524819F0FBFA4F486C
:1018F00019F00BFB504B1B68BFF35B8F03F0010328
:10190000002B0CBF01230023DBB2002B1ED04A4862
:1019100019F0EFFA0346002B14BF01230023DBB2BA
:10192000002B13D0454B1B682C4A04923C4A03926F
:10193000314A0292424A019200932E4B414A0121C0
:10194000414800F0C3FB3C4819F0DFFA3E4800F084
:10195000FFFB3E4B1B68BFF35B8F03F00103002BC3
:101960000CBF01230023DBB2002B11D0374819F044
:10197000C0FA0346002B14BF01230023DBB2002B67
:1019800006D03149324800F099FE304819F0BDFACE
:10199000304B1B68BFF35B8F03F00103002B0CBFC0
:1019A00001230023DBB2002B60D02A4819F0A1FAF2
:1019B0000346002B14BF01230023DBB2002B55D0BC
:1019C00004F05AFF0346224A1946234801F0C4FB9B
:1019D00044E000BF08880224D0CB0170C4870224F1
:1019E000F087022400000024E18D00707488022436
:1019F000FC0600247C0600240C8802244910007098
:101A0000180700242C070024400700245407002452
:101A100090880224E0CB017078880224B8880224E0
:101A200080070024948802248D100070D48802243A
:101A3000F0CB0170BC8802245889022410070024CE
:101A40006805002400040070D888022460890224FC
:101A50005C890224F489022464890224354A3649C7
:101A6000364819F03FFA364819F04FFA354B1B68E3
:101A7000BFF35B8F03F00103002B0CBF0123002396
:101A8000DBB2002B1BD02F4819F033FA0346002B92
:101A900014BF01230023DBB2002B10D002230093DC
:101AA0004FF48063284A2549284807F075F9214AF0
:101AB0002749264819F016FA224819F026FA25492E
:101AC0002548FFF7DFF82348FFF712F903461946C8
:101AD0002248FEF719FE1F48FFF717F9034619467B
:101AE0001E48FEF71FFE1B48FFF7F6F8034619468F
:101AF0001A48FEF726FE17491948FFF7D1F8194989
:101B00001748FFF7DBF8184807F096F9174807F071
:101B100093F9174807F090F9164807F08DF9164821
:101B200007F08AF9094807F087F90DF05BFF00BF5D
:101B3000FDE700BF00000024D1100070648902247A
:101B4000F4890224108A0224FCCB0170F889022453
:101B5000E18D0070D888022480070024C487022405
:101B6000948802245C89022478050024E00600247D
:101B7000F087022478880224BC88022480B584B0CF
:101B800000AFF860B96011461A460B46FB80134659
:101B9000BB80FB681846FEF7E3FD0B4AFB681A6042
:101BA000FB68BA685A60FB68FA881A81FB68BA88D1
:101BB0005A81FB6800229A81FB6800229A73FB68B5
:101BC00018461037BD4680BD3CEE017080B584B02C
:101BD00000AFF860B96011461A460B46FB80134609
:101BE000BB80FB681846FEF7BBFD0B4AFB681A601A
:101BF000FB68BA685A60FB68FA881A81FB68BA8881
:101C00005A81FB6800229A81FB6800229A73FB6864
:101C100018461037BD4680BDFCED017080B483B01E
:101C200000AF78607B685B6818460C37BD465DF88E
:101C3000047B704780B483B000AF7860034B1846D4
:101C40000C37BD465DF8047B704700BF08CC0170BF
:101C500080B483B000AF78607B681B8918460C376E
:101C6000BD465DF8047B704780B483B000AF7860F8
:101C70000B467B807B88002B02D07B687A881A8198
:101C800000BF0C37BD465DF8047B704780B483B05D
:101C900000AF78607B685B8918460C37BD465DF8FD
:101CA000047B704780B483B000AF78600B467B80C4
:101CB0007B88002B02D07B687A885A8100BF0C3762
:101CC000BD465DF8047B704780B483B000AF786098
:101CD000402318460C37BD465DF8047B704780B43E
:101CE00083B000AF7860012318460C37BD465DF81D
:101CF000047B704780B483B000AF786080231846BF
:101D00000C37BD465DF8047B704780B483B000AFEC
:101D100078607B689B7B18460C37BD465DF8047B7A
:101D2000704780B483B000AF78600B46FB707B686F
:101D3000FA789A7300BF0C37BD465DF8047B704794
:101D400080B489B000AFF860B9607A607B68002B1E
:101D500002D0BB68002B01D1002333E0BB687B615C
:101D60000023FB6129E0FB689B8901339AB2FB6881
:101D70009A810023BB611AE0FB689989BB699BB219
:101D80001A46920013441A4690001A46034613441A
:101D90009B009AB2FB699801BB6903445B007869B8
:101DA00003440A4492B21A80BB690133BB61BB6928
:101DB0003F2BE1D9FB690133FB61FA697B689A42E9
:101DC000D1D37B6818462437BD465DF8047B704745
:101DD00080B483B000AF78607B685B6818460C37CE
:101DE000BD465DF8047B704780B483B000AF786077
:101DF000034B18460C37BD465DF8047B704700BFA7
:101E000008CC017080B483B000AF78607B681B8918
:101E100018460C37BD465DF8047B704780B483B02C
:101E200000AF78600B467B807B88002B02D07B68FC
:101E30007A881A8100BF0C37BD465DF8047B704775
:101E400080B483B000AF78607B685B8918460C373C
:101E5000BD465DF8047B704780B483B000AF786006
:101E60000B467B807B88002B02D07B687A885A8166
:101E700000BF0C37BD465DF8047B704780B483B06B
:101E800000AF7860102318460C37BD465DF8047B20
:101E9000704780B483B000AF7860012318460C37D8
:101EA000BD465DF8047B704780B483B000AF7860B6
:101EB000202318460C37BD465DF8047B704780B47C
:101EC00083B000AF78607B689B7B18460C37BD46BB
:101ED0005DF8047B704780B483B000AF78600B4638
:101EE000FB707B68FA789A7300BF0C37BD465DF8CB
:101EF000047B704780B489B000AFF860B9607A6045
:101F00007B68002B02D0BB68002B01D1002333E09B
:101F1000BB687B610023FB6129E0FB689B8901337F
:101F20009AB2FB689A810023BB611AE0FB68998929
:101F3000BB699BB21A46920013441A4690001A4697
:101F4000034613449B009AB2FB691801BB69034422
:101F50005B00786903440A4492B21A80BB6901337A
:101F6000BB61BB690F2BE1D9FB690133FB61FA69E6
:101F70007B689A42D1D37B6818462437BD465DF80A
:101F8000047B704790B482B000AF04460846114607
:101F90001A462346FB710346BB710B467B71134601
:101FA0003B71FB791A06BB791B041A437B791B0230
:101FB0001A433B79134318460837BD4690BC704717
:101FC00080B584B000AF78607B681B680A4A934292
:101FD00001D000230CE01C217868FEF763FBF86059
:101FE0007B68DB69FA689A420CBF01230023DBB2ED
:101FF00018461037BD4680BD544F4F4280B483B061
:1020000000AF786039607B683A689A6000BF0C372F
:10201000BD465DF8047B704780B483B000AF786044
:102020007B689B6818460C37BD465DF8047B70479B
:1020300080B483B000AF78607B6828331B68184693
:102040000C37BD465DF8047B704780B483B000AFA9
:1020500078607B684A3318460C37BD465DF8047BD0
:10206000704780B483B000AF78607B6893F85030DD
:10207000DBB218460C37BD465DF8047B704780B470
:1020800083B000AF78600B46FB707B68FA7883F80A
:10209000242000BF0C37BD465DF8047B704700006C
:1020A00080B400AFBFF34F8F00BF064BDB6803F473
:1020B000E0620449044B1343CB60BFF34F8F00BF72
:1020C00000BFFDE700ED00E00400FA05F0B585B0C3
:1020D00000AFF8607A603B600B467B81FB687A89D1
:1020E0001A80FA687B68901C03F140040246194686
:1020F000D1F800C04E688D68C968C2F800C056604B
:102100009560D16010331030A342EFD1FB684233A9
:1021100020220021184619F00FFE7B681A69FB681F
:102120005A66FB683A689A66FB68BA6ADA66FB68C0
:10213000FA6A1A67FB683A6B5A67FB687A6B9A67A8
:10214000FB68BA6BDA67FB6818461437BD46F0BD0A
:10215000B0B588B000AF78603F4BBB6120237B6196
:102160007B69002B1DDDBB6903F01F027B691344F3
:102170003B61BB69FB60BFF34F8F00BF374AFB6811
:10218000C2F85C32FB682033FB603B69203B3B615B
:102190003B69002BF2DCBFF34F8F00BFBFF36F8FA3
:1021A00000BF00BF2C4BFB61F869FFF709FF034636
:1021B000002B13D07B68FA69423315685468906825
:1021C000D1681D605C609860D96015695469906938
:1021D000D1691D615C619861D96139E07A68002339
:1021E00043F49E4343F05403A2F84230002343F4E7
:1021F000844343F04F03A2F844300023002200211F
:102200000120FFF7BFFE02467B68C3F846207B68CB
:102210000022A3F84A200022A3F84C207B68002269
:10222000A3F84E200022A3F850207B68002242F041
:102230000102A3F852200022A3F854207B68423305
:102240001C211846FEF72EFA02467B68C3F85E2072
:1022500000BF2037BD46B0BD0001072400ED00E0FF
:1022600080B483B000AF786039607B685A6E3B6899
:102270001340002B14BF01230023DBB218460C3798
:10228000BD465DF8047B704780B485B000AFF86050
:10229000B9601346FB71FB79002B06D0FB685A6EC0
:1022A000BB681A43FB685A6606E0FB685A6EBB6857
:1022B000DB431A40FB685A6600BF1437BD465DF821
:1022C000047B704780B582B000AF78600DF0C8FC29
:1022D000034618460837BD4680BD000080B584B06F
:1022E00000AF78607B68DB6E002B15D00023FB60AD
:1022F0007B68DB6E1B680C331B687A68D26E07F153
:102300000C01104698470346002B05D0FB6807EEEA
:10231000903AF8EEE77A01E0DFED037AB0EE670A73
:102320001037BD4680BD00BF0000000080B582B000
:1023300000AF78607B689B6E002B06D07B689B6E3D
:102340001846FFF775FE034600E0002318460837DD
:10235000BD4680BD80B582B000AF786039607B68D3
:102360001B6F002B05D07B681B6F39681846FFF781
:1023700045FE00BF0837BD4680BD80B582B000AFC6
:1023800078607B681B6F002B06D07B681B6F18463C
:10239000FFF742FE034600E0002318460837BD461B
:1023A00080BD80B588B002AFF860B96011461A46AA
:1023B0000B46FB801346BB800221F868FFF750FFF5
:1023C000034683F00103DBB2002B03D1FB685B6F94
:1023D000002B01D1012300E00023002B01D00023BA
:1023E0001AE04FF0FF337B61FB68586F07F114016F
:1023F000BB880193FB880093BB684CF2513201F01B
:10240000A7FEFB68DB6F002B05D0FB68DB6F0221AA
:102410001846FFF734FE012318461837BD4680BD25
:1024200080B582B000AF786039607B685B6F002B4D
:1024300001D1002320E07B685B6F3968184601F00A
:1024400059FF7B685B6F1846FFF70BFE034683F06E
:102450000103DBB2002B05D07B68DB6F002B01D0C2
:10246000012300E00023002B05D07B68DB6F0121F6
:102470001846FFF704FE012318460837BD4680BD05
:1024800080B582B000AF78607B685B6F002B09D0AD
:102490007B685B6F1846FFF7E4FD0346002B01D015
:1024A000012300E0002318460837BD4680BD80B5F3
:1024B00082B000AF78607B689B6F002B04D07B6894
:1024C0009B6F184603F084FF00BF0837BD4680BDF0
:1024D00080B582B000AF786064200DF0E3F8BFF300
:1024E0004F8F00BFFFF7DCFD80B483B000AF034621
:1024F000FB80FB88012B03D0FB88022B02D003E07A
:10250000054B02E0054B00E0054B18460C37BD4675
:102510005DF8047B704700BF34CC017044CC01707F
:1025200054CC017080B483B000AF786039607A68B1
:102530003B681340002B14BF01230023DBB2184675
:102540000C37BD465DF8047B7047000080B582B053
:1025500000AF78607B68002B01D1002348E026495A
:102560007868FDF787FF0346002B01D108233FE081
:1025700022497868FDF77EFF0346002B01D1022334
:1025800036E01F497868FDF775FF0346002B01D13F
:1025900004232DE01B497868FDF76CFF0346002BF0
:1025A00001D1012324E018497868FDF763FF034651
:1025B000002B01D180231BE014497868FDF75AFFF6
:1025C0000346002B02D14FF4807311E01049786864
:1025D000FDF750FF0346002B06D00E497868FDF743
:1025E00049FF0346002B02D14FF4007300E00023A3
:1025F00018460837BD4680BD64CC017068CC0170B8
:1026000074CC017078CC017084CC01708CCC0170DA
:1026100090CC01709CCC017090B482B000AF0446A5
:10262000084611461A462346FB710346BB710B460A
:102630007B7113463B71FA79BB791B021A437B7994
:102640001B041A433B791B06134318460837BD4643
:1026500090BC704780B483B000AF78607B68D3F8DB
:102660000A3018460C37BD465DF8047B704780B5CC
:1026700082B000AF78607B681B891846FFF734FF93
:10268000034618460837BD4680BD80B483B000AF0E
:1026900078607B68D3F8223018460C37BD465DF869
:1026A000047B704780B483B000AF78607B681B8880
:1026B00018460C37BD465DF8047B704780B483B084
:1026C00000AF786039607B683A681A607B681846AA
:1026D0000C37BD465DF8047B7047000080B5B2B092
:1026E00002AFF860B9607A603B607B68002B02D073
:1026F0003B68002B01D100235EE17B6800221A7049
:10270000BB68002B03D0BB681B78002B01D10023D2
:1027100052E107F118037F22B968184619F014FB3B
:10272000002387F8973007F118031846FDF7ACFE31
:102730000346013B07F118021344C7F8BC3008E018
:10274000D7F8BC3000221A70D7F8BC30013BC7F86C
:10275000BC3007F11803D7F8BC209A420ED3D7F843
:10276000BC301B780D2BEBD0D7F8BC301B780A2B74
:10277000E6D0D7F8BC301B78202BE1D007F1180346
:10278000C7F8B83004E0D7F8B8300133C7F8B8302C
:10279000D7F8B8301B78202BF5D0D7F8B8301B7895
:1027A000092BF0D0D7F8B8301B78002B01D10023CB
:1027B00002E100237B6107F114031A468049D7F830
:1027C000B80019F0FCFAC7F8B400D7F8B430002B01
:1027D00001D10023F0E07B49D7F8B400FDF74AFEB1
:1027E0000346002B07D07849D7F8B400FDF742FE26
:1027F0000346002B05D13A687968F86800F02EF995
:10280000D6E07249D7F8B400FDF734FE0346002B3A
:1028100007D06F49D7F8B400FDF72CFE0346002B14
:1028200005D13A687968F86800F02AF9C0E069498A
:10283000D7F8B400FDF71EFE0346002B05D13A6819
:102840007968F86800F080F9B2E06349D7F8B4001D
:10285000FDF710FE0346002B05D13A687968F86849
:1028600000F008FAA4E05D49D7F8B400FDF702FED5
:102870000346002B1CD107F114031A4650490020CF
:1028800019F09DFAC7F89C0007F114031A464C4949
:10289000002019F094FAC7F898003B6800937B6811
:1028A000D7F89820D7F89C10F86800F009FA7FE074
:1028B0004B49D7F8B400FDF7DDFD0346002B28D1C6
:1028C00007F114031A463E49002019F078FAC7F8B8
:1028D000A80007F114031A463949002019F06FFACD
:1028E000C7F8A40007F114031A463549002019F06F
:1028F00066FAC7F8A0003B6801937B680093D7F89D
:10290000A030D7F8A420D7F8A810F86800F0BAFAD9
:102910004EE03449D7F8B400FDF7ACFD0346002B78
:1029200010D107F114031A462549002019F047FA7F
:10293000C7F8AC003B687A68D7F8AC10F86800F0CC
:1029400055FB35E02849D7F8B400FDF793FD034661
:10295000002B10D107F114031A461949002019F071
:102960002EFAC7F8B0003B687A68D7F8B010F8685C
:1029700000F08CFB1CE01D49D7F8B400FDF77AFD90
:102980000346002B07D01A49D7F8B400FDF772FDB3
:102990000346002B05D13A687968F86800F0B6FB69
:1029A00006E0D7F8B430134A3968786819F050F85F
:1029B0007868FDF769FD03461846C037BD4680BDFF
:1029C000A4CC0170A8CC0170B0CC0170B4CC017063
:1029D000BCCC0170C4CC01709CCC0170CCCC01701B
:1029E000D4CC017064CC0170DCCC0170E0CC0170FF
:1029F000E8CC0170F0CC017080B5ADF5047D00AF7E
:102A000007F50473A3F50373186007F50473A3F5C2
:102A10000473196007F10C0207F50473A3F5047140
:102A200007F50473A3F503704FF400730968006899
:102A3000FFF754FEC7F80C02D7F80C32002B05DD67
:102A400007F10C031946044818F0D6FE00BF07F53D
:102A50000477BD4680BD00BF24CD017080B584B031
:102A600000AFF860B9607A60044A7968B86818F015
:102A7000EFFF00BF1037BD4680BD00BF28CD0170FD
:102A80002DE9F0419AB008AF78613961FA607B694D
:102A90001B681846FFF7DEFD07F1300318221946C0
:102AA000FEF7B2F87B691B681846FEF721F907F1BB
:102AB000180318221946FEF7A7F87B691B68184609
:102AC000FFF7D5FD80467B691B681846FEF71DF9A8
:102AD0000346BB607B691B681846FFF7E3FD0346AE
:102AE0007B607B691B681846FFF7B4FD04467B6971
:102AF0001B681846FEF7FCF805467B691B681846FC
:102B0000FFF7C3FD06467B691B681846FEF7E4F82D
:102B1000034607930696059507F11803049303945B
:102B200007F1300302937A680192BB680093434631
:102B3000044AF968386918F08BFF00BF4837BD4672
:102B4000BDE8F0814CD001702DE9F04194B00AAF9E
:102B5000F860B9607A60FB681B681846FFF7E6FB0F
:102B60003862FB681B681846FFF7ACFB03463B4A1C
:102B7000A2FB03239B09FB61FB681B681846FFF758
:102B8000ADFB87ED060AD7ED067AFDEEE77A17EE84
:102B9000903A7B617B6907EE903AF8EEE77A97ED21
:102BA000067A77EE677AB2EE047A67EE877AFDEE00
:102BB000E77A17EE903A7B627B6A002B02DA7B6A37
:102BC0005B427B62FB681B6808211846FFF748FBE5
:102BD0000346FB74FB681B681846FFF751FC03466D
:102BE000BB743B6A5FFA83F83B6A1B0ADCB23B6A40
:102BF0001B0CDDB23B6A1E0EFB681B681846FFF714
:102C000061FB3860FB681B681846FFF7B6FB01469E
:102C1000BB7C002B01D0124B00E0124BFA7C002A47
:102C200001D0114A00E0114A0992089307917B6A8A
:102C300006937B6905933B680493FB6903930296B3
:102C40000195009443460A4A7968B86818F000FF75
:102C500000BF2837BD46BDE8F08100BFD34D6210EC
:102C600034D1017048D1017050D1017064D101702C
:102C700078D1017080B588B002AFF860B9607A6031
:102C8000FB681B681846FFF71DFB78617B690A4AE1
:102C9000A2FB03239B093B610CF0E2FF0346019377
:102CA0007B6900933B69054A7968B86818F0D0FEE3
:102CB00000BF1837BD4680BDD34D62103CD20170B5
:102CC000F0B595B00CAF78613961FA60BB603B69D3
:102CD000002B06D060493869FDF7CCFB0346002B7A
:102CE00062D17B691B681846FDF7F6FFB8610821C1
:102CF000B869FFF717FC0346002B01D0574C00E0E2
:102D0000574C0221B869FFF70DFC0346002B01D098
:102D1000524D00E0524D0421B869FFF703FC034611
:102D2000002B01D04D4E00E04D4E0121B869FFF758
:102D3000F9FB0346002B02D0484B7B6001E0484B77
:102D40007B608021B869FFF7EDFB0346002B02D0C2
:102D5000424B3B6001E0424B3B604FF48071B869ED
:102D6000FFF7E0FB0346002B01D03C4B00E03C4B5F
:102D70000B934FF480730A933B6809938023089365
:102D80007B68079301230693059604230493039518
:102D900002230293019408230093BB69314AB96B63
:102DA000B86818F055FE54E0FB68002B05D12E4A98
:102DB000B96BB86818F04CFE4BE0F868FFF7C6FB3B
:102DC000F861FB69002B06D1FB68284AB96BB8682B
:102DD00018F03EFE3DE026493869FDF74BFB0346FF
:102DE000002B14D17B691B680122F9691846FFF793
:102DF0004BFA7B691B681846FDF76EFF034600938C
:102E0000FB681C4AB96BB86818F022FE21E01A4929
:102E10003869FDF72FFB0346002B14D17B691B6833
:102E20000022F9691846FFF72FFA7B691B681846DC
:102E3000FDF752FF03460093FB68104AB96BB86870
:102E400018F006FE05E03B690D4AB96BB86818F04A
:102E5000FFFD2437BD46F0BDA4D20170ACD2017095
:102E6000B4D20170C0D20170A4D30170E0D301705C
:102E700034D401703CD4017070D4017078D40170E6
:102E8000ACD4017080B58AB002AFF860B9607A60E6
:102E90003B60BB68002B06D04A49B868FDF7EAFAE8
:102EA0000346002B10D1FB681B681846FFF7E8FAB1
:102EB0000346002B01D0444B00E0444B444AF96ADE
:102EC000B86A18F0C5FD79E04249B868FDF7D2FA52
:102ED0000346002B41D10023FB6100237B837B68E9
:102EE000002B19D07868FDF7CFFA0346042B0ED1DA
:102EF0007B6818787B68013319787B6802331A780D
:102F00007B6803331B78FFF787FBF86104E0786880
:102F100018F05EF903467B833B68002B04D03868C9
:102F200018F056F903467B83FB6818687A8B0023F8
:102F3000F969FFF736FA0346002B08D07B8B009324
:102F4000FB69254AF96AB86A18F082FD36E0234A1F
:102F5000F96AB86A18F07CFD30E02149B868FDF7DD
:102F600089FA0346002B24D100237B617B68002B68
:102F700013D07868FDF788FA0346042B0DD17B68DF
:102F800018787B68013319787B6802331A787B687C
:102F900003331B78FFF740FB7861FB681B68796996
:102FA0001846FFF73DFA0F4AF96AB86A18F050FD63
:102FB00004E00D4AF96AB86A18F04AFD2037BD46A8
:102FC00080BD00BFC4CC0170ECD40170F4D401709A
:102FD000FCD4017010D5017018D5017054D5017062
:102FE000A0D50170A8D50170CCD5017080B586B090
:102FF00000AFF860B9607A603B60BB68002B06D018
:103000001B49B868FDF736FA0346002B14D1FB685C
:103010001B6808211846FFF723F90346FB75FB7D63
:10302000002B01D0134B00E0134B144A3968786829
:1030300018F00EFD00BF16E01149B868FDF71AFA46
:103040000346002B0AD1FB681B681846FFF72FFACE
:103050000C4A3968786818F0FBFC04E00A4A3968C1
:10306000786818F0F5FC00BF1837BD4680BD00BF7A
:10307000C4CC017008D6017018D601702CD601702E
:1030800048D6017050D6017074D6017080B586B0F4
:1030900000AFF860B9607A603B60BB68002B0BD171
:1030A000FB681B681846FFF768F90346144A39683D
:1030B000786818F0CDFC1FE0B86818F089F87861DE
:1030C0007B69092B04DD7B6942F21072934206DDB5
:1030D0007B690C4A3968786818F0BAFC0CE0FB6828
:1030E0001B687A6911461846FFF734F97B69064A6E
:1030F0003968786818F0ACFC1837BD4680BD00BF51
:103100009CD60170C0D6017000D7017080B584B024
:1031100000AFF860B9607A60064A7968B86818F05C
:1031200097FCFB681B681846FFF7D2F900BF103701
:10313000BD4680BD24D7017080B483B000AF7860F5
:10314000044A7B681A607B6818460C37BD465DF8F8
:10315000047B70478CEF017080B584B000AFF860DD
:10316000B9607A60FB681846FFF7E6FF0C4AFB6817
:103170001A60FB68BA685A60FB687A689A60FB68F4
:103180000022C3F88C20FB680C33802200211846F3
:1031900018F0D2FDFB6818461037BD4680BD00BF51
:1031A000A0EF017080B582B000AF7860064818F0DB
:1031B00023FB064B1B689B68184618F047FA00BFB4
:1031C0000837BD4680BD00BF4CD7017040000024C9
:1031D00080B584B000AF78604FF4FA700CF062FAFA
:1031E0004B4818F079FB4B4818F076FB4A4818F02A
:1031F00073FB4A4818F070FB7868FFF7D3FF002391
:10320000FB737B685B681B6810331B687A685068C7
:1032100007F10F01322298470346002BF1D0FB7BC8
:103220000D2B02D0FB7B0A2B25D13D4818F054FB17
:103230007B68D3F88C307A68134400221A737B6859
:10324000D3F88C30002B12D07B689A687B680C33E3
:1032500019461046FFF7D0FB7B680022C3F88C208C
:103260007B680C3380220021184618F065FD7868D1
:10327000FFF798FF4AE0FB7B082B02D0FB7B7F2BFC
:103280001CD17B68D3F88C30002B3FD07B68D3F8FF
:103290008C305A1E7B68C3F88C207B68D3F88C3046
:1032A0007A68134400221A731E4818F0A5FA1E4BC0
:1032B0001B689B68184618F0C9F927E0FB7B1F2B99
:1032C0009FD9FB7B7E2B9CD87B68D3F88C307E2BE0
:1032D00097D8F87B7B68D3F88C30591C7A68C2F891
:1032E0008C107A68134402461A737B68D3F88C30CA
:1032F0007A68134400221A73FB7B184618F08EFA82
:10330000094B1B689B68184618F0A0F979E700BFC5
:103310005CD7017088D70170B0D70170E0D7017019
:103320000CD8017010D801704000002480B483B024
:1033300000AF78607B68243318460C37BD465DF8D3
:10334000047B704780B483B000AF78607B6808333B
:1033500018460C37BD465DF8047B704780B584B0D5
:1033600000AF78607B68FB60F86800F055F900BF3B
:103370001037BD4680BD80B584B000AF78607B68F3
:10338000FB60F868FFF7D2FF0346184613F028F9F0
:10339000F868FFF7D7FF03461B78002B14BF012303
:1033A0000023DBB2002B06D0F868FFF7BFFF03460F
:1033B000184614F0EFF900BF1037BD4680BD80B548
:1033C00084B000AF78607B68FB60F868FFF7AEFF01
:1033D0000346184613F0E8F8F868FFF7B3FF034612
:1033E0001B78002B0CBF01230023DBB2002B03D082
:1033F000F86800F011F906E0F868FFF797FF034658
:10340000184614F075F800BF1037BD4680BD80B572
:1034100084B000AF78607B68FB60F86800F09EF8CD
:1034200000BF1037BD4680BDB0B584B000AFF860B6
:10343000B9607A60FB681846FFF77EFE104AFB68A9
:103440001A60FB68BA685A60FB687A6803F108047E
:1034500015460FCD0FC495E8030084E80300FB6810
:10346000002283F82020FB68BA689A657B685A6955
:10347000FB68DA65FB6818461037BD46B0BD00BF73
:10348000B4EF017080B582B000AF78602C4818F0BE
:1034900023FA7B685B681B6808331B687A6852688C
:1034A00010469847034683F00103DBB2002B06D099
:1034B000244818F011FA00200CF080F83CE07B68FA
:1034C0005B681B6824331B687A685268104698470B
:1034D000034619461C4818F08FF91C4818F0FCF9EF
:1034E00002E01B4818F0F8F97B685B681B680C3336
:1034F0001B687A6852684FF47A7110469847034601
:1035000083F00103DBB2002BEBD1124818F0E4F991
:103510007968114816F086FD02E00A200CF0C2F826
:103520007B6893F82030DBB283F00103DBB2002B21
:10353000F3D1786800F0CEF80837BD4680BD00BFF3
:1035400014D8017030D8017068D8017090D801701B
:10355000C0D80170E8D801700F340070B0B58AB0DF
:1035600004AF78607B681B7A002B09D17B68DB682D
:103570007B617B681B693B617B685B69FB6005E085
:1035800000237B6100233B610023FB607B6803F128
:1035900058027B681A647B6803F124007B68583307
:1035A00007F10C0407F1100207F11401174D029501
:1035B000174D01950093234612F054FF7B68243386
:1035C000184612F0D9FF7B682433184612F0ECFF3E
:1035D0007B682433184612F0D5FF7B681B7A002BDA
:1035E00003D1786800F018F807E00A4818F074F979
:1035F0007B682433184613F07BFF7B68012283F835
:10360000202000BF1837BD46B0BD00BF419F0170EC
:1036100095A2017004D9017080B588B002AF7860BE
:103620007B68DB687B617B681B693B617B685B69EE
:10363000FB607B6803F1240007F10C0307F1100223
:1036400007F1140112F0E2FE7B68DB68D9B27B68F7
:10365000DB681B0ADAB27B68DB681B0CD8B27B68BC
:10366000DB681B0E00930346034818F0C5F800BF43
:103670001837BD4680BD00BF28D9017080B584B021
:1036800000AF786039600023FB6019E07B68243369
:10369000184616F049FE7B682433184613F0B8FE2E
:1036A0000346002B14BF01230023DBB2002B01D003
:1036B00001230AE00A200BF0F5FFFB680A33FB60E8
:1036C000FA683B689A42E1D3002318461037BD469A
:1036D00080BD000080B588B000AF78607B681B7A41
:1036E000022B37D17B689B691946644818F084F82F
:1036F0007B689B6919467868FFF7C0FF034683F033
:103700000103DBB2002B12D05D4818F0E5F87968B0
:103710005C4816F023FC78617B69002B03D0796943
:10372000594818F069F864200BF0BCFF12E07B6880
:103730002833184614F000FE03461946534818F083
:103740005BF87B6803F124027B6828331946104636
:1037500014F00EFA0023FB770123BB770CF080FAFC
:10376000B8617B682433184616F0DEFD0CF078FA59
:1037700038613A69BB69D31AB3F5FA7F7AD33B69EA
:10378000BB617B681B7A012B1ED1FB7F83F0010399
:10379000DBB2002B18D07B682433184613F038FEB8
:1037A0000346002B14BF01230023DBB2002B0BD0F8
:1037B0007B682833184614F0BFFD0346194633488A
:1037C00018F01AF80123FB777B685B681B681033DD
:1037D0001B687A685268104698470346FB73BB7FA4
:1037E000002B10D0FB7B83F00103DBB2002B0AD04F
:1037F000274818F071F87968264816F0AFFB0023C7
:10380000FB770023BB77BB7F83F00103DBB2002B88
:1038100030D0FB7B002B2DD01F4818F05DF8796865
:103820001E4816F09BFB7B681B7A022B20D17B681D
:103830009B6919467868FFF721FF034683F001036F
:10384000DBB2002B0AD00E4818F046F879680D4814
:1038500016F084FB64200BF025FF09E07B68283319
:10386000184614F069FD03461946084817F0C4FFCE
:103870000123BB7701200BF015FF72E754D90170CB
:103880008CD901705D330070CCD901700CDA0170F5
:1038900030DA01707733007050DA0170BF33007096
:1038A00080B483B000AF78607B6893F82030DBB2DF
:1038B000002B06D07B6828331B68002B01D0012326
:1038C00000E0002318460C37BD465DF8047B7047C6
:1038D00080B489B000AFF860B9601346FB80FB6824
:1038E0003B61FB88FB830023BB6128E03A69BB692D
:1038F00013441B781BB21B021AB2B7F91E30534097
:103900001BB2FB8300237B6113E0B7F91E30002B51
:1039100009DAB7F91E305B001AB241F221035340B5
:103920001BB2FB8302E0FB8B5B00FB837B690133F3
:103930007B617B69072BE8DDBB690133BB61BA6939
:10394000BB689A42D2D3FB8B18462437BD465DF83C
:10395000047B704780B584B000AFF8607B600B4695
:103960007B8113463B81FB68002242F045021A70BE
:10397000002242F050025A70FB6801229A70FB68E4
:103980003A7FDA70FB687A899A80FB683A89DA8034
:10399000FB687A689A60FB683A8B9A8197F82030C6
:1039A000002B11D07B6A002B0ED03B8B002B0BD051
:1039B0003B8B4FF6FF721946786AFFF789FF034683
:1039C0001A46FB68DA8105E0FB6800229A73002240
:1039D000DA7300BF00BF1037BD4680BD80B483B02E
:1039E00000AF786039603B680F2B01D8052318E0E1
:1039F0007B681B889BB245F24502934201D00123AC
:103A00000FE07B689B78012B01D0022309E07B68E3
:103A10009B899BB210333A689A4201D2052300E099
:103A2000002318460C37BD465DF8047B7047000044
:103A300080B584B000AFF860B9603B601346FB808E
:103A4000FB681846FFF778FB184AFB681A60FB68AA
:103A5000BA685A60FB68FA881A81FB683A68DA60CB
:103A6000FB68BA691A61FB684FF080725A61FB68A3
:103A700001221A83FB680022DA61FB6800221A62C5
:103A8000FB68012283F82420FB68DB68002B08D048
:103A9000FB68DB681B6808331B68FA68D26810464D
:103AA0009847FB6818461037BD4680BDC8EF0170C7
:103AB00080B588B000AF78603E4817F00DFF02E097
:103AC00064200BF0EFFD7B685B681846FFF7E8FEAB
:103AD000034683F00103DBB2002BF1D14CF25031ED
:103AE000354817F089FE00220021202014F012FE34
:103AF000B861BB69002B06D1304817F0EDFE0020FD
:103B00000BF05CFD52E04CF250322D49B86914F0D4
:103B100097FE78617B69002B0AD07969294817F0F4
:103B20006BFEB86914F05AFE00200BF047FD3DE033
:103B3000BB69FA221A620CF093F8F8617B685B6843
:103B40001846FFF7ADFE034683F00103DBB2002BFE
:103B500003D0C8200BF0A6FDF0E70CF081F8386127
:103B60003A69FB69D31AB3F57A7F05D3B9697868E6
:103B700000F02AF83B69FB610023FB6007F10C03AE
:103B80001946B86915F068F878617B69002BD5D1C2
:103B9000FB68002BD2D0FB681A46B969786800F040
:103BA0009BF8FB68184616F0DBF8C7E72037BD46E0
:103BB00080BD00BF74DA0170ACDA0170E8DA017020
:103BC000BC1E027024DB017080B594B004AF786035
:103BD000396007F11003BB6307F1100310337B63F7
:103BE0000CF03EF802467B6B1A607B681A697B6BAF
:103BF0005A607B6893F824207B6B1A727B6893F879
:103C00002430022B01D1012200E000227B6B5A728A
:103C10007B6B002262F01B029A72002242F00C02BF
:103C2000DA72FA23FB877B68DB68002B17D000234E
:103C3000BB607B68DB681B680C331B687A68D268E2
:103C400007F10801104698470346002B07D0BB68D0
:103C50009BB21A46920013445B009BB2FB877B6BBE
:103C6000FA8F9A817B68DB699AB27B6BDA817B6819
:103C700019897B681B6A5A1C7B681A627B681B6AFD
:103C8000002203920022029200220192102200924E
:103C90000122B86BFFF75EFE16F056F838633B6BF7
:103CA000002B15D007F1100320221946386B16F0AF
:103CB00069F84FF0FF33FB6007F10C024CF2503310
:103CC000396B386814F008FE386B16F049F800E0DC
:103CD00000BF4037BD4680BD80B5A2B004AFF860DC
:103CE000B9607A6000237B650023A7F8523007F1A2
:103CF000520207F154031946786816F065F8B7F8D0
:103D000052300F2B40F2D8807B6D7B67B7F8523072
:103D10001946786FFFF762FE0346002B14BF01239C
:103D20000023DBB2002B40F0C9807B6FDB889BB2A5
:103D3000022B40F0C8807B6F9B899BB2072B40F21F
:103D4000BF807B6D10333B673B6F9B889BB2002B22
:103D500007D03B6F9B889AB2FB681B899A4240F060
:103D6000B18007F11003FB6607F110031033BB6647
:103D70003B6F1A68BB6E1A60FB681A89BB6E9A802B
:103D8000FB6893F824301A46BB6EDA80FB685B68E8
:103D90001846FEF74DF90246BB6E9A60FB685B68F9
:103DA0001846FEF752F978667B6E002B07D0BB6E83
:103DB0000C330622796E184618F087F806E0BB6EC1
:103DC0000C3306220021184617F0B6FFFB681A8B49
:103DD000BB6E5A82FB681A69BB6E5A610BF040FFDA
:103DE0000246BB6E9A61BB6E00221A7700225A7798
:103DF00000229A770022DA77BB6E002283F8202017
:103E0000002283F82120002283F82220002283F858
:103E10002320BB6E002283F82420002283F8252073
:103E2000002283F82620002283F82720FB685A69A5
:103E3000BB6E9A62FB68DA69BB6EDA62FB6819894D
:103E4000FB681B6A5A1CFB681A62FB681B6A00222B
:103E50000392002202920222019230220092032257
:103E6000F86EFFF777FD15F06FFF38663B6E002B9D
:103E700029D007F1100340221946386E15F082FF51
:103E80007B680833FB657B689B89A7F85A30B7F8D5
:103E90005A30FA6D396EB86814F01EFD386E15F0A0
:103EA0005FFFF86D14F048FA0146B7F85A301A4629
:103EB000064817F0A1FC06E000BF04E000BF02E0E6
:103EC00000BF00E000BF7837BD4680BD58DB017001
:103ED00080B586B000AFF860B9601346FB80FB6820
:103EE0001846FFF729F91F4AFB681A60FB68BA6891
:103EF0005A60FB68FA881A81FB680022DA64FB6862
:103F0000002283F85020FB684CF25132A3F858206D
:103F1000FB680022DA65FB6800221A66FB68002253
:103F20005A66FB684FF0FF325A6500237B6110E050
:103F3000FA687B690133DB00134400225A60FA6897
:103F40007B690133DB00134400229A607B690133F3
:103F50007B617B69072BEBD9FB6818461837BD4698
:103F600080BD00BFDCEF017080B584B000AFF860A9
:103F7000B9603B601346FB80FB881A46B968F86855
:103F8000FFF7A6FF3968F86800F006F8FB681846E6
:103F90001037BD4680BD0000B0B588B002AF786074
:103FA00039607B68DB6C072B05D90821474817F07F
:103FB00023FC002386E000237B612DE07A687B6987
:103FC0000133DB0013445B683A689A421AD07A687E
:103FD0007B690133DB0013445B681B6808331A6894
:103FE00079687B690133DB000B445B6818469047B6
:103FF00004463B681B6808331B68386898470346CB
:104000009C4201D1012300E00023002B01D00023BA
:1040100058E07B6901337B617B68DB6C7A699A428B
:10402000CCD37B68DB6C7A680133DB0013443A68DD
:104030005A607B68DC6C0BF013FE01467A68631CE7
:10404000DB00134499607B68DB6C5A1C7B68DA6484
:1040500007F1080300221A601A713B681B680833D5
:104060001B683868984738613B69DBB23B723B6933
:104070001B0ADBB27B723B691B0CDBB2BB723B6978
:104080001B0EDBB2FB723B681B680C331B68386885
:10409000984704463B681B6810331B68386898478C
:1040A00003461D463B681B6818331B6838689847F1
:1040B000034607F1080200932B462146044817F0F7
:1040C0009BFB012318461837BD46B0BD88DB017045
:1040D000CCDB017080B584B000AF7860396000231C
:1040E000FB602BE07A68FB680133DB0013445B68FC
:1040F000002B16D07A68FB680133DB0013445B6841
:104100001B6808331A687968FB680133DB000B44CD
:104110005B681846904702463B68934201D10123F1
:1041200000E00023002B06D07A68FB680133DB0037
:1041300013445B6808E0FB680133FB607B68DB6C61
:10414000FA689A42CED3002318461037BD4680BD88
:104150002DE9F04188B002AFF860B9603B601346CA
:10416000FB80FB68BA6812685A65FB68FA88A3F896
:1041700058203B68002B51D03968F868FFF7AAFF38
:1041800038613B69002B00F0A8803B691B68303325
:104190001B680121386998473B8E002B07D03B698B
:1041A0001B6814331B683A8E114638699847BB8EDA
:1041B000002B0AD03B8E642B07D93B691B681C334C
:1041C0001B68BA8E1146386998473B691B680C33E7
:1041D0001B68386998470446FB685433184614F046
:1041E000ABF80546FB68B3F8583098463B691B6846
:1041F00010331B683869984703461E463B691B68A5
:1042000018331B6838699847034601930096434664
:104210002A462146354817F0EFFA5EE000237B611D
:1042200049E0FA687B690133DB0013445B68002BCB
:104230003ED0FA687B690133DB0013445B681B687E
:1042400030331A68F9687B690133DB000B445B6823
:104250000121184690473B8E002B11D0FA687B69EC
:104260000133DB0013445B681B6814331A68F96878
:104270007B690133DB000B445B68398E184690473D
:10428000BB8E002B14D03B8E642B11D9FA687B694E
:104290000133DB0013445B681B681C331A68F96840
:1042A0007B690133DB000B445B68B98E184690478D
:1042B0007B6901337B61FB68DB6C7A699A42B0D31E
:1042C000FB685433184614F037F80146FB68B3F81E
:1042D00058301A46064817F08FFAFB68012283F817
:1042E000502000BF1837BD46BDE8F08120DC0170CA
:1042F00070DC017080B586B000AF786039603B68D3
:10430000002B4FD039687868FFF7E4FEB860BB68CF
:10431000002B11D0BB681B6830331B680021B868C4
:104320009847BB681B680C331B68B86898470346FE
:104330001946374817F060FA0023FB7500233B61EC
:1043400026E07A683B690133DB0013445B68002B8D
:1043500015D07A683B690133DB0013445B681B6846
:104360002C331A6879683B690133DB000B445B68C6
:10437000184690470346002B01D0012300E000239C
:10438000002B02D00123FB7507E03B6901333B6141
:104390007B68DB6C3A699A42D3D37B68FA7D83F8F9
:1043A000502030E00023FB601CE07A68FB6801339A
:1043B000DB0013445B68002B11D07A68FB68013383
:1043C000DB0013445B681B6830331A687968FB684C
:1043D0000133DB000B445B68002118469047FB6803
:1043E0000133FB607B68DB6CFA689A42DDD37B6843
:1043F000002283F850207B68196E7B685B6E1A463A
:10440000044817F0F9F900BF1837BD4680BD00BF5A
:10441000A8DC0170D8DC01702DE9B04F8CB000AF82
:104420007860994817F058FA02E064200BF03AF9E6
:104430007B685B681846FFF733FA034683F0010395
:10444000DBB2002BF1D17B68B3F8583019468F48A6
:1044500017F0D2F90023FB620FE000220021202098
:1044600014F058F9F862FB6A002B06D1884817F05F
:1044700033FA4FF4FA700BF015F9FB6A002BECD00D
:104480004CF251328349F86A14F0DAF90BF0E8FB88
:1044900038610023BB6209E07A68BB6A0133DB0044
:1044A00013443A699A60BB6A0133BB627B68DB6C78
:1044B000BA6A9A42F0D37B6893F85030DBB283F04B
:1044C0000103DBB2002B0ED17B685B681846FFF757
:1044D000E7F9034683F00103DBB2002B03D17B68CD
:1044E000DB6C002B01D1012300E00023002B18D04E
:1044F00032200BF0D7F80BF0B3FB386100237B625E
:1045000009E07A687B6A0133DB0013443A699A60F8
:104510007B6A01337B627B68DB6C7A6A9A42F0D3F8
:10452000B0E00BF09DFB386100233B62A1E03B6AE9
:104530000133DB007A6813440433FB60FB681B68BB
:10454000002B0ED0FB681B681B682C331B68FA68B5
:10455000126810469847034683F00103DBB2002B34
:1045600001D0012300E00023002B7ED1FB681B68F3
:104570001B6810331B68FA68126810469847034698
:10458000FB83FB681B681B6818331B68FA6812689A
:10459000104698470346BB83FB8B002B01D10123B8
:1045A000FB83BB8B002B01D10123BB83BB8B4FF45F
:1045B0007A7203FB02F2FB8BB2FBF3F3BB61BB69C4
:1045C000002B01D10123BB61BB69002298469146B3
:1045D00042464B464FF000004FF00001590141EABE
:1045E000D261500102460B46B2EB080463EB0905A9
:1045F0004FF000024FF00003AB0043EA9473A200B7
:1046000014461D4614EB080A45EB090B4FF0000257
:104610004FF000034FEACB0343EA5A734FEACA0252
:1046200092469B46504659464FF47A724FF000032B
:10463000FBF706FF02460B4613467B617B69002BA6
:1046400001D101237B61FB685B683A69D31A7A69FF
:104650009A420BD8FB681B681A46F96A786800F022
:104660001BF8FB683A695A6000E000BF3B6A0133FF
:104670003B627B68DB6C3A6A9A42FFF458AF0120D8
:104680000BF010F817E700BF24DD01705CDD01704E
:10469000ACDD0170BC1E02702DE9B04F96B004AFC6
:1046A000F860B9607A604FF4B8633B647B681B685C
:1046B00010331B68786898470346FB877B681B6844
:1046C00020331B68786898470346BB877B681B6864
:1046D00024331B687868984703467B877B681B6890
:1046E00028331B687868984778637B6B002B00F051
:1046F000C9807B681B6818331B6878689847034635
:104700007B867B8E642B04D87B8E002B01D07B8E26
:1047100000E00123A7F8463040F29C527B6BB2FBCD
:10472000F3F3FB62B7F84630FA6A9A4202D2FB6AA8
:10473000A7F84630574BBB62574B7B62574B3B62E7
:104740007B681B6834331B68B7F84620396A786881
:104750009847F861FB69002B00F09680FB699AB2DC
:104760007B6B9BB212FB03F37B837B8B14333B830A
:104770000BF076FA034600229846914642464B4695
:104780004FF000004FF00001590141EAD2615001A1
:1047900002460B46B2EB080463EB09054FF000023A
:1047A0004FF00003AB0043EA9473A20014461D4689
:1047B00014EB080A45EB090B4FF000024FF0000321
:1047C0004FEACB0343EA5A734FEACA0292469B462A
:1047D00052465B46796A0A604B607B681B68083307
:1047E0001B687868984702467B6A9A607B6AFA8FF2
:1047F0009A81FB699AB27B6ADA817B6ABA8F1A82E4
:104800007B6A7A8F5A82FB681989FB68DB6D5A1CB8
:10481000FB68DA65FB68DA6D0023039300230293DB
:10482000082301933B8B009313464FF40072B86A40
:10483000FFF790F815F088FA78617B69002B24D097
:104840003B8B10337B827B8A1A461249786915F0BC
:1048500099FAFB6803F15402FB68B3F858307969A0
:10486000B86814F039F8786915F07AFAFB681B6EAD
:104870005A1CFB681A66FB685A6EFB691A44FB688F
:104880005A6602E000BF00E000BF4837BD46BDE801
:10489000B08F00BF148A0224248A0224388A02249A
:1048A00080B483B000AF78607B6893F824301846FA
:1048B0000C37BD465DF8047B704780B483B000AF11
:1048C00078607B681B6918460C37BD465DF8047B31
:1048D000704780B483B000AF78607B685B6918462E
:1048E0000C37BD465DF8047B704780B483B000AFE1
:1048F00078607B681B8B18460C37BD465DF8047BDF
:10490000704780B483B000AF78607B68DB6918467D
:104910000C37BD465DF8047B704780B483B000AFB0
:1049200078607B68DB6C18460C37BD465DF8047B0D
:10493000704780B483B000AF786039607B68DB6C0F
:104940003A689A4206D27A683B680133DB00134426
:104950005B6800E0002318460C37BD465DF8047B19
:10496000704780B483B000AF78607B6893F82130E3
:1049700018460C37BD465DF8047B704780B400AF25
:10498000BFF34F8F00BF064BDB6803F4E0620449BE
:10499000044B1343CB60BFF34F8F00BF00BFFDE755
:1049A00000ED00E00400FA0580B500AFBFF34F8FC3
:1049B00000BFFFF7E3FF000080B584B000AFF860F0
:1049C000B9607A603B60FB681846FEF7B5FB104A99
:1049D000FB681A60FB68BA685A60FB687A689A607C
:1049E000FB683A68DA60FB68FA691A61FB683A6A40
:1049F0005A61FB687A6A9A61FB683A8B9A83FB6812
:104A000000221A62FB6818461037BD4680BD00BF01
:104A1000F0EF017080B58AB000AF7860694816F099
:104A20005BFF02E064200AF03DFE7B685B6818468D
:104A3000FEF736FF034683F00103DBB2002BF1D112
:104A40004CF25231604816F0D7FE00237B627B6A3D
:104A5000002B59D100220021102013F05BFE786258
:104A60007B6A002B07D1594816F036FF4FF4FA70D5
:104A70000AF018FEA5E07B6A5B68002B11D07B6A08
:104A80005B685A7A7B6A5B6842F00402D2B25A725F
:104A90007B6A5B685A8B7B6A5B6842F0400292B229
:104AA0005A834CF252324A49786A13F0C9FE38628E
:104AB0003B6A002B0DD0396A464816F09DFE786A95
:104AC00013F08CFE00237B624FF4FA700AF0EAFDCB
:104AD00077E00821786A13F0D1FE38623B6A002B38
:104AE0000DD0396A3C4816F087FE786A13F076FEDE
:104AF00000237B624FF4FA700AF0D4FD61E04CF2BF
:104B00005231364816F078FE00233B6107F110035E
:104B10001946786A13F07AFFF861FB69002B39D1E6
:104B20003B69002B36D03B695B68002B08D03B69A2
:104B30005B685A8B3B695B6842F0400292B25A83D1
:104B40003B694FF4FA621A623B690022DA61386904
:104B500007F10A0207F10C01002313F04DFE3B6937
:104B60001946786800F0ECF83B69184613F03CFFF2
:104B7000B861B9691A4816F03FFE32200AF092FD7A
:104B80003B69184613F02AFE78617969154816F0DA
:104B900033FE16E0FB6913F1030F0FD0F9691248D9
:104BA00016F02AFE786A13F01FFF786A13F016FEDB
:104BB00000237B6264200AF075FD48E70A200AF0B2
:104BC00071FD44E7ECDD017020DE017058DE0170FC
:104BD000BC1E02708CDE0170C0DE0170F8DE017058
:104BE00030DF017060DF017098DF017080B483B046
:104BF00000AF786039607B683A681A607B68002291
:104C00005A607B6800229A607B680022DA607B68C9
:104C100018460C37BD465DF8047B704780B582B0FE
:104C200000AF78607B685B68002B04D07B685B68B2
:104C3000184615F095F87B6818460837BD4680BDC4
:104C400080B588B000AFF860B9607A600023FB617E
:104C500056E0FB685B68002B05D0FB689A68FB6830
:104C6000DB689A4227D3FB685B68002B07D0FB68A0
:104C70005B68184615F074F8FB6800225A60FB6800
:104C80001A68FB6804331946104613F0E5FFB86153
:104C9000BB69002B03D1FB685B68002B01D10023AB
:104CA00033E0FB685B681B681B891A46FB68DA60A7
:104CB000FB6800229A60FB68DA68FB689B68D31A7D
:104CC0007B617A68FB69D31A7A69934228BF1346DD
:104CD0003B61FB685B681868BA68FB69D1183B697F
:104CE0009AB2FB689B689BB20DF0D0FBFB689A6898
:104CF0003B691A44FB689A60FA693B691344FB619B
:104D0000FA697B689A42A4D3012318462037BD462E
:104D100080BD80B588B002AFF860B9607A600023CA
:104D20007B6107F11403009301237A68B968F8687E
:104D300013F04EFE034618461837BD4680BD0000EE
:104D400080B58EB002AF7860396007F12A0207F1B2
:104D50002C010023386813F04FFD07F11803396860
:104D60001846FFF743FF07F1080107F11803102267
:104D70001846FFF765FF034683F00103DBB2002B03
:104D800003D02D4816F0A8FD4DE03B891946FB895C
:104D90001A46BB8A294816F02FFD3B8945F2450289
:104DA000934208D0FA890023009301233968786878
:104DB00001F008F837E0BB8AB3F5006F08D9FA892B
:104DC0000023009305233968786800F0FBFF2AE090
:104DD000BB8A002B13D0BB8A1A4607F11803184967
:104DE0001846FFF72DFF034683F00103DBB2002BCB
:104DF00005D0BB8A1946134816F0FEFC13E007F1F4
:104E0000080207F12C0300930D4B3968786800F015
:104E10001BF8FB89B3F5997F04D13B684FF47A7294
:104E20001A62A0E700BF07F118031846FFF7F6FE65
:104E30003037BD4680BD00BFE4DF01701CE001706B
:104E4000D48F02245CE0017090B5ADF28C5D04AFAC
:104E500007F5AF64A4F26C54206007F5AF60A0F5CD
:104E6000AE60016007F5AF61A1F274510A6007F509
:104E7000AF62A2F5AF62136007F5AF63A3F274539C
:104E80001B689A79DB791B021343A7F86235B7F8E0
:104E90006235B3F5F87F00F04A87B7F86235B3F5AD
:104EA000F87F00F26087B7F86235B3F5807F00F0D5
:104EB0009F80B7F86235B3F5807FC0F05487B7F8AC
:104EC0006235B3F5A87F00F24E87B7F86235B3F5C7
:104ED000887FC0F04887B7F86235A3F58873402B08
:104EE00000F2418701A252F823F000BF6352007024
:104EF0008B530070675D0070675D0070675D0070C8
:104F0000675D0070675D0070675D0070675D0070D1
:104F1000675D0070675D0070675D0070675D0070C1
:104F2000675D0070675D0070675D007047540070DA
:104F3000675D0070675D0070675D0070675D0070A1
:104F4000675D0070675D0070675D0070675D007091
:104F5000675D0070675D0070675D0070675D007081
:104F6000675D0070675D0070675D00708956007056
:104F7000675D0070C9570070675D0070D55800709C
:104F8000675D0070DF590070675D0070A95A00709E
:104F9000675D0070675D0070675D0070675D007041
:104FA000675D0070675D0070675D0070675D007031
:104FB000675D0070675D0070675D0070675D007021
:104FC000675D0070675D0070675D0070675D007011
:104FD000675D0070675D0070675D0070675D007001
:104FE000675D0070675D0070675D0070F95A007062
:104FF00007F52573C7F8E83407F525731033C7F8AC
:10500000E434D7F8E43400221A7000225A700022E7
:105010009A700022DA7007F5AF63A3F26C531B6835
:105020009A8BD7F8E4349A8007F5AF63A3F26C53F8
:105030001B689B681846FFF733FC03461A46D7F8EF
:10504000E434DA8007F5AF63A3F26C531B685B6846
:105050001846FCF7EDFF0246D7F8E4349A6007F5EE
:10506000AF63A3F26C531B685B681846FCF7EDFF57
:10507000C7F8E004D7F8E034002B09D0D7F8E434BF
:105080000C330622D7F8E014184616F01EFF07E08E
:10509000D7F8E4340C3306220021184616F04CFEF3
:1050A00007F5AF63A3F26C531B685B69002B0BD051
:1050B00007F5AF63A3F26C531B685B691846FBF7F7
:1050C00024FE03461A460AE007F5AF63A3F26C53C9
:1050D0001B689B681846FFF708FC03461A46D7F87A
:1050E000E4345A8207F5AF63A3F26C531B685B6923
:1050F000002B0AD007F5AF63A3F26C531B685B6902
:105100001846FDF7A7FA034609E007F5AF63A3F2D7
:105110006C531B689B681846FFF7CFFB0346D7F814
:10512000E42453610AF09CFD0246D7F8E4349A6106
:10513000D7F8E43400221A7700225A7700229A77AF
:105140000022DA77D7F8E434002283F82020002206
:1051500083F82120002283F82220002283F82320D4
:10516000D7F8E434002283F82420002283F8252095
:10517000002283F82620002283F8272007F5AF635A
:10518000A3F26C531B685B69002B0AD007F5AF6371
:10519000A3F26C531B685B691846FBF7A9FD034635
:1051A00009E007F5AF63A3F26C531B689B681846D0
:1051B000FFF78FFB0346D7F8E424936207F5AF634C
:1051C000A3F26C531B685B69002B0AD007F5AF6331
:1051D000A3F26C531B685B691846FBF77DFD034621
:1051E00009E007F5AF63A3F26C531B689B68184690
:1051F000FFF787FB0346D7F8E424D36207F5AF63D4
:10520000A3F26C531B68998B07F5AF63A3F26C5341
:105210001B681B6A5A1C07F5AF63A3F26C531B682B
:105220001A6207F5AF63A3F26C531B681B6A002276
:10523000039200220292022201923022009240F256
:105240000112D7F8E804FEF785FB07F5257107F58D
:10525000AF63A3F5AE6340221868FFF75AFD00F074
:10526000A5BD0023C7F874350023A7F872350023C5
:10527000A7F8703507F5AF63A3F274531B689B89D9
:105280009BB2072B46D907F5AF63A3F5AF631B6845
:10529000C7F8EC34D7F8EC345B68642B05D9D7F841
:1052A000EC345B68C7F874350BE0D7F8EC341B8836
:1052B0009BB2002B05D0D7F8EC341B889BB2C7F803
:1052C0007435D7F8EC345B889BB2002B0FD0D7F83D
:1052D000EC345B889BB242F21072934207D0D7F84D
:1052E000EC349A78DB781B021343A7F87235D7F8B1
:1052F0007435002B0ED0D7F8EC345B68002B09D046
:10530000D7F8EC345B68642B04D8D7F8EC345B68CE
:10531000A7F870354FF0FF33C7F8DC3407F5AF63FB
:10532000A3F26C531B68D86807F2DC41B7F87035FC
:105330000193B7F872350093D7F874354CF25132B7
:10534000FEF706FF07F5AF63A3F26C531B689B687B
:1053500002211846FCF793FE07F5AF63A3F27453DE
:105360001B68DB889AB2B7F8723507F5AF61A1F513
:10537000AE6107F5AF60A0F26C500093002309689E
:10538000006800F01FFD00F011BD0023C7F86C3568
:1053900007F5AF63A3F274531B689B899BB2072B7D
:1053A00015D907F5AF63A3F5AF631B68C7F8F034F1
:1053B000D7F8F0345B68642B03D9D7F8F0345B6816
:1053C00003E0D7F8F0341B889BB2C7F86C3507F5BB
:1053D000AF63A3F26C531B68DB68D7F86C151846F3
:1053E000FEF788FF07F5AF63A3F26C531B68DB6819
:1053F0001846FCF736FE034683F00103DBB2002BB0
:1054000009D007F5AF63A3F26C531B689B680121B9
:105410001846FCF734FE07F5AF63A3F274531B681C
:10542000DB889AB207F5AF63A3F5AE6107F5AF630A
:10543000A3F26C500023009300230968006800F079
:10544000C1FC00F0B3BC07F5AF63A3F26C531B685B
:10545000DB681846FFF761FAC7F80C05D7F80C357A
:105460009BB25B019BB20433A7F80A3507F525739D
:10547000C7F8043507F525731033C7F8003507F56D
:1054800025731433C7F8FC34D7F80C359AB2D7F823
:1054900000351A80D7F8003500229A700022DA70A1
:1054A0000023C7F86835A9E007F5AF63A3F26C5392
:1054B0001B68DB68D7F868151846FFF73AFAC7F893
:1054C000F404D7F8F434002B00F09380D7F8F434C8
:1054D0001B6808331B68D7F868255201D7F8FC14FD
:1054E0008C18D7F8F404984703462360D7F868353A
:1054F0005B01D7F8FC241344043310220021184622
:1055000016F01AFCD7F868355B01D7F8FC24134471
:105510001C1DD7F8F4341B680C331B68D7F8F4044F
:10552000984703460F221946204616F00DFCD7F87F
:10553000F4341B6810331B68D7F868255201D7F87C
:10554000FC148C18D7F8F40498470346A382D7F8C4
:10555000F4341B6818331B68D7F868255201D7F854
:10556000FC148C18D7F8F40498470346E382D7F864
:10557000F4341B6820331B68D7F868255201D7F82C
:10558000FC148C18D7F8F404984703462383D7F803
:10559000F4341B6824331B68D7F868255201D7F808
:1055A000FC148C18D7F8F404984703466383D7F8A3
:1055B000F4341B682C331B68D7F8F404984703466F
:1055C000002B01D0012100E00021D7F868355B01F4
:1055D000D7F8FC2413440A461A77D7F868355B01DC
:1055E000D7F8FC2413441D3303220021184616F07B
:1055F000A3FBD7F868350133C7F86835D7F86825B5
:10560000D7F80C359A42FFF44FAF07F5AF63A3F21A
:105610006C531B68998B07F5AF63A3F26C531B683F
:105620001B6A5A1C07F5AF63A3F26C531B681A621E
:1056300007F5AF63A3F26C531B681A6A0023039348
:105640000023029302230193B7F80A35009313460F
:1056500040F22112D7F80405FEF77CF9B7F80A35B5
:105660001033A7F8FA34B7F8FA2407F5257107F5CF
:10567000AF63A3F5AE631868FFF74BFBD7F80C15C3
:10568000B44816F0B9F891E307F5AF63A3F26C5391
:105690001B681B69002B16D107F5AF63A3F2745387
:1056A0001B68DB889AB207F5AF63A3F5AE6107F517
:1056B000AF63A3F26C5000230093FF2309680068D6
:1056C00000F080FB72E307F5AF63A3F274531B682D
:1056D0009B899BB20F2B16D807F5AF63A3F27453C7
:1056E0001B68DB889AB207F5AF63A3F5AE6107F5D7
:1056F000AF63A3F26C500023009305230968006890
:1057000000F060FB52E307F5AF63A3F5AF631B68DE
:10571000C7F81C3507F2C443C7F8183507F2C4436D
:105720001033C7F8143507F5AF63A3F26C531B6849
:105730001B69D7F81425D7F81C15184600F0EEFBA6
:105740000346A7F81235022387F86735B7F81235F4
:10575000002B05D097F8673543F0040387F86735C9
:1057600007F5AF63A3F26C531B68998B07F5AF6322
:10577000A3F26C531B681B6A5A1C07F5AF63A3F2B4
:105780006C531B681A6207F5AF63A3F26C531B6876
:105790001A6A002303930023029397F86735019355
:1057A00008230093134640F23112D7F81805FEF78C
:1057B000D1F807F2C44107F5AF63A3F5AE63182231
:1057C0001868FFF7A6FAF1E207F5AF63A3F26C538E
:1057D0001B681B69002B16D107F5AF63A3F2745346
:1057E0001B68DB889AB207F5AF63A3F5AE6107F5D6
:1057F000AF63A3F26C5000230093FF230968006895
:1058000000F0E0FAD2E207F5AF63A3F274531B682D
:105810009B899BB2072B16D807F5AF63A3F274538D
:105820001B68DB889AB207F5AF63A3F5AE6107F595
:10583000AF63A3F26C50002300930523096800684E
:1058400000F0C0FAB2E207F5AF63A3F5AF631B68DF
:10585000C7F8283507F5AF63A3F5AF631B680833B6
:10586000C7F82435D7F828351A795B791B0213431A
:10587000A7F8223507F5AF63A3F26C531B681869CC
:10588000B7F82235D7F82425D7F8281500F0EAFB19
:105890000346A7F8203507F5AF63A3F274531B68DE
:1058A000DB889CB2D7F828351A68B7F8223513443C
:1058B000B7F8202507F5AF61A1F5AE6107F5AF6038
:1058C000A0F26C500093134622460968006800F06D
:1058D00079FA6BE207F5AF63A3F26C531B681B699F
:1058E000002B16D107F5AF63A3F274531B68DB8856
:1058F0009AB207F5AF63A3F5AE6107F5AF63A3F204
:105900006C5000230093FF230968006800F05AFAE6
:105910004CE207F5AF63A3F274531B689B899BB2FB
:10592000072B19D807F5AF63A3F274531B68DB8804
:105930009AB207F5AF63A3F5AE6107F5AF63A3F2C3
:105940006C500023009305230968006800F03AFAC0
:105950002CE200BF98E0017007F5AF63A3F5AF63D9
:105960001B68C7F8303507F5AF63A3F26C531B68AB
:105970001B69D7F83015184600F054FC0346A7F809
:105980002E3507F5AF63A3F274531B68DB889AB218
:10599000B7F82E3507F5AF61A1F5AE6107F5AF6039
:1059A000A0F26C50002400940968006800F00AFA24
:1059B00007F5AF63A3F26C531B681B691846FEF72B
:1059C000D0FF0346002B00F0F0817C4815F084FFE7
:1059D0004FF4967009F066FEFEF7E6FFE5E107F585
:1059E000AF63A3F26C531B681B69002B16D107F53C
:1059F000AF63A3F274531B68DB889AB207F5AF63F9
:105A0000A3F5AE6107F5AF63A3F26C5000230093DA
:105A1000FF230968006800F0D5F9C7E107F5956331
:105A2000C7F8383507F595631033C7F8343507F5EF
:105A3000AF63A3F26C531B681B69D7F83415184683
:105A400000F0E2FC07F5AF63A3F26C531B68998B7F
:105A500007F5AF63A3F26C531B681B6A5A1C07F56A
:105A6000AF63A3F26C531B681A6207F5AF63A3F22E
:105A70006C531B681B6A00220392002202920222CE
:105A800001920C22009240F23712D7F83805FDF748
:105A900061FF07F5956107F5AF63A3F5AE631C22BF
:105AA0001868FFF736F981E107F5AF63A3F26C538D
:105AB0001B681B69002B08D007F5AF63A3F26C537A
:105AC0001B681B69184600F083FC07F5AF63A3F25F
:105AD00074531B68DB889AB207F5AF63A3F5AE6118
:105AE00007F5AF63A3F26C5000230093002309680D
:105AF000006800F067F959E107F5AF63A3F26C5352
:105B00001B689B69002B16D107F5AF63A3F2745392
:105B10001B68DB889AB207F5AF63A3F5AE6107F5A2
:105B2000AF63A3F26C5000230093FF230968006861
:105B300000F048F93AE107F5AF63A3F26453184661
:105B400080231A46002116F0F7F807F5AF63A3F299
:105B500074531B689B899BB2032B31D907F5AF6344
:105B6000A3F5AF631B68C7F8583507F5AF63A3F516
:105B7000AF631B680433C7F85435D7F858351A7823
:105B80005B781B021343A7F86435B7F864357F2BA5
:105B900002D97F23A7F86435B7F8642507F1140309
:105BA000D7F85415184616F090F9B7F8643507F58C
:105BB000AF62A2F264520021D15426E0D0E001701D
:105BC00007F5AF63A3F274531B689B899BB27F2BCD
:105BD00028BF7F239BB2C7F85C35D7F85C35002B14
:105BE00013D007F5AF63A3F5AF6307F11400D7F83F
:105BF0005C25196816F069F907F5AF63A3F26452E2
:105C0000D7F85C35134400221A7007F5AF63A3F28E
:105C1000E44318464FF400731A46002116F08CF83E
:105C200007F5AF63A3F26C531B68986907F1940200
