:0200000470008A
:1000000000000120796B0070C96B00706D6F00708B
:10001000816F0070876F00708D6F007000000000AE
:100020000000000000000000000000001905017041
:10003000C96B00700000000045060170696E007019
:10004000C96B007000000000C96B0070C96B0070C4
:10005000C96B0070C96B0070000000000000000058
:10006000C96B0070C96B0070C96B007000000000A4
:1000700000000000C96B00700000000000000000DC
:10008000C96B0070C96B0070C96B0070C96B0070E0
:10009000C96B0070C96B0070C96B0070C96B0070D0
:1000A000C96B0070C96B0070C96B0070C96B0070C0
:1000B000C96B0070C96B0070C96B0070C96B0070B0
:1000C000C96B0070C96B0070C96B0070C96B0070A0
:1000D000C96B0070C96B0070C96B0070C96B007090
:1000E000C96B0070C96B0070C96B0070C96B007080
:1000F000C96B0070C96B0070C96B0070C96B007070
:10010000C96B0070C96B0070C96B0070C96B00705F
:10011000C96B0070C96B0070C96B0070C96B00704F
:10012000C96B0070C96B0070C96B0070C96B00703F
:10013000C96B0070C96B0070C96B0070C96B00702F
:10014000C96B0070C96B0070C96B0070C96B00701F
:10015000C96B0070C96B0070C96B0070C96B00700F
:10016000C96B0070C96B0070C96B0070C96B0070FF
:10017000C96B0070C96B0070C96B0070C96B0070EF
:10018000C96B0070C96B0070C96B0070C96B0070DF
:10019000C96B0070C96B0070C96B0070C96B0070CF
:1001A000C96B0070C96B0070C96B0070C96B0070BF
:1001B00099750070C96B0070C96B0070C96B0070D5
:1001C0000000000000000000C96B0070C96B0070E7
:1001D000C96B0070C96B0070C96B0070C96B00708F
:1001E000C96B0070C96B0070C96B0070C96B00707F
:1001F000C96B0070C96B00700000000000000000B7
:10020000C96B0070C96B0070C96B0070C96B00705E
:10021000C96B0070C96B0070C96B0070C96B00704E
:10022000C96B0070C96B0070C96B0070C96B00703E
:10023000C96B0070C96B0070C96B0070C96B00702E
:10024000C96B0070C96B0070C96B0070C96B00701E
:10025000C96B0070C96B0070C96B0070C96B00700E
:10026000C96B0070C96B0070C96B0070C96B0070FE
:10027000C96B0070C96B0070C96B0070C96B0070EE
:10028000C96B0070C96B0070C96B0070C96B0070DE
:10029000C96B0070000000000000000000000000BA
:1002A000C96B0070C96B0070C96B0070C96B0070BE
:1004000057465045010001000000000100000001B6
:100410008F0100000000000000000000000000004C
:1004200000000000000000000000000000000000CC
:1004300000000000000000000000000000000000BC
:1004400053B94AB9002908BF00281CBF4FF0FF313B
:100450004FF0FF3000F00CB8ADF1080C6DE904CEA0
:1004600019F080FADDF804E0DDE9022304B07047FA
:10047000704700BF10F8012B11F8013B012A28BF7B
:100480009A42F7D0D01A7047034613F8012B002A7E
:10049000FBD1181A0138704700000000000000006E
:1004A00001F0FF01102A2BDB10F0070F08D010F825
:1004B000013B013A8B422DD010F0070F42B3F6D129
:1004C000F0B441EA012141EA014122F007047FF042
:1004D00000070023F0E80256083C85EA010586EA99
:1004E000010685FA47F5A3FA87F586FA47F6A5FAD5
:1004F00087F68EB9EED1F0BC01F0FF0102F00702E1
:1005000032B110F8013B013A83EA010313B1F8D18B
:100510000020704701387047002D06BF354603386C
:10052000073815F0010F07D1013015F4807F02BFA5
:10053000013015F4C03F0130F0BC0138704700BFF6
:100540000348044B834202D0034B03B11847704762
:100550002805002428050024000000000548064B5B
:100560001B1AD90F01EBA301491002D0034B03B1B1
:1005700018477047280500242805002400000000C3
:1005800010B5064C237843B9FFF7DAFF044B13B1DB
:100590000448AFF300800123237010BD4005002400
:1005A000000000007CB5017008B5054B1BB1054982
:1005B0000548AFF30080BDE80840FFF7CFBF00BF9C
:1005C00000000000440500247CB5017080B582B0B5
:1005D00000AF7860074A7B681360074B1B68986818
:1005E00000230222002119F0A7FE00BF0837BD46F4
:1005F00080BD00BF5C0500244000002480B584B0AD
:1006000000AFF860B9607A60094B1B68002B09D015
:10061000074B1B681B6808331B68054A10687A681B
:10062000B96898477B6818461037BD4680BD00BF43
:100630005C05002480B483B000AF78607B68DB4346
:1006400018460C37BD465DF8047B704780B489B00E
:1006500000AFF860B9607A60BB687B61FB68FB61E2
:100660000023BB6111E07A69BB6913441B781A4609
:10067000FB695340DBB20A4A52F82320FB691B0A8C
:100680005340FB61BB690133BB61BA697B689A4225
:10069000E9D3FB6918462437BD465DF8047B7047F3
:1006A000FCD1017080B584B000AF786039603A68E1
:1006B00079684FF0FF30FFF7C9FFF860F868FFF77F
:1006C000B9FF034618461037BD4680BD90B482B0CE
:1006D00000AF0446084611461A462346FB710346FE
:1006E000BB710B467B7113463B71FA79BB791B02D8
:1006F0001A437B791B041A433B791B0613431846A4
:100700000837BD4690BC704780B483B000AF7860B6
:1007100039607B683A685A6100BF0C37BD465DF8A6
:10072000047B704780B483B000AF78600B467B8059
:100730007B687A881A8300BF0C37BD465DF8047B5E
:10074000704780B483B000AF786039607B683A68E6
:10075000DA6100BF0C37BD465DF8047B70470000CE
:1007600080B483B000AF7860044A7B681A607B680D
:1007700018460C37BD465DF8047B70473CD70170C6
:1007800080B483B000AF7860044A7B681A607B68ED
:1007900018460C37BD465DF8047B70473CD70170A6
:1007A00080B582B000AF78607868FFF7E9FF042178
:1007B000786819F0C4F87B6818460837BD4680BDD4
:1007C00080B582B000AF78600B467B8013463B80DB
:1007D0007B681846FFF7C4FF094A7B681A607B688C
:1007E0007A889A807B683A88DA807B6800229A60EF
:1007F0007B6800221A737B6818460837BD4680BDA7
:10080000FCD6017080B483B000AF7860034B18460B
:100810000C37BD465DF8047B704700BF434E545211
:1008200080B483B000AF7860034B18460C37BD46E8
:100830005DF8047B704700BF94B5017080B483B04D
:1008400000AF78607B689B8818460C37BD465DF822
:10085000047B704780B483B000AF78600B467B8028
:100860007B88002B05D07B687A889A807B68012280
:10087000DA8000BF0C37BD465DF8047B704780B45A
:1008800083B000AF78607B68DB8818460C37BD46C4
:100890005DF8047B704780B483B000AF78600B468E
:1008A0007B807B88002B04D07B88642B01D87A88DE
:1008B00000E001227B68DA8000BF0C37BD465DF89E
:1008C000047B704780B483B000AF78600123184682
:1008D0000C37BD465DF8047B704780B483B000AF31
:1008E0007860042318460C37BD465DF8047B7047DA
:1008F00080B483B000AF7860042318460C37BD463F
:100900005DF8047B704780B483B000AF78607B688B
:100910001B7B18460C37BD465DF8047B704780B4DE
:1009200083B000AF78600B46FB707B68FA781A736F
:1009300000BF0C37BD465DF8047B704780B487B0BC
:1009400000AFF860B9607A607B68002B02D0BB68AA
:10095000002B01D1002316E0BB683B6100237B61C3
:100960000CE0FB689B68591CFA6891607A699200F8
:1009700039690A4413607B6901337B617A697B685A
:100980009A42EED37B6818461C37BD465DF8047B5F
:100990007047000080B584B000AFF860B9601146C0
:1009A0001A460B46FB801346BB80FB681846FFF7D0
:1009B000D7FE0E4AFB681A60FB68BA685A60FB688B
:1009C000FA881A81FB68BA885A81FB6800221A7378
:1009D000FB685B681B6808331B68FA68526810463E
:1009E0009847FB6818461037BD4680BDBCD60170DD
:1009F00080B483B000AF7860034B18460C37BD4617
:100A00005DF8047B704700BF54454D5080B483B0FF
:100A100000AF7860034B18460C37BD465DF8047B89
:100A2000704700BF9CB5017080B483B000AF7860A0
:100A30007B681B8918460C37BD465DF8047B704700
:100A400080B483B000AF78600B467B807B88002B3E
:100A500005D07B687A881A817B6801225A8100BFA1
:100A60000C37BD465DF8047B704780B483B000AF9F
:100A700078607B685B8918460C37BD465DF8047B5F
:100A8000704780B483B000AF78600B467B807B8872
:100A9000002B04D07B88642B01D87A8800E00122E7
:100AA0007B685A8100BF0C37BD465DF8047B7047F8
:100AB00080B483B000AF7860012318460C37BD4680
:100AC0005DF8047B704780B483B000AF7860022388
:100AD00018460C37BD465DF8047B704780B483B080
:100AE00000AF7860042318460C37BD465DF8047BE0
:100AF000704780B483B000AF78607B681B7B18467A
:100B00000C37BD465DF8047B704780B483B000AFFE
:100B100078600B46FB707B68FA781A7300BF0C375D
:100B2000BD465DF8047B704780B588B000AFF860C3
:100B3000B9607A607B68002B02D0BB68002B01D1C2
:100B4000002327E0BB68BB6100237B61FB685B6817
:100B50001B680C331B68FA68526807F114011046D1
:100B60009847034683F00103DBB2002B01D00B4B07
:100B70007B610023FB6108E0FB699B00BA691344B9
:100B80007A691A60FB690133FB61FA697B689A42F2
:100B9000F2D37B6818462037BD4680BD19FCFFFFA5
:100BA00080B483B000AF78607B681B0EDBB2184660
:100BB0000C37BD465DF8047B704780B483B000AF4E
:100BC00078607B681B0CDBB218460C37BD465DF8BD
:100BD000047B704780B483B000AF78607B681B0AE9
:100BE000DBB218460C37BD465DF8047B704780B415
:100BF00083B000AF78607B68DBB218460C37BD4627
:100C00005DF8047B7047000080B58AB004AFF860DF
:100C1000B9607A60F868FFF7C3FF0346FB75F868B0
:100C2000FFF7CBFF0346BB75F868FFF7D3FF03461A
:100C30007B75F868FFF7DBFF03463B753B7D002BB8
:100C40000DD0F87DBB7D7A7D397D029101920093B4
:100C500003460A4A7968B86819F022FC0AE0F97D6F
:100C6000BB7D7A7D019200930B46054A7968B8688E
:100C700019F016FC00BF1837BD4680BDA8B501703D
:100C8000B8B5017080B483B000AF786039607B681C
:100C90003A685A6000BF0C37BD465DF8047B704768
:100CA00080B483B000AF786039607B683A685A617D
:100CB00000BF0C37BD465DF8047B704780B483B03D
:100CC00000AF786039607B683A689A6100BF0C3782
:100CD000BD465DF8047B704780B483B000AF786098
:100CE0007B685B6E18460C37BD465DF8047B704729
:100CF00080B483B000AF78607B68D3F84630184684
:100D00000C37BD465DF8047B704780B483B000AFFC
:100D100078607B681B8918460C37BD465DF8047BFC
:100D20007047000080B483B000AF7860044A7B68ED
:100D30001A607B6818460C37BD465DF8047B704727
:100D4000A0D7017080B582B000AF78607868FFF7F7
:100D5000E9FF0421786818F0F2FD7B68184608372F
:100D6000BD4680BD80B582B000AF7860054A7B6823
:100D70001A607B681846FFF7D5FF7B68184608376E
:100D8000BD4680BD18D8017080B582B000AF7860D4
:100D90007868FFF7E7FF0C21786818F0D0FD7B68D2
:100DA00018460837BD4680BD80B483B000AF786078
:100DB000044A7B681A607B6818460C37BD465DF8AC
:100DC000047B70477CD7017080B582B000AF78603B
:100DD0007868FFF7E9FF0421786818F0B0FD7B68B8
:100DE00018460837BD4680BD80B582B000AF786038
:100DF000054A7B681A607B681846FFF7D5FF7B6859
:100E000018460837BD4680BDA0D9017080B582B0B4
:100E100000AF78607868FFF7E7FF0C21786818F07A
:100E20008EFD7B6818460837BD4680BD80B582B010
:100E300000AF7860054A7B681A607B681846FFF748
:100E400071FF7B6818460837BD4680BDC8D7017062
:100E500080B582B000AF78607868FFF7E7FF602167
:100E6000786818F06CFD7B6818460837BD4680BD71
:100E700080B582B000AF7860054A7B681A607B68F5
:100E80001846FFF77DFC7B6818460837BD4680BDD5
:100E9000FCD6017080B582B000AF78607868FFF74B
:100EA000E7FF1021786818F04AFD7B68184608377C
:100EB000BD4680BD80B582B000AF7860054A7B68D2
:100EC0001A607B681846FFF75BFC7B68184608379A
:100ED000BD4680BDBCD6017080B582B000AF7860E1
:100EE0007868FFF7E7FF1021786818F028FD7B6825
:100EF00018460837BD4680BD80B582B000AF786027
:100F0000054A7B681A607B681846FFF739FC7B68E6
:100F100018460837BD4680BD50D6017080B582B0F6
:100F200000AF78607868FFF7E7FF1021786818F065
:100F300006FD7B6818460837BD4680BD80B582B087
:100F400000AF7860054A7B681A607B681846FFF737
:100F500017FC7B6818460837BD4680BD10D6017067
:100F600080B582B000AF78607868FFF7E7FF1021A6
:100F7000786818F0E4FC7B6818460837BD4680BDE9
:100F800080B483B000AF7860044A7B681A607B68E5
:100F900018460C37BD465DF8047B704790D601704B
:100FA00080B582B000AF78607868FFF7E9FF042170
:100FB000786818F0C4FC7B6818460837BD4680BDC9
:100FC00080B582B000AF7860054A7B681A607B68A4
:100FD0001846FFF7D5FF7B6818460837BD4680BD29
:100FE000DCD8017080B582B000AF78607868FFF718
:100FF000E7FF1021786818F0A2FC7B6818460837D4
:10100000BD4680BD80B582B000AF7860054A7B6880
:101010001A607B681846FFF785FE7B68184608371C
:10102000BD4680BDDCD7017080B582B000AF78606E
:101030007868FFF7E7FF2821786818F080FC7B6864
:1010400018460837BD4680BD80B582B000AF7860D5
:10105000054A7B681A607B681846FFF763FE7B6869
:1010600018460837BD4680BDF0D7017080B582B004
:1010700000AF78607868FFF7E7FF6821786818F0BC
:101080005EFC7B6818460837BD4680BD80B582B0DF
:1010900000AF7860054A7B681A607B681846FFF7E6
:1010A00041FE7B6818460837BD4680BD04D80170F4
:1010B00080B582B000AF78607868FFF7E7FF242141
:1010C000786818F03CFC7B6818460837BD4680BD40
:1010D00080B582B000AF7860054A7B681A607B6893
:1010E0001846FFF71FFE7B6818460837BD4680BDCF
:1010F000B4D7017080B582B000AF78607868FFF730
:10110000E7FF9021786818F01AFC7B6818460837CA
:10111000BD4680BD80B58EB006AF05F003FA05F080
:1011200091FA03461846FFF751FA3B1D182219465B
:101130004FF08070FFF768FD3B1D4FF4FA721946BF
:10114000A44819F081F8A44B1B68BFF35B8F03F030
:101150000103002B0CBF01230023DBB2002B12D0B4
:101160009D4818F0EEFB0346002B14BF012300231B
:10117000DBB2002B07D005F06FFA0346974A1360E5
:10118000954818F0EAFB964B1B68BFF35B8F03F0A2
:101190000103002B0CBF01230023DBB2002B1AD06C
:1011A0008F4818F0CEFB0346002B14BF0123002309
:1011B000DBB2002B0FD0894B1B684FF4FA72194633
:1011C000884805F0B9F8884A8849864818F0B2FB83
:1011D000834818F0C2FB864B1B68BFF35B8F03F09C
:1011E0000103002B0CBF01230023DBB2002B1BD01B
:1011F0007F4818F0A6FB0346002B14BF01230023F1
:10120000DBB2002B10D0032300934FF48073794A94
:101210007449794807F018F9734A7849764818F004
:1012200089FB734818F099FB754B1B68BFF35B8F04
:1012300003F00103002B0CBF01230023DBB2002BC2
:1012400016D06F4818F07DFB0346002B14BF012316
:101250000023DBB2002B0BD000216A4806F052FFBE
:10126000614A6949674818F065FB654818F075FBE5
:10127000664B1B68BFF35B8F03F00103002B0CBFB1
:1012800001230023DBB2002B17D0604818F059FB74
:101290000346002B14BF01230023DBB2002B0CD02C
:1012A000584A5B495B4806F0B1FA4F4A5A495948D7
:1012B00018F040FB554818F050FB0123FB83574BB7
:1012C00002221A706F230122A821C020FFF7FEF925
:1012D0000346524A53600023FF22FF21FF20FFF7FD
:1012E000F5F903464D4A936001230122A821C0204D
:1012F000FFF7ECF90346494AD360484B42F21072BB
:101300001A61464B464A5A61464B1B68BFF35B8FD6
:1013100003F00103002B0CBF01230023DBB2002BE1
:1013200017D0404818F00DFB0346002B14BF0123D3
:101330000023DBB2002B0CD0384A36493A4802F081
:1013400039F8294A3949384818F0F4FA354818F07C
:1013500004FB374B1B68BFF35B8F03F00103002BCB
:101360000CBF01230023DBB2002B1BD0304818F048
:10137000E8FA0346002B14BF01230023DBB2002B45
:1013800010D0042300934FF480632A4A26492A4848
:1013900007F05AF8144A1949274818F0CBFA24489C
:1013A00018F0DBFA254B1B68BFF35B8F03F00103DA
:1013B000002B0CBF01230023DBB2002B4ED01F48B3
:1013C00018F0BFFA0346002B14BF01230023DBB241
:1013D000002B35E0D4B501706405002460050024BD
:1013E000740500246805002400000024650D0070C9
:1013F0009005002408B601707805002491840070DF
:10140000A005002494050024E90D0070780600244E
:10141000FCD50170A4050024697800700400002444
:10142000C4B50170DC0600247C0600242D0E00707B
:10143000F806002414B60170E00600240C0700240E
:101440000CD001220A21A448FFF7BAF9A34AA44903
:10145000A14818F06FFAA34818F07FFAA24B1B6856
:10146000BFF35B8F03F00103002B0CBF01230023AC
:10147000DBB2002B12D09C4818F063FA0346002B15
:1014800014BF01230023DBB2002B07D005F014F9B1
:101490000346964A1360944818F05FFA944B1B6811
:1014A000BFF35B8F03F00103002B0CBF012300236C
:1014B000DBB2002B19D08E4818F043FA0346002BFC
:1014C00014BF01230023DBB2002B0ED0874B196819
:1014D000012301228748FFF75DFA804A8649854843
:1014E00018F028FA824818F038FA844B1B68BFF3CA
:1014F0005B8F03F00103002B0CBF01230023DBB241
:10150000002B19D07D4818F01CFA0346002B14BF9D
:1015100001230023DBB2002B0ED02D234FF47A726F
:101520007749784800F02AFB6C4A7749754818F0EB
:1015300001FA724818F011FA744B1B68BFF35B8F05
:1015400003F00103002B0CBF01230023DBB2002BAF
:1015500019D06E4818F0F5F90346002B14BF01238B
:101560000023DBB2002B0ED00B2341F288326849F6
:10157000684800F02BFB594A6749664818F0DAF9C9
:10158000624818F0EAF9654B1B68BFF35B8F03F004
:101590000103002B0CBF01230023DBB2002B19D069
:1015A0005E4818F0CEF90346002B14BF0123002338
:1015B000DBB2002B0ED00B234CF250325849594865
:1015C00000F004FB454A5449564818F0B3F9534813
:1015D00018F0C3F9544B1B68BFF35B8F03F0010392
:1015E000002B0CBF01230023DBB2002B19D04E4887
:1015F00018F0A7F90346002B14BF01230023DBB228
:10160000002B0ED04FF080624FF0E041474805F0CC
:1016100035FF324A4649454818F08CF9424818F0DF
:101620009CF9424805F048FF424B1B68BFF35B8FB3
:1016300003F00103002B0CBF01230023DBB2002BBE
:1016400012D03C4818F07DF90346002B14BF01234B
:101650000023DBB2002B07D000223449364804F0C7
:1016600011FB344818F079F9344B1B68BFF35B8FDA
:1016700003F00103002B0CBF01230023DBB2002B7E
:101680001CD02E4818F05DF90346002B14BF01232F
:101690000023DBB2002B11D0144B1B684FF080727B
:1016A000009201222649274802F072F90B4A264986
:1016B000244818F03FF9214818F04FF9234B1B68D4
:1016C000BFF35B8F03F00103002B0CBF012300234A
:1016D000DBB2002B58D03BE0FC06002400000024C5
:1016E000710E00700C07002414070024100700245A
:1016F0002807002418070024B50E00703C070024BA
:10170000535452312C070024F90E00705007002466
:1017100053545236400700243D0F007064070024E4
:1017200052415730540700247807002468070024EA
:10173000C10F0070C087022480070024EC870224B8
:101740007C060024C4870224051000700888022447
:10175000A04818F0F6F80346002B14BF012300231D
:10176000DBB2002B10D0022300934FF480639A4A1F
:101770009A499B4806F068FE9A4A9B49984818F097
:10178000D9F8944818F0E9F8984B1B68BFF35B8FC1
:1017900003F00103002B0CBF01230023DBB2002B5D
:1017A00018D0924818F0CDF80346002B14BF01233F
:1017B0000023DBB2002B0DD08D4B01228D498E48CA
:1017C00002F082FB874A8D498B4818F0B3F88748AE
:1017D00018F0C3F88A49884802F08EFB8949864888
:1017E00002F08AFB8849844802F086FB87498248D8
:1017F00002F082FB864B1B68BFF35B8F03F0010393
:10180000002B0CBF01230023DBB2002B1BD0804830
:1018100018F097F80346002B14BF01230023DBB216
:10182000002B10D0042300934FF40063794A7249CF
:10183000794806F009FE6B4A6B49774818F07AF848
:10184000734818F08AF8754B1B68BFF35B8F03F081
:101850000103002B0CBF01230023DBB2002B20D09F
:101860006E4818F06EF80346002B14BF01230023C6
:10187000DBB2002B15D00023039300230293684BA7
:101880000193012300935C4B544A5A49654803F085
:101890003BF8544A6449634818F04CF85F4818F024
:1018A0005CF8624B1B68BFF35B8F03F00103002BF6
:1018B0000CBF01230023DBB2002B1BD05B4818F0C8
:1018C00040F80346002B14BF01230023DBB2002B9A
:1018D00010D0032300934FF40063554A51495548F3
:1018E00006F0B2FD3F4A4049524818F023F84F48ED
:1018F00018F033F8504B1B68BFF35B8F03F0010304
:10190000002B0CBF01230023DBB2002B1ED04A4862
:1019100018F017F80346002B14BF01230023DBB295
:10192000002B13D0454B1B682C4A04923C4A03926F
:10193000314A0292424A019200932E4B414A0121C0
:10194000414800F0C3FB3C4818F007F83E4800F05F
:10195000FFFB3E4B1B68BFF35B8F03F00103002BC3
:101960000CBF01230023DBB2002B11D0374817F046
:10197000E8FF0346002B14BF01230023DBB2002B3A
:1019800006D03149324800F099FE304817F0E5FFA3
:10199000304B1B68BFF35B8F03F00103002B0CBFC0
:1019A00001230023DBB2002B60D02A4817F0C9FFC7
:1019B0000346002B14BF01230023DBB2002B55D0BC
:1019C00004F040FE0346224A1946234801F08AFBF0
:1019D00044E000BF0888022420B60170C4870224B6
:1019E000F08702240000002491840070748802248F
:1019F000FC0600247C0600240C8802244910007098
:101A0000180700242C070024400700245407002452
:101A10009088022430B6017078880224B8880224A5
:101A200080070024948802248D100070D48802243A
:101A300040B60170BC880224588902241007002493
:101A40006805002400040070D888022460890224FC
:101A50005C890224F489022464890224354A3649C7
:101A6000364817F067FF364817F077FF354B1B688D
:101A7000BFF35B8F03F00103002B0CBF0123002396
:101A8000DBB2002B1BD02F4817F05BFF0346002B67
:101A900014BF01230023DBB2002B10D002230093DC
:101AA0004FF48063284A2549284806F0CDFC214A96
:101AB0002749264817F03EFF224817F04EFF2549D8
:101AC0002548FFF7DFF82348FFF712F903461946C8
:101AD0002248FEF719FE1F48FFF717F9034619467B
:101AE0001E48FEF71FFE1B48FFF7F6F8034619468F
:101AF0001A48FEF726FE17491948FFF7D1F8194989
:101B00001748FFF7DBF8184806F0EEFC174806F018
:101B1000EBFC174806F0E8FC164806F0E5FC164812
:101B200006F0E2FC094806F0DFFC0CF067FD00BFA0
:101B3000FDE700BF00000024D1100070648902247A
:101B4000F4890224108A02244CB60170F889022418
:101B500091840070D888022480070024C48702245E
:101B6000948802245C89022478050024E00600247D
:101B7000F087022478880224BC88022480B584B0CF
:101B800000AFF860B96011461A460B46FB80134659
:101B9000BB80FB681846FEF7E3FD0B4AFB681A6042
:101BA000FB68BA685A60FB68FA881A81FB68BA88D1
:101BB0005A81FB6800229A81FB6800229A73FB68B5
:101BC00018461037BD4680BD50D6017080B584B030
:101BD00000AFF860B96011461A460B46FB80134609
:101BE000BB80FB681846FEF7BBFD0B4AFB681A601A
:101BF000FB68BA685A60FB68FA881A81FB68BA8881
:101C00005A81FB6800229A81FB6800229A73FB6864
:101C100018461037BD4680BD10D6017080B483B021
:101C200000AF78607B685B6818460C37BD465DF88E
:101C3000047B704780B483B000AF7860034B1846D4
:101C40000C37BD465DF8047B704700BF58B6017085
:101C500080B483B000AF78607B681B8918460C376E
:101C6000BD465DF8047B704780B483B000AF7860F8
:101C70000B467B807B88002B02D07B687A881A8198
:101C800000BF0C37BD465DF8047B704780B483B05D
:101C900000AF78607B685B8918460C37BD465DF8FD
:101CA000047B704780B483B000AF78600B467B80C4
:101CB0007B88002B02D07B687A885A8100BF0C3762
:101CC000BD465DF8047B704780B483B000AF786098
:101CD000402318460C37BD465DF8047B704780B43E
:101CE00083B000AF7860012318460C37BD465DF81D
:101CF000047B704780B483B000AF786080231846BF
:101D00000C37BD465DF8047B704780B483B000AFEC
:101D100078607B689B7B18460C37BD465DF8047B7A
:101D2000704780B483B000AF78600B46FB707B686F
:101D3000FA789A7300BF0C37BD465DF8047B704794
:101D400080B489B000AFF860B9607A607B68002B1E
:101D500002D0BB68002B01D1002333E0BB687B615C
:101D60000023FB6129E0FB689B8901339AB2FB6881
:101D70009A810023BB611AE0FB689989BB699BB219
:101D80001A46920013441A4690001A46034613441A
:101D90009B009AB2FB699801BB6903445B007869B8
:101DA00003440A4492B21A80BB690133BB61BB6928
:101DB0003F2BE1D9FB690133FB61FA697B689A42E9
:101DC000D1D37B6818462437BD465DF8047B704745
:101DD00080B483B000AF78607B685B6818460C37CE
:101DE000BD465DF8047B704780B483B000AF786077
:101DF000034B18460C37BD465DF8047B704700BFA7
:101E000058B6017080B483B000AF78607B681B89DE
:101E100018460C37BD465DF8047B704780B483B02C
:101E200000AF78600B467B807B88002B02D07B68FC
:101E30007A881A8100BF0C37BD465DF8047B704775
:101E400080B483B000AF78607B685B8918460C373C
:101E5000BD465DF8047B704780B483B000AF786006
:101E60000B467B807B88002B02D07B687A885A8166
:101E700000BF0C37BD465DF8047B704780B483B06B
:101E800000AF7860102318460C37BD465DF8047B20
:101E9000704780B483B000AF7860012318460C37D8
:101EA000BD465DF8047B704780B483B000AF7860B6
:101EB000202318460C37BD465DF8047B704780B47C
:101EC00083B000AF78607B689B7B18460C37BD46BB
:101ED0005DF8047B704780B483B000AF78600B4638
:101EE000FB707B68FA789A7300BF0C37BD465DF8CB
:101EF000047B704780B489B000AFF860B9607A6045
:101F00007B68002B02D0BB68002B01D1002333E09B
:101F1000BB687B610023FB6129E0FB689B8901337F
:101F20009AB2FB689A810023BB611AE0FB68998929
:101F3000BB699BB21A46920013441A4690001A4697
:101F4000034613449B009AB2FB691801BB69034422
:101F50005B00786903440A4492B21A80BB6901337A
:101F6000BB61BB690F2BE1D9FB690133FB61FA69E6
:101F70007B689A42D1D37B6818462437BD465DF80A
:101F8000047B704790B482B000AF04460846114607
:101F90001A462346FB710346BB710B467B71134601
:101FA0003B71FB791A06BB791B041A437B791B0230
:101FB0001A433B79134318460837BD4690BC704717
:101FC00080B584B000AF78607B681B680A4A934292
:101FD00001D000230CE01C217868FEF763FBF86059
:101FE0007B68DB69FA689A420CBF01230023DBB2ED
:101FF00018461037BD4680BD544F4F4280B483B061
:1020000000AF786039607B683A689A6000BF0C372F
:10201000BD465DF8047B704780B483B000AF786044
:102020007B689B6818460C37BD465DF8047B70479B
:1020300080B483B000AF78607B6828331B68184693
:102040000C37BD465DF8047B704780B483B000AFA9
:1020500078607B684A3318460C37BD465DF8047BD0
:10206000704780B483B000AF78607B6893F85030DD
:10207000DBB218460C37BD465DF8047B704780B470
:1020800083B000AF78600B46FB707B68FA7883F80A
:10209000242000BF0C37BD465DF8047B704700006C
:1020A00080B400AFBFF34F8F00BF064BDB6803F473
:1020B000E0620449044B1343CB60BFF34F8F00BF72
:1020C00000BFFDE700ED00E00400FA05F0B585B0C3
:1020D00000AFF8607A603B600B467B81FB687A89D1
:1020E0001A80FA687B68901C03F140040246194686
:1020F000D1F800C04E688D68C968C2F800C056604B
:102100009560D16010331030A342EFD1FB684233A9
:1021100020220021184618F037FB7B681A69FB68FB
:102120005A66FB683A689A66FB68BA6ADA66FB68C0
:10213000FA6A1A67FB683A6B5A67FB687A6B9A67A8
:10214000FB68BA6BDA67FB6818461437BD46F0BD0A
:10215000B0B588B000AF78603F4BBB6120237B6196
:102160007B69002B1DDDBB6903F01F027B691344F3
:102170003B61BB69FB60BFF34F8F00BF374AFB6811
:10218000C2F85C32FB682033FB603B69203B3B615B
:102190003B69002BF2DCBFF34F8F00BFBFF36F8FA3
:1021A00000BF00BF2C4BFB61F869FFF709FF034636
:1021B000002B13D07B68FA69423315685468906825
:1021C000D1681D605C609860D96015695469906938
:1021D000D1691D615C619861D96139E07A68002339
:1021E00043F49E4343F05403A2F84230002343F4E7
:1021F000844343F04F03A2F844300023002200211F
:102200000120FFF7BFFE02467B68C3F846207B68CB
:102210000022A3F84A200022A3F84C207B68002269
:10222000A3F84E200022A3F850207B68002242F041
:102230000102A3F852200022A3F854207B68423305
:102240001C211846FEF72EFA02467B68C3F85E2072
:1022500000BF2037BD46B0BD0001072400ED00E0FF
:1022600080B483B000AF786039607B685A6E3B6899
:102270001340002B14BF01230023DBB218460C3798
:10228000BD465DF8047B704780B485B000AFF86050
:10229000B9601346FB71FB79002B06D0FB685A6EC0
:1022A000BB681A43FB685A6606E0FB685A6EBB6857
:1022B000DB431A40FB685A6600BF1437BD465DF821
:1022C000047B704780B582B000AF78600CF0D4FA20
:1022D000034618460837BD4680BD000080B584B06F
:1022E00000AF78607B68DB6E002B15D00023FB60AD
:1022F0007B68DB6E1B680C331B687A68D26E07F153
:102300000C01104698470346002B05D0FB6807EEEA
:10231000903AF8EEE77A01E0DFED037AB0EE670A73
:102320001037BD4680BD00BF0000000080B582B000
:1023300000AF78607B689B6E002B06D07B689B6E3D
:102340001846FFF775FE034600E0002318460837DD
:10235000BD4680BD80B582B000AF786039607B68D3
:102360001B6F002B05D07B681B6F39681846FFF781
:1023700045FE00BF0837BD4680BD80B582B000AFC6
:1023800078607B681B6F002B06D07B681B6F18463C
:10239000FFF742FE034600E0002318460837BD461B
:1023A00080BD80B588B002AFF860B96011461A46AA
:1023B0000B46FB801346BB800221F868FFF750FFF5
:1023C000034683F00103DBB2002B03D1FB685B6F94
:1023D000002B01D1012300E00023002B01D00023BA
:1023E0001AE04FF0FF337B61FB68586F07F114016F
:1023F000BB880193FB880093BB684CF2513201F01B
:1024000057FEFB68DB6F002B05D0FB68DB6F0221FA
:102410001846FFF734FE012318461837BD4680BD25
:1024200080B582B000AF786039607B685B6F002B4D
:1024300001D1002320E07B685B6F3968184601F00A
:1024400009FF7B685B6F1846FFF70BFE034683F0BE
:102450000103DBB2002B05D07B68DB6F002B01D0C2
:10246000012300E00023002B05D07B68DB6F0121F6
:102470001846FFF704FE012318460837BD4680BD05
:1024800080B582B000AF78607B685B6F002B09D0AD
:102490007B685B6F1846FFF7E4FD0346002B01D015
:1024A000012300E0002318460837BD4680BD80B5F3
:1024B00082B000AF78607B689B6F002B04D07B6894
:1024C0009B6F184603F06AFE00BF0837BD4680BD0B
:1024D00080B582B000AF786064200BF0EFFEBFF3F0
:1024E0004F8F00BFFFF7DCFD80B483B000AF034621
:1024F000FB80FB88012B03D0FB88022B02D003E07A
:10250000054B02E0054B00E0054B18460C37BD4675
:102510005DF8047B704700BF84B6017094B601700B
:10252000A4B6017080B483B000AF786039607A6877
:102530003B681340002B14BF01230023DBB2184675
:102540000C37BD465DF8047B7047000080B582B053
:1025500000AF78607B68002B01D1002348E026495A
:102560007868FDF787FF0346002B01D108233FE081
:1025700022497868FDF77EFF0346002B01D1022334
:1025800036E01F497868FDF775FF0346002B01D13F
:1025900004232DE01B497868FDF76CFF0346002BF0
:1025A00001D1012324E018497868FDF763FF034651
:1025B000002B01D180231BE014497868FDF75AFFF6
:1025C0000346002B02D14FF4807311E01049786864
:1025D000FDF750FF0346002B06D00E497868FDF743
:1025E00049FF0346002B02D14FF4007300E00023A3
:1025F00018460837BD4680BDB4B60170B8B6017044
:10260000C4B60170C8B60170D4B60170DCB60170F2
:10261000E0B60170ECB6017090B482B000AF044631
:10262000084611461A462346FB710346BB710B460A
:102630007B7113463B71FA79BB791B021A437B7994
:102640001B041A433B791B06134318460837BD4643
:1026500090BC704780B483B000AF78607B68D3F8DB
:102660000A3018460C37BD465DF8047B704780B5CC
:1026700082B000AF78607B681B891846FFF734FF93
:10268000034618460837BD4680BD80B483B000AF0E
:1026900078607B68D3F8223018460C37BD465DF869
:1026A000047B704780B483B000AF78607B681B8880
:1026B00018460C37BD465DF8047B704780B483B084
:1026C00000AF786039607B683A681A607B681846AA
:1026D0000C37BD465DF8047B7047000080B5B2B092
:1026E00002AFF860B9607A603B607B68002B02D073
:1026F0003B68002B01D1002350E17B6800221A7057
:10270000BB68002B03D0BB681B78002B01D10023D2
:1027100044E107F118037F22B968184618F03CF825
:10272000002387F8973007F118031846FDF7ACFE31
:102730000346013B07F118021344C7F8BC3008E018
:10274000D7F8BC3000221A70D7F8BC30013BC7F86C
:10275000BC3007F11803D7F8BC209A420ED3D7F843
:10276000BC301B780D2BEBD0D7F8BC301B780A2B74
:10277000E6D0D7F8BC301B78202BE1D007F1180346
:10278000C7F8B83004E0D7F8B8300133C7F8B8302C
:10279000D7F8B8301B78202BF5D0D7F8B8301B7895
:1027A000092BF0D0D7F8B8301B78002B01D10023CB
:1027B000F4E000237B6107F114031A467949D7F846
:1027C000B80018F024F8C7F8B400D7F8B430002BDC
:1027D00001D10023E2E07449D7F8B400FDF74AFEC6
:1027E0000346002B07D07149D7F8B400FDF742FE2D
:1027F0000346002B05D13A687968F86800F01EF9A5
:10280000C8E06B49D7F8B400FDF734FE0346002B4F
:1028100007D06849D7F8B400FDF72CFE0346002B1B
:1028200005D13A687968F86800F01AF9B2E06249AF
:10283000D7F8B400FDF71EFE0346002B05D13A6819
:102840007968F86800F070F9A4E05C49D7F8B40042
:10285000FDF710FE0346002B1CD107F114031A46A6
:102860005049002017F0D3FFC7F89C0007F114036C
:102870001A464C49002017F0CAFFC7F898003B6879
:1028800000937B68D7F89820D7F89C10F86800F080
:10289000C7F97FE04A49D7F8B400FDF7EBFD0346DE
:1028A000002B28D107F114031A463E49002017F0E7
:1028B000AEFFC7F8A80007F114031A4639490020F3
:1028C00017F0A5FFC7F8A40007F114031A4635490D
:1028D000002017F09CFFC7F8A0003B6801937B68BD
:1028E0000093D7F8A030D7F8A420D7F8A810F8683C
:1028F00000F08EFA4EE03349D7F8B400FDF7BAFD88
:102900000346002B10D107F114031A462549002075
:1029100017F07DFFC7F8AC003B687A68D7F8AC10B9
:10292000F86800F029FB35E02749D7F8B400FDF737
:10293000A1FD0346002B10D107F114031A461949D3
:10294000002017F064FFC7F8B0003B687A68D7F83A
:10295000B010F86800F060FB1CE01C49D7F8B40028
:10296000FDF788FD0346002B07D01949D7F8B400BE
:10297000FDF780FD0346002B05D13A687968F868B9
:1029800000F08AFB06E0D7F8B430124A396878685C
:1029900017F086FD7868FDF777FD03461846C037C7
:1029A000BD4680BDF4B60170F8B6017000B7017085
:1029B00004B701700CB7017014B701701CB7017037
:1029C00024B70170B4B601702CB7017030B7017034
:1029D00038B7017040B7017080B5ADF5047D00AF28
:1029E00007F50473A3F50373186007F50473A3F5E3
:1029F0000473196007F10C0207F50473A3F5047161
:102A000007F50473A3F503704FF4007309680068B9
:102A1000FFF764FEC7F80C02D7F80C32002B05DD77
:102A200007F10C031946044817F00EFC00BF07F528
:102A30000477BD4680BD00BF74B7017080B584B017
:102A400000AFF860B9607A60044A7968B86817F036
:102A500027FD00BF1037BD4680BD00BF78B70170AD
:102A60002DE9F0419AB008AF78613961FA607B696D
:102A70001B681846FFF7EEFD07F1300318221946D0
:102A8000FEF7C2F87B691B681846FEF731F907F1BB
:102A9000180318221946FEF7B7F87B691B68184619
:102AA000FFF7E5FD80467B691B681846FEF72DF9A8
:102AB0000346BB607B691B681846FFF7F3FD0346BE
:102AC0007B607B691B681846FFF7C4FD04467B6981
:102AD0001B681846FEF70CF905467B691B6818460B
:102AE000FFF7D3FD06467B691B681846FEF7F4F82E
:102AF000034607930696059507F11803049303947C
:102B000007F1300302937A680192BB680093434651
:102B1000044AF968386917F0C3FC00BF4837BD465E
:102B2000BDE8F0819CBA01702DE9F0412DED028BDA
:102B300094B00CAFF860B9607A60FB681B68184607
:102B4000FFF7F4FBF861FB681B681846FFF7BAFB58
:102B500003462D4AA2FB03239B09BB61FB681B684C
:102B60001846FFF7BBFB87ED050AFB681B680821C9
:102B70001846FFF775FB0346FB74FB681B68184695
:102B8000FFF77EFC0346BB74FB695FFA83F8FB69C1
:102B90001B0ADCB2FB691B0CDDB2FB691E0EFB6875
:102BA0001B681846FFF78EFB3860D7ED057AB7EE45
:102BB000E78AFB681B681846FFF7DFFB0146BB7C12
:102BC000002B01D0114B00E0114BFA7C002A01D000
:102BD000104A00E0104A0A92099308918DED068B85
:102BE0003B680493BB6903930296019500944346A6
:102BF0000A4A7968B86817F053FC00BF2037BD4611
:102C0000BDEC028BBDE8F081D34D621084BB017036
:102C100098BB0170A0BB0170B4BB0170C8BB017050
:102C2000F0B59BB012AF78613961FA60BB603B6967
:102C3000002B06D065493869FDF71CFC0346002BC4
:102C40006CD17B691B681846FEF746F8B86108210D
:102C5000B869FFF767FC0346002B01D05C4C00E02D
:102C60005C4C0221B869FFF75DFC0346002B01D0E4
:102C7000574D00E0574D0421B869FFF753FC034658
:102C8000002B01D0524E00E0524E0121B869FFF7EF
:102C900049FC0346002B02D04D4B7B6001E04D4BBD
:102CA0007B608021B869FFF73DFC0346002B02D012
:102CB000474B3B6001E0474B3B604FF48071B86984
:102CC000FFF730FC0346002B01D0414B00E0414BA5
:102CD00010934FF480730F933F4B0E933B680D930B
:102CE00080230C933D4B0B937B680A93012309933C
:102CF0003B4B08930796042306933A4B05930495A0
:102D000002230393384B0293019408230093374B1B
:102D1000374AB96BB86817F0C3FB54E0FB68002B67
:102D200005D1344AB96BB86817F0BAFB4BE0F868C4
:102D3000FFF70CFCF861FB69002B06D1FB682E4AFB
:102D4000B96BB86817F0ACFB3DE02C493869FDF76A
:102D500091FB0346002B14D17B691B680122F969A2
:102D60001846FFF791FA7B691B681846FDF7B4FF18
:102D700003460093FB68224AB96BB86817F090FBD2
:102D800021E020493869FDF775FB0346002B14D17B
:102D90007B691B680022F9691846FFF775FA7B69A1
:102DA0001B681846FDF798FF03460093FB68164A18
:102DB000B96BB86817F074FB05E03B69134AB96B4F
:102DC000B86817F06DFB2437BD46F0BD8CBC0170B0
:102DD00094BC01709CBC0170DCB60170D4B601706B
:102DE000C8B60170C4B60170B8B60170B4B601704F
:102DF000A8BC017064BD0170A0BD0170F4BD01707C
:102E0000FCBD017030BE017038BE01706CBE017037
:102E100080B58AB002AFF860B9607A603B60BB6889
:102E2000002B06D04A49B868FDF724FB0346002B67
:102E300010D1FB681B681846FFF722FB0346002BE6
:102E400001D0444B00E0444B444AF96AB86A17F099
:102E500027FB79E04249B868FDF70CFB0346002BDD
:102E600041D10023FB6100237B837B68002B19D0B9
:102E70007868FDF709FB0346042B0ED17B681878B0
:102E80007B68013319787B6802331A787B680333D7
:102E90001B78FFF7C1FBF86104E0786816F0C0FE0C
:102EA00003467B833B68002B04D0386816F0B8FEDD
:102EB00003467B83FB6818687A8B0023F969FFF768
:102EC00070FA0346002B08D07B8B0093FB69254AE0
:102ED000F96AB86A17F0E4FA36E0234AF96AB86A80
:102EE00017F0DEFA30E02149B868FDF7C3FA03466F
:102EF000002B24D100237B617B68002B13D07868E2
:102F0000FDF7C2FA0346042B0DD17B6818787B6865
:102F1000013319787B6802331A787B6803331B7896
:102F2000FFF77AFB7861FB681B6879691846FFF741
:102F300077FA0F4AF96AB86A17F0B2FA04E00D4A54
:102F4000F96AB86A17F0ACFA2037BD4680BD00BFF9
:102F500014B70170ACBE0170B4BE0170BCBE01708C
:102F6000D0BE0170D8BE017014BF017060BF017087
:102F700068BF01708CBF017080B586B000AFF8608B
:102F8000B9607A603B60BB68002B06D01B49B8680B
:102F9000FDF770FA0346002B14D1FB681B6808216B
:102FA0001846FFF75DF90346FB75FB7D002B01D04A
:102FB000134B00E0134B144A3968786817F070FA25
:102FC00000BF16E01149B868FDF754FA0346002B1C
:102FD0000AD1FB681B681846FFF769FA0C4A396882
:102FE000786817F05DFA04E00A4A3968786817F0E3
:102FF00057FA00BF1837BD4680BD00BF14B7017037
:10300000C8BF0170D8BF0170ECBF017008C001706B
:1030100010C0017034C0017080B586B000AFF86098
:10302000B9607A603B60BB68002B0BD1FB681B6802
:103030001846FFF7A2F90346144A3968786817F072
:103040002FFA1FE0B86816F0EBFD78617B69092B59
:1030500004DD7B6942F21072934206DD7B690C4A03
:103060003968786817F01CFA0CE0FB681B687A690D
:1030700011461846FFF76EF97B69064A3968786889
:1030800017F00EFA1837BD4680BD00BF5CC0017056
:1030900080C00170C0C0017080B584B000AFF8601E
:1030A000B9607A60064A7968B86817F0F9F9FB6880
:1030B0001B681846FFF70CFA00BF1037BD4680BDED
:1030C000E4C0017080B483B000AF7860044A7B68CC
:1030D0001A607B6818460C37BD465DF8047B704764
:1030E000A0D7017080B584B000AFF860B9607A6095
:1030F000FB681846FFF7E6FF0C4AFB681A60FB689E
:10310000BA685A60FB687A689A60FB680022C3F864
:103110008C20FB680C3380220021184617F034FB0A
:10312000FB6818461037BD4680BD00BFB4D701709C
:1031300080B582B000AF7860064817F085F8064B7E
:103140001B689B68184616F0A9FF00BF0837BD46EC
:1031500080BD00BF0CC101704000002480B584B068
:1031600000AF78604FF4FA700BF0A8F84B4817F0F6
:10317000DBF84B4817F0D8F84A4817F0D5F84A481A
:1031800017F0D2F87868FFF7D3FF0023FB737B6852
:103190005B681B6810331B687A68506807F10F0181
:1031A000322298470346002BF1D0FB7B0D2B02D037
:1031B000FB7B0A2B25D13D4817F0B6F87B68D3F886
:1031C0008C307A68134400221A737B68D3F88C30F1
:1031D000002B12D07B689A687B680C331946104626
:1031E000FFF7FAFB7B680022C3F88C207B680C3366
:1031F00080220021184617F0C7FA7868FFF798FF79
:103200004AE0FB7B082B02D0FB7B7F2B1CD17B6829
:10321000D3F88C30002B3FD07B68D3F88C305A1E0B
:103220007B68C3F88C207B68D3F88C307A681344B1
:1032300000221A731E4817F007F81E4B1B689B6884
:10324000184616F02BFF27E0FB7B1F2B9FD9FB7B3B
:103250007E2B9CD87B68D3F88C307E2B97D8F87B5C
:103260007B68D3F88C30591C7A68C2F88C107A6865
:10327000134402461A737B68D3F88C307A6813447F
:1032800000221A73FB7B184616F0F0FF094B1B68EF
:103290009B68184616F002FF79E700BF1CC1017059
:1032A00048C1017070C10170A0C10170CCC1017032
:1032B000D0C101704000002480B483B000AF7860BA
:1032C0007B68243318460C37BD465DF8047B704795
:1032D00080B483B000AF78607B68083318460C3741
:1032E000BD465DF8047B704780B584B000AF786060
:1032F0007B68FB60F86800F055F900BF1037BD46E9
:1033000080BD80B584B000AF78607B68FB60F868F2
:10331000FFF7D2FF0346184611F0C6FEF868FFF724
:10332000D7FF03461B78002B14BF01230023DBB219
:10333000002B06D0F868FFF7BFFF0346184612F0CF
:103340008DFF00BF1037BD4680BD80B584B000AF93
:1033500078607B68FB60F868FFF7AEFF03461846AD
:1033600011F086FEF868FFF7B3FF03461B78002BC9
:103370000CBF01230023DBB2002B03D0F86800F060
:1033800011F906E0F868FFF797FF0346184612F0B8
:1033900013FE00BF1037BD4680BD80B584B000AFBE
:1033A00078607B68FB60F86800F09EF800BF10371B
:1033B000BD4680BDB0B584B000AFF860B9607A603A
:1033C000FB681846FFF77EFE104AFB681A60FB6830
:1033D000BA685A60FB687A6803F1080415460FCD95
:1033E0000FC495E8030084E80300FB68002283F81B
:1033F0002020FB68BA689A657B685A69FB68DA65C1
:10340000FB6818461037BD46B0BD00BFC8D7017075
:1034100080B582B000AF78602C4816F085FF7B68DD
:103420005B681B6808331B687A68526810469847C7
:10343000034683F00103DBB2002B06D0244816F0CC
:1034400073FF00200AF0C6FE3CE07B685B681B68E7
:1034500024331B687A685268104698470346194619
:103460001C4816F0F1FE1C4816F05EFF02E01B48F7
:1034700016F05AFF7B685B681B680C331B687A6820
:1034800052684FF47A7110469847034683F001035F
:10349000DBB2002BEBD1124816F046FF79681148D9
:1034A00015F0F2FA02E00A200AF008FF7B6893F8B0
:1034B0002030DBB283F00103DBB2002BF3D178685C
:1034C00000F0CEF80837BD4680BD00BFD4C1017002
:1034D000F0C1017028C2017050C2017080C2017039
:1034E000A8C201709B330070B0B58AB004AF786099
:1034F0007B681B7A002B09D17B68DB687B617B686A
:103500001B693B617B685B69FB6005E000237B61B5
:1035100000233B610023FB607B6803F158027B685A
:103520001A647B6803F124007B68583307F10C04AC
:1035300007F1100207F11401174D0295174D01957F
:103540000093234611F0F2FC7B682433184611F0F7
:1035500077FD7B682433184611F08AFD7B6824339D
:10356000184611F073FD7B681B7A002B03D1786835
:1035700000F018F807E00A4816F0D6FE7B682433FE
:10358000184612F019FD7B68012283F8202000BF45
:103590001837BD46B0BD00BFA5890170F98C017018
:1035A000C4C2017080B588B002AF78607B68DB6808
:1035B0007B617B681B693B617B685B69FB607B6847
:1035C00003F1240007F10C0307F1100207F11401C5
:1035D00011F080FC7B68DB68D9B27B68DB681B0A72
:1035E000DAB27B68DB681B0CD8B27B68DB681B0E29
:1035F00000930346034816F027FE00BF1837BD4668
:1036000080BD00BFE8C2017080B584B000AF7860B3
:1036100039600023FB6019E07B682433184615F0FD
:10362000B5FB7B682433184612F056FC0346002B8A
:1036300014BF01230023DBB2002B01D001230AE0D9
:103640000A200AF03BFEFB680A33FB60FA683B681D
:103650009A42E1D3002318461037BD4680BD0000D2
:1036600080B586B000AF78607B681B7A022B2ED1C4
:103670007B689B691946594816F0E6FD7B689B6993
:1036800019467868FFF7C0FF034683F00103DBB2F9
:10369000002B12D0524816F047FE7968514815F0B9
:1036A0008FF938613B69002B03D039694E4816F019
:1036B000CBFD64200AF002FE09E07B68283318463F
:1036C00013F09EFB03461946484816F0BDFD002343
:1036D000FB750123BB757B682433184615F056FB38
:1036E0007B681B7A012B1ED1FB7D83F00103DBB2CB
:1036F000002B18D07B682433184612F0EDFB0346EC
:10370000002B14BF01230023DBB2002B0BD07B68FE
:103710002833184613F074FB03461946334816F055
:1037200093FD0123FB757B685B681B6810331B6886
:103730007A685268104698470346FB73BB7D002B9E
:1037400010D0FB7B83F00103DBB2002B0AD02848AA
:1037500016F0EAFD7968274815F032F90023FB7569
:103760000023BB75BB7D83F00103DBB2002B30D09F
:10377000FB7B002B2DD0204816F0D6FD79681F4822
:1037800015F01EF97B681B7A022B20D17B689B69A0
:1037900019467868FFF738FF034683F00103DBB270
:1037A000002B0AD00E4816F0BFFD79680D4815F0C1
:1037B00007F964200AF082FD09E07B682833184687
:1037C00013F01EFB03461946084816F03DFD012381
:1037D000BB750A200AF072FD7DE700BF14C30170BB
:1037E0004CC30170E93200708CC30170CCC301700E
:1037F000F0C301700333007010C401704B330070CC
:1038000080B483B000AF78607B6893F82030DBB27F
:10381000002B06D07B6828331B68002B01D00123C6
:1038200000E0002318460C37BD465DF8047B704766
:1038300080B489B000AFF860B9601346FB80FB68C4
:103840003B61FB88FB830023BB6128E03A69BB69CD
:1038500013441B781BB21B021AB2B7F91E30534037
:103860001BB2FB8300237B6113E0B7F91E30002BF2
:1038700009DAB7F91E305B001AB241F22103534056
:103880001BB2FB8302E0FB8B5B00FB837B69013394
:103890007B617B69072BE8DDBB690133BB61BA69DA
:1038A000BB689A42D2D3FB8B18462437BD465DF8DD
:1038B000047B704780B584B000AFF8607B600B4636
:1038C0007B8113463B81FB68002242F045021A705F
:1038D000002242F050025A70FB6801229A70FB6885
:1038E0003A7FDA70FB687A899A80FB683A89DA80D5
:1038F000FB687A689A60FB683A8B9A8197F8203067
:10390000002B11D07B6A002B0ED03B8B002B0BD0F1
:103910003B8B4FF6FF721946786AFFF789FF034623
:103920001A46FB68DA8105E0FB6800229A730022E0
:10393000DA7300BF00BF1037BD4680BD80B483B0CE
:1039400000AF786039603B680F2B01D8052318E081
:103950007B681B889BB245F24502934201D001234C
:103960000FE07B689B78012B01D0022309E07B6884
:103970009B899BB210333A689A4201D2052300E03A
:10398000002318460C37BD465DF8047B70470000E5
:1039900080B584B000AFF860B9603B601346FB802F
:1039A000FB681846FFF78EFB184AFB681A60FB6835
:1039B000BA685A60FB68FA881A81FB683A68DA606C
:1039C000FB68BA691A61FB684FF080725A61FB6844
:1039D00001221A83FB680022DA61FB6800221A6266
:1039E000FB68012283F82420FB68DB68002B08D0E9
:1039F000FB68DB681B6808331B68FA68D2681046EE
:103A00009847FB6818461037BD4680BDDCD701706B
:103A100080B588B000AF78603E4816F085FC02E0C3
:103A200064200AF04BFC7B685B681846FFF7E8FEF1
:103A3000034683F00103DBB2002BF1D14CF250318D
:103A4000354816F001FC00220021202013F0C6FBAF
:103A5000B861BB69002B06D1304816F065FC002028
:103A60000AF0B8FB52E04CF250322D49B86913F01D
:103A70004BFC78617B69002B0AD07969294816F0E4
:103A8000E3FBB86913F00EFC00200AF0A3FB3DE055
:103A9000BB69FA221A620AF0EFFEF8617B685B6884
:103AA0001846FFF7ADFE034683F00103DBB2002B9F
:103AB00003D0C8200AF002FCF0E70AF0DDFE38610E
:103AC0003A69FB69D31AB3F57A7F05D3B969786887
:103AD00000F02AF83B69FB610023FB6007F10C034F
:103AE0001946B86913F010FE78617B69002BD5D1B7
:103AF000FB68002BD2D0FB681A46B969786800F0E1
:103B00009BF8FB68184614F05DFEC7E72037BD46FA
:103B100080BD00BF34C401706CC40170A8C40170C2
:103B20002C060270E4C4017080B594B004AF7860D4
:103B3000396007F11003BB6307F1100310337B6397
:103B40000AF09AFE02467B6B1A607B681A697B6BEF
:103B50005A607B6893F824207B6B1A727B6893F819
:103B60002430022B01D1012200E000227B6B5A722B
:103B70007B6B002262F01B029A72002242F00C0260
:103B8000DA72FA23FB877B68DB68002B17D00023EF
:103B9000BB607B68DB681B680C331B687A68D26883
:103BA00007F10801104698470346002B07D0BB6871
:103BB0009BB21A46920013445B009BB2FB877B6B5F
:103BC000FA8F9A817B68DB699AB27B6BDA817B68BA
:103BD00019897B681B6A5A1C7B681A627B681B6A9E
:103BE00000220392002202920022019210220092EF
:103BF0000122B86BFFF75EFE14F0D8FD38633B6B13
:103C0000002B15D007F1100320221946386B14F051
:103C1000EBFD4FF0FF33FB6007F10C024CF2503329
:103C2000396B386813F0BAFB386B14F0CBFD00E049
:103C300000BF4037BD4680BD80B5A2B004AFF8607C
:103C4000B9607A6000237B650023A7F8523007F142
:103C5000520207F154031946786814F0E7FDB7F8EB
:103C600052300F2B40F2D8807B6D7B67B7F8523013
:103C70001946786FFFF762FE0346002B14BF01233D
:103C80000023DBB2002B40F0C9807B6FDB889BB246
:103C9000022B40F0C8807B6F9B899BB2072B40F2C0
:103CA000BF807B6D10333B673B6F9B889BB2002BC3
:103CB00007D03B6F9B889AB2FB681B899A4240F001
:103CC000B18007F11003FB6607F110031033BB66E8
:103CD0003B6F1A68BB6E1A60FB681A89BB6E9A80CC
:103CE000FB6893F824301A46BB6EDA80FB685B6889
:103CF0001846FEF79DF90246BB6E9A60FB685B684A
:103D00001846FEF7A2F978667B6E002B07D0BB6ED3
:103D10000C330622796E184616F0FFFD06E0BB6EE6
:103D20000C3306220021184616F02EFDFB681A8B74
:103D3000BB6E5A82FB681A69BB6E5A610AF09CFD21
:103D40000246BB6E9A61BB6E00221A7700225A7738
:103D500000229A770022DA77BB6E002283F82020B7
:103D6000002283F82120002283F82220002283F8F9
:103D70002320BB6E002283F82420002283F8252014
:103D8000002283F82620002283F82720FB685A6946
:103D9000BB6E9A62FB68DA69BB6EDA62FB681989EE
:103DA000FB681B6A5A1CFB681A62FB681B6A0022CC
:103DB00003920022029202220192302200920322F8
:103DC000F86EFFF777FD14F0F1FC38663B6E002BC0
:103DD00029D007F1100340221946386E14F004FD73
:103DE0007B680833FB657B689B89A7F85A30B7F876
:103DF0005A30FA6D396EB86813F0D0FA386E14F094
:103E0000E1FCF86D12F0FCFF0146B7F85A301A4693
:103E1000064816F019FA06E000BF04E000BF02E011
:103E200000BF00E000BF7837BD4680BD18C50170F7
:103E300080B586B000AFF860B9601346FB80FB68C0
:103E40001846FFF73FF91F4AFB681A60FB68BA681B
:103E50005A60FB68FA881A81FB680022DA64FB6802
:103E6000002283F85020FB684CF25132A3F858200E
:103E7000FB680022DA65FB6800221A66FB680022F4
:103E80005A66FB684FF0FF325A6500237B6110E0F1
:103E9000FA687B690133DB00134400225A60FA6838
:103EA0007B690133DB00134400229A607B69013394
:103EB0007B617B69072BEBD9FB6818461837BD4639
:103EC00080BD00BFF0D7017080B584B000AFF8604E
:103ED000B9603B601346FB80FB881A46B968F868F6
:103EE000FFF7A6FF3968F86800F006F8FB68184687
:103EF0001037BD4680BD0000B0B588B002AF786015
:103F000039607B68DB6C072B05D90821474816F020
:103F10009BF9002386E000237B612DE07A687B69B2
:103F20000133DB0013445B683A689A421AD07A681E
:103F30007B690133DB0013445B681B6808331A6834
:103F400079687B690133DB000B445B681846904756
:103F500004463B681B6808331B683868984703466B
:103F60009C4201D1012300E00023002B01D000235B
:103F700058E07B6901337B617B68DB6C7A699A422C
:103F8000CCD37B68DB6C7A680133DB0013443A687E
:103F90005A607B68DC6C0AF06FFC01467A68631C2F
:103FA000DB00134499607B68DB6C5A1C7B68DA6425
:103FB00007F1080300221A601A713B681B68083376
:103FC0001B683868984738613B69DBB23B723B69D4
:103FD0001B0ADBB27B723B691B0CDBB2BB723B6919
:103FE0001B0EDBB2FB723B681B680C331B68386826
:103FF000984704463B681B6810331B68386898472D
:1040000003461D463B681B6818331B683868984791
:10401000034607F1080200932B462146044816F098
:1040200013F9012318461837BD46B0BD48C50170C5
:104030008CC5017080B584B000AF78603960002312
:10404000FB602BE07A68FB680133DB0013445B689C
:10405000002B16D07A68FB680133DB0013445B68E1
:104060001B6808331A687968FB680133DB000B446E
:104070005B681846904702463B68934201D1012392
:1040800000E00023002B06D07A68FB680133DB00D8
:1040900013445B6808E0FB680133FB607B68DB6C02
:1040A000FA689A42CED3002318461037BD4680BD29
:1040B0002DE9F04188B002AFF860B9603B6013466B
:1040C000FB80FB68BA6812685A65FB68FA88A3F837
:1040D00058203B68002B51D03968F868FFF7AAFFD9
:1040E00038613B69002B00F0A8803B691B683033C6
:1040F0001B680121386998473B8E002B07D03B692C
:104100001B6814331B683A8E114638699847BB8E7A
:10411000002B0AD03B8E642B07D93B691B681C33EC
:104120001B68BA8E1146386998473B691B680C3387
:104130001B68386998470446FB685433184612F0E8
:104140005FFE0546FB68B3F8583098463B691B682C
:1041500010331B683869984703461E463B691B6845
:1041600018331B6838699847034601930096434605
:104170002A462146354816F067F85EE000237B6149
:1041800049E0FA687B690133DB0013445B68002B6C
:104190003ED0FA687B690133DB0013445B681B681F
:1041A00030331A68F9687B690133DB000B445B68C4
:1041B0000121184690473B8E002B11D0FA687B698D
:1041C0000133DB0013445B681B6814331A68F96819
:1041D0007B690133DB000B445B68398E18469047DE
:1041E000BB8E002B14D03B8E642B11D9FA687B69EF
:1041F0000133DB0013445B681B681C331A68F968E1
:104200007B690133DB000B445B68B98E184690472D
:104210007B6901337B61FB68DB6C7A699A42B0D3BE
:10422000FB685433184612F0EBFD0146FB68B3F807
:1042300058301A46064816F007F8FB68012283F842
:10424000502000BF1837BD46BDE8F081E0C50170C1
:1042500030C6017080B586B000AF786039603B68C9
:10426000002B4FD039687868FFF7E4FEB860BB6870
:10427000002B11D0BB681B6830331B680021B86865
:104280009847BB681B680C331B68B868984703469F
:104290001946374815F0D8FF0023FB7500233B6112
:1042A00026E07A683B690133DB0013445B68002B2E
:1042B00015D07A683B690133DB0013445B681B68E7
:1042C0002C331A6879683B690133DB000B445B6867
:1042D000184690470346002B01D0012300E000233D
:1042E000002B02D00123FB7507E03B6901333B61E2
:1042F0007B68DB6C3A699A42D3D37B68FA7D83F89A
:10430000502030E00023FB601CE07A68FB6801333A
:10431000DB0013445B68002B11D07A68FB68013323
:10432000DB0013445B681B6830331A687968FB68EC
:104330000133DB000B445B68002118469047FB68A3
:104340000133FB607B68DB6CFA689A42DDD37B68E3
:10435000002283F850207B68196E7B685B6E1A46DA
:10436000044815F071FF00BF1837BD4680BD00BF7F
:1043700068C6017098C601702DE9B04F8CB000AFCF
:104380007860964815F0D0FF02E0642009F096FFAF
:104390007B685B681846FFF733FA034683F0010336
:1043A000DBB2002BF1D17B68B3F8583019468C484A
:1043B00015F04AFF0023FB620FE0002200212020BD
:1043C00012F00CFFF862FB6A002B06D1854815F04D
:1043D000ABFF4FF4FA7009F071FFFB6A002BECD0D1
:1043E0000AF04AFA38610023BB6209E07A68BB6AC6
:1043F0000133DB0013443A699A60BB6A0133BB6244
:104400007B68DB6CBA6A9A42F0D37B6893F85030D1
:10441000DBB283F00103DBB2002B0ED17B685B685B
:104420001846FFF7EDF9034683F00103DBB2002BDA
:1044300003D17B68DB6C002B01D1012300E000235A
:10444000002B18D0322009F039FF0AF015FA386134
:1044500000237B6209E07A687B6A0133DB00134446
:104460003A699A607B6A01337B627B68DB6C7A6AAB
:104470009A42F0D3B0E00AF0FFF9386100233B62C2
:10448000A1E03B6A0133DB007A6813440433FB602C
:10449000FB681B68002B0ED0FB681B681B682C3365
:1044A0001B68FA68126810469847034683F00103B8
:1044B000DBB2002B01D0012300E00023002B7ED1D2
:1044C000FB681B681B6810331B68FA68126810468B
:1044D00098470346FB83FB681B681B6818331B68FF
:1044E000FA681268104698470346BB83FB8B002B83
:1044F00001D10123FB83BB8B002B01D10123BB83A3
:10450000BB8B4FF47A7203FB02F2FB8BB2FBF3F32B
:10451000BB61BB69002B01D10123BB61BB690022D8
:104520009846914642464B464FF000004FF000013E
:10453000590141EAD261500102460B46B2EB080430
:1045400063EB09054FF000024FF00003AB0043EAB4
:104550009473A20014461D4614EB080A45EB090BA0
:104560004FF000024FF000034FEACB0343EA5A73C7
:104570004FEACA0292469B46504659464FF47A7219
:104580004FF00003FBF75CFF02460B4613467B61CE
:104590007B69002B01D101237B61FB685B683A6971
:1045A000D31A7A699A420BD8FB681B681A46F96AD3
:1045B000786800F019F8FB683A695A6000E000BFBB
:1045C0003B6A01333B627B68DB6C3A6A9A42FFF4D8
:1045D00058AF012009F072FE17E700BFE4C6017072
:1045E0001CC701706CC701702DE9B04F96B004AFC5
:1045F000F860B9607A604FF4B8633B647B681B680D
:1046000010331B68786898470346FB877B681B68F4
:1046100020331B68786898470346BB877B681B6814
:1046200024331B687868984703467B877B681B6840
:1046300028331B687868984778637B6B002B00F001
:10464000C9807B681B6818331B68786898470346E5
:104650007B867B8E642B04D87B8E002B01D07B8ED7
:1046600000E00123A7F8463040F29C527B6BB2FB7E
:10467000F3F3FB62B7F84630FA6A9A4202D2FB6A59
:10468000A7F84630574BBB62574B7B62574B3B6298
:104690007B681B6834331B68B7F84620396A786832
:1046A0009847F861FB69002B00F09680FB699AB28D
:1046B0007B6B9BB212FB03F37B837B8B14333B83BB
:1046C0000AF0DAF8034600229846914642464B46E5
:1046D0004FF000004FF00001590141EAD261500152
:1046E00002460B46B2EB080463EB09054FF00002EB
:1046F0004FF00003AB0043EA9473A20014461D463A
:1047000014EB080A45EB090B4FF000024FF00003D1
:104710004FEACB0343EA5A734FEACA0292469B46DA
:1047200052465B46796A0A604B607B681B680833B7
:104730001B687868984702467B6A9A607B6AFA8FA2
:104740009A81FB699AB27B6ADA817B6ABA8F1A8294
:104750007B6A7A8F5A82FB681989FB68DB6D5A1C69
:10476000FB68DA65FB68DA6D00230393002302938C
:10477000082301933B8B009313464FF40072B86AF1
:10478000FFF798F814F012F878617B69002B24D0B9
:104790003B8B10337B827B8A1A461249786914F06E
:1047A00023F8FB6803F15402FB68B3F858307969C9
:1047B000B86812F0F3FD786914F004F8FB681B6E1A
:1047C0005A1CFB681A66FB685A6EFB691A44FB6840
:1047D0005A6602E000BF00E000BF4837BD46BDE8B2
:1047E000B08F00BF148A0224248A0224388A02244B
:1047F00080B483B000AF78607B6893F824301846AB
:104800000C37BD465DF8047B704780B483B000AFC1
:1048100078607B681B6918460C37BD465DF8047BE1
:10482000704780B483B000AF78607B685B691846DE
:104830000C37BD465DF8047B704780B483B000AF91
:1048400078607B681B8B18460C37BD465DF8047B8F
:10485000704780B483B000AF78607B68DB6918462E
:104860000C37BD465DF8047B704780B483B000AF61
:1048700078607B68DB6C18460C37BD465DF8047BBE
:10488000704780B483B000AF786039607B68DB6CC0
:104890003A689A4206D27A683B680133DB001344D7
:1048A0005B6800E0002318460C37BD465DF8047BCA
:1048B000704780B483B000AF78607B6893F8213094
:1048C00018460C37BD465DF8047B704780B400AFD6
:1048D000BFF34F8F00BF064BDB6803F4E06204496F
:1048E000044B1343CB60BFF34F8F00BF00BFFDE706
:1048F00000ED00E00400FA0580B500AFBFF34F8F74
:1049000000BFFFF7E3FF000080B584B000AFF860A0
:10491000B9607A603B60FB681846FEF7D3FB104A2B
:10492000FB681A60FB68BA685A60FB687A689A602C
:10493000FB683A68DA60FB68FA691A61FB683A6AF0
:104940005A61FB687A6A9A61FB683A8B9A83FB68C2
:1049500000221A62FB6818461037BD4680BD00BFB2
:1049600004D8017080B588B000AF7860444815F075
:10497000DBFC02E0642009F0A1FC7B685B68184660
:10498000FEF73EFF034683F00103DBB2002BF1D1BB
:104990004CF252313B4815F057FC00220021102008
:1049A00012F01CFCF861FB69002B06D1364815F0AB
:1049B000BBFC002009F00EFC5EE04CF252323349A1
:1049C000F86912F0A1FCB861BB69002B0AD0B96983
:1049D0002F4815F039FCF86912F064FC002009F04A
:1049E000F9FB49E0FF21F86912F0ACFCB861BB6942
:1049F000002B0AD0B969274815F026FCF86912F097
:104A000051FC002009F0E6FB36E000237B6107F152
:104A100014031946F86912F05BFDB861BB69002BFD
:104A200026D17B69002B23D0786907F10E0207F1AC
:104A30001001002312F044FC07F11003184612F095
:104A4000DFF90346FA891946134815F0FDFB7B6927
:104A50001946786800F0B8F87B69184612F026FD10
:104A60007B69184612F01EFC0C4815F05DFC02E054
:104A7000642009F023FCC8E72037BD4680BD00BF95
:104A8000ACC70170E0C7017018C801702C06027035
:104A90004CC8017080C80170B8C80170ECC80170C2
:104AA00080B483B000AF786039607B683A681A6080
:104AB0007B6800225A607B6800229A607B68002233
:104AC000DA607B6818460C37BD465DF8047B70479A
:104AD00080B582B000AF78607B685B68002B04D043
:104AE0007B685B68184613F06DFE7B6818460837D4
:104AF000BD4680BD80B588B000AFF860B9607A600F
:104B00000023FB6156E0FB685B68002B05D0FB6867
:104B10009A68FB68DB689A4227D3FB685B68002BC6
:104B200007D0FB685B68184613F04CFEFB68002258
:104B30005A60FB681A68FB6804331946104612F085
:104B4000E3FDB861BB69002B03D1FB685B68002BF8
:104B500001D1002333E0FB685B681B681B891A46A0
:104B6000FB68DA60FB6800229A60FB68DA68FB6821
:104B70009B68D31A7B617A68FB69D31A7A6993427E
:104B800028BF13463B61FB685B681868BA68FB691D
:104B9000D1183B699AB2FB689B689BB20CF082FA11
:104BA000FB689A683B691A44FB689A60FA693B693A
:104BB0001344FB61FA697B689A42A4D30123184627
:104BC0002037BD4680BD000080B58EB002AF786052
:104BD000396007F12A0207F12C010023386812F02E
:104BE0006FFB07F1180339681846FFF759FF07F103
:104BF000080107F1180310221846FFF77BFF034650
:104C000083F00103DBB2002B36D13B8945F245022C
:104C1000934208D0FA890023009301233968786809
:104C200000F0B4FF2BE0BB8AB3F5006F08D9FA8916
:104C30000023009305233968786800F0A7FF1EE081
:104C4000BB8A002B0DD0BB8A1A4607F11803104906
:104C50001846FFF74FFF034683F00103DBB2002B3A
:104C60000CD107F1080207F12C030093084B3968B7
:104C7000786800F00FF8BAE700BF00E000BF07F166
:104C800018031846FFF724FF3037BD4680BD00BF2C
:104C9000D48F022490B5ADF27C5D04AF07F5AD640E
:104CA000A4F25C54206007F5AD60A0F5AC60016033
:104CB00007F5AD61A1F264510A6007F5AD62A2F596
:104CC000AD62136007F5AD63A3F264531B689A7974
:104CD000DB791B021343A7F85435B7F85435B3F505
:104CE000F87F00F00A87B7F85435B3F5F87F00F283
:104CF0002387B7F85435B3F5807F00F09F80B7F86D
:104D00005435B3F5807FC0F01787B7F85435B3F545
:104D1000A87F00F21187B7F85435B3F5887FC0F04B
:104D20000B87B7F85435A3F58873402B00F204873E
:104D300001A252F823F000BFB5500070DB510070A3
:104D4000395B0070395B0070395B0070395B007053
:104D5000395B0070395B0070395B0070395B007043
:104D6000395B0070395B0070395B0070395B007033
:104D7000395B0070395B007097520070395B0070CE
:104D8000395B0070395B0070395B0070395B007013
:104D9000395B0070395B0070395B0070395B007003
:104DA000395B0070395B0070395B0070395B0070F3
:104DB000395B0070395B0070DF540070395B007044
:104DC00025560070395B007031570070395B0070F8
:104DD0003B580070395B00700B590070395B0070F4
:104DE000395B0070395B0070395B0070395B0070B3
:104DF000395B0070395B0070395B0070395B0070A3
:104E0000395B0070395B0070395B0070395B007092
:104E1000395B0070395B0070395B0070395B007082
:104E2000395B0070395B0070395B0070395B007072
:104E3000395B0070395B00705B59007007F52573B2
:104E4000C7F8E83407F525731033C7F8E434D7F80A
:104E5000E43400221A7000225A7000229A70002254
:104E6000DA7007F5AD63A3F25C531B689A8BD7F831
:104E7000E4349A8007F5AD63A3F25C531B689B682A
:104E80001846FFF7B5FC03461A46D7F8E434DA8033
:104E900007F5AD63A3F25C531B685B681846FDF72A
:104EA000C7F80246D7F8E4349A6007F5AD63A3F279
:104EB0005C531B685B681846FDF7C7F8C7F8E00449
:104EC000D7F8E034002B09D0D7F8E4340C330622AD
:104ED000D7F8E014184615F020FD07E0D7F8E434C1
:104EE0000C3306220021184615F04EFC07F5AD6381
:104EF000A3F25C531B685B69002B0BD007F5AD6315
:104F0000A3F25C531B685B691846FBF7FEFE034681
:104F10001A460AE007F5AD63A3F25C531B689B6871
:104F20001846FFF78AFC03461A46D7F8E4345A823B
:104F300007F5AD63A3F25C531B685B69002B0AD0D5
:104F400007F5AD63A3F25C531B685B691846FDF778
:104F500081FB034609E007F5AD63A3F25C531B68D0
:104F60009B681846FFF751FC0346D7F8E4245361C9
:104F700009F082FC0246D7F8E4349A61D7F8E434A9
:104F800000221A7700225A7700229A770022DA77D5
:104F9000D7F8E434002283F82020002283F821206F
:104FA000002283F82220002283F82320D7F8E4345B
:104FB000002283F82420002283F82520002283F891
:104FC0002620002283F8272007F5AD63A3F25C5367
:104FD0001B685B69002B0AD007F5AD63A3F25C5335
:104FE0001B685B691846FBF783FE034609E007F57B
:104FF000AD63A3F25C531B689B681846FFF711FC76
:105000000346D7F8E424936207F5AD63A3F25C533B
:105010001B685B69002B0AD007F5AD63A3F25C53F4
:105020001B685B691846FBF757FE034609E007F566
:10503000AD63A3F25C531B689B681846FFF709FC3D
:105040000346D7F8E424D36207F5AD63A3F25C53BB
:105050001B68998B07F5AD63A3F25C531B681B6A51
:105060005A1C07F5AD63A3F25C531B681A6207F57F
:10507000AD63A3F25C531B681B6A002203920022FB
:105080000292022201923022009240F20112D7F8DD
:10509000E804FEF70FFC07F5257107F5AD63A3F5EE
:1050A000AC600023009301234022006812F0F2F963
:1050B00000F065BD0023C7F864350023A7F862350A
:1050C0000023A7F8603507F5AD63A3F264531B68AE
:1050D0009B899BB2072B45D907F5AD63A3F5AD635B
:1050E0001B68C7F8EC34D7F8EC345B68642B04D940
:1050F000D7F8EC345B68C7F86435D7F8EC341B8814
:105100009BB2002B05D0D7F8EC341B889BB2C7F8B4
:105110006435D7F8EC345B889BB2002B0FD0D7F8FE
:10512000EC345B889BB242F21072934207D0D7F8FE
:10513000EC349A78DB781B021343A7F86235D7F872
:105140006435002B0ED0D7F8EC345B68002B09D007
:10515000D7F8EC345B68642B04D8D7F8EC345B6880
:10516000A7F860354FF0FF33C7F8DC3407F5AD63BF
:10517000A3F25C531B68D86807F2DC41B7F86035CE
:105180000193B7F862350093D7F864354CF2513289
:10519000FEF78EFF07F5AD63A3F25C531B689B68B7
:1051A00002211846FCF76BFF07F5AD63A3F26453C9
:1051B0001B68DB889AB2B7F8623507F5AD61A1F5D7
:1051C000AC6107F5AD60A0F25C5000930023096864
:1051D000006800F0DBFC00F0D2BC0023C7F85C35AF
:1051E00007F5AD63A3F264531B689B899BB2072B41
:1051F00015D907F5AD63A3F5AD631B68C7F8F034A7
:10520000D7F8F0345B68642B03D9D7F8F0345B68C7
:1052100003E0D7F8F0341B889BB2C7F85C3507F57C
:10522000AD63A3F25C531B68DB68D7F85C151846C6
:10523000FFF710F807F5AD63A3F25C531B68DB685A
:105240001846FCF70EFF034683F00103DBB2002B88
:1052500009D007F5AD63A3F25C531B689B6801217D
:105260001846FCF70CFF07F5AD63A3F264531B6807
:10527000DB889AB207F5AD63A3F5AC6107F5AD63C2
:10528000A3F25C500023009300230968006800F03B
:105290007DFC00F074BC07F5AD63A3F25C531B68A2
:1052A000DB681846FFF7E1FAC7F80C05D7F80C35AC
:1052B0009BB25B019BB20433A7F80A3507F525734F
:1052C000C7F8043507F525731033C7F8003507F51F
:1052D00025731433C7F8FC34D7F80C359AB2D7F8D5
:1052E00000351A80D7F8003500229A700022DA7053
:1052F0000023C7F85835A9E007F5AD63A3F25C5366
:105300001B68DB68D7F858151846FFF7BAFAC7F8D4
:10531000F404D7F8F434002B00F09380D7F8F43479
:105320001B6808331B68D7F858255201D7F8FC14BE
:105330008C18D7F8F404984703462360D7F85835FB
:105340005B01D7F8FC2413440433102200211846D3
:1053500015F01AFAD7F858355B01D7F8FC24134436
:105360001C1DD7F8F4341B680C331B68D7F8F40401
:10537000984703460F221946204615F00DFAD7F834
:10538000F4341B6810331B68D7F858255201D7F83E
:10539000FC148C18D7F8F40498470346A382D7F876
:1053A000F4341B6818331B68D7F858255201D7F816
:1053B000FC148C18D7F8F40498470346E382D7F816
:1053C000F4341B6820331B68D7F858255201D7F8EE
:1053D000FC148C18D7F8F404984703462383D7F8B5
:1053E000F4341B6824331B68D7F858255201D7F8CA
:1053F000FC148C18D7F8F404984703466383D7F855
:10540000F4341B682C331B68D7F8F4049847034620
:10541000002B01D0012100E00021D7F858355B01B5
:10542000D7F8FC2413440A461A77D7F858355B019D
:10543000D7F8FC2413441D3303220021184615F02D
:10544000A3F9D7F858350133C7F85835D7F8582598
:10545000D7F80C359A42FFF44FAF07F5AD63A3F2CE
:105460005C531B68998B07F5AD63A3F25C531B6813
:105470001B6A5A1C07F5AD63A3F25C531B681A62E2
:1054800007F5AD63A3F25C531B681A6A002303930C
:105490000023029302230193B7F80A3500931346C1
:1054A00040F22112D7F80405FEF704FAB7F80A35DE
:1054B0001033A7F8FA34B7F8FA2407F5257107F581
:1054C000AD63A3F5AC60002300930123006811F0E5
:1054D000E1FFD7F80C15B64814F0B6FE4FE307F518
:1054E000AD63A3F25C531B681B69002B16D107F553
:1054F000AD63A3F264531B68DB889AB207F5AD6312
:10550000A3F5AC6107F5AD63A3F25C5000230093F3
:10551000FF230968006800F039FB30E307F5AD634D
:10552000A3F264531B689B899BB20F2B16D807F517
:10553000AD63A3F264531B68DB889AB207F5AD63D1
:10554000A3F5AC6107F5AD63A3F25C5000230093B3
:1055500005230968006800F019FB10E307F5AD6347
:10556000A3F5AD631B68C7F81C3507F2C443C7F841
:10557000183507F2C4431033C7F8143507F5AD6387
:10558000A3F25C531B681B69D7F81425D7F81C15C8
:10559000184600F0A9FB0346A7F81235022387F846
:1055A0005735B7F81235002B05D097F8573543F02B
:1055B000040387F8573507F5AD63A3F25C531B6806
:1055C000998B07F5AD63A3F25C531B681B6A5A1CE9
:1055D00007F5AD63A3F25C531B681A6207F5AD6370
:1055E000A3F25C531B681A6A0023039300230293FF
:1055F00097F85735019308230093134640F2311270
:10560000D7F81805FEF756F907F2C44107F5AD6360
:10561000A3F5AC600023009301231822006811F069
:1056200039FFACE207F5AD63A3F25C531B681B695D
:10563000002B16D107F5AD63A3F264531B68DB881A
:105640009AB207F5AD63A3F5AC6107F5AD63A3F2BC
:105650005C5000230093FF230968006800F096FA6D
:105660008DE207F5AD63A3F264531B689B899BB27F
:10567000072B16D807F5AD63A3F264531B68DB88CC
:105680009AB207F5AD63A3F5AC6107F5AD63A3F27C
:105690005C500023009305230968006800F076FA47
:1056A0006DE207F5AD63A3F5AD631B68C7F8283558
:1056B00007F5AD63A3F5AD631B680833C7F8243560
:1056C000D7F828351A795B791B021343A7F82235DE
:1056D00007F5AD63A3F25C531B681869B7F8223570
:1056E000D7F82425D7F8281500F0A2FB0346A7F821
:1056F000203507F5AD63A3F264531B68DB889CB2C9
:10570000D7F828351A68B7F822351344B7F820259A
:1057100007F5AD61A1F5AC6107F5AD60A0F25C5095
:105720000093134622460968006800F02FFA26E22B
:1057300007F5AD63A3F25C531B681B69002B16D100
:1057400007F5AD63A3F264531B68DB889AB207F5D3
:10575000AD63A3F5AC6107F5AD63A3F25C50002324
:105760000093FF230968006800F010FA07E207F5CC
:10577000AD63A3F264531B689B899BB2072B19D8B6
:1057800007F5AD63A3F264531B68DB889AB207F593
:10579000AD63A3F5AC6107F5AD63A3F25C500023E4
:1057A000009305230968006800F0F0F9E7E100BF05
:1057B00018C9017007F5AD63A3F5AD631B68C7F8A1
:1057C000303507F5AD63A3F25C531B681B69D7F84E
:1057D0003015184600F00CFC0346A7F82E3507F5E7
:1057E000AD63A3F264531B68DB889AB2B7F82E3519
:1057F00007F5AD61A1F5AC6107F5AD60A0F25C50B5
:10580000002400940968006800F0C0F907F5AD6352
:10581000A3F25C531B681B691846FFF74AF803465E
:10582000002B00F0AB81C34814F07EFD4FF496705E
:1058300008F044FDFFF760F8A0E107F5AD63A3F2BF
:105840005C531B681B69002B16D107F5AD63A3F2EF
:1058500064531B68DB889AB207F5AD63A3F5AC61AE
:1058600007F5AD63A3F25C5000230093FF230968A2
:10587000006800F08BF982E107F59563C7F83835C9
:1058800007F595631033C7F8343507F5AD63A3F218
:105890005C531B681B69D7F83415184600F09AFC56
:1058A00007F5AD63A3F25C531B68998B07F5AD63F5
:1058B000A3F25C531B681B6A5A1C07F5AD63A3F285
:1058C0005C531B681A6207F5AD63A3F25C531B6857
:1058D0001B6A0022039200220292022201920C22F1
:1058E000009240F23712D7F83805FDF7E3FF07F5CD
:1058F000956107F5AD63A3F5AC6000230093012328
:105900001C22006811F0C6FD39E107F5AD63A3F272
:105910005C531B681B69002B08D007F5AD63A3F22D
:105920005C531B681B69184600F038FC07F5AD6333
:10593000A3F264531B68DB889AB207F5AD63A3F545
:10594000AC6107F5AD63A3F25C5000230093002324
:105950000968006800F01AF911E107F5AD63A3F2D8
:105960005C531B689B69002B16D107F5AD63A3F24E
:1059700064531B68DB889AB207F5AD63A3F5AC618D
:1059800007F5AD63A3F25C5000230093FF23096881
:10599000006800F0FBF8F2E007F5AD63A3F25453A2
:1059A000184680231A46002114F0EEFE07F5AD6379
:1059B000A3F264531B689B899BB27F2B28BF7F2374
:1059C0009BB2C7F85035D7F85035002B13D007F5E8
:1059D000AD63A3F5AD6307F11400D7F8502519683E
:1059E00014F09BFF07F5AD63A3F25452D7F850357E
:1059F000134400221A7007F5AD63A3F2D44318468E
:105A00004FF400731A46002114F0BEFE07F5AD6393
:105A1000A3F25C531B68986907F1940207F1140123
:105A20004FF40073FCF75AFEC7F84C0507F52573D1
:105A3000C7F8483507F525731033C7F8443507F51F
:105A400025731433C7F84035D7F8443500221A704F
:105A500000225A70D7F84C359AB2D7F844355A809C
:105A6000D7F84C35002B08DDD7F84C2507F1940307
:105A70001946D7F8400514F050FFD7F84C359BB2C3
:105A80000433A7F83E3507F5AD63A3F25C531B68FA
:105A9000998B07F5AD63A3F25C531B681B6A5A1C14
:105AA00007F5AD63A3F25C531B681A6207F5AD639B
:105AB000A3F25C531B681A6A00230393002302932A
:105AC00002230193B7F83E350093134640F251127A
:105AD000D7F84805FDF7EEFEB7F83E3503F11002A2
:105AE00007F5257107F5AD63A3F5AC6000230093BE
:105AF0000123006811F0CEFC41E007F5AD63A3F28D
:105B000064531B68DB889AB207F5AD63A3F5AC61FB
:105B100007F5AD63A3F25C500023009300230968EE
:105B2000006800F033F8C82008F0C8FBFEF7E4FE78
:105B300025E000BF50C9017007F5AD63A3F26453BF
:105B40001B68DB889BB219460F4814F07DFB07F5F4
:105B5000AD63A3F264531B68DB889AB207F5AD63AB
:105B6000A3F5AC6107F5AD63A3F25C50002300938D
:105B700004230968006800F009F800E000BF00BFD6
:105B800007F26C57BD4690BD8CC9017080B594B0CA
:105B900004AFF860B96011461A460B46FB80134605
:105BA000BB8007F11403BB6307F1140310337B635D
:105BB0007B6BFA881A807B6BBA885A807B6BBA6CD5
:105BC0005A607B6B00221A7200225A7200229A726B
:105BD0000022DA72BB88002B02D14FF4FF7301E080
:105BE00040F2FF137B86022387F83F30BB88002BEF
:105BF00005D097F83F3043F0040387F83F30FB6847
:105C0000998BFB681B6A5A1CFB681A62FB68186A4E
:105C10007A8E002303930023029397F83F30019379
:105C20000C2300930346B86BFDF744FE07F1140103
