:0200000470008A
:1000000000000120390B0070890B00702D0F00706B
:10001000410F0070470F00704D0F0070000000008E
:100020000000000000000000000000002D500070E3
:10003000890B00700000000059510070290E0070FB
:10004000890B007000000000890B0070890B0070A4
:10005000890B0070890B0070000000000000000098
:10006000890B0070890B0070890B00700000000084
:1000700000000000890B007000000000000000007C
:10008000890B0070890B0070890B0070890B007060
:10009000890B0070890B0070890B0070890B007050
:1000A000890B0070890B0070890B0070890B007040
:1000B000890B0070890B0070890B0070890B007030
:1000C000890B0070890B0070890B0070890B007020
:1000D000890B0070890B0070890B0070890B007010
:1000E000890B0070890B0070890B0070890B007000
:1000F000890B0070890B0070890B0070890B0070F0
:10010000890B0070890B0070890B0070890B0070DF
:10011000890B0070890B0070890B0070890B0070CF
:10012000890B0070890B0070890B0070890B0070BF
:10013000890B0070890B0070890B0070890B0070AF
:10014000890B0070890B0070890B0070890B00709F
:10015000890B0070890B0070890B0070890B00708F
:10016000890B0070890B0070890B0070890B00707F
:10017000890B0070890B0070890B0070890B00706F
:10018000890B0070890B0070890B0070890B00705F
:10019000890B0070890B0070890B0070890B00704F
:1001A000890B0070890B0070890B0070890B00703F
:1001B0005D110070890B0070890B0070890B007055
:1001C0000000000000000000890B0070890B007027
:1001D000890B0070890B0070890B0070890B00700F
:1001E000890B0070890B0070890B0070890B0070FF
:1001F000890B0070890B00700000000000000000F7
:10020000890B0070890B0070890B0070890B0070DE
:10021000890B0070890B0070890B0070890B0070CE
:10022000890B0070890B0070890B0070890B0070BE
:10023000890B0070890B0070890B0070890B0070AE
:10024000890B0070890B0070890B0070890B00709E
:10025000890B0070890B0070890B0070890B00708E
:10026000890B0070890B0070890B0070890B00707E
:10027000890B0070890B0070890B0070890B00706E
:10028000890B0070890B0070890B0070890B00705E
:10029000890B00700000000000000000000000005A
:1002A000890B0070890B0070890B0070890B00703E
:1002B00053B94AB9002908BF00281CBF4FF0FF31CD
:1002C0004FF0FF3000F00CB8ADF1080C6DE904CE32
:1002D00005F082F9DDF804E0DDE9022304B070479F
:1002E000704700BF00000000000000000000000098
:1002F00001F0FF01102A2BDB10F0070F08D010F8D7
:10030000013B013A8B422DD010F0070F42B3F6D1DA
:10031000F0B441EA012141EA014122F007047FF0F3
:1003200000070023F0E80256083C85EA010586EA4A
:10033000010685FA47F5A3FA87F586FA47F6A5FA86
:1003400087F68EB9EED1F0BC01F0FF0102F0070292
:1003500032B110F8013B013A83EA010313B1F8D13D
:100360000020704701387047002D06BF354603381E
:10037000073815F0010F07D1013015F4807F02BF57
:10038000013015F4C03F0130F0BC0138704700BFA8
:100390000348044B834202D0034B03B11847704714
:1003A0007000002470000024000000000548064B87
:1003B0001B1AD90F01EBA301491002D0034B03B163
:1003C00018477047700000247000002400000000EF
:1003D00010B5064C237843B9FFF7DAFF044B13B18D
:1003E0000448AFF300800123237010BD7000002487
:1003F00000000000CC69007008B5054B1BB1054931
:100400000548AFF30080BDE80840FFF7CFBF00BF4D
:100410000000000074000024CC69007080B582B038
:1004200000AF7860074A7B681360074B1B689868C9
:1004300000230222002105F02BFC00BF0837BD4637
:1004400080BD00BF8C0000242000002480B584B053
:1004500000AFF860B9607A60094B1B68002B09D0C7
:10046000074B1B681B6808331B68054A10687A68CD
:10047000B96898477B6818461037BD4680BD00BFF5
:100480008C00002480B483B000AF7860044A7B689D
:100490001A607B6818460C37BD465DF8047B7047D0
:1004A000D86B007080B582B000AF78607868FFF7D5
:1004B000E9FF0421786805F07CF87B681846083766
:1004C000BD4680BD80B582B000AF7860054A7B68CC
:1004D0001A607B681846FFF7D5FF7B681846083717
:1004E000BD4680BD246C007080B582B000AF7860DE
:1004F0007868FFF7E7FF0C21786805F05AF87B6809
:1005000018460837BD4680BD80B483B000AF786020
:10051000044A7B681A607B6818460C37BD465DF854
:10052000047B7047C46B007080B582B000AF786008
:100530007868FFF7E9FF0421786805F03AF87B68EE
:1005400018460837BD4680BD80B582B000AF7860E0
:10055000054A7B681A607B681846FFF7D5FF7B6801
:1005600018460837BD4680BDF86B007080B582B074
:1005700000AF78607868FFF7E7FF0C21786805F036
:1005800018F87B6818460837BD4680BD80B588B02E
:1005900002AF00F0C1F900F04FFA03461846FFF72A
:1005A0003DFF524805F06CFB514BD3F84031504AA7
:1005B00043F00803C2F840314D4BD3F840313B6063
:1005C0003B683B1D00221A605A609A60DA601A612B
:1005D0004FF480637B600123BB600023FB6000233A
:1005E0003B613B1D1946434801F022FA424B1B6810
:1005F000BFF35B8F03F00103002B0CBF012300232B
:10060000DBB2002B18D03C4804F0D5FF0346002B8A
:1006100014BF01230023DBB2002B0DD04FF4806206
:100620003449364800F0A6FC354A3649334804F0D0
:10063000BBFF314804F0CBFF334B1B68BFF35B8F2C
:1006400003F00103002B0CBF01230023DBB2002BBE
:1006500018D02D4804F0AFFF0346002B14BF012330
:100660000023DBB2002B0DD04FF4FA722349274848
:1006700000F068F8224A2649244804F095FF2248F1
:1006800004F0A5FF234B1B68BFF35B8F03F001034E
:10069000002B0CBF01230023DBB2002B1BD01D4815
:1006A00004F089FF0346002B14BF01230023DBB2B3
:1006B000002B10D0032300934FF48073164A134984
:1006C000164800F0B7FD0E4A1549144804F06CFFB7
:1006D000104804F07CFF114800F0FCFD03F05AF9CB
:1006E000002318461837BD4680BD00BFE46900707E
:1006F00000440258000C02589C0000249000002482
:1007000000000024C5040070AC000024A0000024F8
:1007100049050070C80000240C6A0070B000002475
:100720007D12007080B483B000AF7860044A7B68AB
:100730001A607B6818460C37BD465DF8047B70472D
:10074000C46B007080B584B000AFF860B9607A60A7
:10075000FB681846FFF7E6FF064AFB681A60FB686D
:10076000BA685A60FB687A689A60FB681846103766
:10077000BD4680BDF86B007080B584B000AF786076
:100780000023FB737B685B681B6810331B687A6807
:10079000526810469847FB7B83F00103FB73FB7B99
:1007A000002B04D04FF47A7000F0F2FDEAE74FF42A
:1007B0007A6000F0EDFDE5E780B400AF00BFBD4614
:1007C0005DF8047B704780B586B000AF3B1D00220A
:1007D0001A605A609A60DA6000F09CFF0023FB7593
:1007E00006E0FB7D184600F0B3FFFB7D0133FB758F
:1007F000FB7D0F2BF5D901233B7100237B71002377
:10080000BB601F233B7387237B730023BB730023D1
:10081000FB7301233B7400237B740023BB74002310
:10082000FB743B1D184600F0A9FF01237B714FF0BC
:10083000E043BB601A233B7300237B730123BB732C
:100840000323FB7300233B7400237B740123BB74DD
:100850000123FB743B1D184600F090FF02237B71BF
:100860004FF04053BB600E233B7300237B73002388
:10087000BB730323FB7301233B7400237B740023AE
:10088000BB740023FB743B1D184600F077FF042067
:1008900000F01EFF00BF1837BD4680BD80B588B090
:1008A00000AF1B4BD3F84831194A43F48023C2F8F8
:1008B0004831174BD3F84831BB60BB68144BD3F8B1
:1008C0004031134A43F00803C2F84031104BD3F8CB
:1008D00040317B607B6807F10C0300221A605A608C
:1008E0009A60DA601A614FF44073FB6002233B6147
:1008F00000237B610023BB610723FB6107F10C032D
:100900001946044801F094F800BF2037BD4680BD69
:1009100000440258000C025880B584B000AFFFF7C5
:1009200052FF434B5B6903F40033002B14BF0123D8
:100930000023DBB2002B1BD1BFF34F8F00BFBFF3EF
:100940006F8F00BF3A4B0022C3F85022BFF34F8F86
:1009500000BFBFF36F8F00BF354B5B69344A43F470
:1009600000335361BFF34F8F00BFBFF36F8F00E0C1
:1009700000BF2F4B5B6903F48033002B14BF0123AE
:100980000023DBB2002B42D1294B0022C3F8842084
:10099000BFF34F8F00BF264BD3F88030FB60FB685E
:1009A0005B0BC3F30E03BB60FB68DB08C3F30903F7
:1009B0007B60BB685A0143F6E07313407A68920784
:1009C0001B491343C1F860327B685A1E7A60002BC2
:1009D00014BF01230023DBB2002BEAD1BB685A1EEF
:1009E000BA60002B14BF01230023DBB2002BDBD144
:1009F000BFF34F8F00BF0E4B5B690D4A43F480334A
:100A00005361BFF34F8F00BFBFF36F8F00E000BF94
:100A100000F005FDFFF7D0FE00F0CEF8FFF73EFF37
:100A2000044800F055FB00BF1037BD4680BD00BF35
:100A300000ED00E0CC00002480B400AF024B18466B
:100A4000BD465DF8047B7047CC00002480B483B0C1
:100A500000AF7860044A7B681A607B6818460C37E0
:100A6000BD465DF8047B70470C6C007080B582B0A9
:100A700000AF78607868FFF7E9FF0421786804F038
:100A800098FD7B6818460837BD4680BD80B582B0AA
:100A900000AF7860054A7B681A607B681846FFF7EC
:100AA000D5FF7B6818460837BD4680BD446C007092
:100AB00080B582B000AF78607868FFF7E7FF9821D3
:100AC000786804F076FD7B6818460837BD4680BD1F
:100AD00080B500AF4FF4E1320A490B4800F0BCFA90
:100AE0000A4A0B49084804F05FFD4FF48062094947
:100AF000094800F03FFA054A0849074804F054FD48
:100B000000BF80BD00480040CC000024000000244D
:100B10008D0A0070000C025864010024C5040070A6
:100B200080B500AFFFF7D4FF80BD80B400AF00BF39
:100B3000BD465DF8047B70470D48854600F026F8F9
:100B40000C480D490D4A002302E0D458C450043328
:100B5000C4188C42F9D30A4A0A4C002301E01360FE
:100B60000432A242FBD305F07DFAFFF70FFDFEE74A
:100B7000000001200000002470000024F06C0070D0
:100B80007000002460080224FEE7000080B400AF7B
:100B9000074B084A9A60064BD3F88830044A43F45E
:100BA0007003C2F8883000BFBD465DF8047B704713
:100BB00000ED00E00000007080B489B000AF924BFF
:100BC0001B6903F03803182B00F2FB8001A252F8D6
:100BD00023F000BF390C0070C30D0070C30D00700E
:100BE000C30D0070C30D0070C30D0070C30D007005
:100BF000C30D00704D0C0070C30D0070C30D00706C
:100C0000C30D0070C30D0070C30D0070C30D0070E4
:100C1000C30D0070530C0070C30D0070C30D007045
:100C2000C30D0070C30D0070C30D0070C30D0070C4
:100C3000C30D0070590C0070734B1B68DB0803F088
:100C40000303724A22FA03F3FB61C4E0704BFB61B9
:100C5000C1E0704BFB61BEE06B4B9B6A03F003038A
:100C60003B61694B9B6A1B0903F03F03FB60664BCA
:100C7000DB6A03F00103002B0BD0634B5B6BDB08DB
:100C8000C3F30C0307EE903AF8EE677AC7ED067AE5
:100C900002E04FF00003BB61FB68002B00F08E8088
:100CA0003B69012B24D03B69022B43D1FB6807EE43
:100CB000903AF8EE677ADFED586A86EEA77A524BE3
:100CC0001B6BC3F3080307EE903AF8EE676A97EDE3
:100CD000066ADFED525AC6EE257A76EEA77AF7EE6F
:100CE000006A77EEA67A67EE277AC7ED057A4FE0BD
:100CF000FB6807EE903AF8EE677ADFED496A86EE18
:100D0000A77A414B1B6BC3F3080307EE903AF8EE4A
:100D1000676A97ED066ADFED415AC6EE257A76EEF0
:100D2000A77AF7EE006A77EEA67A67EE277AC7ED24
:100D3000057A2DE0344B1B68DB0803F00303334ACC
:100D400022FA03F3BB60BB6807EE903AF8EE676ADD
:100D5000FB6807EE903AF8EE677A86EEA77A2A4BA0
:100D60001B6BC3F3080307EE903AF8EE676A97ED42
:100D7000066ADFED2A5AC6EE257A76EEA77AF7EEF6
:100D8000006A77EEA67A67EE277AC7ED057A00BF8C
:100D90001D4B1B6B5B0A03F07F0301337B607B6899
:100DA00007EE903AB8EE677AD7ED056AC6EE877A15
:100DB000FCEEE77A17EE903AFB610CE00023FB6152
:100DC00009E0114B1B68DB0803F003030F4A22FA0A
:100DD00003F3FB6100BF0C4B9B6903F00F033B6007
:100DE0003B68072B07D93B68073BFA6922FA03F3F4
:100DF0000C4A136002E00B4AFB69136000BF243702
:100E0000BD465DF8047B7047004402580090D00353
:100E100000093D0000366E01001BB74B0000004684
:100E20000024744A0400002480B500AF00F04CFB9D
:100E300003F082FA0346012B14BF01230023DBB227
:100E4000002B01D004F0BCF900BF80BD80B58AB092
:100E500000AF78607B681B687B627B685B683B6285
:100E60007B689B68FB617B68DB68BB617B681B6997
:100E70007B617B685B693B617B689B69FB607B682E
:100E8000DB69BB601C4804F0FBFE1C4804F0F8FE64
:100E9000F9681B4804F08CFE39691A4804F088FE92
:100EA0003A6A796A184804F083FEBA69F969174802
:100EB00004F07EFEBA687969154804F079FE154B96
:100EC0009B6A1946144804F073FE124BDB6A1946FC
:100ED000124804F06DFE0F4B5B6B1946104804F08E
:100EE00067FE0C4B9B6B19460E4804F061FE0E48E2
:100EF00004F0C6FE00BFFDE7186A0070446A007087
:100F0000606A0070706A0070806A0070A06A007089
:100F1000C06A007000ED00E0E06A0070F86A0070DE
:100F2000106B0070286B0070406B00701EF0040F97
:100F30000CBFEFF30880EFF30980FFF787BF00BF16
:100F4000FFF7F4FF00BFFFF7F1FF00BFFFF7EEFF71
:100F500000BF000080B483B000AF7860044A7B68B3
:100F60001A607B6818460C37BD465DF8047B7047F5
:100F7000D86B007080B584B000AFF860B9601346DC
:100F8000FB80FB681846FFF7E5FF074AFB681A601D
:100F9000FB68BA685A60FB68FA881A81FB681846D1
:100FA0001037BD4680BD00BF246C007080B582B094
:100FB00000AF78607B6858687B681B8901221946FE
:100FC00000F0AEFE00BF0837BD4680BD80B582B0E0
:100FD00000AF78607B6858687B681B8900221946DF
:100FE00000F09EFE00BF0837BD4680BD80B582B0D0
:100FF00000AF78607B685A687B681B891946104689
:1010000000F0A6FE00BF0837BD4680BD80B582B0A7
:1010100000AF78607B685A687B681B891946104668
:1010200000F066FE0346012B0CBF01230023DBB258
:1010300018460837BD4680BD80B483B000AF7860E5
:10104000044A7B681A607B6818460C37BD465DF819
:10105000047B70470C6C007080B584B000AFF86002
:10106000B9607A60FB681846FFF7E6FF174AFB682D
:101070001A60FB68043394220021184604F094FFA0
:10108000FB68BA685A60FB687A689A60FB6800225D
:10109000DA60FB6800221A61FB6800225A61FB6873
:1010A0000C229A61FB680022DA61FB6800221A6256
:1010B000FB6800225A62FB6800229A62FB680022E9
:1010C000DA62FB6818461037BD4680BD446C00707C
:1010D00080B582B000AF78607B680433184601F0B9
:1010E0006BF90346002B0CBF01230023DBB218462B
:1010F0000837BD4680BD80B584B000AFF860B960E8
:101100007A60FB68181D7B689AB24FF0FF33B968AC
:1011100001F0ACF90346002B0CBF01230023DBB226
:1011200018461037BD4680BD80B584B000AFF8606A
:10113000B9607A60FB68181D7B689AB24FF0FF3384
:10114000B96801F02CFA0346002B0CBF01230023E1
:10115000DBB218461037BD4680BD000080B500AF39
:101160000C4B1B68002B12D00A4B1B68184600F072
:101170004BFB084B1B681B68064A1268126803F594
:101180008053D3F8603102F58052C2F8603100BF5D
:1011900080BD00BF7001002480B483B000AF7860D0
:1011A00000BF0C37BD465DF8047B704780B483B048
:1011B00000AF786000BF0C37BD465DF8047B704718
:1011C00080B483B000AF786000BF0C37BD465DF8D7
:1011D000047B704780B483B000AF7860044A7B68BA
:1011E0001A607B6818460C37BD465DF8047B704773
:1011F000786C007080B483B000AF7860044A7B687C
:101200001A607B6818460C37BD465DF8047B704752
:10121000786C007080B582B000AF78607868FFF7B6
:10122000E9FF0421786804F0C4F97B6818460837A0
:10123000BD4680BD80B584B000AFF860B9607A600B
:101240007B80FB681846FFF7C5FF0B4AFB681A60F6
:10125000FB68BA685A60FB6800229A60FB687A688B
:10126000DA60FB687A881A82FB68BA695A61FB689F
:1012700018461037BD4680BD5C6C007080B582B0EA
:1012800000AF78600A4A7B681A607B689B68002B15
:1012900004D07B689B68184602F068F97B681846A2
:1012A000FFF7A8FF7B6818460837BD4680BD00BF22
:1012B0005C6C007080B582B000AF78607868FFF732
:1012C000DDFF1821786804F074F97B681846083748
:1012D000BD4680BD80B586B002AF78607B689B68F4
:1012E000002B01D0002315E07B68D9687B68188A41
:1012F0007B685B697A680832019200937B680246DA
:10130000064802F010F8F860FB68012B0CBF0123BF
:101310000023DBB218461037BD4680BD6513007050
:1013200080B582B000AF78607B689B68002B04D0EA
:101330007B689B68184602F0B1F900BF0837BD46CC
:1013400080BD80B582B000AF78607B689B68002B61
:1013500004D07B689B68184602F04CFA00BF08373F
:10136000BD4680BD80B584B000AF78607B68FB600F
:10137000FB685B681B6808331B68FA685268104694
:101380009847002002F0F2F800BF1037BD4680BD3C
:101390002DE9B04F82B000AF7860796800200C462C
:1013A0000546204629464FF0000A4FF0000B4FEA51
:1013B000411B4BEAD06B4FEA401A50465946021B7C
:1013C00061EB05034FF000004FF00001990041EA86
:1013D0009271900002460B4612EB040843EB05099C
:1013E0004FF000024FF000034FEAC90343EA58737D
:1013F0004FEAC80290469946404649464FF47A72F1
:101400004FF00003FEF754FF02460B461346184602
:1014100002F020F900BF0837BD46BDE8B08F80B5A7
:1014200082B000AF0023FB71032000F01FF90F20F2
:1014300000F00EF80346002B02D00123FB7101E0FF
:10144000FFF773FBFB7918460837BD4680BD0000E7
:1014500080B584B000AF78600023FB73174B1B7816
:10146000002B23D0164B1A68144B1B7819464FF4E7
:101470007A73B3FBF1F3B2FBF3F3184600F01BF9F8
:101480000346002B0FD17B680F2B09D80022796807
:101490004FF0FF3000F0F5F80A4A7B68136007E070
:1014A0000123FB7304E00123FB7301E00123FB73C1
:1014B000FB7B18461037BD4680BD00BF0C000024E2
:1014C000040000240800002480B400AF064B1B7801
:1014D0001A46064B1B681344044A136000BFBD46FE
:1014E0005DF8047B704700BF0C00002474010024E9
:1014F00080B400AF034B1B681846BD465DF8047B03
:10150000704700BF7401002480B485B000AF7860DC
:101510007B6803F00703FB600B4BDB68BB60BA68BA
:101520004FF6FF031340BB60FB681A02BB681A4307
:10153000064B1343BB60044ABB68D36000BF14373B
:10154000BD465DF8047B704700ED00E00000FA0541
:1015500080B400AF044BDB681B0A03F00703184696
:10156000BD465DF8047B704700ED00E080B483B0B9
:1015700000AF03463960FB80B7F90630002B0ADB69
:101580003B68DAB20C49B7F906301201D2B20B440B
:1015900083F800230AE03B68DAB20849FB8803F0CD
:1015A0000F03043B1201D2B20B441A7600BF0C3772
:1015B000BD465DF8047B704700E100E000ED00E00F
:1015C00080B489B000AFF860B9607A60FB6803F05E
:1015D0000703FB61FB69C3F10703042B28BF042346
:1015E000BB61FB690433062B02D9FB69033B00E0B6
:1015F00000237B614FF0FF32BB6902FA03F3DA4349
:10160000BB681A407B699A404FF0FF317B6901FA51
:1016100003F3D9437B680B40134318462437BD4678
:101620005DF8047B7047000080B582B000AF786041
:101630007B68013BB3F1807F01D301230FE00A4AAD
:101640007B68013B53600F214FF0FF30FFF78EFFA7
:10165000054B00229A60044B07221A6000231846AB
:101660000837BD4680BD00BF10E000E080B582B005
:1016700000AF78607868FFF747FF00BF0837BD46C6
:1016800080BD80B586B000AF0346B9607A60FB814B
:10169000FFF75EFF78617A68B9687869FFF790FFB5
:1016A0000246B7F90E3011461846FFF75FFF00BF3C
:1016B0001837BD4680BD80B582B000AF78607868CD
:1016C000FFF7B2FF034618460837BD4680BD00004D
:1016D00080B483B000AF7860BFF35F8F00BF0B4A68
:1016E0007B6843F001035360094B5B6A084A43F48B
:1016F00080335362BFF34F8F00BFBFF36F8F00BFC4
:1017000000BF0C37BD465DF8047B704790ED00E0EC
:1017100000ED00E080B400AFBFF35F8F00BF0A4B65
:101720005B6A094A23F480335362084B00225A60F3
:10173000BFF34F8F00BFBFF36F8F00BF00BFBD4629
:101740005DF8047B704700BF00ED00E090ED00E025
:1017500080B483B000AF7860074A7B689360064B23
:101760001B69054A23F00103136100BF0C37BD4616
:101770005DF8047B704700BF90ED00E080B483B05B
:1017800000AF78607B685A781E4B9A601D4B1B69CE
:101790001C4A23F0010313611A4B1B69194A23F0F9
:1017A00001031361174A7B685B68D3607B681B7B0E
:1017B0001A077B68DB7A1B061A437B689B7ADB047B
:1017C0001A437B685B7B9B041A437B689B7B5B04AF
:1017D0001A437B68DB7B1B041A437B685B7A1B0222
:1017E0001A437B681B7A5B0013437A6812781146B0
:1017F000044A0B43136100BF0C37BD465DF8047B00
:10180000704700BF90ED00E080B586B000AF786013
:101810007B681B68D3F8B0307B617B681B6803F57D
:101820008053D3F860313B617B681B6803F58053BC
:10183000D3F83431FB604FF0B043D3F89830BB603D
:101840003B6903F04003002B10D0FB6803F040031A
:10185000002B0BD07B681B6803F580531A4648F2B7
:101860004003C2F860317868FFF7A0FC3B6903F0E1
:101870000103002B10D0FB6803F00103002B0BD0F9
:101880007B681B6803F580531A4648F20103C2F8CF
:1018900060317868FFF780FC3B6903F48043002BDC
:1018A00047D0FB6803F48043002B42D07B68D3F819
:1018B000883043F008027B68C3F888203B6903F452
:1018C0008053002B1ED07B681B6803F58053D3F830
:1018D000602141F2021313407A68C2F88C307B68B1
:1018E0001B6803F58053D3F834317A68126823F407
:1018F000404302F58052C2F834317B68E022C3F8DD
:10190000842013E07B681B6803F58053D3F86031B3
:1019100003F4CD427B68C3F88C207B681B6803F519
:1019200080531A464FF4CD43C2F860317868FFF710
:1019300047FC7B6903F48043002B04D17B6903F4EB
:101940000053002B19D07B68D3F8883043F0100285
:101950007B68C3F888207B681B68D3F8B8207B6855
:10196000C3F890207B68E022C3F884207868FFF7F2
:1019700027FC7B680022C3F890207B6903F01003EA
:10198000002B0FD07B681B68D3F8C03003F06002D7
:101990007B68C3F89420786800F02BF87B680022FD
:1019A000C3F894207B6903F02003002B0FD07B68E1
:1019B0001B68D3F8D03003F00F027B68C3F898207F
:1019C000786800F020F87B680022C3F89820BB6894
:1019D00003F48043002B08D04FF0B0434FF4804213
:1019E000C3F89820786800F018F800BF1837BD4693
:1019F00080BD80B483B000AF786000BF0C37BD46B7
:101A00005DF8047B704780B483B000AF786000BF9E
:101A10000C37BD465DF8047B704780B483B000AFDF
:101A2000786000BF0C37BD465DF8047B704700004E
:101A300080B487B000AF7860396000237B6143E1F8
:101A40003B681A6801217B6901FA03F31340FB60CC
:101A5000FB68002B00F035813B685B6803F00303F3
:101A6000012B05D03B685B6803F00303022B30D1E8
:101A70007B689B683B617B695B00032202FA03F38E
:101A8000DB433A6913403B613B68DA687B695B0082
:101A900002FA03F33A6913433B617B683A699A603F
:101AA0007B685B683B6101227B6902FA03F3DB43DD
:101AB0003A6913403B613B685B681B0903F0010214
:101AC0007B6902FA03F33A6913433B617B683A6925
:101AD0005A603B685B6803F00303032B09D13B6842
:101AE0005B6803F00303032B1BD13B689B68012B4E
:101AF00017D07B68DB683B617B695B00032202FADD
:101B000003F3DB433A6913403B613B689A687B69A6
:101B10005B0002FA03F33A6913433B617B683A695D
:101B2000DA603B685B6803F00303022B23D17B6917
:101B3000DA087B68083253F822303B617B6903F096
:101B400007039B000F2202FA03F3DB433A691340B9
:101B50003B613B681A697B6903F007039B0002FA4B
:101B600003F33A6913433B617B69DA087B68083207
:101B7000396943F822107B681B683B617B695B0015
:101B8000032202FA03F3DB433A6913403B613B68EB
:101B90005B6803F003027B695B0002FA03F33A69B6
:101BA00013433B617B683A691A603B685B6803F4E6
:101BB0004033002B00F085804B4A7B699B084C33F7
:101BC00052F823303B617B6903F003039B000F2233
:101BD00002FA03F3DB433A6913403B617B689A0ADC
:101BE000424B13407A6902F00302920093403A6933
:101BF00013433B613C497B699B084C333A6941F88C
:101C000023204FF0B0431B683B61FB68DB433A691C
:101C100013403B613B685B6803F48013002B03D0E7
:101C20003A69FB6813433B614FF0B0423B69136074
:101C30004FF0B0435B683B61FB68DB433A6913409C
:101C40003B613B685B6803F40013002B03D03A69E7
:101C5000FB6813433B614FF0B0423B6953604FF068
:101C6000B043D3F884303B61FB68DB433A691340EF
:101C70003B613B685B6803F40033002B03D03A6997
:101C8000FB6813433B614FF0B0423B69C2F88430BC
:101C90004FF0B043D3F880303B61FB68DB433A69D7
:101CA00013403B613B685B6803F48033002B03D037
:101CB0003A69FB6813433B614FF0B0423B69C2F89D
:101CC00080307B6901337B613B681A687B6922FA4B
:101CD00003F3002B7FF4B4AE00BF00BF1C37BD463A
:101CE0005DF8047B704700BF000400587FFF2900A7
:101CF00080B485B000AF78600B467B807B681A6942
:101D00007B881340002B02D00123FB7301E00023EA
:101D1000FB73FB7B18461437BD465DF8047B7047A8
:101D200080B483B000AF78600B467B8013467B7035
:101D30007B78002B03D07A887B689A6102E07A88EE
:101D40007B689A6200BF0C37BD465DF8047B704724
:101D500080B485B000AF78600B467B807B685B69A0
:101D6000FB607A88FB6813401A04FB68D9437B88C0
:101D70000B401A437B689A6100BF1437BD465DF87B
:101D8000047B704780B48BB000AFAA4B1B6903F093
:101D90003803182B00F2368101A252F823F000BF5D
:101DA000051E0070052000700520007005200070E1
:101DB00005200070052000700520007005200070CF
:101DC0002B1E00700520007005200070052000709B
:101DD00005200070052000700520007005200070AF
:101DE000311E007005200070052000700520007075
:101DF000052000700520007005200070052000708F
:101E0000371E00708B4B1B6803F02003002B09D09A
:101E1000884B1B68DB0803F00303874A22FA03F3AD
:101E20003B62F2E000233B62EFE0844B3B62ECE07C
:101E3000834B3B62E9E07F4B9B6A03F00303FB614A
:101E40007C4B9B6A1B0903F03F03BB61794BDB6A48
:101E500003F001037B61774B5B6BDB08C3F30C037F
:101E60007A6902FB03F307EE903AF8EE677AC7ED62
:101E7000047ABB69002B00F0C280FB69022B64D09E
:101E8000FB69022B00F28380FB69002B03D0FB6906
:101E9000012B38D07BE0674B1B6803F02003002B3D
:101EA0002DD0644B1B68DB0803F00303624A22FA5F
:101EB00003F3FB60FB6807EE903AF8EE676ABB69D4
:101EC00007EE903AF8EE677A86EEA77A594B1B6BCD
:101ED000C3F3080307EE903AF8EE676A97ED046AD9
:101EE000DFED585AC6EE257A76EEA77AF7EE006A4D
:101EF00077EEA67A67EE277AC7ED097A69E04FF0A8
:101F000000037B6265E0BB6907EE903AF8EE677A02
:101F1000DFED4D6A86EEA77A464B1B6BC3F30803D1
:101F200007EE903AF8EE676A97ED046ADFED455ADE
:101F3000C6EE257A76EEA77AF7EE006A77EEA67AF5
:101F400067EE277AC7ED097A43E0BB6907EE903A5E
:101F5000F8EE677ADFED3D6A86EEA77A354B1B6BAC
:101F6000C3F3080307EE903AF8EE676A97ED046A48
:101F7000DFED345AC6EE257A76EEA77AF7EE006AE0
:101F800077EEA67A67EE277AC7ED097A21E0BB697A
:101F900007EE903AF8EE677ADFED2B6A86EEA77AC5
:101FA000244B1B6BC3F3080307EE903AF8EE676A05
:101FB00097ED046ADFED235AC6EE257A76EEA77A0E
:101FC000F7EE006A77EEA67A67EE277AC7ED097A10
:101FD00000BF184B1B6B5B0A03F07F030133BB6030
:101FE000BB6807EE903AB8EE677AD7ED096AC6EE9D
:101FF000877AFCEEE77A17EE903A3B6205E0002321
:102000003B6202E00D4B3B6200BF0A4B9B6903F051
:102010000F037B607B68072B05D97B68073B3A6A17
:1020200022FA03F33B623B6A18462C37BD465DF843
:10203000047B7047004402580090D00300093D0023
:1020400000366E01000000460024744A001BB74BA6
:1020500080B584B000AF104A3B4692E8030083E8A5
:102060000300FFF78FFEF8600C4BDB6903F00F03F2
:10207000BB60BB68072B09D9BB68083B10333B44E6
:1020800013F8103C1A46FB68D340FB60FB68184607
:102090001037BD4680BD00BF9C6B007000440258E5
:1020A00080B582B000AFFFF7D3FF7860094B1B6AA1
:1020B00003F007033B603B68032B05D93B68033BF8
:1020C0007A6822FA03F37B607B6818460837BD46BE
:1020D00080BD00BF0044025880B582B000AFFFF75A
:1020E000B7FF7860094B1B6A1B0903F007033B60CD
:1020F0003B68032B05D93B68033B7A6822FA03F35C
:102100007B607B6818460837BD4680BD0044025896
:1021100080B582B000AFFFF79BFF7860094B1B6A68
:102120001B0A03F007033B603B68032B05D93B68A0
:10213000033B7A6822FA03F37B607B681846083712
:10214000BD4680BD0044025880B582B000AF084B48
:102150009B6B1B0C03F07F0301337B6000F020F8C6
:1021600002467B68B2FBF3F318460837BD4680BDD4
:102170000044025880B582B000AF084B1B6C1B0CAA
:1021800003F07F0301337B6000F090F802467B6828
:10219000B2FBF3F318460837BD4680BD0044025831
:1021A00080B489B000AF3C4B9B6A7B613A4B9B6B20
:1021B0003B617B691B0B03F03F03FB603B69C3F38F
:1021C00008030133BB60FB68002B01D100235CE0F6
:1021D000314BDB6A03F40063002B06D02E4BDB6B24
:1021E000DB08C3F30C03BB6101E00023BB617B6927
:1021F00003F00303022B19D0022B1DD8002B02D0B1
:10220000012B16D018E0244B1B6803F02003002B91
:1022100009D0214B1B68DB0803F003031F4A22FA95
:1022200003F3FB610BE00023FB6108E01C4BFB6147
:1022300005E01C4BFB6102E00023FB6100BFFB6972
:1022400007EE903AF8EE676AFB6807EE903AF8EE10
:10225000677A86EEA77ABB6807EE903AF8EE676A6F
:10226000BB6907EE903AB8EE676ADFED0F5AC6EE2B
:10227000257A76EEA77A67EE277AC7ED017AD7ED51
:10228000017AFCEEE77A17EE903A18462437BD46FD
:102290005DF8047B704700BF004402580090D003F3
:1022A00000366E0100093D000000004680B489B090
:1022B00000AF3C4B9B6A7B613A4B1B6C3B617B697B
:1022C0001B0D03F03F03FB603B69C3F308030133BD
:1022D000BB60FB68002B01D100235CE0314BDB6A63
:1022E00003F48003002B06D02E4B5B6CDB08C3F39A
:1022F0000C03BB6101E00023BB617B6903F00303B6
:10230000022B19D0022B1DD8002B02D0012B16D086
:1023100018E0244B1B6803F02003002B09D0214B4D
:102320001B68DB0803F003031F4A22FA03F3FB6177
:102330000BE00023FB6108E01C4BFB6105E01C4B3C
:10234000FB6102E00023FB6100BFFB6907EE903AEE
:10235000F8EE676AFB6807EE903AF8EE677A86EE69
:10236000A77ABB6807EE903AF8EE676ABB6907EE9A
:10237000903AB8EE676ADFED0F5AC6EE257A76EE30
:10238000A77A67EE277AC7ED017AD7ED017AFCEEDE
:10239000E77A17EE903A18462437BD465DF8047B7D
:1023A000704700BF004402580090D00300366E0111
:1023B00000093D000000004680B582B000AF7860A3
:1023C0007B68002B01D1012342E07B68D3F8883081
:1023D000002B06D17B68002283F88420786800F007
:1023E0003BF87B682422C3F888207B681B681A6846
:1023F0007B681B6822F001021A607B689B6A002BD5
:1024000002D0786800F032FD786800F099F9034650
:10241000012B01D101231BE07B681B685A687B6894
:102420001B6822F490425A607B681B689A687B683C
:102430001B6822F02A029A607B681B681A687B6816
:102440001B6842F001021A60786800F0B1FD034693
:1024500018460837BD4680BD80B483B000AF7860B1
:1024600000BF0C37BD465DF8047B704780B58AB06D
:1024700002AFF860B9603B601346FB80FB68D3F89D
:102480008830202B40F08680BB68002B02D0FB8870
:10249000002B01D101237EE0FB680022C3F89020CD
:1024A000FB682122C3F88820FFF722F87861FB68D7
:1024B000FA88A3F85420FB68FA88A3F85620FB6832
:1024C0009B68B3F5805F08D1FB681B69002B04D1C2
:1024D0000023FB61BB68BB6103E0BB68FB610023B9
:1024E000BB613AE03B6800937B6900228021F86879
:1024F00000F008FE0346002B05D0FB682022C3F83D
:102500008820032347E0FB69002B0BD1BB691B88A4
:102510001A46FB681B68C2F308029A62BB69023361
:10252000BB6107E0FB691A78FB681B689A62FB696C
:102530000133FB61FB68D3F8883003F02103212BC2
:1025400009D1FB68B3F856309BB2013B9AB2FB68E5
:10255000A3F8562001E001231DE0FB68B3F85630D4
:102560009BB2002BBED13B6800937B6900224021C7
:10257000F86800F0C7FD0346002B05D0FB68202259
:10258000C3F88820032306E0FB682022C3F88820D4
:10259000002300E0022318462037BD4680BD80B5E9
:1025A0008AB002AFF860B9603B601346FB80FB68FD
:1025B000D3F88C30202B40F0BD80BB68002B02D0BC
:1025C000FB88002B01D10123B5E0FB680022C3F892
:1025D0009020FB682222C3F88C20FB680022DA6678
:1025E000FEF786FF7861FB68FA88A3F85C20FB6839
:1025F000FA88A3F85E20FB689B68B3F5805F0ED174
:10260000FB681B69002B05D1FB6840F2FF12A3F8A1
:1026100060202DE0FB68FF22A3F8602028E0FB6823
:102620009B68002B0DD1FB681B69002B04D1FB6854
:10263000FF22A3F860201BE0FB687F22A3F8602044
:1026400016E0FB689B68B3F1805F0DD1FB681B69E6
:10265000002B04D1FB687F22A3F8602008E0FB6810
:102660003F22A3F8602003E0FB680022A3F860206B
:10267000FB68B3F860307B82FB689B68B3F5805FD2
:1026800008D1FB681B69002B04D10023FB61BB68E8
:10269000BB6103E0BB68FB610023BB613EE03B68BC
:1026A00000937B6900222021F86800F02BFD03468F
:1026B000002B05D0FB682022C3F88C2003233AE0CE
:1026C000FB69002B0CD1FB681B685B6A9AB27B8AA2
:1026D00013409AB2BB691A80BB690233BB610CE03C
:1026E000FB681B685B6ADAB27B8ADBB21340DAB242
:1026F000FB691A70FB690133FB61FB68D3F88C300E
:10270000222B09D1FB68B3F85E309BB2013B9AB231
:10271000FB68A3F85E2001E001230CE0FB68B3F83E
:102720005E309BB2002BBAD1FB682022C3F88C200C
:10273000002300E0022318462037BD4680BD00007C
:102740002DE9B04F8CB000AF7861002387F82A30B4
:102750007B699A687B691B691A437B695B691A43C9
:102760007B69DB691343FB627B691B681A68B34BA7
:1027700013407A691268F96A0B4313607B691B681E
:102780005B6823F440517B69DA687B691B680A4304
:102790005A607B699B69FB627B691B68A84A93420C
:1027A00004D07B691B6AFA6A1343FB627B691B686E
:1027B0009A68A44B13407A691268F96A0B439360D4
:1027C0007B691B68DB6A23F00F017B695A6A7B69AE
:1027D0001B680A43DA627B691B689B4A934231D1CA
:1027E0009A4B5B6D03F00703052B27D801A252F823
:1027F00023F000BF0D280070152800701D28007000
:10280000252800702D28007035280070012387F8D6
:102810002B30A0E0042387F82B309CE0082387F8B6
:102820002B3098E0102387F82B3094E0202387F892
:102830002B3090E0402387F82B308CE0802387F802
:102840002B3088E07B691B68814A934218D07B69F2
:102850001B68804A934213D07B691B687E4A93426F
:102860000ED07B691B687D4A934209D07B691B6847
:102870007B4A934204D07B691B687A4A934231D1E8
:10288000724B1B6D03F00703052B27D801A252F8EA
:1028900023F000BFAD280070B5280070BD2800707F
:1028A000C5280070CD280070D5280070002387F857
:1028B0002B3016E0042387F82B3012E0082387F82A
:1028C0002B300EE0102387F82B300AE0202387F806
:1028D0002B3006E0402387F82B3002E0802387F876
:1028E0002B3038E07B691B68554A934230D1574BF7
:1028F0009B6D03F00703052B26D801A252F823F0A5
:1029000019290070212900702929007031290070CF
:102910003929007041290070022387F82B301AE012
:10292000042387F82B3016E0082387F82B3012E0B9
:10293000102387F82B300EE0202387F82B300AE095
:10294000402387F82B3006E0802387F82B3002E005
:10295000802387F82B307B691B68394A934240F00B
:10296000FE8097F82B30202B48DC022BC0F28880A9
:10297000023B1E2B00F2848001A252F823F000BF1C
:10298000132A0070812A0070032A0070812A0070C7
:10299000812A0070812A00700B2A0070812A007041
:1029A000812A0070812A0070812A0070812A0070BB
:1029B000812A0070812A00701B2A0070812A007011
:1029C000812A0070812A0070812A0070812A00709B
:1029D000812A0070812A0070812A0070812A00708B
:1029E000812A0070812A0070812A0070812A00707B
:1029F000812A0070812A0070732A0070402B3BD01E
:102A00003EE0FFF7A1FB786240E0FFF7B3FB78629E
:102A10003CE0FFF77DFB786238E00C4B1B6803F06D
:102A20002003002B22D0094B1B68DB0803F00303B3
:102A30000D4A22FA03F37B6228E000BFF369FFCF5F
:102A4000000C0058FFF4FF1100100042004402582F
:102A50000044004000480040004C0040005000404E
:102A600000780040007C00400090D003994B7B62CE
:102A70000CE0994B7B6209E04FF400437B6205E078
:102A800000237B62012387F82A3000BF7B6A002B7A
:102A900000F0CE817B695B6A904A32F813301A46A7
:102AA0007B6AB3FBF2F3BB617B695A6813465B0038
:102AB0001344BA699A4205D37B695B681B03BA6900
:102AC0009A4203D9012387F82A30B1E17B6A0022B8
:102AD000BB60FA607B695B6A804A32F813309BB254
:102AE00000223B607A60D7E90023D7E90201FDF7B5
:102AF000DFFB02460B46104619464FF000024FF02E
:102B000000030B0243EA106302027969496849082D
:102B100000200C46054612EB040843EB05097B69CF
:102B20005B6800229A46934652465B4640464946B9
:102B3000FDF7BEFB02460B4613463B623B6AB3F50C
:102B4000407F08D33B6AB3F5801F04D27B691B68C2
:102B50003A6ADA606CE1012387F82A3068E17B6920
:102B6000DB69B3F5004F40F0BD8097F82B30202B88
:102B700048DC002B73DB202B71D801A252F823F024
:102B80000B2C0070132C00705F2C00705F2C0070F9
:102B90001B2C00705F2C00705F2C00705F2C00708D
:102BA000232C00705F2C00705F2C00705F2C007075
:102BB0005F2C00705F2C00705F2C00705F2C007029
:102BC0002B2C00705F2C00705F2C00705F2C00704D
:102BD0005F2C00705F2C00705F2C00705F2C007009
:102BE0005F2C00705F2C00705F2C00705F2C0070F9
:102BF0005F2C00705F2C00705F2C00705F2C0070E9
:102C0000512C0070402B26D029E0FFF749FA78625A
:102C10002BE0FFF761FA786227E0FFF795FA786218
:102C200023E0FFF7A7FA78621FE02D4B1B6803F043
:102C30002003002B09D02A4B1B68DB0803F0030399
:102C4000244A22FA03F37B620FE0224B7B620CE002
:102C5000214B7B6209E04FF400437B6205E00023D7
:102C60007B62012387F82A3000BF7B6A002B00F0CB
:102C7000DF807B695B6A194A32F813301A467B6A37
:102C8000B3FBF2F35A007B695B685B081A447B690B
:102C90005B68B2FBF3F33B623B6A0F2B16D93B6ACE
:102CA000B3F5803F12D23B6A9BB223F00F03FB8344
:102CB0003B6A5B089BB203F007039AB2FB8B13439A
:102CC000FB837B691B68FA8BDA60B1E0012387F82C
:102CD0002A30ADE00090D00300093D008C6C0070FC
:102CE0000044025897F82B30202B49DC002B74DB72
:102CF000202B72D801A252F823F000BF872D00705C
:102D00008F2D0070DB2D0070DB2D0070972D007073
:102D1000DB2D0070DB2D0070DB2D00709F2D00700F
:102D2000DB2D0070DB2D0070DB2D0070DB2D0070C3
:102D3000DB2D0070DB2D0070DB2D0070A72D0070E7
:102D4000DB2D0070DB2D0070DB2D0070DB2D0070A3
:102D5000DB2D0070DB2D0070DB2D0070DB2D007093
:102D6000DB2D0070DB2D0070DB2D0070DB2D007083
:102D7000DB2D0070DB2D0070DB2D0070CD2D007081
:102D8000402B26D029E0FFF78BF978622BE0FFF784
:102D9000A3F9786227E0FFF7D7F9786223E0FFF71D
:102DA000E9F978621FE02D4B1B6803F02003002B2C
:102DB00009D02A4B1B68DB0803F00303284A22FAD8
:102DC00003F37B620FE0264B7B620CE0254B7B62BA
:102DD00009E04FF400437B6205E000237B6201239E
:102DE00087F82A3000BF7B6A002B21D07B695B6AA1
:102DF0001D4A32F813301A467B6AB3FBF2F27B6944
:102E00005B685B081A447B695B68B2FBF3F33B6267
:102E10003B6A0F2B09D93B6AB3F5803F05D23B6A69
:102E20009AB27B691B68DA6002E0012387F82A30D6
:102E30007B690122A3F86A207B690122A3F868203C
:102E40007B6900225A677B6900229A6797F82A30CB
:102E500018463037BD46BDE8B08F00BF0044025869
:102E60000090D00300093D008C6C007080B483B0EA
:102E700000AF78607B689B6A03F00803002B0AD0E0
:102E80007B681B685B6823F400417B689A6B7B68F6
:102E90001B680A435A607B689B6A03F00103002B9E
:102EA0000AD07B681B685B6823F400317B68DA6AB0
:102EB0007B681B680A435A607B689B6A03F00203C5
:102EC000002B0AD07B681B685B6823F480317B6829
:102ED0001A6B7B681B680A435A607B689B6A03F025
:102EE0000403002B0AD07B681B685B6823F48021F5
:102EF0007B685A6B7B681B680A435A607B689B6AD5
:102F000003F01003002B0AD07B681B689B6823F436
:102F100080517B68DA6B7B681B680A439A607B6828
:102F20009B6A03F02003002B0AD07B681B689B6818
:102F300023F400517B681A6C7B681B680A439A6013
:102F40007B689B6A03F04003002B1AD07B681B68E8
:102F50005B6823F480117B685A6C7B681B680A43AA
:102F60005A607B685B6CB3F5801F0AD17B681B6875
:102F70005B6823F4C0017B689A6C7B681B680A431A
:102F80005A607B689B6A03F08003002B0AD07B6841
:102F90001B685B6823F400217B68DA6C7B681B6824
:102FA0000A435A6000BF0C37BD465DF8047B70478A
:102FB00080B598B002AF78607B680022C3F890209B
:102FC000FEF796FA78657B681B681B6803F00803B8
:102FD000082B2FD16FF07E4300937B6D00224FF4BE
:102FE0000011786800F08EF80346002B22D07B6831
:102FF0001B68BB63BB6B53E8003F7B637B6B23F0B9
:1030000080033B657B681B681A463B6D7B643A64B2
:10301000396C7A6C41E80023FB63FB6B002BE6D133
:103020007B682022C3F888207B68002283F88420F4
:10303000032363E07B681B681B6803F00403042B15
:1030400049D16FF07E4300937B6D00224FF48001E5
:10305000786800F057F80346002B3CD07B681B686B
:103060007B627B6A53E8003F3B623B6A23F49073C8
:10307000FB647B681B681A46FB6C3B63FA62F96A67
:103080003A6B41E80023BB62BB6A002BE6D17B6848
:103090001B6808333B613B6953E8003FFB60FB68FA
:1030A00023F00103BB647B681B680833BA6CFA61C8
:1030B000BB61B969FA6941E800237B617B69002B38
:1030C000E5D17B682022C3F88C207B68002283F83E
:1030D0008420032312E07B682022C3F888207B68C9
:1030E0002022C3F88C207B680022DA667B680022ED
:1030F0001A677B68002283F884200023184658371B
:10310000BD4680BD80B584B000AFF860B9603B605B
:103110001346FB714FE0BB69B3F1FF3F4BD0FEF7A5
:10312000E7F902463B68D31ABA699A4202D3BB69EF
:10313000002B01D103234EE0FB681B681B6803F0E2
:103140000403002B37D0BB68802B34D0BB68402BE6
:1031500031D0FB681B68DB6903F00803082B10D132
:10316000FB681B6808221A62F86800F039F8FB68EF
:103170000822C3F89020FB68002283F884200123F2
:1031800029E0FB681B68DB6903F40063B3F5006F9B
:1031900011D1FB681B684FF400621A62F86800F0F6
:1031A0001FF8FB682022C3F89020FB68002283F8F8
:1031B000842003230FE0FB681B68DA69BB681340B7
:1031C000BA689A420CBF01230023DBB21A46FB798E
:1031D0009A42A0D0002318461037BD4680BD00009B
:1031E00080B495B000AF78607B681B687B637B6BB5
:1031F00053E8003F3B633B6B23F49073FB647B68B5
:103200001B681A46FB6C3B64FA63F96B3A6C41E845
:103210000023BB63BB6B002BE6D17B681B680833C4
:103220003B623B6A53E8003FFB61FA691E4B134067
:10323000BB647B681B680833BA6CFA62BB62B96A0C
:10324000FA6A41E800237B627B6A002BE5D17B6848
:10325000DB6E012B18D17B681B68FB60FB6853E8B1
:10326000003FBB60BB6823F010037B647B681B6876
:103270001A467B6CBB617A617969BA6941E80023BF
:103280003B613B69002BE6D17B682022C3F88C2090
:103290007B680022DA667B6800225A6700BF5437D9
:1032A000BD465DF8047B7047FEFFFFEF80B58AB036
:1032B00004AFF860B9603B601346FB80FB889B005D
:1032C000184601F0D1FF38613B69002B13D0702004
:1032D00001F0CAFF78617B69002B08D070220021C1
:1032E000786902F061FE7B693A691A6305E0386922
:1032F00002F06CF801E000237B617B69002B0DD0AC
:10330000FA88002303937B6902937B6A01933B6AEB
:1033100000933B68B968F86800F029F87B691846A3
:103320001837BD4680BD80B588B002AFF860B9607F
:103330003B601346FB80FA887B6A01933B6A0093EB
:103340003B68B968F868FFF7B1FF38613B69002B4B
:1033500005D0386900F074F801237B6102E04FF07A
:10336000FF337B617B6918461837BD4680BD80B549
:1033700086B000AFF860B9603B601346FB80BB6A63
:103380001A6BF9886FF040430B449B0013443B6178
:103390003B6923F007033B61BB68002B1ED0002371
:1033A0007B6112E0BA687B6913441978BA6A7B6959
:1033B000134434330A461A70BA687B6913441B7885
:1033C000002B06D07B6901337B617B690F2BE9D928
:1033D00000E000BFBB6A002283F843203B6A372B22
:1033E00001D937233B62BB6A3A6ADA62BB6A3A6A3E
:1033F0005A64BB6A0433184601F0C2FABB6A183338
:10340000184601F0BDFABB6ABA6A1A613B6AC3F199
:103410003802BB6A9A61BB6ABA6A5A623A68F9684A
:10342000386901F0B3FD0246BB6A1A607B6A002B63
:1034300002D07B6ABA6A1A6000BF1837BD4680BDE9
:1034400080B584B000AF786001F050FE404B1B683F
:1034500001333F4A13603F4B1B68002B09D13D4AA3
:103460007B6813603A4B1B68012B10D100F0CAFE39
:103470000DE0394B1B68002B09D1364B1B68DA6A0B
:103480007B68DB6A9A4202D8324A7B681360334B0E
:103490001B680133314A13607B68DA6A304B1B6862
:1034A0009A4203D97B68DB6A2D4A13607B68DA6A2B
:1034B0002C4913469B0013449B000B4404331B68A8
:1034C000FB607B68FA689A60FB689A687B68DA60E0
:1034D000FB689B687A6804325A607B681A1DFB6837
:1034E0009A607B68DA6A13469B0013449B001D4A6E
:1034F0001A447B685A617B68DA6A1A4913469B0052
:1035000013449B000B441B687A68D26A591C154807
:1035100013469B0013449B000344196001F002FE14
:103520000D4B1B68002B0ED00A4B1B68DA6A7B68B8
:10353000DB6A9A4207D20C4B4FF080521A60BFF3FD
:103540004F8FBFF36F8F00BF1037BD4680BD00BFE8
:103550004C06002478010024580600246806002444
:10356000540600247C01002404ED00E080B586B000
:1035700000AF786000237B6101F0B8FD7B68002B11
:1035800002D12D4B1B6800E07B683B613B69043333
:10359000184601F05FFA3B699B6A002B04D03B6937
:1035A0001833184601F056FA244B1B680133234A9E
:1035B0001360214B1B683A699A4201D1012300E054
:1035C0000023FB601E4B1B68002B10D0FB68002BF8
:1035D0000DD03B69043319461A4801F0DEF91A4B45
:1035E0001B680133184A136001237B6106E0174B07
:1035F0001B68013B154A136000F082FE01F092FD4A
:103600007B69012B02D0386900F06AFE0C4B1B6805
:10361000002B0CD0084B1B683A699A4207D10C4B1F
:103620004FF080521A60BFF34F8FBFF36F8F00BF10
:103630001837BD4680BD00BF78010024680600240D
:103640005806002420060024340600244C060024DA
:1036500004ED00E080B584B000AF78600023FB602B
:103660007B68002B08D000F0CBF90021786800F0CF
:1036700081FE00F0D3F9F860FB68002B07D1064B00
:103680004FF080521A60BFF34F8FBFF36F8F00BFB0
:103690001037BD4680BD00BF04ED00E080B586B0A8
:1036A00000AF786001F022FD7B68002B02D1304B27
:1036B0001B6800E07B683B613B690433184601F0FE
:1036C000C9F93B699B6A002B04D03B691833184643
:1036D00001F0C0F93B6904331946264801F05DF951
:1036E00000237B6110E03A697B6913446C331B78DB
:1036F000DBB2012B05D13A697B6913446C3300229C
:103700001A707B6901337B617B69022BEBDD01F071
:1037100009FD194B1B68002B05D001F0E7FC00F0F8
:10372000EFFD01F0FFFC124B1B683A699A421AD177
:10373000114B1B68002B08D0104B4FF080521A60C1
:10374000BFF34F8FBFF36F8F0DE00A4B1B68FB6019
:103750000B4B1B68FA689A4203D1054B00221A6092
:1037600001E000F061FB00BF1837BD4680BD00BF1F
:1037700078010024380600245806002404ED00E0F7
:103780004C06002480B487B000AF786000237B61D2
:103790007B68FB60FB685B69144A93421ED1FB683F
:1037A0009B6A134A934219D0FB689B6A002B15D180
:1037B00001237B6100233B610DE0FA683B69134400
:1037C0006C331B78DBB2012B02D100237B6105E057
:1037D0003B6901333B613B69022BEEDD7B69184697
:1037E0001C37BD465DF8047B704700BF38060024D7
:1037F0000C06002480B584B000AF78607B68FB6065
:10380000354B1B68FA689A4262D0FB68002B5FD088
:1038100001F06CFCF868FFF7B5FF0346002B55D0AC
:10382000FB680433184601F015F9FB68DA6A2B4B84
:103830001B689A4203D9FB68DB6A284A1360FB685D
:10384000DA6A274913469B0013449B000B44043358
:103850001B68BB60FB68BA689A60BB689A68FB68C3
:10386000DA60BB689B68FA6804325A60FB681A1D0C
:10387000BB689A60FB68DA6A13469B0013449B009E
:10388000174A1A44FB685A61FB68DA6A14491346FE
:103890009B0013449B000B441B68FA68D26A591CB6
:1038A0000F4813469B0013449B00034419600A4BC6
:1038B0001B68DA6AFB68DB6A9A4207D2094B4FF051
:1038C00080521A60BFF34F8FBFF36F8F01F02AFC55
:1038D00000BF1037BD4680BD780100245406002487
:1038E0007C01002404ED00E080B58AB002AF012322
:1038F000FB613B4600221A605A609A60DA6000233E
:103900003B6100237B6111E01F4A7B6913441978F6
:103910003A467B6913440A461A703A467B69134457
:103920001B78002B06D07B6901337B617B690E2BF2
:10393000EAD900E000BF3A467B69134400221A70BE
:103940000023BB6115E0114B3B61BB699B00104A32
:1039500013443946019300230093002380223869E1
:10396000FFF7E1FCF861FB69012B06D1BB6901336C
:10397000BB61BB69002BE6DD00E000BFFB691846B8
:103980002037BD4680BD00BFA46B0070D5410070DC
:103990007006002480B582B000AFFFF7A5FF786005
:1039A0007B68012B02D101F07FF878607B68012BE6
:1039B00017D14FF0500372B683F31188BFF36F8FA6
:1039C000BFF34F8F62B63B6000BF094B4FF0FF3231
:1039D0001A60084B01221A60074B00221A6001F09E
:1039E0004DFB064B1B6800BF0837BD4680BD00BFBE
:1039F0006C0600245806002450060024A46C0070B5
:103A000080B400AF044B1B680133034A136000BF4E
:103A1000BD465DF8047B70477406002480B588B00D
:103A200000AF0023FB610023BB6101F05FFB0023BB
:103A30003B616E4B1B68013B6C4A13606B4B1B6810
:103A4000002B40F0CB806A4B1B68002B00F0C68037
:103A50008FE0684BDB68DB68FB61FB699B6AFB609E
:103A6000FB69DB69FA69126A9A60FB691B6AFA6989
:103A7000D2695A60FB685A68FB6918339A4203D1CD
:103A8000FB691A6AFB685A60FB6900229A62FB684C
:103A90001B685A1EFB681A60FB695B69BB60FB69A7
:103AA0009B68FA69D2689A60FB69DB68FA69926878
:103AB0005A60BB685A68FB6904339A4203D1FB69B8
:103AC000DA68BB685A60FB6900225A61BB681B68F0
:103AD0005A1EBB681A60FB69DA6A474B1B689A4238
:103AE00003D9FB69DB6A444A1360FB69DA6A43491C
:103AF00013469B0013449B000B4404331B687B60FC
:103B0000FB697A689A607B689A68FB69DA607B680F
:103B10009B68FA6904325A60FB691A1D7B689A60D7
:103B2000FB69DA6A13469B0013449B00334A1A442C
:103B3000FB695A61FB69DA6A304913469B001344FA
:103B40009B000B441B68FA69D26A591C2B48134628
:103B50009B0013449B0003441960FB69DA6A284BFD
:103B60001B68DB6A9A4204D9264A3B69012142F864
:103B70002310204B1B68002B7FF46BAFFB69002BDD
:103B800001D000F0BDFB204B1B687B617B69002BE3
:103B900012D000F04DF80346002B04D0194A3B69BF
:103BA000012142F823107B69013B7B617B69002B7B
:103BB000EFD1154B00221A60124A3B6952F82330AC
:103BC000002B0BD00123BB610D4B1B680F4B4FF03B
:103BD00080521A60BFF34F8FBFF36F8F01F0A2FACC
:103BE000BB6918462037BD4680BD00BF740600245F
:103BF0004C0600240C060024540600247C010024FA
:103C000078010024600600245C06002404ED00E036
:103C100080B483B000AF054B1B687B607B6818469F
:103C20000C37BD465DF8047B704700BF500600248A
:103C300080B588B000AF0023FB61704B1B68002B80
:103C400040F0D1806E4B1B680133BB616C4ABB698D
:103C50001360BB69002B10D16A4B1B687B616A4BF8
:103C60001B68684A1360684A7B691360674B1B686E
:103C70000133664A136000F043FB654B1B68BA6969
:103C80009A42C0F0A9805F4B1B681B68002B04D1CF
:103C90005F4B4FF0FF321A609EE05A4B1B68DB68A7
:103CA000DB683B613B695B68FB60BA69FB689A4211
:103CB00003D2574AFB6813608EE03B695B69BB60C7
:103CC0003B699B683A69D2689A603B69DB683A69EC
:103CD00092685A60BB685A683B6904339A4203D1C0
:103CE0003B69DA68BB685A603B6900225A61BB686D
:103CF0001B685A1EBB681A603B699B6A002B1ED06A
:103D00003B699B6A7B603B69DB693A69126A9A602E
:103D10003B691B6A3A69D2695A607B685A683B6999
:103D200018339A4203D13B691A6A7B685A603B692F
:103D300000229A627B681B685A1E7B681A603B6986
:103D4000DA6A344B1B689A4203D93B69DB6A314A11
:103D500013603B69DA6A304913469B0013449B00A9
:103D60000B4404331B683B603B693A689A603B68CC
:103D70009A683B69DA603B689B683A6904325A602A
:103D80003B691A1D3B689A603B69DA6A13469B00DF
:103D900013449B00204A1A443B695A613B69DA6A22
:103DA0001D4913469B0013449B000B441B683A6952
:103DB000D26A591C184813469B0013449B000344C5
:103DC00019603B69DA6A154B1B68DB6A9A427FF619
:103DD0005AAF0123FB6156E7114B1B68002B07D03C
:103DE0000123FB6104E00F4B1B6801330D4A136094
:103DF000FB6918462037BD4680BD00BF740600240D
:103E0000500600240406002408060024640600244A
:103E10006C060024540600247C0100247801002450
:103E2000600600245C06002480B483B000AF214B00
:103E30001B68002B03D0204B01221A6034E01E4B7C
:103E400000221A601D4B1B687B6002E07B68013B0F
:103E50007B601B497A6813469B0013449B000B440C
:103E60001B68002BF2D07A6813469B0013449B001A
:103E7000134A13443B603B685B685A683B685A606E
:103E80003B685A683B6808339A4203D13B68DA685A
:103E90003B685A603B685B68DB680A4A1360074A04
:103EA0007B681360074B1B6800BF0C37BD465DF88D
:103EB000047B704774060024600600245406002426
:103EC0007C0100247801002480B582B000AF7860C6
:103ED0003960074B1B6818331946786800F081FD7C
:103EE0000121386800F046FA00BF0837BD4680BDA2
:103EF0007801002480B586B000AFF860B9607A60C0
:103F0000FB685B687B61164B1B687A69DA61144B4E
:103F10001B687A6992681A62114B1A687B699B6800
:103F200018325A600E4B1B6803F118027B699A60C5
:103F30000B4B1B68FA689A62FB681B685A1CFB688B
:103F40001A607B68002B02D04FF0FF33BB607968AA
:103F5000B86800F00FFA00BF1837BD4680BD00BF3B
:103F60007801002480B489B000AF78607B68DB689A
:103F7000DB68BB61BB699B6A7B61BB69DB69BA6952
:103F8000126A9A60BB691B6ABA69D2695A607B6916
:103F90005A68BB6918339A4203D1BB691A6A7B69B4
:103FA0005A60BB6900229A627B691B685A1E7B6952
:103FB0001A604C4B1B68002B61D1BB695B69FB60CD
:103FC000BB699B68BA69D2689A60BB69DB68BA69E9
:103FD00092685A60FB685A68BB6904339A4203D1FD
:103FE000BB69DA68FB685A60BB6900225A61FB68EA
:103FF0001B685A1EFB681A60BB69DA6A3A4B1B6879
:104000009A4203D9BB69DB6A374A1360BB69DA6A33
:10401000364913469B0013449B000B4404331B6832
:10402000BB60BB69BA689A60BB689A68BB69DA60B2
:10403000BB689B68BA6904325A60BB691A1DBB68C9
:104040009A60BB69DA6A13469B0013449B00274AB7
:104050001A44BB695A61BB69DA6A244913469B005A
:1040600013449B000B441B68BA69D26A591C1F4851
:1040700013469B0013449B00034419601BE01C4B38
:104080005B683B61BB693A69DA613B699A68BB6905
:104090001A623B699B68BA6918325A60BB6903F1BE
:1040A00018023B699A60BB69114A9A62104B1B68FF
:1040B00001330F4A1360BB69DA6A0E4B1B68DB6A77
:1040C0009A4205D90123FB610B4B01221A6001E0E2
:1040D0000023FB61FB6918462437BD465DF8047B6D
:1040E000704700BF74060024540600247C0100249D
:1040F0000C060024780100246006002480B483B0FC
:1041000000AF7860064B1A687B681A60054B1A6826
:104110007B685A6000BF0C37BD465DF8047B704772
:10412000640600245006002480B586B000AF786095
:10413000396000F0DBFF1F4B1B683B617B685B68ED
:104140003A69D31AFB603B681B68B3F1FF3F02D1A9
:1041500000237B6126E07B681A68174B1B689A4234
:104160000AD07B685B683A699A4205D301237B6178
:104170003B6800221A6015E03B681B68FA689A42A7
:104180000BD23B681A68FB68D21A3B681A607868E1
:10419000FFF7B4FF00237B6104E03B6800221A6054
:1041A00001237B6100F0BEFF7B6918461837BD46CE
:1041B00080BD00BF500600246406002480B400AF18
:1041C000034B01221A6000BFBD465DF8047B7047B7
:1041D0006006002480B582B000AF786000F052F82D
:1041E000064B1B68012BF9D9054B4FF080521A6022
:1041F000BFF34F8FBFF36F8FF0E700BF7C01002448
:1042000004ED00E080B582B000AF00237B600CE0DD
:104210007A6813469B0013449B00124A13441846C5
:1042200000F08EFB7B6801337B607B68372BEFD916
:104230000D4800F085FB0D4800F082FB0C4800F0B3
:104240007FFB0C4800F07CFB0B4800F079FB0B4B2C
:10425000054A1A600A4B054A1A6000BF0837BD4676
:1042600080BD00BF7C010024DC050024F005002493
:104270000C0600242006002438060024040600242E
:104280000806002480B582B000AF19E000F02EFFD0
:10429000104BDB68DB687B607B680433184600F0FA
:1042A000D9FB0D4B1B68013B0B4A13600B4B1B6882
:1042B000013B0A4A136000F035FF786800F010F8FF
:1042C000064B1B68002BE1D100BF00BF0837BD467D
:1042D00080BD00BF200600244C06002434060024C4
:1042E00080B582B000AF78607B681B6B184601F028
:1042F0006DF8786801F06AF800BF0837BD4680BDE8
:1043000080B400AF0A4B1B681B68002B04D1094B1B
:104310004FF0FF321A6005E0054B1B68DB681B6835
:10432000044A136000BFBD465DF8047B704700BFC0
:10433000040600246C06002480B483B000AF0B4B4D
:104340001B68002B02D101237B6008E0084B1B682F
:10435000002B02D102237B6001E000237B607B689D
:1043600018460C37BD465DF8047B7047580600249C
:104370007406002480B588B000AF786039602F4B98
:104380001B68FB612E4B1B68BB612E4B1B687B615E
:104390002D4B1B680433184600F05CFB7B68B3F1BF
:1043A000FF3F24D13B68002B21D0284B5B683B6149
:1043B000254B1B683A699A60234B1B683A699268DF
:1043C000DA60214B1A683B699B6804325A601E4BC5
:1043D0001B681A1D3B699A601B4B1B681B4A5A617C
:1043E0001A4B1B680133194A136000BF22E0FA69B7
:1043F0007B681344FB60144B1B68FA685A60FA68C8
:10440000FB699A4207D2104B1B680433194678693E
:1044100000F0E7FA0EE00C4B1B6804331946B8694C
:1044200000F0DFFA0A4B1B68FA689A4202D2084A87
:10443000FB68136000BF2037BD4680BD50060024D6
:10444000040600240806002478010024380600240D
:104450006C06002480B584B000AF78603960012319
:10446000FB607B68BB60BB68002B5DD0BB68DB6B0F
:10447000002B59D0BB681A6CBB68DB6B0021A3FB17
:104480000223002B00D001210B46002B4CD100F061
:104490002DFEBB681A68BB68DB6BB968096C01FB51
:1044A00003F31A44BB689A60BB6800229A63BB6836
:1044B0001A68BB685A60BB681A68BB68DB6B013B53
:1044C000B968096C01FB03F31A44BB68DA60BB6886
:1044D000FF2283F84420BB68FF2283F845203B6815
:1044E000002B14D1BB681B69002B1AD0BB6810339A
:1044F0001846FFF737FD0346002B12D00E4B4FF046
:1045000080521A60BFF34F8FBFF36F8F09E0BB6813
:104510001033184600F014FABB682433184600F034
:104520000FFA00F0FFFD01E00023FB60FB68184676
:104530001037BD4680BD00BF04ED00E080B58AB0F5
:1045400002AFF860B9601346FB710023FB61FB68A2
:10455000002B2DD00021BA68FB68A3FB0223002B9F
:1045600000D001210B46002B22D1FB68BA6802FB68
:1045700003F313F1490F1BD8FB68BA6802FB03F37E
:10458000BB61BB694833184600F06EFEF861FB69F9
:10459000002B0DD0FB697B617B6948337B61FA7925
:1045A000FB69009313467A69B968F86800F005F86A
:1045B000FB6918462037BD4680BD80B584B000AF8A
:1045C000F860B9607A60FB70BB68002B03D1BB69EF
:1045D000BA691A6002E0BB697A681A60BB69FA6856
:1045E000DA63BB69BA681A640121B869FFF732FF60
:1045F00000BF1037BD4680BD80B58AB000AFF860FF
:10460000B9607A6000237B62FB683B6200F06EFD5C
:104610003B6A9B6BFB61FB69002B1FD0B968386A52
:1046200000F08CF8FB695A1E3B6A9A633B6A1B696F
:10463000002B0FD03B6A10331846FFF793FC03465C
:10464000002B07D03C4B4FF080521A60BFF34F8FC6
:10465000BFF36F8F00F066FD012369E07B68002BDC
:1046600003D100F05FFD002362E07B6A002B06D1DE
:1046700007F114031846FFF741FD01237B6200F0A8
:1046800051FDFFF7BDF900F031FD3B6A93F844306E
:104690005BB2B3F1FF3F03D13B6A002283F84420B1
:1046A0003B6A93F845305BB2B3F1FF3F03D13B6AFD
:1046B000002283F8452000F035FD3A1D07F1140370
:1046C00011461846FFF730FD0346002B23D1386A08
:1046D00000F0ACF80346002B17D03B6A24337A680D
:1046E00011461846FFF7F0FB386A00F04DF8FFF767
:1046F00095F90346002B89D10F4B4FF080521A6079
:10470000BFF34F8FBFF36F8F80E7386A00F03CF83C
:10471000FFF784F97AE7386A00F036F8FFF77EF998
:10472000386A00F083F80346002B3FF46FAF002394
:1047300018462837BD4680BD04ED00E080B582B044
:1047400000AF786039607B681B6C002B18D07B68E9
:10475000DA687B681B6C1A447B68DA607B68DA680D
:104760007B689B689A4203D37B681A687B68DA602F
:104770007B68D9687B681B6C1A46386801F099FC25
:1047800000BF0837BD4680BD80B584B000AF7860FB
:1047900000F0ACFC7B6893F84530FB7311E07B685C
:1047A0005B6A002B12D07B6824331846FFF7DAFBD4
:1047B0000346002B01D0FFF701FDFB7B013BDBB281
:1047C000FB7397F90F30002BE9DC00E000BF7B683A
:1047D000FF2283F8452000F0A5FC00F087FC7B68F1
:1047E00093F84430BB7311E07B681B69002B12D037
:1047F0007B6810331846FFF7B5FB0346002B01D04A
:10480000FFF7DCFCBB7B013BDBB2BB7397F90E30DF
:10481000002BE9DC00E000BF7B68FF2283F8442026
:1048200000F080FC00BF1037BD4680BD80B584B06D
:1048300000AF786000F05AFC7B689B6B002B02D1C4
:104840000123FB6001E00023FB6000F06BFCFB68D0
:1048500018461037BD4680BD80B485B000AF786083
:1048600039600023BB603B68002B24D00023FB6031
:104870001EE0184AFB68DB0013445B687A689A42C2
:1048800005D1FB68DB00134A1344BB6013E0BB682F
:10489000002B0AD10F4AFB6852F83330002B04D1A9
:1048A000FB68DB000B4A1344BB60FB680133FB6011
:1048B000FB68072BDDD9BB68002B05D0BB683A68C5
:1048C0001A60BB687A685A6000BF1437BD465DF84D
:1048D000047B70477806002480B586B000AFF8608E
:1048E000B9607A60FB687B6100F000FC7B6993F83B
:1048F00044305BB2B3F1FF3F03D17B69002283F800
:1049000044207B6993F845305BB2B3F1FF3F03D19C
:104910007B69002283F8452000F004FC7B699B6BD7
:10492000002B06D17B6924337A68B9681846FFF7F3
:10493000E1FA7869FFF728FF00BF1837BD4680BD50
:1049400080B483B000AF78607B6803F108027B68B5
:104950005A607B684FF0FF329A607B6803F108026F
:104960007B68DA607B6803F108027B681A617B6808
:1049700000221A6000BF0C37BD465DF8047B70470B
:1049800080B483B000AF78607B6800221A6100BFFA
:104990000C37BD465DF8047B704780B485B000AF2E
:1049A000786039607B685B68FB603B68FA685A60D6
:1049B000FB689A683B689A60FB689B683A685A6033
:1049C000FB683A689A603B687A681A617B681B6882
:1049D0005A1C7B681A6000BF1437BD465DF8047B23
:1049E000704780B485B000AF786039603B681B6861
:1049F000BB60BB68B3F1FF3F03D17B681B69FB6001
:104A00000CE07B680833FB6002E0FB685B68FB60DE
:104A1000FB685B681B68BA689A42F6D2FB685A6802
:104A20003B685A603B685B683A689A603B68FA6822
:104A30009A60FB683A685A603B687A681A617B68DA
:104A40001B685A1C7B681A6000BF1437BD465DF8AE
:104A5000047B704780B485B000AF78607B681B69C9
:104A6000FB607B685B687A6892689A607B689B6889
:104A70007A6852685A60FB685B687A689A4203D128
:104A80007B689A68FB685A607B6800221A61FB6841
:104A90001B685A1EFB681A60FB681B6818461437AF
:104AA000BD465DF8047B704780B584B002AF00233B
:104AB0007B6000F035FA0A4B1B68002B0AD0094BCB
:104AC0000193032300930023802207490748FEF740
:104AD0002AFC78607B6818460837BD4680BD00BF59
:104AE000E8060024EC060024AC6B0070954B0070C7
:104AF00080B584B000AFF860B9607A6008E0FB6808
:104B00009B69BA681344BB60FB681B6AF8689847E6
:104B1000FB689A69BB68D118BB687A68F86800F0CE
:104B2000DFF80346002BEAD100BF00BF1037BD46B7
:104B300080BD000080B584B000AF78603960144B50
:104B40001B68DB68DB68FB60FB6804331846FFF713
:104B500081FFFB6893F8243003F00403002B05D099
:104B60003A687968F868FFF7C3FF08E0FB6893F8D4
:104B7000243023F00103DAB2FB6883F82420FB68B9
:104B80001B6AF868984700BF1037BD4680BD00BF5C
:104B9000E006002480B584B000AF786007F1080318
:104BA000184600F059F8F860BB681946F86800F03C
:104BB00005F800F0D7F800BFF0E7000080B584B03A
:104BC00000AF78603960FEF71BFF07F10803184655
:104BD00000F066F8F860BB68002B30D13B68002B12
:104BE0000AD17A68FB689A4206D8FEF717FFF9687F
:104BF0007868FFF79FFF24E03B68002B08D0134B39
:104C00001B681B68002B01D1012300E000233B60DF
:104C10000F4B18687A68FB68D31A3A681946FFF791
:104C20005BFEFEF7FBFE0346002B0AD1094B4FF05B
:104C300080521A60BFF34F8FBFF36F8F01E0FEF712
:104C4000EDFE00BF1037BD4680BD00BFE406002466
:104C5000E806002404ED00E080B485B000AF786081
:104C60000E4B1B681B68002B01D1012200E00022C3
:104C70007B681A607B681B68002B05D1074B1B689B
:104C8000DB681B68FB6001E00023FB60FB681846E3
:104C90001437BD465DF8047B704700BFE006002472
:104CA00080B584B000AF7860FEF7B2FFF8600B4BC0
:104CB0001B68FA689A4205D200F00CF97B68012261
:104CC0001A6002E07B6800221A60044AFB681360E5
:104CD000FB6818461037BD4680BD00BFF0060024B3
:104CE00080B586B000AFF860B9607A603B600023A1
:104CF0007B61FB68BA685A60FB68FA681A61BA6837
:104D00007B689A4212D87A683B68D21AFB689B6922
:104D10009A4202D301237B611BE0104B1A68FB68A7
:104D2000043319461046FFF75CFE12E07A683B68D0
:104D30009A4206D2BA683B689A4202D301237B6149
:104D400007E0074B1A68FB68043319461046FFF763
:104D500048FE7B6918461837BD4680BDE40600242E
:104D6000E006002480B586B000AF3B1D00221A602B
:104D70005A609A609CE07B68002BC0F29980FB68C7
:104D80007B617B69002B00F093807B695B69002B62
:104D900004D07B6904331846FFF75CFE3B46184697
:104DA000FFF77EFF38617B68013B082B7DD801A2AD
:104DB00052F823F0D94D0070D94D0070414E00706B
:104DC000554E0070814E0070D94D0070D94D007065
:104DD000414E0070554E00707B6993F8243043F0CB
:104DE0000103DAB27B6983F82420BA687B699B6986
:104DF000D118BB683A697869FFF772FF0346002B48
:104E000055D07B6993F8243003F00403002B09D0BC
:104E1000BA687B699B6913443A6919467869FFF758
:104E200067FE08E07B6993F8243023F00103DAB2CF
:104E30007B6983F824207B691B6A7869984736E090
:104E40007B6993F8243023F00103DAB27B6983F89D
:104E500024202DE07B6993F8243043F00103DAB27B
:104E60007B6983F82420BA687B699A617B699A69B7
:104E70003B69D1183B693A697869FFF731FF17E060
:104E80007B6993F8243003F00203002B03D1786987
:104E900000F09CFA0CE07B6993F8243023F00103C6
:104EA000DAB27B6983F8242002E000BF00E000BF93
:104EB000074B1B68391D00221846FFF79DFB034670
:104EC000002B7FF458AF00BF00BF1837BD4680BD30
:104ED000E806002480B582B000AF09E00E4B1B68E5
:104EE000DB681B683B604FF0FF313868FFF722FE3C
:104EF000094B1B681B68002BF0D1074B1B687B60BC
:104F0000064B1B68044A1360044A7B68136000BFA9
:104F10000837BD4680BD00BFE0060024E40600243B
:104F200080B500AF00F0E2F8124B1B68002B1DD1DA
:104F30001148FFF705FD1148FFF702FD104B0E4A1F
:104F40001A60104B0D4A1A6000220C210A20FFF74C
:104F5000F5FA0346074A1360064B1B68002B05D081
:104F6000044B1B6808491846FFF776FC00F0DAF896
:104F700000BF80BDE8060024B8060024CC0600244B
:104F8000E0060024E4060024B46B007080B485B011
:104F900000AFF860B9607A60FB68043BFB60FB68B7
:104FA0004FF080721A60FB68043BFB60BB6823F023
:104FB0000102FB681A60FB68043BFB600C4AFB685B
:104FC0001A60FB68143BFB607A68FB681A60FB6838
:104FD000043BFB60FB686FF002021A60FB68203B39
:104FE000FB60FB6818461437BD465DF8047B7047CC
:104FF000F54F007080B483B000AF00233B604FF0EA
:10500000500372B683F31188BFF36F8FBFF34F8FD6
:1050100062B67B6000BF00BF3B68002BFCD000BFC6
:1050200000BF0C37BD465DF8047B7047064B19681E
:105030000868B0E8F04F80F30988BFF36F8F4FF036
:10504000000080F3118870477801002400BF00BF82
:1050500008480068006880F308884FF0000080F37B
:10506000148862B661B6BFF34F8FBFF36F8F00DF56
:1050700000BF000008ED00E000BF00BF80B582B0B7
:1050800000AF154B1B687B60144B1B68134A43F43D
:105090007F031360114B1B68104A43F07F4313607A
:1050A0000F4B00221A6000F0AFF80E4B00221A607E
:1050B00000F0CEF80C4B1B680B4A43F040431360E2
:1050C000FFF7C6FFFEF7B0FEFFF794FF0023184678
:1050D0000837BD4680BD00BF08ED00E020ED00E0D0
:1050E0001CED00E01000002434EF00E080B483B039
:1050F00000AF4FF0500372B683F31188BFF36F8F88
:10510000BFF34F8F62B67B6000BF054B1B68013356
:10511000034A136000BF0C37BD465DF8047B70473F
:105120001000002480B483B000AF0A4B1B68013B21
:10513000084A1360074B1B68002B05D100237B60D6
:105140007B6883F3118800BF00BF0C37BD465DF854
:10515000047B704710000024EFF30980BFF36F8FCA
:10516000154B1A681EF0100F08BF20ED108A20E9B9
:10517000F04F10602DE909004FF0500072B680F337
:105180001188BFF34F8FBFF36F8F62B6FEF74CFEEF
:105190004FF0000080F3118809BC19680868B0E876
:1051A000F04F1EF0100F08BFB0EC108A80F3098892
:1051B000BFF36F8F704700007801002400BF00BF6D
:1051C00080B582B000AF4FF0500372B683F3118800
:1051D000BFF36F8FBFF34F8F62B67B6000BFFEF7E8
:1051E00027FD0346002B03D0064B4FF080521A6078
:1051F00000233B603B6883F3118800BF00BF083782
:10520000BD4680BD04ED00E080B400AF0B4B002232
:105210001A600B4B00221A600A4B1B680A4AA2FB59
:1052200003239B09094A013B1360044B07221A60C0
:1052300000BFBD465DF8047B704700BF10E000E092
:1052400018E000E004000024D34D621014E000E0F8
:10525000DFF80C00016841F4700101607047000044
:1052600088ED00E000BF00BF80B588B000AF786077
:1052700000237B6100233B617B68002B22D0082345
:10528000DB437A689A421BD808227B6813447B6010
:105290007B6803F00703002B14D07B6803F007033F
:1052A000C3F10803FB60FB68DB437A689A4204D8C9
:1052B0007A68FB6813447B6004E000237B6001E0B4
:1052C00000237B60FEF79CFB3B4B1B68002B01D14E
:1052D00000F0B6F87B68002B67DB7B68002B64D09E
:1052E000364B1B687A689A425FD8354BBB61344BAA
:1052F0001B68FB6104E0FB69BB61FB691B68FB6128
:10530000FB695B687A689A4203D9FB691B68002BCA
:10531000F1D1294B1B68FA699A4246D0BB691B68D8
:10532000082213447B61FB691A68BB691A60FB6938
:105330005A687B68D21A08235B009A4213D9FA692B
:105340007B681344BB60FB695A687B68D21ABB68F0
:105350005A60FB697A685A60BB691A68BB681A6050
:10536000BB69BA681A60154B1A68FB695B68D31A87
:10537000124A1360114B1A68124B1B689A4203D2EF
:105380000E4B1B680F4A1360FB695B683B61FB694E
:105390005B6843F00042FB695A60FB6900221A60B7
:1053A000094B1B680133084A1360FEF737FB7B6922
:1053B00018462037BD4680BDFC06022400070224A3
:1053C000F4060224040702240807022480B584B0EE
:1053D00000AF78607B68FB607B68002B27D00823D8
:1053E0005B42FA681344FB60FB68BB60BB685B68A8
:1053F000002B1CDABB681B68002B18D1BB685B68EC
:1054000023F00042BB685A60FEF7FAFABB685A689C
:10541000094B1B681344084A1360B86800F06AF827
:10542000064B1B680133054A1360FEF7F7FA00BF0D
:105430001037BD4680BD00BF000702240C070224C0
:1054400080B485B000AF4FF40033BB60244BFB60E9
:10545000FB6803F00703002B0CD0FB680733FB60ED
:10546000FB6823F00703FB60BA68FB68D31A1C4A89
:105470001344BB60FB681B4A13601A4B00225A603E
:10548000FA68BB6813447B6008227B689B1A7B60C8
:105490007B6823F007037B607B68134A1360124B21
:1054A0001B6800225A60104B1B6800221A60FB68C0
:1054B0003B603B687A68D21A3B685A600A4B1A68AC
:1054C0003B681A603B685B68084A13603B685B682E
:1054D000074A136000BF1437BD465DF8047B704770
:1054E000F4060024F4060224FC0602240407022425
:1054F0000007022480B485B000AF7860284BFB60C1
:1055000002E0FB681B68FB60FB681B687A689A42D4
:10551000F7D8FB68BB60FB685B68BA6813447A68BD
:105520009A4208D1FB685A687B685B681A44FB683A
:105530005A60FB687B607B68BB607B685B68BA68AD
:105540001A44FB681B689A4218D1FB681A68154B0D
:105550001B689A420DD07B685A68FB681B685B68C1
:105560001A447B685A60FB681B681A687B681A607B
:1055700008E00C4B1A687B681A6003E0FB681A6845
:105580007B681A60FA687B689A4202D0FB687A6886
:105590001A6000BF1437BD465DF8047B704700BF3A
:1055A000F4060224FC0602240B460146184600F0CD
:1055B0002FBA00F00FB80268D207034605D442782C
:1055C00002B1FFDE012058707047002070470123B0
:1055D0000360704700F066B92DE9F047089D0E465C
:1055E00004460F46002B4AD194468C45B2FA82F20B
:1055F00060D942B1C2F12003974020FA03F30CFABC
:1056000002FC1F4394404FEA1C4E1FFA8CF6B7FB76
:10561000FEF1230C0EFB117743EA074301FB06F072
:1056200098420AD91CEB030301F1FF3780F0158182
:10563000984240F21281023963441B1AA4B2B3FBB0
:10564000FEF00EFB103344EA034400FB06F6A642CC
:105650000AD91CEB040400F1FF3380F00081A6425C
:1056600040F2FD806444023840EA0140A41B00215E
:105670001DB1D4400023C5E90043BDE8F0878B424B
:1056800005D90DB1C5E9000100210846F5E7B3FAD7
:1056900083F1002946D1B34202D3824200F2F58061
:1056A000841A66EB030201201746002DE5D0C5E9F8
:1056B0000047E2E7002A40F09380A1EB0C034FEA99
:1056C0001C471FFA8CFE0121B3FBF7F607FB1630CF
:1056D000230C43EA00430EFB06F0984208D91CEB6A
:1056E000030306F1FF3802D2984200F2D08046460A
:1056F0001B1AA4B2B3FBF7F007FB103344EA0344D0
:105700000EFB00FEA64508D91CEB040400F1FF3394
:1057100002D2A64500F2B6801846A4EB0E0440EA79
:105720000640A5E7C1F120078B4022FA07FC4CEAAE
:10573000030C06FA01FE20FA07F426FA07F344EAFE
:105740000E0400FA01F84FEA1C404FEA1449B3FB7B
:10575000F0FE1FFA8CF600FB1E3349EA03430EFBF2
:1057600006F9994502FA01F20BD91CEB03030EF17D
:10577000FF3A80F08580994540F28280AEF1020EBA
:105780006344A3EB0909A4B2B9FBF0F300FB13993E
:1057900044EA094403FB06F6A64208D91CEB0404BC
:1057A00003F1FF3068D2A64266D9023B644443EA63
:1057B0000E40A41BA0FB02E6B4427346B14652D38E
:1057C0004FD05DB1B8EB030264EB090404FA07F7AC
:1057D00022FA01F31F43CC40C5E9007400214CE7D5
:1057E000C2F1200120FA01F30CFA02FC26FA01F1C1
:1057F000964033434FEA1C471FFA8CFEB1FBF7F08B
:1058000007FB1016190C41EA064100FB0EF68E420A
:1058100004FA02F408D91CEB010100F1FF382DD283
:105820008E422BD902386144891B9BB2B1FBF7F63B
:1058300007FB161143EA014306FB0EF1994208D912
:105840001CEB030306F1FF3814D2994212D9023E31
:1058500063445B1A46EA004136E73946EDE61846EE
:1058600002E7F045ADD2BEEB020366EB0C06013851
:10587000B146A6E74646ECE7034698E74046D3E73D
:10588000D6467EE76444023847E708460DE7023E05
:1058900063442DE7024B0146186800F02DB800BFA5
:1058A00020000024024B0146186800F011BC00BF24
:1058B0002000002470B50F4E0C463168054611B922
:1058C00000F0AEFB30602146284600F0A9FB431CE7
:1058D00003D14FF0FF34204670BDC41C24F00304F4
:1058E000A042F8D0211A284600F09AFB0130F2D1EC
:1058F000EFE700BF100702242DE9F843CD1C25F087
:10590000030508350C2D38BF0C25002D064601DB9C
:10591000A94204D90C2333600020BDE8F883DFF8E6
:10592000D48000F069F8D8F800301C4644BB294602
:105930003046FFF7BFFF431C044658D1D8F800405B
:105940002746002F43D1002C4BD0236839463046E0
:1059500004EB030900F064FB814542D121686D1A14
:1059600029463046FFF7A6FF01303AD023682B4482
:105970002360D8F800305A6862BBC8F800700FE0A6
:105980002268521B20D40B2A17D96119A342256023
:1059900018BF5960636808BFC8F8001062514B60B7
:1059A000304600F02FF804F10B00231D20F0070013
:1059B000C21A1CBF1B1AA350AFE76268A3420CBFF8
:1059C000C8F800205A60EBE723466468AEE73C461F
:1059D0007F68B6E71A465B68A342FBD10023536099
:1059E000DEE70C233360304600F00CF894E70560E6
:1059F000D6E700BF14070224014800F058BB00BFDF
:105A000058080224014800F053BB00BF5808022484
:105A100010B504460448134620B10A460220214628
:105A2000AFF3008010BD00BF00000000002310B5E0
:105A30000446C0E90033C0E90433836081814366D2
:105A4000C2818361194608225C3000F0ADFA0D4B2B
:105A500063620D4BA3620D4BE3620D4B23630D4B51
:105A600024629C4206D003F16802944202D0D033F3
:105A70009C4205D104F15800BDE8104000F016BB6F
:105A800010BD00BFF95D00701B5E0070535E0070BA
:105A9000775E007018070224024A0349034800F0A9
:105AA00069B800BF140000240968007024000024B5
:105AB00041680C4B994210B5044601D000F0A4FE99
:105AC000A168094B994202D0204600F09DFEE16892
:105AD000064B994204D02046BDE8104000F094BE29
