:020000040800F2
:1000000000000220750C0008C90C00081512000839
:10001000291200082F120008351200080000000005
:10002000000000000000000000000000D17C00087B
:10003000C90C000800000000FD7D00080F11000839
:10004000C90C0008C90C0008C90C0008C90C00083C
:10005000C90C0008C90C0008C90C0008C90C00082C
:10006000C90C0008C90C0008C90C0008C90C00081C
:10007000C90C0008C90C0008C90C0008C90C00080C
:10008000C90C0008C90C0008C90C0008C90C0008FC
:10009000C90C0008C90C0008C90C0008C90C0008EC
:1000A000C90C0008C90C0008C90C0008C90C0008DC
:1000B000C90C0008C90C0008C90C0008C90C0008CC
:1000C000C90C0008C90C0008C90C0008C90C0008BC
:1000D000C90C0008C90C0008C90C0008C90C0008AC
:1000E000C90C0008C90C000800000000C90C000879
:1000F000C90C0008C90C0008C90C0008C90C00088C
:10010000C90C0008C90C0008C90C0008C90C00087B
:10011000C90C0008C90C0008C90C0008C90C00086B
:10012000C90C0008C90C0008C90C0008C90C00085B
:10013000C90C0008C90C0008C90C0008C90C00084B
:1001400000000000000000000000000000000000AF
:10015000C90C0008C90C0008C90C0008C90C00082B
:10016000C90C0008C90C0008C90C0008C90C00081B
:10017000C90C0008C90C0008C90C000800000000E8
:10018000C90C0008C90C0008C90C0008C90C0008FB
:10019000C90C0008C90C0008C90C0008C90C0008EB
:1001A000C90C0008C90C0008C90C0008C90C0008DB
:1001B000C90C0008C90C0008C90C0008C90C0008CB
:1001C000C90C0008C90C0008C90C0008C90C0008BB
:1001D000C90C0008C90C0008C90C0008C90C0008AB
:1001E000C90C0008C90C0008C90C0008C90C00089B
:1001F000C90C0008C90C0008C90C0008C90C00088B
:10020000C90C0008C90C0008C90C0008C90C00087A
:10021000C90C0008C90C0008C90C0008C90C00086A
:10022000C90C0008C90C0008C90C00080000000037
:10023000C90C0008C90C000800000000C90C000827
:10024000C90C0008C90C0008C90C0008C90C00083A
:10025000C90C0008C90C0008C90C0008C90C00082A
:10026000C90C0008C90C0008C90C0008C90C00081A
:10027000C90C0008C90C0008C90C000800000000E7
:10028000C90C0008C90C0008C90C000800000000D7
:0802900000000000C90C000889
:1002A00053B94AB9002908BF00281CBF4FF0FF31DD
:1002B0004FF0FF3000F00CB8ADF1080C6DE904CE42
:1002C00007F0DCFFDDF804E0DDE9022304B070474D
:1002D000704700BF000000000000000000000000A8
:1002E00001F0FF01102A2BDB10F0070F08D010F8E7
:1002F000013B013A8B422DD010F0070F42B3F6D1EB
:10030000F0B441EA012141EA014122F007047FF003
:1003100000070023F0E80256083C85EA010586EA5A
:10032000010685FA47F5A3FA87F586FA47F6A5FA96
:1003300087F68EB9EED1F0BC01F0FF0102F00702A2
:1003400032B110F8013B013A83EA010313B1F8D14D
:100350000020704701387047002D06BF354603382E
:10036000073815F0010F07D1013015F4807F02BF67
:10037000013015F4C03F0130F0BC0138704700BFB8
:100380000348044B834202D0034B03B11847704724
:100390007400002074000020000000000548064B97
:1003A0001B1AD90F01EBA301491002D0034B03B173
:1003B00018477047740000207400002000000000FF
:1003C00010B5064C237843B9FFF7DAFF044B13B19D
:1003D0000448AFF300800123237010BD7400002097
:1003E00000000000F894000808B5054B1BB1054952
:1003F0000548AFF30080BDE80840FFF7CFBF00BF5E
:100400000000000078000020F894000880B483B059
:1004100000AF7860044A7B68136000BF0C37BD46AC
:100420005DF8047B704700BF9000002080B584B069
:1004300000AFF860B9607A60094B1B68002B09D0E7
:10044000074B1B681B6808331B68054A10687A68ED
:10045000B96898477B6818461037BD4680BD00BF15
:100460009000002080B483B000AF7860044A7B68BD
:100470001A607B6818460C37BD465DF8047B7047F0
:10048000D897000880B483B000AF7860044A7B68D6
:100490001A607B6818460C37BD465DF8047B7047D0
:1004A000D897000880B582B000AF78607868FFF711
:1004B000E9FF0421786807F0CEFE7B68184608370C
:1004C000BD4680BD80B584B000AFF860B9607A6089
:1004D000FB681846FFF7C6FF084AFB681A60FB680E
:1004E000BA685A60FB687A689A60FB680022DA6032
:1004F000FB6818461037BD4680BD00BFC497000892
:1005000080B582B000AF78607B685B681B68103391
:100510001B687A685268104698477B68DB685A1CEB
:100520007B68DA607B68DB681946044808F08AF962
:100530004FF47A7005F0E0FE00BFE5E7289500086B
:1005400080B582B000AF7860054A7B681A607B682E
:100550001846FFF797FF7B6818460837BD4680BDF1
:10056000C497000880B582B000AF78607868FFF764
:10057000E7FF1021786807F06EFE7B6818460837A1
:10058000BD4680BDB0B590B002AF00F075F900F087
:1005900001FA03461846FFF739FF4D4B3C1D1D4637
:1005A0000FCD0FC40FCD0FC40FCD0FC42B68236028
:1005B00000F0F0F903461A6808321468391D332236
:1005C0001846A047434808F0A5F9434808F0A2F9A7
:1005D000424808F09FF9424808F09CF9414B1B68DB
:1005E000BFF35B8F03F00103002B0CBF012300233B
:1005F000DBB2002B12D03B4807F02FFE0346002B46
:1006000014BF01230023DBB2002B07D000F0CCF98C
:100610000346354A1360334807F02BFE334B1B6803
:10062000BFF35B8F03F00103002B0CBF01230023FA
:10063000DBB2002B1CD02D4807F00FFE0346002B29
:1006400014BF01230023DBB2002B11D0264B1C6802
:1006500000F0A0F903461A4621462548FFF732FF6D
:10066000244A2549224807F0F1FD204807F001FE01
:10067000224B1B68BFF35B8F03F00103002B0CBF01
:1006800001230023DBB2002B1BD01C4807F0E5FD43
:100690000346002B14BF01230023DBB2002B10D034
:1006A000032300934FF40073154A1149154800F0D5
:1006B0000FFF104A1449134807F0C8FD0F4807F010
:1006C000D8FD104800F054FF05F0B6FF00BFFDE76D
:1006D000349600085C95000890950008C0950008C5
:1006E000F09500089800002094000020AC00002045
:1006F0009C0000200000002041050008C8000020E8
:1007000024960008B00000201915000880B59CB0A0
:1007100000AF07F124034C220021184608F0DAF953
:100720003B1D20220021184608F0D4F9022001F0D8
:100730007DFB00233B60384B9B69374A43F44043C1
:100740009361354B9B6903F440433B60334BDB6A59
:10075000324A43F00103D362304BDB6A03F00103FA
:100760003B603B6800BF2C4B9B6903F40053B3F51F
:10077000005F14BF01230023DBB2002BF3D1012360
:100780007B624FF48033BB620223BB640223FB64B1
:1007900002233B653C237B650223BB650F23FB657E
:1007A00002233B660C237B660023BB660023FB66AB
:1007B00007F12403184601F073FB0346002B14BF16
:1007C00001230023DBB2002B01D000F09AFC3F2371
:1007D0007B600323BB600023FB6008233B61402355
:1007E0007B614023BB614FF48063FB6140233B622C
:1007F0003B1D0421184601F0ADFF0346002B14BF3A
:1008000001230023DBB2002B01D000F07AFC00BFF3
:100810007037BD4680BD00BF004802580004005834
:1008200080B584B000AF3B4600221A605A609A60DF
:10083000DA6001F07DF801233B7000237B70002318
:100840007B601F233B7287237B720023BB720023D4
:10085000FB7201233B7301237B730023BB730023D3
:10086000FB733B46184601F09BF8042001F078F832
:1008700000BF1037BD4680BD80B584B000AFFFF724
:10088000CFFF424B5B6903F40033002B14BF0123FD
:100890000023DBB2002B1BD1BFF34F8F00BFBFF390
:1008A0006F8F00BF394B0022C3F85022BFF34F8F28
:1008B00000BFBFF36F8F00BF344B5B69334A43F413
:1008C00000335361BFF34F8F00BFBFF36F8F00E062
:1008D00000BF2E4B5B6903F48033002B14BF012350
:1008E0000023DBB2002B42D1284B0022C3F8842026
:1008F000BFF34F8F00BF254BD3F88030FB60FB6800
:100900005B0BC3F30E03BB60FB68DB08C3F3090397
:100910007B60BB685A0143F6E07313407A68920724
:100920001A491343C1F860327B685A1E7A60002B63
:1009300014BF01230023DBB2002BEAD1BB685A1E8F
:10094000BA60002B14BF01230023DBB2002BDBD1E4
:10095000BFF34F8F00BF0D4B5B690C4A43F48033EC
:100960005361BFF34F8F00BFBFF36F8F00E000BF35
:1009700000F05CFEFFF7CAFE00F048FA044800F001
:100980001BFD00BF1037BD4680BD00BF00ED00E07D
:10099000CC00002080B400AF024B1846BD465DF885
:1009A000047B7047CC00002080B586B000AF144BAC
:1009B000D3F8E030124A43F00403C2F8E030104BA1
:1009C000D3F8E03003F004033B603B683B1D00229A
:1009D0001A605A609A60DA601A6101237B60012311
:1009E000BB600023FB6000233B613B1D19460548AB
:1009F00001F016F8044B18461837BD4680BD00BFFD
:100A000000440258000802586401002080B483B0FA
:100A100000AF7860044A7B681A607B6818460C3720
:100A2000BD465DF8047B7047EC97000880B582B046
:100A300000AF78607868FFF7E9FF0421786807F075
:100A40000AFC7B6818460837BD4680BD80B582B079
:100A500000AF7860054A7B681A607B681846FFF72C
:100A6000D5FF7B6818460837BD4680BD54980008FE
:100A700080B582B000AF78607868FFF7E7FF982113
:100A8000786807F0E8FB7B6818460837BD4680BDEC
:100A900080B483B000AF7860044A7B681A607B68DA
:100AA00018460C37BD465DF8047B70470498000873
:100AB00080B582B000AF78607868FFF7E9FF042165
:100AC000786807F0C8FB7B6818460837BD4680BDCC
:100AD00080B582B000AF7860054A7B681A607B6899
:100AE0001846FFF7D5FF7B6818460837BD4680BD1E
:100AF0003498000880B582B000AF78607868FFF75E
:100B0000E7FF0C21786807F0A6FB7B6818460837DA
:100B1000BD4680BD80B500AF4FF4E1320A490B48B5
:100B200000F00EFC0A4A0B49084807F08FFB01222F
:100B300009490A4800F092FB054A0949074807F0AD
:100B400085FB00BF80BD00BF00100140CC0000202D
:100B5000000000204D0A000800080258640100202F
:100B6000D10A000880B500AFFFF7D4FF80BD0000B8
:100B700080B483B000AF0A4BD3F8F430084A43F096
:100B80000203C2F8F430064BD3F8F43003F002034A
:100B90007B607B6800BF0C37BD465DF8047B704707
:100BA0000044025880B5BAB000AF786007F1D403B2
:100BB00000221A605A609A60DA601A6107F1100325
:100BC000C0220021184607F085FF7B681B68264A73
:100BD000934245D14FF001024FF00003C7E90423CF
:100BE0000023C7F88C3007F11003184602F03EF9D5
:100BF0000346002B01D000F084FA1C4BD3F8F030F0
:100C00001A4A43F01003C2F8F030184BD3F8F03012
:100C100003F01003FB60FB68144BD3F8E030134A79
:100C200043F00203C2F8E030104BD3F8E03003F099
:100C30000203BB60BB68C023C7F8D4300223C7F8E7
:100C4000D8300023C7F8DC300023C7F8E030072392
:100C5000C7F8E43007F1D4031946054800F0E0FE78
:100C600000BFE837BD4680BD001001400044025877
:100C700000040258DFF838D000F042FA00F026F8FD
:100C80000C480D490D4A002302E0D458C4500433E7
:100C9000C4188C42F9D30A4A0A4C002301E01360BD
:100CA0000432A242FBD307F073FFFFF76BFCFEE7B1
:100CB00000000220000000207400002010990008AD
:100CC000740000205C080120FEE7000080B400AF43
:100CD000434BD3F88830424A43F47003C2F888305B
:100CE000404B1B6803F00F03062B07D83D4B1B68D6
:100CF00023F00F033B4A43F0070313603A4B1B6892
:100D0000394A43F001031360374B00221A61364B16
:100D10001A683549354B13400B60324B1B6803F0A2
:100D20000803002B07D02F4B1B6823F00F032D4A1D
:100D300043F0070313602C4B00229A612A4B0022D8
:100D4000DA61294B00221A62274B294A9A62264B04
:100D5000284ADA62244B284A1A63234B00225A633A
:100D6000214B254A9A63204B0022DA631E4B224A0C
:100D70001A641D4B00225A641B4B1B681A4A23F449
:100D800080231360184B00221A661C4B1A681C4BF8
:100D90001340B3F1005F02D21A4B01221A60124BCA
:100DA000D3F8D43003F48053002B13D10E4BD3F877
:100DB000D4300D4A43F48053C2F8D430124B43F27E
:100DC000D2021A60084BD3F8D430074A23F4805378
:100DD000C2F8D43000BFBD465DF8047B704700BF49
:100DE00000ED00E000200052004402587FEDF6EADA
:100DF000000202020000FF01800201010010005CFD
:100E00000000FFFF088100510040005280B48BB009
:100E100000AFB14B1B6903F03803182B00F22E8191
:100E200001A252F823F000BF8D0E00087D100008CB
:100E30007D1000087D1000087D1000087D1000085E
:100E40007D1000087D100008A10E00087D1000082C
:100E50007D1000087D1000087D1000087D1000083E
:100E60007D1000087D100008A70E00087D10000806
:100E70007D1000087D1000087D1000087D1000081E
:100E80007D1000087D100008AD0E0008924B1B6815
:100E9000DB0803F00303914A22FA03F37B62F7E0D5
:100EA0008F4B7B62F4E08F4B7B62F1E08A4B9B6A55
:100EB00003F00303FB61884B9B6A1B0903F03F03AC
:100EC000BB61854BDB6A03F001037B61824B5B6B8B
:100ED000DB08C3F30C037A6902FB03F307EE903AD5
:100EE000F8EE677AC7ED047ABB69002B00F0C38087
:100EF000FB69022B59D0FB69022B78D8FB69002BC8
:100F000003D0FB69012B2ED071E0734B1B68DB080B
:100F100003F00303714A22FA03F3FB60FB6807EE58
:100F2000903AF8EE676ABB6907EE903AF8EE677A96
:100F300086EEA77A684B1B6BC3F3080307EE903A63
:100F4000F8EE676A97ED046ADFED675AC6EE257A18
:100F500076EEA77AF7EE006A77EEA67A67EE277A42
:100F6000C7ED087A71E0BB6907EE903AF8EE677A50
:100F7000DFED5E6A86EEA77A574B1B6BC3F308035F
:100F800007EE903AF8EE676A97ED046ADFED565A7D
:100F9000C6EE257A76EEA77AF7EE006A77EEA67AA5
:100FA00067EE277AC7ED087A4FE0BB6907EE903A03
:100FB000F8EE677ADFED4E6A86EEA77A464B1B6B3A
:100FC000C3F3080307EE903AF8EE676A97ED046AF8
:100FD000DFED455AC6EE257A76EEA77AF7EE006A7F
:100FE00077EEA67A67EE277AC7ED087A2DE03A4BBE
:100FF0001B68DB0803F00303384A22FA03F3FB60A3
:10100000FB6807EE903AF8EE676ABB6907EE903A24
:10101000F8EE677A86EEA77A2F4B1B6BC3F30803B3
:1010200007EE903AF8EE676A97ED046ADFED2E5A04
:10103000C6EE257A76EEA77AF7EE006A77EEA67A04
:1010400067EE277AC7ED087A00BF234B1B6B5B0A5C
:1010500003F07F030133BB60BB6807EE903AB8EE44
:10106000677AD7ED086AC6EE877AFCEEE77A17EE64
:10107000903A7B620CE000237B6209E0164B1B6810
:10108000DB0803F00303154A22FA03F37B6200BF77
:10109000114B9B691B0A03F00F03164AD35C7B605C
:1010A0007A6A7B6822FA03F37B620B4B9B6903F03D
:1010B0000F03104AD35C03F01F037A6A22FA03F38A
:1010C0000D4A13600D4A7B6A136000BF2C37BD4682
:1010D0005DF8047B704700BF004402580090D003C5
:1010E00000093D000048E801000000460024744A61
:1010F0000024F44B1C980008080000200400002085
:10110000704780B400AF72B600BF00BFFDE780B586
:1011100000AF00F0FDFA05F061FF0346012B14BF9C
:1011200001230023DBB2002B01D006F09BFE00BFA1
:1011300080BD000080B58AB000AF78607B681B6816
:101140007B627B685B683B627B689B68FB617B685A
:10115000DB68BB617B681B697B617B685B693B61AA
:101160007B689B69FB607B68DB69BB601C4807F0A0
:10117000D1FB1C4807F0CEFBF9681B4807F062FB67
:1011800039691A4807F05EFB3A6A796A184807F02D
:1011900059FBBA69F969174807F054FBBA687969CD
:1011A000154807F04FFB154B9B6A1946144807F08A
:1011B00049FB124BDB6A1946124807F043FB0F4B01
:1011C0005B6B1946104807F03DFB0C4B9B6B1946B7
:1011D0000E4807F037FB0E4807F09CFB00BFFDE709
:1011E0006896000894960008B0960008C09600081B
:1011F000D0960008F09600081097000800ED00E077
:101200003097000848970008609700087897000812
:10121000909700081EF0040F0CBFEFF30880EFF367
:101220000980FFF787BF00BFFFF7F4FF00BFFFF79C
:10123000F1FF00BFFFF7EEFF00BF000080B483B0F6
:1012400000AF7860044A7B681A607B6818460C37E8
:10125000BD465DF8047B70470498000880B584B0F3
:1012600000AFF860B9601346FB80FB681846FFF7D3
:10127000E5FF074AFB681A60FB68BA685A60FB68BA
:10128000FA881A81FB6818461037BD4680BD00BF3A
:101290003498000880B582B000AF78607B685868E9
:1012A0007B681B890122194600F08CFD00BF0837BE
:1012B000BD4680BD80B582B000AF78607B6858685D
:1012C0007B681B890022194600F07CFD00BF0837AF
:1012D000BD4680BD80B582B000AF78607B685A683B
:1012E0007B681B891946104600F085FD00BF083752
:1012F000BD4680BD80B582B000AF78607B685A681B
:101300007B681B891946104600F044FD0346012BFB
:101310000CBF01230023DBB218460837BD4680BD51
:1013200080B483B000AF7860044A7B681A607B6841
:1013300018460C37BD465DF8047B7047EC970008F3
:1013400080B584B000AFF860B9607A60FB68184679
:10135000FFF7E6FF174AFB681A60FB680433942224
:101360000021184607F0B6FBFB68BA685A60FB68B4
:101370007A689A60FB680022DA60FB6800221A61D2
:10138000FB6800225A61FB680C229A61FB6800220C
:10139000DA61FB6800221A62FB6800225A62FB686D
:1013A00000229A62FB680022DA62FB681846103756
:1013B000BD4680BD5498000880B582B000AF78600B
:1013C0007B680433184603F07DFB0346002B14BFF3
:1013D00001230023DBB2002B01D0002311E07B6846
:1013E00004330021184604F0E8FC7B680433002134
:1013F000184604F020FD7B680433184604F0A4FC72
:10140000012318460837BD4680BD80B584B000AFC3
:10141000F860B9607A60FB68181D7B689AB24FF07B
:10142000FF33B96803F09EFB0346002B0CBF01237A
:101430000023DBB218461037BD4680BD80B584B0AE
:1014400000AFF860B9607A60FB68181D7B689AB2DB
:101450004FF0FF33B96803F01EFC0346002B0CBFAE
:1014600001230023DBB218461037BD4680BD0000C3
:1014700080B483B000AF7860044A7B681A607B68F0
:1014800018460C37BD465DF8047B70478898000805
:1014900080B483B000AF7860044A7B681A607B68D0
:1014A00018460C37BD465DF8047B704788980008E5
:1014B00080B582B000AF78607868FFF7E9FF04215B
:1014C000786806F0C8FE7B6818460837BD4680BDC0
:1014D00080B584B000AFF860B9607A607B80FB684B
:1014E0001846FFF7C5FF0B4AFB681A60FB68BA682D
:1014F0005A60FB6800229A60FB687A68DA60FB68D1
:101500007A881A82FB68BA695A61FB6818461037F4
:10151000BD4680BD6C98000880B582B000AF786091
:101520000A4A7B681A607B689B68002B04D07B6842
:101530009B68184604F06CFE7B681846FFF7A8FF0E
:101540007B6818460837BD4680BD00BF6C98000810
:1015500080B582B000AF78607868FFF7DDFF1821B2
:10156000786806F078FE7B6818460837BD4680BD6F
:1015700080B586B002AF78607B689B68002B01D095
:10158000002315E07B68D9687B68188A7B685B69F3
:101590007A680832019200937B680246064804F09C
:1015A00014FDF860FB68012B0CBF01230023DBB2A4
:1015B00018461037BD4680BD0116000880B582B0C0
:1015C00000AF78607B689B68002B04D07B689B68C9
:1015D000184604F0B5FE00BF0837BD4680BD80B593
:1015E00082B000AF78607B689B68002B04D07B687A
:1015F0009B68184604F050FF00BF0837BD4680BD09
:1016000080B584B000AF78607B68FB60FB685B6886
:101610001B6808331B68FA68526810469847002018
:1016200004F0F6FD00BF1037BD4680BD80B582B026
:1016300000AF032000F04AF901F042FA0246154BD0
:101640009B691B0A03F00F031349CB5C03F01F03D4
:1016500022FA03F37B600F4B9B6903F00F030E4AE2
:10166000D35C03F01F037A6822FA03F30B4A13607A
:101670000B4A7B6813600F2000F014F80346002B20
:1016800001D0012302E0FFF773FA00231846083760
:10169000BD4680BD004402581C9800080800002088
:1016A0000400002080B582B000AF7860154B1B7835
:1016B000002B01D1012321E0134B1A68114B1B7839
:1016C00019464FF47A73B3FBF1F3B2FBF3F3184608
:1016D00000F021F90346002B01D001230EE07B68C6
:1016E0000F2B0AD8002279684FF0FF3000F0F9F88C
:1016F000064A7B681360002300E001231846083780
:10170000BD4680BD10000020040000200C00002019
:1017100080B400AF064B1B781A46064B1B68134477
:10172000044A136000BFBD465DF8047B704700BFEC
:10173000100000207001002080B400AF034B1B6834
:101740001846BD465DF8047B704700BF700100205D
:1017500080B400AF034B1B681B0C1846BD465DF8F8
:10176000047B70470010005C80B485B000AF7860E7
:101770007B6803F00703FB600B4BDB68BB60BA6858
:101780004FF6FF031340BB60FB681A02BB681A43A5
:10179000064B1343BB60044ABB68D36000BF1437D9
:1017A000BD465DF8047B704700ED00E00000FA05DF
:1017B00080B400AF044BDB681B0A03F00703184634
:1017C000BD465DF8047B704700ED00E080B483B057
:1017D00000AF03463960FB80B7F90630002B0ADB07
:1017E0003B68DAB20C49B7F906301201D2B20B44A9
:1017F00083F800230AE03B68DAB20849FB8803F06B
:101800000F03043B1201D2B20B441A7600BF0C370F
:10181000BD465DF8047B704700E100E000ED00E0AC
:1018200080B489B000AFF860B9607A60FB6803F0FB
:101830000703FB61FB69C3F10703042B28BF0423E3
:10184000BB61FB690433062B02D9FB69033B00E053
:1018500000237B614FF0FF32BB6902FA03F3DA43E6
:10186000BB681A407B699A404FF0FF317B6901FAEF
:1018700003F3D9437B680B40134318462437BD4616
:101880005DF8047B7047000080B582B000AF7860DF
:101890007B68013BB3F1807F01D301230FE00A4A4B
:1018A0007B68013B53600F214FF0FF30FFF78EFF45
:1018B000054B00229A60044B07221A600023184649
:1018C0000837BD4680BD00BF10E000E080B582B0A3
:1018D00000AF78607868FFF747FF00BF0837BD4664
:1018E00080BD80B586B000AF0346B9607A60FB81E9
:1018F000FFF75EFF78617A68B9687869FFF790FF53
:101900000246B7F90E3011461846FFF75FFF00BFD9
:101910001837BD4680BD80B582B000AF786078686A
:10192000FFF7B2FF034618460837BD4680BD0000EA
:1019300080B400AFBFF35F8F00BF074B5B6A064AFE
:1019400023F480335362054B00225A6000BFBD462A
:101950005DF8047B704700BF00ED00E090ED00E013
:1019600080B483B000AF78600B4A7B6843F001031A
:1019700053600A4B5B6A094A43F480335362BFF3F6
:101980004F8F00BFBFF36F8F00BF00BF0C37BD4646
:101990005DF8047B704700BF90ED00E000ED00E0D3
:1019A00080B483B000AF78607B685A781B4B9A6034
:1019B0001A4B1B69194A23F001031361174A7B680C
:1019C0005B68D3607B681B7B1A077B68DB7A1B062E
:1019D0001A437B689B7ADB041A437B685B7B9B041E
:1019E0001A437B689B7B5B041A437B68DB7B1B048D
:1019F0001A437B685B7A1B021A437B681B7A5B0085
:101A000013437A6812781146044A0B43136100BFEE
:101A10000C37BD465DF8047B704700BF90ED00E0D9
:101A200080B489B000AF786039600023FB618E4BD1
:101A30007B619EE13B681A680121FB6901FA03F3AF
:101A400013403B613B69002B00F090813B685B6871
:101A500003F00303012B05D03B685B6803F003032D
:101A6000022B30D17B689B68BB61FB695B00032262
:101A700002FA03F3DB43BA691340BB613B68DA68DF
:101A8000FB695B0002FA03F3BA691343BB617B682D
:101A9000BA699A607B685B68BB610122FB6902FAE4
:101AA00003F3DB43BA691340BB613B685B681B0906
:101AB00003F00102FB6902FA03F3BA691343BB6145
:101AC0007B68BA695A603B685B6803F00303032BC9
:101AD00009D13B685B6803F00303032B1BD13B6810
:101AE0009B68012B17D07B68DB68BB61FB695B00DF
:101AF000032202FA03F3DB43BA691340BB613B687C
:101B00009A68FB695B0002FA03F3BA691343BB618D
:101B10007B68BA69DA603B685B6803F00303022BF9
:101B200023D1FB69DA087B68083253F82230BB61A5
:101B3000FB6903F007039B000F2202FA03F3DB4368
:101B4000BA691340BB613B681A69FB6903F007037C
:101B50009B0002FA03F3BA691343BB61FB69DA081D
:101B60007B680832B96943F822107B681B68BB6147
:101B7000FB695B00032202FA03F3DB43BA691340FB
:101B8000BB613B685B6803F00302FB695B0002FA20
:101B900003F3BA691343BB617B68BA691A603B6897
:101BA0005B6803F44033002B00F0E0802F4BD3F848
:101BB000F4302E4A43F00203C2F8F4302B4BD3F832
:101BC000F43003F00203FB60FB68294AFB699B08C1
:101BD000023352F82330BB61FB6903F003039B001F
:101BE0000F2202FA03F3DB43BA691340BB617B683F
:101BF000204A934252D07B681F4A934231D07B687F
:101C00001E4A93422BD07B681D4A934225D07B68A5
:101C10001C4A93421FD07B681B4A934219D07B68B1
:101C20001A4A934213D07B68194A93420DD07B68BD
:101C3000184A934207D07B68174A934201D109237F
:101C40002DE00A232BE0082329E0072327E00623C1
:101C500025E0052323E0042321E003231FE00223E2
:101C60001DE001231BE000BF800000580044025823
:101C700000040058000002580004025800080258EE
:101C8000000C0258001002580014025800180258A4
:101C9000001C025800200258002402580023FA6950
:101CA00002F0030292009340BA691343BB613849C2
:101CB000FB699B080233BA6941F823204FF0B04317
:101CC0001B68BB613B69DB43BA691340BB613B687E
:101CD0005B6803F48013002B03D0BA693B6913439C
:101CE000BB614FF0B042BB6913604FF0B0435B681B
:101CF000BB613B69DB43BA691340BB613B685B680E
:101D000003F40013002B03D0BA693B691343BB6192
:101D10004FF0B042BB6953607B695B68BB613B6954
:101D2000DB43BA691340BB613B685B6803F4003373
:101D3000002B03D0BA693B691343BB617B69BA6965
:101D40005A607B691B68BB613B69DB43BA6913401E
:101D5000BB613B685B6803F48033002B03D0BA6936
:101D60003B691343BB617B69BA691A60FB69013344
:101D7000FB613B681A68FB6922FA03F3002B7FF4CE
:101D800059AE00BF00BF2437BD465DF8047B7047E5
:101D90000004005880B485B000AF78600B467B80AB
:101DA0007B681A697B881340002B02D00123FB73E8
:101DB00001E00023FB73FB7B18461437BD465DF83A
:101DC000047B704780B483B000AF78600B467B80A3
:101DD00013467B707B78002B03D07A887B689A61EE
:101DE00003E07B881A047B689A6100BF0C37BD460C
:101DF0005DF8047B704780B485B000AF78600B4617
:101E00007B807B685B69FB607A88FB6813401A04FF
:101E1000FB68D9437B880B401A437B689A6100BFFB
:101E20001437BD465DF8047B7047000080B584B070
:101E300000AF7860194BDB6803F00403042B0AD071
:101E4000164BDB6803F007037A689A4201D001233E
:101E50001FE000231DE0114BDB6823F007020F4950
:101E60007B681343CB60FFF767FCF86009E0FFF77E
:101E700063FC0246FB68D31AB3F57A7F01D90123CC
:101E800007E0064B5B6803F40053B3F5005FEED147
:101E9000002318461037BD4680BD00BF00480258D9
:101EA00080B58CB000AF78607B68002B02D1012335
:101EB00000F048BC7B681B6803F00103002B00F0B6
:101EC0008880994B1B6903F03803FB62964B9B6A31
:101ED000BB62FB6A102B07D0FB6A182B11D1BB6ABF
:101EE00003F00303022B0CD18F4B1B6803F4003368
:101EF000002B6DD07B685B68002B69D1012300F05B
:101F000021BC7B685B68B3F5803F06D1864B1B68BC
:101F1000854A43F4803313602EE07B685B68002BB6
:101F20000CD1814B1B68804A23F4803313607E4BB5
:101F30001B687D4A23F4802313601DE07B685B6887
:101F4000B3F5A02F0CD1784B1B68774A43F480235C
:101F50001360754B1B68744A43F4803313600BE0C5
:101F6000714B1B68704A23F4803313606E4B1B68FF
:101F70006D4A23F4802313607B685B68002B13D0C9
:101F8000FFF7DAFB786208E0FFF7D6FB02467B6AD0
:101F9000D31A642B01D90323D4E3634B1B6803F4E6
:101FA0000033002BF0D014E0FFF7C6FB786208E0A6
:101FB000FFF7C2FB02467B6AD31A642B01D90323C5
:101FC000C0E3594B1B6803F40033002BF0D100E051
:101FD00000BF7B681B6803F00203002B00F0CA807F
:101FE000514B1B6903F038033B624F4B9B6AFB610B
:101FF0003B6A002B07D03B6A182B56D1FB6903F0D4
:102000000303002B51D1484B1B6803F00403002B42
:1020100005D07B68DB68002B01D1012392E3424BA2
:102020001B6823F019027B68DB683F4913430B6090
:10203000FFF782FB786208E0FFF77EFB02467B6ACF
:10204000D31A022B01D903237CE3374B1B6803F01F
:102050000403002BF0D0FFF77BFB034641F20302A1
:10206000934217D87B681B69402B08D12E4B5B68C5
:1020700023F47C332C4A43F4003353607AE02A4B38
:102080005B6823F47C327B681B691B03264913437E
:102090004B606FE0244B5B6823F0FE427B681B695A
:1020A0001B06214913434B6064E07B68DB68002B0F
:1020B00047D01D4B1B6823F019027B68DB681A4967
:1020C00013430B60FFF738FB786208E0FFF734FB3F
:1020D00002467B6AD31A022B01D9032332E3124B47
:1020E0001B6803F00403002BF0D0FFF731FB03461D
:1020F00041F20302934219D87B681B69402B08D137
:10210000094B5B6823F47C33074A43F40033536084
:1021100030E0054B5B6823F47C327B681B691B0352
:10212000014913434B6025E0004402589A4B5B6819
:1021300023F0FE427B681B691B06974913434B60E3
:1021400018E0954B1B68944A23F001031360FFF7D6
:10215000F3FA786208E0FFF7EFFA02467B6AD31AD7
:10216000022B01D90323EDE28B4B1B6803F0040320
:10217000002BF0D17B681B6803F01003002B00F0EC
:10218000A980854B1B6903F03803BB61824B9B6AB6
:102190007B61BB69082B07D0BB69182B3AD17B69DF
:1021A00003F00303012B35D17B4B1B6803F48073D1
:1021B000002B05D07B68DB69802B01D00123C1E2B5
:1021C000FFF7C6FA034641F20302934217D87B6831
:1021D0001B6A202B08D1704B5B6823F0F8436E4AD2
:1021E00043F08043536075E06B4B5B6823F0F8422B
:1021F0007B681B6A9B06684913434B606AE0664B29
:10220000DB6823F07C527B681B6A1B066249134320
:10221000CB605FE07B68DB69002B42D05E4B1B68C4
:102220005D4A43F080031360FFF786FA786208E0A6
:10223000FFF782FA02467B6AD31A022B01D90323E5
:1022400080E2554B1B6803F48073002BF0D0FFF73E
:102250007FFA034641F20302934217D87B681B6A58
:10226000202B08D14C4B5B6823F0F8434A4A43F0DB
:10227000804353602EE0484B5B6823F0F8427B6854
:102280001B6A9B06444913434B6023E0424BDB68C7
:1022900023F07C527B681B6A1B063F491343CB60CB
:1022A00018E03D4B1B683C4A23F080031360FFF7A6
:1022B00043FA786208E0FFF73FFA02467B6AD31AD6
:1022C000022B01D903233DE2334B1B6803F48073D7
:1022D000002BF0D17B681B6803F00803002B36D07D
:1022E0007B685B69002B19D02B4B5B6F2A4A43F04C
:1022F00001035367FFF720FA786208E0FFF71CFA42
:1023000002467B6AD31A022B01D903231AE2224B1D
:102310005B6F03F00203002BF0D018E01E4B5B6FE5
:102320001D4A23F001035367FFF706FA786208E0BD
:10233000FFF702FA02467B6AD31A022B01D9032364
:1023400000E2154B5B6F03F00203002BF0D17B68BA
:102350001B6803F02003002B39D07B689B69002B9E
:102360001CD00D4B1B680C4A43F480531360FFF7DD
:10237000E3F9786208E0FFF7DFF902467B6AD31AD7
:10238000022B01D90323DDE1034B1B6803F4005347
:10239000002BF0D01BE000BF004402589B4B1B6891
:1023A0009A4A23F480531360FFF7C6F9786208E075
:1023B000FFF7C2F902467B6AD31A022B01D9032325
:1023C000C0E1924B1B6803F40053002BF0D17B68F3
:1023D0001B6803F00403002B00F081808C4B1B680A
:1023E0008B4A43F480731360FFF7A6F9786208E024
:1023F000FFF7A2F902467B6AD31A642B01D90323A3
:10240000A0E1834B1B6803F48073002BF0D07B6842
:102410009B68012B06D17D4B1B6F7C4A43F0010367
:1024200013672DE07B689B68002B0CD1774B1B6FEB
:10243000764A23F001031367744B1B6F734A23F032
:10244000040313671CE07B689B68052B0CD16F4B62
:102450001B6F6E4A43F0040313676C4B1B6F6B4A90
:1024600043F0010313670BE0684B1B6F674A23F0CF
:1024700001031367654B1B6F644A23F00403136762
:102480007B689B68002B15D0FFF756F978620AE04D
:10249000FFF752F902467B6AD31A41F2883293421F
:1024A00001D903234EE1594B1B6F03F00203002BAC
:1024B000EED014E0FFF740F978620AE0FFF73CF94C
:1024C00002467B6AD31A41F28832934201D9032330
:1024D00038E14E4B1B6F03F00203002BEED17B68FB
:1024E0005B6A002B00F02D81484B1B6903F0380319
:1024F000182B00F0BD807B685B6A022B40F09E8049
:10250000424B1B68414A23F080731360FFF714F9B4
:10251000786208E0FFF710F902467B6AD31A022BB3
:1025200001D903230EE1394B1B6803F00073002B24
:10253000F0D1364B9A6A374B13407A68916A7A68C1
:10254000D26A12010A43314913438B627B681B6BC9
:10255000013BC3F308027B685B6B013B5B029BB2F0
:102560001A437B689B6B013B1B0403F4FE031A4375
:102570007B68DB6B013B1B0603F0FE4323491343DF
:102580000B63224BDB6A214A23F00103D3621F4B0A
:102590005A6B214B13407A68926CD2001B4913434B
:1025A0004B631A4BDB6A23F00C027B681B6C1749E8
:1025B0001343CB62154BDB6A23F002027B685B6C32
:1025C00012491343CB62114BDB6A104A43F4803348
:1025D000D3620E4BDB6A0D4A43F40033D3620B4BDC
:1025E000DB6A0A4A43F48023D362084BDB6A074A5A
:1025F00043F00103D362054B1B68044A43F0807328
:102600001360FFF799F8786211E000BF00440258A8
:10261000004802580CFCFFFF0700FFFFFFF78CF893
:1026200002467B6AD31A022B01D903238AE0474B67
:102630001B6803F00073002BF0D082E0434B1B6853
:10264000424A23F080731360FFF776F8786208E05F
:10265000FFF772F802467B6AD31A022B01D90323D3
:1026600070E03A4B1B6803F00073002BF0D168E078
:10267000364B9B6A3B61354B1B6BFB607B685B6A2F
:10268000012B31D03B6903F003027B689B6A9A42BD
:102690002AD13B691B0903F03F027B68DB6A9A423F
:1026A00022D1FB68C3F308027B681B6B013B9A4293
:1026B0001AD1FB685B0A03F07F027B685B6B013B0E
:1026C0009A4211D1FB681B0C03F07F027B689B6B65
:1026D000013B9A4208D1FB681B0E03F07F027B6826
:1026E000DB6B013B9A4201D001232BE0174B5B6B64
:1026F000DB08C3F30C033B617B689B6C3A699A422D
:102700001FD0124BDB6A114A23F00103D362FFF79B
:1027100013F8786200BFFFF70FF802467B6A934216
:10272000F9D00A4B5A6B0A4B13407A68926CD2006C
:10273000064913434B63054BDB6A044A43F001032C
:10274000D362002318463037BD4680BD004402588E
:102750000700FFFF80B586B000AF786039607B6806
:10276000002B01D101239CE18A4B1B6803F00F036E
:102770003A689A4210D9874B1B6823F00F028549AB
:102780003B6813430B60834B1B6803F00F033A68ED
:102790009A4201D0012384E17B681B6803F00403A3
:1027A000002B10D07B681A697B4B9B6903F0700388
:1027B0009A4208D9784B9B6923F070027B681B69A9
:1027C000754913438B617B681B6803F00803002B7A
:1027D00010D07B685A69704BDB6903F070039A4232
:1027E00008D96D4BDB6923F070027B685B696A492D
:1027F0001343CB617B681B6803F01003002B10D0E0
:102800007B689A69644BDB6903F4E0639A4208D9F8
:10281000614BDB6923F4E0627B689B695E4913438B
:10282000CB617B681B6803F02003002B10D07B6812
:10283000DA69594B1B6A03F070039A4208D9564B68
:102840001B6A23F070027B68DB69534913430B62F8
:102850007B681B6803F00203002B10D07B68DA68EA
:102860004D4B9B6903F00F039A4208D94A4B9B6971
:1028700023F00F027B68DB68474913438B617B6859
:102880001B6803F00103002B55D0434B9B6923F4D5
:1028900070627B689B68404913438B617B685B680F
:1028A000022B07D13C4B1B6803F40033002B21D1D2
:1028B0000123F6E07B685B68032B07D1364B1B686E
:1028C00003F00073002B15D10123EAE07B685B68FD
:1028D000012B07D1304B1B6803F48073002B09D107
:1028E0000123DEE02C4B1B6803F00403002B01D115
:1028F0000123D6E0284B1B6923F007027B685B6845
:10290000254913430B61FEF717FF78610AE0FEF7D4
:1029100013FF02467B69D31A41F28832934201D9F0
:102920000323BEE01C4B1B6903F038027B685B6825
:10293000DB009A42EBD17B681B6803F00203002B9B
:1029400010D07B68DA68144B9B6903F00F039A423E
:1029500008D2114B9B6923F00F027B68DB680E499C
:1029600013438B610B4B1B6803F00F033A689A42C9
:1029700014D2084B1B6823F00F0206493B6813432F
:102980000B60044B1B6803F00F033A689A4205D0B2
:10299000012386E000200052004402587B681B6837
:1029A00003F00403002B10D07B681A693F4B9B692E
:1029B00003F070039A4208D23C4B9B6923F07002EB
:1029C0007B681B69394913438B617B681B6803F083
:1029D0000803002B10D07B685A69344BDB6903F085
:1029E00070039A4208D2314BDB6923F070027B6896
:1029F0005B692E491343CB617B681B6803F01003AE
:102A0000002B10D07B689A69284BDB6903F4E063E4
:102A10009A4208D2254BDB6923F4E0627B689B690C
:102A200022491343CB617B681B6803F02003002B12
:102A300010D07B68DA691D4B1B6A03F070039A4261
:102A400008D21A4B1B6A23F070027B68DB691749B6
:102A500013430B6200F034F80246144B9B691B0AC7
:102A600003F00F031249CB5C03F01F0322FA03F3B8
:102A70003B610E4B9B6903F00F030D4AD35C03F0DF
:102A80001F033A6922FA03F30A4A13600A4A3B69B0
:102A900013600A4B1B681846FEF704FE0346FB73DF
:102AA000FB7B18461837BD4680BD00BF0044025866
:102AB0001C98000808000020040000200C000020E2
:102AC00080B489B000AFB34B1B6903F03803182BF7
:102AD00000F2558101A252F823F000BF412B0008FB
:102AE0007F2D00087F2D00087F2D00087F2D000816
:102AF0007F2D00087F2D00087F2D0008672B000820
:102B00007F2D00087F2D00087F2D00087F2D0008F5
:102B10007F2D00087F2D00087F2D00086D2B0008F9
:102B20007F2D00087F2D00087F2D00087F2D0008D5
:102B30007F2D00087F2D00087F2D0008732B0008D3
:102B4000944B1B6803F02003002B09D0914B1B68AA
:102B5000DB0803F00303904A22FA03F3BB6111E19F
:102B60008D4BBB610EE18D4BBB610BE18C4BBB61AF
:102B700008E1884B9B6A03F003037B61854B9B6AEA
:102B80001B0903F03F033B61824BDB6A03F0010347
:102B9000FB60804B5B6BDB08C3F30C03FA6802FB42
:102BA00003F307EE903AF8EE677AC7ED027A3B69D5
:102BB000002B00F0E1807B69022B00F083807B69B1
:102BC000022B00F2A1807B69002B03D07B69012BD3
:102BD00056D099E06F4B1B6803F02003002B2DD0DB
:102BE0006C4B1B68DB0803F003036B4A22FA03F308
:102BF0007B607B6807EE903AF8EE676A3B6907EE08
:102C0000903AF8EE677A86EEA77A624B1B6BC3F3B5
:102C1000080307EE903AF8EE676A97ED026ADFED77
:102C2000615AC6EE257A76EEA77AF7EE006A77EE5D
:102C3000A67A67EE277AC7ED077A87E03B6907EE49
:102C4000903AF8EE677ADFED586A86EEA77A514B34
:102C50001B6BC3F3080307EE903AF8EE676A97ED33
:102C6000026ADFED505AC6EE257A76EEA77AF7EEC5
:102C7000006A77EEA67A67EE277AC7ED077A65E0F5
:102C80003B6907EE903AF8EE677ADFED486A86EE28
:102C9000A77A404B1B6BC3F3080307EE903AF8EE9C
:102CA000676A97ED026ADFED3F5AC6EE257A76EE47
:102CB000A77AF7EE006A77EEA67A67EE277AC7ED75
:102CC000077A43E03B6907EE903AF8EE677ADFED6A
:102CD000386A86EEA77A2F4B1B6BC3F3080307EE07
:102CE000903AF8EE676A97ED026ADFED2E5AC6EE6B
:102CF000257A76EEA77AF7EE006A77EEA67A67EE87
:102D0000277AC7ED077A21E03B6907EE903AF8EEA3
:102D1000677ADFED266A86EEA77A1E4B1B6BC3F33C
:102D2000080307EE903AF8EE676A97ED026ADFED66
:102D30001D5AC6EE257A76EEA77AF7EE006A77EE90
:102D4000A67A67EE277AC7ED077A00BF114B1B6B97
:102D50005B0A03F07F0301333B603B6807EE903A68
:102D6000B8EE677AD7ED076AC6EE877AFCEEE77AA7
:102D700017EE903ABB6105E00023BB6102E0074B10
:102D8000BB6100BFBB6918462437BD465DF8047BB4
:102D9000704700BF004402580090D00300093D0076
:102DA0000048E801000000460024744C0024744AE6
:102DB0000024F44B80B582B000AFFFF781FE0246DD
:102DC000104B9B691B0A03F00F030F49CB5C03F008
:102DD0001F0322FA03F37B600A4B9B6903F00F0386
:102DE000094AD35C03F01F037A6822FA03F3074A07
:102DF0001360074A7B681360044B1B68184608374A
:102E0000BD4680BD004402581C9800080800002000
:102E10000400002080B500AFFFF7CCFF0246064B50
:102E2000DB691B0903F007030449CB5C03F01F03B4
:102E300022FA03F3184680BD004402581C9800088B
:102E400080B500AFFFF7B6FF0246064BDB691B0AF1
:102E500003F007030449CB5C03F01F0322FA03F3DA
:102E6000184680BD004402581C9800082DE9B04F58
:102E7000CAB000AFC7F81401002387F82731002338
:102E800087F82631D7F81431D3E9002302F0006423
:102E9000002554EA050349D0D7F814319B6EB3F5E9
:102EA000401F2FD0B3F5401F28D8B3F5001F1AD00C
:102EB000B3F5001F22D8002B03D0B3F5801F07D035
:102EC0001CE0B84BDB6AB74A43F40033D3621AE024
:102ED000D7F8143108330221184601F08FFC03465D
:102EE00087F827310FE0D7F814312833022118462C
:102EF00001F036FD034687F8273104E0012387F807
:102F0000273100E000BF97F82731002B0AD1A54BED
:102F10001B6D23F44011D7F814319B6EA14A0B436B
:102F2000136503E097F8273187F82631D7F8143175
:102F3000D3E9002302F480784FF0000958EA09032E
:102F400047D0D7F814319B6D042B2AD801A252F830
:102F500023F000BF692F0008772F00088D2F00088D
:102F6000AB2F0008AB2F00088E4BDB6A8D4A43F471
:102F70000033D3621AE0D7F8143108330021184621
:102F800001F03CFC034687F827310FE0D7F81431F5
:102F900028330021184601F0E3FC034687F8273167
:102FA00004E0012387F8273100E000BF97F82731BC
:102FB000002B0AD17B4B1B6D23F00701D7F814318E
:102FC0009B6D784A0B43136503E097F8273187F828
:102FD0002631D7F81431D3E9002302F4007A4FF0F8
:102FE000000B5AEA0B034CD0D7F81431DB6DB3F564
:102FF000807F30D0B3F5807F29D8C02B2DD0C02B57
:1030000025D8802B18D0802B21D8002B02D0402B24
:1030100007D01CE0634BDB6A624A43F40033D3629F
:103020001CE0D7F8143108330021184601F0E6FB04
:10303000034687F8273111E0D7F8143128330021EF
:10304000184601F08DFC034687F8273106E001237E
:1030500087F8273102E000BF00E000BF97F8273172
:10306000002B0AD14F4B1B6D23F4E071D7F81431BC
:10307000DB6D4C4A0B43136503E097F8273187F863
:103080002631D7F81431D3E9002302F48063C7F85E
:1030900008310023C7F80C31D7E942120B4613431D
:1030A00053D0D7F81431D3F8A830B3F5000F35D08A
:1030B000B3F5000F2ED8B3F5C00F31D0B3F5C00F64
:1030C00028D8B3F5800F1AD0B3F5800F22D8002B83
:1030D00003D0B3F5001F07D01CE0324BDB6A314A46
:1030E00043F40033D3621CE0D7F8143108330021D5
:1030F000184601F083FB034687F8273111E0D7F823
:10310000143128330021184601F02AFC034687F8C1
:10311000273106E0012387F8273102E000BF00E0F5
:1031200000BF97F82731002B0BD11E4B9B6D23F46A
:103130006001D7F81431D3F8A8301A4A0B439365CD
:1031400003E097F8273187F82631D7F81431D3E90F
:10315000002302F40063C7F800310023C7F80431EC
:10316000D7E940120B46134356D0D7F81431D3F8A1
:10317000AC30B3F1806F38D0B3F1806F31D8B3F198
:10318000407F34D0B3F1407F2BD8B3F1007F1DD006
:10319000B3F1007F25D8002B06D0B3F1807F0AD091
:1031A0001FE000BF00440258A24BDB6AA14A43F46F
:1031B0000033D3621CE0D7F81431083300211846DD
:1031C00001F01CFB034687F8273111E0D7F81431D2
:1031D00028330021184601F0C3FB034687F8273146
:1031E00006E0012387F8273102E000BF00E000BFBE
:1031F00097F82731002B0BD18E4B9B6D23F0E061AC
:10320000D7F81431D3F8AC308A4A0B43936503E006
:1032100097F8273187F82631D7F81431D3E90023FE
:1032200002F00073C7F8F8300023C7F8FC30D7E984
:103230003E120B4613433AD0D7F81431DB6C302BD7
:103240001FD0302B19D8202B0CD0202B15D8002BB9
:1032500019D0102B11D1774BDB6A764A43F4003337
:10326000D36211E0D7F8143108330221184601F077
:10327000C5FA034687F8273106E0012387F827318E
:1032800002E000BF00E000BF97F82731002B0AD111
:10329000684BDB6C23F03001D7F81431DB6C654AE6
:1032A0000B43D36403E097F8273187F82631D7F82A
:1032B0001431D3E9002302F48053C7F8F03000231F
:1032C000C7F8F430D7E93C120B46134351D0D7F876
:1032D00014311B6EB3F5804F35D0B3F5804F2ED827
:1032E000B3F5405F31D0B3F5405F28D8B3F5005F48
:1032F0001AD0B3F5005F22D8002B03D0B3F5805F5E
:1033000007D01CE04B4BDB6A4A4A43F40033D362DC
:103310001CE0D7F8143108330021184601F06EFA8A
:10332000034687F8273111E0D7F8143128330021FC
:10333000184601F015FB034687F8273106E0012304
:1033400087F8273102E000BF00E000BF97F827317F
:10335000002B0AD1374B1B6D23F4E041D7F8143111
:103360001B6E344A0B43136503E097F8273187F847
:103370002631D7F81431D3E9002302F40053C7F8FB
:10338000E8300023C7F8EC30D7E93A120B46134374
:1033900056D0D7F814315B6EB3F5A02F33D0B3F508
:1033A000A02F2CD8B3F5802F2FD0B3F5802F26D89F
:1033B000B3F5403F2BD0B3F5403F20D8B3F5003FE5
:1033C00012D0B3F5003F1AD8002B22D0B3F5803FBE
:1033D00015D1D7F8143108330121184601F00EFA3F
:1033E000034687F8273115E0D7F814312833012137
:1033F000184601F0B5FA034687F827310AE00123A1
:1034000087F8273106E000BF04E000BF02E000BFFC
:1034100000E000BF97F82731002B0DD1054B1B6D45
:1034200023F4E021D7F814315B6E024A0B43136595
:1034300006E000BF0044025897F8273187F826318C
:10344000D7F81431D3E9002302F48043C7F8E03001
:103450000023C7F8E430D7E938120B46134355D0A0
:10346000D7F81431D3F8B030B3F1A04F33D0B3F163
:10347000A04F2CD8B3F1804F2FD0B3F1804F26D876
:10348000B3F1405F2BD0B3F1405F20D8B3F1005FC0
:1034900012D0B3F1005F1AD8002B22D0B3F1805FB5
:1034A00015D1D7F8143108330121184601F0A6F9D7
:1034B000034687F8273115E0D7F814312833012166
:1034C000184601F04DFA034687F827310AE0012338
:1034D00087F8273106E000BF04E000BF02E000BF2C
:1034E00000E000BF97F82731002B0BD1A34B9B6D59
:1034F00023F0E041D7F81431D3F8B0309F4A0B43A2
:10350000936503E097F8273187F82631D7F814310F
:10351000D3E9002302F40043C7F8D8300023C7F8EA
:10352000DC30D7E936120B46134337D0D7F81431C5
:103530001B6FB3F1005F0ED0B3F1005F16D8002B04
:1035400018D0B3F1805F11D18C4BDB6A8B4A43F406
:103550000033D3620FE0D7F8143108330121184645
:1035600001F04CF9034687F8273104E0012387F87E
:10357000273100E000BF97F82731002B0AD17F4B9D
:103580001B6D23F04051D7F814311B6F7B4A0B435E
:10359000136503E097F8273187F82631D7F81431FF
:1035A000D3E9002302F08073C7F8D0300023C7F8B6
:1035B000D430D7E934120B46134339D0D7F814313D
:1035C0009B6C032B1CD801A252F823F0093600088B
:1035D000DD350008EB35000809360008674BDB6A6B
:1035E000664A43F40033D3620FE0D7F8143108334E
:1035F0000221184601F002F9034687F8273104E05A
:10360000012387F8273100E000BF97F82731002B0E
:103610000AD15A4BDB6C23F00301D7F814319B6CB1
:10362000564A0B43D36403E097F8273187F82631D5
:10363000D7F81431D3E9002302F48003C7F8C83067
:103640000023C7F8CC30D7E932120B46134300F001
:103650009F804B4B1B684A4A43F480731360FEF70C
:103660006BF8C7F820010BE0FEF766F80246D7F8C2
:103670002031D31A642B03D9032387F8273105E0BF
:103680003F4B1B6803F48073002BEDD097F8273174
:10369000002B79D1394B1A6FD7F81431D3F8B430E5
:1036A000534003F44073002B15D0344B1B6F23F4AD
:1036B0004073C7F81C31314B1B6F304A43F48033E1
:1036C00013672E4B1B6F2D4A23F4803313672B4A4D
:1036D000D7F81C311367D7F81431D3F8B430B3F5E9
:1036E000807F18D1FEF728F8C7F820010DE0FEF71B
:1036F00023F80246D7F82031D21A41F288339A4291
:1037000003D9032387F8273105E01C4B1B6F03F017
:103710000203002BEBD097F82731002B29D1D7F8E3
:103720001431D3F8B43003F44073B3F5407F0ED1B5
:10373000124B1B6923F47C51D7F81431D3F8B43001
:103740001A09104B13400D4A0B43136105E00B4B54
:103750001B690A4A23F47C531361084B196FD7F88D
:103760001431D3F8B430C3F30B03044A0B4313678B
:103770000EE097F8273187F8263109E00044025817
:1037800000480258CFFFFF0097F8273187F826310D
:10379000D7F81431D3E9002302F00103C7F8C03091
:1037A0000023C7F8C430D7E930120B46134300F0AA
:1037B0008980D7F81431DB6F282B6BD801A252F81F
:1037C00023F000BF9D3800089538000895380008A0
:1037D0009538000895380008953800089538000895
:1037E00095380008693800089538000895380008B1
:1037F0009538000895380008953800089538000875
:10380000953800087F38000895380008953800087A
:103810009538000895380008953800089538000854
:10382000953800089D38000895380008953800083C
:103830009538000895380008953800089538000834
:10384000953800089D38000895380008953800081C
:103850009538000895380008953800089538000814
:10386000953800089D380008D7F814310833012135
:10387000184600F0C3FF034687F827310FE0D7F85A
:10388000143128330121184601F06AF8034687F8FD
:10389000273104E0012387F8273100E000BF97F8C3
:1038A0002731002B0AD1BF4B5B6D23F03801D7F8CD
:1038B0001431DB6FBB4A0B43536503E097F82731A4
:1038C00087F82631D7F81431D3E9002302F0020338
:1038D000C7F8B8300023C7F8BC30D7E92E120B4622
:1038E000134341D0D7F814319B6F052B24D801A284
:1038F00052F823F0413900080D3900082339000837
:10390000413900084139000841390008D7F814311D
:1039100008330121184600F071FF034687F827316C
:103920000FE0D7F8143128330121184601F018F8B8
:10393000034687F8273104E0012387F8273100E0A8
:1039400000BF97F82731002B0AD1964B5B6D23F00F
:103950000701D7F814319B6F924A0B43536503E07C
:1039600097F8273187F82631D7F81431D3E90023A7
:1039700002F00403C7F8B0300023C7F8B430D7E929
:103980002C120B46134344D0D7F81431D3F894309B
:10399000052B25D801A252F823F000BFE939000811
:1039A000B5390008CB390008E9390008E9390008C1
:1039B000E9390008D7F8143108330121184600F01E
:1039C0001DFF034687F827310FE0D7F8143128335D
:1039D0000121184600F0C4FF034687F8273104E0B0
:1039E000012387F8273100E000BF97F82731002B2B
:1039F0000BD16C4B9B6D23F00701D7F81431D3F832
:103A00009430684A0B43936503E097F8273187F8B1
:103A10002631D7F81431D3E9002302F02003C7F888
:103A2000A8300023C7F8AC30D7E92A120B4613435D
:103A300055D0D7F81431D3F89030B3F1A04F33D02C
:103A4000B3F1A04F2CD8B3F1804F2FD0B3F1804FFA
:103A500026D8B3F1405F2BD0B3F1405F20D8B3F14B
:103A6000005F12D0B3F1005F1AD8002B22D0B3F15F
:103A7000805F15D1D7F8143108330021184600F0C3
:103A8000BDFE034687F8273115E0D7F814312833F7
:103A90000221184600F064FF034687F827310AE048
:103AA000012387F8273106E000BF04E000BF02E0F1
:103AB00000BF00E000BF97F82731002B0BD1394B36
:103AC0005B6D23F0E041D7F81431D3F89030354ADC
:103AD0000B43536503E097F8273187F82631D7F871
:103AE0001431D3E9002302F04003C7F8A0300023CB
:103AF000C7F8A430D7E928120B46134358D0D7F89B
:103B00001431D3F89C30B3F5A05F33D0B3F5A05F88
:103B10002CD8B3F5805F2FD0B3F5805F26D8B3F5EE
:103B2000406F2BD0B3F5406F20D8B3F5006F12D0A3
:103B3000B3F5006F1AD8002B22D0B3F5806F15D1E2
:103B4000D7F8143108330021184600F057FE034619
:103B500087F8273115E0D7F81431283302211846A9
:103B600000F0FEFE034687F827310AE0012387F8BC
:103B7000273106E000BF04E000BF02E000BF00E024
:103B800000BF97F82731002B0ED1064B9B6D23F415
:103B9000E051D7F81431D3F89C30024A0B439365B7
:103BA00006E000BF0044025897F8273187F8263115
:103BB000D7F81431D3E9002302F08003C7F8983016
:103BC0000023C7F89C30D7E926120B46134355D083
:103BD000D7F81431D3F8A030B3F5204F33D0B3F574
:103BE000204F2CD8B3F5004F2FD0B3F5004F26D877
:103BF000B3F5C04F2BD0B3F5C04F20D8B3F5804FED
:103C000012D0B3F5804F1AD8002B22D0B3F5005F45
:103C100015D1D7F8143108330021184600F0EEFD15
:103C2000034687F8273115E0D7F8143128330221ED
:103C3000184600F095FE034687F827310AE0012375
:103C400087F8273106E000BF04E000BF02E000BFB4
:103C500000E000BF97F82731002B0BD1A14B9B6DE3
:103C600023F46041D7F81431D3F8A0309D4A0B43B8
:103C7000936503E097F8273187F82631D7F8143198
:103C8000D3E9002302F00803C7F890300023C7F8F7
:103C90009430D7E924120B4613431ED0D7F81431C1
:103CA000D3F88430B3F5805F0CD1D7F814312833C2
:103CB0000221184600F054FE0346002B02D00123D7
:103CC00087F82631874B5B6D23F44051D7F81431C8
:103CD000D3F88430834A0B435365D7F81431D3E9C2
:103CE000002302F01003C7F888300023C7F88C3097
:103CF000D7E922120B4613431ED0D7F81431D3F85C
:103D00009830B3F5807F0CD1D7F8143128330221D5
:103D1000184600F025FE0346002B02D0012387F849
:103D20002631704B9B6D23F44071D7F81431D3F8D2
:103D300098306C4A0B439365D7F81431D3E90023CC
:103D400002F40023C7F880300023C7F88430D7E995
:103D500020120B4613433ED0D7F81431D3F8A430C9
:103D6000B3F5003F22D0B3F5003F1BD8002B03D0A2
:103D7000B3F5803F0BD015E0D7F81431083300219C
:103D8000184600F03BFD034687F827310FE0D7F8CF
:103D9000143128330221184600F0E2FD034687F86B
:103DA000273104E0012387F8273100E000BF97F8AE
:103DB0002731002B0BD14B4B9B6D23F44031D7F8AF
:103DC0001431D3F8A430474A0B43936503E097F8C6
:103DD000273187F82631D7F81431D3E9002302F4CC
:103DE0008023BB670023FB67D7E91E120B461343F2
:103DF0003BD0D7F81431D3F88830B3F5401F1FD02B
:103E0000B3F5401F18D8B3F5801F03D0B3F5001FDA
:103E100007D011E0334BDB6A324A43F40033D362FC
:103E20000FE0D7F8143128330121184600F098FD2F
:103E3000034687F8273104E0012387F8273100E0A3
:103E400000BF97F82731002B0BD1264B5B6D23F475
:103E50004011D7F81431D3F88830224A0B43536508
:103E600003E097F8273187F82631D7F81431D3E9E2
:103E7000002302F480333B6700237B67D7E91C12E1
:103E80000B46134334D0D7F814311B6D002B03D0ED
:103E9000B3F5803F07D011E0124BDB6A114A43F4BF
:103EA0000033D3620EE0D7F81431083302211846EC
:103EB00000F0A4FC034687F8273103E0012387F8CC
:103EC000273100BF97F82731002B0DD1054BDB6C54
:103ED00023F48031D7F814311B6D024A0B43D364AD
:103EE00006E000BF0044025897F8273187F82631D2
:103EF000D7F81431D3E9002302F00053BB66002346
:103F0000FB66D7E91A120B4613430CD0D7F81431CD
:103F100028330221184600F023FD0346002B02D06F
:103F2000012387F82631D7F81431D3E9002302F4AE
:103F300000333B6600237B66D7E918120B46134318
:103F400038D0D7F81431D3F88030B3F5407F18D08B
:103F5000B3F5407F11D8B3F5007F14D0B3F5007FDF
:103F60000BD8002B11D0B3F5807F06D1C34BDB6A91
:103F7000C24A43F40033D36208E0012387F82731B3
:103F800004E000BF02E000BF00E000BF97F8273167
:103F9000002B0BD1B94B5B6D23F44071D7F8143172
:103FA000D3F88030B54A0B43536503E097F82731C7
:103FB00087F82631D7F81431D3E9002302F48013AF
:103FC000BB650023FB65D7E916120B46134309D0E6
:103FD000AA4B1B6D23F00041D7F814315B6FA74A41
:103FE0000B431365D7F81431D3E9002302F0805353
:103FF0003B6500237B65D7E914120B4613430AD0B7
:104000009E4B1B6923F48041D7F81431D3F8B830A4
:104010009A4A0B431361D7F81431D3E9002302F411
:104020000013BB640023FB64D7E912120B46134351
:1040300009D0924B1B6D23F08071D7F81431DB6EE1
:104040008E4A0B431365D7F81431D3E9002302F0ED
:1040500080433B6400237B64D7E910120B46134373
:104060000ED0864B1B69854A23F400431361834BB2
:104070001969D7F81431D3F8BC30804A0B43136167
:10408000D7F81431D3E9002302F00043BB630023C7
:10409000FB63D7E90E120B46134309D0774BDB6C59
:1040A00023F04051D7F814315B6D744A0B43D3644D
:1040B000D7F81431D3E9002302F400033B63002353
:1040C0007B63D7E90C120B4613430AD06B4B5B6D35
:1040D00023F44001D7F81431D3F88C30674A0B43EE
:1040E0005365D7F81431D3E900230021B96203F0F6
:1040F0000103FB62D7E90A120B46134311D0D7F82C
:10410000143108330021184600F078FB034687F885
:10411000273197F82731002B03D097F8273187F8FC
:104120002631D7F81431D3E900230021396203F096
:1041300002037B62D7E908120B46134311D0D7F86C
:10414000143108330121184600F058FB034687F864
:10415000273197F82731002B03D097F8273187F8BC
:104160002631D7F81431D3E900230021B96103F0D7
:104170000403FB61D7E906120B46134311D0D7F8AD
:10418000143108330221184600F038FB034687F843
:10419000273197F82731002B03D097F8273187F87C
:1041A0002631D7F81431D3E900230021396103F017
:1041B00008037B61D7E904120B46134311D0D7F8EB
:1041C000143128330021184600F0CAFB034687F853
:1041D000273197F82731002B03D097F8273187F83C
:1041E0002631D7F81431D3E900230021B96003F058
:1041F0001003FB60D7E902120B46134311D0D7F826
:10420000143128330121184600F0AAFB034687F831
:10421000273197F82731002B03D097F8273187F8FB
:104220002631D7F81431D3E900230021396003F097
:1042300020037B60D7E900120B46134311D0D7F857
:10424000143128330221184600F08AFB034687F810
:10425000273197F82731002B03D097F8273187F8BB
:10426000263197F82631002B01D1002300E00123ED
:10427000184607F59477BD46BDE8B08F0044025854
:1042800080B500AFFEF796FD0246064B1B6A1B0980
:1042900003F007030449CB5C03F01F0322FA03F386
:1042A000184680BD004402581C98000880B489B0AC
:1042B00000AF7860A14B9B6A03F00303BB619F4B87
:1042C0009B6A1B0B03F03F037B619C4BDB6A1B0962
:1042D00003F001033B61994BDB6BDB08C3F30C0379
:1042E0003A6902FB03F307EE903AF8EE677AC7EDFE
:1042F000037A7B69002B00F01181BB69022B00F06F
:104300008380BB69022B00F2A180BB69002B03D024
:10431000BB69012B56D099E0884B1B6803F0200342
:10432000002B2DD0854B1B68DB0803F00303844A68
:1043300022FA03F3BB60BB6807EE903AF8EE676AB7
:104340007B6907EE903AF8EE677A86EEA77A7B4BA8
:104350009B6BC3F3080307EE903AF8EE676A97ED9C
:10436000036ADFED785AC6EE257A76EEA77AF7EE85
:10437000006A77EEA67A67EE277AC7ED077A87E0BC
:104380007B6907EE903AF8EE677ADFED6F6A86EEAA
:10439000A77A6A4B9B6BC3F3080307EE903AF8EEDB
:1043A000676A97ED036ADFED675AC6EE257A76EE07
:1043B000A77AF7EE006A77EEA67A67EE277AC7ED5E
:1043C000077A65E07B6907EE903AF8EE677ADFEDF1
:1043D0005F6A86EEA77A594B9B6BC3F3080307EE1F
:1043E000903AF8EE676A97ED036ADFED565AC6EE2B
:1043F000257A76EEA77AF7EE006A77EEA67A67EE70
:10440000277AC7ED077A43E07B6907EE903AF8EE2A
:10441000677ADFED4F6A86EEA77A484B9B6BC3F352
:10442000080307EE903AF8EE676A97ED036ADFED4E
:10443000455AC6EE257A76EEA77AF7EE006A77EE51
:10444000A67A67EE277AC7ED077A21E07B6907EE47
:10445000903AF8EE677ADFED3D6A86EEA77A374B41
:104460009B6BC3F3080307EE903AF8EE676A97ED8B
:10447000036ADFED345AC6EE257A76EEA77AF7EEB8
:10448000006A77EEA67A67EE277AC7ED077A00BF53
:104490002A4B9B6B5B0A03F07F0307EE903AF8EE22
:1044A000677AB7EE007A37EE877AD7ED076AC6EEFD
:1044B000877AFCEEE77A17EE902A7B681A601F4B2A
:1044C0009B6B1B0C03F07F0307EE903AF8EE677AC4
:1044D000B7EE007A37EE877AD7ED076AC6EE877AAD
:1044E000FCEEE77A17EE902A7B685A60134B9B6BC1
:1044F0001B0E03F07F0307EE903AF8EE677AB7EEF3
:10450000007A37EE877AD7ED076AC6EE877AFCEE37
:10451000E77A17EE902A7B689A6008E07B680022B1
:104520001A607B6800225A607B6800229A6000BF94
:104530002437BD465DF8047B704700BF0044025835
:104540000090D003000000460024744C0024744AFC
:104550000024F44B80B489B000AF7860A14B9B6A13
:1045600003F00303BB619F4B9B6A1B0D03F03F03EA
:104570007B619C4BDB6A1B0A03F001033B61994B97
:104580005B6CDB08C3F30C033A6902FB03F307EE31
:10459000903AF8EE677AC7ED037A7B69002B00F05A
:1045A0001181BB69022B00F08380BB69022B00F2F2
:1045B000A180BB69002B03D0BB69012B56D099E0C9
:1045C000884B1B6803F02003002B2DD0854B1B6804
:1045D000DB0803F00303844A22FA03F3BB60BB68E1
:1045E00007EE903AF8EE676A7B6907EE903AF8EECC
:1045F000677A86EEA77A7B4B1B6CC3F3080307EE42
:10460000903AF8EE676A97ED036ADFED785AC6EEE6
:10461000257A76EEA77AF7EE006A77EEA67A67EE4D
:10462000277AC7ED077A87E07B6907EE903AF8EEC4
:10463000677ADFED6F6A86EEA77A6A4B1B6CC3F36D
:10464000080307EE903AF8EE676A97ED036ADFED2C
:10465000675AC6EE257A76EEA77AF7EE006A77EE0D
:10466000A67A67EE277AC7ED077A65E07B6907EEE1
:10467000903AF8EE677ADFED5F6A86EEA77A594BDB
:104680001B6CC3F3080307EE903AF8EE676A97EDE8
:10469000036ADFED565AC6EE257A76EEA77AF7EE74
:1046A000006A77EEA67A67EE277AC7ED077A43E0CD
:1046B0007B6907EE903AF8EE677ADFED4F6A86EE97
:1046C000A77A484B1B6CC3F3080307EE903AF8EE49
:1046D000676A97ED036ADFED455AC6EE257A76EEF6
:1046E000A77AF7EE006A77EEA67A67EE277AC7ED2B
:1046F000077A21E07B6907EE903AF8EE677ADFED02
:104700003D6A86EEA77A374B1B6CC3F3080307EEAE
:10471000903AF8EE676A97ED036ADFED345AC6EE19
:10472000257A76EEA77AF7EE006A77EEA67A67EE3C
:10473000277AC7ED077A00BF2A4B1B6C5B0A03F090
:104740007F0307EE903AF8EE677AB7EE007A37EE1D
:10475000877AD7ED076AC6EE877AFCEEE77A17EE1E
:10476000902A7B681A601F4B1B6C1B0C03F07F03A5
:1047700007EE903AF8EE677AB7EE007A37EE877A6E
:10478000D7ED076AC6EE877AFCEEE77A17EE902A35
:104790007B685A60134B1B6C1B0E03F07F0307EE04
:1047A000903AF8EE677AB7EE007A37EE877AD7ED6F
:1047B000076AC6EE877AFCEEE77A17EE902A7B68E6
:1047C0009A6008E07B6800221A607B6800225A60C9
:1047D0007B6800229A6000BF2437BD465DF8047BE9
:1047E000704700BF004402580090D003000000460C
:1047F0000024744C0024744A0024F44B80B584B027
:1048000000AF786039600023FB73534B9B6A03F061
:104810000303032B01D1012399E04F4B1B684E4A40
:1048200023F080631360FCF787FFB86008E0FCF7B3
:1048300083FF0246BB68D31A022B01D9032386E00B
:10484000454B1B6803F00063002BF0D1424B9B6A81
:1048500023F47C327B681B681B033F4913438B6244
:104860007B685B68013BC3F308027B689B68013B84
:104870005B029BB21A437B68DB68013B1B0403F4B9
:10488000FE031A437B681B69013B1B0603F0FE43D2
:10489000314913438B63304BDB6A23F0C0027B68E2
:1048A0005B692D491343CB622B4BDB6A23F020025B
:1048B0007B689B6928491343CB62274BDB6A264AF6
:1048C00023F01003D362244BDA6B244B13407A6835
:1048D000D269D20020491343CB631F4BDB6A1E4AC7
:1048E00043F01003D3623B68002B06D11A4BDB6AFE
:1048F000194A43F40023D3620FE03B68012B06D131
:10490000154BDB6A144A43F48013D36205E0124B63
:10491000DB6A114A43F40013D3620F4B1B680E4A43
:1049200043F080631360FCF707FFB86008E0FCF712
:1049300003FF0246BB68D31A022B01D9032306E00A
:10494000054B1B6803F00063002BF0D0FB7B18467F
:104950001037BD4680BD00BF004402580700FFFF6E
:1049600080B584B000AF786039600023FB73534B8F
:104970009B6A03F00303032B01D1012399E04F4B02
:104980001B684E4A23F080531360FCF7D5FEB860D5
:1049900008E0FCF7D1FE0246BB68D31A022B01D90E
:1049A000032386E0454B1B6803F00053002BF0D136
:1049B000424B9B6A23F07C727B681B681B053F4956
:1049C00013438B627B685B68013BC3F308027B681F
:1049D0009B68013B5B029BB21A437B68DB68013B2F
:1049E0001B0403F4FE031A437B681B69013B1B068F
:1049F00003F0FE43314913430B64304BDB6A23F46D
:104A000040627B685B692D491343CB622B4BDB6AA9
:104A100023F400727B689B6928491343CB62274BC0
:104A2000DB6A264A23F48073D362244B5A6C244BEE
:104A300013407A68D269D200204913434B641F4B5C
:104A4000DB6A1E4A43F48073D3623B68002B06D1B5
:104A50001A4BDB6A194A43F48003D3620FE03B68C8
:104A6000012B06D1154BDB6A144A43F40003D362D1
:104A700005E0124BDB6A114A43F08073D3620F4B9F
:104A80001B680E4A43F080531360FCF755FEB86074
:104A900008E0FCF751FE0246BB68D31A022B01D98D
:104AA000032306E0054B1B6803F00053002BF0D0F6
:104AB000FB7B18461037BD4680BD00BF004402583E
:104AC0000700FFFF80B582B000AF78607B68002BE5
:104AD00001D1012342E07B68D3F88830002B06D156
:104AE0007B68002283F884207868FCF75BF87B6899
:104AF0002422C3F888207B681B681A687B681B68BF
:104B000022F001021A607B689B6A002B02D0786851
:104B100000F0FAFE786800F08FF90346012B01D10E
:104B200001231BE07B681B685A687B681B6822F4C2
:104B300090425A607B681B689A687B681B6822F009
:104B40002A029A607B681B681A687B681B6842F0BF
:104B500001021A60786800F079FF034618460837AA
:104B6000BD4680BD80B58AB002AFF860B9603B60D9
:104B70001346FB80FB68D3F88830202B40F08680FA
:104B8000BB68002B02D0FB88002B01D101237EE003
:104B9000FB680022C3F89020FB682122C3F888201C
:104BA000FCF7CAFD7861FB68FA88A3F85420FB681B
:104BB000FA88A3F85620FB689B68B3F5805F08D19C
:104BC000FB681B69002B04D10023FB61BB68BB6140
:104BD00003E0BB68FB610023BB613AE03B680093E4
:104BE0007B6900228021F86800F0DAFF0346002B81
:104BF00005D0FB682022C3F88820032347E0FB6927
:104C0000002B0BD1BB691B881A46FB681B68C2F3DB
:104C100008029A62BB690233BB6107E0FB691A783C
:104C2000FB681B689A62FB690133FB61FB68D3F880
:104C3000883003F02103212B09D1FB68B3F85630EB
:104C40009BB2013B9AB2FB68A3F8562001E0012316
:104C50001DE0FB68B3F856309BB2002BBED13B6819
:104C600000937B6900224021F86800F099FF034619
:104C7000002B05D0FB682022C3F88820032306E020
:104C8000FB682022C3F88820002300E00223184696
:104C90002037BD4680BD80B58AB002AFF860B960EC
:104CA0003B601346FB80FB68D3F88C30202B40F030
:104CB000BD80BB68002B02D0FB88002B01D10123F3
:104CC000B5E0FB680022C3F89020FB682222C3F8FD
:104CD0008C20FB680022DA66FCF72EFD7861FB6809
:104CE000FA88A3F85C20FB68FA88A3F85E20FB68CA
:104CF0009B68B3F5805F0ED1FB681B69002B05D163
:104D0000FB6840F2FF12A3F860202DE0FB68FF2251
:104D1000A3F8602028E0FB689B68002B0DD1FB689E
:104D20001B69002B04D1FB68FF22A3F860201BE065
:104D3000FB687F22A3F8602016E0FB689B68B3F154
:104D4000805F0DD1FB681B69002B04D1FB687F22BB
:104D5000A3F8602008E0FB683F22A3F8602003E08E
:104D6000FB680022A3F86020FB68B3F860307B8208
:104D7000FB689B68B3F5805F08D1FB681B69002B5B
:104D800004D10023FB61BB68BB6103E0BB68FB612E
:104D90000023BB613EE03B6800937B690022202139
:104DA000F86800F0FDFE0346002B05D0FB682022CA
:104DB000C3F88C2003233AE0FB69002B0CD1FB687D
:104DC0001B685B6A9AB27B8A13409AB2BB691A80ED
:104DD000BB690233BB610CE0FB681B685B6ADAB23B
:104DE0007B8ADBB21340DAB2FB691A70FB690133CC
:104DF000FB61FB68D3F88C30222B09D1FB68B3F838
:104E00005E309BB2013B9AB2FB68A3F85E2001E0E2
:104E100001230CE0FB68B3F85E309BB2002BBAD1E3
:104E2000FB682022C3F88C20002300E002231846F0
:104E30002037BD4680BD00002DE9B04F92B000AFD5
:104E40007861002387F842307B699A687B691B6927
:104E50001A437B695B691A437B69DB6913437B6493
:104E60007B691B681A68BE4B13407A691268796CBB
:104E70000B4313607B691B685B6823F440517B69BB
:104E8000DA687B691B680A435A607B699B697B64AB
:104E90007B691B68B34A934204D07B691B6A7A6CB6
:104EA00013437B647B691B689A68AF4B13407A6934
:104EB0001268796C0B4393607B691B68DB6A23F093
:104EC0000F017B695A6A7B691B680A43DA627B6956
:104ED0001B68A64A934277D1A54B5B6D03F038035C
:104EE000282B6DD801A252F823F000BF914F000883
:104EF000C14F0008C14F0008C14F0008C14F000852
:104F0000C14F0008C14F0008C14F0008994F000869
:104F1000C14F0008C14F0008C14F0008C14F000831
:104F2000C14F0008C14F0008C14F0008A14F000841
:104F3000C14F0008C14F0008C14F0008C14F000811
:104F4000C14F0008C14F0008C14F0008A94F000819
:104F5000C14F0008C14F0008C14F0008C14F0008F1
:104F6000C14F0008C14F0008C14F0008B14F0008F1
:104F7000C14F0008C14F0008C14F0008C14F0008D1
:104F8000C14F0008C14F0008C14F0008B94F0008C9
:104F9000012387F8433022E2042387F843301EE2DE
:104FA000082387F843301AE2102387F8433016E2CB
:104FB000202387F8433012E2402387F843300EE283
:104FC000802387F843300AE27B691B68694A934271
:104FD00030D1674B5B6D03F00703052B26D801A288
:104FE00052F823F0FD4F0008055000080D5000084E
:104FF000155000081D50000825500008002387F8B0
:105000004330ECE1042387F84330E8E1082387F8D4
:105010004330E4E1102387F84330E0E1202387F8B0
:105020004330DCE1402387F84330D8E1802387F820
:105030004330D4E17B691B684F4A934230D14C4BDB
:105040005B6D03F00703052B26D801A252F823F06D
:10505000695000087150000879500008815000081C
:105060008950000891500008002387F84330B6E1CA
:10507000042387F84330B2E1082387F84330AEE1D8
:10508000102387F84330AAE1202387F84330A6E1B4
:10509000402387F84330A2E1802387F843309EE124
:1050A0007B691B68354A934230D1314B5B6D03F00D
:1050B0000703052B26D801A252F823F0D55000088B
:1050C000DD500008E5500008ED500008F5500008DC
:1050D000FD500008002387F8433080E1042387F85F
:1050E00043307CE1082387F8433078E1102387F8C8
:1050F000433074E1202387F8433070E1402387F880
:1051000043306CE1802387F8433068E17B691B689A
:105110001B4A934242D1164B5B6D03F00703052BEC
:1051200038D801A252F823F0415100084951000833
:105130005151000859510008855100088D5100084F
:10514000002387F843304AE1042387F8433046E1DF
:10515000082387F8433042E1102387F843303EE1CB
:10516000F369FFCF000C0058FFF4FF11001001405D
:10517000004402580044004000480040004C0040F9
:1051800000500040202387F8433028E1402387F86F
:10519000433024E1802387F8433020E17B691B689A
:1051A000CB4A934276D1CB4B5B6D03F03803282B6F
:1051B0006CD801A252F823F05D5200088D5200080D
:1051C0008D5200088D5200088D5200088D52000843
:1051D0008D5200088D520008655200088D5200085B
:1051E0008D5200088D5200088D5200088D52000823
:1051F0008D5200088D5200086D5200088D52000833
:105200008D5200088D5200088D5200088D52000802
:105210008D5200088D520008755200088D5200080A
:105220008D5200088D5200088D5200088D520008E2
:105230008D5200088D5200087D5200088D520008E2
:105240008D5200088D5200088D5200088D520008C2
:105250008D5200088D52000885520008012387F8FE
:105260004330BCE0042387F84330B8E0082387F8D4
:105270004330B4E0102387F84330B0E0202387F8B0
:105280004330ACE0402387F84330A8E0802387F820
:105290004330A4E07B691B688F4A934230D18D4B29
:1052A0005B6D03F00703052B26D801A252F823F00B
:1052B000C9520008D1520008D9520008E152000832
:1052C000E9520008F1520008002387F8433086E0D5
:1052D000042387F8433082E0082387F843307EE0D8
:1052E000102387F843307AE0202387F8433076E0B4
:1052F000402387F8433072E0802387F843306EE024
:105300007B691B68754A934230D1724B5B6D03F029
:105310000703052B26D801A252F823F035530008C5
:105320003D530008455300084D53000855530008ED
:105330005D530008002387F8433050E0042387F8CA
:1053400043304CE0082387F8433048E0102387F8C7
:10535000433044E0202387F8433040E0402387F87F
:1053600043303CE0802387F8433038E07B691B689A
:105370005B4A934230D1574B9B6D03F00703052BDB
:1053800026D801A252F823F0A1530008A95300081F
:10539000B1530008B9530008C1530008C9530008AD
:1053A000022387F843301AE0042387F8433016E0DD
:1053B000082387F8433012E0102387F843300EE0CB
:1053C000202387F843300AE0402387F8433006E083
:1053D000802387F8433002E0802387F843307B69DD
:1053E0001B683F4A934240F0F88097F84330202BE7
:1053F00046DC022BC0F28280023B1E2B7ED801A22B
:1054000052F823F087540008FD5400088F54000818
:10541000FD540008FD540008FD5400089F54000886
:10542000FD540008FD540008FD540008FD54000818
:10543000FD540008FD540008FD540008AF54000856
:10544000FD540008FD540008FD540008FD540008F8
:10545000FD540008FD540008FD540008FD540008E8
:10546000FD540008FD540008FD540008FD540008D8
:10547000FD540008FD540008FD540008EF540008D6
:10548000402B37D03AE0FEF7FBFEF8633CE007F133
:1054900024031846FEF70AFFBB6AFB6334E007F1FA
:1054A00018031846FFF756F8FB69FB632CE0094B1D
:1054B0001B6803F02003002B16D0064B1B68DB088B
:1054C00003F00303074A22FA03F3FB631CE000BF67
:1054D000001401400044025800780040007C004065
:1054E000000C00580090D0039D4BFB630CE09D4BDB
:1054F000FB6309E04FF40043FB6305E00023FB631B
:10550000012387F8423000BFFB6B002B00F0DE81E7
:105510007B695B6A944A32F813301A46FB6BB3FB23
:10552000F2F33B637B695A6813465B0013443A6BA2
:105530009A4205D37B695B681B033A6B9A4203D995
:10554000012387F84230C1E1FB6B0022BB60FA60A7
:105550007B695B6A844A32F813309BB200223B605D
:105560007A60D7E90023D7E90201FAF799FE0246EB
:105570000B46104619464FF000024FF000030B0295
:1055800043EA1063020279694968490800200C4621
:10559000054612EB040843EB05097B695B680022B2
:1055A0009A46934652465B4640464946FAF778FE8D
:1055B00002460B461346BB63BB6BB3F5407F08D373
:1055C000BB6BB3F5801F04D27B691B68BA6BDA60D2
:1055D0007CE1012387F8423078E17B69DB69B3F530
:1055E000004F40F0C58097F84330202B48DC002B5B
:1055F0007BDB202B79D801A252F823F087560008D4
:105600008F560008EB560008EB5600089756000826
:10561000EB560008EB560008EB560008A7560008AA
:10562000EB560008EB560008EB560008EB56000856
:10563000EB560008EB560008EB560008B75600087A
:10564000EB560008EB560008EB560008EB56000836
:10565000EB560008EB560008EB560008EB56000826
:10566000EB560008EB560008EB560008EB56000816
:10567000EB560008EB560008EB560008DD56000814
:10568000402B2ED031E0FDF7C5FBF86333E0FDF78A
:10569000D7FBF8632FE007F124031846FEF706FE58
:1056A000BB6AFB6327E007F118031846FEF752FFB9
:1056B000FB69FB631FE02D4B1B6803F02003002BED
:1056C00009D02A4B1B68DB0803F00303244A22FAA3
:1056D00003F3FB630FE0224BFB630CE0214BFB6306
:1056E00009E04FF40043FB6305E00023FB63012363
:1056F00087F8423000BFFB6B002B00F0E7807B692E
:105700005B6A194A32F813301A46FB6BB3FBF2F3AB
:105710005A007B695B685B081A447B695B68B2FB73
:10572000F3F3BB63BB6B0F2B16D9BB6BB3F5803F99
:1057300012D2BB6B9BB223F00F03FB86BB6B5B08E3
:105740009BB203F007039AB2FB8E1343FB867B697F
:105750001B68FA8EDA60B9E0012387F84230B5E0C1
:105760000090D00300093D009C98000800440258B6
:1057700097F84330202B49DC002B7CDB202B7AD898
:1057800001A252F823F000BF135800081B5800086C
:105790007758000877580008235800087758000801
:1057A00077580008775800083358000877580008E1
:1057B000775800087758000877580008775800088D
:1057C00077580008775800084358000877580008B1
:1057D000775800087758000877580008775800086D
:1057E000775800087758000877580008775800085D
:1057F000775800087758000877580008775800084D
:10580000775800087758000869580008402B2ED0B8
:1058100031E0FDF7FFFAF86333E0FDF711FBF863C1
:105820002FE007F124031846FEF740FDBB6AFB6337
:1058300027E007F118031846FEF78CFEFB69FB63AF
:105840001FE02D4B1B6803F02003002B09D02A4BCF
:105850001B68DB0803F00303284A22FA03F3FB6307
:105860000FE0264BFB630CE0254BFB6309E04FF494
:105870000043FB6305E00023FB63012387F842300C
:1058800000BFFB6B002B21D07B695B6A1D4A32F89D
:1058900013301A46FB6BB3FBF2F27B695B685B0863
:1058A0001A447B695B68B2FBF3F3BB63BB6B0F2BE2
:1058B00009D9BB6BB3F5803F05D2BB6B9AB27B694C
:1058C0001B68DA6002E0012387F842307B6901221D
:1058D000A3F86A207B690122A3F868207B69002273
:1058E0005A677B6900229A6797F842301846483712
:1058F000BD46BDE8B08F00BF004402580090D00301
:1059000000093D009C98000880B483B000AF786027
:105910007B689B6A03F00803002B0AD07B681B6836
:105920005B6823F400417B689A6B7B681B680A43C1
:105930005A607B689B6A03F00103002B0AD07B68E6
:105940001B685B6823F400317B68DA6A7B681B683C
:105950000A435A607B689B6A03F00203002B0AD05B
:105960007B681B685B6823F480317B681A6B7B68FB
:105970001B680A435A607B689B6A03F00403002B90
:105980000AD07B681B685B6823F480217B685A6BB4
:105990007B681B680A435A607B689B6A03F01003AC
:1059A000002B0AD07B681B689B6823F480517B68BE
:1059B000DA6B7B681B680A439A607B689B6A03F01A
:1059C0002003002B0AD07B681B689B6823F40051DE
:1059D0007B681A6C7B681B680A439A607B689B6AC9
:1059E00003F04003002B1AD07B681B685B6823F42C
:1059F00080117B685A6C7B681B680A435A607B681D
:105A00005B6CB3F5801F0AD17B681B685B6823F46D
:105A1000C0017B689A6C7B681B680A435A607B688C
:105A20009B6A03F08003002B0AD07B681B685B68CD
:105A300023F400217B68DA6C7B681B680A435A6098
:105A400000BF0C37BD465DF8047B704780B598B049
:105A500002AF78607B680022C3F89020FBF76CFEF1
:105A600078657B681B681B6803F00803082B2FD13F
:105A70006FF07E4300937B6D00224FF40011786835
:105A800000F08EF80346002B22D07B681B68BB63B6
:105A9000BB6B53E8003F7B637B6B23F080033B656C
:105AA0007B681B681A463B6D7B643A64396C7A6C80
:105AB00041E80023FB63FB6B002BE6D17B682022CF
:105AC000C3F888207B68002283F88420032363E0E6
:105AD0007B681B681B6803F00403042B49D16FF03B
