:0200000470008A
:1000000000000120953F0070E53F007089430070BB
:100010009D430070A3430070A943007000000000DE
:100020000000000000000000000000004DAE007065
:10003000E53F00700000000079AF0070854200705D
:10004000E53F007000000000E53F0070E53F0070F4
:10005000E53F0070E53F0070000000000000000078
:10006000E53F0070E53F0070E53F007000000000D4
:1000700000000000E53F00700000000000000000EC
:10008000E53F0070E53F0070E53F0070E53F007020
:10009000E53F0070E53F0070E53F0070E53F007010
:1000A000E53F0070E53F0070E53F0070E53F007000
:1000B000E53F0070E53F0070E53F0070E53F0070F0
:1000C000E53F0070E53F0070E53F0070E53F0070E0
:1000D000E53F0070E53F0070E53F0070E53F0070D0
:1000E000E53F0070E53F0070E53F0070E53F0070C0
:1000F000E53F0070E53F0070E53F0070E53F0070B0
:10010000E53F0070E53F0070E53F0070E53F00709F
:10011000E53F0070E53F0070E53F0070E53F00708F
:10012000E53F0070E53F0070E53F0070E53F00707F
:10013000E53F0070E53F0070E53F0070E53F00706F
:10014000E53F0070E53F0070E53F0070E53F00705F
:10015000E53F0070E53F0070E53F0070E53F00704F
:10016000E53F0070E53F0070E53F0070E53F00703F
:10017000E53F0070E53F0070E53F0070E53F00702F
:10018000E53F0070E53F0070E53F0070E53F00701F
:10019000E53F0070E53F0070E53F0070E53F00700F
:1001A000E53F0070E53F0070E53F0070E53F0070FF
:1001B000E94D0070E53F0070E53F0070E53F0070DD
:1001C0000000000000000000E53F0070E53F007007
:1001D000E53F0070E53F0070E53F0070E53F0070CF
:1001E000E53F0070E53F0070E53F0070E53F0070BF
:1001F000E53F0070E53F00700000000000000000D7
:10020000E53F0070E53F0070E53F0070E53F00709E
:10021000E53F0070E53F0070E53F0070E53F00708E
:10022000E53F0070E53F0070E53F0070E53F00707E
:10023000E53F0070E53F0070E53F0070E53F00706E
:10024000E53F0070E53F0070E53F0070E53F00705E
:10025000E53F0070E53F0070E53F0070E53F00704E
:10026000E53F0070E53F0070E53F0070E53F00703E
:10027000E53F0070E53F0070E53F0070E53F00702E
:10028000E53F0070E53F0070E53F0070E53F00701E
:10029000E53F0070000000000000000000000000CA
:1002A000E53F0070E53F0070E53F0070E53F0070FE
:1002B00081F0004102E000BF83F0004330B54FEA17
:1002C00041044FEA430594EA050F08BF90EA020F84
:1002D0001FBF54EA000C55EA020C7FEA645C7FEA17
:1002E000655C00F0E2804FEA5454D4EB5555B8BF3A
:1002F0006D420CDD2C4480EA020281EA030382EAAB
:10030000000083EA010180EA020281EA0303362D3C
:1003100088BF30BD11F0004F4FEA01314FF4801C0F
:100320004CEA113102D0404261EB410113F0004F21
:100330004FEA03334CEA133302D0524263EB4303D8
:1003400094EA050F00F0A780A4F10104D5F1200E76
:100350000DDB02FA0EFC22FA05F2801841F10001D1
:1003600003FA0EF2801843FA05F359410EE0A5F1A5
:1003700020050EF1200E012A03FA0EFC28BF4CF0D6
:10038000020C43FA05F3C01851EBE37101F000458C
:1003900007D54FF0000EDCF1000C7EEB00006EEB99
:1003A0000101B1F5801F1BD3B1F5001F0CD3490823
:1003B0005FEA30004FEA3C0C04F101044FEA44527A
:1003C00012F5800F80F09A80BCF1004F08BF5FEA01
:1003D000500C50F1000041EB045141EA050130BDE1
:1003E0005FEA4C0C404141EB0101013C28BFB1F5F3
:1003F000801FE9D291F0000F04BF01460020B1FA3E
:1004000081F308BF2033A3F10B03B3F120020CDA10
:100410000C3208DD02F1140CC2F10C0201FA0CF0EE
:1004200021FA02F10CE002F11402D8BFC2F1200C53
:1004300001FA02F120FA0CFCDCBF41EA0C01904009
:10044000E41AA2BF01EB0451294330BD6FEA040452
:100450001F3C1CDA0C340EDC04F11404C4F120023D
:1004600020FA04F001FA02F340EA030021FA04F34F
:1004700045EA030130BDC4F10C04C4F1200220FAA6
:1004800002F001FA04F340EA0300294630BD21FAE4
:1004900004F0294630BD94F0000F83F4801306BFAA
:1004A00081F480110134013D4EE77FEA645C18BF9E
:1004B0007FEA655C29D094EA050F08BF90EA020F35
:1004C00005D054EA000C04BF1946104630BD91EA2D
:1004D000030F1EBF0021002030BD5FEA545C05D130
:1004E0004000494128BF41F0004130BD14F580046F
:1004F0003CBF01F5801130BD01F0004545F0FE41E3
:1005000041F470014FF0000030BD7FEA645C1ABF17
:10051000194610467FEA655C1CBF0B46024650EA4E
:10052000013406BF52EA033591EA030F41F400217A
:1005300030BD00BF90F0000F04BF0021704730B500
:100540004FF4806404F132044FF000054FF00001D5
:1005500050E700BF90F0000F04BF0021704730B596
:100560004FF4806404F1320410F0004548BF40426B
:100570004FF000013EE700BF42004FEAE2014FEAC0
:1005800031014FEA02701FBF12F07F4393F07F4F9B
:1005900081F06051704732F07F4208BF704793F09E
:1005A0007F4F04BF41F40021704730B54FF46074B1
:1005B00001F0004521F000411CE700BF50EA0102B4
:1005C00008BF704730B54FF000050AE050EA01025D
:1005D00008BF704730B511F0004502D5404261EBCD
:1005E00041014FF4806404F132045FEA915C3FF40E
:1005F000D8AE4FF003025FEADC0C18BF03325FEAAB
:10060000DC0C18BF033202EBDC02C2F1200300FA5B
:1006100003FC20FA02F001FA03FE40EA0E0021FA80
:1006200002F11444BDE600BF53B94AB9002908BF1E
:1006300000281CBF4FF0FF314FF0FF3000F00CB826
:10064000ADF1080C6DE904CE0BF0CEF8DDF804E056
:10065000DDE9022304B07047704700BF10F8012B9A
:1006600011F8013B012A28BF9A42F7D0D01A7047EF
:10067000034613F8012B002AFBD1181A01387047E2
:1006800001F0FF01102A2BDB10F0070F08D010F843
:10069000013B013A8B422DD010F0070F42B3F6D147
:1006A000F0B441EA012141EA014122F007047FF060
:1006B00000070023F0E80256083C85EA010586EAB7
:1006C000010685FA47F5A3FA87F586FA47F6A5FAF3
:1006D00087F68EB9EED1F0BC01F0FF0102F00702FF
:1006E00032B110F8013B013A83EA010313B1F8D1AA
:1006F0000020704701387047002D06BF354603388B
:10070000073815F0010F07D1013015F4807F02BFC3
:10071000013015F4C03F0130F0BC0138704700BF14
:100720000348044B834202D0034B03B11847704780
:100730007000002470000024000000000548064BF3
:100740001B1AD90F01EBA301491002D0034B03B1CF
:10075000184770477000002470000024000000005B
:1007600010B5064C237843B9FFF7DAFF044B13B1F9
:100770000448AFF300800123237010BD70000024F3
:100780000000000020D9007008B5054B1BB10549D9
:100790000548AFF30080BDE80840FFF7CFBF00BFBA
:1007A000000000007400002420D9007080B582B0E1
:1007B00000AF7860074A7B681360074B1B68986836
:1007C0000023022200210BF0E7FB00BF0837BD46E3
:1007D00080BD00BF8C0000242000002480B584B0C0
:1007E00000AFF860B9607A60094B1B68002B09D034
:1007F000074B1B681B6808331B68054A10687A683A
:10080000B96898477B6818461037BD4680BD00BF61
:100810008C00002480B483B000AF78607B680A331A
:1008200018460C37BD465DF8047B704780B582B032
:1008300000AF78607B681B681846FFF7EBFF034644
:1008400018460837BD4680BD80B483B000AF7860DD
:10085000044A7B681A607B6818460C37BD465DF811
:10086000047B704790E9007080B483B000AF78607B
:10087000044A7B681A607B6818460C37BD465DF8F1
:10088000047B704790E9007080B582B000AF78605B
:100890007868FFF7E9FF042178680AF09AFD7B6821
:1008A00018460837BD4680BD80B582B000AF78607D
:1008B0000B467B8013463B807B681846FFF7C4FFDE
:1008C0000C4A7B681A607B687A889A807B683A88D1
:1008D000DA807B6800221A727B68093300221A6072
:1008E0005A609A60DA601A827B6818460837BD46FB
:1008F00080BD00BF50E9007080B483B000AF786065
:10090000034B18460C37BD465DF8047B704700BFAB
:100910004D52454780B483B000AF7860034B184612
:100920000C37BD465DF8047B704700BF38D90070B6
:1009300080B483B000AF78607B689B8818460C3722
:10094000BD465DF8047B704780B483B000AF78602B
:100950000B467B807B88002B02D07B687A889A804C
:1009600000BF0C37BD465DF8047B704780B483B090
:1009700000AF78607B68DB8818460C37BD465DF8B1
:10098000047B704780B483B000AF78600B467B80F7
:100990007B88002B05D07B88642B02D87B687A8803
:1009A000DA8000BF0C37BD465DF8047B704780B429
:1009B00083B000AF7860092318460C37BD465DF858
:1009C000047B704780B483B000AF78600123184681
:1009D0000C37BD465DF8047B704780B483B000AF30
:1009E0007860122318460C37BD465DF8047B7047CB
:1009F00080B483B000AF78607B681B7A18460C37F0
:100A0000BD465DF8047B704780B483B000AF78606A
:100A10000B46FB707B68FA781A7200BF0C37BD4634
:100A20005DF8047B7047B0B483B000AF7860396084
:100A30007B683A680933156854689068D1681D600E
:100A40005C609860D960128A1A8200BF0C37BD467C
:100A5000B0BC7047B0B487B000AFF860B9607A60DE
:100A60007B68002B02D0BB68002B01D1002320E063
:100A7000BB683B6100237B6116E07A691346DB00AB
:100A800013445B001A463B691A44FB6809331D682E
:100A90005C689868D968156054609060D1601B8A62
:100AA00013827B6901337B617A697B689A42E4D364
:100AB0007B6818461C37BD46B0BC704780B483B015
:100AC00000AF7860044A7B681A607B6818460C3770
:100AD000BD465DF8047B704710EA007080B483B0B7
:100AE00000AF7860044A7B681A607B6818460C3750
:100AF000BD465DF8047B704710EA007080B582B097
:100B000000AF78607868FFF7E9FF042178680AF0A1
:100B100060FC7B6818460837BD4680BD80B584B050
:100B200000AFF860B9607A60FB681846FFF7C6FF4F
:100B3000064AFB681A60FB68BA685A60FB687A6804
:100B40009A60FB6818461037BD4680BD3CE90070CE
:100B5000B0B588B000AF7860104B07F10C041D46AB
:100B60000FCD0FC42B6823607B685B681B68103354
:100B70001B687A68506807F10C0105229847034604
:100B8000002B07D07B689B6807F10C0211461846C2
:100B900001F03EFE022004F041FADDE744D9007086
:100BA00080B584B000AFF860B9607A60FB68184621
:100BB000FFF784FF064AFB681A60FB68BA685A6050
:100BC000FB687A689A60FB6818461037BD4680BD9E
:100BD00028E9007080B588B000AF78607B685B68FA
:100BE000184601F013FF7B685B68184601F044FF6C
:100BF0007B685B681846FFF719FEF86107F1080388
:100C000000221A605A609A60DA601A82FB69D3F88F
:100C10000D30BB60FB69D3F81130FB6000233B61F2
:100C2000FB691B78002B01D0012200E00022FB6948
:100C30005B78002B01D0022300E0002313431BB29A
:100C4000FA699278002A01D0042200E000221343BE
:100C50001BB2FA69D278002A01D0082200E00022F3
:100C600013431BB29BB2BB82FB69D3F81530F2EE83
:100C7000047A07EE103A67EE277AFDEEE77A17EE70
:100C8000903A1BB2FB82FB69D3F81930DFED0B7A87
:100C900007EE103A67EE277AFCEEE77A17EE903A05
:100CA0009BB23B837B689B6807F10802114618469C
:100CB000FFF7B9FE142004F0B1F994E700007A447C
:100CC00080B584B000AFF860B9607A60FB68184600
:100CD000FFF7F4FE0C4AFB681A60FB68BA685A60BA
:100CE000FB687A689A60FB680022C3F88C20FB6876
:100CF0000C338022002118460BF058FBFB68184685
:100D00001037BD4680BD00BF14E9007080B5ADF559
:100D1000047D00AF07F50473A3F50373186007F5AE
:100D20000473A3F50373186800F00CF9002387F827
:100D30000B3207F50473A3F503731B685B681B682C
:100D400010331B6807F50472A2F50372126850682D
:100D500007F20B210A2298470346002B00F0EA8095
:100D600097F80B320D2B03D097F80B320A2B71D169
:100D700007F50473A3F503731B685B681B680833EE
:100D80001B6807F50472A2F503721268506802220C
:100D90006A49984707F50473A3F503731B68D3F8F2
:100DA0008C30002B4ED007F50473A3F503731B683A
:100DB000D3F88C3007F50472A2F50372126813445D
:100DC00000221A7307F50473A3F5027318464FF453
:100DD00000731A4600210BF0E9FA07F50473A3F536
:100DE00003731B68986807F50473A3F503731B6806
:100DF00003F10C0107F108024FF4007302F056FAF8
:100E0000C7F80C02D7F80C32002B13DD07F504737A
:100E1000A3F503731B685B681B6808331B6807F541
:100E20000472A2F5037212685068D7F80C2207F119
:100E30000801984707F50473A3F503731B680022A4
:100E4000C3F88C2007F50473A3F50373186800F04A
:100E500079F86FE097F80B32082B03D097F80B3234
:100E60007F2B2AD107F50473A3F503731B68D3F80E
:100E70008C30002B5ED007F50473A3F503731B6859
:100E8000D3F88C305A1E07F50473A3F503731B685F
:100E9000C3F88C2007F50473A3F503731B685B6824
:100EA0001B6808331B6807F50472A2F50372126809
:100EB00050680322224998473CE007F50473A3F5E4
:100EC00003731B68D3F88C307E2B33D897F80B3222
:100ED0001F2B2FD997F80B327E2B2BD897F80B02AC
:100EE00007F50473A3F503731B68D3F88C30591C02
:100EF00007F50472A2F503721268C2F88C1007F5A8
:100F00000472A2F503721268134402461A7307F5BD
:100F10000473A3F503731B685B681B6808331B68C5
:100F200007F50472A2F503721268506807F20B21EC
:100F300001229847052004F071F8F7E658D90070AF
:100F40005CD9007080B584B000AF78600C4A07F1BE
:100F5000080392E8030018600433198002330A0C76
:100F60001A707B685B681B6808331B687A68506876
:100F700007F108010622984700BF1037BD4680BD23
:100F800060D9007080B582B000AF7860054A7B6898
:100F90001A607B681846FFF7A1FD7B681846083782
:100FA000BD4680BD24EA007080B582B000AF786095
:100FB0007868FFF7E7FF0C2178680AF00AFA7B6887
:100FC00018460837BD4680BD80B483B000AF786056
:100FD000044A7B681A607B6818460C37BD465DF88A
:100FE000047B7047D0E9007080B582B000AF7860B4
:100FF0007868FFF7E9FF042178680AF0EAF97B686E
:1010000018460837BD4680BD80B582B000AF786015
:10101000054A7B681A607B681846FFF7D5FF7B6836
:1010200018460837BD4680BD38EA007080B582B0EA
:1010300000AF78607868FFF7E7FF302178680AF042
:10104000C8F97B6818460837BD4680BD80B582B0B8
:1010500000AF7860054A7B681A607B681846FFF726
:1010600003FC7B6818460837BD4680BD50E9007018
:1010700080B582B000AF78607868FFF7E7FF1C2189
:1010800078680AF0A6F97B6818460837BD4680BD27
:1010900080B582B000AF7860054A7B681A607B68D3
:1010A0001846FFF71BFD7B6818460837BD4680BD14
:1010B0003CE9007080B582B000AF78607868FFF7D7
:1010C000E7FF0C2178680AF084F97B681846083736
:1010D000BD4680BD80B582B000AF7860054A7B68B0
:1010E0001A607B681846FFF7F9FC7B6818460837DA
:1010F000BD4680BD28E9007080B582B000AF786041
:101100007868FFF7E7FF0C2178680AF062F97B68DE
:1011100018460837BD4680BD80B582B000AF786004
:10112000054A7B681A607B681846FFF7D7FC7B6826
:1011300018460837BD4680BD14E9007080B582B0FE
:1011400000AF78607868FFF7E7FF902178680AF0D1
:1011500040F97B6818460837BD4680BD80B584B02D
:1011600002AF02F0D1FC02F05FFD03461846FFF724
:101170001DFB11480AF008FF10480AF005FF10484F
:101180000AF002FF0F480AF0FFFE0F480AF0FCFECB
:1011900002F084FD78607B681B6808331B680B498C
:1011A00078689847034683F00103DBB2002B11D027
:1011B00007480AF0E9FE10E068D90070A8D900706D
:1011C000E8D9007028DA007068DA007020A1070002
:1011D000A8DA0070A2480AF0D7FEA24B1B68BFF342
:1011E0005B8F03F00103002B0CBF01230023DBB254
:1011F000002B12D09B480AF0EEF80346002B14BFD8
:1012000001230023DBB2002B07D002F017FD0346B9
:10121000954A136093480AF0EAF8944B1B68BFF3B1
:101220005B8F03F00103002B0CBF01230023DBB213
:10123000002B1AD08D480AF0CEF80346002B14BFBD
:1012400001230023DBB2002B0FD0874B1B684FF428
:10125000FA721946864800F037FA864A8649844869
:101260000AF0B2F881480AF0C2F8844B1B68BFF359
:101270005B8F03F00103002B0CBF01230023DBB2C3
:10128000002B18D07D480AF0A6F80346002B14BFA7
:1012900001230023DBB2002B0DD004230522796843
:1012A000774800F0A1FA734A764975480AF08CF83D
:1012B00072480AF09CF8744B1B68BFF35B8F03F015
:1012C0000103002B0CBF01230023DBB2002B11D044
:1012D0006D480AF080F80346002B14BF0123002359
:1012E000DBB2002B06D06649684801F076FB664801
:1012F0000AF07DF8664B1B68BFF35B8F03F00103B8
:10130000002B0CBF01230023DBB2002B11D060485F
:101310000AF061F80346002B14BF01230023DBB25F
:10132000002B06D056495B4801F036FD58480AF0BC
:101330005EF8594B1B68BFF35B8F03F00103002B72
:101340000CBF01230023DBB2002B12D052480AF05D
:1013500042F80346002B14BF01230023DBB2002B0D
:1013600007D04C4A49494D4801F0CCFE4A480AF0A2
:101370003EF84B4B1B68BFF35B8F03F00103002B60
:101380000CBF01230023DBB2002B17D044480AF026
:1013900022F80346002B14BF01230023DBB2002BED
:1013A0000CD0012232213F48FFF77EFA314A3E49F4
:1013B0003C480AF009F83A480AF019F83B4B1B6818
:1013C000BFF35B8F03F00103002B0CBF012300234D
:1013D000DBB2002B17D0354809F0FDFF0346002B88
:1013E00014BF01230023DBB2002B0CD0244A796800
:1013F0002F48FFF793FB1F4A2E492D4809F0E4FFC1
:101400002A4809F0F4FF2C4B1B68BFF35B8F03F0F5
:101410000103002B0CBF01230023DBB2002B17D0EC
:10142000254809F0D8FF0346002B14BF01230023F1
:10143000DBB2002B0CD01B4A14492048FFF7B0FB4D
:101440000C4A1F491D4809F0BFFF1B4809F0CFFF98
:101450001C4B1B68BFF35B8F03F00103002B33E0D1
:10146000D8DA00709400002490000024A400002426
:101470009800002400000024850F0070D80000248C
:10148000A800002409100070EC000024DC000024F7
:10149000F4000024F000002400010024F8000024DF
:1014A00020010024040100244D10007030010024AC
:1014B0002401002491100070400100243401002414
:1014C000D5100070D40100240CBF01230023DBB22F
:1014D000002B1AD0674809F07EFF0346002B14BF8B
:1014E00001230023DBB2002B0FD002F09DFB03464B
:1014F000614A19466148FFF7E3FB614A61495F4869
:1015000009F062FF5B4809F072FF5F4B1B68BFF395
:101510005B8F03F00103002B0CBF01230023DBB220
:10152000002B1BD0584809F056FF0346002B14BF70
:1015300001230023DBB2002B10D0012300934FF4D2
:101540008073524A5249534803F0BAFC4C4A5249FC
:10155000504809F039FF4C4809F049FF4F4B1B68D0
:10156000BFF35B8F03F00103002B0CBF01230023AB
:10157000DBB2002B1BD0494809F02DFF0346002B9E
:1015800014BF01230023DBB2002B10D004230093EF
:101590004FF48063424A4349434803F091FC384A80
:1015A0003D49414809F010FF3C4809F020FF3F4BFE
:1015B0001B68BFF35B8F03F00103002B0CBF0123FB
:1015C0000023DBB2002B1BD0384809F004FF034690
:1015D000002B14BF01230023DBB2002B10D0032308
:1015E00000934FF48063324A3249334803F068FC79
:1015F000234A2949304809F0E7FE2C4809F0F7FE54
:101600002E4B1B68BFF35B8F03F00103002B0CBF55
:1016100001230023DBB2002B1BD0284809F0DBFE9E
:101620000346002B14BF01230023DBB2002B10D094
:10163000022300934FF48063214A1049214803F0AC
:101640003FFC0F4A14491F4809F0BEFE1B4809F031
:10165000CEFE104803F084FC134803F081FC1648CA
:1016600003F07EFC174803F07BFC08F0A3F800BFF2
:10167000FDE700BFD4010024F80000244401002449
:101680000000002419110070F001002408DB007034
:1016900098000024D8010024094F00700C02002497
:1016A00014DB007024010024F4010024280200242B
:1016B00020DB0070340100241002002444020024C6
:1016C0002CDB00702C02002480B584B000AFF860E1
:1016D000B9607A60FB681846FFF7F0F9064AFB68C4
:1016E0001A60FB68BA685A60FB687A689A60FB689F
:1016F00018461037BD4680BD24EA007080B584B01E
:1017000000AF78607B685B681B6810331B687A6881
:101710005268104698477B689B68FB60FB68092B02
:1017200001D80A23FB60F86803F078FCEAE70000C0
:1017300080B483B000AF7860044A7B681A607B682D
:1017400018460C37BD465DF8047B7047D0E9007041
:1017500080B483B000AF78607B6800221A707B6829
:1017600000225A707B6800229A707B680022DA702F
:101770007B6800221A717B6800225A717B68002204
:101780009A717B680022DA717B6800221A727B688A
:1017900000225A7200229A720022DA7200221A7310
:1017A0007B6800225A7300229A730022DA730022A7
:1017B0001A747B6800225A7400229A740022DA7428
:1017C00000221A757B6815334FF000021A607B689F
:1017D00019334FF000021A607B6818460C37BD467B
:1017E0005DF8047B7047000080B584B000AFF860FE
:1017F000B96011461A460B46FB711346BB71FB6874
:101800001846FFF795FF114AFB681A60FB68BA6833
:101810005A60FB68FA791A72FB68BA795A72FB68E7
:101820000A331846FFF794FFFB6800229A62FB68B0
:101830000022DA62FB680A331D22002118460AF0F2
:10184000B5FDFB6818461037BD4680BD38EA00700C
:1018500090B484B000AF0446084611461A462346A9
:10186000FB710346BB710B467B7113463B71FB79E1
:101870009B0103F4F862BB795B0003F03E03134362
:10188000C3F30A03FB60FB795B09DBB21B0403F4BF
:101890004032BB795B09DBB29B039BB21A433B79B5
:1018A000002B04D07B7963F07F03DBB202E07B790D
:1018B00003F07F031343BB60FB689A04BB68C3F368
:1018C0001103134318461037BD4690BC704780B4CF
:1018D00087B000AFF860B9607A603B60FB689B0C32
:1018E000C3F30A037B61FB68C3F311033B613B69EC
:1018F000DB0ADBB203F06003DAB27B699B09DBB27F
:1019000003F01F03DBB21343DAB2BB681A703B6902
:10191000DAB27B681A707B681B785BB2DB43DBB2A0
:10192000DB09DAB23B681A70012318461C37BD4642
:101930005DF8047B70470000B0B592B000AFF8606E
:101940007A601A460B46FB721346BB72534B07F183
:101950002C041D460FCD0FC42B682360FB68587AFA
:10196000FB68197AFA7A0123FFF772FF0346FB62DC
:10197000012387F83030002387F83130BB7A87F8AD
:1019800032307B68002B0FD0BB7A002B0CD0BB7A97
:10199000082B28BF0823DBB21A4607F12C030733B4
:1019A000796818460AF09FFDFB685B681B680C337A
:1019B0001B68FA68506807F12C013A6E9847034695
:1019C00083F00103DBB2002B01D0002362E000238F
:1019D0007B6401233B6458E0304B07F118041D463B
:1019E0000FCD0FC42B682360FB685B681B68103346
:1019F0001B68FA68506807F11801012298470346EE
:101A0000002B3FD00023FB750023BB7500237B75A3
:101A1000B86907F1150307F1160207F11701FFF77F
:101A200056FFBB7D5A2B06D107F118031946F868FB
:101A300000F0EEFE29E0FB681A7AFB7D9A4221D184
:101A4000BA7DFB7A5340DBB203F07F03002B19D140
:101A5000BA7FFB6D1A70BB6D002B11D0FB6D1B782C
:101A6000002B0DD0FB6D1B78082B28BF0823DBB2A1
:101A70001A4607F1180307331946B86D0AF033FD0B
:101A8000012307E07B6C01337B647A6C3B6E9A42E6
:101A9000A2D3002318464837BD46B0BD38DB0070DE
:101AA00080B58AB004AF786001233B7507F10C0361
:101AB00000221A605A600023FB7207F114023223DD
:101AC000029307F10B03019307F10C030093012329
:101AD00015217868FFF730FF0346FB75FB7D002B6F
:101AE00002D07B6801229A72FB7D18461837BD46EA
:101AF00080BD80B58AB004AF786000233B7507F1E4
:101B00000C0300221A605A600023FB7207F11402D2
:101B10003223029307F10B03019307F10C030093A7
:101B2000012315217868FFF707FF0346FB75FB7D4E
:101B3000002B02D07B6800229A72FB7D1846183772
:101B4000BD4680BD80B483B000AF78607B689B7A6F
:101B500018460C37BD465DF8047B704780B58AB0E7
:101B600004AF786039603B68DBB23B753B681B12A1
:101B7000DBB27B753B681B14DBB2BB753B681B0E8D
:101B8000DBB2FB7507F10C0300221A605A600023D8
:101B9000FB7207F114023223029307F10B03019346
:101BA00007F10C03009304231D217868FFF7C4FE9E
:101BB000034683F00103DBB2002B01D0002304E0D5
:101BC000786800F0F0F9034600BF18461837BD46A4
:101BD00080BD80B58EB004AFF860B9607A60BB6834
:101BE000DBB287F82430BB681B12DBB287F82530E4
:101BF000BB681B14DBB287F82630BB681B0EDBB258
:101C000087F8273007F11C0300221A605A6000236E
:101C1000FB7607F124023223029307F11B030193A1
:101C200007F11C03009304232021F868FFF784FECA
:101C3000034683F00103DBB2002B01D000232AE02E
:101C40007B68DBB23B757B681B0ADBB27B757B680C
:101C50001B0CDBB2BB757B681B0EDBB2FB7507F19F
:101C600014023223029307F11B03019307F11C03B3
:101C7000009304231E21F868FFF75EFE034683F0FD
:101C80000103DBB2002B01D0002304E0F86800F070
:101C90008AF9034600BF18462837BD4680BD80B587
:101CA0008EB004AFF860B9607A60BB68DBB287F8C9
:101CB0002430BB681B12DBB287F82530BB681B14CD
:101CC000DBB287F82630BB681B0EDBB287F8273003
:101CD00007F11C0300221A605A600023FB7607F10B
:101CE00024023223029307F11B03019307F11C0323
:101CF000009304231F21F868FFF71EFE034683F0BC
:101D00000103DBB2002B01D000232AE07B68DBB2A9
:101D10003B757B681B0ADBB27B757B681B0CDBB2F7
:101D2000BB757B681B0EDBB2FB7507F11402322317
:101D3000029307F11B03019307F11C030093042393
:101D40001E21F868FFF7F8FD034683F00103DBB2BC
:101D5000002B01D0002304E0F86800F024F90346CA
:101D600000BF18462837BD4680BD80B58AB004AF95
:101D700078600B46FB7007F1100300221A605A606E
:101D80000023FB733223029307F10F03019307F142
:101D9000100300930023002217217868FFF7CCFD81
:101DA000034618461837BD4680BD80B58AB004AFDB
:101DB0007860396007F1100300221A605A6000232E
:101DC000FB733223029307F10F03019307F1100312
:101DD00000930023002221217868FFF7ADFD034620
:101DE00018461837BD4680BD80B58AB000AF786010
:101DF000396007F108031D22002118460AF0D6FABF
:101E000007F108031946786800F014FC034683F0D4
:101E10000103DBB2002B01D0002336E03A7A3B68A5
:101E20001A707B7A83F00103DAB23B685A70BA7A8F
:101E30003B689A70FA7A3B68DA707B7B002B02D1A0
:101E40003B7B002B01D0012200E000223B681A718D
:101E5000BB7B002B01D1012200E002223B685A71BA
:101E6000D7F815203B689A60D7F819203B68DA60EC
:101E7000D7F81D303A6853617B7B002B01D00122DB
:101E800000E000223B689A61012318462837BD46CE
:101E900080BD80B58AB000AF7860396007F1080373
:101EA0001D22002118460AF081FA07F1080319469D
:101EB000786800F0BFFB034683F00103DBB2002B20
:101EC00001D0002304E0D7F811203B681A600123F9
:101ED00018462837BD4680BD80B58AB000AF78600F
:101EE000396007F108031D22002118460AF05EFA46
:101EF00007F108031946786800F09CFB034683F05D
:101F00000103DBB2002B01D0002304E0D7F8152039
:101F10003B681A60012318462837BD4680BD80B54E
:101F20008AB000AF7860396007F108031D220021F4
:101F300018460AF03BFA07F108031946786800F0E2
:101F400079FB034683F00103DBB2002B01D00023B1
:101F500004E0D7F819203B681A6001231846283797
:101F6000BD4680BD80B58AB004AF78600023BB82D7
:101F700007F10C0300221A605A600023FB7207F17C
:101F800014023223029307F10B03019307F10C03B0
:101F90000093022311217868FFF7CEFC0346184610
:101FA0001837BD4680BD80B58AB004AF786007F1B0
:101FB000100300221A605A600023FB73322302933D
:101FC00007F10F03019307F1100300930023002290
:101FD00016217868FFF7B0FC034618461837BD464F
:101FE00080BD80B586B000AFF860B9607A603B60B4
:101FF000B968F86800F031F80346FB75FB7D002BEB
:1020000008D07968F86800F057F80346002B01D033
:10201000012300E00023FB75FB7D002B08D039680D
:10202000F86800F078F80346002B01D0012300E0A7
:102030000023FB75FB7D002B08D0396AF86800F09F
:1020400099F80346002B01D0012300E00023FB7523
:10205000FB7D18461837BD4680BD80B58AB004AFF9
:10206000786039603B68DBB23B753B681B0ADBB2CA
:102070007B753B681B0CDBB2BB753B681B0EDBB290
:10208000FB7507F10C0300221A605A600023FB72F3
:1020900007F114023223029307F10B03019307F1B6
:1020A0000C030093042319217868FFF745FC0346CD
:1020B00018461837BD4680BD80B58AB004AF786039
:1020C00039603B68DBB23B753B681B0ADBB27B7552
:1020D0003B681B0CDBB2BB753B681B0EDBB2FB75B0
:1020E00007F10C0300221A605A600023FB7207F10B
:1020F00014023223029307F10B03019307F10C033F
:10210000009304231A217868FFF716FC034618464B
:102110001837BD4680BD80B58AB004AF786039609D
:102120003B68DBB23B753B681B0ADBB27B753B68E7
:102130001B0CDBB2BB753B681B0EDBB2FB7507F1FA
:102140000C0300221A605A600023FB7207F114028C
:102150003223029307F10B03019307F10C03009361
:1021600004231B217868FFF7E7FB0346184618375E
:10217000BD4680BD80B58AB004AF786039603B68E9
:10218000DBB23B753B681B0ADBB27B753B681B0C03
:10219000DBB2BB753B681B0EDBB2FB7507F10C03B2
:1021A00000221A605A600023FB7207F114023223E6
:1021B000029307F10B03019307F10C03009304232F
:1021C0001C217868FFF7B8FB034618461837BD4650
:1021D00080BD80B58AB004AF78600B46FB701346B3
:1021E000BB7007F1140300210A461A800A469A7050
:1021F00001233B75FB787B7507F10C0300221A6005
:102200005A600023FB7207F114023223029307F194
:102210000B03019307F10C0300930323102178684B
:10222000FFF78AFB0346FB7507F1080300210A4606
:102230001A800A469A7002233B72BB787B72FB7D40
:10224000002B13D007F108023223029307F10B038E
:10225000019307F10C030093032310217868FFF723
:102260006BFB0346002B01D0012300E00023FB752C
:10227000FB7D18461837BD4680BD80B58AB004AFD7
:1022800078600B46FB7007F1140300210A461A80A0
:102290000A469A70FB787B7507F10C0300221A60DE
:1022A0005A600023FB7207F114023223029307F1F4
:1022B0000B03019307F10C030093032310217868AB
:1022C000FFF73AFB034618461837BD4680BD0000AD
:1022D00080B58CB004AF78600B467B8013463B80A2
:1022E00007F1140300221A605A600023FB74344A79
:1022F00007F110031268114619800233120C1A708C
:1023000007F110023223029307F11303019307F13F
:1023100014030093032322217868FFF70DFB034683
:10232000FB7707F10C0300210A461A800A469A70CF
:1023300003233B737B88DBB27B73FB7F002B13D0C3
:1023400007F10C023223029307F11303019307F103
:1023500014030093032322217868FFF7EDFA034664
:10236000002B01D0012300E00023FB7707F10803D5
:1023700000210A461A800A469A7005233B723B8860
:10238000DBB27B72FB7F002B13D007F108023223F4
:10239000029307F11303019307F11403009303233E
:1023A00022217868FFF7C8FA0346002B01D00123E9
:1023B00000E00023FB77FB7F18462037BD4680BD39
:1023C0004CDB007080B58EB004AFF8607A603B6083
:1023D0000B46FB72FB7A87F820307B68DBB287F80C
:1023E00021307B681B12DBB287F822307B681B141C
:1023F000DBB287F823303B68DBB287F824303B68D8
:102400001B12DBB287F825303B681B14DBB287F860
:1024100026303B681B0EDBB287F8273007F1180324
:1024200000221A605A600023FB7507F12002322354
:10243000029307F11703019307F118030093082390
:102440002921F868FFF778FA034618462837BD4671
:1024500080BD80B58AB004AF78600B467B807B88F6
:10246000DBB23B757B881B0A9BB2DBB27B7507F145
:102470000C0300221A605A600023FB7207F1140259
:102480003223029307F10B03019307F10C0300932E
:10249000022323217868FFF74FFA034683F00103F4
:1024A000DBB2002B01D0002304E07868FFF77BFD4E
:1024B000034600BF18461837BD4680BD80B58AB0B8
:1024C00004AF7860114A07F11403126811461980AD
:1024D0000233120C1A7007F10C0300221A605A60C2
:1024E0000023FB7207F114023223029307F10B035E
:1024F000019307F10C030093032322217868FFF76F
:102500001BFA034618461837BD4680BD50DB0070E5
:1025100080B58AB004AF7860396007F10C030022FF
:102520001A605A600023FB723223029307F10B03F7
:10253000019307F10C03009300230022BA2178686D
:10254000FFF7FAF9034683F00103DBB2002B01D059
:1025500000231FE0FB7A012B1BD93B7B1AB27B7B4C
:102560001BB21B021BB21343FB82B7F9163007EEF6
:10257000903AB8EEE77AF2EE046AC7EE267A3B6844
:10258000C3ED007A3B681A687B68C3F81F200123FB
:1025900000E0002318461837BD4680BD80B58AB0DC
:1025A00004AF7860396003233B7507F10C03002208
:1025B0001A605A600023FB7207F11402322302935F
:1025C00007F10B03019307F10C03009301233D2155
:1025D0007868FFF7B1F9034683F00103DBB2002B03
:1025E00001D000231FE0FB7A022B1BD97B7B1AB2A0
:1025F000BB7B1BB21B021BB213431BB2FB82FB8AC9
:1026000007EE903AB8EE677ADFED096AC7EE267AF0
:102610003B68C3ED007A3B681A687B68C3F82320E7
:10262000012300E0002318461837BD4680BD00BFD7
:1026300000007A44B0B58EB004AF7860396007F11D
:10264000100300221A605A600023FB7300233B73BF
:1026500007F10C023223029307F10F03019307F1F4
:1026600010030093012311217868FFF765F90346F1
:1026700083F00103DBB2002B01D00023C4E0FB7B1D
:10268000072B6CD97B7C87F82330BB7C87F8223002
:1026900097F8233003F00303DAB27B681A7497F8D3
:1026A000233003F00403002B14BF01230023DAB20C
:1026B0007B689A7297F82330DB08DBB203F00703DC
:1026C000DAB27B685A7497F823309B09DBB203F0C7
:1026D0000103DAB27B689A7497F8223003F00103A1
:1026E000002B14BF01230023DAB27B68DA7297F85B
:1026F000223003F00203002B14BF01230023DAB2BF
:102700007B681A7397F8223003F00803002B14BF7C
:1027100001230023DAB27B685A7397F8223003F062
:102720002003002B14BF01230023DAB27B689A73C5
:1027300097F92230DBB2DB09DAB27B68DA733B7DD2
:102740001A467B7D1B021A43BB7D1B041A43FB7D8B
:102750001B061343FB61FA697B68C3F8132001234E
:102760003B7207F108023223029307F10F03019332
:1027700007F110030093012311217868FFF7DCF8BB
:10278000034683F00103DBB2002B01D000233BE0C2
:10279000FB7B072B24D97B7C1A46BB7C1B021A438C
:1027A000FB7C1B0413437B62FB7C5BB2002B03DAD4
:1027B0007B6A43F07F437B627A6A7B68C3F81B20A5
:1027C0003B7D1A467B7D1B021A43BB7D1B041A43CB
:1027D000FB7D1B061343BB61BA697B68C3F81720F6
:1027E0003A687B680A331C6858689968DD68146029
:1027F00050609160D5601C69586999691461506195
:1028000091611B7F1377012318462837BD46B0BD61
:1028100080B586B000AF786039600023FB73002379
:10282000BB7300237B733B68186807F10D0307F146
:102830000E0207F10F01FFF74AF87B681A7AFB7B5B
:102840009A4253D1BB7B5A2B51D13B689B79002BC9
:102850004DD03B68DB79FB753B689B79012B02D936
:102860003B681B7A00E00023BB75FB7D002B10D179
:10287000BB7D1D2B03D17B6801225A7305E0BB7D14
:102880000A2B02D17B6801229A737B680122DA73DA
:1028900020E0FB7D292B1DD17B6801221A737B6808
:1028A0000122DA723B689B79072B13D93B68DB7AEC
:1028B0001A463B681B7B1B021A433B685B7B1B046D
:1028C0001A433B689B7B1B0613433B613A697B6859
:1028D000C3F817207B689B6A002B08D07B689B6A33
:1028E0007A68D26AB97DF87D984700E000BF183752
:1028F000BD4680BD80B485B000AFF860B9607A6035
:10290000FB68BA689A62FB687A68DA6200BF1437BB
:10291000BD465DF8047B704780B483B000AF0346CA
:10292000FB71FB79082B27D801A252F823F000BFD6
:1029300055290070592900705D29007061290070C7
:1029400065290070692900706D2900707129007077
:10295000752900700C4B10E00C4B0EE00C4B0CE09A
:102960000C4B0AE00C4B08E00C4B06E00C4B04E06F
:102970000C4B02E00C4B00E00C4B18460C37BD46EC
:102980005DF8047B704700BF54DB007064DB0070AF
:1029900074DB007084DB00708CDB007094DB0070F3
:1029A000A0DB0070B4DB0070C4DB0070D4DB00700F
:1029B00080B582B000AF03463A60FB710B46BB7135
:1029C0003B68002B05D0BA79FB791946386800F0CE
:1029D000AFF900BF0837BD4680BD80B483B000AFFB
:1029E000786039607B683A681A607B6800221A71E7
:1029F0007B6800229A607B680022DA607B68184658
:102A00000C37BD465DF8047B7047000080B584B08C
:102A100002AF78607B681B687A680C491846FFF73C
:102A200069FF7B6818684CF250330093642342F2CC
:102A3000107242F21071FFF7D4FA0121786800F0A9
:102A400007F8012318460837BD4680BDB12900703C
:102A500080B483B000AF78600B46FB707B68FA7877
:102A60001A717B689B685A1C7B689A6000BF0C37A0
:102A7000BD465DF8047B704780B582B000AF7860DA
:102A80007B681B79032B02D1786800F005F800BF42
:102A90000837BD4680BD000080B582B000AF7860C9
:102AA0007B68DB68002B0CD17B681B681B681433C8
:102AB0001B687A6812680549104698477B680122AE
:102AC000DA6000BF0837BD4680BD00BFC0F9FFFF18
:102AD00080B582B000AF78607B681B79082B03D08B
:102AE0007B681B79072B01D1002312E07B681B68F0
:102AF0001B6808331B687A681268104698470346BB
:102B0000002B05D002217868FFF7A2FF012300E027
:102B1000002318460837BD4680BD80B582B000AF9F
:102B200078607B681B681B680C331B687A681268C6
:102B3000104698470346002B05D001217868FFF71F
:102B400087FF012300E0002318460837BD4680BDFB
:102B500080B582B000AF786039607B681B79022B4A
:102B60000ED07B681B79042B0AD07868FFF7B0FF82
:102B7000034683F00103DBB2002B01D0002313E0F6
:102B80007B681B681B6814331B687A681268396895
:102B9000104698470346002B05D004217868FFF7BC
:102BA00057FF012300E0002318460837BD4680BDCB
:102BB00080B584B000AFF860B9607A60FB681B79BB
:102BC000022B0ED0FB681B79052B0AD0F868FFF7A3
:102BD0007FFF034683F00103DBB2002B01D000230B
:102BE00013E0FB681B681B6818331B68FA681068E1
:102BF0007A68B96898470346002B05D00521F86824
:102C0000FFF726FF012300E0002318461037BD46DA
:102C100080BD80B584B000AFF860B9607A60FB68B1
:102C20001B79022B0ED0FB681B79052B0AD0F868A4
:102C3000FFF74EFF034683F00103DBB2002B01D008
:102C4000002313E0FB681B681B681C331B68FA68D1
:102C500010687A68B96898470346002B05D00521AB
:102C6000F868FFF7F5FE012300E00023184610374F
:102C7000BD4680BD80B584B000AF78607B681B68BE
:102C80001B6820331B687A68126800211046984739
:102C90000346FB737B681B79012B07D07B681B798C
:102CA000082B03D002217868FFF7D2FEFB7B184681
:102CB0001037BD4680BD80B582B000AF78607B68BC
:102CC0001B681B6820331B687A6812680121104654
:102CD000984708217868FFF7BBFE0123184608379C
:102CE000BD4680BD80B582B000AF78607B681B6850
:102CF0001B6834331B687A681268104698477B68F3
:102D00001B681B6810331B687A6812681046984766
:102D10000346002B01D0022300E001231946786806
:102D2000FFF796FE012318460837BD4680BD000018
:102D300080B582B000AF78600B46FB701346BB7065
:102D4000FB78002B15D1BB781D2B07D1104809F05B
:102D50001BF907217868FFF77BFE15E0BB780A2B8B
:102D600012D10C4809F010F908217868FFF770FEBD
:102D70000AE0FB78292B07D17B681B79052B03D14F
:102D800002217868FFF764FE00BF0837BD4680BDAA
:102D9000DCDB007004DC007080B483B000AF7860CE
:102DA00039607B683A681A607B6818460C37BD4604
:102DB0005DF8047B7047000080B52DED028B8EB06E
:102DC00000AFF860B96087ED010AC7ED000AD7EDE2
:102DD000017AF5EEC07AF1EE10FA06D9D7ED007A55
:102DE000F5EEC07AF1EE10FA01D80023B5E0FB68E9
:102DF0001B681B6810331B68FA68126810469847F6
:102E0000034683F00103DBB2002B08D0FB681B688C
:102E10001B6808331B68FA68126810469847FB68FD
:102E20001B681846FFF74AFBFB681B680322012159
:102E30001846FFF74DFA322387F82B304A4B7B6256
:102E4000D7ED006A97ED097AC6EE877AFCEEE77A4D
:102E500017EE903A7B637B6BFA2B01D9FA237B63E5
:102E6000D7ED017A9FED417A67EE877AC7ED087A50
:102E700000233B6365E03B6B013307EE903AF8EECD
:102E8000677A97ED097A67EE277AC7ED077ABB680C
:102E900007EE903AB8EEE78A97ED087AD7ED077A11
:102EA00067EE277AB0EE670A08F0A6FAF0EE407AED
:102EB00068EE277AC7ED067ABB6807EE903AB8EE5F
:102EC000E77AD7ED087A27EE278A97ED087AD7EDCB
:102ED000077A67EE277AB0EE670A08F07DFBF0EE1E
:102EE000407A68EE277AC7ED0B7A7B6B013B3A6B31
:102EF0009A4202D14FF00003FB62D7ED067AFDEE55
:102F0000E77A17EE903A7B61D7ED0B7AFDEEE77A20
:102F100017EE903A3B61FB6818687B693A69322189
:102F2000FFF750FA034683F00103DBB2002B05D014
:102F3000396B0F4808F0C0FF00230EE03B6B0133F4
:102F40003B633A6B7B6B9A4295D3FB681B6800210D
:102F50001846FFF77EFA034600BF18463837BD46CD
:102F6000BDEC028B80BD00BFCDCC4C3DDB0FC9401A
:102F700034DC007080B58CB000AFF860B9607A6066
:102F80007B68002B01D100239EE0FB681B681B6857
:102F900010331B68FA68126810469847034683F09E
:102FA0000103DBB2002B08D0FB681B681B680833E9
:102FB0001B68FA68126810469847FB681B68184639
:102FC000FFF77CFAFB681B68032201211846FFF714
:102FD0007FF9642387F823301023FB610123FB6210
:102FE00067E0FB6A07EE903AB8EE677AF3EE006AA4
:102FF000C7EE267AC7ED067AD7ED067A27EEA77ACE
:10300000D7ED067A77EEA77AF0EE086A76EEE77AE1
:1030100067EE277AC7ED057AD7ED067AB1EE087A22
:1030200027EE877AD7ED067AF1EE086A67EEA66A90
:10303000D7ED067A66EEA77A37EE677ADFED246A77
:10304000C7EE267AC7ED047ABB6807EE903AB8EE71
:10305000E77AD7ED057A67EE277AFDEEE77A17EE85
:10306000903ABB62BB6807EE903AB8EEE77AD7EDCC
:10307000047A67EE277AFDEEE77A17EE903A7B62E4
:10308000FB6A102B03D100237B62BB68BB62FB6829
:103090001868BB6A7A6A6421FFF794F9034683F0E3
:1030A0000103DBB2002B01D000230DE0FB6A0133EA
:1030B000FB62FB6A102B94D9FB681B680021184641
:1030C000FFF7C7F9034600BF18463037BD4680BD3D
:1030D000CDCCCC3F80B483B000AF78607B681B79E7
:1030E00018460C37BD465DF8047B704780B483B04A
:1030F00000AF78607B681B6818460C37BD465DF8EA
:10310000047B704780B485B000AFF860B9607A6026
:10311000FB68BA681A60FB687A685A60FB681846F0
:103120001437BD465DF8047B70470000F0B5A7B0CA
:1031300012AF78623962FA6107F130031D22002173
:10314000184609F033F97B6A1B681846FFF7CEFF73
:10315000024607F1300319461046FFF76BFA4FF0AD
:103160000003FB627B6A1B681846FFF7BFFF02463D
:1031700007F12C0319461046FFF7CAF94FF0000378
:10318000BB627B6A1B681846FFF7B0FF024607F177
:10319000280319461046FFF701FA7B6A1B68184698
:1031A000FFF798FF03461846FFF7B6FB844697F8EB
:1031B0003030002B01D02F4900E02F4997F83630EE
:1031C000002B01D12D4800E02D48D7F83D40D7F81D
:1031D0003950D7F8416097F83130BB6197F83230F9
:1031E0007B6197F833303B6197F83430FB6097F898
:1031F0003530BB6097F8373003F0010E72467A60C5
:1032000097F837305B1003F0010E72463A6097F87A
:1032100037309B1003F0010297F83830D7ED0B7A66
:10322000B7EEE77AD7ED0A6AB7EEE66A8DED106B76
:103230008DED0E7B0D930C923A680B927A680A9290
:10324000BA680992FA6808923A6907927A6906920E
:10325000BB6905930496039502940190009163461F
:10326000084AF969386A08F04BFF00BF5437BD4679
:10327000F0BD00BF60DC007070DC007080DC0070AE
:103280008CDC00709CDC007080B584B000AFF8600E
:10329000B9607A60044A7968B86808F031FF00BF05
:1032A0001037BD4680BD00BF08DE007080B5A2B0FB
:1032B00006AFF860B9607A603B60BB68002B05D050
:1032C0007B68002B02D03B68002B01D1002349E32F
:1032D000BB68FB6602E0FB6E0133FB66FB6E1B788E
:1032E000202BF8D00422A449F86E09F067F80346B1
:1032F000002B0AD1FB6E0433FB6602E0FB6E013348
:10330000FB66FB6E1B78202BF8D0FB6E1B78002B26
:1033100006D09A49F86EFDF7A1F90346002B09D1B2
:103320003A687968F868FFF7AFFF7868FDF7A0F9A9
:10333000034617E39249F86EFDF790F90346002B18
:1033400009D13A687968F868FFF7F0FE7868FDF708
:103350008FF9034606E38B49F86EFDF77FF90346C4
:10336000002B18D1FB681B681846FFF7B1FB03461A
:1033700087F8543097F85430002B01D0824B00E08E
:10338000824B1A463968786808F0BAFE7868FDF70B
:103390006FF90346E6E27E49F86EFDF75FF90346F2
:1033A000002B18D1FB681B681846FFF7B6FB0346D5
:1033B00087F8553097F85530002B01D0754B00E059
:1033C000754B1A463968786808F09AFE7868FDF7F8
:1033D0004FF90346C6E203227049F86E08F0EEFF8B
:1033E0000346002B25D14FF448633B65FB6E033346
:1033F00007F150026A49184608F0B8FEFB681B68DE
:103400003A6D11461846FFF7A3FB034687F856307E
:1034100097F85630002B01D0624A00E0624A3B6DBB
:103420003968786808F06CFE7868FDF721F9034682
:1034300098E205225D49F86E08F0C0FF0346002BB4
:1034400035D10023FB644FF44863BB64FB6E581D09
:1034500007F1480307F14C02554908F087FEB865AB
:10346000BB6D002B19DDFB681B68F96CBA6C184644
:10347000FFF79EFB034687F8573097F85730002B2D
:1034800001D04C4A00E04C4AF96CBB6C00930B46EF
:103490003968786808F034FE04E0484A396878688A
:1034A00008F02EFE7868FDF7E3F803465AE207229B
:1034B0004349F86E08F082FF0346002B35D1002304
:1034C0007B644FF448633B64FB6ED81D07F14003F7
:1034D00007F14402364908F049FE38663B6E002B7E
:1034E00019DDFB681B68796C3A6C1846FFF791FB95
:1034F000034687F85F3097F85F30002B01D0314AE0
:1035000000E0314A796C3B6C00930B46396878686F
:1035100008F0F6FD04E02D4A3968786808F0F0FDFF
:103520007868FDF7A5F803461CE22949F86EFDF717
:1035300095F80346002B51D1FB681B681846FFF72E
:10354000D5FD03461A6824321268002118469047B8
:10355000034687F8643097F86430002B01D01D4B88
:1035600000E01D4B1A463968786808F0C9FD786894
:10357000FDF77EF80346F5E118E2007020E20070E6
:1035800028E2007030E2007034E2007058E200700F
:103590007CE2007080E20070A4E20070C8E200707B
:1035A000CCE20070D0E20070ECE200700CE300703E
:1035B00014E300701CE3007050E3007070E30070CF
:1035C000A0E30070A8E30070DCE30070FCE300708F
:1035D00030E4007038E4007060E40070AA49F86ECE
:1035E000FDF73CF80346002B18D1FB681B68184612
:1035F000FFF740FB034687F8653097F86530002BEE
:1036000001D0A24B00E0A24B1A463968786808F056
:1036100077FD7868FDF72CF80346A3E19D49F86E25
:10362000FDF71CF80346002B18D1FB681B681846F1
:10363000FFF741FB034687F8663097F86630002BAA
:1036400001D0954B00E0954B1A463968786808F030
:1036500057FD7868FDF70CF8034683E19049F86E52
:10366000FCF7FCFF0346002B18D1FB681B681846CB
:10367000FFF738FB034687F8673097F86730002B71
:1036800001D0884B00E0884B1A463968786808F00A
:1036900037FD7868FCF7ECFF034663E103228349BA
:1036A000F86E08F08BFE0346002B40F0A98007F16E
:1036B000300300221A605A609A60DA60FB6E0333AE
:1036C00007F130027A49184608F050FD07F130033F
:1036D00078491846FCF7C2FF0346002B50D1764BC1
:1036E000FB624FF07C53BB624FF081437B6207F17A
:1036F00030031846FCF7BCFF03460433FA6ED018BB
:1037000007F1280107F12C0207F1240300930B466F
:103710006A4908F02BFDFB685B68D7ED0B7AFDEE7C
:10372000E76AD7ED0A7A97ED097AF0EE470AB0EE2C
:10373000670A16EE901A1846FFF73EFB034687F815
:10374000683097F86830002B01D05D4B00E05D4B8E
:10375000D7ED0B7AB7EEE77AD7ED0A6AB7EEE66AED
:10376000D7ED095AB7EEE55A8DED045B8DED026B8E
:103770008DED007B1A463968786808F0C1FC3AE0A4
:1037800007F1300350491846FCF768FF0346002B49
:103790002CD14FF4C8533B624FF44863FB6107F1EF
:1037A00030031846FCF764FF03460433FA6ED01862
:1037B00007F11C0307F12002444908F0D7FCFB681D
:1037C0005B68396AFA691846FFF7D4FB034687F845
:1037D000693097F86930002B01D03D4A00E03D4A3E
:1037E0003B6A3968786808F08BFC04E03A4A39682B
:1037F000786808F085FC7868FCF73AFF0346B1E08A
:1038000007223649F86E08F0D9FD0346002B6DD12A
:103810001C23BB6132237B61FB6ED81D07F11403AF
:1038200007F118022E4908F0A1FCFB681B68184636
:10383000FFF75CFCBB69DBB27A69D2B21946FEF7CE
:10384000C8FC034687F86A3097F86A30002B01D02D
:10385000244A00E0244ABB6907EE903AB8EEE77AC2
:10386000F2EE046AC7EE267AB7EEE77A7B69029336
:103870008DED007B3968786808F042FC7868FCF7C9
:10388000F7FE03466EE000BF80E4007088E400703D
:10389000A0E40070B8E40070C0E40070E4E40070DC
:1038A00008E5007010E500702CE500704CE5007034
:1038B00050E5007054E50070000048455CE500707C
:1038C00068E50070B0E50070D4E50070DCE50070DC
:1038D000E4E5007014E6007034E6007064E6007001
:1038E0006CE6007074E60070A4E600700A221F49BE
:1038F000F86E08F063FD0346002B29D110233B61CD
:10390000FB6E0A3307F110021949184608F02EFC25
:10391000FB681B681846FFF7E9FB02463B69DBB210
:1039200019461046FEF7A9FC034687F86B3097F856
:103930006B30002B01D00F4A00E00F4A3B69396819
:10394000786808F0DDFB7868FCF792FE034609E032
:10395000FB6E0A4A3968786808F0D2FB7868FCF791
:1039600087FE034618467037BD4680BDC8E6007026
:10397000D4E60070D8E60070FCE6007024E7007022
:1039800080B584B000AFF860B9607A60FB681B68EE
:103990000C331B680122B968F8689847034618463B
:1039A0001037BD4680BD80B400AF00BFBD465DF896
:1039B000047B704780B586B000AF3B1D00221A60C3
:1039C0005A609A60DA6001F00FFD0023FB7506E093
:1039D000FB7D184601F026FDFB7D0133FB75FB7D69
:1039E0000F2BF5D901233B7100237B710023BB60B2
:1039F0001F233B7387237B730023BB730023FB735D
:103A000001233B7400237B740023BB740023FB74ED
:103A10003B1D184601F01CFD01237B714FF0E04374
:103A2000BB601A233B7300237B730123BB73032307
:103A3000FB7300233B7400237B740123BB740123BD
:103A4000FB743B1D184601F003FD02237B714FF010
:103A50004053BB600E233B7300237B730023BB7377
:103A60000323FB7301233B7400237B740023BB748B
:103A70000023FB743B1D184601F0EAFC042001F012
:103A800091FC00BF1837BD4680BD000080B588B0EE
:103A900000AF1B4BD3F84831194A43F48023C2F8D6
:103AA0004831174BD3F84831BB60BB68144BD3F88F
:103AB0004031134A43F00803C2F84031104BD3F8A9
:103AC00040317B607B6807F10C0300221A605A606A
:103AD0009A60DA601A614FF44073FB6002233B6125
:103AE00000237B610023BB610723FB6107F10C030B
:103AF0001946044802F0F6FC00BF2037BD4680BDE1
:103B000000440258000C025880B584B000AFFFF7A3
:103B100051FF434B5B6903F40033002B14BF0123B7
:103B20000023DBB2002B1BD1BFF34F8F00BFBFF3CD
:103B30006F8F00BF3A4B0022C3F85022BFF34F8F64
:103B400000BFBFF36F8F00BF354B5B69344A43F44E
:103B500000335361BFF34F8F00BFBFF36F8F00E09F
:103B600000BF2F4B5B6903F48033002B14BF01238C
:103B70000023DBB2002B42D1294B0022C3F8842062
:103B8000BFF34F8F00BF264BD3F88030FB60FB683C
:103B90005B0BC3F30E03BB60FB68DB08C3F30903D5
:103BA0007B60BB685A0143F6E07313407A68920762
:103BB0001B491343C1F860327B685A1E7A60002BA0
:103BC00014BF01230023DBB2002BEAD1BB685A1ECD
:103BD000BA60002B14BF01230023DBB2002BDBD122
:103BE000BFF34F8F00BF0E4B5B690D4A43F4803328
:103BF0005361BFF34F8F00BFBFF36F8F00E000BF73
:103C000001F053FAFFF7CFFE00F004FAFFF73EFF92
:103C1000044800F08BFC00BF1037BD4680BD00BFDC
:103C200000ED00E04802002480B400AF024B1846CB
:103C3000BD465DF8047B70474802002480B586B01D
:103C400000AF134BD3F84031114A43F00803C2F8D8
:103C500040310F4BD3F840313B603B683B1D0022A5
:103C60001A605A609A60DA601A614FF480637B6070
:103C70000123BB600023FB6000233B613B1D194611
:103C8000044802F02FFC044B18461837BD4680BD8F
:103C900000440258000C0258E002002480B400AF37
:103CA000024B1846BD465DF8047B7047380300247C
:103CB00080B483B000AF7860044A7B681A607B6888
:103CC00018460C37BD465DF8047B70477CEA0070EF
:103CD00080B582B000AF78607868FFF7E9FF042113
:103CE000786807F076FB7B6818460837BD4680BDCC
:103CF00080B582B000AF7860054A7B681A607B6847
:103D00001846FFF7D5FF7B6818460837BD4680BDCB
:103D1000D8EA007080B582B000AF78607868FFF7AD
:103D2000E7FF9821786807F054FB7B68184608374E
:103D3000BD4680BD80B483B000AF7860044A7B6824
:103D40001A607B6818460C37BD465DF8047B7047E7
:103D500098EA007080B582B000AF78607868FFF7AD
:103D6000E9FF0421786807F034FB7B6818460837C0
:103D7000BD4680BD80B582B000AF7860054A7B68E3
:103D80001A607B681846FFF7D5FF7B68184608372E
:103D9000BD4680BDB8EA007080B582B000AF7860E3
:103DA0007868FFF7E7FF0C21786807F012FB7B6863
:103DB00018460837BD4680BD80B500AF4FF4E132EC
:103DC0001D491E4800F076FB1D4A1E491B4807F09E
:103DD000FBFA4FF480621C491C4800F0F9FA184ABB
:103DE0001B491A4807F0F0FA80221A491A4800F0D5
:103DF000EFFA134A1649184807F0E6FA4FF4005252
:103E00001149164800F0E4FA0D4A1149134807F029
:103E1000DBFA134800F016FC094A1249104807F073
:103E2000D3FA1149114800F05BFD054A10490F48CB
:103E300007F0CAFA00BF80BD0048004048020024D5
:103E400000000024F13C0070000C0258E002002445
:103E5000753D007000040258EC020024F8020024B2
:103E6000040300248D46007000A0004038030024A5
:103E70002549007080B500AFFFF79EFF80BD80B47C
:103E800000AF00BFBD465DF8047B704780B5AEB0A3
:103E900000AF78607B681B682B4A93424FD107F1D3
:103EA000080390220021184608F080FA4FF40072AF
:103EB0004FF00003C7E902234FF400037B6307F1CF
:103EC0000803184603F096F8204BD3F84C311F4AEC
:103ED00043F48073C2F84C311C4BD3F84831C7F817
:103EE000A030D7F8A030194BD3F84031174A43F02F
:103EF0000803C2F84031154BD3F84031C7F89C3065
:103F0000D7F89C3007F1A40300221A605A609A6027
:103F1000DA601A610323C7F8A4300223C7F8A83077
:103F20000023C7F8AC300323C7F8B0300923C7F823
:103F3000B43007F1A4031946054802F0D3FA00BFD4
:103F4000B837BD4680BD00BF00A000400044025805
:103F5000000C025880B582B000AF78607B681B68A7
:103F6000094A93420BD1094BD3F84C31074A23F449
:103F70008073C2F84C310321054802F013FC00BFE6
:103F80000837BD4680BD00BF00A000400044025875
:103F9000000C02580D48854600F026F80C480D49E3
:103FA0000D4A002302E0D458C4500433C4188C4294
:103FB000F9D30A4A0A4C002301E013600432A242FA
:103FC000FBD308F069FAFDF7C9F8FEE7000001200D
:103FD00000000024700000247CEE007070000024BB
:103FE000940A0224FEE7000080B400AF074B084AA1
:103FF0009A60064BD3F88830044A43F47003C2F841
:10400000883000BFBD465DF8047B704700ED00E0DE
:104010000000007080B489B000AF924B1B6903F0C0
:104020003803182B00F2FB8001A252F823F000BFE6
:10403000954000701F4200701F4200701F420070C8
:104040001F4200701F4200701F4200701F4200702C
:10405000A94000701F4200701F4200701F42007094
:104060001F4200701F4200701F4200701F4200700C
:10407000AF4000701F4200701F4200701F4200706E
:104080001F4200701F4200701F4200701F420070EC
:10409000B5400070734B1B68DB0803F00303724AE2
:1040A00022FA03F3FB61C4E0704BFB61C1E0704B8B
:1040B000FB61BEE06B4B9B6A03F003033B61694B02
:1040C0009B6A1B0903F03F03FB60664BDB6A03F04E
:1040D0000103002B0BD0634B5B6BDB08C3F30C03BA
:1040E00007EE903AF8EE677AC7ED067A02E04FF0F5
:1040F0000003BB61FB68002B00F08E803B69012B45
:1041000024D03B69022B43D1FB6807EE903AF8EECE
:10411000677ADFED586A86EEA77A524B1B6BC3F3C2
:10412000080307EE903AF8EE676A97ED066ADFED4E
:10413000525AC6EE257A76EEA77AF7EE006A77EE47
:10414000A67A67EE277AC7ED057A4FE0FB6807EE9F
:10415000903AF8EE677ADFED496A86EEA77A414B2E
:104160001B6BC3F3080307EE903AF8EE676A97ED0E
:10417000066ADFED415AC6EE257A76EEA77AF7EEAB
:10418000006A77EEA67A67EE277AC7ED057A2DE00A
:10419000344B1B68DB0803F00303334A22FA03F3B2
:1041A000BB60BB6807EE903AF8EE676AFB6807EE03
:1041B000903AF8EE677A86EEA77A2A4B1B6BC3F328
:1041C000080307EE903AF8EE676A97ED066ADFEDAE
:1041D0002A5AC6EE257A76EEA77AF7EE006A77EECF
:1041E000A67A67EE277AC7ED057A00BF1D4B1B6BD9
:1041F0005B0A03F07F0301337B607B6807EE903A34
:10420000B8EE677AD7ED056AC6EE877AFCEEE77AF4
:1042100017EE903AFB610CE00023FB6109E0114BC3
:104220001B68DB0803F003030F4A22FA03F3FB6168
:1042300000BF0C4B9B6903F00F033B603B68072BEF
:1042400007D93B68073BFA6922FA03F30C4A13606B
:1042500002E00B4AFB69136000BF2437BD465DF8DE
:10426000047B7047004402580090D00300093D00D1
:1042700000366E01001BB74B000000460024744A54
:104280000400002480B500AF00F064FF05F064FF77
:104290000346012B14BF01230023DBB2002B01D006
:1042A00006F09EFE00BF80BD80B58AB000AF78608A
:1042B0007B681B687B627B685B683B627B689B6892
:1042C000FB617B68DB68BB617B681B697B617B682A
:1042D0005B693B617B689B69FB607B68DB69BB60FA
:1042E0001C4807F051FE1C4807F04EFEF9681B48B9
:1042F00007F0E2FD39691A4807F0DEFD3A6A796A8B
:10430000184807F0D9FDBA69F969174807F0D4FDD4
:10431000BA687969154807F0CFFD154B9B6A1946B5
:10432000144807F0C9FD124BDB6A1946124807F022
:10433000C3FD0F4B5B6B1946104807F0BDFD0C4BDE
:104340009B6B19460E4807F0B7FD0E4807F01CFEA0
:1043500000BFFDE75CE7007088E70070A4E700702D
:10436000B4E70070C4E70070E4E7007004E8007090
:1043700000ED00E024E800703CE8007054E80070B4
:104380006CE8007084E800701EF0040F0CBFEFF3BF
:104390000880EFF30980FFF787BF00BFFFF7F4FF46
:1043A00000BFFFF7F1FF00BFFFF7EEFF00BF000007
:1043B00080B483B000AF7860044A7B681A607B6881
:1043C00018460C37BD465DF8047B704798EA0070CC
:1043D00080B584B000AFF860B9601346FB80FB681D
:1043E0001846FFF7E5FF074AFB681A60FB68BA68E2
:1043F0005A60FB68FA881A81FB6818461037BD4678
:1044000080BD00BFB8EA007080B582B000AF7860B0
:104410007B6858687B681B890122194602F09EFA66
:1044200000BF0837BD4680BD80B582B000AF786060
:104430007B6858687B681B890022194602F08EFA57
:1044400000BF0837BD4680BD80B582B000AF786040
:104450007B685A687B681B891946104602F096FAF9
:1044600000BF0837BD4680BD80B582B000AF786020
:104470007B685A687B681B891946104602F056FA19
:104480000346012B0CBF01230023DBB2184608377B
:10449000BD4680BD80B483B000AF7860044A7B68BD
:1044A0001A607B6818460C37BD465DF8047B704780
:1044B0007CEA007080B584B000AFF860B9607A60C3
:1044C000FB681846FFF7E6FF174AFB681A60FB68AF
:1044D000043394220021184607F068FFFB68BA688D
:1044E0005A60FB687A689A60FB680022DA60FB68B1
:1044F00000221A61FB6800225A61FB680C229A6153
:10450000FB680022DA61FB6800221A62FB68002265
:104510005A62FB6800229A62FB680022DA62FB683A
:1045200018461037BD4680BDD8EA007080B582B00D
:1045300000AF78607B680433184603F04DFE0346F5
:10454000002B0CBF01230023DBB218460837BD4601
:1045500080BD80B584B000AFF860B9607A60FB6858
:10456000181D7B689AB24FF0FF33B96803F08EFED6
:104570000346002B0CBF01230023DBB21846103783
:10458000BD4680BD80B584B000AFF860B9607A6088
:10459000FB68181D7B689AB24FF0FF33B96803F0CF
:1045A0000EFF0346002B0CBF01230023DBB218468D
:1045B0001037BD4680BD80B584B000AFF860B960EB
:1045C0007A60FB68181D7B680122B96803F0F7FE6A
:1045D0000346002B0CBF01230023DBB21846103723
:1045E000BD4680BD80B483B000AF7860044A7B686C
:1045F0001A607B6818460C37BD465DF8047B70472F
:1046000010EB007080B483B000AF7860044A7B6820
:104610001A607B6818460C37BD465DF8047B70470E
:1046200010EB007080B582B000AF78607868FFF75B
:10463000E9FF0421786806F0CCFE7B68184608374D
:10464000BD4680BD80B582B000AF78607B681846FB
:10465000FFF7C8FF0C4A7B681A607B68043324228A
:104660000021184607F0A2FE7B68002283F828206C
:104670007B681922DA627B6800221A637B6818461D
:104680000837BD4680BD00BFF4EA007080B582B037
:1046900000AF7860074A7B681A60786800F0D9F844
:1046A0007B681846FFF7AEFF7B6818460837BD46A3
:1046B00080BD00BFF4EA007080B582B000AF7860C2
:1046C0007868FFF7E3FF3421786806F082FE7B68A4
:1046D00018460837BD4680BD80B586B000AF78600B
:1046E0007B6893F82830002B01D0012363E0344B22
:1046F000D3F85431324A43F08063C2F85431304B1E
:10470000D3F85431FB60FB687B680433242200211A
:10471000184607F04BFE7B682A4A5A607B680022E5
:104720009A607B680022DA607B6800221A617B68ED
:104730004FF470225A6102F0D1FA38613B69224A83
:10474000934205D93B69214AA2FB03239B0C00E05D
:1047500001237B617B697F2B01D97F237B617B6890
:104760007A699A617B680022DA617B6800221A62AA
:104770007B680433184600F0B1FE0346002B14BFDB
:1047800001230023DBB2002B01D0002313E07B6860
:104790000433184600F046FF0346002B14BF0123E4
:1047A0000023DBB2002B01D0002304E07B68012250
:1047B00083F82820012318461837BD4680BD00BF66
:1047C000004402580068005840420F0083DE1B433B
:1047D00080B584B000AF786039607B6893F828308A
:1047E00083F00103DBB2002B04D03B6819221A606E
:1047F00001232AE000F0C2FCF8607B681B6BFA68BA
:10480000D31AB3F5FA7F03D27B681B6B002B17D149
:104810000023BB607B68043307F108021146184689
:1048200000F084FF0346002B0CBF01230023DBB202
:10483000002B05D0BA687B68DA627B68FA681A6375
:104840007B68DA6A3B681A60012318461037BD4658
:1048500080BD80B582B000AF78607B6893F8283067
:10486000002B08D07B680433184600F028FF7B68D3
:10487000002283F8282000BF0837BD4680BD000015
:1048800080B483B000AF7860044A7B681A607B68AC
:1048900018460C37BD465DF8047B704754EB00703A
:1048A00080B483B000AF7860044A7B681A607B688C
:1048B00018460C37BD465DF8047B704754EB00701A
:1048C00080B582B000AF78607868FFF7E9FF042117
:1048D000786806F07EFD7B6818460837BD4680BDC7
:1048E00080B582B000AF786039607B681846FFF70A
:1048F000C7FF0B4A7B681A607B68002283F8682038
:104900007B68043364220021184607F04FFD7B6862
:104910003A685A607B6818460837BD4680BD00BFBC
:104920002CEB007080B582B000AF78600D4A7B68D8
:104930001A607B6893F86830002B09D07B680433D9
:10494000184601F0B3FA7B680433184601F0D8F931
:104950007B681846FFF7A4FF7B6818460837BD46FA
:1049600080BD00BF2CEB007080B582B000AF7860D6
:104970007868FFF7D7FF6C21786806F02AFD7B681E
:1049800018460837BD4680BD80B485B000AF78605A
:1049900039603B68BB600A23FB60BB68214A9342D5
:1049A0001CD0BB681F4A934227D8BB681E4A93425B
:1049B00017D0BB681C4A93421FD8BB681B4A93425E
:1049C00012D0BB68194A934217D8BB68184A934261
:1049D00010D0BB68174A934209D00EE00523FB6054
:1049E0000EE00623FB600BE00A23FB6008E01423C3
:1049F000FB6005E02823FB6002E00A23FB6000BFA8
:104A00007B68FA689A617B680422DA617B680F220E
:104A10001A627B6804225A6200BF1437BD465DF8F3
:104A2000047B704740420F0000350C0020A10700B6
:104A300048E8010090D0030080B584B002AF7860F0
:104A400039607B680022DA607B6800221A617B682B
:104A500001221A757B6800225A757B6800229A75BC
:104A600039687868FFF790FF7B6801229A627B685B
:104A70000122DA627B6801221A637B6801225A6391
:104A80007B6800229A637B680122DA637B680022DC
:104A90001A647B680433184600F0D8FF0346002BE5
:104AA00014BF01230023DBB2002B01D0002326E03A
:104AB0007B68181D0023009300230022002101F0D1
:104AC0009CF90346002B14BF01230023DBB2002B0B
:104AD00001D0002313E07B680433184601F0BEF9CF
:104AE0000346002B14BF01230023DBB2002B01D0AF
:104AF000002304E07B68012283F868200123184624
:104B00000837BD4680BD80B58EB000AFF860B96093
:104B10007A60FB6893F8683083F00103DBB2002B06
:104B200001D000235BE007F1100324220021184686
:104B300007F03CFCBB681B683B61BB681B79002B22
:104B400002D04FF0804300E000237B61BB685B79BB
:104B5000002B02D04FF0005300E00023BB61BB6884
:104B60009B79082B28BF0823DBB2FB6100233B6243
:104B700000237B620023BB620023FB6200233B63B4
:104B800000F0FCFA78630EE000F0F8FA02467B6B66
:104B9000D31A7A689A4294BF01230023DBB2002B18
:104BA00001D000231BE0FB680433184601F0AAFB88
:104BB0000346002B0CBF01230023DBB2002BE3D103
:104BC000FB68181DBB68DA1D07F11003194601F0D8
:104BD000DDF90346002B0CBF01230023DBB218468E
:104BE0003837BD4680BD80B590B000AFF860B96081
:104BF0007A60FB6893F8683083F00103DBB2002B26
:104C000001D000235FE000F0B9FAF86311E07B689F
:104C1000002B07D000F0B2FA0246FB6BD31A7A6879
:104C20009A4201D8012300E00023002B01D0002389
:104C300049E0FB6804334021184601F045FB034678
:104C4000002B0CBF01230023DBB2002BDFD107F1C7
:104C5000140328220021184607F0A8FBFB68181D42
:104C6000BB68073307F11402402101F0D3F9034672
:104C7000002B14BF01230023DBB2002B01D0002343
:104C800021E07A69BB681A60BB69B3F1804F0CBF41
:104C900001230023DAB2BB681A71FB69B3F1005F2C
:104CA0000CBF01230023DAB2BB685A713B6A082BA0
:104CB00002D83B6ADAB200E00822BB689A713A6B0C
:104CC000BB681A61012318464037BD4680BD80B5D8
:104CD00088B000AF786039607B6893F8683083F003
:104CE0000103DBB2002B01D0002331E007F1080300
:104CF00000221A605A609A60DA601A615A613B6851
:104D00001B7A002B02D04FF0804300E00023BB60F1
:104D10000023FB6002233B613B685B7A012B01D1DE
:104D2000022300E001237B613B681B68BB613B6899
:104D30005B68FB617B68043307F108021146184683
:104D400001F001F80346002B0CBF01230023DBB266
:104D500018462037BD4680BD80B58EB000AF786064
:104D60007B6893F8683083F00103DBB2002B01D03D
:104D700000231EE007F10C032C220021184607F047
:104D800015FB7B68043307F10C021146184601F04D
:104D90004BFA0346002B0CBF01230023DBB2002B90
:104DA00006D03B6A002B14BF01230023DBB200E0D6
:104DB000002318463837BD4680BD80B582B000AFAD
:104DC00078607B6893F86830002B09D07B680433E7
:104DD000184601F06BF87B680433184601F03EF882
:104DE00000BF0837BD4680BD80B500AF0C4B1B68C7
:104DF000002B12D00A4B1B68184600F014FD084B1C
:104E00001B681B68064A1268126803F58053D3F8C2
:104E1000603102F58052C2F8603100BF80BD00BF32
:104E2000A403002480B483B000AF786000BF0C37C7
:104E3000BD465DF8047B704780B483B000AF7860F6
:104E400000BF0C37BD465DF8047B704780B483B06B
:104E500000AF786000BF0C37BD465DF8047B70473B
:104E600080B483B000AF7860044A7B681A607B68C6
:104E700018460C37BD465DF8047B704798EB007010
:104E800080B483B000AF7860044A7B681A607B68A6
:104E900018460C37BD465DF8047B704798EB0070F0
:104EA00080B582B000AF78607868FFF7E9FF042131
:104EB000786806F08EFA7B6818460837BD4680BDD4
:104EC00080B584B000AFF860B9607A607B80FB6821
:104ED0001846FFF7C5FF0B4AFB681A60FB68BA6803
:104EE0005A60FB6800229A60FB687A68DA60FB68A7
:104EF0007A881A82FB68BA695A61FB6818461037CB
:104F0000BD4680BD7CEB007080B582B000AF78609C
:104F10000A4A7B681A607B689B68002B04D07B6818
:104F20009B68184604F032FA7B681846FFF7A8FF22
:104F30007B6818460837BD4680BD00BF7CEB00701B
:104F400080B582B000AF78607868FFF7DDFF182188
:104F5000786806F03EFA7B6818460837BD4680BD83
:104F600080B586B002AF78607B689B68002B01D06B
:104F7000002315E07B68D9687B68188A7B685B69C9
:104F80007A680832019200937B680246064804F072
:104F9000DAF8F860FB68012B0CBF01230023DBB2B9
:104FA00018461037BD4680BDF14F007080B582B005
:104FB00000AF78607B689B68002B04D07B689B689F
:104FC000184604F07BFA00BF0837BD4680BD80B5A7
:104FD00082B000AF78607B689B68002B04D07B6850
:104FE0009B68184604F016FB00BF0837BD4680BD1D
:104FF00080B584B000AF78607B68FB60FB685B685D
:105000001B6808331B68FA685268104698470020EE
:1050100004F0BCF900BF1037BD4680BD2DE9B04F8C
:1050200082B000AF7860796800200C4605462046C3
:1050300029464FF0000A4FF0000B4FEA411B4BEAA4
:10504000D06B4FEA401A50465946021B61EB0503EC
:105050004FF000004FF00001990041EA927190007A
:1050600002460B4612EB040843EB05094FF0000221
:105070004FF000034FEAC90343EA58734FEAC802EE
:1050800090469946404649464FF47A724FF00003E5
:10509000FBF7CAFA02460B461346184604F0EAF933
:1050A00000BF0837BD46BDE8B08F80B582B000AF05
:1050B0000023FB71032000F043F90F2000F00EF8ED
:1050C0000346002B02D00123FB7101E0FEF7D7FE5F
:1050D000FB7918460837BD4680BD000080B584B016
:1050E00000AF78600023FB73174B1B78002B23D095
:1050F000164B1A68144B1B7819464FF47A73B3FB9E
:10510000F1F3B2FBF3F3184600F03FF90346002B2E
:105110000FD17B680F2B09D8002279684FF0FF3040
:1051200000F019F90A4A7B68136007E00123FB735A
:1051300004E00123FB7301E00123FB73FB7B1846B2
:105140001037BD4680BD00BF0C00002404000024C1
:105150000800002480B400AF064B1B781A46064BAB
:105160001B681344044A136000BFBD465DF8047B0E
:10517000704700BF0C000024A803002480B400AFD7
:10518000034B1B681846BD465DF8047B704700BFA3
:10519000A803002480B584B000AF7860FFF7EEFF6D
:1051A000B8607B68FB60FB68B3F1FF3F05D00A4B3A
:1051B0001B781A46FB681344FB6000BFFFF7DEFF55
:1051C0000246BB68D31AFA689A42F7D800BF00BFFC
:1051D0001037BD4680BD00BF0C00002480B485B0F0
:1051E00000AF78607B6803F00703FB600B4BDB6864
:1051F000BB60BA684FF6FF031340BB60FB681A023E
:10520000BB681A43064B1343BB60044ABB68D360B8
:1052100000BF1437BD465DF8047B704700ED00E029
:105220000000FA0580B400AF044BDB681B0A03F0F2
:1052300007031846BD465DF8047B704700ED00E0AB
:1052400080B483B000AF03463960FB80B7F9063005
:10525000002B0ADB3B68DAB20C49B7F906301201C1
:10526000D2B20B4483F800230AE03B68DAB2084963
:10527000FB8803F00F03043B1201D2B20B441A76F1
:1052800000BF0C37BD465DF8047B704700E100E0CD
:1052900000ED00E080B489B000AFF860B9607A60DA
:1052A000FB6803F00703FB61FB69C3F10703042BF1
:1052B00028BF0423BB61FB690433062B02D9FB69B9
:1052C000033B00E000237B614FF0FF32BB6902FA31
:1052D00003F3DA43BB681A407B699A404FF0FF3111
:1052E0007B6901FA03F3D9437B680B4013431846EB
:1052F0002437BD465DF8047B7047000080B582B05E
:1053000000AF78607B68013BB3F1807F01D301235C
:105310000FE00A4A7B68013B53600F214FF0FF30DA
:10532000FFF78EFF054B00229A60044B07221A609C
:10533000002318460837BD4680BD00BF10E000E0DE
:1053400080B582B000AF78607868FFF747FF00BF94
:105350000837BD4680BD80B586B000AF0346B96052
:105360007A60FB81FFF75EFF78617A68B9687869D7
:10537000FFF790FF0246B7F90E3011461846FFF7C7
:105380005FFF00BF1837BD4680BD80B582B000AF5B
:1053900078607868FFF7B2FF034618460837BD46C5
:1053A00080BD000080B483B000AF7860BFF35F8F32
:1053B00000BF0B4A7B6843F001035360094B5B6AF3
:1053C000084A43F480335362BFF34F8F00BFBFF3EB
:1053D0006F8F00BF00BF0C37BD465DF8047B704780
:1053E00090ED00E000ED00E080B400AFBFF35F8F10
:1053F00000BF0A4B5B6A094A23F480335362084BAF
:1054000000225A60BFF34F8F00BFBFF36F8F00BF02
:1054100000BFBD465DF8047B704700BF00ED00E0B3
:1054200090ED00E080B483B000AF7860074A7B68FD
:105430009360064B1B69054A23F00103136100BF0B
:105440000C37BD465DF8047B704700BF90ED00E06F
:1054500080B483B000AF78607B685A781E4B9A6046
:105460001D4B1B691C4A23F0010313611A4B1B6976
:10547000194A23F001031361174A7B685B68D36004
:105480007B681B7B1A077B68DB7A1B061A437B68E9
:105490009B7ADB041A437B685B7B9B041A437B6823
:1054A0009B7B5B041A437B68DB7B1B041A437B6892
:1054B0005B7A1B021A437B681B7A5B0013437A6892
:1054C00012781146044A0B43136100BF0C37BD46E6
:1054D0005DF8047B704700BF90ED00E080B582B0BE
:1054E00000AF78607B68002B01D1012389E07B68E5
:1054F00093F82130DBB2002B02D1786800F088F8F5
:105500007B68022283F821207B681B681B69002BC3
:1055100001D1012375E07B681B689B68002B01D1DA
:1055200001236EE07B685B68002B08D17B681B68F9
:105530001A687B681B6822F400121A600EE07B6810
:105540009B68B3F5801F01D001235AE07B681B687C
:105550001A687B681B6842F400121A607B689B68BB
:10556000B3F5801F08D17B681B681A687B681B68CD
:1055700042F480121A6007E07B681B681A687B6837
:105580001B6822F480121A607B681B681B6823F07A
:10559000FE417B685B691A067B681B680A431A60D8
:1055A0007B681B681B6823F470217B681A697B6821
:1055B0001B680A431A607B681B681B6823F47061D0
:1055C0007B68DA687B681B680A431A607B681B6823
:1055D0005B6999B27B689B691A047B681B680A4304
:1055E0005A617B681B685A69084B13407A68D16915
:1055F0007A6812680B4353617B68012283F821208B
:10560000002318460837BD4680BD00BF0000FFFFDD
:1056100080B483B000AF786000BF0C37BD465DF842
:10562000047B704780B584B000AF78607B68002B46
:1056300001D101233FE07B6893F82130DBB2012BDD
:1056400038D17B68022283F821207B681B681A68A6
:105650007B681B6842F001021A60FFF78FFDF8605B
:1056600008E0FFF78BFD0246FB68D31A012B01D936
:10567000032320E07B681B681B6A03F40043B3F537
:10568000004FEED17B681B681B6803F47063002B2E
:105690000AD17B681B681A687B681B6842F010029D
:1056A0001A600520FFF776FD7B68012283F8212030
:1056B000002300E0022318461037BD4680BD80B4A9
:1056C00083B000AF78607B68002B01D1012327E015
:1056D0007B6893F82130DBB2012B20D17B6802225A
:1056E00083F821207B681B681B6803F47063002B20
:1056F00007D17B681B681A687B681B6822F0100260
:105700001A607B681B681A687B681B6822F00102BC
:105710001A607B68012283F82120002300E0022325
:1057200018460C37BD465DF8047B704780B588B0DD
:1057300000AF786039607B6893F82130DBB2012BD1
:105740006CD17B68022283F821207B681B68DB69AF
:105750009BB27B617B681B69002B02D07B69002BAD
:1057600005D17B68012283F82120012357E07B6863
:105770009B68B3F5801F08D17B69DA037B681B69DE
:105780001B0CB2FBF3F3FB610BE001F0A7FA02463E
:105790007B681B691B0C03FB02F27B69B2FBF3F312
:1057A000FB617B681B689B681B0CBB61BB69002BA2
:1057B00002D11E23BB610BE0BB69012B02D1822306
:1057C000BB6105E07B68012283F82120012326E0EC
:1057D0007B681B689B689BB2642202FB03F33B61FE
:1057E0007B681B681B699BB2FB60FB68002B05D1C3
:1057F0007B68012283F82120012310E0FA693B69CC
:10580000D21AFB6892FBF3F2BB691A443B681A6038
:105810007B68012283F82120002300E00223184640
:105820002037BD4680BD80B586B000AF78607B680C
:105830001B68D3F8B0307B617B681B6803F580532D
:10584000D3F860313B617B681B6803F58053D3F864
:105850003431FB604FF0B043D3F89830BB603B6904
:1058600003F04003002B10D0FB6803F04003002B33
:105870000BD07B681B6803F580531A4648F240033F
:10588000C2F860317868FFF7D7FA3B6903F001038B
:10589000002B10D0FB6803F00103002B0BD07B68BA
:1058A0001B6803F580531A4648F20103C2F86031C1
:1058B0007868FFF7B7FA3B6903F48043002B47D0C1
:1058C000FB6803F48043002B42D07B68D3F8883018
:1058D00043F008027B68C3F888203B6903F48053D7
:1058E000002B1ED07B681B6803F58053D3F8602122
:1058F00041F2021313407A68C2F88C307B681B684F
:1059000003F58053D3F834317A68126823F44043A6
:1059100002F58052C2F834317B68E022C3F884205B
:1059200013E07B681B6803F58053D3F8603103F400
:10593000CD427B68C3F88C207B681B6803F58053DD
:105940001A464FF4CD43C2F860317868FFF77EFA0B
:105950007B6903F48043002B04D17B6903F400537B
:10596000002B19D07B68D3F8883043F010027B6895
:10597000C3F888207B681B68D3F8B8207B68C3F81D
:1059800090207B68E022C3F884207868FFF75EFAF5
:105990007B680022C3F890207B6903F01003002B82
:1059A0000FD07B681B68D3F8C03003F060027B68BF
:1059B000C3F89420786800F02BF87B680022C3F8C5
:1059C00094207B6903F02003002B0FD07B681B68B9
:1059D000D3F8D03003F00F027B68C3F898207868C2
:1059E00000F020F87B680022C3F89820BB6803F41D
:1059F0008043002B08D04FF0B0434FF48042C3F8EF
:105A00009820786800F018F800BF1837BD4680BDB0
:105A100080B483B000AF786000BF0C37BD465DF83E
:105A2000047B704780B483B000AF786000BF0C3750
:105A3000BD465DF8047B704780B483B000AF7860EA
:105A400000BF0C37BD465DF8047B704780B584B05D
:105A500000AF78607B68002B01D1012347E17B68B0
:105A600093F85C30DBB2002B06D17B68002283F810
:105A70005D207868FEF70AFA7B681B689A697B6884
:105A80001B6822F010029A61FFF778FBF86012E0C1
:105A9000FFF774FB0246FB68D31A0A2B0BD97B680D
:105AA0001B6E43F001027B681A667B68032283F851
:105AB0005C2001231BE17B681B689B6903F00803E2
:105AC000082BE5D07B681B689A697B681B6842F0ED
:105AD00001029A61FFF752FBF86012E0FFF74EFBFC
