:020000040800F2
:100000000000012079350008C93500086139000871
:10001000753900087B3900088139000800000000AC
:10002000000000000000000000000000C9350008CA
:10003000C935000800000000C935000875380008FF
:10004000C935000800000000C9350008C93500089E
:10005000C9350008C9350008000000000000000094
:10006000C9350008C9350008C9350008000000007E
:1000700000000000C935000800000000000000007A
:10008000C9350008C9350008C9350008C935000858
:10009000C9350008C9350008C9350008C935000848
:1000A000C9350008C9350008C9350008C935000838
:1000B000C9350008C9350008C9350008C935000828
:1000C000C9350008C9350008C9350008C935000818
:1000D000C9350008C9350008C9350008C935000808
:1000E000C9350008C9350008C9350008C9350008F8
:1000F000C9350008C9350008C9350008C9350008E8
:10010000C9350008C9350008C9350008C9350008D7
:10011000C9350008C9350008C9350008C9350008C7
:10012000C9350008C9350008C9350008C9350008B7
:10013000C9350008C9350008C9350008C9350008A7
:10014000C9350008C9350008C9350008C935000897
:10015000C9350008C9350008C9350008C935000887
:10016000C9350008C9350008C9350008C935000877
:10017000C9350008C9350008C9350008C935000867
:10018000C9350008C9350008C9350008C935000857
:10019000C9350008C9350008C9350008C935000847
:1001A000C9350008C9350008C9350008C935000837
:1001B000C9350008C9350008C9350008C935000827
:1001C0000000000000000000C9350008C935000823
:1001D000C9350008C9350008C9350008C935000807
:1001E000C9350008C9350008C9350008C9350008F7
:1001F000C9350008C93500080000000000000000F3
:10020000C9350008C9350008C9350008C9350008D6
:10021000C9350008C9350008C9350008C9350008C6
:10022000C9350008C9350008C9350008C9350008B6
:10023000C9350008C9350008C9350008C9350008A6
:10024000C9350008C9350008C9350008C935000896
:10025000C9350008C9350008C9350008C935000886
:10026000C9350008C9350008C9350008C935000876
:10027000C9350008C9350008C9350008C935000866
:10028000C9350008C9350008C9350008C935000856
:10029000C935000800000000000000000000000058
:1002A000C9350008C9350008C9350008C935000836
:1002B00053B94AB9002908BF00281CBF4FF0FF31CD
:1002C0004FF0FF3000F00CB8ADF1080C6DE904CE32
:1002D00009F0A0FFDDF804E0DDE9022304B0704777
:1002E000704700BF00000000000000000000000098
:1002F00001F0FF01102A2BDB10F0070F08D010F8D7
:10030000013B013A8B422DD010F0070F42B3F6D1DA
:10031000F0B441EA012141EA014122F007047FF0F3
:1003200000070023F0E80256083C85EA010586EA4A
:10033000010685FA47F5A3FA87F586FA47F6A5FA86
:1003400087F68EB9EED1F0BC01F0FF0102F0070292
:1003500032B110F8013B013A83EA010313B1F8D13D
:100360000020704701387047002D06BF354603381E
:10037000073815F0010F07D1013015F4807F02BF57
:10038000013015F4C03F0130F0BC0138704700BFA8
:100390000348044B834202D0034B03B11847704714
:1003A000C4010024C4010024000000000548064BDD
:1003B0001B1AD90F01EBA301491002D0034B03B163
:1003C00018477047C4010024C40100240000000045
:1003D00010B5064C237843B9FFF7DAFF044B13B18D
:1003E0000448AFF300800123237010BDC401002432
:1003F0000000000008B6000808B5054B1BB1054910
:100400000548AFF30080BDE80840FFF7CFBF00BF4D
:1004100000000000C801002408B6000880B582B0C2
:1004200000AF7860074A7B681360074B1B689868C9
:100430000023022200210AF049FA00BF0837BD4616
:1004400080BD00BFE00100247401002480B584B0A9
:1004500000AFF860B9607A60094B1B68002B09D0C7
:10046000074B1B681B6808331B68054A10687A68CD
:10047000B96898477B6818461037BD4680BD00BFF5
:10048000E001002480B584B000AF3B1D00221A605B
:100490005A609A60204B214A1A601F4B04225A600E
:1004A0001D4B00229A601C4B4FF08072DA601A4B91
:1004B0001F221A61184B02225A61174B00229A61BF
:1004C000154B0022DA61144B00221A62124B0322F0
:1004D0005A62114B00229A620F4B00221A630E4B94
:1004E00000225A630C4B00229A630B4B0022DA6302
:1004F000094808F02DFF10237B600123BB60012316
:10050000FB603B1D41F288321946034809F01AFB93
:1005100000BF1037BD4680BDE401002400A000529A
:1005200090B591B000AF07F14003403B1F335B092A
:100530005C0102F01BFE02F0A9FE03461846FFF71D
:100540006DFF5D480AF0BAF9FFF79CFF5B480AF0BF
:10055000B5F900F0C7F8F863FB6B002B05D100215B
:10056000002000F029F90346FB63F96B54480AF0B8
:100570003DF9FB6B002B04D052480AF09FF900BFF5
:10058000FDE74FF0E04150480AF030F94F480AF0DB
:1005900095F94FF0E0431B68BB634D4B1B687B63D1
:1005A0007B6B3B63B96B4B480AF020F9796B4A4887
:1005B0000AF01CF9494B00221A60484B00225A608D
:1005C000464B00229A60BB6BFB62FB6A83F3088890
:1005D00000BF434B4FF0E0429A60BFF34F8F00BF24
:1005E000BFF36F8F00BF3E4B5B693D4A23F400337E
:1005F00053613B4B0022C3F85022BFF34F8F00BF23
:10060000BFF36F8F00BF00BF354B0022C3F88420BB
:10061000BFF34F8F00BF324B5B69314A23F4803305
:100620005361BFF34F8F00BF2D4B2246C3F870229A
:10063000BFF34F8F00BFBFF36F8F00BF284BD3F8BE
:100640008030236023685B0BC3F30E036360236871
:10065000DB08C3F30903A36063685A0143F6E07340
:100660001340A26892071E491343C1F87432A3686D
:100670005A1EA260002B14BF01230023DBB2002B03
:10068000EAD163685A1E6260002B14BF0123002365
:10069000DBB2002BDBD1BFF34F8F00BFBFF36F8FF7
:1006A00000BF00BFBFF34F8F00BFBFF36F8F00BF0E
:1006B0003B6B984700BFFDE720B6000840B6000836
:1006C00054B6000870B6000898B60008BCB600081A
:1006D00004000070D8B60008F4B6000810E000E08E
:1006E00000ED00E080B582B000AF012007F056FEBB
:1006F0004FF4AC7200210D480AF074FA0B4B002243
:100700001A700A4B0A4A5A60084B03221A720420D4
:1007100006F004FB03461946002000F00BF80346E0
:100720007B607B6818460837BD4680BD0400002406
:10073000E401002480B584B000AF78603960FB2309
:10074000FB737B68012B2FD80023FB73194A7B684E
:10075000AC2101FB03F313441B78002B20D1154A75
:100760007B68AC2101FB03F3134404331868114A7E
:100770007B68AC2101FB03F31344083319787B68D1
:10078000AC2202FB03F308330A4A134404333A68E9
:1007900001F04EFD0346002B05D0FD23FB7302E064
:1007A000FE23FB7300E000BF97F90F3018461037A7
:1007B000BD4680BD0400002480B584B000AF7860E1
:1007C0000B46FB70FB23FB737B68012B33D80023A4
:1007D000FB731C4A7B68AC2101FB03F313441B78B9
:1007E000002B24D1FB78002B10D17B68AC2202FBBC
:1007F00003F30833134A13440433184601F0CCFDC5
:100800000346002B16D06FF0020316E07B68AC2283
:1008100002FB03F308330B4A13440433184601F078
:10082000DCFD0346002B05D06FF0020305E0FE233C
:10083000FB7300E000BF97F90F3018461037BD4634
:1008400080BD00BF0400002480B584B000AF786094
:1008500039600023BB733B6800221A607B6803F198
:10086000080008233A68002101F092FF0346002B9C
:1008700002D00323FB731FE03B681B6819467868AE
:1008800001F0ACFC0346002B02D0052B05D00AE09A
:100890000023FB730223BB730AE00423FB73BB7BBF
:1008A0000133BB7304E00423FB730223BB7300BF5B
:1008B000BB7B012BCFD900BFFB7B18461037BD4651
:1008C00080BD000090B589B000AF78603960042326
:1008D000FB772A4B07F10C040FCB84E80F000023B1
:1008E000BB7740E0BB7F5B0020333B4413F8142C04
:1008F0007B6883F864207B6803F108007B686433BD
:100900001A46002101F0F2FDBB7F5B0020333B441F
:1009100013F8132C7B6883F8592000237B7717E0AA
:100920007B687A7F83F8582039687868FFF78CFFF6
:100930000346002B01D10023FB77BB7F5B002033F4
:100940003B4413F8143C032B09D97B7F01337B779D
:100950007B7F012B04D8FB7F042BE1D000E000BF9C
:10096000BB7F0133BB77BB7F072B02D8FB7F042BF8
:10097000B8D0FB7F18462437BD4690BD1CB7000891
:1009800080B588B000AF78600023FB770823BB6197
:100990007B680022C3F89420782200215F480AF087
:1009A00021F90023FB7527E0FA7D13465B00134411
:1009B0009B005A4A13441A46B969786801F04EF808
:1009C0000346FB77FB7F002B40F0A2807B68D3F8C7
:1009D0009410FA7D514813465B0013449B00034476
:1009E0001B6841EA03027B68C3F89420BB690833A3
:1009F000BB61FB7D0133FB75FA7D7B6893F89C300E
:100A000001339A42D0D30023BB7575E000233B61CC
:100A1000BA7D424913465B0013449B000B440833E4
:100A20001B78FB60BA7D3D4913465B0013449B0075
:100A30000B441B68B3F5805F29D0B3F5805F29D8DC
:100A4000B3F5007F1DD0B3F5007F23D8802B1BD0DA
:100A5000802B1FD8082B02D0402B0FD01AE0BA7D74
:100A60002E4913465B0013449B000B4408331B784C
:100A70001A462B4B1A602B4B3B610CE02A4B3B6117
:100A800009E02A4B3B6106E0294B3B6103E0294B1F
:100A90003B6100E000BF3B69002B16D07B6803F18F
:100AA0000800BA7D1D4913465B0013449B000B44AC
:100AB00004331968FB689B003A6901F069FE03463C
:100AC000002B02D00C23FB7722E0BA7D134913469A
:100AD0005B0013449B000B441B68082B09D1104B8F
:100AE00093F84130C3F30503DBB21A467B68C3F8C1
:100AF0009820BB7D0133BB75BA7D084913465B0066
:100B000013449B000B441B68002B7FF47FAF00BF96
:100B1000FB7F18462037BD4680BD00BF440200243D
:100B2000BC020024C00200241C0300243C03002457
:100B300024030024AC03002480B586B000AF7860A5
:100B40000723BB7508233B610023FB730023BB73A2
:100B50002EE0644A3969786800F080FF0346BB756F
:100B6000BB7D002B18D15F4B1B68082B14D17B6811
:100B700003F108005B4B59685A4B1B7A9B005A4A99
:100B800001F006FE0346002B02D00C23BB7503E0E8
:100B90000023BB750123FB73BB7D002B0FD1FB7BB7
:100BA000012B0CD03B6908333B61BB7B0133BB732A
:100BB000BA7B7B6893F89C3001339A42C9D3BB7DE2
:100BC000002B02D1FB7B002B02D10C23BB7583E0F1
:100BD000464B93F8413003F03F03DBB2002B02D1C8
:100BE0000023FB7553E0414B93F84130C3F30503F9
:100BF000DBB203F00103DBB2002B02D00123FB7553
:100C000045E03A4B93F84130C3F30503DBB203F000
:100C10000203DBB2002B02D00223FB7537E0334B1B
:100C200093F84130C3F30503DBB203F00403DBB2F6
:100C3000002B02D00323FB7529E02C4B93F84130A5
:100C4000C3F30503DBB203F00803DBB2002B02D0D1
:100C50000423FB751BE0254B93F84130C3F30503D8
:100C6000DBB203F01003DBB2002B02D00523FB75CF
:100C70000DE01E4B93F84130C3F30503DBB21F2B8D
:100C800002D90F23BB7527E00C23BB7524E0FB7D45
:100C9000052B09D0052B1BDC002B1CD0002B17DBF0
:100CA000013B032B14D810E07B6803F108000023FC
:100CB0000022662101F095FE7B6803F10800002305
:100CC0000022992101F08DFE06E00F23BB7503E0A1
:100CD0000123BB7500E000BFBB7D18461837BD4639
:100CE00080BD00BF44020024C0020024BC020024D6
:100CF000F0B58FB004AF78603960002387F82730F3
:100D0000002387F826307B68D3F8943003F008037B
:100D1000002B04D1072387F8273000F026BEBA4BFA
:100D20009B68002B13DBB84B9B680133BB61BB692D
:100D3000002B01D1202303E0BB69B3FA83F3DBB2BC
:100D4000C3F11F03DAB27B6883F85E2005E0AE4B87
:100D50009B68DAB27B6883F85E207B6893F85E302C
:100D6000033BDAB27B6883F85E207B6893F85E30E1
:100D7000013BDBB2FB747B68083307F113020421EB
:100D8000184601F0B3FBA04B93F82C30C3F30313C8
:100D9000DBB21A46012303FA02F27B681A667B680B
:100DA000022283F87520984B93F820207B6883F803
:100DB0007720954B93F821207B6883F87820924B1D
:100DC00093F822207B6883F879208F4B93F82320B7
:100DD0007B6883F87A208C4B93F824207B6883F817
:100DE0007B20894B93F825207B6883F87C20864BF9
:100DF00093F826207B6883F87D20834B93F8272087
:100E00007B6883F87E207B6893F87730002B1DD0B9
:100E10007D4B93F82830C3F30303DBB21A467A4BB9
:100E20001B8DC3F30413DBB2013302FB03F3764AD9
:100E300092F82920C2F34102D2B21146734A32F825
:100E4000112003FB02F27B68C3F880207B6893F8D3
:100E50007930002B1ED06C4B93F82830C3F303037A
:100E6000DBB21A46684B93F82930C3F3C403DBB2F4
:100E7000013302FB03F3644A92F82A20C2F3010211
:100E8000D2B21146614A32F8112003FB02F27B68AC
:100E9000C3F884207B6893F87B30002B1DD05A4B1D
:100EA00093F82830C3F30303DBB21A46564B93F88A
:100EB0002A30C3F38403DBB2013302FB03F3524A4B
:100EC000528DC2F3C112D2B21146504A32F81120EB
:100ED00003FB02F27B68C3F888207B6893F87D30BF
:100EE000002B1ED0484B93F82830C3F30303DBB22A
:100EF0001A46454B93F82B30C3F34403DBB201335E
:100F000002FB03F3404A92F82B20C2F38112D2B2C3
:100F100011463E4A32F8112003FB02F27B68C3F807
:100F20008C20394B93F82830C3F30303DBB21A4605
:100F3000354B93F82F30C3F30403DBB2013302FBCC
:100F400003F3314A92F82F20C2F34112D2B2114674
:100F50002F4A52F8212003FB02F27B68C3F890204D
:100F60007B68052283F871207B68052283F86C205A
:100F7000254B1B7903F01003DBB2002B04D17B68F7
:100F8000502283F8702003E07B68062283F87020EB
:100F90001D4B93F84030C3F30603DBB203F00103AB
:100FA000002B04D07B68062283F8702046E0164BA5
:100FB00093F84030C3F30603DBB203F00203002BC7
:100FC00004D07B68062283F8702037E00E4B93F83C
:100FD0004030C3F30603DBB203F00403002B04D05C
:100FE0007B68502283F8702028E0074B93F840304C
:100FF000C3F30603DBB203F00803002B0AD07B68BF
:10100000062283F8702019E0BC020024D4B800083E
:10101000DCB80008664B93F84030C3F30603DBB23C
:1010200003F01003002B04D07B68062283F87020A5
:1010300004E00A2387F8273000F097BC7B68D3F8D8
:10104000943003F40073002B78D05A4BDB7C23F0F0
:101050007F03DBB2002B34D0564B5A7C7B6883F87D
:101060006C20544BDB7CC3F30203DBB21A467B6873
:1010700083F86D204F4BDB7CC3F38013DBB21A4641
:101080007B6883F86E204B4BDB7CC3F30203DBB23F
:101090001A467B6883F86D20464BDB7C03F0100317
:1010A000DBB2002B09D0434BDB7CC3F3C003DBB2C4
:1010B0001A467B6883F86F2003E07B68FF2283F881
:1010C0006F203C4BDB7D23F07F03DBB2002B73D022
:1010D000384B5A7D7B6883F87120364BDB7DC3F338
:1010E0000203DBB21A467B6883F87220314BDB7D4A
:1010F000C3F38013DBB21A467B6883F873202D4B51
:10110000DB7DC3F30203DBB21A467B6883F87220EF
:10111000284BDB7C03F01003DBB2002B09D0254BFE
:10112000DB7DC3F3C003DBB21A467B6883F874200F
:1011300042E07B68FF2283F874203DE07B68012257
:1011400083F872207B68002283F87320184B93F891
:101150003830C3F38503DBB203F00103002B0CD05E
:101160007B68052283F86C207B68002283F86D2061
:101170007B68002283F86E201EE00D4B93F8383018
:10118000C3F38503DBB203F00203002B0CD07B68B2
:10119000702283F86C207B68072283F86D207B68BF
:1011A000002283F86E2007E0092387F82730DCE36C
:1011B000BC0200243C0300247B68032283F87620D1
:1011C00000237B617B68083307F114020121184674
:1011D00001F08CF97B68D3F8943003F00803002BFE
:1011E00000F0B0807B6893F85C30022B00F2AA809C
:1011F0007B68002283F864207B6893F85C30002BC6
:101200004CD0B64B5B7C002B15D0B44B1B7CC3F38E
:101210000403DBB21A46B14B1B7CC3F34213DBB2AF
:1012200013447B61AD4B5A7C7B6883F876207B68E6
:10123000012283F86420A94BDB7C002B15D0A74B3F
:101240009B7CC3F30403DBB21A46A44B9B7CC3F321
:101250004213DBB213447B61A04BDA7C7B6883F8DA
:1012600076207B68022283F864209C4B1B7D03F070
:101270000103DBB2002B11D0984B9B7EC3F3040318
:10128000DBB21A46954B9B7EC3F34213DBB2134489
:101290007B61924BDA7E7B6883F876207B6893F8DB
:1012A0005C30012B2FD98D4B1B7D03F01003DBB27B
:1012B000002B20D0894B9B7FC3F30403DBB21A467B
:1012C000864B9B7FC3F34213DBB213447B61834B9A
:1012D000DA7F7B6883F876207B68042283F86420B9
:1012E000786800F03BFF034687F8273097F82730EF
:1012F000002B40F037837B68083307F1140201218B
:10130000184601F0F3F87B6803F108007B6864334A
:101310001A46002101F0EAF80346002B03D00C2303
:1013200087F8273021E37B68083307F11402012195
:10133000184601F0DBF80346002B03D00C2387F896
:10134000273012E37B68D3F8943003F48053002BEA
:1013500000F087807B6893F85C30032B40F081803D
:101360007B6893F86430092B03D1012387F826307A
:1013700044E0786800F06EFC0346002B3ED1012368
:1013800087F826307B6893F85D30C82B04D17B68E2
:10139000082283F8642003E07B68092283F8642034
:1013A0007B6803F108007B6864331A46002101F072
:1013B0009DF80346002B03D00C2387F82730D4E296
:1013C0007B6893F89D30FD2B09D114237B617B68EA
:1013D000083307F114020121184601F087F87B68F1
:1013E00093F89D30FE2B09D108237B617B6808337D
:1013F00007F114020121184601F078F87B68D3F850
:10140000943003F00803002B19D0344B1B68102BC9
:1014100015D9324B93F84B30C3F34113DBB2012B98
:1014200003D90F2387F827309FE22C4B93F84B30DA
:10143000C3F34113DBB21A467B6883F858207B68FC
:10144000D3F8943003F08003002B0AD0244BDB78D0
:1014500003F04003DBB2002B03D07B68142283F837
:1014600059206421786800F095FA0346002B03D0D8
:101470000C2387F8273078E27B68D3F8943003F0A8
:101480004003002B00F0828197F82630002B40F0BB
:101490000181124B93F8433003F00103002B21D05C
:1014A0007B6803F1080000230022B72101F099FABC
:1014B0000346002B03D00C2387F8273055E27B68C6
:1014C000083300220221184601F010F80346002BD1
:1014D00072D00C2387F8273047E200BFBC020024FB
:1014E00024030024814B93F8433003F00203002BC4
:1014F00050D07B6803F108007B6893F870100023DC
:10150000002201F06EFA0346002B03D00C2387F86B
:1015100027302AE27B6803F108007B6893F871109A
:101520007B6893F874301E467B6893F87330002B09
:1015300001D1012300E000237A6892F872209340E1
:10154000DCB27B6893F872301A4601239340DBB219
:101550007A6892F85D204FF47A75029501920093B3
:101560002346324601F04AFB0346002B03D00C23EE
:1015700087F82730F9E17B6803F108000023002297
:10158000B72101F02EFA0346002B15D00C2387F863
:101590002730EAE1554B93F8433003F04003002B2A
:1015A0000AD1524B93F8433003F02003002B03D1B0
:1015B0000F2387F82730D8E17B6808330022022107
:1015C000184600F093FF0346002B03D00C2387F846
:1015D0002730CAE17B6893F86430002B2AD1444B52
:1015E0001B7803F00103DBB2002B03D07B681322CE
:1015F00083F876203E4B1B7803F04003DBB2002BD0
:1016000003D07B68122283F87520394B1B7803F0D6
:101610000203DBB2002B0DD07B680C2283F876200E
:1016200008237B617B68083307F114020121184607
:1016300000F05CFF7B6893F86430012B0AD12C4BDF
:101640001B7803F00403DBB2002B03D07B683C2241
:1016500083F876207B6893F86430022B0AD1244B00
:101660001B7803F00803DBB2002B03D07B68BC229D
:1016700083F876207B6893F86430032B0AD11C4BE7
:101680005B7803F02003DBB2002B03D07B680E22D3
:1016900083F876207B6893F85C30032B32D17B682B
:1016A00093F86430002B2DD1114B9B7803F020036D
:1016B000DBB2002B26D00E4BDB7803F00103DBB24C
:1016C000002B1FD07B68072283F864207B6803F11E
:1016D00008007B6864331A46002100F007FF0346C8
:1016E000002B07D00C2387F827303EE1BC020024F2
:1016F0001C0300247B68CC2283F876207B688E2232
:1017000083F875207B6893F86430082B2AD19A4BB4
:10171000DB7803F00103DBB2002B03D07B680222ED
:1017200083F87520944B9B7803F02003DBB2002BE9
:101730000DD07B68CC2283F8762008237B617B6800
:10174000083307F114020121184600F0CFFE8A4B3E
:101750009B7803F04003DBB2002B03D07B68FD22B3
:1017600083F87620844B1A797B6883F87820824B43
:101770005A797B6883F87A207F4B9A797B6883F863
:101780007C207D4BDA797B6883F87E207B68D3F8F8
:10179000943003F08003002B00F0E6807B6893F820
:1017A0006430092B05D07B6893F86430082B40F037
:1017B000DB800023FB60714B5B78002B04D06F4B08
:1017C0005A787B6883F876206C4B1B7D03F01F03EF
:1017D000DBB2002B0DD0694B1B7DC3F30403DBB2DE
:1017E0007B617B68083307F114020121184600F081
:1017F0007DFE634B93F85330C3F30313DBB21846FB
:1018000000F006F9F8617B689B6EFA699A4202D98A
:101810007B689B6EFB617B681B68002B07D07B6835
:101820001B68FA699A4202D97B681B68FB617B6876
:1018300003F108007B68996E07F10C03FA6900F068
:10184000E2FD0346002B03D00D2387F827308CE000
:101850003B6801221A70FB684A4A934213D9474BEE
:101860009B8903F478639BB2002B0CD0434B9B897C
:10187000C3F3C413DBB27B61404B1B7BC3F3840314
:10188000DBB23B623BE0FB683F4A934213D93B4BE0
:10189000DB7C23F00703DBB2002B0CD0374BDB7C67
:1018A000C3F3C403DBB27B61344B5B8AC3F38413A1
:1018B000DBB23B6223E0FB68344A934213D92F4BDF
:1018C0009B7C03F03E03DBB2002B0CD02B4B9B7CAC
:1018D000C3F34403DBB27B61284B1B69C3F30433BE
:1018E000DBB23B620BE0254B1B8AC3F3C413DBB2B4
:1018F0007B61224B1B7CC3F38403DBB23B627B68BE
:1019000093F85D30C82B0AD110237B617B680833C4
:1019100007F114020121184600F0E8FD25E07B687C
:10192000D3F8943003F40073002B17D0184B93F8BE
:10193000233023F07F03DBB2002B0FD0396A7868A5
:1019400000F06CFA0346002B0FD17B68083307F1D7
:1019500014020121184600F0C9FD06E00E2387F8A5
:10196000273002E000BF00E000BF97F8273018469C
:101970002C37BD46F0BD00BF1C0300242403002407
:10198000BC020024FFC1EB0B7FF5E4093F6BED07C0
:101990003C030024F0B589B004AF78603960FB23C4
:1019A000FB737B6893F86C30002B2BD07B6803F1C2
:1019B00008007B6893F86C407B6893F86F301E4694
:1019C0007B6893F86E301A467B6893F86D3002FAA4
:1019D00003F3DDB27B6893F86D301A460123934020
:1019E000DBB27A6892F85D20396802910192009327
:1019F0002B463246214601F001F90346002B01D166
:101A00000023FB7397F90F3018461437BD46F0BD1D
:101A1000B0B48BB000AF78600E4B07F10C041D46DC
:101A20000FCD0FC495E8070003C422807B68092B03
:101A30000AD87B685B0028333B4433F81C3C1A46C9
:101A4000054B02FB03F300E0002318462C37BD468C
:101A5000B0BC70472CB7000840420F0080B588B07A
:101A600000AFF860B9607A600023FB7707F11403D8
:101A700000221A605A60FB6803F1080007F11402A3
:101A80000823B96800F084FE0346002B02D003232C
:101A9000FB77D9E07B6800221A60FA7D7B681A72B6
:101AA000BB7E1A047B7E1B0213433A7E1A437B687B
:101AB0005A60FB7E002B10D0FB7E5BB2002B0CDB50
:101AC0003B7D03F00103002B03D07B6801221A60E9
:101AD000BAE07B6802221A60B6E0FB7E5BB2002BA4
:101AE00080F2AE803B7D03F00103002B02D17B68C6
:101AF00004221A60FB7EFF2B40F0A6803B7D0F2B5B
:101B00004CDC002B24DA9EE0813B0D2B00F29B8005
:101B100001A252F823F000BFBD1B0008471C0008BB
:101B2000471C0008CD1B0008471C0008471C000884
:101B3000E71B0008F11B0008471C0008471C0008B1
:101B40000F1C0008471C0008231C00082D1C00085F
:101B50000F2B78D801A252F823F000BFA71B000872
:101B6000471C0008471C0008C51B0008471C00084C
:101B7000D51B0008DD1B0008471C0008471C000897
:101B8000FB1B0008051C0008471C0008191C000866
:101B9000471C0008471C0008371C00088E2B52DC2D
:101BA000812BB1DA4FE07B6808221A60FB7D172B8E
:101BB00028BF1723DAB27B681A7245E07B681022CF
:101BC0001A6041E07B6820221A603DE07B68402279
:101BD0001A6039E07B6880221A6035E07B684FF438
:101BE00080721A6030E07B684FF400721A602BE05C
:101BF0007B684FF480621A6026E07B684FF40062D5
:101C00001A6021E07B684FF480521A601CE07B6808
:101C10004FF400521A6017E07B684FF480421A605C
:101C200012E07B684FF400421A600DE07B684FF4CD
:101C300080321A6008E07B684FF400321A6003E0DB
:101C40000323FB7700E000BFFB7F18462037BD462B
:101C500080BD00BF90B585B000AF78600023FB73F6
:101C60006D4BDB78002B28D06B4B9B783B726A4B1B
:101C70005B787B72684B1B78BB72674BDB79FB72BE
:101C8000654B9B793B73644B5B797B73624B1B7930
:101C9000BB737B6803F10800397A5F4BDB78013B4B
:101CA0009CB207F108035A1C234600F09AFE034633
:101CB000002B02D00B23FB73A9E0574BDB7A002BE0
:101CC00032D064217868FFF765FE0346002B02D00E
:101CD0000C23FB739BE0504B9B7A3B724E4B5B7A21
:101CE0007B724D4B1B7ABB724B4BDB7BFB724A4BBF
:101CF0009B7B3B73484B5B7B7B73474B1B7BBB7373
:101D00007B6803F10800397A434BDB7A013B9CB2D4
:101D100007F108035A1C234600F063FE0346002B1C
:101D200002D00B23FB7372E03B4BDB7C002B32D0E9
:101D300064217868FFF72EFE0346002B02D00C23A7
:101D4000FB7364E0344B9B7C3B72334B5B7C7B725C
:101D5000314B1B7CBB72304BDB7DFB722E4B9B7D72
:101D60003B732D4B5B7D7B732B4B1B7DBB737B6868
:101D700003F10800397A284BDB7C013B9CB207F168
:101D800008035A1C234600F02CFE0346002B02D009
:101D90000B23FB733BE0204BDB7E002B32D0642116
:101DA0007868FFF7F7FD0346002B02D00C23FB7386
:101DB0002DE0194B9B7E3B72174B5B7E7B72164B63
:101DC0001B7EBB72144BDB7FFB72134B9B7F3B7301
:101DD000114B5B7F7B73104B1B7FBB737B6803F1E5
:101DE0000800397A0C4BDB7E013B9CB207F10803FB
:101DF0005A1C234600F0F5FD0346002B02D00B23AE
:101E0000FB7304E07B680833184601F030F8FB7B75
:101E100018461437BD4690BDAC030024F0B58BB016
:101E200004AF786039606D4BFB600023FB750023C5
:101E30003B816B4B93F8233003F01003DBB2002B94
:101E40000AD1674B93F8233023F07F03DBB2002BDA
:101E500002D00C23FB75BBE0614B93F8233003F0F9
:101E60000803DBB2002B05D05D4B93F822301B0238
:101E70003B610BE07B6893F85D30C82B02D10123F6
:101E80003B6103E0564B93F822303B617B6803F1E2
:101E90000800534B93F821107B6893F85D3007F1ED
:101EA000080201930223009313463A6900F041FEB1
:101EB0000346002B02D00C23FB7589E07B6803F1FD
:101EC00008007B6893F870100023002200F089FD61
:101ED0000346002B02D00C23FB7579E07B6803F1ED
:101EE00008007B6893F871107B6893F874301E4685
:101EF0007B6893F87330002B01D1012300E00023AD
:101F00007A6892F872209340DCB27B6893F8723062
:101F10001A4601239340DBB27A6892F85D204FF4B1
:101F20007A750295019200932346324600F066FED0
:101F30000346002B02D00C23FB7549E03B7A5AB2D2
:101F4000274B93F82330C3F34113DBB218333B44E0
:101F500013F80C3C1946224B93F82330C3F30203C9
:101F6000DBB201FA03F35BB2DB435BB213405BB25B
:101F7000DBB23B723A7A1A4B93F82330C3F3020375
:101F8000DBB219463B688B40DBB21343DBB23B72DA
:101F90003B7A7B727B6803F10800114B93F82010A9
:101FA00007F10803022200923A6900F0D1FC0346CF
:101FB000002B02D00C23FB750AE064217868FFF740
:101FC000E9FC0346002B02D00C23FB7500E000BFA8
:101FD000FB7D18461C37BD46F0BD00BF03070F1F31
:101FE0003C03002480B584B000AF78600F23FB73FE
:101FF000594B93F83E30C3F30213DBB2072B00F2C8
:10200000A48001A252F823F04B2100084B210008C4
:10201000292000084B210008A92000084B210008B6
:102020004B2100084B2100087B6803F108007B6806
:1020300093F870100023002200F027FD0346002BC8
:1020400002D00C23FB7381E07B6803F1080007F1E9
:102050000C020123052100F018FD0346002B02D0DD
:102060000C23FB7372E03B7B43F04003DBB23B731A
:102070007B6803F1080007F10C020123012100F045
:10208000B0FC0346002B02D00C23FB735EE06421FE
:102090007868FFF77FFC0346002B02D00C23FB730C
:1020A00054E00023FB7351E07B6803F1080007F163
:1020B0000C020223052100F0E8FC0346002B02D0AD
:1020C0000C23FB7342E07B7B43F00203DBB27B73A8
:1020D0007B6803F108007B6893F8701000230022EE
:1020E00000F0D3FC0346002B02D00C23FB732DE041
:1020F0007B6803F1080007F10C020223012100F0C4
:1021000070FC0346002B02D00C23FB731EE06421FD
:102110007868FFF73FFC0346002B02D00C23FB73CB
:1021200014E0FF237B737B6803F1080007F10C02C6
:102130000223052100F0A9FC0346002B02D00C234A
:10214000FB7303E00023FB7300E000BFFB7B18463A
:102150001037BD4680BD00BFBC02002480B584B0EE
:1021600000AF78600F23FB730023BB731A4B9B8F68
:10217000C3F30413DBB203F00103002B07D078682C
:10218000FFF730FF0346FB733823BB730FE0124B9E
:102190009B8FC3F30413DBB203F00403002B06D0C0
:1021A0007868FFF71FFF0346FB733523BB73FB7B88
:1021B000002B0CD1BB7B002B09D07B6803F10800FE
:1021C000B97B0023002200F060FC0023FB73FB7B43
:1021D00018461037BD4680BDBC02002480B584B0CF
:1021E00000AF786039600423FB733B680E4A93426A
:1021F00006D03B680D4A93420ED10023FB730EE0DC
:102200007B6808330021184600F0F9FD0346002BD7
:1022100004D10523FB7301E000BF00E000BFFB7B9E
:1022200018461037BD4680BD46535044534644506F
:1022300080B58AB000AFF8607A603B600B46FB72F5
:10224000002387F827300023FB763B680833982269
:102250000021184608F0C6FC3B68FA7A83F85C2037
:102260003B68002283F864203B687A689A663B6882
:10227000082283F859203B680833F968184600F0B3
:1022800001F93B6803F1080007F11003414A79683E
:1022900000F0B9F83B680833184600F09FFD07F1DD
:1022A0001C0319463868FEF70DFB0346002B03D0CC
:1022B000FF2387F8273067E03868FEF73DFC0A20E7
:1022C00001F0DAFC07F11C0319463868FEF7FAFA48
:1022D0000346002B03D0FF2387F8273054E097F8FC
:1022E0002230092B04D93B68092283F89C2004E0A2
:1022F00097F822203B6883F89C2097F823203B68BE
:1023000083F89D203B68083307F114010422184626
:1023100000F09EFA3A7D3B6883F85D203868FEF74E
:102320002FFB0346002B03D0FF2387F827302BE039
:1023300007F11B0319463868FEF7DAFC0346002B49
:1023400003D0FD2387F827301EE0FB7E002B0DD144
:102350003B681B68002B09D03B6803F108003B6811
:102360001A6807F11003796800F04DF807F11C03B3
:1023700019463868FEF768FA0346002B03D0F223AB
:1023800087F8273000E000BF97F927301846283734
:10239000BD4680BD80F0FA0290B587B002AF78608C
:1023A0000023FB737B6803F108007B6893F87610C9
:1023B0007B681B6DDAB27B6893F87530002400945B
:1023C00000F095FC0346002B01D0F323FB7397F933
:1023D0000F3018461437BD4690BD80B584B000AFAD
:1023E00078600023FB737B680833184600F0F6FC26
:1023F0000346002B01D0F323FB7397F90F301846E7
:102400001037BD4680BD80B487B000AFF860B960BA
:102410007A603B600023FB757B68002B02D10123AF
:10242000FB7528E0BA687B68B2FBF3F33B613B695C
:10243000002B0DD0BA683B69B2FBF3F23B681A601F
:102440003B681B687A689A4202D33B69013B3B6157
:102450003B690133BA68B2FBF3F23B681A60FB6870
:102460001B681B68DB6823F0FF01FB681B681B68A7
:102470003A690A43DA60FB7D18461C37BD465DF8B1
:10248000047B704780B596B000AF7860396007F183
:102490000C034C220021184608F0A4FB5A237B6150
:1024A0000123BB614FF48073BB624FF40053FB62A6
:1024B0004FF080737B6408233B657B683A681A6041
:1024C0007B68043307F10C014C22184608F00FFC1E
:1024D0007B68002283F850207B68002283F852201A
:1024E000002318465837BD4680BD000080B598B01F
:1024F00000AFF8600B467A60FB72002387F85F300C
:10250000FB6807F1100004334C22194608F0EFFB7A
:10251000FB7A042B00F22A8101A252F823F000BFBB
:10252000352500085D2700082F2700086D270008C3
:10253000372700087B681A78FB6883F85220FB680D
:1025400093F852300B2B00F2ED8001A252F823F0E9
:1025500081250008812500088125000881250008C3
:10256000B1250008B1250008E1250008152600085E
:10257000452600087B260008B1260008EB26000847
:102580000123FB6100233B6200237B624FF48073D5
:10259000FB624FF400533B6300237B634FF0807377
:1025A000BB6400233B6508237B650023BB65BDE05E
:1025B0000323FB6100233B6200237B624FF44073E3
:1025C000FB6200237B634FF400533B634FF0407387
:1025D000BB6400233B6506237B650023BB65A5E048
:1025E0000323FB6100233B6208237B624FF44073AB
:1025F000FB624FF400533B634FF400637B634FF087
:102600004073BB644FF000633B6506237B6500238A
:10261000BB658BE00123FB6100233B6200237B62EF
:102620004FF48063FB624FF440533B6300237B63B2
:102630004FF08063BB6400233B6508237B65002368
:10264000BB6573E00423FB6100233B6200237B62D4
:102650004FF48063FB624FF440533B634FF40063DD
:102660007B634FF08063BB644FF000633B650823DE
:102670007B654FF00053BB6558E00423FB611023DA
:102680003B6208237B624FF48063FB624FF440534C
:102690003B634FF400637B634FF08063BB644FF098
:1026A00000633B6514237B654FF00053BB653DE041
:1026B0000423FB6100233B6200237B624FF48063B1
:1026C000FB624FF440533B634FF400637B63002392
:1026D000FB634FF08063BB644FF000633B650A23EC
:1026E0007B654FF00053BB6520E00423FB610023B2
:1026F0003B6200237B624FF48063FB624FF44053E4
:102700003B634FF400637B630023FB634FF0A063E4
:10271000BB644FF000633B650A237B654FF00053B9
:10272000BB6503E0012387F85F3000BF22E04FF470
:1027300040533B631EE07B681B7887F85E30FB6884
:102740001B681B689B6823F4F81197F85E301A0425
:10275000FB681B681B680A439A600BE07B681B7868
:1027600087F85D3097F85D307B6503E0012387F8DB
:102770005F3000BFFB68043307F110014C2218469C
:1027800008F0B5FA97F85F3018466037BD4680BD4F
:1027900080B598B000AFF860B9607A603B60FB68C4
:1027A00007F1100004334C22194608F0A0FAFB6828
:1027B00093F85030396A5A22184600F066FB0346F7
:1027C000BB61BB68BB623B68FB64FB6893F851303C
:1027D0007B65FB6AB3F5807F03D0FB6AB3F5407F6E
:1027E00002D14FF400533B633B6DB3F1006F03D153
:1027F0004FF00053BB6501E00023BB65FB681B681D
:1028000007F110016422184606F088FE034687F897
:102810005F3097F85F30002B0AD1FB681B68642299
:102820007968184606F07DFF034687F85F3000E0C0
:1028300000BF97F85F30002B04D0FB681B68184678
:1028400007F0EAF897F85F3018466037BD4680BD5C
:1028500080B598B000AFF860B9607A60FB6807F1A6
:10286000100004334C22194608F041FAFB6893F833
:102870005030396A9F22184600F007FB0346BB61BF
:102880007B68FB64FB69012B07D10023FB620023FB
:102890007B654FF08073BB6430E0FB69032B07D18D
:1028A0000023FB6200237B654FF04073BB6425E08F
:1028B000FB69042B1ED10023BB62BB681B78C22BB3
:1028C00008D13B6DB3F1006F04D104237B65002375
:1028D0003B6513E0BB681B78C82B08D13B6DB3F197
:1028E000006F04D108237B650023FB6206E0082308
:1028F0007B6503E00023BB6208237B65FB681B68E4
:1029000007F110016422184606F008FE034687F816
:102910005F3097F85F30002B0AD1FB681B68642298
:10292000B968184606F0FDFE034687F85F3000E000
:1029300000BF97F85F30002B04D0FB681B68184677
:1029400007F06AF897F85F3018466037BD4680BDDB
:1029500080B598B000AFF8607A603B600B46FB72C0
:10296000FB6807F1100004334C22194608F0BFF948
:10297000FB6893F85030396AFA7A184600F085FA05
:102980000346BB617B68BB62BB6EFB6400237B6557
:102990000023BB65FB681B6807F110016422184621
:1029A00006F0BCFD034687F85F3097F85F30002BD8
:1029B00007D13968F86800F091FA034687F85F306C
:1029C00000E000BF97F85F30002B04D0FB681B6865
:1029D000184607F021F897F85F3018466037BD4673
:1029E00080BD80B598B000AFF8607A601A460B469B
:1029F000FB7213463B81FB6807F1100004334C2245
:102A0000194608F074F9FB6893F85030396AFA7A7D
:102A1000184600F03AFA0346BB610023FB6200232C
:102A20007B653B89FB640023BB653B89002B01D19F
:102A30000023BB64FB681B6807F110016422184681
:102A400006F06CFD034687F85F3097F85F30002B87
:102A50000CD13B89002B09D0FB681B686422796884
:102A6000184606F0EBFD034687F85F3097F85F30B5
:102A7000002B04D0FB681B68184606F0CDFF97F8C2
:102A80005F3018466037BD4680BD80B598B000AF56
:102A9000F8607A601A460B46FB7213463B81FB686E
:102AA00007F1100004334C22194608F020F9FB68A6
:102AB00093F85030396AFA7A184600F0E6F903467E
:102AC000BB610023FB6200237B653B89FB64002321
:102AD000BB653B89002B01D10023BB64FB681B68ED
:102AE00007F110016422184606F018FD034687F826
:102AF0005F3097F85F30002B0CD13B89002B09D059
:102B0000FB681B6864227968184606F00AFE0346D3
:102B100087F85F3097F85F30002B04D0FB681B68A4
:102B2000184606F079FF97F85F3018466037BD46C3
:102B300080BD80B598B000AFF8607A603B600B460E
:102B4000FB72FB6807F1100004334C22194608F0B1
:102B5000CEF8FB6893F85030396AFA7A184600F0DC
:102B600094F90346BB617B68BB62FB6893F8513004
:102B70007B65B7F86830FB6497F86C30C22B06D1E0
:102B80003B6DB3F1006F02D100233B650EE097F877
:102B90006C30C82B08D13B6DB3F1006F04D100231A
:102BA0003B650023BB6501E00023BB65FB681B6838
:102BB00007F110016422184606F0B0FC034687F8BE
:102BC0005F3097F85F30002B09D1FB681B686422E7
:102BD0003968184606F0A5FD034687F85F3097F878
:102BE0005F30002B04D0FB681B68184606F014FF0A
:102BF00097F85F3018466037BD4680BD80B59EB0FF
:102C000000AFF8607A601A460B46FB721346BB723F
:102C1000FB6807F1280004334C22194608F067F8D6
:102C2000BB7A7B6197F88030BB610023FB614FF476
:102C300080033B6210237B62FB6893F85030B96BD2
:102C4000FA7A184600F021F903463B6301237B66BC
:102C500000233B677B6B012B06D14FF080733B66F3
:102C600000237B640023FB663B6EB3F1806F14D1BD
:102C700097F88430C22B08D1BB6EB3F1006F04D13A
:102C80004FF000533B670023BB664FF480637B64C7
:102C90004FF44053BB647B683B64FB681B6807F1DF
:102CA00028016422184606F039FC034687F877307D
:102CB00097F87730002B0BD1FB681B6807F11401E4
:102CC000D7F88820184606F0CFFD034687F87730FE
:102CD00097F87730002B04D0FB681B68184606F085
:102CE0009BFE97F8773018467837BD4680BD80B593
:102CF00098B000AF7860084611461A460346FB704C
:102D00000B46BB7013467B707B6807F110000433E1
:102D10004C22194607F0EBFF07F1080300221A6066
:102D20005A6001233B617B6893F85030396AFA7826
:102D3000184600F0AAF80346BB61BB787B657B6848
:102D40001B6807F110016422184606F0E7FB0346F2
:102D500087F85F3097F85F30002B2DD102233B615D
:102D60007B6893F85030396A7A78184600F08DF80D
:102D70000346BB6197F868307B657B681B6807F189
:102D800010016422184606F0C9FB034687F85F303D
:102D900097F85F30002B11D10023BB605023FB60FC
:102DA0007B681B6807F108021146184606F0E6FD2D
:102DB000034687F85F3002E000BF00E000BF97F8ED
:102DC0005F30002B04D07B681B68184606F024FE99
:102DD00097F85F3018466037BD4680BD80B582B039
:102DE00000AF7860BFF34F8F00BF7B681B68184649
:102DF00006F012FE034618460837BD4680BD80B473
:102E000085B000AF78600B46FB700023FB737B68D6
:102E10001B681B689B6803F0E063BB60FB78002BBA
:102E20001ED1BB68002B03D14FF08073BB6008E05C
:102E3000BB68B3F1807F02D10023BB6001E00123B6
:102E4000FB737B681B681B689B6823F0E0617B68F1
:102E50001B681B68BA680A439A6000BFFB7B00E0EE
:102E6000012318461437BD465DF8047B704780B5D2
:102E700082B000AF78607B681B68184606F0CCFD16
:102E8000034618460837BD4680BD80B485B000AF04
:102E900003463960FB711346BB713B68102B14D19C
:102EA000BB799BB21B02FB81FB79012B07D1BB795C
:102EB000DB43DBB21A46FB891343FB8107E0BB7996
:102EC0009AB2FB891343FB8101E0BB79FB81FB894B
:102ED00018461437BD465DF8047B704780B584B052
:102EE00000AF786039607B681B68642239681846D7
:102EF00006F0A4FB0346FB73FB7B18461037BD4668
:102F000080BD80B5B0B000AF07F124039C22002142
:102F1000184607F067FE3B1D20220021184607F0E7
:102F200061FE012001F056FB0346002B14BF012374
:102F30000023DBB2002B01D000F096FC02237B6261
:102F400001233B6300237B634023BB630223BB64F9
:102F50000023FB6420233B654FF496737B650123BC
:102F6000BB650223FB6502233B6602237B660223CB
:102F7000BB660023FB6602233B6700237B670423B9
:102F8000BB671923FB670223C7F880300223C7F809
:102F900084300223C7F888300223C7F88C3002231C
:102FA000C7F890300023C7F894300023C7F8983052
:102FB00007F12403184601F045FB0346002B14BF1C
:102FC00001230023DBB2002B01D000F04DFC3F2396
:102FD0007B600323BB600023FB6008233B61042369
:102FE0007B614023BB614FF48063FB614FF48043FE
:102FF0003B623B1D3721184601F05EFE0346002B65
:1030000014BF01230023DBB2002B01D000F02CFC05
:1030100000BFC037BD4680BD80B586B000AF3B1D48
:1030200000221A605A609A60DA6000F0E1FF002323
:10303000FB7506E0FB7D184600F0F8FFFB7D0133D1
:10304000FB75FB7D0F2BF5D901233B7100237B71B1
:103050000023BB601F233B7387237B730023BB7359
:103060000023FB7301233B7400237B740023BB7498
:103070000023FB743B1D184600F0EEFF01237B711B
:103080004FF0E043BB601A233B7300237B730123A3
:10309000BB730323FB7300233B7400237B74012366
:1030A000BB740123FB743B1D184600F0D5FF0223BF
:1030B0007B714FF04053BB600E233B7300237B7347
:1030C0000023BB730323FB7301233B7400237B7436
:1030D0000023BB740023FB743B1D184600F0BCFFAB
:1030E000042000F063FF00BF1837BD4680BD00001C
:1030F00080B588B000AF1B4BD3F84831194A43F470
:103100008023C2F84831174BD3F84831BB60BB6805
:10311000144BD3F84031134A43F00803C2F840314E
:10312000104BD3F840317B607B6807F10C03002221
:103130001A605A609A60DA601A614FF44073FB605B
:1031400002233B6100237B610023BB610723FB61FA
:1031500007F10C031946044801F040F800BF20377E
:10316000BD4680BD00440258000C025880B584B0B2
:1031700000AFFFF751FF434B5B6903F40033002BB3
:1031800014BF01230023DBB2002B1BD1BFF34F8FF1
:1031900000BFBFF36F8F00BF3A4B0022C3F850222D
:1031A000BFF34F8F00BFBFF36F8F00BF354B5B691D
:1031B000344A43F400335361BFF34F8F00BFBFF372
:1031C0006F8F00E000BF2F4B5B6903F48033002B4F
:1031D00014BF01230023DBB2002B42D1294B002274
:1031E000C3F88420BFF34F8F00BF264BD3F8803045
:1031F000FB60FB685B0BC3F30E03BB60FB68DB0883
:10320000C3F309037B60BB685A0143F6E0731340C4
:103210007A6892071B491343C1F860327B685A1ED3
:103220007A60002B14BF01230023DBB2002BEAD10C
:10323000BB685A1EBA60002B14BF01230023DBB207
:10324000002BDBD1BFF34F8F00BF0E4B5B690D4AE4
:1032500043F480335361BFF34F8F00BFBFF36F8FD1
:1032600000E000BF00F093FCFFF74BFE00F0C4F954
:10327000FFF73EFF044800F045FC00BF1037BD4695
:1032800080BD00BF00ED00E0CC03002480B400AF9F
:10329000024B1846BD465DF8047B7047CC03002402
:1032A00080B483B000AF7860044A7B681A607B68A2
:1032B00018460C37BD465DF8047B7047F4B800082B
:1032C00080B582B000AF78607868FFF7E9FF04212D
:1032D000786806F09AFF7B6818460837BD4680BDBF
:1032E00080B582B000AF7860054A7B681A607B6861
:1032F0001846FFF7D5FF7B6818460837BD4680BDE6
:103300004CB9000880B582B000AF78607868FFF7EC
:10331000E7FF9821786806F078FF7B681846083741
:10332000BD4680BD80B483B000AF7860044A7B683E
:103330001A607B6818460C37BD465DF8047B704701
:103340000CB9000880B582B000AF78607868FFF7EC
:10335000E9FF0421786806F058FF7B6818460837B3
:10336000BD4680BD80B582B000AF7860054A7B68FD
:103370001A607B681846FFF7D5FF7B681846083748
:10338000BD4680BD2CB9000880B582B000AF786022
:103390007868FFF7E7FF0C21786806F036FF7B6856
:1033A00018460837BD4680BD80B500AF4FF4E13206
:1033B0000A490B4800F06AFB0A4A0B49084806F024
:1033C0001FFF4FF480620949094800F0EDFA054AF1
:1033D0000849074806F014FF00BF80BD00480040C0
:1033E000CC03002400000024E1320008000C025845
:1033F000640400246533000880B500AFFFF7D4FFF4
:1034000080BD000080B5A8B000AF3B1D9C2200210C
:10341000184607F0E7FB022001F08AF80346002B6C
:1034200001D000F021FA1A4BD3F85431184A43F076
:103430000203C2F85431164BD3F854313B603B6859
:1034400001F0F0F810237B6080237B623B1D18465F
:1034500001F0F8F80346002B01D000F005FA002334
:1034600000220021102000F055FC102000F028FC64
:1034700000BF4FF4806000F037FC0346012BF8D109
:103480004FF4802000F09AFC00BFA037BD4680BDFD
:103490000044025880B5B0B000AF786007F1AC03CB
:1034A00000221A605A609A60DA601A6107F1180304
:1034B00090220021184607F095FB7B681B682B4A79
:1034C00093424ED14FF004024FF00003C7E90623A8
:1034D0004023BB6207F11803184602F02DFB034698
:1034E000002B01D000F0C0F9214BD3F83431204A31
:1034F00043F48043C2F834311D4BD3F834317B613F
:103500007B691B4BD3F83431194A43F48053C2F81A
:103510003431174BD3F834313B613B69144BD3F84A
:103520004031134A43F40053C2F84031104BD3F8F2
:103530004031FB60FB6840F67F73C7F8AC30022374
:10354000C7F8B0300023C7F8B4300323C7F8B83049
:103550000923C7F8BC3007F1AC031946054800F051
:103560003DFE00BFC037BD4680BD00BF00A0005279
:1035700000440258003402580D48854600F026F8F1
:103580000C480D490D4A002302E0D458C4500433BE
:10359000C4188C42F9D30A4A0A4C002301E0136094
:1035A0000432A242FBD307F07BFBFCF7B9FFFEE736
:1035B0000000012000000024C4010024BCB9000860
:1035C000C4010024C4050024FEE7000080B400AF5D
:1035D000074B084A9A60064BD3F88830044A43F4F4
:1035E0007003C2F8883000BFBD465DF8047B7047A9
:1035F00000ED00E00000000880B489B000AF924BFD
:103600001B6903F03803182B00F2FB8001A252F86B
:1036100023F000BF7936000803380008033800089B
:10362000033800080338000803380008033800088E
:10363000033800088D3600080338000803380008F6
:10364000033800080338000803380008033800086E
:1036500003380008933600080338000803380008D0
:10366000033800080338000803380008033800084E
:103670000338000899360008734B1B68DB0803F019
:103680000303724A22FA03F3FB61C4E0704BFB614F
:10369000C1E0704BFB61BEE06B4B9B6A03F0030320
:1036A0003B61694B9B6A1B0903F03F03FB60664B60
:1036B000DB6A03F00103002B0BD0634B5B6BDB0871
:1036C000C3F30C0307EE903AF8EE677AC7ED067A7B
:1036D00002E04FF00003BB61FB68002B00F08E801E
:1036E0003B69012B24D03B69022B43D1FB6807EED9
:1036F000903AF8EE677ADFED586A86EEA77A524B79
:103700001B6BC3F3080307EE903AF8EE676A97ED78
:10371000066ADFED525AC6EE257A76EEA77AF7EE04
:10372000006A77EEA67A67EE277AC7ED057A4FE052
:10373000FB6807EE903AF8EE677ADFED496A86EEAD
:10374000A77A414B1B6BC3F3080307EE903AF8EEE0
:10375000676A97ED066ADFED415AC6EE257A76EE86
:10376000A77AF7EE006A77EEA67A67EE277AC7EDBA
:10377000057A2DE0344B1B68DB0803F00303334A62
:1037800022FA03F3BB60BB6807EE903AF8EE676A73
:10379000FB6807EE903AF8EE677A86EEA77A2A4B36
:1037A0001B6BC3F3080307EE903AF8EE676A97EDD8
:1037B000066ADFED2A5AC6EE257A76EEA77AF7EE8C
:1037C000006A77EEA67A67EE277AC7ED057A00BF22
:1037D0001D4B1B6B5B0A03F07F0301337B607B682F
:1037E00007EE903AB8EE677AD7ED056AC6EE877AAB
:1037F000FCEEE77A17EE903AFB610CE00023FB61E8
:1038000009E0114B1B68DB0803F003030F4A22FA9F
:1038100003F3FB6100BF0C4B9B6903F00F033B609C
:103820003B68072B07D93B68073BFA6922FA03F389
:103830000C4A136002E00B4AFB69136000BF243797
:10384000BD465DF8047B7047004402580090D003E9
:1038500000093D0000366E01001BB74B000000461A
:103860000024744A5C01002480B400AF72B600BF2B
:1038700000BFFDE780B500AF00F0DEF900BF80BDFE
:1038800080B58AB000AF78607B681B687B627B681C
:103890005B683B627B689B68FB617B68DB68BB6144
:1038A0007B681B697B617B685B693B617B689B69AB
:1038B000FB607B68DB69BB601C4806F0FFFF1C48AF
:1038C00006F0FCFFF9681B4806F090FF39691A48BA
:1038D00006F08CFF3A6A796A184806F087FFBA69E1
:1038E000F969174806F082FFBA687969154806F049
:1038F0007DFF154B9B6A1946144806F077FF124B63
:10390000DB6A1946124806F071FF0F4B5B6B1946D4
:10391000104806F06BFF0C4B9B6B19460E4806F0E7
:1039200065FF0E4806F0CAFF00BFFDE748B7000874
:1039300074B7000890B70008A0B70008B0B7000837
:10394000D0B70008F0B7000800ED00E010B800089C
:1039500028B8000840B8000858B8000870B8000837
:103960001EF0040F0CBFEFF30880EFF30980FFF7A0
:1039700087BF00BFFFF7F4FF00BFFFF7F1FF00BFF5
:10398000FFF7EEFF00BF000080B483B000AF7860A7
:10399000044A7B681A607B6818460C37BD465DF8A0
:1039A000047B70470CB9000880B584B000AFF860A4
:1039B000B9601346FB80FB681846FFF7E5FF074A2E
:1039C000FB681A60FB68BA685A60FB68FA881A815B
:1039D000FB6818461037BD4680BD00BF2CB90008F3
:1039E00080B582B000AF78607B6858687B681B89BF
:1039F0000122194600F06AFD00BF0837BD4680BDB0
:103A000080B582B000AF78607B6858687B681B899E
:103A10000022194600F05AFD00BF0837BD4680BDA0
:103A200080B582B000AF78607B685A687B681B897C
:103A30001946104600F062FD00BF0837BD4680BD44
:103A400080B582B000AF78607B685A687B681B895C
:103A50001946104600F022FD0346012B0CBF01233E
:103A60000023DBB218460837BD4680BD80B483B062
:103A700000AF7860044A7B681A607B6818460C3790
:103A8000BD465DF8047B7047F4B8000880B584B08B
:103A900000AFF860B9607A60FB681846FFF7E6FF90
:103AA000174AFB681A60FB68043394220021184609
:103AB00007F098F8FB68BA685A60FB687A689A6001
:103AC000FB680022DA60FB6800221A61FB680022B2
:103AD0005A61FB680C229A61FB680022DA61FB687C
:103AE00000221A62FB6800225A62FB6800229A6276
:103AF000FB680022DA62FB6818461037BD4680BDBD
:103B00004CB9000880B582B000AF78607B680433A0
:103B1000184604F0A3FC0346002B0CBF012300232E
:103B2000DBB218460837BD4680BD80B584B000AF13
:103B3000F860B9607A60FB68181D7B689AB24FF034
:103B4000FF33B96804F0E4FC0346002B0CBF0123EB
:103B50000023DBB218461037BD4680BD80B584B067
:103B600000AFF860B9607A60FB68181D7B689AB294
:103B70004FF0FF33B96804F064FD0346002B0CBF1F
:103B800001230023DBB218461037BD4680BD80B547
:103B900082B000AF0023FB71032000F0D5F90F20A5
:103BA00000F00EF80346002B02D00123FB7101E068
:103BB000FFF728FCFB7918460837BD4680BD00009A
:103BC00080B584B000AF78600023FB73174B1B787F
:103BD000002B23D0164B1A68144B1B7819464FF450
:103BE0007A73B3FBF1F3B2FBF3F3184600F0D1F9AB
:103BF0000346002B0FD17B680F2B09D80022796870
:103C00004FF0FF3000F0ABF90A4A7B68136007E021
:103C10000123FB7304E00123FB7301E00123FB7329
:103C2000FB7B18461037BD4680BD00BF64010024F1
:103C30005C0100246001002480B400AF064B1B78B7
:103C40001A46064B1B681344044A136000BFBD4666
:103C50005DF8047B704700BF6401002470040024F9
:103C600080B400AF034B1B681846BD465DF8047B6B
:103C7000704700BF7004002480B584B000AF786046
:103C8000FFF7EEFFB8607B68FB60FB68B3F1FF3FB6
:103C900005D00A4B1B781A46FB681344FB6000BF33
:103CA000FFF7DEFF0246BB68D31AFA689A42F7D8DC
:103CB00000BF00BF1037BD4680BD00BF64010024B7
:103CC00080B483B000AF7860064BD3F8102105496B
:103CD0007B681343C1F8103100BF0C37BD465DF857
:103CE000047B70470004005880B483B000AF786054
:103CF000074BD3F810217B681340002B14BF01231E
:103D00000023DBB218460C37BD465DF8047B7047D4
:103D10000004005880B489B000AFF860B9607A60E0
:103D20003B60BB68012B21D1FB68012B06D0FB68EF
:103D3000042B01D1082302E0102300E00023FB61E3
:103D40001D4BD3F81821FF21FB6901FA03F3DB4374
:103D50001A407968FB699940FB690433386800FAB6
:103D600003F30B4314491343C1F81831124BD3F832
:103D70001021FB685B00DB431A40FB687B617B69B9
:103D800093FAA3F33B613B69BB61BB69002B01D193
:103D9000202303E0BB69B3FA83F3DBB20133B968D4
:103DA00001FA03F304491343C1F8103100BF24376B
:103DB000BD465DF8047B70470004005880B483B0B2
:103DC00000AF7860064BD3F8102105497B68134398
:103DD000C1F8103100BF0C37BD465DF8047B704759
:103DE0000004005880B485B000AF78607B6803F0B1
:103DF0000703FB600B4BDB68BB60BA684FF6FF0341
:103E00001340BB60FB681A02BB681A43064B13439E
:103E1000BB60044ABB68D36000BF1437BD465DF881
:103E2000047B704700ED00E00000FA0580B400AFAD
:103E3000044BDB681B0A03F007031846BD465DF818
:103E4000047B704700ED00E080B483B000AF034610
:103E50003960FB80B7F90630002B0ADB3B68DAB229
:103E60000C49B7F906301201D2B20B4483F8002393
:103E70000AE03B68DAB20849FB8803F00F03043B11
:103E80001201D2B20B441A7600BF0C37BD465DF862
:103E9000047B704700E100E000ED00E080B489B0F1
:103EA00000AFF860B9607A60FB6803F00703FB615C
:103EB000FB69C3F10703042B28BF0423BB61FB6923
:103EC0000433062B02D9FB69033B00E000237B612E
:103ED0004FF0FF32BB6902FA03F3DA43BB681A40C2
:103EE0007B699A404FF0FF317B6901FA03F3D943B4
:103EF0007B680B40134318462437BD465DF8047BAE
:103F00007047000080B582B000AF78607B68013BED
:103F1000B3F1807F01D301230FE00A4A7B68013BA4
:103F200053600F214FF0FF30FFF78EFF054B00224B
:103F30009A60044B07221A60002318460837BD46D2
:103F400080BD00BF10E000E080B582B000AF7860B7
:103F50007868FFF747FF00BF0837BD4680BD80B5D2
:103F600086B000AF0346B9607A60FB81FFF75EFF61
:103F700078617A68B9687869FFF790FF0246B7F907
:103F80000E3011461846FFF75FFF00BF1837BD46D9
:103F900080BD80B582B000AF78607868FFF7B2FF6F
:103FA000034618460837BD4680BD000080B483B084
:103FB00000AF7860BFF35F8F00BF0B4A7B6843F0B0
:103FC00001035360094B5B6A084A43F48033536230
:103FD000BFF34F8F00BFBFF36F8F00BF00BF0C3721
:103FE000BD465DF8047B704790ED00E000ED00E019
:103FF00080B400AFBFF35F8F00BF0A4B5B6A094A12
:1040000023F480335362084B00225A60BFF34F8F72
:1040100000BFBFF36F8F00BF00BFBD465DF8047BDC
:10402000704700BF00ED00E090ED00E080B483B089
:1040300000AF7860074A7B689360064B1B69054AAE
:1040400023F00103136100BF0C37BD465DF8047B0C
:10405000704700BF90ED00E080B483B000AF78609F
:104060007B685A781E4B9A601D4B1B691C4A23F0D3
:10407000010313611A4B1B69194A23F001031361F1
:10408000174A7B685B68D3607B681B7B1A077B6879
:10409000DB7A1B061A437B689B7ADB041A437B6836
:1040A0005B7B9B041A437B689B7B5B041A437B68A6
:1040B000DB7B1B041A437B685B7A1B021A437B6819
:1040C0001B7A5B0013437A6812781146044A0B434B
:1040D000136100BF0C37BD465DF8047B704700BF1D
:1040E00090ED00E080B584B000AF7860FFF7B8FDD8
:1040F000F8607B68002B01D101236BE07B6893F8AB
:104100005430DBB2022B08D07B6820229A657B6892
:10411000002283F84C2001235CE07B681B685A690D
:104120007B681B6842F004025A617B68052283F8B1
:10413000542020E0FFF794FD0246FB68D31A052BBC
:1041400019D97B689B6D43F010027B689A657B6888
:10415000032283F854207B681B6D03F08003002B3F
:1041600003D07B685B6F01221A737B68002283F89F
:104170004C2001232EE07B681B681B6903F400536D
:10418000002BD7D07B681B685A697B681B6842F09C
:1041900002025A617B68042283F854207B681B6802
:1041A0004FF4FE42DA607B68012283F854207B687A
:1041B0001B6D03F08003002B07D07B685B6F01222F
:1041C0001A737B681B6800229A647B68002283F85C
:1041D0004C20002318461037BD4680BD80B487B000
:1041E00000AF7860396000237B6143E13B681A6867
:1041F00001217B6901FA03F31340FB60FB68002B8C
:1042000000F035813B685B6803F00303012B05D0A8
:104210003B685B6803F00303022B30D17B689B682B
:104220003B617B695B00032202FA03F3DB433A69DB
:1042300013403B613B68DA687B695B0002FA03F379
:104240003A6913433B617B683A699A607B685B68B3
:104250003B6101227B6902FA03F3DB433A691340B5
:104260003B613B685B681B0903F001027B6902FA52
:1042700003F33A6913433B617B683A695A603B68D0
:104280005B6803F00303032B09D13B685B6803F011
:104290000303032B1BD13B689B68012B17D07B6862
:1042A000DB683B617B695B00032202FA03F3DB43BB
:1042B0003A6913403B613B689A687B695B0002FA8C
:1042C00003F33A6913433B617B683A69DA603B6800
:1042D0005B6803F00303022B23D17B69DA087B6858
:1042E000083253F822303B617B6903F007039B00DF
:1042F0000F2202FA03F3DB433A6913403B613B6848
:104300001A697B6903F007039B0002FA03F33A6919
:1043100013433B617B69DA087B680832396943F8EB
:1043200022107B681B683B617B695B00032202FAF9
:1043300003F3DB433A6913403B613B685B6803F07E
:1043400003027B695B0002FA03F33A6913433B61A2
:104350007B683A691A603B685B6803F44033002B62
:1043600000F085804B4A7B699B084C3352F8233020
:104370003B617B6903F003039B000F2202FA03F306
:10438000DB433A6913403B617B689A0A424B134016
:104390007A6902F00302920093403A6913433B6149
:1043A0003C497B699B084C333A6941F823204FF024
:1043B000B0431B683B61FB68DB433A6913403B61D8
:1043C0003B685B6803F48013002B03D03A69FB68F9
:1043D00013433B614FF0B0423B6913604FF0B04371
:1043E0005B683B61FB68DB433A6913403B613B68B8
:1043F0005B6803F40013002B03D03A69FB68134396
:104400003B614FF0B0423B6953604FF0B043D3F88B
:1044100084303B61FB68DB433A6913403B613B6896
:104420005B6803F40033002B03D03A69FB68134345
:104430003B614FF0B0423B69C2F884304FF0B0436B
:10444000D3F880303B61FB68DB433A6913403B6142
:104450003B685B6803F48033002B03D03A69FB6848
:1044600013433B614FF0B0423B69C2F880307B6937
:1044700001337B613B681A687B6922FA03F3002BE6
:104480007FF4B4AE00BF00BF1C37BD465DF8047BAF
:10449000704700BF000400587FFF290080B485B03A
:1044A00000AF78600B467B807B681A697B8813407D
:1044B000002B02D00123FB7301E00023FB73FB7B85
:1044C00018461437BD465DF8047B704780B483B04E
:1044D00000AF78600B467B8013467B707B78002BA7
:1044E00003D07A887B689A6102E07A887B689A6256
:1044F00000BF0C37BD465DF8047B704780B485B0C3
:1045000000AF78600B467B807B685B69FB607A88D4
:10451000FB6813401A04FB68D9437B880B401A439D
:104520007B689A6100BF1437BD465DF8047B704715
:1045300080B584B000AF7860254BDB6803F00703DB
:10454000062B0AD0224BDB6803F01F037A689A42DD
:1045500001D0012338E0002336E01D4BDB6823F057
:104560001F021B497B681343CB60FFF779FBF860A0
:1045700009E0FFF775FB0246FB68D31AB3F57A7FB3
:1045800001D9012320E0124B5B6803F00203002BEA
:10459000EFD07B681E2B02D07B681D2B13D1FFF759
:1045A0005FFBF86009E0FFF75BFB0246FB68D31A8C
:1045B000B3F57A7F01D9012306E0054BDB6803F4EC
:1045C0008033002BEFD0002318461037BD4680BD46
:1045D0000048025880B584B000AF7860104B5B692A
:1045E00023F001020E497B6813434B61FFF738FB50
:1045F000F86009E0FFF734FB0246FB68D31AB3F515
:104600007A7F01D9012306E0054B5B6903F00203C1
:10461000002BEFD0002318461037BD4680BD00BFE9
:104620000048025880B400AF054BDB68044A43F4ED
:104630000043D36000BFBD465DF8047B704700BFF8
:104640000048025880B588B000AF78607B68002BC6
:1046500001D1012328E3974B1B6903F03803FB6169
:10466000944B9B6A03F00303BB61924B1B6803F0FE
:1046700028537B617B681B6803F00103002B00F06B
:104680009C80FB69102B05D07B69002B09D0BB698E
:10469000022B06D17B685B68002B40F08E800123E3
:1046A00002E37B685B68B3F5803F06D1814B1B68F2
:1046B000804A43F48033136058E07B685B68002BCA
:1046C00012D17C4B1B687B4A23F480331360794BF7
:1046D0001B68784A23F400231360764B1B68754AE5
:1046E00023F48023136041E07B685B68B3F5A02F5F
:1046F00012D1704B1B686F4A43F4802313606D4BDB
:104700001B686C4A23F4002313606A4B1B68694AD8
:1047100043F48033136029E07B685B68B3F5502F66
:1047200012D1644B1B68634A43F480231360614BCE
:104730001B68604A43F4002313605E4B1B685D4AAC
:1047400043F48033136011E05A4B1B68594A23F439
:1047500080331360574B1B68564A23F48023136041
:10476000544B1B68534A23F400231360FFF778FA75
:1047700038617B685B68002B19D008E0FFF770FA9E
:1047800002463B69D31A642B01D903238CE2494BBF
:104790001B6803F40033002BF0D00EE0FFF760FA43
:1047A00002463B69D31A642B01D903237CE2414BB7
:1047B0001B6803F40033002BF0D17B681B6803F007
:1047C0000203002B00F09E80FB69002B05D07B6963
:1047D000002B47D0BB69002B44D17B68DB68002BE2
:1047E00001D1012360E2334B1B6803F01803FB6027
:1047F000BB69002B09D17B69002B06D07B681B6944
:10480000FA689A4201D001234EE22A4B1B6823F03A
:1048100019027B681B691343264A43F001031360A6
:10482000FB69002B09D1234B1B68DB0803F0030352
:10483000214A22FA03F3214A1360214B1B681846D0
:10484000FFF7BEF90346002B01D001232CE2194BE0
:104850005B6823F0FE427B685B691B0615491343C6
:104860004B604FE07B68DB68002B32D0114B1B683C
:1048700023F019027B68D9687B681B690B430D49DB
:1048800013430B600B4B5B6823F0FE427B685B6954
:104890001B06084913434B60FFF7E2F9386111E04A
:1048A000FFF7DEF902463B69D31A012B0AD903232D
:1048B000FAE100BF004402580090D0035C010024DC
:1048C00060010024954B1B6803F00403002BE7D024
:1048D00018E0924B1B68914A23F001031360FFF725
:1048E000BFF9386108E0FFF7BBF902463B69D31A0C
:1048F000012B01D90323D7E1884B1B6803F0040384
:10490000002BF0D17B681B6803F01003002B45D00F
:10491000FB69082B05D07B69002B08D0BB69012BF4
:1049200005D17B681B6A002B38D10123BCE17B6871
:104930001B6A002B19D0794B1B68784A43F080031F
:104940001360FFF78DF9386108E0FFF789F9024637
:104950003B69D31A012B01D90323A5E16F4B1B68D7
:1049600003F48073002BF0D018E06C4B1B686B4A8B
:1049700023F080031360FFF773F9386108E0FFF755
:104980006FF902463B69D31A012B01D903238BE14E
:10499000624B1B6803F48073002BF0D17B681B68AB
:1049A00003F00803002B36D07B689B69002B19D0DD
:1049B0005A4B5B6F594A43F001035367FFF750F9B5
:1049C000386108E0FFF74CF902463B69D31A012B26
:1049D00001D9032368E1514B5B6F03F00203002B05
:1049E000F0D018E04D4B5B6F4C4A23F00103536746
:1049F000FFF736F9386108E0FFF732F902463B6904
:104A0000D31A012B01D903234EE1444B5B6F03F012
:104A10000203002BF0D17B681B6803F02003002BFE
:104A200036D07B68DB69002B19D03C4B1B683B4AB6
:104A300043F480531360FFF713F9386108E0FFF780
:104A40000FF902463B69D31A012B01D903232BE14D
:104A5000324B1B6803F40053002BF0D018E02F4BAF
:104A60001B682E4A23F480531360FFF7F9F838616E
:104A700008E0FFF7F5F802463B69D31A012B01D98C
:104A8000032311E1254B1B6803F40053002BF0D1E5
:104A90007B681B6803F00403002B00F09B80204B15
:104AA0001B681F4A43F4807313607B689B68012B6B
:104AB00006D11A4B1B6F194A43F0010313675AE0E2
:104AC0007B689B68002B12D1144B1B6F134A23F099
:104AD00001031367114B1B6F104A23F08003136708
:104AE0000E4B1B6F0D4A23F00403136743E07B68F2
:104AF0009B68052B16D1094B1B6F084A43F0040332
:104B00001367064B1B6F054A23F080031367034BA3
:104B10001B6F024A43F0010313672CE00044025864
:104B2000004802587B689B68852B12D1604B1B6F35
:104B30005F4A43F0040313675D4B1B6F5C4A43F00D
:104B4000800313675A4B1B6F594A43F001031367E5
:104B500011E0574B1B6F564A23F001031367544B68
:104B60001B6F534A23F004031367514B1B6F504ACA
:104B700023F0800313677B689B68002B15D0FFF739
:104B80006FF838610AE0FFF76BF802463B69D31A09
:104B900041F28832934201D9032385E0444B1B6FD5
:104BA00003F00203002BEED014E0FFF759F8386150
:104BB0000AE0FFF755F802463B69D31A41F2883202
:104BC000934201D903236FE0394B1B6F03F00203BB
:104BD000002BEED17B685B6A002B42D0FB69182B5F
:104BE00031D17B685B6A012B01D101235CE0304B42
:104BF0005B6BDB08C3F30C03FB607B689B6CFA68A0
:104C00009A422ED02A4BDB6A294A23F00103D36251
:104C1000FFF726F8386100BFFFF722F802463B692C
:104C20009342F9D0224B5A6B224B13407A68926C14
:104C3000D2001F4913434B631D4BDB6A1C4A43F0F0
:104C40000103D3620DE07B6801225A647B68243340
:104C50001946002000F088FC0346002B01D00123F8
:104C600022E07B68DB6C002B0AD07B684C33194652
:104C7000012000F079FC0346002B01D0012313E052
:104C80007B685B6F002B0ED07B680122C3F89420F9
:104C90007B6874331946022000F066FC0346002B43
:104CA00001D0012300E0002318462037BD4680BD17
:104CB000004402580700FFFF80B584B000AF786061
:104CC00039607B68002B01D1012382E18A4B1B688C
:104CD00003F03F033A689A4210D9874B1B6823F0D0
:104CE0003F0285493B6813430B60834B1B6803F00D
:104CF0003F033A689A4201D001236AE17B681B684E
:104D000003F00403002B10D07B681A697B4B1B6AED
:104D100003F007039A4208D9784B1B6A23F0070275
:104D20007B681B69754913430B627B681B6803F042
:104D30000803002B10D07B685A69704B1B6A03F084
:104D400070039A4208D96D4B1B6A23F070027B688E
:104D50005B696A4913430B627B681B6803F01003AD
:104D6000002B10D07B689A69644B1B6A03F4E063E4
:104D70009A4208D9614B1B6A23F4E0627B689B6905
:104D80005E4913430B627B681B6803F02003002B12
:104D900010D07B68DA69594B1B6A03F4E0439A42EE
:104DA00008D9564B1B6A23F4E0427B68DB69534900
:104DB00013430B627B681B6803F00203002B10D0C7
:104DC0007B68DA684D4BDB6903F00F039A4208D920
:104DD0004A4BDB6923F00F027B68DB6847491343CA
:104DE000CB617B681B6803F00103002B55D0434B5C
:104DF0009B6923F00F027B689B68404913438B61DA
:104E00007B685B68022B07D13C4B1B6803F40033C3
:104E1000002B21D10123DCE07B685B68032B07D1E9
:104E2000364B1B6803F00073002B15D10123D0E033
:104E30007B685B68012B07D1304B1B6803F48073E0
:104E4000002B09D10123C4E02C4B1B6803F00403A1
:104E5000002B01D10123BCE0284B1B6923F0070282
:104E60007B685B68254913430B61FEF7F9FEF86028
:104E70000AE0FEF7F5FE0246FB68D31A41F28832DB
:104E8000934201D90323A4E01C4B1B6903F03802B1
:104E90007B685B68DB009A42EBD17B681B6803F0A0
:104EA0000203002B10D07B68DA68144BDB6903F037
:104EB0000F039A4208D2114BDB6923F00F027B6883
:104EC000DB680E491343CB610B4B1B6803F03F03B8
:104ED0003A689A4214D2084B1B6823F03F020649F5
:104EE0003B6813430B60044B1B6803F03F033A68B5
:104EF0009A4205D001236CE0002000520044025881
:104F00007B681B6803F00403002B10D07B681A69D0
:104F1000324B1B6A03F007039A4208D22F4B1B6ADD
:104F200023F007027B681B692C4913430B627B68E3
:104F30001B6803F00803002B10D07B685A69274BCD
:104F40001B6A03F070039A4208D2244B1B6A23F0B9
:104F500070027B685B69214913430B627B681B68A5
:104F600003F01003002B10D07B689A691B4B1B6A5F
:104F700003F4E0639A4208D2184B1B6A23F4E06200
:104F80007B689B69154913430B627B681B6803F0C0
:104F90002003002B10D07B68DA69104B1B6A03F4E6
:104FA000E0439A4208D20D4B1B6A23F4E0427B682F
:104FB000DB690A4913430B6200F016F80346084AFE
:104FC0001360084B1B681846FEF7FAFD0346FB7298
:104FD000FB7A18461037BD4680BD00BF004402581A
:104FE0005C0100246001002480B48BB000AFAA4BA8
:104FF0001B6903F03803182B00F2368101A252F826
:1050000023F000BF69500008695200086952000887
:105010006952000869520008695200086952000884
:10502000695200088F500008695200086952000850
:105030006952000869520008695200086952000864
:10504000695200089550000869520008695200082A
:105050006952000869520008695200086952000844
:10506000695200089B5000088B4B1B6803F020031B
:10507000002B09D0884B1B68DB0803F00303874A29
:1050800022FA03F33B62F2E000233B62EFE0844B41
:105090003B62ECE0834B3B62E9E07F4B9B6A03F0B1
:1050A0000303FB617C4B9B6A1B0903F03F03BB615D
:1050B000794BDB6A03F001037B61774B5B6BDB08A9
:1050C000C3F30C037A6902FB03F307EE903AF8EEA0
:1050D000677AC7ED047ABB69002B00F0C280FB69D8
:1050E000022B64D0FB69022B00F28380FB69002B4A
:1050F00003D0FB69012B38D07BE0674B1B6803F0C2
:105100002003002B2DD0644B1B68DB0803F0030346
:10511000624A22FA03F3FB60FB6807EE903AF8EE6E
:10512000676ABB6907EE903AF8EE677A86EEA77A6F
:10513000594B1B6BC3F3080307EE903AF8EE676A0E
:1051400097ED046ADFED585AC6EE257A76EEA77A17
:10515000F7EE006A77EEA67A67EE277AC7ED097A4E
:1051600069E04FF000037B6265E0BB6907EE903AAF
:10517000F8EE677ADFED4D6A86EEA77A464B1B6B39
:10518000C3F3080307EE903AF8EE676A97ED046AF6
:10519000DFED455AC6EE257A76EEA77AF7EE006A7D
:1051A00077EEA67A67EE277AC7ED097A43E0BB6906
:1051B00007EE903AF8EE677ADFED3D6A86EEA77A61
:1051C000354B1B6BC3F3080307EE903AF8EE676AA2
:1051D00097ED046ADFED345AC6EE257A76EEA77AAB
:1051E000F7EE006A77EEA67A67EE277AC7ED097ABE
:1051F00021E0BB6907EE903AF8EE677ADFED2B6AA3
:1052000086EEA77A244B1B6BC3F3080307EE903A94
:10521000F8EE676A97ED046ADFED235AC6EE257A49
:1052200076EEA77AF7EE006A77EEA67A67EE277A2F
:10523000C7ED097A00BF184B1B6B5B0A03F07F03B5
:105240000133BB60BB6807EE903AB8EE677AD7EDE2
:10525000096AC6EE877AFCEEE77A17EE903A3B626F
:1052600005E000233B6202E00D4B3B6200BF0A4BAE
:105270009B6903F00F037B607B68072B05D97B6874
:10528000073B3A6A22FA03F33B623B6A18462C3723
:10529000BD465DF8047B7047004402580090D0037F
:1052A00000093D0000366E01000000460024744AEB
:1052B000001BB74B80B584B000AF104A3B4692E864
:1052C000030083E80300FFF78FFEF8600C4BDB69F7
:1052D00003F00F03BB60BB68072B09D9BB68083B11
:1052E00010333B4413F8103C1A46FB68D340FB6074
:1052F000FB6818461037BD4680BD00BFCCB800081B
:105300000044025880B582B000AFFFF7D3FF786049
:10531000094B1B6A03F007033B603B68032B05D96D
:105320003B68033B7A6822FA03F37B607B6818468C
:105330000837BD4680BD00BF0044025880B582B02A
:1053400000AFFFF7B7FF7860094B1B6A1B0903F03A
:1053500007033B603B68032B05D93B68033B7A6836
:1053600022FA03F37B607B6818460837BD4680BD90
:105370000044025880B582B000AFFFF79BFF786011
:10538000094B1B6A1B0A03F007033B603B68032BB6
:1053900005D93B68033B7A6822FA03F37B607B689C
:1053A00018460837BD4680BD0044025880B582B01B
:1053B00000AF084B1B6B1B0C03F07F0301337B60BA
:1053C00000F028FA02467B68B2FBF3F31846083770
:1053D000BD4680BD0044025880B582B000AF084B86
:1053E0009B6B5B0A03F07F0301337B6000F098FA4C
:1053F00002467B68B2FBF3F318460837BD4680BD12
:105400000044025880B582B000AF084B9B6B1B0C68
:1054100003F07F0301337B6000F082FA02467B6871
:10542000B2FBF3F318460837BD4680BD004402586E
:1054300080B582B000AF084B9B6B1B0E03F07F035F
:1054400001337B6000F06CFA02467B68B2FBF3F339
:1054500018460837BD4680BD0044025880B582B06A
:1054600000AF084BD3F8C43003F0070301337B606F
:1054700000F056FA02467B68B2FBF3F31846083791
:10548000BD4680BD0044025880B582B000AF094BD4
:10549000D3F8C4301B0A03F0070301337B6000F02C
:1054A0003FFA02467B68B2FBF3F318460837BD4665
:1054B00080BD00BF0044025880B582B000AF084BE9
:1054C0001B6C5B0A03F07F0301337B6000F0AEFAD4
:1054D00002467B68B2FBF3F318460837BD4680BD31
:1054E0000044025880B582B000AF084B1B6C1B0C07
:1054F00003F07F0301337B6000F098FA02467B687B
:10550000B2FBF3F318460837BD4680BD004402588D
:1055100080B582B000AF084B1B6C1B0E03F07F03FD
:1055200001337B6000F082FA02467B68B2FBF3F342
:1055300018460837BD4680BD0044025880B582B089
:1055400000AF084BD3F8C83003F0070301337B608A
:1055500000F06CFA02467B68B2FBF3F3184608379A
:10556000BD4680BD0044025880B58AB000AF786067
:105570003960002387F823307B68DA009A4B1344A4
:10558000FB617B689A00994B1344BB61984BD96AC5
:105590007A6813469B0013445B0013444FF47872FF
:1055A00002FA03F3DB43924A0B40D362904B1A6832
:1055B0007B685B004FF0807101FA03F3DB438C4999
:1055C00013400B60FEF74CFB786108E0FEF748FBE8
:1055D00002467B69D31A322B01D90323FFE0844BA7
:1055E0001A687B685B004FF0007101FA03F3134007
:1055F000002BEBD13B681B68022B40F0DD803B6841
:105600005B683B613B69002B09D1794B1B68DB0868
:1056100003F00303774A22FA03F37B6207E03B6956
:10562000022B02D1744B7B6201E0744B7B623B68BE
:105630009B687A6AB2FBF3F37B627B6A704A93429F
:1056400002D318237B620FE07B6A6E4A934202D931
:1056500010237B6208E07B6A6B4A934202D90823DD
:105660007B6201E002237B627A6813469B0013444D
:105670005B0013447A6A02FA03F37B625C4B9A6A1A
:105680007B68DB004FF47C7101FA03F343F0030302
:10569000DB431A403B6899687B68DB000433994020
:1056A0003B690B43524913438B62514B9B6A03F096
:1056B00003033A699A4201D0012390E04C4BD96A26
:1056C0007A6813469B0013445B0013441B2202FAC2
:1056D00003F3DB4301EA030245497B6A1343CB62D0
:1056E0003B68DB685A1E3B681B69013B5B021A433F
:1056F0003B685B69013B1B041A433B689B69013BA8
:105700001B061A43FB691A603B68DB695A1E3B683B
:105710001B6A013B1B021A43BB691A607B68002BA2
:1057200005D1334BDB6A324A43F02003D3623B6836
:105730005B6A002B1CD07B68DA00344B1344FB609F
:10574000FB681A68324B13403A68526AD2001A4317
:10575000FB681A60264BD96A7A6813469B0013448B
:105760005B001344012202FA03F3214A0B43D36284
:105770001F4B1A687B685B004FF0807101FA03F3DE
:105780001B4913430B60FEF76BFA786108E0FEF7E4
:1057900067FA02467B69D31A322B01D903231EE034
:1057A000134B1A687B685B004FF0007101FA03F33A
:1057B0001340002BEBD010E00D4B9A6A7B68DB00A6
:1057C00004334FF47C7101FA03F343F00303DB432A
:1057D0001340074A43F00303936297F823301846B7
:1057E0002837BD4680BD00BF30440258C04402582F
:1057F000004402580090D00300366E0100093D00BD
:1058000000127A00FF083D007F841E0034440258D5
:105810000700FFFF80B489B000AF3C4B9B6A7B61FF
:105820003A4B1B6B3B617B691B0903F03F03FB6039
:105830003B69C3F308030133BB60FB68002B01D154
:1058400000235CE0314BDB6A03F00103002B06D040
:105850002E4B5B6BDB08C3F30C03BB6101E0002341
:10586000BB617B6903F00303022B19D0022B1DD807
:10587000002B02D0012B16D018E0244B1B6803F03C
:105880002003002B09D0214B1B68DB0803F0030326
:105890001F4A22FA03F3FB610BE00023FB6108E0DF
:1058A0001C4BFB6105E01C4BFB6102E00023FB612C
:1058B00000BFFB6907EE903AF8EE676AFB6807EEF7
:1058C000903AF8EE677A86EEA77ABB6807EE903AD0
:1058D000F8EE676ABB6907EE903AB8EE676ADFEDEB
:1058E0000F5AC6EE257A76EEA77A67EE277AC7EDCD
:1058F000017AD7ED017AFCEEE77A17EE903A184676
:105900002437BD465DF8047B704700BF0044025851
:105910000090D00300366E0100093D0000000046F3
:1059200080B489B000AF3C4B9B6A7B613A4B9B6B68
:105930003B617B691B0B03F03F03FB603B69C3F3D7
:1059400008030133BB60FB68002B01D100235CE03E
:10595000314BDB6A03F40063002B06D02E4BDB6B6C
:10596000DB08C3F30C03BB6101E00023BB617B696F
:1059700003F00303022B19D0022B1DD8002B02D0F9
:10598000012B16D018E0244B1B6803F02003002BDA
:1059900009D0214B1B68DB0803F003031F4A22FADE
:1059A00003F3FB610BE00023FB6108E01C4BFB6190
:1059B00005E01C4BFB6102E00023FB6100BFFB69BB
:1059C00007EE903AF8EE676AFB6807EE903AF8EE59
:1059D000677A86EEA77ABB6807EE903AF8EE676AB8
:1059E000BB6907EE903AB8EE676ADFED0F5AC6EE74
:1059F000257A76EEA77A67EE277AC7ED017AD7ED9A
:105A0000017AFCEEE77A17EE903A18462437BD4645
:105A10005DF8047B704700BF004402580090D0033B
:105A200000366E0100093D000000004680B489B0D8
:105A300000AF3C4B9B6A7B613A4B1B6C3B617B69C3
:105A40001B0D03F03F03FB603B69C3F30803013305
:105A5000BB60FB68002B01D100235CE0314BDB6AAB
:105A600003F48003002B06D02E4B5B6CDB08C3F3E2
:105A70000C03BB6101E00023BB617B6903F00303FE
:105A8000022B19D0022B1DD8002B02D0012B16D0CF
:105A900018E0244B1B6803F02003002B09D0214B96
:105AA0001B68DB0803F003031F4A22FA03F3FB61C0
:105AB0000BE00023FB6108E01C4BFB6105E01C4B85
:105AC000FB6102E00023FB6100BFFB6907EE903A37
:105AD000F8EE676AFB6807EE903AF8EE677A86EEB2
