:020000040800F2
:1000000000000120C542000815430008AD46000865
:10001000C1460008C7460008CD46000800000000A1
:100020000000000000000000000000001543000870
:10003000154300080000000015430008C1450008F2
:100040001543000800000000154300081543000890
:1000500015430008154300080000000000000000E0
:100060001543000815430008154300080000000070
:100070000000000015430008000000000000000020
:1000800015430008154300081543000815430008F0
:1000900015430008154300081543000815430008E0
:1000A00015430008154300081543000815430008D0
:1000B00015430008154300081543000815430008C0
:1000C00015430008154300081543000815430008B0
:1000D00015430008154300081543000815430008A0
:1000E0001543000815430008154300081543000890
:1000F0001543000815430008154300081543000880
:10010000154300081543000815430008154300086F
:10011000154300081543000815430008154300085F
:10012000154300081543000815430008154300084F
:10013000154300081543000815430008154300083F
:10014000154300081543000815430008154300082F
:10015000154300081543000815430008154300081F
:10016000154300081543000815430008154300080F
:1001700015430008154300081543000815430008FF
:1001800015430008154300081543000815430008EF
:1001900015430008154300081543000815430008DF
:1001A00015430008154300081543000815430008CF
:1001B00015430008154300081543000815430008BF
:1001C000000000000000000015430008154300086F
:1001D000154300081543000815430008154300089F
:1001E000154300081543000815430008154300088F
:1001F000154300081543000800000000000000003F
:10020000154300081543000815430008154300086E
:10021000154300081543000815430008154300085E
:10022000154300081543000815430008154300084E
:10023000154300081543000815430008154300083E
:10024000154300081543000815430008154300082E
:10025000154300081543000815430008154300081E
:10026000154300081543000815430008154300080E
:1002700015430008154300081543000815430008FE
:1002800015430008154300081543000815430008EE
:1002900015430008000000000000000000000000FE
:1002A00015430008154300081543000815430008CE
:1002B00053B94AB9002908BF00281CBF4FF0FF31CD
:1002C0004FF0FF3000F00CB8ADF1080C6DE904CE32
:1002D0000BF012F9DDF804E0DDE9022304B0704709
:1002E000704700BF00000000000000000000000098
:1002F00001F0FF01102A2BDB10F0070F08D010F8D7
:10030000013B013A8B422DD010F0070F42B3F6D1DA
:10031000F0B441EA012141EA014122F007047FF0F3
:1003200000070023F0E80256083C85EA010586EA4A
:10033000010685FA47F5A3FA87F586FA47F6A5FA86
:1003400087F68EB9EED1F0BC01F0FF0102F0070292
:1003500032B110F8013B013A83EA010313B1F8D13D
:100360000020704701387047002D06BF354603381E
:10037000073815F0010F07D1013015F4807F02BF57
:10038000013015F4C03F0130F0BC0138704700BFA8
:100390000348044B834202D0034B03B11847704714
:1003A000C4010024C4010024000000000548064BDD
:1003B0001B1AD90F01EBA301491002D0034B03B163
:1003C00018477047C4010024C40100240000000045
:1003D00010B5064C237843B9FFF7DAFF044B13B18D
:1003E0000448AFF300800123237010BDC401002432
:1003F00000000000ECC8000808B5054B1BB105491A
:100400000548AFF30080BDE80840FFF7CFBF00BF4D
:1004100000000000C8010024ECC8000880B582B0CC
:1004200000AF7860074A7B681360074B1B689868C9
:100430000023022200210BF0BBFB00BF0837BD46A2
:1004400080BD00BFE00100247401002480B584B0A9
:1004500000AFF860B9607A60094B1B68002B09D0C7
:10046000074B1B681B6808331B68054A10687A68CD
:10047000B96898477B6818461037BD4680BD00BFF5
:10048000E001002480B483B000AF78607B68DB4378
:1004900018460C37BD465DF8047B704780B489B0C0
:1004A00000AFF860B9607A60BB687B61FB68FB6194
:1004B0000023BB6111E07A69BB6913441B781A46BB
:1004C000FB695340DBB20A4A52F82320FB691B0A3E
:1004D0005340FB61BB690133BB61BA697B689A42D7
:1004E000E9D3FB6918462437BD465DF8047B7047A5
:1004F00008CF000880B584B000AF786039603A68F2
:1005000079684FF0FF30FFF7C9FFF860F868FFF730
:10051000B9FF034618461037BD4680BD80B584B08C
:1005200000AF3B1D00221A605A609A60204B214A9E
:100530001A601F4B04225A601D4B00229A601C4B0C
:100540004FF08072DA601A4B1F221A61184B022298
:100550005A61174B00229A61154B0022DA61144B45
:1005600000221A62124B03225A62114B00229A6235
:100570000F4B00221A630E4B00225A630C4B0022D1
:100580009A630B4B0022DA6309480AF053F81023F0
:100590007B600123BB600123FB603B1D41F288327D
:1005A000194603480AF040FC00BF1037BD4680BD25
:1005B000E401002400A00052B0B5ADF5946D00AF89
:1005C00007F580632022002118460BF07DFC0023F4
:1005D00087F89F34C84BC7F85C342023C7F85834D9
:1005E000D7F85834002B28DDD7F85C3403F01F020D
:1005F000D7F858341344C7F85434D7F85C34C7F8E4
:100600005034BFF34F8F00BFBC4AD7F85034C2F804
:100610005C32D7F850342033C7F85034D7F854340C
:10062000203BC7F85434D7F85434002BECDCBFF32C
:100630004F8F00BFBFF36F8F00BF00BFAE4BC7F837
:100640008034D7F880341A68D7F880345B68AA49B8
:10065000AB480BF03DFAD7F880341B68A94A9342A7
:100660002ED11C21D7F88004FFF744FFC7F87C0483
:10067000D7F88034DB69D7F87C249A4217D1D7F8B1
:1006800080345B68012B12D1D7F8803407F5806481
:100690001D4628686968AA68EB680FC428696969FB
:1006A000AA69EB690FC4012387F89F3408E0D7F8E3
:1006B0008034DB69D7F87C24194693480BF008FA9C
:1006C00097F89F3483F00103DBB2002B40F01B82CC
:1006D000D7F80834002B04D0D7F80834B3F5000F4E
:1006E00006D9D7F80834194688480BF0F1F90BE21F
:1006F00087480BF055FA87480BF052FAD7F80834C0
:10070000194685480BF0E4F9D7F8103419468348A8
:100710000BF0DEF9D7F80C34194681480BF0D8F904
:10072000D7F8143419467F480BF0D2F97E480BF005
:1007300037FAD7F81434B3F1005F06D3D7F814347E
:10074000B3F1405F01D2012300E0002387F87B343E
:1007500097F87B34002B36D0D7F814341A46D7F8E4
:100760000834C7F84C24C7F84834D7F84834002B6D
:1007700028DDD7F84C3403F01F02D7F8483413446F
:10078000C7F84434D7F84C34C7F84034BFF34F8F20
:1007900000BF5A4AD7F84034C2F85C32D7F8403428
:1007A0002033C7F84034D7F84434203BC7F84434EA
:1007B000D7F84434002BECDCBFF34F8F00BFBFF3FE
:1007C0006F8F00BF00BF59480BF0EAF90023C7F84C
:1007D000983497F87B34002B0CD0D7F81434C7F832
:1007E0007434D7F808341946D7F87404FFF782FE3A
:1007F000C7F89804D7F80C34D7F898249A4241D017
:10080000D7F80C341A46D7F8981449480BF060F919
:100810002022002138480BF057FB374BC7F83C34F7
:100820002023C7F83834D7F83834002B28DDD7F820
:100830003C3403F01F02D7F838341344C7F834347B
:10084000D7F83C34C7F83034BFF34F8F00BF2B4A82
:10085000D7F83034C2F86832D7F830342033C7F8CC
:100860003034D7F83434203BC7F83434D7F8343434
:10087000002BECDCBFF34F8F00BFBFF36F8F00BFC7
:1008800000BF41E12B480BF08BF9D7F8083403F691
:10089000FF72294B1340C7F870340023C7F8943413
:1008A0001AE04FF48052D7F89414002000F0A4FA14
:1008B0000346002B14BF01230023DBB2002B05D01D
:1008C000D7F894141D480BF003F91DE1D7F89434C0
:1008D00003F58053C7F89434D7F89424D7F87034CC
:1008E0009A42DED316480BF05BF90023C7F8903428
:1008F000012387F88F3454E00000072400ED00E066
:1009000004C900083141544F4CC9000884C900088B
:10091000ACC90008D8C90008F8C900081CCA0008FA
:100920003CCA00085CCA00087CCA0008A8CA0008C3
:10093000D4CA00080CCB000800F0FFFF24CB00084D
:1009400054CB0008D7F80824D7F89034D31AB3F55D
:10095000806F28BF4FF48063C7F86C34D7F8142435
:10096000D7F890341344C7F86834D7F86C34D7F804
:100970006824D7F89014002000F008FA0346002BF2
:1009800014BF01230023DBB2002B03D0002387F820
:100990008F340CE0D7F89024D7F86C341344C7F8A0
:1009A0009034D7F80834D7F890249A42CAD397F8ED
:1009B0008F3483F00103DBB2002B03D054480BF0DB
:1009C000EFF8A1E053480BF0EBF84FF0FF33C7F816
:1009D00088340023C7F89034012387F8873430E047
:1009E000D7F80824D7F89034D31AB3F5806F28BF0E
:1009F0004FF48063C7F864343A46D7F86434D7F8C4
:100A00009014002000F08CF90346002B14BF012342
:100A10000023DBB2002B03D0002387F8873416E0D5
:100A20003B46D7F864241946D7F88804FFF736FD0B
:100A3000C7F88804D7F89024D7F864341344C7F86B
:100A40009034D7F80834D7F890249A42C8D3D7F80E
:100A50008804FFF717FDC7F8600497F8873483F020
:100A60000103DBB2002B05D1D7F80C34D7F8602492
:100A70009A4208D0D7F80C341A46D7F860142648A2
:100A80000BF026F840E02022002124480BF01CFA4D
:100A9000224BC7F82C342023C7F82834D7F8283441
:100AA000002B28DDD7F82C3403F01F02D7F82834A8
:100AB0001344C7F82434D7F82C34C7F82034BFF3D4
:100AC0004F8F00BF164AD7F82034C2F86832D7F8E3
:100AD00020342033C7F82034D7F82434203BC7F81B
:100AE0002434D7F82434002BECDCBFF34F8F00BF45
:100AF000BFF36F8F00BF00BFD7F810341946094805
:100B00000AF0E6FF00E000BF07F59467BD46B0BD00
:100B10007CCB0008A4CB0008CCCB00080000072445
:100B200000ED00E004CC000880B586B000AF78602E
:100B30007B6804331B687B617B693B6111480BF068
:100B40002FF87B681B6819460F480AF0C1FF7969C6
:100B50000E480AF0BDFF0E4B00221A600C4B00221B
:100B60005A600B4B00229A607B681B68FB60FB6835
:100B700083F3088800BF3B69984700BF1837BD461C
:100B800080BD00BF44CC000860CC00087CCC0008CD
:100B900010E000E080B584B000AF03F035F903F059
:100BA000C3F903461846FFF739FC204920480AF0EC
:100BB0008FFF20480AF0F4FFFFF7B0FC1E480AF050
:100BC000EFFF00F043F8F860F9681C480AF080FF76
:100BD000FB68002B0DD1FFF7EFFC0021002000F097
:100BE000EDF917480AF0DCFF4FF0E040FFF79CFFFB
:100BF0001BE014480AF0D4FF03F0A0F9B860BB680A
:100C00001B6810331B68B868984700237B6002E0BC
:100C10007B6801337B607B680B4A9342D4BF01231E
:100C20000023DBB2002BF3D1E9E7FEE708D300088D
:100C3000A4CC0008ACCC0008C8CC0008DCCC000870
:100C4000F8CC000820CD00083F4B4C0080B582B0A6
:100C500000AF012008F014FD4FF4AC7200210D48E4
:100C60000BF032F90B4B00221A700A4B0A4A5A60F9
:100C7000084B03221A72042007F0C2F903461946F2
:100C8000002000F00BF803467B607B6818460837AD
:100C9000BD4680BD04000024E401002480B584B07A
:100CA00000AF78603960FB23FB737B68012B2FD882
:100CB0000023FB73194A7B68AC2101FB03F3134447
:100CC0001B78002B20D1154A7B68AC2101FB03F374
:100CD000134404331868114A7B68AC2101FB03F309
:100CE0001344083319787B68AC2202FB03F3083302
:100CF0000A4A134404333A6801F09CFE0346002B71
:100D000005D0FD23FB7302E0FE23FB7300E000BF70
:100D100097F90F3018461037BD4680BD04000024F7
:100D200080B586B000AFF860B9607A603B60FB23A5
:100D3000FB75FB68012B21D80023FB75124AFB6869
:100D4000AC2101FB03F313441B78002B12D1FB6889
:100D5000AC2202FB03F308330B4A1344181D3B6813
:100D60007A68B96801F01AFF0346002B05D0FD230D
:100D7000FB7502E0FE23FB7500E000BF97F917301A
:100D800018461837BD4680BD0400002480B586B0E3
:100D900000AFF860B9607A603B60FB23FB75FB68CD
:100DA000012B21D80023FB75124AFB68AC2101FB03
:100DB00003F313441B78002B12D1FB68AC2202FB17
:100DC00003F308330B4A1344181D3B687A68B9686B
:100DD00001F011FF0346002B05D0FD23FB7502E057
:100DE000FE23FB7500E000BF97F91730184618374F
:100DF000BD4680BD0400002480B58AB000AFF86015
:100E0000B9607A60FB2387F82730FB68012B00F27A
:100E1000CC80002387F82730674AFB68AC2101FBB0
:100E200003F313441B78002B40F0BB80FB68AC221B
:100E300002FB03F30833604A134404337B6100234D
:100E400087F82630BB683B627B68FB617B6993F85F
:100E50007D301A4601239340BB619DE07B6993F886
:100E60007D30002B11D0FA69BB699A420DD33B6AE1
:100E7000BA69B3FBF2F2B96901FB02F29B1A002BCB
:100E800003D1032387F8263058E07B6993F87B3041
:100E90001A4601239340BB617B6993F87B30002B9A
:100EA00011D0FA69BB699A420DD33B6ABA69B3FBA8
:100EB000F2F2B96901FB02F29B1A002B03D1022363
:100EC00087F826303AE07B6993F879301A46012397
:100ED0009340BB617B6993F87930002B11D0FA699C
:100EE000BB699A420DD33B6ABA69B3FBF2F2B969A6
:100EF00001FB02F29B1A002B03D1012387F8263055
:100F00001CE07B6993F877301A4601239340BB615C
:100F10007B6993F87730002B0DD03B6ABA69B3FB3D
:100F2000F2F2B96901FB02F29B1A002B03D10023F4
:100F300087F8263002E0FC2387F8273097F927301E
:100F4000002B13D1FB68AC2202FB03F308331A4ACF
:100F50001344043397F82620396A184601F0D4FE6A
:100F60000346002B02D0FD2387F8273097F927305E
:100F7000002B02D00023FB610EE03A6ABB691344E8
:100F80003B62BA69FB699A4202D90023FB6103E024
:100F9000FA69BB69D31AFB61FB69002B7FF45EAF72
:100FA00003E0FE2387F8273000BF97F92730184663
:100FB0002837BD4680BD00BF0400002480B584B042
:100FC00000AF78600B46FB70FB23FB737B68012B43
:100FD00033D80023FB731C4A7B68AC2101FB03F36D
:100FE00013441B78002B24D1FB78002B10D17B6895
:100FF000AC2202FB03F30833134A134404331846AC
:1010000001F012FF0346002B16D06FF0020316E02A
:101010007B68AC2202FB03F308330B4A134404330E
:10102000184601F022FF0346002B05D06FF00203A3
:1010300005E0FE23FB7300E000BF97F90F30184670
:101040001037BD4680BD00BF0400002480B584B0C9
:1010500000AF786039600023BB733B6800221A60E0
:101060007B6803F1080008233A68002102F022F9A6
:101070000346002B02D00323FB731FE03B681B6871
:101080001946786801F0ACFC0346002B02D0052B12
:1010900005D00AE00023FB730223BB730AE004239C
:1010A000FB73BB7B0133BB7304E00423FB7302239C
:1010B000BB7300BFBB7B012BCFD900BFFB7B1846A6
:1010C0001037BD4680BD000090B589B000AF786094
:1010D00039600423FB772A4B07F10C040FCB84E81B
:1010E0000F000023BB7740E0BB7F5B0020333B4415
:1010F00013F8142C7B6883F864207B6803F10800E4
:101100007B6864331A46002101F082FFBB7F5B00DD
:1011100020333B4413F8132C7B6883F859200023B9
:101120007B7717E07B687A7F83F858203968786886
:10113000FFF78CFF0346002B01D10023FB77BB7F19
:101140005B0020333B4413F8143C032B09D97B7F0D
:1011500001337B777B7F012B04D8FB7F042BE1D00D
:1011600000E000BFBB7F0133BB77BB7F072B02D8FA
:10117000FB7F042BB8D0FB7F18462437BD4690BDBB
:1011800050CD000880B588B000AF78600023FB77B1
:101190000823BB617B680022C3F8942078220021D9
:1011A0005F480AF091FE0023FB7527E0FA7D1346A5
:1011B0005B0013449B005A4A13441A46B969786885
:1011C00001F04EF80346FB77FB7F002B40F0A28036
:1011D0007B68D3F89410FA7D514813465B001344A2
:1011E0009B0003441B6841EA03027B68C3F8942018
:1011F000BB690833BB61FB7D0133FB75FA7D7B68FE
:1012000093F89C3001339A42D0D30023BB7575E02C
:1012100000233B61BA7D424913465B0013449B00A7
:101220000B4408331B78FB60BA7D3D4913465B00D5
:1012300013449B000B441B68B3F5805F29D0B3F5C2
:10124000805F29D8B3F5007F1DD0B3F5007F23D888
:10125000802B1BD0802B1FD8082B02D0402B0FD007
:101260001AE0BA7D2E4913465B0013449B000B44E1
:1012700008331B781A462B4B1A602B4B3B610CE052
:101280002A4B3B6109E02A4B3B6106E0294B3B615D
:1012900003E0294B3B6100E000BF3B69002B16D007
:1012A0007B6803F10800BA7D1D4913465B001344B7
:1012B0009B000B4404331968FB689B003A6901F0FA
:1012C000F9FF0346002B02D00C23FB7722E0BA7D06
:1012D000134913465B0013449B000B441B68082B07
:1012E00009D1104B93F84130C3F30503DBB21A4622
:1012F0007B68C3F89820BB7D0133BB75BA7D084974
:1013000013465B0013449B000B441B68002B7FF4C7
:101310007FAF00BFFB7F18462037BD4680BD00BFB2
:1013200044020024BC020024C00200241C03002448
:101330003C03002424030024AC03002480B586B0C1
:1013400000AF78600723BB7508233B610023FB7364
:101350000023BB732EE0644A3969786800F080FF8F
:101360000346BB75BB7D002B18D15F4B1B68082B58
:1013700014D17B6803F108005B4B59685A4B1B7A08
:101380009B005A4A01F096FF0346002B02D00C2323
:10139000BB7503E00023BB750123FB73BB7D002BF2
:1013A0000FD1FB7B012B0CD03B6908333B61BB7B2E
:1013B0000133BB73BA7B7B6893F89C3001339A424C
:1013C000C9D3BB7D002B02D1FB7B002B02D10C23A8
:1013D000BB7583E0464B93F8413003F03F03DBB22B
:1013E000002B02D10023FB7553E0414B93F84130B1
:1013F000C3F30503DBB203F00103DBB2002B02D021
:101400000123FB7545E03A4B93F84130C3F30503E4
:10141000DBB203F00203DBB2002B02D00223FB7528
:1014200037E0334B93F84130C3F30503DBB203F0ED
:101430000403DBB2002B02D00323FB7529E02C4B05
:1014400093F84130C3F30503DBB203F00803DBB2CA
:10145000002B02D00423FB751BE0254B93F8413091
:10146000C3F30503DBB203F01003DBB2002B02D0A1
:101470000523FB750DE01E4B93F84130C3F30503C4
:10148000DBB21F2B02D90F23BB7527E00C23BB75E2
:1014900024E0FB7D052B09D0052B1BDC002B1CD089
:1014A000002B17DB013B032B14D810E07B6803F102
:1014B000080000230022662102F0CEF87B6803F1C9
:1014C000080000230022992102F0C6F806E00F234D
:1014D000BB7503E00123BB7500E000BFBB7D184670
:1014E0001837BD4680BD00BF44020024C00200245E
:1014F000BC020024F0B58FB004AF786039600023DF
:1015000087F82730002387F826307B68D3F894309B
:1015100003F00803002B04D1072387F8273000F0DD
:1015200026BEBA4B9B68002B13DBB84B9B6801337C
:10153000BB61BB69002B01D1202303E0BB69B3FA77
:1015400083F3DBB2C3F11F03DAB27B6883F85E205A
:1015500005E0AE4B9B68DAB27B6883F85E207B685F
:1015600093F85E30033BDAB27B6883F85E207B68D9
:1015700093F85E30013BDBB2FB747B68083307F104
:1015800013020421184601F043FDA04B93F82C30C0
:10159000C3F30313DBB21A46012303FA02F27B689A
:1015A0001A667B68022283F87520984B93F82020F6
:1015B0007B6883F87720954B93F821207B6883F82C
:1015C0007820924B93F822207B6883F879208F4B08
:1015D00093F823207B6883F87A208C4B93F824209F
:1015E0007B6883F87B20894B93F825207B6883F800
:1015F0007C20864B93F826207B6883F87D20834BE4
:1016000093F827207B6883F87E207B6893F87730F7
:10161000002B1DD07D4B93F82830C3F30303DBB2BE
:101620001A467A4B1B8DC3F30413DBB2013302FB62
:1016300003F3764A92F82920C2F34102D2B211464E
:10164000734A32F8112003FB02F27B68C3F8802052
:101650007B6893F87930002B1ED06C4B93F82830C0
:10166000C3F30303DBB21A46684B93F82930C3F384
:10167000C403DBB2013302FB03F3644A92F82A206D
:10168000C2F30102D2B21146614A32F8112003FBC3
:1016900002F27B68C3F884207B6893F87B30002BD0
:1016A0001DD05A4B93F82830C3F30303DBB21A461C
:1016B000564B93F82A30C3F38403DBB2013302FBA9
:1016C00003F3524A528DC2F3C112D2B21146504AAC
:1016D00032F8112003FB02F27B68C3F888207B6894
:1016E00093F87D30002B1ED0484B93F82830C3F37D
:1016F0000303DBB21A46454B93F82B30C3F3440384
:10170000DBB2013302FB03F3404A92F82B20C2F311
:101710008112D2B211463E4A32F8112003FB02F286
:101720007B68C3F88C20394B93F82830C3F303034C
:10173000DBB21A46354B93F82F30C3F30403DBB208
:10174000013302FB03F3314A92F82F20C2F3411216
:10175000D2B211462F4A52F8212003FB02F27B68D5
:10176000C3F890207B68052283F871207B680522EE
:1017700083F86C20254B1B7903F01003DBB2002BA0
:1017800004D17B68502283F8702003E07B68062236
:1017900083F870201D4B93F84030C3F30603DBB28F
:1017A00003F00103002B04D07B68062283F870202D
:1017B00046E0164B93F84030C3F30603DBB203F068
:1017C0000203002B04D07B68062283F8702037E0E8
:1017D0000E4B93F84030C3F30603DBB203F004036F
:1017E000002B04D07B68502283F8702028E0074B40
:1017F00093F84030C3F30603DBB203F00803002B79
:101800000AD07B68062283F8702019E0BC0200240D
:10181000F4D80008FCD80008664B93F84030C3F3B6
:101820000603DBB203F01003002B04D07B68062212
:1018300083F8702004E00A2387F8273000F097BC73
:101840007B68D3F8943003F40073002B78D05A4BA4
:10185000DB7C23F07F03DBB2002B34D0564B5A7C69
:101860007B6883F86C20544BDB7CC3F30203DBB250
:101870001A467B6883F86D204F4BDB7CC3F38013E3
:10188000DBB21A467B6883F86E204B4BDB7CC3F3DC
:101890000203DBB21A467B6883F86D20464BDB7C83
:1018A00003F01003DBB2002B09D0434BDB7CC3F306
:1018B000C003DBB21A467B6883F86F2003E07B68C5
:1018C000FF2283F86F203C4BDB7D23F07F03DBB2EC
:1018D000002B73D0384B5A7D7B6883F87120364BD0
:1018E000DB7DC3F30203DBB21A467B6883F8722008
:1018F000314BDB7DC3F38013DBB21A467B6883F880
:1019000073202D4BDB7DC3F30203DBB21A467B68E9
:1019100083F87220284BDB7C03F01003DBB2002B32
:1019200009D0254BDB7DC3F3C003DBB21A467B68CD
:1019300083F8742042E07B68FF2283F874203DE046
:101940007B68012283F872207B68002283F8732071
:10195000184B93F83830C3F38503DBB203F001036F
:10196000002B0CD07B68052283F86C207B6800225A
:1019700083F86D207B68002283F86E201EE00D4BFB
:1019800093F83830C3F38503DBB203F00203002B76
:101990000CD07B68702283F86C207B68072283F868
:1019A0006D207B68002283F86E2007E0092387F80A
:1019B0002730DCE3BC0200243C0300247B680322C4
:1019C00083F8762000237B617B68083307F11402DB
:1019D0000121184601F01CFB7B68D3F8943003F01A
:1019E0000803002B00F0B0807B6893F85C30022B7A
:1019F00000F2AA807B68002283F864207B6893F859
:101A00005C30002B4CD0B64B5B7C002B15D0B44B1C
:101A10001B7CC3F30403DBB21A46B14B1B7CC3F33C
:101A20004213DBB213447B61AD4B5A7C7B6883F875
:101A300076207B68012283F86420A94BDB7C002B95
:101A400015D0A74B9B7CC3F30403DBB21A46A44B0F
:101A50009B7CC3F34213DBB213447B61A04BDA7C63
:101A60007B6883F876207B68022283F864209C4B95
:101A70001B7D03F00103DBB2002B11D0984B9B7E42
:101A8000C3F30403DBB21A46954B9B7EC3F34213A8
:101A9000DBB213447B61924BDA7E7B6883F876205D
:101AA0007B6893F85C30012B2FD98D4B1B7D03F0A5
:101AB0001003DBB2002B20D0894B9B7FC3F30403C0
:101AC000DBB21A46864B9B7FC3F34213DBB213444F
:101AD0007B61834BDA7F7B6883F876207B68042206
:101AE00083F86420786800F03BFF034687F82730CE
:101AF00097F82730002B40F037837B68083307F1D5
:101B000014020121184601F083FA7B6803F10800F2
:101B10007B6864331A46002101F07AFA0346002BF1
:101B200003D00C2387F8273021E37B68083307F1C3
:101B300014020121184601F06BFA0346002B03D072
:101B40000C2387F8273012E37B68D3F8943003F432
:101B50008053002B00F087807B6893F85C30032B68
:101B600040F081807B6893F86430092B03D1012316
:101B700087F8263044E0786800F06EFC0346002BBE
:101B80003ED1012387F826307B6893F85D30C82B5F
:101B900004D17B68082283F8642003E07B68092273
:101BA00083F864207B6803F108007B6864331A467D
:101BB000002101F02DFA0346002B03D00C2387F8F7
:101BC0002730D4E27B6893F89D30FD2B09D1142394
:101BD0007B617B68083307F114020121184601F08C
:101BE00017FA7B6893F89D30FE2B09D108237B619F
:101BF0007B68083307F114020121184601F008FA46
:101C00007B68D3F8943003F00803002B19D0344BD1
:101C10001B68102B15D9324B93F84B30C3F341138B
:101C2000DBB2012B03D90F2387F827309FE22C4B1F
:101C300093F84B30C3F34113DBB21A467B6883F849
:101C400058207B68D3F8943003F08003002B0AD02F
:101C5000244BDB7803F04003DBB2002B03D07B681E
:101C6000142283F859206421786800F095FA03461D
:101C7000002B03D00C2387F8273078E27B68D3F859
:101C8000943003F04003002B00F0828197F8263057
:101C9000002B40F00181124B93F8433003F0010315
:101CA000002B21D07B6803F1080000230022B7211C
:101CB00001F0D2FC0346002B03D00C2387F8273019
:101CC00055E27B68083300220221184601F0A0F992
:101CD0000346002B72D00C2387F8273047E200BF61
:101CE000BC02002424030024814B93F8433003F00A
:101CF0000203002B50D07B6803F108007B6893F847
:101D000070100023002201F0A7FC0346002B03D033
:101D10000C2387F827302AE27B6803F108007B68F0
:101D200093F871107B6893F874301E467B6893F8C3
:101D30007330002B01D1012300E000237A6892F870
:101D400072209340DCB27B6893F872301A4601230C
:101D50009340DBB27A6892F85D204FF47A75029571
:101D6000019200932346324601F083FD0346002B87
:101D700003D00C2387F82730F9E17B6803F10800D2
:101D800000230022B72101F067FC0346002B15D089
:101D90000C2387F82730EAE1554B93F8433003F0E2
:101DA0004003002B0AD1524B93F8433003F0200339
:101DB000002B03D10F2387F82730D8E17B68083345
:101DC00000220221184601F023F90346002B03D01C
:101DD0000C2387F82730CAE17B6893F86430002B26
:101DE0002AD1444B1B7803F00103DBB2002B03D054
:101DF0007B68132283F876203E4B1B7803F0400368
:101E0000DBB2002B03D07B68122283F87520394B9C
:101E10001B7803F00203DBB2002B0DD07B680C2291
:101E200083F8762008237B617B68083307F114026E
:101E30000121184601F0ECF87B6893F86430012B1F
:101E40000AD12C4B1B7803F00403DBB2002B03D028
:101E50007B683C2283F876207B6893F86430022B01
:101E60000AD1244B1B7803F00803DBB2002B03D00C
:101E70007B68BC2283F876207B6893F86430032B60
:101E80000AD11C4B5B7803F02003DBB2002B03D09C
:101E90007B680E2283F876207B6893F85C30032BF6
:101EA00032D17B6893F86430002B2DD1114B9B7895
:101EB00003F02003DBB2002B26D00E4BDB7803F0BF
:101EC0000103DBB2002B1FD07B68072283F864205C
:101ED0007B6803F108007B6864331A46002101F037
:101EE00097F80346002B07D00C2387F827303EE1F4
:101EF000BC0200241C0300247B68CC2283F87620DB
:101F00007B688E2283F875207B6893F86430082BF9
:101F10002AD19A4BDB7803F00103DBB2002B03D00C
:101F20007B68022283F87520944B9B7803F0200392
:101F3000DBB2002B0DD07B68CC2283F876200823FF
:101F40007B617B68083307F114020121184601F018
:101F50005FF88A4B9B7803F04003DBB2002B03D081
:101F60007B68FD2283F87620844B1A797B6883F89E
:101F70007820824B5A797B6883F87A207F4B9A7954
:101F80007B6883F87C207D4BDA797B6883F87E2040
:101F90007B68D3F8943003F08003002B00F0E680D8
:101FA0007B6893F86430092B05D07B6893F8643024
:101FB000082B40F0DB800023FB60714B5B78002B2B
:101FC00004D06F4B5A787B6883F876206C4B1B7D6E
:101FD00003F01F03DBB2002B0DD0694B1B7DC3F355
:101FE0000403DBB27B617B68083307F11402012133
:101FF000184601F00DF8634B93F85330C3F3031305
:10200000DBB2184600F006F9F8617B689B6EFA694E
:102010009A4202D97B689B6EFB617B681B68002B30
:1020200007D07B681B68FA699A4202D97B681B68F3
:10203000FB617B6803F108007B68996E07F10C0374
:10204000FA6900F073FF0346002B03D00D2387F8D5
:1020500027308CE03B6801221A70FB684A4A9342A1
:1020600013D9474B9B8903F478639BB2002B0CD0A8
:10207000434B9B89C3F3C413DBB27B61404B1B7B97
:10208000C3F38403DBB23B623BE0FB683F4A93420D
:1020900013D93B4BDB7C23F00703DBB2002B0CD0C6
:1020A000374BDB7CC3F3C403DBB27B61344B5B8A0D
:1020B000C3F38413DBB23B6223E0FB68344A9342F0
:1020C00013D92F4B9B7C03F03E03DBB2002B0CD0CB
:1020D0002B4B9B7CC3F34403DBB27B61284B1B6916
:1020E000C3F30433DBB23B620BE0254B1B8AC3F323
:1020F000C413DBB27B61224B1B7CC3F38403DBB2D2
:102100003B627B6893F85D30C82B0AD110237B615A
:102110007B68083307F114020121184600F078FFAC
:1021200025E07B68D3F8943003F40073002B17D0BC
:10213000184B93F8233023F07F03DBB2002B0FD032
:10214000396A786800F06CFA0346002B0FD17B687F
:10215000083307F114020121184600F059FF06E088
:102160000E2387F8273002E000BF00E000BF97F899
:10217000273018462C37BD46F0BD00BF1C03002495
:1021800024030024BC020024FFC1EB0B7FF5E4090B
:102190003F6BED073C030024F0B589B004AF7860D5
:1021A0003960FB23FB737B6893F86C30002B2BD0DA
:1021B0007B6803F108007B6893F86C407B6893F8B8
:1021C0006F301E467B6893F86E301A467B6893F832
:1021D0006D3002FA03F3DDB27B6893F86D301A4676
:1021E00001239340DBB27A6892F85D20396802914E
:1021F000019200932B463246214601F03AFB0346FA
:10220000002B01D10023FB7397F90F3018461437C8
:10221000BD46F0BDB0B48BB000AF78600E4B07F197
:102220000C041D460FCD0FC495E8070003C422809F
:102230007B68092B0AD87B685B0028333B4433F862
:102240001C3C1A46054B02FB03F300E00023184632
:102250002C37BD46B0BC704760CD000840420F002F
:1022600080B588B000AFF860B9607A600023FB7772
:1022700007F1140300221A605A60FB6803F108009A
:1022800007F114020823B96801F014F80346002B83
:1022900002D00323FB77D9E07B6800221A60FA7D25
:1022A0007B681A72BB7E1A047B7E1B0213433A7E44
:1022B0001A437B685A60FB7E002B10D0FB7E5BB21A
:1022C000002B0CDB3B7D03F00103002B03D07B686C
:1022D00001221A60BAE07B6802221A60B6E0FB7E37
:1022E0005BB2002B80F2AE803B7D03F00103002B3C
:1022F00002D17B6804221A60FB7EFF2B40F0A6808F
:102300003B7D0F2B4CDC002B24DA9EE0813B0D2B18
:1023100000F29B8001A252F823F000BFC123000805
:102320004B2400084B240008D12300084B2400084C
:102330004B240008EB230008F52300084B24000879
:102340004B240008132400084B240008272400080D
:10235000312400080F2B78D801A252F823F000BFD7
:10236000AB2300084B2400084B240008C9230008B5
:102370004B240008D9230008E12300084B2400085F
:102380004B240008FF230008092400084B24000800
:102390001D2400084B2400084B2400083B2400089F
:1023A0008E2B52DC812BB1DA4FE07B6808221A6059
:1023B000FB7D172B28BF1723DAB27B681A7245E022
:1023C0007B6810221A6041E07B6820221A603DE0A1
:1023D0007B6840221A6039E07B6880221A6035E011
:1023E0007B684FF480721A6030E07B684FF40072B3
:1023F0001A602BE07B684FF480621A6026E07B68ED
:102400004FF400621A6021E07B684FF480521A603A
:102410001CE07B684FF400521A6017E07B684FF4B1
:1024200080421A6012E07B684FF400421A600DE0AF
:102430007B684FF480321A6008E07B684FF400320A
:102440001A6003E00323FB7700E000BFFB7F184620
:102450002037BD4680BD00BF90B585B000AF786025
:102460000023FB736D4BDB78002B28D06B4B9B78E4
:102470003B726A4B5B787B72684B1B78BB72674B15
:10248000DB79FB72654B9B793B73644B5B797B73A8
:10249000624B1B79BB737B6803F10800397A5F4B91
:1024A000DB78013B9CB207F108035A1C234601F07C
:1024B000D3F80346002B02D00B23FB73A9E0574B44
:1024C000DB7A002B32D064217868FFF765FE034683
:1024D000002B02D00C23FB739BE0504B9B7A3B728A
:1024E0004E4B5B7A7B724D4B1B7ABB724B4BDB7B4B
:1024F000FB724A4B9B7B3B73484B5B7B7B73474B2D
:102500001B7BBB737B6803F10800397A434BDB7A92
:10251000013B9CB207F108035A1C234601F09CF8CA
:102520000346002B02D00B23FB7372E03B4BDB7C9A
:10253000002B32D064217868FFF72EFE0346002B73
:1025400002D00C23FB7364E0344B9B7C3B72334B17
:102550005B7C7B72314B1B7CBB72304BDB7DFB7237
:102560002E4B9B7D3B732D4B5B7D7B732B4B1B7DE0
:10257000BB737B6803F10800397A284BDB7C013B95
:102580009CB207F108035A1C234601F065F8034684
:10259000002B02D00B23FB733BE0204BDB7E002B98
:1025A00032D064217868FFF7F7FD0346002B02D094
:1025B0000C23FB732DE0194B9B7E3B72174B5B7E0C
:1025C0007B72164B1B7EBB72144BDB7FFB72134B73
:1025D0009B7F3B73114B5B7F7B73104B1B7FBB73EC
:1025E0007B6803F10800397A0C4BDB7E013B9CB21F
:1025F00007F108035A1C234601F02EF80346002B6E
:1026000002D00B23FB7304E07B680833184601F00B
:1026100069FAFB7B18461437BD4690BDAC03002415
:10262000F0B58BB004AF786039606D4BFB60002370
:10263000FB7500233B816B4B93F8233003F01003B1
:10264000DBB2002B0AD1674B93F8233023F07F03D2
:10265000DBB2002B02D00C23FB75BBE0614B93F87F
:10266000233003F00803DBB2002B05D05D4B93F859
:1026700022301B023B610BE07B6893F85D30C82B76
:1026800002D101233B6103E0564B93F822303B61BA
:102690007B6803F10800534B93F821107B6893F893
:1026A0005D3007F1080201930223009313463A6953
:1026B00001F07AF80346002B02D00C23FB7589E069
:1026C0007B6803F108007B6893F8701000230022F8
:1026D00000F0C2FF0346002B02D00C23FB7579E00B
:1026E0007B6803F108007B6893F871107B6893F8AE
:1026F00074301E467B6893F87330002B01D10123A0
:1027000000E000237A6892F872209340DCB27B6884
:1027100093F872301A4601239340DBB27A6892F83C
:102720005D204FF47A75029501920093234632465C
:1027300001F09FF80346002B02D00C23FB7549E003
:102740003B7A5AB2274B93F82330C3F34113DBB2E1
:1027500018333B4413F80C3C1946224B93F82330B2
:10276000C3F30203DBB201FA03F35BB2DB435BB2F8
:1027700013405BB2DBB23B723A7A1A4B93F82330C8
:10278000C3F30203DBB219463B688B40DBB2134351
:10279000DBB23B723B7A7B727B6803F10800114B22
:1027A00093F8201007F10803022200923A6900F022
:1027B000C9FE0346002B02D00C23FB750AE06421FE
:1027C0007868FFF7E9FC0346002B02D00C23FB7569
:1027D00000E000BFFB7D18461C37BD46F0BD00BFC2
:1027E00003070F1F3C03002480B584B000AF78605E
:1027F0000F23FB73594B93F83E30C3F30213DBB244
:10280000072B00F2A48001A252F823F04F29000800
:102810004F2900082D2800084F290008AD2800087E
:102820004F2900084F2900084F2900087B6803F151
:1028300008007B6893F870100023002200F060FF0E
:102840000346002B02D00C23FB7381E07B6803F16D
:10285000080007F10C020123052100F051FF034697
:10286000002B02D00C23FB7372E03B7B43F0400350
:10287000DBB23B737B6803F1080007F10C02012314
:10288000012100F0E9FE0346002B02D00C23FB736C
:102890005EE064217868FFF77FFC0346002B02D0DE
:1028A0000C23FB7354E00023FB7351E07B6803F1BE
:1028B000080007F10C020223052100F021FF034666
:1028C000002B02D00C23FB7342E07B7B43F002031E
:1028D000DBB27B737B6803F108007B6893F87010B0
:1028E0000023002200F00CFF0346002B02D00C2333
:1028F000FB732DE07B6803F1080007F10C02022353
:10290000012100F0A9FE0346002B02D00C23FB732B
:102910001EE064217868FFF73FFC0346002B02D0DD
:102920000C23FB7314E0FF237B737B6803F1080027
:1029300007F10C020223052100F0E2FE0346002B02
:1029400002D00C23FB7303E00023FB7300E000BF05
:10295000FB7B18461037BD4680BD00BFBC0200247B
:1029600080B584B000AF78600F23FB730023BB7386
:102970001A4B9B8FC3F30413DBB203F00103002B4C
:1029800007D07868FFF730FF0346FB733823BB732B
:102990000FE0124B9B8FC3F30413DBB203F004036D
:1029A000002B06D07868FFF71FFF0346FB73352323
:1029B000BB73FB7B002B0CD1BB7B002B09D07B684E
:1029C00003F10800B97B0023002200F099FE0023E8
:1029D000FB73FB7B18461037BD4680BDBC0200244C
:1029E00080B584B000AF786039600423FB733B6826
:1029F0000E4A934206D03B680D4A93420ED1002303
:102A0000FB730EE07B6808330021184601F032F8B2
:102A10000346002B04D10523FB7301E000BF00E057
:102A200000BFFB7B18461037BD4680BD465350445F
:102A30005346445080B58AB000AFF8607A603B607E
:102A40000B46FB72002387F827300023FB763B6898
:102A5000083398220021184609F036FA3B68FA7AC2
:102A600083F85C203B68002283F864203B687A6826
:102A70009A663B68082283F859203B680833F96856
:102A8000184600F092FA3B6803F1080007F11003C2
:102A9000414A796800F04AFA3B680833184600F06A
:102AA000D8FF07F11C0319463868FEF70DFB0346F3
:102AB000002B03D0FF2387F8273067E03868FEF744
:102AC0003DFC0A2002F0A4F807F11C0319463868FF
:102AD000FEF7FAFA0346002B03D0FF2387F82730CE
:102AE00054E097F82230092B04D93B68092283F877
:102AF0009C2004E097F822203B6883F89C2097F8FC
:102B000023203B6883F89D203B68083307F11401BC
:102B10000422184600F02EFC3A7D3B6883F85D20C5
:102B20003868FEF72FFB0346002B03D0FF2387F8FE
:102B300027302BE007F11B0319463868FEF7DAFC53
:102B40000346002B03D0FD2387F827301EE0FB7ED1
:102B5000002B0DD13B681B68002B09D03B6803F1AB
:102B600008003B681A6807F11003796800F0DEF985
:102B700007F11C0319463868FEF768FA0346002B74
:102B800003D0F22387F8273000E000BF97F9273001
:102B900018462837BD4680BD80F0FA0280B588B05F
:102BA00002AFF860B9607A603B6041F28831F86842
:102BB000FFF7F2FA0346FB7597F91730002B11D196
:102BC000FB6803F10800FB6893F876103B680093FC
:102BD0007B68BA6800F04EFC0346002B04D0FE234D
:102BE000FB7502E000BF00E000BF97F91730184600
:102BF0001837BD4680BD80B58CB002AFF860B960B3
:102C00007A603B603B68FB61BB68BB617B687B6152
:102C100000233B61FB681A6EBB69B3FBF2F101FB59
:102C200002F29B1A002B59D001233B6156E03B690D
:102C3000012B14D1FB68196EFB681A6EBB69B3FBDC
:102C4000F2F000FB02F29B1ACB1A3B623A6AFB6974
:102C5000934228BF13463B6200233B6106E0FB68BA
:102C60001B6EFA69934228BF13463B6241F28831DA
:102C7000F868FFF791FA034687F8273097F927306D
:102C8000002B37D14FF49671F86800F004F9034631
:102C900087F8273097F92730002B2DD1FB6803F1F7
:102CA0000800FB6893F875107A693B6A0093134635
:102CB000BA6900F047FC0346002B03D0F92387F8DC
:102CC00027301AE0FA693B6AD31AFB61BA693B6A9A
:102CD0001344BB617A693B6A13447B61FB69002B37
:102CE000A5D141F28831F868FFF756FA034687F814
:102CF000273002E000BF00E000BF97F927301846F8
:102D00002837BD4680BD000080B586B000AFF860B2
:102D1000B9601346FB71FB79032B3FD801A252F82F
:102D200023F000BF352D00084F2D0008692D000845
:102D3000832D0008FB6893F87830BB75FB6893F827
:102D400077307B75FB68D3F880303B6129E0FB6806
:102D500093F87A30BB75FB6893F879307B75FB6824
:102D6000D3F884303B611CE0FB6893F87C30BB7582
:102D7000FB6893F87B307B75FB68D3F888303B6148
:102D80000FE0FB6893F87E30BB75FB6893F87D30ED
:102D90007B75FB68D3F88C303B6102E0F823FB7550
:102DA0003CE0BB7D002B02D1F723FB7536E07B7D39
:102DB0004FF0FF3202FA03F3DA43BB681340002BF3
:102DC00002D0F623FB7529E041F28831F868FFF75D
:102DD000E3F90346FB7597F91730002B1BD14FF42D
:102DE0009671F86800F057F80346FB7597F91730AD
:102DF000002B12D1FB680833B97DBA68184600F081
:102E0000EAFB3969F868FFF7C7F90346FB7597F9DC
:102E10001730002B02E000BF00E000BF97F9173029
:102E200018461837BD4680BD90B587B002AF7860B0
:102E30000023FB737B6803F108007B6893F876102E
:102E40007B681B6DDAB27B6893F8753000240094C0
:102E500000F088FD0346002B01D0F323FB7397F9A4
:102E60000F3018461437BD4690BD80B584B000AF12
:102E700078600023FB737B680833184600F0E9FD97
:102E80000346002B01D0F323FB7397F90F3018464C
:102E90001037BD4680BDF0B589B004AF78603960A9
:102EA000FA23FB737B6803F108007B6893F87010CA
:102EB0000023002200F0D0FB7B6893F87130002BD8
:102EC0002ED07B6803F108007B6893F871407B6823
:102ED00093F874301E467B6893F87330002B01D151
:102EE000012300E000237A6892F872209340DDB25B
:102EF0007B6893F872301A4601239340DBB27A68FC
:102F000092F85D2039680291019200932B46324677
:102F1000214600F0AEFC0346002B01D10023FB73D9
:102F200097F90F3018461437BD46F0BD80B487B00E
:102F300000AFF860B9607A603B600023FB757B6886
:102F4000002B02D10123FB7528E0BA687B68B2FB35
:102F5000F3F33B613B69002B0DD0BA683B69B2FBD0
:102F6000F3F23B681A603B681B687A689A4202D3A6
:102F70003B69013B3B613B690133BA68B2FBF3F249
:102F80003B681A60FB681B681B68DB6823F0FF0165
:102F9000FB681B681B683A690A43DA60FB7D1846C8
:102FA0001C37BD465DF8047B704780B596B000AF16
:102FB0007860396007F10C034C220021184608F0B4
:102FC00083FF5A237B610123BB614FF48073BB6293
:102FD0004FF40053FB624FF080737B6408233B6522
:102FE0007B683A681A607B68043307F10C014C2255
:102FF000184608F0EEFF7B68002283F850207B68BB
:10300000002283F85220002318465837BD4680BD61
:1030100080B598B000AFF8600B467A60FB72002371
:1030200087F85F30FB6807F1100004334C22194623
:1030300008F0CFFFFB7A042B00F22A8101A252F89C
:1030400023F000BF593000088132000853320008D5
:10305000913200085B3200087B681A78FB6883F8BD
:103060005220FB6893F852300B2B00F2ED8001A246
:1030700052F823F0A5300008A5300008A53000085C
:10308000A5300008D5300008D5300008053100080B
:1030900039310008693100089F310008D531000836
:1030A0000F3200080123FB6100233B6200237B6297
:1030B0004FF48073FB624FF400533B6300237B6348
:1030C0004FF08073BB6400233B6508237B650023BE
:1030D000BB65BDE00323FB6100233B6200237B62F1
:1030E0004FF44073FB6200237B634FF400533B6358
:1030F0004FF04073BB6400233B6506237B650023D0
:10310000BB65A5E00323FB6100233B6208237B62D0
:103110004FF44073FB624FF400533B634FF4006382
:103120007B634FF04073BB644FF000633B65062345
:103130007B650023BB658BE00123FB6100233B62C1
:1031400000237B624FF48063FB624FF440533B6388
:1031500000237B634FF08063BB6400233B6508233F
:103160007B650023BB6573E00423FB6100233B62A6
:1031700000237B624FF48063FB624FF440533B6358
:103180004FF400637B634FF08063BB644FF00063D8
:103190003B6508237B654FF00053BB6558E0042373
:1031A000FB6110233B6208237B624FF48063FB6268
:1031B0004FF440533B634FF400637B634FF08063F5
:1031C000BB644FF000633B6514237B654FF00053F5
:1031D000BB653DE00423FB6100233B6200237B626F
:1031E0004FF48063FB624FF440533B634FF4006342
:1031F0007B630023FB634FF08063BB644FF000638D
:103200003B650A237B654FF00053BB6520E0042338
:10321000FB6100233B6200237B624FF48063FB620F
:103220004FF440533B634FF400637B630023FB6325
:103230004FF0A063BB644FF000633B650A237B65DE
:103240004FF00053BB6503E0012387F85F3000BFF8
:1032500022E04FF440533B631EE07B681B7887F805
:103260005E30FB681B681B689B6823F4F81197F8B5
:103270005E301A04FB681B681B680A439A600BE007
:103280007B681B7887F85D3097F85D307B6503E0DD
:10329000012387F85F3000BFFB68043307F110019A
:1032A0004C22184608F095FE97F85F3018466037B4
:1032B000BD4680BD80B598B000AFF860B9607A6057
:1032C0003B60FB6807F1100004334C22194608F0FC
:1032D00080FEFB6893F85030396A5A22184600F095
:1032E0000FFC0346BB61BB68BB623B68FB64FB68C9
:1032F00093F851307B65FB6AB3F5807F03D0FB6A9E
:10330000B3F5407F02D14FF400533B633B6DB3F103
:10331000006F03D14FF00053BB6501E00023BB6594
:10332000FB681B6807F110016422184607F068FA71
:10333000034687F85F3097F85F30002B0AD1FB68AF
:103340001B6864227968184607F05DFB034687F81E
:103350005F3000E000BF97F85F30002B04D0FB68BF
:103360001B68184607F0CAFC97F85F3018466037AC
:10337000BD4680BD80B598B000AFF860B9607A6096
:10338000FB6807F1100004334C22194608F021FEB7
:10339000FB6893F85030396A9F22184600F0B0FB62
:1033A0000346BB617B68FB64FB69012B07D10023EB
:1033B000FB6200237B654FF08073BB6430E0FB69E8
:1033C000032B07D10023FB6200237B654FF0407382
:1033D000BB6425E0FB69042B1ED10023BB62BB68E4
:1033E0001B78C22B08D13B6DB3F1006F04D10423CD
:1033F0007B6500233B6513E0BB681B78C82B08D1B5
:103400003B6DB3F1006F04D108237B650023FB62A1
:1034100006E008237B6503E00023BB6208237B658D
:10342000FB681B6807F110016422184607F0E8F9F1
:10343000034687F85F3097F85F30002B0AD1FB68AE
:103440001B686422B968184607F0DDFA034687F85E
:103450005F3000E000BF97F85F30002B04D0FB68BE
:103460001B68184607F04AFC97F85F30184660372B
:10347000BD4680BD80B598B000AFF8607A603B6013
:103480000B46FB72FB6807F1100004334C2219460F
:1034900008F09FFDFB6893F85030396AFA7A1846B5
:1034A00000F02EFB0346BB617B68BB62BB6EFB6416
:1034B000FB6893F85230052B06D0052B1ADC012B44
:1034C00014D0022B0BD015E04FF400637B634FF058
:1034D00000633B65FB6893F853307B650BE04FF46A
:1034E0000073FB624FF00073BB6404E04FF00073A5
:1034F000BB6400E000BFFB681B6807F11001642299
:10350000184607F07DF9034687F85F3097F85F307B
:10351000002B07D13968F86800F02EFB034687F8C6
:103520005F3000E000BF97F85F30002B04D0FB68ED
:103530001B68184607F0E2FB97F85F3018466037C3
:10354000BD4680BD80B598B000AFF8607A603B6042
:103550000B46FB72FB6807F1100004334C2219463E
:1035600008F037FDFB6893F85030396AFA7A18464C
:1035700000F0C6FA0346BB617B68BB62BB6EFB64AE
:1035800000237B650023BB65FB681B6807F1100106
:103590006422184607F034F9034687F85F3097F83D
:1035A0005F30002B07D13968F86800F0D2FA034683
:1035B00087F85F3000E000BF97F85F30002B04D041
:1035C000FB681B68184607F099FB97F85F301846B0
:1035D0006037BD4680BD80B598B000AFF8600B463F
:1035E0007A60FB72FB6807F1100004334C22194625
:1035F00008F0EFFCFB6893F85030396AFA7A184605
:1036000000F07EFA0346BB61FB69012B02D14FF447
:103610008073FB627B68BB6200237B650023BB6415
:103620000023BB65FB681B6807F110016422184684
:1036300007F0E6F8034687F85F3097F85F30002B15
:1036400004D0FB681B68184607F058FB97F85F30FA
:1036500018466037BD4680BD80B598B000AFF860B1
:103660007A601A460B46FB7213463B81FB6807F1F2
:10367000100004334C22194608F0ABFCFB6893F8A9
:103680005030396AFA7A184600F03AFA0346BB61BC
:103690000023FB6200237B653B89FB640023BB6541
:1036A0003B89002B01D10023BB64FB681B6807F139
:1036B00010016422184607F0A3F8034687F85F302C
:1036C00097F85F30002B0CD13B89002B09D0FB68A9
:1036D0001B6864227968184607F022F9034687F8C8
:1036E0005F3097F85F30002B04D0FB681B681846EA
:1036F00007F004FB97F85F3018466037BD4680BD81
:1037000080B598B000AFF8607A601A460B46FB723D
:1037100013463B81FB6807F1100004334C22194625
:1037200008F057FCFB6893F85030396AFA7A18466B
:1037300000F0E6F90346BB610023FB6200237B65D2
:103740003B89FB640023BB653B89002B01D100232F
:10375000BB64FB681B6807F110016422184607F080
:103760004FF8034687F85F3097F85F30002B0CD195
:103770003B89002B09D0FB681B68642279681846D6
:1037800007F041F9034687F85F3097F85F30002B68
:1037900004D0FB681B68184607F0B0FA97F85F3052
:1037A00018466037BD4680BD80B598B000AFF86060
:1037B0007A603B600B46FB72FB6807F11000043334
:1037C0004C22194608F005FCFB6893F85030396A22
:1037D000FA7A184600F094F90346BB617B68BB6235
:1037E000FB6893F851307B65B7F86830FB6497F855
:1037F0006C30C22B06D13B6DB3F1006F02D10023B8
:103800003B650EE097F86C30C82B08D13B6DB3F1E7
:10381000006F04D100233B650023BB6501E000235A
:10382000BB65FB681B6807F110016422184606F0AF
:10383000E7FF034687F85F3097F85F30002B09D128
:10384000FB681B6864223968184607F0DCF80346F9
:1038500087F85F3097F85F30002B04D0FB681B6857
:10386000184607F04BFA97F85F3018466037BD46A8
:1038700080BD80B59EB000AFF8607A601A460B46F6
:10388000FB721346BB72FB6807F1280004334C221D
:10389000194608F09EFBBB7A7B6197F88030BB61CC
:1038A0000023FB614FF480033B6210237B62FB68C3
:1038B00093F85030B96BFA7A184600F021F90346B4
:1038C0003B6301237B6600233B677B6B012B06D1A7
:1038D0004FF080733B6600237B640023FB663B6EE6
:1038E000B3F1806F14D197F88430C22B08D1BB6E2E
:1038F000B3F1006F04D14FF000533B670023BB6668
:103900004FF480637B644FF44053BB647B683B643B
:10391000FB681B6807F128016422184606F070FF57
:10392000034687F8773097F87730002B0BD1FB6888
:103930001B6807F11401D7F88820184607F006F92C
:10394000034687F8773097F87730002B04D0FB6870
:103950001B68184607F0D2F997F877301846783781
:10396000BD4680BD80B598B000AF7860084611466E
:103970001A460346FB700B46BB7013467B707B6890
:1039800007F1100004334C22194608F022FB07F11E
:10399000080300221A605A6001233B617B6893F898
:1039A0005030396AFA78184600F0AAF80346BB612D
:1039B000BB787B657B681B6807F1100164221846A1
:1039C00006F01EFF034687F85F3097F85F30002B44
:1039D0002DD102233B617B6893F85030396A7A78A5
:1039E000184600F08DF80346BB6197F868307B6598
:1039F0007B681B6807F110016422184606F000FF7F
:103A0000034687F85F3097F85F30002B11D1002311
:103A1000BB605023FB607B681B6807F108021146FE
:103A2000184607F01DF9034687F85F3002E000BF33
:103A300000E000BF97F85F30002B04D07B681B6864
:103A4000184607F05BF997F85F3018466037BD46B7
:103A500080BD80B582B000AF7860BFF34F8F00BFEC
:103A60007B681B68184607F049F903461846083773
:103A7000BD4680BD80B485B000AF78600B46FB705A
:103A80000023FB737B681B681B689B6803F0E06383
:103A9000BB60FB78002B1ED1BB68002B03D14FF01D
:103AA0008073BB6008E0BB68B3F1807F02D1002364
:103AB000BB6001E00123FB737B681B681B689B688C
:103AC00023F0E0617B681B681B68BA680A439A6050
:103AD00000BFFB7B00E0012318461437BD465DF8AC
:103AE000047B704780B582B000AF78607B681B684C
:103AF000184607F003F9034618460837BD4680BD4F
:103B000080B485B000AF03463960FB711346BB71CA
:103B10003B68102B14D1BB799BB21B02FB81FB7954
:103B2000012B07D1BB79DB43DBB21A46FB89134378
:103B3000FB8107E0BB799AB2FB891343FB8101E06B
:103B4000BB79FB81FB8918461437BD465DF8047BC1
:103B5000704780B584B000AF786039607B681B68BF
:103B600064223968184606F0DBFE0346FB73FB7BD4
:103B700018461037BD4680BD80B584B000AF786070
:103B800039607B681B6864223968184606F03BFF81
:103B90000346FB73FB7B18461037BD4680BD80B5DE
:103BA000B0B000AF07F124039C220021184608F0B2
:103BB0008BF93B1D20220021184608F085F90120D1
:103BC00001F07AFE0346002B14BF01230023DBB271
:103BD000002B01D000F0EEFC02237B6201233B634B
:103BE00000237B634023BB630223BB640023FB648D
:103BF00020233B654FF496737B650123BB6502234D
:103C0000FB6502233B6602237B660223BB6600231F
:103C1000FB6602233B6700237B670423BB671923F2
:103C2000FB670223C7F880300223C7F884300223E1
:103C3000C7F888300223C7F88C300223C7F89030C9
:103C40000023C7F894300023C7F8983007F1240305
:103C5000184601F069FE0346002B14BF0123002320
:103C6000DBB2002B01D000F0A5FC3F237B600323D7
:103C7000BB600023FB6008233B6104237B6140237E
:103C8000BB614FF48063FB614FF480433B623B1D9B
:103C90003721184602F082F90346002B14BF012396
:103CA0000023DBB2002B01D000F084FC00BFC03742
:103CB000BD4680BD80B586B000AF3B1D00221A60B6
:103CC0005A609A60DA6001F05FF90023FB7506E044
:103CD000FB7D184601F076F9FB7D0133FB75FB7D1A
:103CE0000F2BF5D901233B7100237B710023BB60AF
:103CF0001F233B7387237B730023BB730023FB735A
:103D000001233B7400237B740023BB740023FB74EA
:103D10003B1D184601F06CF901237B714FF0E04325
:103D2000BB601A233B7300237B730123BB73032304
:103D3000FB7300233B7400237B740123BB740123BA
:103D4000FB743B1D184601F053F902237B714FF0C1
:103D50004053BB600E233B7300237B730023BB7374
:103D60000323FB7301233B7400237B740023BB7488
:103D70000023FB743B1D184601F03AF9042001F0C2
:103D8000E1F800BF1837BD4680BD000080B588B09F
:103D900000AF1B4BD3F84831194A43F48023C2F8D3
:103DA0004831174BD3F84831BB60BB68144BD3F88C
:103DB0004031134A43F00803C2F84031104BD3F8A6
:103DC00040317B607B6807F10C0300221A605A6067
:103DD0009A60DA601A614FF44073FB6002233B6122
:103DE00000237B610023BB610723FB6107F10C0308
:103DF0001946044801F064FB00BF2037BD4680BD72
:103E000000440258000C025880B584B000AFFFF7A0
:103E100051FF434B5B6903F40033002B14BF0123B4
:103E20000023DBB2002B1BD1BFF34F8F00BFBFF3CA
:103E30006F8F00BF3A4B0022C3F85022BFF34F8F61
:103E400000BFBFF36F8F00BF354B5B69344A43F44B
:103E500000335361BFF34F8F00BFBFF36F8F00E09C
:103E600000BF2F4B5B6903F48033002B14BF012389
:103E70000023DBB2002B42D1294B0022C3F884205F
:103E8000BFF34F8F00BF264BD3F88030FB60FB6839
:103E90005B0BC3F30E03BB60FB68DB08C3F30903D2
:103EA0007B60BB685A0143F6E07313407A6892075F
:103EB0001B491343C1F860327B685A1E7A60002B9D
:103EC00014BF01230023DBB2002BEAD1BB685A1ECA
:103ED000BA60002B14BF01230023DBB2002BDBD11F
:103EE000BFF34F8F00BF0E4B5B690D4A43F4803325
:103EF0005361BFF34F8F00BFBFF36F8F00E000BF70
:103F000000F011FEFFF74BFE00F01CFAFFF73EFF3A
:103F1000044800F09DFC00BF1037BD4680BD00BFC7
:103F200000ED00E0CC03002480B400AF024B184643
:103F3000BD465DF8047B7047CC03002480B586B095
:103F400000AF134BD3F84031114A43F00203C2F8DB
:103F500040310F4BD3F840313B603B683B1D0022A2
:103F60001A605A609A60DA601A6180237B600123CC
:103F7000BB600023FB6000233B613B1D19460548E5
:103F800001F09EFA044B18461837BD4680BD00BFAD
:103F900000440258000402587004002480B483B026
:103FA00000AF7860044A7B681A607B6818460C375B
:103FB000BD465DF8047B704714D9000880B582B017
:103FC00000AF78607868FFF7E9FF0421786807F0B0
:103FD0008EFA7B6818460837BD4680BD80B582B032
:103FE00000AF7860054A7B681A607B681846FFF767
:103FF000D5FF7B6818460837BD4680BD6CD90008E0
:1040000080B582B000AF78607868FFF7E7FF98214D
:10401000786807F06CFA7B6818460837BD4680BDA3
:1040200080B483B000AF7860044A7B681A607B6814
:1040300018460C37BD465DF8047B70472CD9000844
:1040400080B582B000AF78607868FFF7E9FF04219F
:10405000786807F04CFA7B6818460837BD4680BD83
:1040600080B582B000AF7860054A7B681A607B68D3
:104070001846FFF7D5FF7B6818460837BD4680BD58
:104080004CD9000880B582B000AF78607868FFF73F
:10409000E7FF0C21786807F02AFA7B681846083792
:1040A000BD4680BD80B500AF4FF4E13219491A48D2
:1040B00000F092FB194A1A49174807F013FA4FF417
:1040C00080621849184800F015FB144A1749164831
:1040D00007F008FA80221649164800F00BFB0F4A39
:1040E0001249144807F0FEF94FF400520D491248E6
:1040F00000F000FB094A0D490F4807F0F3F90F489B
:1041000000F01CFC054A0E490C4807F0EBF900BF13
:1041100080BD00BF00480040CC0300240000002404
:10412000DD3F0008000C02586404002461400008D0
:1041300000040258700400247C0400248804002435
:104140007949000880B500AFFFF7ACFF80BD0000E3
:1041500080B5A8B000AF3B1D9C220021184607F097
:10416000B3FE022001F056FB0346002B01D000F005
:1041700021FA1A4BD3F85431184A43F00203C2F81B
:104180005431164BD3F854313B603B6801F0BCFB13
:1041900010237B6080237B623B1D184601F0C4FB2B
:1041A0000346002B01D000F005FA00230022002175
:1041B000102000F07BFD102000F04EFD00BF4FF4FA
:1041C000806000F05DFD0346012BF8D14FF48020A4
:1041D00000F0C0FD00BFA037BD4680BD00440258BE
:1041E00080B5B0B000AF786007F1AC0300221A6070
:1041F0005A609A60DA601A6107F118039022002170
:10420000184607F061FE7B681B682B4A93424ED12B
:104210004FF004024FF00003C7E906234023BB62BE
:1042200007F11803184602F0F9FD0346002B01D0F0
:1042300000F0C0F9214BD3F83431204A43F48043D5
:10424000C2F834311D4BD3F834317B617B691B4B91
:10425000D3F83431194A43F48053C2F83431174B40
:10426000D3F834313B613B69144BD3F84031134AE6
:1042700043F40053C2F84031104BD3F84031FB6097
:10428000FB6840F67F73C7F8AC300223C7F8B03044
:104290000023C7F8B4300323C7F8B8300923C7F8A0
:1042A000BC3007F1AC031946054801F009F900BF1D
:1042B000C037BD4680BD00BF00A000520044025878
:1042C000003402580D48854600F026F80C480D4988
:1042D0000D4A002302E0D458C4500433C4188C4261
:1042E000F9D30A4A0A4C002301E013600432A242C7
:1042F000FBD307F047FEFCF74DFCFEE70000012072
:1043000000000024C401002414DA0008C4010024C1
:1043100008060024FEE7000080B400AF074B084AFF
:104320009A60064BD3F88830044A43F47003C2F80D
:10433000883000BFBD465DF8047B704700ED00E0AB
:104340000000000880B489B000AF924B1B6903F0F5
:104350003803182B00F2FB8001A252F823F000BFB3
:10436000C54300084F4500084F4500084F45000869
:104370004F4500084F4500084F4500084F450008CD
:10438000D94300084F4500084F4500084F45000835
:104390004F4500084F4500084F4500084F450008AD
:1043A000DF4300084F4500084F4500084F4500080F
:1043B0004F4500084F4500084F4500084F4500088D
:1043C000E5430008734B1B68DB0803F00303724AE4
:1043D00022FA03F3FB61C4E0704BFB61C1E0704B58
:1043E000FB61BEE06B4B9B6A03F003033B61694BCF
:1043F0009B6A1B0903F03F03FB60664BDB6A03F01B
:104400000103002B0BD0634B5B6BDB08C3F30C0386
:1044100007EE903AF8EE677AC7ED067A02E04FF0C1
:104420000003BB61FB68002B00F08E803B69012B11
:1044300024D03B69022B43D1FB6807EE903AF8EE9B
:10444000677ADFED586A86EEA77A524B1B6BC3F38F
:10445000080307EE903AF8EE676A97ED066ADFED1B
:10446000525AC6EE257A76EEA77AF7EE006A77EE14
:10447000A67A67EE277AC7ED057A4FE0FB6807EE6C
:10448000903AF8EE677ADFED496A86EEA77A414BFB
:104490001B6BC3F3080307EE903AF8EE676A97EDDB
:1044A000066ADFED415AC6EE257A76EEA77AF7EE78
:1044B000006A77EEA67A67EE277AC7ED057A2DE0D7
:1044C000344B1B68DB0803F00303334A22FA03F37F
:1044D000BB60BB6807EE903AF8EE676AFB6807EED0
:1044E000903AF8EE677A86EEA77A2A4B1B6BC3F3F5
:1044F000080307EE903AF8EE676A97ED066ADFED7B
:104500002A5AC6EE257A76EEA77AF7EE006A77EE9B
:10451000A67A67EE277AC7ED057A00BF1D4B1B6BA5
:104520005B0A03F07F0301337B607B6807EE903A00
:10453000B8EE677AD7ED056AC6EE877AFCEEE77AC1
:1045400017EE903AFB610CE00023FB6109E0114B90
:104550001B68DB0803F003030F4A22FA03F3FB6135
:1045600000BF0C4B9B6903F00F033B603B68072BBC
:1045700007D93B68073BFA6922FA03F30C4A136038
:1045800002E00B4AFB69136000BF2437BD465DF8AB
:10459000047B7047004402580090D00300093D009E
:1045A00000366E01001BB74B000000460024744A21
:1045B0005C01002480B400AF72B600BF00BFFDE70D
:1045C00080B500AF00F004FB00BF80BD80B58AB0AD
:1045D00000AF78607B681B687B627B685B683B62CE
:1045E0007B689B68FB617B68DB68BB617B681B69E0
:1045F0007B617B685B693B617B689B69FB607B6877
:10460000DB69BB601C4807F0CBFA1C4807F0C8FA0E
:10461000F9681B4807F05CFA39691A4807F058FA3C
:104620003A6A796A184807F053FABA69F96917487B
:1046300007F04EFABA687969154807F049FA154B40
:104640009B6A1946144807F043FA124BDB6A194675
:10465000124807F03DFA0F4B5B6B1946104807F004
:1046600037FA0C4B9B6B19460E4807F031FA0E488F
:1046700007F096FA00BFFDE77CCD0008A8CD000842
:10468000C4CD0008D4CD0008E4CD000804CE000855
:1046900024CE000800ED00E044CE00085CCE000807
:1046A00074CE00088CCE0008A4CE00081EF0040FC3
:1046B0000CBFEFF30880EFF30980FFF787BF00BF5F
:1046C000FFF7F4FF00BFFFF7F1FF00BFFFF7EEFFBA
:1046D00000BF000080B483B000AF7860044A7B68FC
:1046E0001A607B6818460C37BD465DF8047B70473E
:1046F0002CD9000880B584B000AFF860B9601346CB
:10470000FB80FB681846FFF7E5FF074AFB681A6065
:10471000FB68BA685A60FB68FA881A81FB68184619
:104720001037BD4680BD00BF4CD9000880B582B0AF
:1047300000AF78607B6858687B681B890122194646
:1047400001F036F800BF0837BD4680BD80B582B0A5
:1047500000AF78607B6858687B681B890022194627
:1047600001F026F800BF0837BD4680BD80B582B095
:1047700000AF78607B685A687B681B8919461046D1
:1047800001F02EF800BF0837BD4680BD80B582B06D
:1047900000AF78607B685A687B681B8919461046B1
:1047A00000F0EEFF0346012B0CBF01230023DBB218
:1047B00018460837BD4680BD80B483B000AF78602E
:1047C000044A7B681A607B6818460C37BD465DF862
:1047D000047B704714D9000880B584B000AFF8603E
:1047E000B9607A60FB681846FFF7E6FF174AFB6876
:1047F0001A60FB68043394220021184607F064FB1A
:10480000FB68BA685A60FB687A689A60FB680022A5
:10481000DA60FB6800221A61FB6800225A61FB68BB
:104820000C229A61FB680022DA61FB6800221A629E
:10483000FB6800225A62FB6800229A62FB68002231
:10484000DA62FB6818461037BD4680BD6CD9000897
:1048500080B582B000AF78607B680433184604F0FE
:104860006FFF0346002B0CBF01230023DBB2184669
:104870000837BD4680BD80B584B000AFF860B96030
:104880007A60FB68181D7B689AB24FF0FF33B968F5
:1048900004F0B0FF0346002B0CBF01230023DBB262
:1048A00018461037BD4680BD80B584B000AFF860B3
:1048B000B9607A60FB68181D7B689AB24FF0FF33CD
:1048C000B96805F030F80346002B0CBF0123002324
:1048D000DBB218461037BD4680BD000080B483B0FF
:1048E00000AF7860044A7B681A607B6818460C3712
:1048F000BD465DF8047B7047A0D9000880B483B042
:1049000000AF7860044A7B681A607B6818460C37F1
:10491000BD465DF8047B7047A0D9000880B582B021
:1049200000AF78607868FFF7E9FF0421786806F047
:10493000DEFD7B6818460837BD4680BD80B582B075
:1049400000AF78607B681846FFF7C8FF094A7B68AC
:104950001A607B68043324220021184607F0B4FA59
:104960007B68002283F828207B6818460837BD46FC
:1049700080BD00BF84D9000880B582B000AF7860E8
:10498000074A7B681A60786800F0B7F87B681846B9
:10499000FFF7B4FF7B6818460837BD4680BD00BFEF
:1049A00084D9000880B582B000AF78607868FFF7DE
:1049B000E3FF2C21786806F09AFD7B6818460837DB
:1049C000BD4680BD80B586B000AF78607B6893F847
:1049D0002830002B01D0012363E0344BD3F854314D
:1049E000324A43F08063C2F85431304BD3F854312B
:1049F000FB60FB687B68043324220021184607F023
:104A000063FA7B682A4A5A607B6800229A607B6856
:104A10000022DA607B6800221A617B684FF4702202
:104A20005A6101F0E1FD38613B69224A934205D9A0
:104A30003B69214AA2FB03239B0C00E001237B611D
:104A40007B697F2B01D97F237B617B687A699A61BF
:104A50007B680022DA617B6800221A627B6804337B
:104A6000184600F087FB0346002B14BF01230023E8
:104A7000DBB2002B01D0002313E07B68043318461F
:104A800000F01CFC0346002B14BF01230023DBB203
:104A9000002B01D0002304E07B68012283F828204A
:104AA000012318461837BD4680BD00BF0044025898
:104AB0000068005840420F0083DE1B4380B582B07F
:104AC00000AF786039607B6893F8283083F0010389
:104AD000DBB2002B01D000230BE07B680433396884
:104AE000184600F06FFC0346002B0CBF0123002387
:104AF000DBB218460837BD4680BD80B582B000AF36
:104B000078607B6893F82830002B08D07B680433EA
:104B1000184600F020FC7B68002283F8282000BFA4
:104B20000837BD4680BD80B582B000AF0023FB7161
:104B3000032000F0D5F90F2000F00EF80346002BFB
:104B400002D00123FB7101E0FFF702FBFB7918465D
:104B50000837BD4680BD000080B584B000AF7860E6
:104B60000023FB73174B1B78002B23D0164B1A68BE
:104B7000144B1B7819464FF47A73B3FBF1F3B2FB75
:104B8000F3F3184600F0D1F90346002B0FD17B68F0
:104B90000F2B09D8002279684FF0FF3000F0ABF9F5
:104BA0000A4A7B68136007E00123FB7304E00123DA
:104BB000FB7301E00123FB73FB7B18461037BD46F6
:104BC00080BD00BF640100245C010024600100245A
:104BD00080B400AF064B1B781A46064B1B68134483
:104BE000044A136000BFBD465DF8047B704700BFF8
:104BF00064010024B404002480B400AF034B1B689C
:104C00001846BD465DF8047B704700BFB40400241D
:104C100080B584B000AF7860FFF7EEFFB8607B68C6
:104C2000FB60FB68B3F1FF3F05D00A4B1B781A46C7
:104C3000FB681344FB6000BFFFF7DEFF0246BB6862
:104C4000D31AFA689A42F7D800BF00BF1037BD46A2
:104C500080BD00BF6401002480B483B000AF7860E1
:104C6000064BD3F8102105497B681343C1F8103176
:104C700000BF0C37BD465DF8047B70470004005848
:104C800080B483B000AF7860074BD3F810217B6805
:104C90001340002B14BF01230023DBB218460C374E
:104CA000BD465DF8047B70470004005880B489B0AD
:104CB00000AFF860B9607A603B60BB68012B21D11E
:104CC000FB68012B06D0FB68042B01D1082302E00E
:104CD000102300E00023FB611D4BD3F81821FF21B6
:104CE000FB6901FA03F3DB431A407968FB699940D9
:104CF000FB690433386800FA03F30B431449134388
:104D0000C1F81831124BD3F81021FB685B00DB436C
:104D10001A40FB687B617B6993FAA3F33B613B69B3
:104D2000BB61BB69002B01D1202303E0BB69B3FA4F
:104D300083F3DBB20133B96801FA03F30449134387
:104D4000C1F8103100BF2437BD465DF8047B7047C1
:104D50000004005880B483B000AF7860064BD3F8ED
:104D6000102105497B681343C1F8103100BF0C378F
:104D7000BD465DF8047B70470004005880B485B0E0
:104D800000AF78607B6803F00703FB600B4BDB68C8
:104D9000BB60BA684FF6FF031340BB60FB681A02A2
:104DA000BB681A43064B1343BB60044ABB68D3601D
:104DB00000BF1437BD465DF8047B704700ED00E08E
:104DC0000000FA0580B400AF044BDB681B0A03F057
:104DD00007031846BD465DF8047B704700ED00E010
:104DE00080B483B000AF03463960FB80B7F906306A
:104DF000002B0ADB3B68DAB20C49B7F90630120126
:104E0000D2B20B4483F800230AE03B68DAB20849C7
:104E1000FB8803F00F03043B1201D2B20B441A7655
:104E200000BF0C37BD465DF8047B704700E100E031
:104E300000ED00E080B489B000AFF860B9607A603E
:104E4000FB6803F00703FB61FB69C3F10703042B55
:104E500028BF0423BB61FB690433062B02D9FB691D
:104E6000033B00E000237B614FF0FF32BB6902FA95
:104E700003F3DA43BB681A407B699A404FF0FF3175
:104E80007B6901FA03F3D9437B680B40134318464F
:104E90002437BD465DF8047B7047000080B582B0C2
:104EA00000AF78607B68013BB3F1807F01D30123C1
:104EB0000FE00A4A7B68013B53600F214FF0FF303F
:104EC000FFF78EFF054B00229A60044B07221A6001
:104ED000002318460837BD4680BD00BF10E000E043
:104EE00080B582B000AF78607868FFF747FF00BFF9
:104EF0000837BD4680BD80B586B000AF0346B960B7
:104F00007A60FB81FFF75EFF78617A68B96878693B
:104F1000FFF790FF0246B7F90E3011461846FFF72B
:104F20005FFF00BF1837BD4680BD80B582B000AFBF
:104F300078607868FFF7B2FF034618460837BD4629
:104F400080BD000080B483B000AF7860BFF35F8F96
:104F500000BF0B4A7B6843F001035360094B5B6A57
:104F6000084A43F480335362BFF34F8F00BFBFF34F
:104F70006F8F00BF00BF0C37BD465DF8047B7047E4
:104F800090ED00E000ED00E080B400AFBFF35F8F74
:104F900000BF0A4B5B6A094A23F480335362084B13
:104FA00000225A60BFF34F8F00BFBFF36F8F00BF67
:104FB00000BFBD465DF8047B704700BF00ED00E018
:104FC00090ED00E080B483B000AF7860074A7B6862
:104FD0009360064B1B69054A23F00103136100BF70
:104FE0000C37BD465DF8047B704700BF90ED00E0D4
:104FF00080B483B000AF78607B685A781E4B9A60AB
:105000001D4B1B691C4A23F0010313611A4B1B69DA
:10501000194A23F001031361174A7B685B68D36068
:105020007B681B7B1A077B68DB7A1B061A437B684D
:105030009B7ADB041A437B685B7B9B041A437B6887
:105040009B7B5B041A437B68DB7B1B041A437B68F6
:105050005B7A1B021A437B681B7A5B0013437A68F6
:1050600012781146044A0B43136100BF0C37BD464A
:105070005DF8047B704700BF90ED00E080B584B020
:1050800000AF7860FFF7B8FDF8607B68002B01D1B6
:1050900001236BE07B6893F85430DBB2022B08D01D
:1050A0007B6820229A657B68002283F84C200123CC
:1050B0005CE07B681B685A697B681B6842F00402ED
:1050C0005A617B68052283F8542020E0FFF794FDA5
:1050D0000246FB68D31A052B19D97B689B6D43F0F8
:1050E00010027B689A657B68032283F854207B68F2
:1050F0001B6D03F08003002B03D07B685B6F0122E4
:105100001A737B68002283F84C2001232EE07B6811
:105110001B681B6903F40053002BD7D07B681B6806
:105120005A697B681B6842F002025A617B6804225C
:1051300083F854207B681B684FF4FE42DA607B687A
:10514000012283F854207B681B6D03F08003002B41
:1051500007D07B685B6F01221A737B681B68002293
:105160009A647B68002283F84C200023184610378D
:10517000BD4680BD80B582B000AF78607B68002BF3
:1051800001D1012389E07B6893F82130DBB2002B49
:1051900002D1786800F088F87B68022283F8212029
:1051A0007B681B681B69002B01D1012375E07B68BC
:1051B0001B689B68002B01D101236EE07B685B6854
:1051C000002B08D17B681B681A687B681B6822F477
:1051D00000121A600EE07B689B68B3F5801F01D057
:1051E00001235AE07B681B681A687B681B6842F4DD
:1051F00000121A607B689B68B3F5801F08D17B683A
:105200001B681A687B681B6842F480121A6007E00A
:105210007B681B681A687B681B6822F480121A601E
:105220007B681B681B6823F0FE417B685B691A067C
:105230007B681B680A431A607B681B681B6823F441
:1052400070217B681A697B681B680A431A607B6857
:105250001B681B6823F470617B68DA687B681B68D5
:105260000A431A607B681B685B6999B27B689B691B
:105270001A047B681B680A435A617B681B685A6979
:10528000084B13407A68D1697A6812680B435361FE
:105290007B68012283F82120002318460837BD4689
:1052A00080BD00BF0000FFFF80B483B000AF786016
:1052B00000BF0C37BD465DF8047B704780B584B0F5
:1052C00000AF78607B68002B01D101233FE07B6851
:1052D00093F82130DBB2012B38D17B68022283F8AE
:1052E00021207B681B681A687B681B6842F00102FA
:1052F0001A60FFF781FCF86008E0FFF77DFC0246CA
:10530000FB68D31A012B01D9032320E07B681B68BB
:105310001B6A03F40043B3F5004FEED17B681B68B2
:105320001B6803F47063002B0AD17B681B681A6842
:105330007B681B6842F010021A600520FFF768FCCA
:105340007B68012283F82120002300E00223184615
:105350001037BD4680BD80B483B000AF78607B68F5
:10536000002B01D1012327E07B6893F82130DBB2C9
:10537000012B20D17B68022283F821207B681B68E7
:105380001B6803F47063002B07D17B681B681A68E5
:105390007B681B6822F010021A607B681B681A6821
:1053A0007B681B6822F001021A607B68012283F887
:1053B0002120002300E0022318460C37BD465DF88B
:1053C000047B704780B588B000AF786039607B6837
:1053D00093F82130DBB2012B6CD17B68022283F879
:1053E00021207B681B68DB699BB27B617B681B6942
:1053F000002B02D07B69002B05D17B68012283F84A
:105400002120012357E07B689B68B3F5801F08D1FA
:105410007B69DA037B681B691B0CB2FBF3F3FB614E
:105420000BE001F0E1F802467B681B691B0C03FBF3
:1054300002F27B69B2FBF3F3FB617B681B689B683C
:105440001B0CBB61BB69002B02D11E23BB610BE0AF
:10545000BB69012B02D18223BB6105E07B6801227D
:1054600083F82120012326E07B681B689B689BB2A0
:10547000642202FB03F33B617B681B681B699BB2E0
:10548000FB60FB68002B05D17B68012283F821209B
:10549000012310E0FA693B69D21AFB6892FBF3F230
:1054A000BB691A443B681A607B68012283F821209B
:1054B000002300E0022318462037BD4680BD0000CF
:1054C00080B487B000AF7860396000237B6143E12E
:1054D0003B681A6801217B6901FA03F31340FB6002
:1054E000FB68002B00F035813B685B6803F0030329
:1054F000012B05D03B685B6803F00303022B30D11E
:105500007B689B683B617B695B00032202FA03F3C3
:10551000DB433A6913403B613B68DA687B695B00B7
:1055200002FA03F33A6913433B617B683A699A6074
:105530007B685B683B6101227B6902FA03F3DB4312
:105540003A6913403B613B685B681B0903F0010249
:105550007B6902FA03F33A6913433B617B683A695A
:105560005A603B685B6803F00303032B09D13B6877
:105570005B6803F00303032B1BD13B689B68012B83
:1055800017D07B68DB683B617B695B00032202FA12
:1055900003F3DB433A6913403B613B689A687B69DC
:1055A0005B0002FA03F33A6913433B617B683A6993
:1055B000DA603B685B6803F00303022B23D17B694D
:1055C000DA087B68083253F822303B617B6903F0CC
:1055D00007039B000F2202FA03F3DB433A691340EF
:1055E0003B613B681A697B6903F007039B0002FA81
:1055F00003F33A6913433B617B69DA087B6808323D
:10560000396943F822107B681B683B617B695B004A
:10561000032202FA03F3DB433A6913403B613B6820
:105620005B6803F003027B695B0002FA03F33A69EB
:1056300013433B617B683A691A603B685B6803F41B
:105640004033002B00F085804B4A7B699B084C332C
:1056500052F823303B617B6903F003039B000F2268
:1056600002FA03F3DB433A6913403B617B689A0A11
:10567000424B13407A6902F00302920093403A6968
:1056800013433B613C497B699B084C333A6941F8C1
:1056900023204FF0B0431B683B61FB68DB433A6952
:1056A00013403B613B685B6803F48013002B03D01D
:1056B0003A69FB6813433B614FF0B0423B691360AA
:1056C0004FF0B0435B683B61FB68DB433A691340D2
:1056D0003B613B685B6803F40013002B03D03A691D
:1056E000FB6813433B614FF0B0423B6953604FF09E
:1056F000B043D3F884303B61FB68DB433A69134025
:105700003B613B685B6803F40033002B03D03A69CC
:10571000FB6813433B614FF0B0423B69C2F88430F1
:105720004FF0B043D3F880303B61FB68DB433A690C
:1057300013403B613B685B6803F48033002B03D06C
:105740003A69FB6813433B614FF0B0423B69C2F8D2
:1057500080307B6901337B613B681A687B6922FA80
:1057600003F3002B7FF4B4AE00BF00BF1C37BD466F
:105770005DF8047B704700BF000400587FFF2900DC
:1057800080B485B000AF78600B467B807B681A6977
:105790007B881340002B02D00123FB7301E0002320
:1057A000FB73FB7B18461437BD465DF8047B7047DE
:1057B00080B483B000AF78600B467B8013467B706B
:1057C0007B78002B03D07A887B689A6102E07A8824
:1057D0007B689A6200BF0C37BD465DF8047B70475A
:1057E00080B485B000AF78600B467B807B685B69D6
:1057F000FB607A88FB6813401A04FB68D9437B88F6
:105800000B401A437B689A6100BF1437BD465DF8B0
:10581000047B704780B584B000AF7860254BDB68AF
:1058200003F00703062B0AD0224BDB6803F01F03AB
:105830007A689A4201D0012338E0002336E01D4BFC
:10584000DB6823F01F021B497B681343CB60FFF723
:10585000D3F9F86009E0FFF7CFF90246FB68D31AE5
:10586000B3F57A7F01D9012320E0124B5B6803F086
:105870000203002BEFD07B681E2B02D07B681D2B10
:1058800013D1FFF7B9F9F86009E0FFF7B5F902465F
:10589000FB68D31AB3F57A7F01D9012306E0054BE3
:1058A000DB6803F48033002BEFD000231846103759
:1058B000BD4680BD0048025880B584B000AF786016
:1058C000104B5B6923F001020E497B6813434B6167
:1058D000FFF792F9F86009E0FFF78EF90246FB68DE
:1058E000D31AB3F57A7F01D9012306E0054B5B6932
:1058F00003F00203002BEFD0002318461037BD46FB
:1059000080BD00BF0048025880B400AF054BDB6883
:10591000044A43F40043D36000BFBD465DF8047BF6
:10592000704700BF0048025880B588B000AF78606B
:105930007B68002B01D1012328E3974B1B6903F0FF
:105940003803FB61944B9B6A03F00303BB61924BEA
:105950001B6803F028537B617B681B6803F001031D
:10596000002B00F09C80FB69102B05D07B69002B7D
:1059700009D0BB69022B06D17B685B68002B40F025
:105980008E80012302E37B685B68B3F5803F06D11C
:10599000814B1B68804A43F48033136058E07B6876
:1059A0005B68002B12D17C4B1B687B4A23F480334D
:1059B0001360794B1B68784A23F400231360764BFD
:1059C0001B68754A23F48023136041E07B685B68A1
:1059D000B3F5A02F12D1704B1B686F4A43F480239C
:1059E00013606D4B1B686C4A23F4002313606A4BF1
:1059F0001B68694A43F48033136029E07B685B6865
:105A0000B3F5502F12D1644B1B68634A43F48023D3
:105A10001360614B1B68604A43F4002313605E4BC4
:105A20001B685D4A43F48033136011E05A4B1B68D6
:105A3000594A23F480331360574B1B68564A23F4AA
:105A400080231360544B1B68534A23F400231360D4
:105A5000FFF7D2F838617B685B68002B19D008E04B
:105A6000FFF7CAF802463B69D31A642B01D9032316
:105A70008CE2494B1B6803F40033002BF0D00EE09E
:105A8000FFF7BAF802463B69D31A642B01D9032306
:105A90007CE2414B1B6803F40033002BF0D17B68A0
:105AA0001B6803F00203002B00F09E80FB69002BB3
:105AB00005D07B69002B47D0BB69002B44D17B68A4
:105AC000DB68002B01D1012360E2334B1B6803F03C
:105AD0001803FB60BB69002B09D17B69002B06D042
