:0200000470008A
:1000000000000120F50C0070450D0070450D0070DA
:10001000450D0070450D0070450D0070000000009A
:100020000000000000000000000000009D9500702E
:10003000450D007000000000C9960070E50F0070CB
:10004000450D007000000000450D0070450D00706A
:10005000450D0070450D007000000000000000001C
:10006000450D0070450D0070450D0070000000004A
:1000700000000000450D00700000000000000000BE
:10008000450D0070450D0070450D0070450D007068
:10009000450D0070450D0070450D0070450D007058
:1000A000450D0070450D0070450D0070450D007048
:1000B000450D0070450D0070450D0070450D007038
:1000C000450D0070450D0070450D0070450D007028
:1000D000450D0070450D0070450D0070450D007018
:1000E000450D0070450D0070450D0070450D007008
:1000F000450D0070450D0070450D0070450D0070F8
:10010000450D0070450D0070450D0070450D0070E7
:10011000450D0070450D0070450D0070450D0070D7
:10012000450D0070450D0070450D0070450D0070C7
:10013000450D0070450D0070450D0070450D0070B7
:10014000450D0070450D0070450D0070450D0070A7
:10015000450D0070450D0070450D0070450D007097
:10016000450D0070450D0070450D0070450D007087
:10017000450D0070450D0070450D0070450D007077
:10018000450D0070450D0070450D0070450D007067
:10019000450D0070450D0070450D0070450D007057
:1001A000450D0070450D0070450D0070450D007047
:1001B000ED100070450D0070450D0070450D00708C
:1001C0000000000000000000450D0070450D0070AB
:1001D000450D0070450D0070450D0070450D007017
:1001E000450D0070450D0070450D0070450D007007
:1001F000450D0070450D007000000000000000007B
:10020000450D0070450D0070450D0070450D0070E6
:10021000450D0070450D0070450D0070450D0070D6
:10022000450D0070450D0070450D0070450D0070C6
:10023000450D0070450D0070450D0070450D0070B6
:10024000450D0070450D0070450D0070450D0070A6
:10025000450D0070450D0070450D0070450D007096
:10026000450D0070450D0070450D0070450D007086
:10027000450D0070450D0070450D0070450D007076
:10028000450D0070450D0070450D0070450D007066
:10029000450D00700000000000000000000000009C
:1002A000450D0070450D0070450D0070450D007046
:1002B00053B94AB9002908BF00281CBF4FF0FF31CD
:1002C0004FF0FF3000F00CB8ADF1080C6DE904CE32
:1002D0000FF05AFFDDF804E0DDE9022304B07047B7
:1002E000704700BF00000000000000000000000098
:1002F00001F0FF01102A2BDB10F0070F08D010F8D7
:10030000013B013A8B422DD010F0070F42B3F6D1DA
:10031000F0B441EA012141EA014122F007047FF0F3
:1003200000070023F0E80256083C85EA010586EA4A
:10033000010685FA47F5A3FA87F586FA47F6A5FA86
:1003400087F68EB9EED1F0BC01F0FF0102F0070292
:1003500032B110F8013B013A83EA010313B1F8D13D
:100360000020704701387047002D06BF354603381E
:10037000073815F0010F07D1013015F4807F02BF57
:10038000013015F4C03F0130F0BC0138704700BFA8
:100390000348044B834202D0034B03B11847704714
:1003A0007800002478000024000000000548064B77
:1003B0001B1AD90F01EBA301491002D0034B03B163
:1003C00018477047780000247800002400000000DF
:1003D00010B5064C237843B9FFF7DAFF044B13B18D
:1003E0000448AFF300800123237010BD780000247F
:1003F000000000004416017008B5054B1BB105490B
:100400000548AFF30080BDE80840FFF7CFBF00BF4D
:10041000000000007C0000244416017080B588B004
:1004200000AF07F10C0300221A605A609A60DA608C
:100430001A612A4BD3F84831284A43F48023C2F882
:100440004831264BD3F84831BB60BB68234BD3F807
:100450004031224A43F00803C2F840311F4BD3F821
:1004600040317B607B684FF44073FB6002233B614B
:1004700000237B610023BB610723FB6107F10C03B1
:100480001946174803F074FE164B174A1A60154BAD
:100490004FF4E1325A60134B00229A60114B002254
:1004A000DA60104B00221A610E4B0C225A610D4B80
:1004B00000229A610B4B0022DA610A4B00221A6279
:1004C000084B00225A62074B00229A62054806F048
:1004D00059F900BF2037BD4680BD00BF0044025817
:1004E000000C0258940000240048004080B584B0FD
:1004F00000AFF860B9607A607B689AB24FF0FF3362
:10050000B968044806F098F97B6818461037BD466C
:1005100080BD00BF9400002480B483B000AF786039
:10052000044A7B681A607B6818460C37BD465DF844
:10053000047B70477019017080B582B000AF78609D
:100540007868FFF7E9FF042178680FF00AFE7B68FE
:1005500018460837BD4680BD80B582B000AF7860D0
:10056000054A7B681A607B681846FFF7D5FF7B68F1
:1005700018460837BD4680BDB819017080B582B0F5
:1005800000AF78607868FFF7E7FF0C2178680FF01C
:10059000E8FD7B6818460837BD4680BD80B483B04F
:1005A00000AF7860044A7B681A607B6818460C3795
:1005B000BD465DF8047B70475C19017080B582B060
:1005C00000AF78607868FFF7E9FF042178680FF0E2
:1005D000C8FD7B6818460837BD4680BD80B582B02F
:1005E00000AF7860054A7B681A607B681846FFF7A1
:1005F000D5FF7B6818460837BD4680BDA419017039
:1006000080B582B000AF78607868FFF7E7FF0C2113
:1006100078680FF0A6FD7B6818460837BD4680BD98
:1006200080B582B000AF7860054A7B681A607B684D
:100630001846FFF7B3FF7B6818460837BD4680BDF4
:100640009019017080B582B000AF78607868FFF7CC
:10065000E7FF082178680FF084FD7B6818460837AB
:10066000BD4680BD80B588B002AF00F0B3FAFFF799
:10067000D5FE8D4810F022F98C4BD3F840318B4ACF
:1006800043F00803C2F84031884BD3F840313B6057
:100690003B683B1D00221A605A609A60DA601A615A
:1006A0004FF480637B600123BB600023FB60002369
:1006B0003B613B1D19467E4803F05AFD7D4B1B688C
:1006C000BFF35B8F03F00103002B0CBF012300235A
:1006D000DBB2002B18D077480FF045FD0346002B06
:1006E00014BF01230023DBB2002B0DD04FF4806236
:1006F0006F49714800F098FC704A71496E480FF0DC
:100700002BFD6C480FF03BFD6E4B1B68BFF35B8FFE
:1007100003F00103002B0CBF01230023DBB2002BED
:1007200018D068480FF01FFD0346002B14BF0123AB
:100730000023DBB2002B0DD04FF4FA725E49624801
:1007400000F09CF95D4A61495F480FF005FD5D4886
:100750000FF015FD5E4B1B68BFF35B8F03F00103C9
:10076000002B0CBF01230023DBB2002B1BD0584809
:100770000FF0F9FC0346002B14BF01230023DBB26A
:10078000002B10D0032300934FF48073514A4E493D
:10079000514801F093FB494A50494F480FF0DCFCA7
:1007A0004B480FF0ECFC4E4B1B68BFF35B8F03F024
:1007B0000103002B0CBF01230023DBB2002B15D05B
:1007C00047480FF0D0FC0346002B14BF0123002341
:1007D000DBB2002B0AD0434800F062FE374A4249A0
:1007E00040480FF0B9FC3E480FF0C9FC3F4B3D4A72
:1007F0001A603F4B1B68BFF35B8F03F00103002BB4
:100800000CBF01230023DBB2002B16D038480FF0B9
:10081000AAFC0346002B14BF01230023DBB2002BEC
:100820000BD03049334800F0B5F8244A32493148FA
:100830000FF092FC2E480FF0A2FC304B1B68BFF368
:100840005B8F03F00103002B0CBF01230023DBB2FD
:10085000002B1BD029480FF086FC0346002B14BF49
:1008600001230023DBB2002B10D0042300934FF4AC
:100870008063234A1F49234801F020FB0F4A174990
:1008800020480FF069FC1D480FF079FC124801F078
:1008900065FB1C4801F062FB07F092F90023184643
:1008A0001837BD4680BD00BF5C1601700044025879
:1008B000000C025834010024280100240000002408
:1008C000590500704401002438010024DD05007042
:1008D000600100248816017048010024051F007083
:1008E0001C02002464010024CD140070DC89002463
:1008F0002802002420020024210600704402002463
:10090000941601702C02002480B58AB004AF786080
:1009100012480FF0D3FF124B7B616FF07F433B61B6
:10092000104BFB6007F10C0307F1100207F11401F3
:100930000D4802900D480190002000900C480CF0EA
:1009400087FD0B480CF006FE09480CF016FE08481F
:100950000CF006FE00BF1837BD4680BDA016017022
:10096000C0A8016FC0A80101BDF5007075F7007047
:100970004802002480B483B000AF7860044A7B68EA
:100980001A607B6818460C37BD465DF8047B7047DB
:100990005C19017080B582B000AF786039607B6807
:1009A0001846FFF7E7FF054A7B681A607B683A68DC
:1009B0005A607B6818460837BD4680BD90190170A3
:1009C00080B584B000AF786025480FF077FF7B6872
:1009D0005B681B6808331B687A6852681046984742
:1009E000034683F00103DBB2002B04D01D480FF057
:1009F00065FF00BFFDE77B685B681B681C331B68F5
:100A00007A68526810469847F860F96816480FF0FF
:100A1000E5FE16480FF052FF02E02E200FF0F0FE28
:100A20007B685B681B6820331B687A6852684FF4E8
:100A30007A7110469847034683F00103DBB2002B1E
:100A4000EBD10B480FF03AFF00210A480EF0F0FD01
:100A500009480EF0BFFE0A2006F012FF00BFF7E7BC
:100A6000BC160170D8160170F816017018170170C5
:100A70003C170170090900704802002480B584B059
:100A800000AFF860B9607A60FB681846FFF772FF44
:100A9000064AFB681A60FB68BA685A60FB687A68A5
:100AA0009A60FB6818461037BD4680BDA4190170D6
:100AB00080B584B000AF78600023FB737B685B680F
:100AC0001B6810331B687A68526810469847FB7B96
:100AD00083F00103FB73FB7B002B04D04FF47A708F
:100AE00001F09AFAEAE74FF47A6001F095FAE5E747
:100AF00080B400AF00BFBD465DF8047B704780B591
:100B000086B000AF3B1D00221A605A609A60DA601E
:100B100001F0DCFC0023FB7506E0FB7D184601F0CC
:100B2000F3FCFB7D0133FB75FB7D0F2BF5D9012316
:100B30003B7100237B710023BB601F233B73872322
:100B40007B730023BB730023FB7301233B740023DF
:100B50007B740023BB740023FB743B1D184601F01B
:100B6000E9FC01237B714FF0E043BB601A233B7328
:100B700000237B730123BB730323FB7300233B74AC
:100B800000237B740123BB740123FB743B1D1846B7
:100B900001F0D0FC02237B714FF04053BB600E2369
:100BA0003B7300237B730023BB730323FB7301237D
:100BB0003B7400237B740023BB740023FB743B1D38
:100BC000184601F0B7FC042001F05EFC00BF1837A6
:100BD000BD4680BD80B584B000AFFFF790FF404BAD
:100BE0005B6903F40033002B14BF01230023DBB245
:100BF000002B1BD1BFF34F8F00BFBFF36F8F00BF20
:100C0000374B0022C3F85022BFF34F8F00BFBFF312
:100C10006F8F00BF324B5B69314A43F4003353613D
:100C2000BFF34F8F00BFBFF36F8F00E000BF2C4BAF
:100C30005B6903F48033002B14BF01230023DBB274
:100C4000002B42D1264B0022C3F88420BFF34F8FE4
:100C500000BF234BD3F88030FB60FB685B0BC3F312
:100C60000E03BB60FB68DB08C3F309037B60BB6852
:100C70005A0143F6E07313407A6892071849134308
:100C8000C1F860327B685A1E7A60002B14BF0123C2
:100C90000023DBB2002BEAD1BB685A1EBA60002BDE
:100CA00014BF01230023DBB2002BDBD1BFF34F8F36
:100CB00000BF0B4B5B690A4A43F480335361BFF3B7
:100CC0004F8F00BFBFF36F8F00E000BF01F0EBF963
:100CD000FFF70EFF00F04EF800BF1037BD4680BD95
:100CE00000ED00E080B400AF00BFBD465DF8047BBE
:100CF000704700000D48854600F026F80C480D4965
:100D00000D4A002302E0D458C4500433C4188C4266
:100D1000F9D30A4A0A4C002301E013600432A242CC
:100D2000FBD30FF019FFFFF79DFCFEE70000012049
:100D30000000002478000024EC33017078000024C7
:100D4000E8340124FEE7000080B400AF074B084AF6
:100D50009A60064BD3F88830044A43F47003C2F813
:100D6000883000BFBD465DF8047B704700ED00E0B1
:100D70000000007080B489B000AF924B1B6903F093
:100D80003803182B00F2FB8001A252F823F000BFB9
:100D9000F50D00707F0F00707F0F00707F0F0070E7
:100DA0007F0F00707F0F00707F0F00707F0F00704B
:100DB000090E00707F0F00707F0F00707F0F0070B2
:100DC0007F0F00707F0F00707F0F00707F0F00702B
:100DD0000F0E00707F0F00707F0F00707F0F00708C
:100DE0007F0F00707F0F00707F0F00707F0F00700B
:100DF000150E0070734B1B68DB0803F00303724A87
:100E000022FA03F3FB61C4E0704BFB61C1E0704B5D
:100E1000FB61BEE06B4B9B6A03F003033B61694BD4
:100E20009B6A1B0903F03F03FB60664BDB6A03F020
:100E30000103002B0BD0634B5B6BDB08C3F30C038C
:100E400007EE903AF8EE677AC7ED067A02E04FF0C7
:100E50000003BB61FB68002B00F08E803B69012B17
:100E600024D03B69022B43D1FB6807EE903AF8EEA1
:100E7000677ADFED586A86EEA77A524B1B6BC3F395
:100E8000080307EE903AF8EE676A97ED066ADFED21
:100E9000525AC6EE257A76EEA77AF7EE006A77EE1A
:100EA000A67A67EE277AC7ED057A4FE0FB6807EE72
:100EB000903AF8EE677ADFED496A86EEA77A414B01
:100EC0001B6BC3F3080307EE903AF8EE676A97EDE1
:100ED000066ADFED415AC6EE257A76EEA77AF7EE7E
:100EE000006A77EEA67A67EE277AC7ED057A2DE0DD
:100EF000344B1B68DB0803F00303334A22FA03F385
:100F0000BB60BB6807EE903AF8EE676AFB6807EED5
:100F1000903AF8EE677A86EEA77A2A4B1B6BC3F3FA
:100F2000080307EE903AF8EE676A97ED066ADFED80
:100F30002A5AC6EE257A76EEA77AF7EE006A77EEA1
:100F4000A67A67EE277AC7ED057A00BF1D4B1B6BAB
:100F50005B0A03F07F0301337B607B6807EE903A06
:100F6000B8EE677AD7ED056AC6EE877AFCEEE77AC7
:100F700017EE903AFB610CE00023FB6109E0114B96
:100F80001B68DB0803F003030F4A22FA03F3FB613B
:100F900000BF0C4B9B6903F00F033B603B68072BC2
:100FA00007D93B68073BFA6922FA03F30C4A13603E
:100FB00002E00B4AFB69136000BF2437BD465DF8B1
:100FC000047B7047004402580090D00300093D00A4
:100FD00000366E01001BB74B000000460024744A27
:100FE0000400002480B500AF01F0B2F807F0BAFAAF
:100FF0000346012B14BF01230023DBB2002B01D0D9
:1010000008F096FB00BF80BD80B483B000AF78606D
:10101000044A7B681A607B6818460C37BD465DF849
:10102000047B70477019017080B584B000AFF86020
:10103000B9601346FB80FB681846FFF7E5FF074AD7
:10104000FB681A60FB68BA685A60FB68FA881A8104
:10105000FB6818461037BD4680BD00BFB819017047
:1010600080B582B000AF78607B6858687B681B8968
:101070000122194603F0B8FA00BF0837BD4680BD0B
:1010800080B582B000AF78607B6858687B681B8948
:101090000022194603F0A8FA00BF0837BD4680BDFC
:1010A00080B582B000AF78607B685A687B681B8926
:1010B0001946104603F0B0FA00BF0837BD4680BDA0
:1010C00080B582B000AF78607B685A687B681B8906
:1010D0001946104603F070FA0346012B0CBF01239A
:1010E0000023DBB218460837BD4680BD80B500AF8F
:1010F000054B1B68002B04D0034B1B68184601F0FE
:10110000BBFD00BF80BD00BF7C02002480B5DAB00B
:1011100000AF07F5B473A3F5B273186007F5B473A5
:10112000A3F5B2731B681B689C4A934240F0308160
:1011300007F5AA7300221A605A609A60DA601A6191
:1011400007F5B473A3F5B073184690231A4600212F
:101150000FF0A4FC07F198039C22002118460FF021
:101160009DFC0023C7F898300223C7F80C310023F8
:10117000C7F810310423C7F814311923C7F8183100
:101180000223C7F81C310223C7F820310223C7F815
:1011900024310823C7F828310223C7F82C31002353
:1011A000C7F8303107F19803184603F04FFA07F5F6
:1011B000B473A3F5B0714FF4C0724FF00003C1E9EE
:1011C000002307F5B473A3F5B07300225A6207F544
:1011D000B473A3F5B0734FF480229A6207F1080349
:1011E000184604F0DDF96E4BD3F838316C4A43F4FD
:1011F0000043C2F838316A4BD3F83831C7F8503160
:10120000D7F85031664BD3F83831654A43F4803310
:10121000C2F83831624BD3F83831C7F84C31D7F8BF
:101220004C315F4BD3F838315D4A43F40033C2F898
:1012300038315B4BD3F83831C7F84831D7F84831EB
:10124000574BD3F84031564A43F00103C2F84031BE
:10125000534BD3F84031C7F84431D7F84431504BA1
:10126000D3F840314E4A43F00203C2F840314C4BB0
:10127000D3F84031C7F84031D7F84031484BD3F864
:101280004031474A43F04003C2F84031444BD3F861
:101290004031C7F83C31D7F83C31414BD3F84031AD
:1012A0003F4A43F00803C2F840313D4BD3F8403188
:1012B000C7F83831D7F83831394BD3F85431384A78
:1012C00043F00203C2F85431354BD3F85431C7F818
:1012D0003431D7F834311023C7F854310223C7F81A
:1012E00058310023C7F85C310223C7F860310B2363
:1012F000C7F8643107F5AA7319462A4802F038FF87
:101300004023C7F854310223C7F858310023C7F8E7
:101310005C310223C7F860310B23C7F8643107F54D
:10132000AA731946204802F023FF43F67003C7F85A
:1013300054310223C7F858310023C7F85C31022327
:10134000C7F860310B23C7F8643107F5AA73194653
:10135000164802F00DFF8423C7F854310223C7F862
:1013600058310023C7F85C310223C7F860310B23E2
:10137000C7F8643107F5AA7319460D4802F0F8FE64
:10138000002205215C2001F03CF85C2001F053F8BC
:1013900000BF07F5B477BD4680BD00BF00800240A6
:1013A00000440258000C0258000402580018025869
:1013B0000000025880B582B000AF78607B681B687F
:1013C000194A93422BD1194BD3F83831174A23F4D9
:1013D0000043C2F83831154BD3F83831134A23F49F
:1013E0008033C2F83831114BD3F838310F4A23F427
:1013F0000033C2F8383110210D4803F019F84021AC
:101400000C4803F015F843F670010B4803F010F890
:1014100084210A4803F00CF85C2001F01AF800BFA0
:101420000837BD4680BD00BF00800240004402581E
:10143000000C02580004025800180258000002581C
:1014400080B483B000AF7860044A7B681A607B6820
:1014500018460C37BD465DF8047B7047081A0170CA
:1014600080B483B000AF7860044A7B681A607B6800
:1014700018460C37BD465DF8047B7047081A0170AA
:1014800080B582B000AF78607868FFF7E9FF04218B
:1014900078680EF066FE7B6818460837BD4680BD4A
:1014A00080B582B000AF78607B681846FFF7C8FF50
:1014B000054A7B681A607B68002283F8B4207B6849
:1014C00018460837BD4680BDD819017080B582B076
:1014D00000AF7860084A7B681A607B68043318465E
:1014E00001F06AF97B681846FFF7BAFF7B68184677
:1014F0000837BD4680BD00BFD819017080B582B0E5
:1015000000AF78607868FFF7E1FFB82178680EF0E7
:1015100028FE7B6818460837BD4680BD80B5AEB052
:1015200000AF7860B04BD3F83C31AF4A43F0005382
:10153000C2F83C31AC4BD3F83C31FB60FB6807F19F
:10154000900300221A605A609A60DA6000F0BEFFD1
:10155000012387F89030072387F891304FF04053EC
:10156000C7F894300E2387F89830002387F8993015
:10157000012387F89A30032387F89B30012387F8EB
:101580009C30012387F89D30002387F89E3000238C
:1015900087F89F3007F19003184600F0CBFF042036
:1015A00000F072FF914B0022C3F88420BFF34F8FED
:1015B00000BF8E4BD3F88030C7F8A830D7F8A830DA
:1015C0005B0BC3F30E03C7F8A430D7F8A830DB08D1
:1015D000C3F30903C7F8A030D7F8A4305A0143F683
:1015E000E0731340D7F8A020920780491343C1F855
:1015F0007432D7F8A0305A1EC7F8A020002B14BFB1
:1016000001230023DBB2002BE6D1D7F8A4305A1E09
:10161000C7F8A420002B14BF01230023DBB2002B4A
:10162000D3D1BFF34F8F00BFBFF36F8F00BF00BF99
:10163000BFF34F8F00BFBFF36F8F00BF6C4A07F13E
:10164000880392E803001860043319807B68694AB4
:101650005A607B6807F188029A607B6801221A73DE
:101660007B68654A1A617B68644A5A617B684FF4FB
:10167000C0629A617B680433614A13605B4B00224D
:10168000C3F88420BFF34F8F00BF584BD3F880308E
:10169000C7F8B430D7F8B4305B0BC3F30E03C7F808
:1016A000B030D7F8B430DB08C3F30903C7F8AC3067
:1016B000D7F8B0305A0143F6E0731340D7F8AC20A6
:1016C00092074A491343C1F87432D7F8AC305A1E16
:1016D000C7F8AC20002B14BF01230023DBB2002B82
:1016E000E6D1D7F8B0305A1EC7F8B020002B14BF8F
:1016F00001230023DBB2002BD3D1BFF34F8F00BFF8
:10170000BFF36F8F00BF00BF7B680433184600F043
:1017100057FF0346002B14BF01230023DBB2002B2D
:1017200001D000235CE00023C7F884307B68181DDB
:1017300007F184030022002101F0CFFB0346002BB8
:101740000CBF01230023DBB2002B10D0D7F884306C
:1017500043F40043C7F884307B68181DD7F8843001
:101760000022002101F00EFC322000F011FD7B6808
:10177000043307F120021146184601F057FC0346D6
:10178000002B0CBF01230023DBB2002B0DD04FF444
:101790000053BB634FF480437B637B68043307F1E2
:1017A00020021146184601F015FE7B68043307F14C
:1017B00010021146184601F0C3FE0346002B0CBF71
:1017C00001230023DBB2002B09D001233B747B688B
:1017D000043307F110021146184601F065FE01239B
:1017E0001846B837BD4680BD0044025800ED00E001
:1017F0005417017000800240601800300000003073
:101800007C02002480B483B000AF78600B4B1A6870
:1018100013465B0013445B02094A1A447B681A6052
:10182000064B1B68013303F00303044A136000BF37
:101830000C37BD465DF8047B704700BF8002002472
:101840006000003080B59EB000AF786039603B68C2
:101850001B89B3F5C06F01D90023A1E03B681A8949
:1018600000235149386808F009FC4F4B23F01F034F
:101870007B673B681B891A467B6FD21A4A4B1F3322
:10188000134423F01F033B677A6F3B6FFA65BB6518
:10189000BB6D002B1DDDFB6D03F01F02BB6D134400
:1018A0007B65FB6D3B65BFF34F8F00BF3F4A3B6DD0
:1018B000C2F868323B6D20333B657B6D203B7B6516
:1018C0007B6D002BF2DCBFF34F8F00BFBFF36F8F38
:1018D00000BF00BF344B7B643B681B89BB640023A3
:1018E000FB6407F10C033822002118460FF0D6F8EC
:1018F0002023FB600023FB613B681B893B6107F1F0
:1019000044037B612A4BFB666023BB66BB6E002BE6
:101910001DDDFB6E03F01F02BB6E13447B66FB6E86
:101920003B66BFF34F8F00BF204A3B6EC2F8683260
:101930003B6E20333B667B6E203B7B667B6E002BD1
:10194000F2DCBFF34F8F00BFBFF36F8F00BF00BF4C
:101950003B681B89194617480EF040FF7B6804332B
:1019600007F10C016422184600F09CFF0346002B8F
:1019700014BF01230023DBB2002B0DD07B68D3F80A
:101980008C107B68D3F890207B68D3F888300A48A5
:101990000EF024FF002303E008480EF08FFF012320
:1019A00018467837BD4680BDC018003000ED00E015
:1019B000601800305C17017070170170A817017073
:1019C00080B58CB000AFF860B9607A607B807B88AE
:1019D0007A68FA61BB61BB69002B1DDDFB6903F00E
:1019E0001F02BB6913447B61FB693B61BFF34F8FEF
:1019F00000BF284A3B69C2F85C323B6920333B6137
:101A00007B69203B7B617B69002BF2DCBFF34F8F4E
:101A100000BFBFF36F8F00BF00BF7B884FF4C17260
:101A20001946002008F066F9B862BB6A002B05D0A1
:101A30007B881A467968B86A08F04EFBFB687B62BF
:101A4000BB683B62BB6A002B20D07B6A1B68002B03
:101A500003D17B6ABA6A1A6003E03B6A1B68BA6A00
:101A60001A603B6ABA6A1A607B6A1B68FB6209E00B
:101A7000FB6A1A897B8813449AB2FB6A1A81FB6A53
:101A80001B68FB62FB6A002BF2D100E000BF30371D
:101A9000BD4680BD00ED00E080B58CB000AF786041
:101AA0000023FB603E4BFB626023BB62BB6A002BE2
:101AB0001DDDFB6A03F01F02BB6A13447B62FB6AF5
:101AC0003B62BFF34F8F00BF364A3B6AC2F85C32BD
:101AD0003B6A20333B627B6A203B7B627B6A002B44
:101AE000F2DCBFF34F8F00BFBFF36F8F00BF00BFAB
:101AF00040E0FB68002B17D0FB681B8919462A4879
:101B00000EF06CFE294B1B69FA682849104698476D
:101B10000346002B14BF01230023DBB2002B03D0AC
:101B2000FB68184608F09AF81D4BFB616023BB6107
:101B3000BB69002B1DDDFB6903F01F02BB69134469
:101B40007B61FB693B61BFF34F8F00BF154A3B6967
:101B5000C2F868323B6920333B617B69203B7B6183
:101B60007B69002BF2DCBFF34F8F00BFBFF36F8F99
:101B700000BF00BF7B68043307F10C021146184612
:101B800000F027FF0346002B0CBF01230023DBB22C
:101B9000002BAED100BF00BF3037BD4680BD00BFB7
:101BA0000000003000ED00E0B8170170480200248A
:101BB00080B584B000AF78600023FB607B68181D9F
:101BC00007F10C030122002101F087F90346002BE5
:101BD0000CBF01230023DBB2002B08D0FB6803F00D
:101BE0000403002B14BF01230023DBB200E0002319
:101BF00018461037BD4680BD80B584B000AF786010
:101C00000023FB600023BB607B68181D07F10C03F9
:101C10000222002101F061F90346002B14BF0123C9
:101C20000023DBB2002B02D04FF0FF3316E07B68BD
:101C3000181D07F108030322002101F04EF90346A5
:101C4000002B14BF01230023DBB2002B02D04FF086
:101C5000FF3303E0FB681A04BB68134318461037D0
:101C6000BD4680BD80B586B000AF7860396000F0B9
:101C700083FA38610023FB604AE07B68181D07F196
:101C80000C030122002101F028F90346002B0CBFB0
:101C900001230023DBB2002B37D0FB6803F00403E1
:101CA000002B32D0FB6803F02003002B2DD02148FD
:101CB0000EF004FE00237B611AE00023BB607B680A
:101CC000181D7A6907F10803002101F006F903469F
:101CD000002B0CBF01230023DBB2002B05D0BB6817
:101CE0001A46796914480EF079FD7B6901337B61EE
:101CF0007B691F2BE1DD11480EF0E0FD7B680433AA
:101D0000184600F06DFD012310E00A2000F040FAB3
:101D100000F032FA02463B69D31A3A689A428CBF05
:101D200001230023DBB2002BA7D10023184618376C
:101D3000BD4680BDCC170170EC1701700018017012
:101D400080B483B000AF786039603B6800221A70BD
:101D50003B68013380221A703B680233E1221A701B
:101D60003B68033311221A703B68043322221A7035
:101D70003B68053333221A7000BF0C37BD465DF84F
:101D8000047B704780B582B000AF786026480EF0C3
:101D900095FD264BDB68194625480EF01FFD254AA8
:101DA000224925480EF01AFD7B685B681B681946BE
:101DB00022480EF013FD7B685B6803F58053D3F86F
:101DC000603119461E480EF009FD7B685B68D3F848
:101DD000003719461B480EF001FD7B685B68D3F89D
:101DE0009437194618480EF0F9FC7B685B68D3F805
:101DF0009837194615480EF0F1FC7B685B68D3F8FC
:101E0000C437194612480EF0E9FC7B685B68D3F8CA
:101E1000F83719460F480EF0E1FC0F480EF04EFD62
:101E200000BF0837BD4680BD1C180170000000309F
:101E3000381801706000003050180170701801707F
:101E40008418017098180170AC180170C0180170E6
:101E5000DC180170F41801701819017080B483B097
:101E600000AF7860044A7B681A607B6818460C37BC
:101E7000BD465DF8047B7047541A017080B483B08E
:101E800000AF7860044A7B681A607B6818460C379C
:101E9000BD465DF8047B7047541A017080B582B06E
:101EA00000AF78607868FFF7E9FF042178680EF0EA
:101EB00058F97B6818460837BD4680BD80B584B0A8
:101EC00000AFF860B9607A607B80FB681846FFF766
:101ED000C5FF0B4AFB681A60FB68BA685A60FB686A
:101EE00000229A60FB687A68DA60FB687A881A8256
:101EF000FB68BA695A61FB6818461037BD4680BD59
:101F0000381A017080B582B000AF78600A4A7B68E9
:101F10001A607B689B68002B04D07B689B6818461E
:101F200005F03AFC7B681846FFF7A8FF7B68184667
:101F30000837BD4680BD00BF381A017080B582B039
:101F400000AF78607868FFF7DDFF182178680EF041
:101F500008F97B6818460837BD4680BD80B586B055
:101F600002AF78607B689B68002B01D0002315E0EE
:101F70007B68D9687B68188A7B685B697A680832F5
:101F8000019200937B680246064805F0E2FAF86089
:101F9000FB68012B0CBF01230023DBB2184610376E
:101FA000BD4680BDED1F007080B582B000AF786087
:101FB0007B689B68002B04D07B689B68184605F003
:101FC00083FC00BF0837BD4680BD80B582B000AF3E
:101FD00078607B689B68002B04D07B689B68184600
:101FE00005F01EFD00BF0837BD4680BD80B584B03A
:101FF00000AF78607B68FB60FB685B681B68083338
:102000001B68FA68526810469847002005F0C4FB28
:1020100000BF1037BD4680BD2DE9B04F82B000AF84
:102020007860796800200C460546204629464FF026
:10203000000A4FF0000B4FEA411B4BEAD06B4FEA0E
:10204000401A50465946021B61EB05034FF0000051
:102050004FF00001990041EA9271900002460B4650
:1020600012EB040843EB05094FF000024FF00003A8
:102070004FEAC90343EA58734FEAC80290469946AB
:10208000404649464FF47A724FF00003FEF710F9CC
:1020900002460B461346184605F0F2FB00BF083710
:1020A000BD46BDE8B08F80B582B000AF0023FB71A4
:1020B000032000F09BF90F2000F00EF80346002BE0
:1020C00002D00123FB7101E0FEF70CFEFB791846FC
:1020D0000837BD4680BD000080B584B000AF786091
:1020E0000023FB73174B1B78002B23D0164B1A6869
:1020F000144B1B7819464FF47A73B3FBF1F3B2FB20
:10210000F3F3184600F0B3F90346002B0FD17B68B8
:102110000F2B09D8002279684FF0FF3000F071F9D9
:102120000A4A7B68136007E00123FB7304E0012384
:10213000FB7301E00123FB73FB7B18461037BD46A0
:1021400080BD00BF0C00002404000024080000240F
:1021500080B400AF064B1B781A46064B1B6813442D
:10216000044A136000BFBD465DF8047B704700BFA2
:102170000C0000248402002480B400AF034B1B68D1
:102180001846BD465DF8047B704700BF84020024FA
:1021900080B584B000AF7860FFF7EEFFB8607B6871
:1021A000FB60FB68B3F1FF3F05D00A4B1B781A4672
:1021B000FB681344FB6000BFFFF7DEFF0246BB680D
:1021C000D31AFA689A42F7D800BF00BF1037BD464D
:1021D00080BD00BF0C00002480B483B000AF7860E5
:1021E000074BD3F8003123F4600205497B681343A1
:1021F000C1F8003100BF0C37BD465DF8047B704765
:102200000004005880B485B000AF78607B6803F0AC
:102210000703FB600B4BDB68BB60BA684FF6FF033C
:102220001340BB60FB681A02BB681A43064B13439A
:10223000BB60044ABB68D36000BF1437BD465DF87D
:10224000047B704700ED00E00000FA0580B400AFA9
:10225000044BDB681B0A03F007031846BD465DF814
:10226000047B704700ED00E080B483B000AF03460C
:10227000FB80B7F90630002B0BDBFB8803F01F0255
:102280000749B7F906305B09012000FA02F241F86C
:10229000232000BF0C37BD465DF8047B704700BFAC
:1022A00000E100E080B483B000AF0346FB80B7F9E3
:1022B0000630002B12DBFB8803F01F020A49B7F936
:1022C00006305B09012000FA02F2203341F8232096
:1022D000BFF34F8F00BFBFF36F8F00BF00BF0C373E
:1022E000BD465DF8047B704700E100E080B483B038
:1022F00000AF03463960FB80B7F90630002B0ADBDC
:102300003B68DAB20C49B7F906301201D2B20B447D
:1023100083F800230AE03B68DAB20849FB8803F03F
:102320000F03043B1201D2B20B441A7600BF0C37E4
:10233000BD465DF8047B704700E100E000ED00E081
:1023400080B489B000AFF860B9607A60FB6803F0D0
:102350000703FB61FB69C3F10703042B28BF0423B8
:10236000BB61FB690433062B02D9FB69033B00E028
:1023700000237B614FF0FF32BB6902FA03F3DA43BB
:10238000BB681A407B699A404FF0FF317B6901FAC4
:1023900003F3D9437B680B40134318462437BD46EB
:1023A0005DF8047B7047000080B582B000AF7860B4
:1023B0007B68013BB3F1807F01D301230FE00A4A20
:1023C0007B68013B53600F214FF0FF30FFF78EFF1A
:1023D000054B00229A60044B07221A60002318461E
:1023E0000837BD4680BD00BF10E000E080B582B078
:1023F00000AF78607868FFF705FF00BF0837BD467B
:1024000080BD80B586B000AF0346B9607A60FB81BD
:10241000FFF71CFF78617A68B9687869FFF790FF69
:102420000246B7F90E3011461846FFF75FFF00BFAE
:102430001837BD4680BD80B582B000AF0346FB8033
:10244000B7F906301846FFF70FFF00BF0837BD4643
:1024500080BD80B582B000AF0346FB80B7F906307F
:102460001846FFF71FFF00BF0837BD4680BD80B587
:1024700082B000AF78607868FFF796FF0346184691
:102480000837BD4680BD000080B483B000AF7860DF
:10249000BFF35F8F00BF0B4A7B6843F001035360BB
:1024A000094B5B6A084A43F480335362BFF34F8F92
:1024B00000BFBFF36F8F00BF00BF0C37BD465DF894
:1024C000047B704790ED00E000ED00E080B400AFC9
:1024D000BFF35F8F00BF0A4B5B6A094A23F4803366
:1024E0005362084B00225A60BFF34F8F00BFBFF307
:1024F0006F8F00BF00BFBD465DF8047B704700BF13
:1025000000ED00E090ED00E080B483B000AF7860B3
:10251000074A7B689360064B1B69054A23F0010359
:10252000136100BF0C37BD465DF8047B704700BFE8
:1025300090ED00E080B483B000AF78607B685A789B
:102540001E4B9A601D4B1B691C4A23F0010313614B
:102550001A4B1B69194A23F001031361174A7B6860
:102560005B68D3607B681B7B1A077B68DB7A1B0682
:102570001A437B689B7ADB041A437B685B7B9B0472
:102580001A437B689B7B5B041A437B68DB7B1B04E1
:102590001A437B685B7A1B021A437B681B7A5B00D9
:1025A00013437A6812781146044A0B43136100BF43
:1025B0000C37BD465DF8047B704700BF90ED00E02E
:1025C00080B584B000AF78607B68002B01D1012317
:1025D000E2E07B68D3F88430002B06D17B682022B0
:1025E000C3F884207868FEF791FD6D4BD3F8543121
:1025F0006B4A43F00203C2F85431694BD3F85431AB
:10260000BB60BB687B681B7A002B03D10020FFF7FF
:10261000E3FD03E04FF40000FFF7DEFD614BD3F86C
:1026200000317B681B6803F580531B687A68126869
:1026300043F0010302F580521360FFF79DFDF8603F
:1026400011E0FFF799FD0246FB68D31AB3F5FA7F54
:1026500009D97B680422C3F888207B68E022C3F88C
:102660008420012398E07B681B6803F580531B6876
:1026700003F00103002BE4D1786800F0C5FE02F0FE
:1026800085FC0346484AA2FB03239A0C7B681B681F
:10269000013AC3F8DC20786801F08AF97B681B688E
:1026A00003F58053D3F8003123F4E0137A681268FD
:1026B00043F4002302F58052C2F800317B685B6965
:1026C00003F00303002B09D07B680122C3F88820A4
:1026D0007B68E022C3F8842001235DE07B681B68EF
:1026E00003F58053D3F80821304B13407A685269C0
:1026F00051007A6812680B4302F58052C2F8083123
:10270000786801F0F2F9786801F038FA7B685B6864
:1027100005331B781A027B685B6804331B78194603
:102720007B681B680A43C3F800237B685B6803333C
:102730001B781A067B685B6802331B781B041A43FC
:102740007B685B6801331B781B021A437B685B68FC
:102750001B7819467B681B680A43C3F804237B680F
:102760001B68D3F80C177B681A68114B0B43C2F82F
:102770000C377B681B68D3F810177B681A680D4B01
:102780000B43C2F810377B680022C3F888207B68AF
:102790001022C3F88420002318461037BD4680BDA0
:1027A000004402580004005883DE1B430180FFFFF1
:1027B0006000020C00C0200C80B582B000AF7860D1
:1027C0007B682022C3F884207868FEF7F3FD7B68DD
:1027D0000022C3F88420002318460837BD4680BD78
:1027E00080B582B000AF78607B68D3F88430102B5E
:1027F00053D17B682022C3F884207B680422DA66E8
:10280000786800F0BBF97B681B681A687B681B68F6
:1028100042F002021A607B681B681A687B681B68BA
:1028200042F001021A607B681B68D3F8002D7B68B8
:102830001B6842F00102C3F8002D7B681B6803F59A
:102840008053D3F804317A68126843F0010302F52B
:102850008052C2F804317B681B6803F58053D3F8BB
:1028600008317A68126843F0010302F58052C2F819
:1028700008317B681B6803F58053D3F860317A68B0
:10288000126843F4817302F58052C2F860317B68AC
:102890004022C3F88420002300E0012318460837B3
:1028A000BD4680BD80B586B000AFF860B9607A6083
:1028B000BB68002B09D1FB68D3F8883043F00102D4
:1028C000FB68C3F8882001237FE0FB68D3F88430DD
:1028D000402B79D10022B968F86801F0ADF90346C0
:1028E000002B09D0FB68D3F8883043F00202FB6864
:1028F000C3F88820012368E0BFF34F8F00BFFB6857
:102900009A6AFB68063253F822307B61FB689B6A47
:102910005A1CFB689A62FB689B6A032B04D9FB680C
:102920009B6A1A1FFB689A62FB68996AFB681A68BF
:10293000FB68063153F8213002F58052C2F820318D
:10294000FFF71AFC386139E0FB681B6803F5805318
:10295000D3F8603103F48053002B12D0FB68D3F816
:10296000883043F00802FB68C3F88820FB681B68C6
:1029700003F58053D3F86021FB68C3F88C20012352
:1029800023E07B68B3F1FF3F18D0FFF7F5FB024669
:102990003B69D31A7A689A4202D37B68002B0DD127
:1029A000FB68D3F8883043F00402FB68C3F8882042
:1029B0007B694FF04052DA60012306E07B69DB68F7
:1029C000002BC1DB002300E0012318461837BD4669
:1029D00080BD80B58AB000AF786039600023BB61EC
:1029E0000023FB753B68002B09D17B68D3F8883046
:1029F00043F001027B68C3F888200123BAE07B68BA
:102A0000D3F88430402B01D00123B3E07B68DB6D29
:102A10007B627B687A6A123253F82230FB617B68F2
:102A2000DB6EC3F104033B617BE0FB69DB6803F011
:102A30000053002B03D17B68DB6F002B5FD0FB6959
:102A4000DB6803F00053002B05D07B6800221A6678
:102A50007B6800225A66FB69DB68C3F30E027B6861
:102A60005B6ED31AFB60FB69DB6803F08053002BBD
:102A70002AD0FB69DA687B681A670123FB75FB695A
:102A80005B6803F48043002B1ED07B6A3B623B6A89
:102A900001333B623B6A032B02D93B6A043B3B6236
:102AA0007B683A6A123253F82230BB60BB68DB683D
:102AB00003F08043002B07D0BB685A687B689A6795
:102AC000BB681A687B685A677B6803F17C007B6887
:102AD00003F18001FB691B691A46FB689BB2FEF794
:102AE0006FFF7B681B6E5A1C7B681A667B685A6E88
:102AF000FB681A447B685A66FB6900221A617B6A8C
:102B000001337B627B6A032B02D97B6A043B7B62C5
:102B10007B687A6A123253F82230FB61BB69013359
:102B2000BB61FB69DB68002B07DBBA693B699A4232
:102B300003D2FB7D002B3FF478AF7B68DA6EBB6974
:102B40001A447B68DA667B68DB6E002B02D07868FB
:102B500000F014F87B687A6ADA65FB7D012B08D1F6
:102B60007B68DA6F3B681A607B680022DA670023B3
:102B700000E0012318462837BD4680BD80B588B0E7
:102B800000AF78600023BB600123FB747B689B6E01
:102B9000FB617B68FA69123253F822307B617B68F3
:102BA000DB6EBB613DE07B691B69002B13D107F134
:102BB00008031846FEF726FEBB68002B02D100234F
:102BC000FB740CE0BB681A467B691A61BB681A4645
:102BD0007B691A6003E07B691A697B691A60FB7C78
:102BE000002B1ED07B689B6D002B04D07B694FF0BF
:102BF0004142DA6003E07B694FF00142DA60FB6931
:102C00000133FB61FB69032B02D9FB69043BFB61C8
:102C10007B68FA69123253F822307B61BB69013B51
:102C2000BB61BB69002B02D0FB7C002BBBD17B6856
:102C3000DB6EBA699A421BD0FB69033303F00303CE
:102C4000FB60BFF35F8F00BF7B681969FA681346AA
:102C50005B001344DB00CA187B681B6803F58053D4
:102C6000C3F828217B68FA699A667B68BA69DA66D4
:102C700000BF2037BD4680BD80B586B000AF78600C
:102C80007B681B68D3F8B0307B617B681B6803F5F9
:102C90008053D3F860313B617B681B6803F5805338
:102CA000D3F83431FB604FF0B043D3F89830BB60B9
:102CB0003B6903F04003002B10D0FB6803F0400396
:102CC000002B0BD07B681B6803F580531A4648F233
:102CD0004003C2F86031786800F0CDF83B6903F03A
:102CE0000103002B10D0FB6803F00103002B0BD075
:102CF0007B681B6803F580531A4648F20103C2F84B
:102D00006031786800F0ADF83B6903F48043002B34
:102D100047D0FB6803F48043002B42D07B68D3F894
:102D2000883043F008027B68C3F888203B6903F4CD
:102D30008053002B1ED07B681B6803F58053D3F8AB
:102D4000602141F2021313407A68C2F88C307B682C
:102D50001B6803F58053D3F834317A68126823F482
:102D6000404302F58052C2F834317B68E022C3F858
:102D7000842013E07B681B6803F58053D3F860312F
:102D800003F4CD427B68C3F88C207B681B6803F595
:102D900080531A464FF4CD43C2F86031786800F092
:102DA00074F87B6903F48043002B04D17B6903F43E
:102DB0000053002B19D07B68D3F8883043F0100201
:102DC0007B68C3F888207B681B68D3F8B8207B68D1
:102DD000C3F890207B68E022C3F88420786800F074
:102DE00054F87B680022C3F890207B6903F010033D
:102DF000002B0FD07B681B68D3F8C03003F0600253
:102E00007B68C3F89420786800F049F87B6800225A
:102E1000C3F894207B6903F02003002B0FD07B685C
:102E20001B68D3F8D03003F00F027B68C3F89820FA
:102E3000786800F03EF87B680022C3F89820BB68F1
:102E400003F48043002B08D04FF0B0434FF480428E
:102E5000C3F89820786800F036F800BF1837BD46F0
:102E600080BD80B483B000AF786000BF0C37BD4632
:102E70005DF8047B704780B483B000AF786000BF1A
:102E80000C37BD465DF8047B704780B483B000AF5B
:102E9000786000BF0C37BD465DF8047B704780B496
:102EA00083B000AF786000BF0C37BD465DF8047B8F
:102EB000704780B483B000AF786000BF0C37BD4668
:102EC0005DF8047B704780B483B000AF786000BFCA
:102ED0000C37BD465DF8047B704780B586B000AF07
:102EE000F860B9607A603B60FB681B68D3F8003219
:102EF00003F00103002B01D001233EE0FB681B68B7
:102F0000D3F800327B617B6923F07872BB685B0584
:102F100013437B617B6923F4F8127B681B04134322
:102F20007B617B6943F00C037B617B6943F00103A8
:102F30007B61FB681B687A69C3F80022FFF71CF904
:102F4000386109E0FFF718F902463B69D31AB3F577
:102F50007A7F01D9012310E0FB681B68D3F80032A7
:102F600003F00103002BEDD1FB681B68D3F804329A
:102F70009BB21A463B681A60002318461837BD46B4
:102F800080BD000080B586B000AFF860B9607A609F
:102F90003B60FB681B68D3F8003203F00103002B91
:102FA00001D001233CE0FB681B68D3F800327B6151
:102FB0007B6923F07872BB685B0513437B617B6997
:102FC00023F4F8127B681B0413437B617B6923F0B5
:102FD0000C0343F004037B617B6943F001037B61D5
:102FE0003B689AB2104BC3F804220F4A7B69C2F8BF
:102FF0000032FFF7C1F8386109E0FFF7BDF802467B
:103000003B69D31AB3F57A7F01D9012308E0FB6845
:103010001B68D3F8003203F00103002BEDD100232D
:1030200018461837BD4680BD0080024080B483B08A
:1030300000AF786039603B68002B01D10123C3E108
:103040007B681B681B6803F00C023B68DA627B68D4
:103050001B681B6803F01003002B14BF012300231F
:10306000DBB21A463B6883F828207B681B681B6824
:1030700003F060023B685A627B681B681B6803F4BC
:103080008073002B0CBF01230023DBB21A463B6880
:1030900083F820207B681B681B6803F40073002BF7
:1030A00014BF01230023DBB21A463B68DA777B6842
:1030B0001B681B6803F48063002B0CBF01230023F3
:1030C000DBB21A463B689A777B681B681B6803F47F
:1030D0000063002B14BF01230023DBB21A463B68B8
:1030E0005A777B681B681B6803F48053002B14BF5E
:1030F00001230023DBB21A463B681A777B681B6802
:103100001B6803F400523B689A617B681B681B686C
:1031100003F480423B685A617B681B681B6803F4B8
:103120008033002B14BF01230023DBB21A463B6817
:103130009A747B681B681B6803F40033002B0CBF78
:1031400001230023DBB21A463B685A747B681B6874
:103150001B6803F40023002B0CBF01230023DBB208
:103160001A463B681A747B681B681B6803F480135B
:10317000002B14BF01230023DBB21A463B68DA732D
:103180007B681B681B6803F40013002B14BF01232A
:103190000023DBB21A463B689A737B681B681B6886
:1031A00003F48003002B14BF01230023DBB21A4673
:1031B0003B685A737B681B681B6803F40003002B91
:1031C00014BF01230023DBB21A463B681A737B68E5
:1031D0001B681B6803F0E0623B689A607B681B68B1
:1031E0001B6803F00063002B14BF01230023DBB234
:1031F0001A463B681A717B681B681B6803F0E04243
:103200003B681A607B681B685B68C3F30D023B6810
:103210005A637B681B685B6803F48033002B0CBF28
:1032200001230023DBB21A463B6883F832207B6817
:103230001B685B6803F40033002B14BF01230023D9
:10324000DBB21A463B6883F831207B681B685B68F9
:1032500003F48023002B14BF01230023DBB21A46A2
:103260003B6883F830207B681B685B6803F08073E1
:10327000002B14BF01230023DBB21A463B6883F8FE
:1032800038207B681B685B685B0E03F01F023B689D
:10329000DA637B681B68DB6803F48073002B14BF60
:1032A00001230023DBB21A463B6883F840207B6889
:1032B0001B68DB6803F00F023B685A647B681B687D
:1032C0001B6F03F00203002B14BF01230023DBB2AA
:1032D0001A463B6883F854207B681B681B6F03F019
:1032E0008003002B0CBF01230023DBB21A463B688E
:1032F00083F84C207B681B681B6F03F070023B68EF
:103300001A657B681B681B6F1B0C9AB23B689A643A
:103310007B681B68D3F8903003F00103002B14BFC7
:1033200001230023DBB21A463B6883F856207B68F2
:103330001B68D3F8903003F00203002B14BF012365
:103340000023DBB21A463B6883F855207B681B6874
:10335000D3F8003D03F072023B689A657B681B68F6
:10336000D3F8303D03F023023B68DA657B681B68C5
:10337000D3F8303D03F00803002B14BF01230023D2
:10338000DBB21A463B6883F862207B681B68D3F87F
:10339000303D03F01003002B14BF01230023DBB2E8
:1033A0001A463B6883F861207B681B68D3F8303D80
:1033B00003F04003002B0CBF01230023DBB21A46AD
:1033C0003B6883F86020002318460C37BD465DF843
:1033D000047B704780B582B000AF786039603B688D
:1033E000002B01D101230BE07B68D3F88430102B34
:1033F00005D13968786800F039F9002300E001232D
:1034000018460837BD4680BD80B584B000AF7860EF
:103410007B681B68D3F80032FB60FB6823F47063A1
:10342000FB6001F0B3FDB860BB681A4A934204D850
:10343000FB6843F40073FB6022E0BB68164A9342CA
:1034400004D2FB6843F44073FB6019E0BB68134A85
:10345000934215D9BB68124A934204D8FB6843F4DF
:103460008073FB600CE0BB680E4A934204D8FB6893
:1034700043F48063FB6003E0FB6843F4A063FB60FC
:103480007B681B68FA68C3F8002200BF1037BD468E
:1034900080BD00BFBF0E160200879303FFE0F50555
:1034A0007FD1F0087FB2E60E80B485B000AF7860BF
:1034B00039603B68002B01D1012339E03B681B7860
:1034C0001A463B68DB785B001A433B681B799B001C
:1034D0001A433B681B7ADB001A433B685B791B018C
:1034E00013433A68527A012A01D1202200E00022D7
:1034F0001A433B68DB791B021A433B689B795B02EA
:103500001A433B689B789B021A433B685B78DB0756
:103510001A433B68DB681343FB607B681B689A684F
:10352000064B13407A681268F9680B4393600023D6
:1035300018461437BD465DF8047B704700F8FF7FDE
:1035400080B483B000AF786039603B68002B01D154
:10355000012384E07B681B689B6803F00103002B58
:1035600014BF01230023DBB21A463B681A707B6844
:103570001B689B6803F00203002B14BF0123002388
:10358000DBB21A463B68DA707B681B689B6803F005
:103590000403002B14BF01230023DBB21A463B684F
:1035A0001A717B681B689B6803F00803002B14BF2B
:1035B00001230023DBB21A463B681A727B681B6842
:1035C0009B6803F01003002B14BF01230023DBB220
:1035D0001A463B685A717B681B689B6803F020039E
:1035E000002B14BF01230023DBB21A463B685A723A
:1035F0007B681B689B6803F0C0023B68DA607B68ED
:103600001B689B6803F48073002B14BF0123002305
:10361000DBB21A463B68DA717B681B689B6803F46F
:103620000073002B14BF01230023DBB21A463B6852
:103630009A717B681B689B6803F48063002B14BF3E
:1036400001230023DBB21A463B689A707B681B6833
:103650009B68DB0FDBB21A463B685A7000231846A2
:103660000C37BD465DF8047B7047000080B485B020
:1036700000AF786039603B689A683B681B681A4302
:103680003B681B79DB061A433B681B7BDB051A434F
:103690003B685B7B9B051A433B689B7B5B051A433E
:1036A0003B68DB7B1B0513433A68127C002A02D17E
:1036B0004FF4002200E0002213433A68527C002AB3
:1036C00002D14FF4003200E000221A433B689B7C99
:1036D0001B041A433B685B691A433B689B691A43A6
:1036E0003B681B7F1B031A433B685B7FDB02134372
:1036F0003A68927F002A02D14FF4806200E00022F3
:103700001A433B68DB7F5B0213433A6892F8202040
:10371000002A02D14FF4807200E000221A433B6875
:103720005B6A1A433B6893F828301B011A433B68D5
:10373000DB6A1343FB607B681B681A68564B1340B7
:103740007A681268F9680B4313603B68DB6B5A06B2
:103750003B6893F838301B061A433B6893F83030C7
:103760009B041A433B6893F831305B0413433A6877
:1037700092F83220002A02D14FF4803200E0002279
:103780001A433B685B6B1343FB607B681B685A689A
:10379000424B13407A681268F9680B4353603B68E8
:1037A00093F840301A023B685B6C1343FB607B6804
:1037B0001B68DA683A4B13407A681268F9680B4361
:1037C000D3603B6893F854305A003B681B6D134339
:1037D0003A6892F84C20002A01D1802200E00022B1
:1037E0001A433B689B6C1B041343FB607B681B689C
:1037F0001A6F4FF60D7313407A681268F9680B431D
:1038000013673B6893F856301A463B6893F8553077
:103810005B001343FB607B681B68D3F8903023F098
:1038200003017B681B68FA680A43C3F890207B6831
:103830001B68D3F8003D23F072013B689A6D7B68EA
:103840001B680A43C3F8002D3B68DB6D3A6892F8A9
:103850006020002A01D1402200E000221A433B6888
:1038600093F861301B011A433B6893F86230DB0028
:103870001343FB607B681B68D3F8303D23F07B016A
:103880007B681B68FA680A43C3F8302D00BF143701
:10389000BD465DF8047B7047838004000080F8C05B
:1038A000F0FEFFFF80B485B000AF786039607B68C0
:1038B0001B6803F580531A68384B13403A68116847
:1038C0007A6812680B4302F5805213603B681B79DB
:1038D0001A033B689B681A433B681B7BDB0313435B
:1038E000FB607B681B6803F580535A682C4B1340C0
:1038F0007A681268F9680B4302F5805253603B689E
:103900005B7B1A043B681B6A1343FB607B681B6884
:1039100003F58053D3F80021224B13407A681268D4
:10392000F9680B4302F58052C2F800313B681A690E
:103930003B681B7D1B011A433B685B7F1B031343E2
:10394000FB607B681B6803F58053D3F80421164B9A
:1039500013407A681268F9680B4302F58052C2F886
:1039600004313B681B7FDA073B689B691343FB60AC
:103970007B681B6803F58053D3F808210B4B134079
:103980007A681268F9680B4302F58052C2F8083170
:1039900000BF1437BD465DF8047B7047FD87FFFF0D
:1039A000FE2FFFFF00C0FEFFEFEFC0FFFFFFC07F55
:1039B00080B5A4B000AF7860012387F83B300023C6
:1039C0003B65002387F84930002387F84B300123FB
:1039D00087F83030012387F85E30012387F83A30CA
:1039E000002387F85430012387F88C304FF40053BC
:1039F0007B64002387F864300023BB66002387F8CC
:103A00008D30002387F88E304FF4C3633B6600236C
:103A100087F8383000237B63012387F83D3000238B
:103A200087F83E30002387F848300023FB670023E7
:103A30007B670023BB65002387F86C30002387F881
:103A40008230012387F84A302023C7F888300123C9
:103A500087F84C30002387F85D304FF04053FB620D
:103A60004FF480433B64002387F839300223C7F8C2
:103A70008430002387F88030002387F881300023CA
:103A800087F85C30012387F83C3000233B67012333
:103A900087F8783007F12C0319467868FFF7E6FDC0
:103AA00001233B7301233B610023BB60002387F8A4
:103AB000243000237B7500233B754FF400133B62D9
:103AC00000233B774FF40013BB61002387F82530B8
:103AD0004FF40673BB6207F1080319467868FFF7D5
:103AE000E1FE00BF9037BD4680BD80B485B000AF19
:103AF00078600023FB601DE07B68D968FA68134694
:103B00005B001344DB000B44BB60BB6800221A60FF
:103B1000BB6800225A60BB6800229A60BB68002222
:103B2000DA60B9687B68FA68063243F82210FB68ED
:103B30000133FB60FB68032BDED97B6800229A62AD
:103B40007B681B6803F580531A460323C2F82C31A7
:103B50007B68DA687B681B6803F58053C3F814211F
:103B60007B68DA687B681B6803F58053C3F8202103
:103B700000BF1437BD465DF8047B704780B485B044
:103B800000AF78600023FB6023E07B681969FA6866
:103B900013465B001344DB000B44BB60BB68002290
:103BA0001A60BB6800225A60BB6800229A60BB683A
:103BB0000022DA60BB6800221A61BB6800225A61E9
:103BC000B9687B68FA68123243F82210FB68013347
:103BD000FB60FB68032BD8D97B680022DA657B6821
:103BE00000221A667B6800229A667B680022DA66E9
:103BF0007B6800229A657B681B6803F580531A4630
:103C00000323C2F830317B681A697B681B6803F5AF
:103C10008053C3F81C217B681B6903F148027B6851
:103C20001B6803F58053C3F8282100BF1437BD4635
:103C30005DF8047B7047000080B491B000AFF8607D
:103C4000B9607A60FB6818337B627B6A1B69FB632F
:103C50007B6A1B693B6200237B637B6AFA6B53F8C8
:103C600022303B63BB689B68FB620023BB623B6BFB
:103C7000DB6803F00043B3F1004F07D07A6AFB6BB7
:103C800004339B0013445B68002B01D0022366E2DF
:103C9000BB681B6803F00403002B44D03B6BDA685D
:103CA000754B1340BA68526A1A433B6BDA603B6B40
:103CB000DB6843F480323B6BDA60FB681B681A6E8A
:103CC000FB681B6842F480121A66BB681B6803F02D
:103CD0000803002B27D03B6B9B689AB2BB68DB6A5A
:103CE0001B041A433B6B9A603B6BDB6843F4003266
:103CF0003B6BDA603B6BDB6823F44022BB681B6BD9
:103D00001A433B6BDA60FB681B685A6EFB681B68E2
:103D100042F480125A66FB681B681A6DFB681B68C8
:103D200042F080621A65BB681B6803F01003002B29
:103D30000ED03B6B9A68514B1340BA6892691A4394
:103D40003B6B9A603B6BDB6843F080623B6BDA60F5
:103D5000BB681B6803F00403002B05D1BB681B681C
:103D600003F01003002B36D03B6BDB6843F080423E
:103D70003B6BDA60BFF35F8F00BF3B6BDB6843F0E8
:103D800000423B6BDA60FB6B0133FB63FB6B032B85
:103D900002D9FB6B043BFB637B6AFA6B53F822305E
:103DA0003B637B6B01337B633B6BDB6803F000435E
:103DB000B3F1004F0FD17B6A3A6A53F822303B636C
:103DC000BFF35F8F00BF3B6BDB6823F000423B6BB0
:103DD000DA600223C3E17B6B01337B63FB6A1B6800
:103DE0001A463B6B1A603B6B9A68244B1340FA6A85
:103DF00052681A433B6B9A60FB6A9B68002B12D097
:103E0000FB6A9B68FB62FB6A1B681A463B6B5A6045
:103E10003B6B9A681A4B1340FA6A526812041A43B1
:103E20003B6B9A6008E03B6B00225A603B6B9A68E0
:103E3000134B13403A6B9360BB681B6803F010038D
:103E4000002B21D03B6BDB6823F4F002BB681B6ABC
:103E5000DB041A433B6BDA603B6BDA68094B1340B7
:103E6000BA68D2691A433B6BDA603B6BDB6843F498
:103E700080223B6BDA602EE00000FFFF00C0FFFFF6
:103E8000FFFF00C00000FCFF3B6BDA687B4B134078
:103E9000BA6852681A433B6BDA60BB681B6803F070
:103EA0000103002B08D03B6BDB6823F44032BB6876
:103EB0005B691A433B6BDA60BB681B6803F0200345
:103EC000002B08D03B6BDB6823F04062BB681B69AA
:103ED0001A433B6BDA60BB681B6803F00403002BDA
:103EE00008D03B6B9B6823F44042BB689B6A1A4333
:103EF0003B6B9A603B6BDB6843F000523B6BDA60D4
:103F00003B6BDB6823F080423B6BDA60BFF35F8F73
:103F100000BF3B6BDB6843F000423B6BDA60BB6881
:103F20001B6803F00203002B00F0DA803B6BDB68B8
:103F300023F06072BB68DB681A433B6BDA60CFE04A
:103F40003B6BDB6823F080523B6BDA60FB6B013329
:103F5000FB63FB6B032B02D9FB6B043BFB637B6AAC
:103F6000FA6B53F822303B633B6BDB6823F0005263
:103F70003B6BDA603B6BDB6803F00043B3F1004F4F
:103F800007D07A6AFB6B04339B0013445B68002BF9
:103F900029D03B6AFB637B6AFA6B53F822303B63A0
:103FA0000023BB6319E0BFF35F8F00BF3B6BDB688F
:103FB00023F000423B6BDA60FB6B0133FB63FB6B6E
:103FC000032B02D9FB6B043BFB637B6AFA6B53F850
:103FD00022303B63BB6B0133BB63BA6B7B6B9A4292
:103FE000E1D30223BBE07B6B01337B63FB6A9B68FD
:103FF000FB62FB6A1B681A463B6B1A603B6B9A6854
:104000001F4B1340FA6A52681A433B6B9A60FB6A73
:104010009B68002B12D0FB6A9B68FB62FB6A1B68E3
:104020001A463B6B5A603B6B9A68164B1340FA6A10
:10403000526812041A433B6B9A6008E03B6B002203
:104040005A603B6B9A680F4B13403A6B9360BB68A6
:104050001B6803F01003002B18D03B6BDA680A4B87
:104060001340BA68D2691A433B6BDA603B6BDB687A
:1040700043F480223B6BDA6020E000BF0080FFFF4A
:1040800000C0FFFFFFFF00C00000FCFF3B6BDA68D1
:10409000364B1340BA6852681A433B6BDA60BB6810
:1040A0001B6803F00103002B08D03B6BDB6823F493
:1040B0004032BB685B691A433B6BDA60BB6A013311
:1040C000BB62BFF35F8F00BF3B6BDB6843F0004216
:1040D0003B6BDA603B6BDB6823F080423B6BDA6062
:1040E000FB6A9B68002B7FF42BAF7B68002B06D00C
:1040F0003B6B9B6843F000423B6B9A6005E03B6B77
:104100009B6823F000423B6B9A603B6BDB6843F09B
:1041100080523B6BDA607B6A5A6A796AFB6B0433C4
:104120009B000B445A607B6AFA6B1A61EFF31083B1
:10413000BB61BB69FB6101237B617B6983F31088F1
:1041400000BF7B6A9A6ABB6A13445A1C7B6A9A62F4
:10415000FB693B613B6983F3108800BF002318466D
:104160004437BD465DF8047B704700BF0080FFFF09
:1041700080B487B000AF7860396000237B6143E191
:104180003B681A6801217B6901FA03F31340FB6065
:10419000FB68002B00F035813B685B6803F003038C
:1041A000012B05D03B685B6803F00303022B30D181
:1041B0007B689B683B617B695B00032202FA03F327
:1041C000DB433A6913403B613B68DA687B695B001B
:1041D00002FA03F33A6913433B617B683A699A60D8
:1041E0007B685B683B6101227B6902FA03F3DB4376
:1041F0003A6913403B613B685B681B0903F00102AD
:104200007B6902FA03F33A6913433B617B683A69BD
:104210005A603B685B6803F00303032B09D13B68DA
:104220005B6803F00303032B1BD13B689B68012BE6
:1042300017D07B68DB683B617B695B00032202FA75
:1042400003F3DB433A6913403B613B689A687B693F
:104250005B0002FA03F33A6913433B617B683A69F6
:10426000DA603B685B6803F00303022B23D17B69B0
:10427000DA087B68083253F822303B617B6903F02F
:1042800007039B000F2202FA03F3DB433A69134052
:104290003B613B681A697B6903F007039B0002FAE4
:1042A00003F33A6913433B617B69DA087B680832A0
:1042B000396943F822107B681B683B617B695B00AE
:1042C000032202FA03F3DB433A6913403B613B6884
:1042D0005B6803F003027B695B0002FA03F33A694F
:1042E00013433B617B683A691A603B685B6803F47F
:1042F0004033002B00F085804B4A7B699B084C3390
:1043000052F823303B617B6903F003039B000F22CB
:1043100002FA03F3DB433A6913403B617B689A0A74
:10432000424B13407A6902F00302920093403A69CB
:1043300013433B613C497B699B084C333A6941F824
:1043400023204FF0B0431B683B61FB68DB433A69B5
:1043500013403B613B685B6803F48013002B03D080
:104360003A69FB6813433B614FF0B0423B6913600D
:104370004FF0B0435B683B61FB68DB433A69134035
:104380003B613B685B6803F40013002B03D03A6980
:10439000FB6813433B614FF0B0423B6953604FF001
:1043A000B043D3F884303B61FB68DB433A69134088
:1043B0003B613B685B6803F40033002B03D03A6930
:1043C000FB6813433B614FF0B0423B69C2F8843055
:1043D0004FF0B043D3F880303B61FB68DB433A6970
:1043E00013403B613B685B6803F48033002B03D0D0
:1043F0003A69FB6813433B614FF0B0423B69C2F836
:1044000080307B6901337B613B681A687B6922FAE3
:1044100003F3002B7FF4B4AE00BF00BF1C37BD46D2
:104420005DF8047B704700BF000400587FFF29003F
:1044300080B487B000AF7860396000237B61A8E06A
:1044400001227B6902FA03F33A6813403B613B693E
:10445000002B00F09B80564A7B699B084C3352F836
:104460002330FB607B6903F003039B000F2202FAF9
:1044700003F3FA681340FB607B689A0A4D4B1340C4
:104480007A6902F0030292009340FA689A423ED1A0
:104490004FF0B043D3F880203B69DB434FF0B0418D
:1044A0001340C1F880304FF0B043D3F884203B690B
:1044B000DB434FF0B0411340C1F884304FF0B043BC
:1044C0005A683B69DB434FF0B04113404B604FF0FB
:1044D000B0431A683B69DB434FF0B04113400B60B7
:1044E0007B6903F003039B000F2202FA03F3FB60D6
:1044F0002F4A7B699B084C3352F82310FB68DA4340
:104500002B487B699B080A404C3340F823207B688A
:104510001A687B695B00032101FA03F31A437B6885
:104520001A607B69DA087B68083253F822107B69CD
:1045300003F007039B000F2202FA03F3DB437A69BF
:10454000D20819407B68083243F822107B689A68C9
:104550007B695B00032101FA03F3DB431A407B68AC
:104560009A607B685A6801217B6901FA03F3DB4397
:104570001A407B685A607B68DA687B695B000321BC
:1045800001FA03F3DB431A407B68DA607B6901338D
:104590007B613A687B6922FA03F3002B7FF450AF0A
:1045A00000BF00BF1C37BD465DF8047B704700BFED
:1045B000000400587FFF290080B485B000AF786008
:1045C0000B467B807B681A697B881340002B02D0E6
:1045D0000123FB7301E00023FB73FB7B18461437B8
:1045E000BD465DF8047B704780B483B000AF78604F
:1045F0000B467B8013467B707B78002B03D07A8838
:104600007B689A6102E07A887B689A6200BF0C3707
:10461000BD465DF8047B704780B485B000AF78601C
:104620000B467B807B685B69FB607A88FB68134084
:104630001A04FB68D9437B880B401A437B689A6154
:1046400000BF1437BD465DF8047B704780B588B065
:1046500000AF78607B68002B01D1012328E3974BE2
:104660001B6903F03803FB61944B9B6A03F003035F
:10467000BB61924B1B6803F028537B617B681B680E
:1046800003F00103002B00F09C80FB69102B05D088
:104690007B69002B09D0BB69022B06D17B685B6864
:1046A000002B40F08E80012302E37B685B68B3F54A
:1046B000803F06D1814B1B68804A43F480331360EE
:1046C00058E07B685B68002B12D17C4B1B687B4AEF
:1046D00023F480331360794B1B68784A23F400235A
:1046E0001360764B1B68754A23F48023136041E006
:1046F0007B685B68B3F5A02F12D1704B1B686F4AC3
:1047000043F4802313606D4B1B686C4A23F4002331
:1047100013606A4B1B68694A43F48033136029E0D5
:104720007B685B68B3F5502F12D1644B1B68634AFA
:1047300043F480231360614B1B68604A43F40023F9
:1047400013605E4B1B685D4A43F48033136011E0D5
:104750005A4B1B68594A23F480331360574B1B682C
:10476000564A23F480231360544B1B68534A23F4A6
:1047700000231360FDF700FD38617B685B68002B48
:1047800019D008E0FDF7F8FC02463B69D31A642B08
:1047900001D903238CE2494B1B6803F40033002B3F
:1047A000F0D00EE0FDF7E8FC02463B69D31A642B1B
:1047B00001D903237CE2414B1B6803F40033002B37
:1047C000F0D17B681B6803F00203002B00F09E8091
:1047D000FB69002B05D07B69002B47D0BB69002B00
:1047E00044D17B68DB68002B01D1012360E2334BAD
:1047F0001B6803F01803FB60BB69002B09D17B69C0
:10480000002B06D07B681B69FA689A4201D001230D
:104810004EE22A4B1B6823F019027B681B69134385
:10482000264A43F001031360FB69002B09D1234B97
:104830001B68DB0803F00303214A22FA03F3214A31
:104840001360214B1B681846FDF746FC0346002BFE
:1048500001D001232CE2194B5B6823F0FE427B68F8
:104860005B691B06154913434B604FE07B68DB68AF
:10487000002B32D0114B1B6823F019027B68D968DA
:104880007B681B690B430D4913430B600B4B5B6843
:1048900023F0FE427B685B691B06084913434B60AB
:1048A000FDF76AFC386111E0FDF766FC02463B69E2
:1048B000D31A012B0AD90323FAE100BF004402589E
:1048C0000090D0030400002408000024954B1B68CE
:1048D00003F00403002BE7D018E0924B1B68914AC9
:1048E00023F001031360FDF747FC386108E0FDF792
:1048F00043FC02463B69D31A012B01D90323D7E1BC
:10490000884B1B6803F00403002BF0D17B681B6805
:1049100003F01003002B45D0FB69082B05D07B6901
:10492000002B08D0BB69012B05D17B681B6A002BCB
:1049300038D10123BCE17B681B6A002B19D0794B6D
:104940001B68784A43F080031360FDF715FC38615B
:1049500008E0FDF711FC02463B69D31A012B01D98F
:104960000323A5E16F4B1B6803F48073002BF0D089
:1049700018E06C4B1B686B4A23F080031360FDF753
:10498000FBFB386108E0FDF7F7FB02463B69D31AF1
:10499000012B01D903238BE1624B1B6803F4807365
:1049A000002BF0D17B681B6803F00803002B36D086
:1049B0007B689B69002B19D05A4B5B6F594A43F0B7
:1049C00001035367FDF7D8FB386108E0FDF7D4FB1E
:1049D00002463B69D31A012B01D9032368E1514BED
:1049E0005B6F03F00203002BF0D018E04D4B5B6FC0
:1049F0004C4A23F001035367FDF7BEFB386108E022
:104A0000FDF7BAFB02463B69D31A012B01D90323F8
:104A10004EE1444B5B6F03F00203002BF0D17B6847
:104A20001B6803F02003002B36D07B68DB69002B6A
:104A300019D03C4B1B683B4A43F480531360FDF78D
:104A40009BFB386108E0FDF797FB02463B69D31AF0
:104A5000012B01D903232BE1324B1B6803F40053D4
:104A6000002BF0D018E02F4B1B682E4A23F4805304
:104A70001360FDF781FB386108E0FDF77DFB02461E
:104A80003B69D31A012B01D9032311E1254B1B6884
:104A900003F40053002BF0D17B681B6803F0040380
:104AA000002B00F09B80204B1B681F4A43F480734F
:104AB00013607B689B68012B06D11A4B1B6F194A48
:104AC00043F0010313675AE07B689B68002B12D107
:104AD000144B1B6F134A23F001031367114B1B6F19
:104AE000104A23F0800313670E4B1B6F0D4A23F00F
:104AF0000403136743E07B689B68052B16D1094BC1
:104B00001B6F084A43F004031367064B1B6F054AEB
:104B100023F080031367034B1B6F024A43F001032A
:104B200013672CE000440258004802587B689B68D9
:104B3000852B12D1604B1B6F5F4A43F00403136750
:104B40005D4B1B6F5C4A43F0800313675A4B1B6F2E
:104B5000594A43F00103136711E0574B1B6F564A44
:104B600023F001031367544B1B6F534A23F00403D4
:104B70001367514B1B6F504A23F0800313677B6808
:104B80009B68002B15D0FDF7F7FA38610AE0FDF7B6
:104B9000F3FA02463B69D31A41F28832934201D9B3
:104BA000032385E0444B1B6F03F00203002BEED080
:104BB00014E0FDF7E1FA38610AE0FDF7DDFA02469C
:104BC0003B69D31A41F28832934201D903236FE043
:104BD000394B1B6F03F00203002BEED17B685B6A3D
:104BE000002B42D0FB69182B31D17B685B6A012B0B
:104BF00001D101235CE0304B5B6BDB08C3F30C039A
:104C0000FB607B689B6CFA689A422ED02A4BDB6A69
:104C1000294A23F00103D362FDF7AEFA386100BFE1
:104C2000FDF7AAFA02463B699342F9D0224B5A6B30
:104C3000224B13407A68926CD2001F4913434B6396
:104C40001D4BDB6A1C4A43F00103D3620DE07B6815
:104C500001225A647B6824331946002000F03EFA92
:104C60000346002B01D0012322E07B68DB6C002B84
:104C70000AD07B684C331946012000F02FFA034616
:104C8000002B01D0012313E07B685B6F002B0ED05B
:104C90007B680122C3F894207B6874331946022094
:104CA00000F01CFA0346002B01D0012300E0002392
:104CB00018462037BD4680BD004402580700FFFF5C
:104CC00080B48BB000AFAA4B1B6903F03803182BDC
:104CD00000F2368101A252F823F000BF414D00706E
:104CE000414F0070414F0070414F0070414F0070C4
:104CF000414F0070414F0070414F0070674D007090
:104D0000414F0070414F0070414F0070414F0070A3
:104D1000414F0070414F0070414F00706D4D007069
:104D2000414F0070414F0070414F0070414F007083
:104D3000414F0070414F0070414F0070734D007043
:104D40008B4B1B6803F02003002B09D0884B1B689A
:104D5000DB0803F00303874A22FA03F33B62F2E025
:104D600000233B62EFE0844B3B62ECE0834B3B6211
:104D7000E9E07F4B9B6A03F00303FB617C4B9B6A7A
:104D80001B0903F03F03BB61794BDB6A03F00103AE
:104D90007B61774B5B6BDB08C3F30C037A6902FB27
:104DA00003F307EE903AF8EE677AC7ED047ABB6931
:104DB000002B00F0C280FB69022B64D0FB69022B40
:104DC00000F28380FB69002B03D0FB69012B38D0F4
:104DD0007BE0674B1B6803F02003002B2DD0644B56
:104DE0001B68DB0803F00303624A22FA03F3FB604B
:104DF000FB6807EE903AF8EE676ABB6907EE903AF7
:104E0000F8EE677A86EEA77A594B1B6BC3F308035B
:104E100007EE903AF8EE676A97ED046ADFED585AAC
:104E2000C6EE257A76EEA77AF7EE006A77EEA67AD6
:104E300067EE277AC7ED097A69E04FF000037B62DD
:104E400065E0BB6907EE903AF8EE677ADFED4D6AF0
:104E500086EEA77A464B1B6BC3F3080307EE903A26
:104E6000F8EE676A97ED046ADFED455AC6EE257ADB
:104E700076EEA77AF7EE006A77EEA67A67EE277AE3
:104E8000C7ED097A43E0BB6907EE903AF8EE677A1E
:104E9000DFED3D6A86EEA77A354B1B6BC3F3080343
:104EA00007EE903AF8EE676A97ED046ADFED345A40
:104EB000C6EE257A76EEA77AF7EE006A77EEA67A46
:104EC00067EE277AC7ED097A21E0BB6907EE903AD1
:104ED000F8EE677ADFED2B6A86EEA77A244B1B6B20
:104EE000C3F3080307EE903AF8EE676A97ED046A99
:104EF000DFED235AC6EE257A76EEA77AF7EE006A42
:104F000077EEA67A67EE277AC7ED097A00BF184BCD
:104F10001B6B5B0A03F07F030133BB60BB6807EECA
:104F2000903AB8EE677AD7ED096AC6EE877AFCEE5A
:104F3000E77A17EE903A3B6205E000233B6202E01D
:104F40000D4B3B6200BF0A4B9B6903F00F037B6074
:104F50007B68072B05D97B68073B3A6A22FA03F383
:104F60003B623B6A18462C37BD465DF8047B7047B0
:104F7000004402580090D00300093D0000366E0145
:104F8000000000460024744A001BB74B80B584B073
:104F900000AF104A3B4692E8030083E80300FFF7A6
:104FA0008FFEF8600C4BDB6903F00F03BB60BB683E
:104FB000072B09D9BB68083B10333B4413F8103C5E
:104FC0001A46FB68D340FB60FB6818461037BD46A5
:104FD00080BD00BF341901700044025880B582B012
:104FE00000AFFFF7D3FF7860094B1B6A03F007039C
:104FF0003B603B68032B05D93B68033B7A6822FA88
:1050000003F37B607B6818460837BD4680BD00BF50
:105010000044025880B582B000AFFFF7B7FF786058
:10502000094B1B6A1B0903F007033B603B68032B1A
:1050300005D93B68033B7A6822FA03F37B607B68FF
:1050400018460837BD4680BD0044025880B582B07E
:1050500000AFFFF79BFF7860094B1B6A1B0A03F048
:1050600007033B603B68032B05D93B68033B7A6829
:1050700022FA03F37B607B6818460837BD4680BD83
:105080000044025880B582B000AF084B9B6B1B0CEC
:1050900003F07F0301337B6000F076F902467B6802
:1050A000B2FBF3F318460837BD4680BD00440258F2
:1050B00080B582B000AF084B1B6C1B0C03F07F0364
:1050C00001337B6000F0E6F902467B68B2FBF3F344
:1050D00018460837BD4680BD0044025880B58AB0E6
:1050E00000AF78603960002387F823307B68DA00EE
:1050F0009A4B1344FB617B689A00994B1344BB6144
:10510000984BD96A7A6813469B0013445B0013449A
:105110004FF4787202FA03F3DB43924A0B40D362F6
:10512000904B1A687B685B004FF0807101FA03F3C3
:10513000DB438C4913400B60FDF71EF8786108E0F3
:10514000FDF71AF802467B69D31A322B01D90323E3
:10515000FFE0844B1A687B685B004FF0007101FA36
:1051600003F31340002BEBD13B681B68022B40F08C
:10517000DD803B685B683B613B69002B09D1794B63
:105180001B68DB0803F00303774A22FA03F37B6210
:1051900007E03B69022B02D1744B7B6201E0744B48
:1051A0007B623B689B687A6AB2FBF3F37B627B6A43
:1051B000704A934202D318237B620FE07B6A6E4AE7
:1051C000934202D910237B6208E07B6A6B4A9342C8
:1051D00002D908237B6201E002237B627A681346CE
:1051E0009B0013445B0013447A6A02FA03F37B6268
:1051F0005C4B9A6A7B68DB004FF47C7101FA03F325
:1052000043F00303DB431A403B6899687B68DB008B
:10521000043399403B690B43524913438B62514B12
:105220009B6A03F003033A699A4201D0012390E09C
:105230004C4BD96A7A6813469B0013445B001344B5
:105240001B2202FA03F3DB4301EA030245497B6AAE
:105250001343CB623B68DB685A1E3B681B69013B0A
:105260005B021A433B685B69013B1B041A433B68C2
:105270009B69013B1B061A43FB691A603B68DB69AB
:105280005A1E3B681B6A013B1B021A43BB691A602A
:105290007B68002B05D1334BDB6A324A43F0200395
:1052A000D3623B685B6A002B1CD07B68DA00344B0E
:1052B0001344FB60FB681A68324B13403A68526A29
:1052C000D2001A43FB681A60264BD96A7A681346E3
:1052D0009B0013445B001344012202FA03F3214AAA
:1052E0000B43D3621F4B1A687B685B004FF08071E1
:1052F00001FA03F31B4913430B60FCF73DFF786190
:1053000008E0FCF739FF02467B69D31A322B01D93A
:1053100003231EE0134B1A687B685B004FF000719B
:1053200001FA03F31340002BEBD010E00D4B9A6A07
:105330007B68DB0004334FF47C7101FA03F343F024
:105340000303DB431340074A43F00303936297F8D8
:10535000233018462837BD4680BD00BF3044025870
:10536000C0440258004402580090D00300366E0139
:1053700000093D0000127A00FF083D007F841E00F6
:10538000344402580700FFFF80B489B000AF3C4BA3
:105390009B6A7B613A4B9B6B3B617B691B0B03F008
:1053A0003F03FB603B69C3F308030133BB60FB6849
:1053B000002B01D100235CE0314BDB6A03F4006376
:1053C000002B06D02E4BDB6BDB08C3F30C03BB6159
:1053D00001E00023BB617B6903F00303022B19D0BA
:1053E000022B1DD8002B02D0012B16D018E0244B25
:1053F0001B6803F02003002B09D0214B1B68DB083E
:1054000003F003031F4A22FA03F3FB610BE00023BE
:10541000FB6108E01C4BFB6105E01C4BFB6102E0FB
:105420000023FB6100BFFB6907EE903AF8EE676A64
:10543000FB6807EE903AF8EE677A86EEA77ABB68CB
:1054400007EE903AF8EE676ABB6907EE903AB8EE5D
:10545000676ADFED0F5AC6EE257A76EEA77A67EE19
:10546000277AC7ED017AD7ED017AFCEEE77A17EEDD
:10547000903A18462437BD465DF8047B704700BF5C
:10548000004402580090D00300366E0100093D0030
:105490000000004680B489B000AF3C4B9B6A7B6142
:1054A0003A4B1B6C3B617B691B0D03F03F03FB60B8
:1054B0003B69C3F308030133BB60FB68002B01D1D8
:1054C00000235CE0314BDB6A03F48003002B06D041
:1054D0002E4B5B6CDB08C3F30C03BB6101E00023C4
:1054E000BB617B6903F00303022B19D0022B1DD88B
:1054F000002B02D0012B16D018E0244B1B6803F0C0
:105500002003002B09D0214B1B68DB0803F00303A9
:105510001F4A22FA03F3FB610BE00023FB6108E062
:105520001C4BFB6105E01C4BFB6102E00023FB61AF
:1055300000BFFB6907EE903AF8EE676AFB6807EE7A
:10554000903AF8EE677A86EEA77ABB6807EE903A53
:10555000F8EE676ABB6907EE903AB8EE676ADFED6E
:105560000F5AC6EE257A76EEA77A67EE277AC7ED50
:10557000017AD7ED017AFCEEE77A17EE903A1846F9
:105580002437BD465DF8047B704700BF00440258D5
:105590000090D00300366E0100093D000000004677
:1055A0002DE9B04FC2B000AFC7F8F400002387F870
:1055B0000731002387F80631D7F8F430D3E9002308
:1055C00002F48024002554EA050300F09A80AA4BD7
:1055D0001B6F03F44073C7F80031D7F80031002B7C
:1055E0002FD0D7F8F430D3F8843003F44072D7F8D2
:1055F0000031934225D0A14B1B68A04A43F480732D
:1056000013609E4B1B6803F48073002B03D10123AE
:1056100087F8073115E0984B1B6F23F44073C7F8E8
:105620000031954B1B6F944A43F480331367924BC0
:105630001B6F914A23F4803313678F4AD7F80031E8
:10564000136797F80731002B57D1D7F8F430D3F808
:105650008430B3F5807F18D1FCF78EFDC7F8FC00CD
:105660000DE0FCF789FD0246D7F8FC30D21A41F272
:1056700088339A4203D9032387F8073105E07E4B2C
:105680001B6F03F00203002BEBD097F80731002BC0
:105690002ED1D7F8F430D3F8843003F47C33002BC8
:1056A0000ED0754B1B6923F47C51D7F8F430D3F836
:1056B00084301A09724B13406F4A0B43136105E0A3
:1056C0006D4B1B696C4A23F47C5313616A4B196F51
:1056D000D7F8F430D3F8843003F44073664A0B43B0
:1056E0001367654B1B6F644A43F40043136708E07C
:1056F00097F8073187F8063103E097F8073187F804
:105700000631D7F8F430D3E9002302F001084FF056
:10571000000958EA090335D0D7F8F4309B68032B09
:1057200018D801A252F823F05D5700703957007065
:10573000475700705D5700704F4BDB6A4E4A43F08D
:105740004003D3620BE04C4BDB6A4B4A43F48023AB
:10575000D36204E0012387F8073100E000BF97F827
:105760000731002B0AD1444BDB6C23F00301D7F83F
:10577000F4309B68404A0B43D36403E097F8073149
:1057800087F80631D7F8F430D3E9002302F0020A93
:105790004FF0000B5AEA0B0330D0D7F8F430DB6837
:1057A000202B0CD0202B11D8002B13D0102B0DD177
:1057B000314BDB6A304A43F40023D3620BE02E4BBB
:1057C000DB6A2D4A43F48013D36204E0012387F897
:1057D000073100E000BF97F80731002B0AD1264BB4
:1057E000DB6C23F03001D7F8F430DB68224A0B433E
:1057F000D36403E097F8073187F80631D7F8F4301F
:10580000D3E9002302F00403C7F8E8300023C7F807
:10581000EC30D7E93A120B46134337D0D7F8F430BF
:105820001B69802B0CD0802B11D8002B13D0402B60
:105830000DD1114BDB6A104A43F40023D3620BE015
:105840000D4BDB6A0C4A43F48013D36204E001235E
:1058500087F8073100E000BF97F80731002B11D11E
:10586000054BDB6C23F0C001D7F8F4301B69024A0A
:105870000B43D3640AE000BF0044025800480258BA
:10588000CFFFFF0F97F8073187F80631D7F8F430CC
:10589000D3E9002302F00803C7F8E0300023C7F87B
:1058A000E430D7E938120B46134309D0A44BDB6C24
:1058B00023F04051D7F8F4305B69A14A0B43D3641D
:1058C000D7F8F430D3E9002302F40013C7F8D83036
:1058D0000023C7F8DC30D7E936120B4613432CD02F
:1058E000D7F8F4309B6D002B02D0042B07D00DE0CD
:1058F000934BDB6A924A43F40023D3620AE0904B55
:10590000DB6A8F4A43F48013D36203E0012387F8F4
:10591000073100BF97F80731002B0AD1884BDB6CA9
:1059200023F00401D7F8F4309B6D854A0B43D36410
:1059300003E097F8073187F80631D7F8F430D3E958
:10594000002302F01003C7F8D0300023C7F8D4308A
:10595000D7E934120B46134334D0D7F8F4309B699F
:10596000B3F1007F1AD0B3F1007F13D8002B03D01E
:10597000B3F1807F07D00DE0714BDB6A704A43F4CE
:105980008033D3620BE06E4BDB6A6D4A43F0005309
:10599000D36204E0012387F8073100E000BF97F8E5
:1059A0000731002B0AD1664BDB6C23F04071D7F82E
:1059B000F4309B69624A0B43D36403E097F80731E4
:1059C00087F80631D7F8F430D3E9002302F020033A
:1059D000C7F8C8300023C7F8CC30D7E932120B46DD
:1059E000134345D0D7F8F430DB69B3F5A00F2BD0C3
:1059F000B3F5A00F24D8B3F5800F25D0B3F5800FF1
:105A00001ED8B3F5401F1FD0B3F5401F18D8B3F50B
:105A1000001F0ED0B3F5001F12D8002B14D0B3F521
:105A2000801F0DD1464BDB6A454A43F48033D36275
:105A30000BE0434BDB6A424A43F00063D36204E06D
:105A4000012387F8073100E000BF97F80731002BEA
:105A50000AD13B4BDB6C23F4E001D7F8F430DB696F
:105A6000374A0B43D36403E097F8073187F80631D0
:105A7000D7F8F430D3E9002302F04003C7F8C03070
:105A80000023C7F8C430D7E930120B46134309D0BE
:105A90002B4B1B6D23F04051D7F8F4301B6A284A7A
:105AA0000B431365D7F8F430D3E9002302F08003E9
:105AB000C7F8B8300023C7F8BC30D7E92E120B4620
:105AC000134309D01E4BDB6C23F44031D7F8F4307C
:105AD0005B6A1B4A0B43D364D7F8F430D3E9002345
